{
  "address": "0xf34fa8D3ac4AAcAD8307da8C8E51bDddCDa60Ede",
  "abi": [
    {
      "type": "constructor",
      "inputs": [
        {
          "name": "_assetToken",
          "type": "address",
          "internalType": "contract IERC20"
        },
        {
          "name": "_kgh",
          "type": "address",
          "internalType": "contract IERC721"
        },
        {
          "name": "_securityCouncil",
          "type": "address",
          "internalType": "address"
        },
        {
          "name": "_validatorRewardVault",
          "type": "address",
          "internalType": "address"
        },
        {
          "name": "_validatorManager",
          "type": "address",
          "internalType": "contract IValidatorManager"
        },
        {
          "name": "_minDelegationPeriod",
          "type": "uint128",
          "internalType": "uint128"
        },
        {
          "name": "_bondAmount",
          "type": "uint128",
          "internalType": "uint128"
        }
      ],
      "stateMutability": "nonpayable"
    },
    {
      "type": "function",
      "name": "ASSET_TOKEN",
      "inputs": [],
      "outputs": [
        {
          "name": "",
          "type": "address",
          "internalType": "contract IERC20"
        }
      ],
      "stateMutability": "view"
    },
    {
      "type": "function",
      "name": "BOND_AMOUNT",
      "inputs": [],
      "outputs": [
        {
          "name": "",
          "type": "uint128",
          "internalType": "uint128"
        }
      ],
      "stateMutability": "view"
    },
    {
      "type": "function",
      "name": "DECIMAL_OFFSET",
      "inputs": [],
      "outputs": [
        {
          "name": "",
          "type": "uint128",
          "internalType": "uint128"
        }
      ],
      "stateMutability": "view"
    },
    {
      "type": "function",
      "name": "KGH",
      "inputs": [],
      "outputs": [
        {
          "name": "",
          "type": "address",
          "internalType": "contract IERC721"
        }
      ],
      "stateMutability": "view"
    },
    {
      "type": "function",
      "name": "MIN_DELEGATION_PERIOD",
      "inputs": [],
      "outputs": [
        {
          "name": "",
          "type": "uint128",
          "internalType": "uint128"
        }
      ],
      "stateMutability": "view"
    },
    {
      "type": "function",
      "name": "SECURITY_COUNCIL",
      "inputs": [],
      "outputs": [
        {
          "name": "",
          "type": "address",
          "internalType": "address"
        }
      ],
      "stateMutability": "view"
    },
    {
      "type": "function",
      "name": "TAX_DENOMINATOR",
      "inputs": [],
      "outputs": [
        {
          "name": "",
          "type": "uint128",
          "internalType": "uint128"
        }
      ],
      "stateMutability": "view"
    },
    {
      "type": "function",
      "name": "TAX_NUMERATOR",
      "inputs": [],
      "outputs": [
        {
          "name": "",
          "type": "uint128",
          "internalType": "uint128"
        }
      ],
      "stateMutability": "view"
    },
    {
      "type": "function",
      "name": "VALIDATOR_MANAGER",
      "inputs": [],
      "outputs": [
        {
          "name": "",
          "type": "address",
          "internalType": "contract IValidatorManager"
        }
      ],
      "stateMutability": "view"
    },
    {
      "type": "function",
      "name": "VALIDATOR_REWARD_VAULT",
      "inputs": [],
      "outputs": [
        {
          "name": "",
          "type": "address",
          "internalType": "address"
        }
      ],
      "stateMutability": "view"
    },
    {
      "type": "function",
      "name": "bondValidatorKro",
      "inputs": [
        {
          "name": "validator",
          "type": "address",
          "internalType": "address"
        }
      ],
      "outputs": [],
      "stateMutability": "nonpayable"
    },
    {
      "type": "function",
      "name": "canUndelegateKghAt",
      "inputs": [
        {
          "name": "validator",
          "type": "address",
          "internalType": "address"
        },
        {
          "name": "delegator",
          "type": "address",
          "internalType": "address"
        },
        {
          "name": "tokenId",
          "type": "uint256",
          "internalType": "uint256"
        }
      ],
      "outputs": [
        {
          "name": "",
          "type": "uint128",
          "internalType": "uint128"
        }
      ],
      "stateMutability": "view"
    },
    {
      "type": "function",
      "name": "canUndelegateKroAt",
      "inputs": [
        {
          "name": "validator",
          "type": "address",
          "internalType": "address"
        },
        {
          "name": "delegator",
          "type": "address",
          "internalType": "address"
        }
      ],
      "outputs": [
        {
          "name": "",
          "type": "uint128",
          "internalType": "uint128"
        }
      ],
      "stateMutability": "view"
    },
    {
      "type": "function",
      "name": "canWithdrawAt",
      "inputs": [
        {
          "name": "validator",
          "type": "address",
          "internalType": "address"
        }
      ],
      "outputs": [
        {
          "name": "",
          "type": "uint128",
          "internalType": "uint128"
        }
      ],
      "stateMutability": "view"
    },
    {
      "type": "function",
      "name": "claimKghReward",
      "inputs": [
        {
          "name": "validator",
          "type": "address",
          "internalType": "address"
        }
      ],
      "outputs": [],
      "stateMutability": "nonpayable"
    },
    {
      "type": "function",
      "name": "decreaseBalanceWithChallenge",
      "inputs": [
        {
          "name": "loser",
          "type": "address",
          "internalType": "address"
        }
      ],
      "outputs": [
        {
          "name": "",
          "type": "uint128",
          "internalType": "uint128"
        }
      ],
      "stateMutability": "nonpayable"
    },
    {
      "type": "function",
      "name": "delegate",
      "inputs": [
        {
          "name": "validator",
          "type": "address",
          "internalType": "address"
        },
        {
          "name": "assets",
          "type": "uint128",
          "internalType": "uint128"
        }
      ],
      "outputs": [
        {
          "name": "",
          "type": "uint128",
          "internalType": "uint128"
        }
      ],
      "stateMutability": "nonpayable"
    },
    {
      "type": "function",
      "name": "delegateKgh",
      "inputs": [
        {
          "name": "validator",
          "type": "address",
          "internalType": "address"
        },
        {
          "name": "tokenId",
          "type": "uint256",
          "internalType": "uint256"
        }
      ],
      "outputs": [],
      "stateMutability": "nonpayable"
    },
    {
      "type": "function",
      "name": "delegateKghBatch",
      "inputs": [
        {
          "name": "validator",
          "type": "address",
          "internalType": "address"
        },
        {
          "name": "tokenIds",
          "type": "uint256[]",
          "internalType": "uint256[]"
        }
      ],
      "outputs": [],
      "stateMutability": "nonpayable"
    },
    {
      "type": "function",
      "name": "deposit",
      "inputs": [
        {
          "name": "assets",
          "type": "uint128",
          "internalType": "uint128"
        }
      ],
      "outputs": [],
      "stateMutability": "nonpayable"
    },
    {
      "type": "function",
      "name": "depositToRegister",
      "inputs": [
        {
          "name": "validator",
          "type": "address",
          "internalType": "address"
        },
        {
          "name": "assets",
          "type": "uint128",
          "internalType": "uint128"
        },
        {
          "name": "withdrawAccount",
          "type": "address",
          "internalType": "address"
        }
      ],
      "outputs": [],
      "stateMutability": "nonpayable"
    },
    {
      "type": "function",
      "name": "getKghNum",
      "inputs": [
        {
          "name": "validator",
          "type": "address",
          "internalType": "address"
        },
        {
          "name": "delegator",
          "type": "address",
          "internalType": "address"
        }
      ],
      "outputs": [
        {
          "name": "",
          "type": "uint128",
          "internalType": "uint128"
        }
      ],
      "stateMutability": "view"
    },
    {
      "type": "function",
      "name": "getKghReward",
      "inputs": [
        {
          "name": "validator",
          "type": "address",
          "internalType": "address"
        },
        {
          "name": "delegator",
          "type": "address",
          "internalType": "address"
        }
      ],
      "outputs": [
        {
          "name": "",
          "type": "uint128",
          "internalType": "uint128"
        }
      ],
      "stateMutability": "view"
    },
    {
      "type": "function",
      "name": "getKroAssets",
      "inputs": [
        {
          "name": "validator",
          "type": "address",
          "internalType": "address"
        },
        {
          "name": "delegator",
          "type": "address",
          "internalType": "address"
        }
      ],
      "outputs": [
        {
          "name": "",
          "type": "uint128",
          "internalType": "uint128"
        }
      ],
      "stateMutability": "view"
    },
    {
      "type": "function",
      "name": "getKroTotalShareBalance",
      "inputs": [
        {
          "name": "validator",
          "type": "address",
          "internalType": "address"
        },
        {
          "name": "delegator",
          "type": "address",
          "internalType": "address"
        }
      ],
      "outputs": [
        {
          "name": "",
          "type": "uint128",
          "internalType": "uint128"
        }
      ],
      "stateMutability": "view"
    },
    {
      "type": "function",
      "name": "getWithdrawAccount",
      "inputs": [
        {
          "name": "validator",
          "type": "address",
          "internalType": "address"
        }
      ],
      "outputs": [
        {
          "name": "",
          "type": "address",
          "internalType": "address"
        }
      ],
      "stateMutability": "view"
    },
    {
      "type": "function",
      "name": "increaseBalanceWithChallenge",
      "inputs": [
        {
          "name": "winner",
          "type": "address",
          "internalType": "address"
        },
        {
          "name": "challengeReward",
          "type": "uint128",
          "internalType": "uint128"
        }
      ],
      "outputs": [
        {
          "name": "",
          "type": "uint128",
          "internalType": "uint128"
        }
      ],
      "stateMutability": "nonpayable"
    },
    {
      "type": "function",
      "name": "increaseBalanceWithReward",
      "inputs": [
        {
          "name": "validator",
          "type": "address",
          "internalType": "address"
        },
        {
          "name": "baseReward",
          "type": "uint128",
          "internalType": "uint128"
        },
        {
          "name": "boostedReward",
          "type": "uint128",
          "internalType": "uint128"
        },
        {
          "name": "validatorReward",
          "type": "uint128",
          "internalType": "uint128"
        }
      ],
      "outputs": [],
      "stateMutability": "nonpayable"
    },
    {
      "type": "function",
      "name": "onERC721Received",
      "inputs": [
        {
          "name": "",
          "type": "address",
          "internalType": "address"
        },
        {
          "name": "",
          "type": "address",
          "internalType": "address"
        },
        {
          "name": "",
          "type": "uint256",
          "internalType": "uint256"
        },
        {
          "name": "",
          "type": "bytes",
          "internalType": "bytes"
        }
      ],
      "outputs": [
        {
          "name": "",
          "type": "bytes4",
          "internalType": "bytes4"
        }
      ],
      "stateMutability": "pure"
    },
    {
      "type": "function",
      "name": "previewDelegate",
      "inputs": [
        {
          "name": "validator",
          "type": "address",
          "internalType": "address"
        },
        {
          "name": "assets",
          "type": "uint128",
          "internalType": "uint128"
        }
      ],
      "outputs": [
        {
          "name": "",
          "type": "uint128",
          "internalType": "uint128"
        }
      ],
      "stateMutability": "view"
    },
    {
      "type": "function",
      "name": "previewUndelegate",
      "inputs": [
        {
          "name": "validator",
          "type": "address",
          "internalType": "address"
        },
        {
          "name": "shares",
          "type": "uint128",
          "internalType": "uint128"
        }
      ],
      "outputs": [
        {
          "name": "",
          "type": "uint128",
          "internalType": "uint128"
        }
      ],
      "stateMutability": "view"
    },
    {
      "type": "function",
      "name": "reflectiveWeight",
      "inputs": [
        {
          "name": "validator",
          "type": "address",
          "internalType": "address"
        }
      ],
      "outputs": [
        {
          "name": "",
          "type": "uint128",
          "internalType": "uint128"
        }
      ],
      "stateMutability": "view"
    },
    {
      "type": "function",
      "name": "revertDecreaseBalanceWithChallenge",
      "inputs": [
        {
          "name": "loser",
          "type": "address",
          "internalType": "address"
        }
      ],
      "outputs": [
        {
          "name": "",
          "type": "uint128",
          "internalType": "uint128"
        }
      ],
      "stateMutability": "nonpayable"
    },
    {
      "type": "function",
      "name": "totalKghNum",
      "inputs": [
        {
          "name": "validator",
          "type": "address",
          "internalType": "address"
        }
      ],
      "outputs": [
        {
          "name": "",
          "type": "uint128",
          "internalType": "uint128"
        }
      ],
      "stateMutability": "view"
    },
    {
      "type": "function",
      "name": "totalKroAssets",
      "inputs": [
        {
          "name": "validator",
          "type": "address",
          "internalType": "address"
        }
      ],
      "outputs": [
        {
          "name": "",
          "type": "uint128",
          "internalType": "uint128"
        }
      ],
      "stateMutability": "view"
    },
    {
      "type": "function",
      "name": "totalValidatorKro",
      "inputs": [
        {
          "name": "validator",
          "type": "address",
          "internalType": "address"
        }
      ],
      "outputs": [
        {
          "name": "",
          "type": "uint128",
          "internalType": "uint128"
        }
      ],
      "stateMutability": "view"
    },
    {
      "type": "function",
      "name": "totalValidatorKroBonded",
      "inputs": [
        {
          "name": "validator",
          "type": "address",
          "internalType": "address"
        }
      ],
      "outputs": [
        {
          "name": "",
          "type": "uint128",
          "internalType": "uint128"
        }
      ],
      "stateMutability": "view"
    },
    {
      "type": "function",
      "name": "totalValidatorKroNotBonded",
      "inputs": [
        {
          "name": "validator",
          "type": "address",
          "internalType": "address"
        }
      ],
      "outputs": [
        {
          "name": "",
          "type": "uint128",
          "internalType": "uint128"
        }
      ],
      "stateMutability": "view"
    },
    {
      "type": "function",
      "name": "unbondValidatorKro",
      "inputs": [
        {
          "name": "validator",
          "type": "address",
          "internalType": "address"
        }
      ],
      "outputs": [],
      "stateMutability": "nonpayable"
    },
    {
      "type": "function",
      "name": "undelegate",
      "inputs": [
        {
          "name": "validator",
          "type": "address",
          "internalType": "address"
        },
        {
          "name": "assets",
          "type": "uint128",
          "internalType": "uint128"
        }
      ],
      "outputs": [],
      "stateMutability": "nonpayable"
    },
    {
      "type": "function",
      "name": "undelegateKgh",
      "inputs": [
        {
          "name": "validator",
          "type": "address",
          "internalType": "address"
        },
        {
          "name": "tokenId",
          "type": "uint256",
          "internalType": "uint256"
        }
      ],
      "outputs": [],
      "stateMutability": "nonpayable"
    },
    {
      "type": "function",
      "name": "undelegateKghBatch",
      "inputs": [
        {
          "name": "validator",
          "type": "address",
          "internalType": "address"
        },
        {
          "name": "tokenIds",
          "type": "uint256[]",
          "internalType": "uint256[]"
        }
      ],
      "outputs": [],
      "stateMutability": "nonpayable"
    },
    {
      "type": "function",
      "name": "version",
      "inputs": [],
      "outputs": [
        {
          "name": "",
          "type": "string",
          "internalType": "string"
        }
      ],
      "stateMutability": "view"
    },
    {
      "type": "function",
      "name": "withdraw",
      "inputs": [
        {
          "name": "validator",
          "type": "address",
          "internalType": "address"
        },
        {
          "name": "assets",
          "type": "uint128",
          "internalType": "uint128"
        }
      ],
      "outputs": [],
      "stateMutability": "nonpayable"
    },
    {
      "type": "event",
      "name": "Deposited",
      "inputs": [
        {
          "name": "validator",
          "type": "address",
          "indexed": true,
          "internalType": "address"
        },
        {
          "name": "amount",
          "type": "uint128",
          "indexed": false,
          "internalType": "uint128"
        }
      ],
      "anonymous": false
    },
    {
      "type": "event",
      "name": "KghBatchDelegated",
      "inputs": [
        {
          "name": "validator",
          "type": "address",
          "indexed": true,
          "internalType": "address"
        },
        {
          "name": "delegator",
          "type": "address",
          "indexed": true,
          "internalType": "address"
        },
        {
          "name": "tokenIds",
          "type": "uint256[]",
          "indexed": false,
          "internalType": "uint256[]"
        }
      ],
      "anonymous": false
    },
    {
      "type": "event",
      "name": "KghBatchUndelegated",
      "inputs": [
        {
          "name": "validator",
          "type": "address",
          "indexed": true,
          "internalType": "address"
        },
        {
          "name": "delegator",
          "type": "address",
          "indexed": true,
          "internalType": "address"
        },
        {
          "name": "tokenIds",
          "type": "uint256[]",
          "indexed": false,
          "internalType": "uint256[]"
        },
        {
          "name": "amount",
          "type": "uint128",
          "indexed": false,
          "internalType": "uint128"
        }
      ],
      "anonymous": false
    },
    {
      "type": "event",
      "name": "KghDelegated",
      "inputs": [
        {
          "name": "validator",
          "type": "address",
          "indexed": true,
          "internalType": "address"
        },
        {
          "name": "delegator",
          "type": "address",
          "indexed": true,
          "internalType": "address"
        },
        {
          "name": "tokenId",
          "type": "uint256",
          "indexed": false,
          "internalType": "uint256"
        }
      ],
      "anonymous": false
    },
    {
      "type": "event",
      "name": "KghRewardClaimed",
      "inputs": [
        {
          "name": "validator",
          "type": "address",
          "indexed": true,
          "internalType": "address"
        },
        {
          "name": "delegator",
          "type": "address",
          "indexed": true,
          "internalType": "address"
        },
        {
          "name": "amount",
          "type": "uint128",
          "indexed": false,
          "internalType": "uint128"
        }
      ],
      "anonymous": false
    },
    {
      "type": "event",
      "name": "KghUndelegated",
      "inputs": [
        {
          "name": "validator",
          "type": "address",
          "indexed": true,
          "internalType": "address"
        },
        {
          "name": "delegator",
          "type": "address",
          "indexed": true,
          "internalType": "address"
        },
        {
          "name": "tokenId",
          "type": "uint256",
          "indexed": false,
          "internalType": "uint256"
        },
        {
          "name": "amount",
          "type": "uint128",
          "indexed": false,
          "internalType": "uint128"
        }
      ],
      "anonymous": false
    },
    {
      "type": "event",
      "name": "KroDelegated",
      "inputs": [
        {
          "name": "validator",
          "type": "address",
          "indexed": true,
          "internalType": "address"
        },
        {
          "name": "delegator",
          "type": "address",
          "indexed": true,
          "internalType": "address"
        },
        {
          "name": "amount",
          "type": "uint128",
          "indexed": false,
          "internalType": "uint128"
        },
        {
          "name": "shares",
          "type": "uint128",
          "indexed": false,
          "internalType": "uint128"
        }
      ],
      "anonymous": false
    },
    {
      "type": "event",
      "name": "KroUndelegated",
      "inputs": [
        {
          "name": "validator",
          "type": "address",
          "indexed": true,
          "internalType": "address"
        },
        {
          "name": "delegator",
          "type": "address",
          "indexed": true,
          "internalType": "address"
        },
        {
          "name": "amount",
          "type": "uint128",
          "indexed": false,
          "internalType": "uint128"
        },
        {
          "name": "shares",
          "type": "uint128",
          "indexed": false,
          "internalType": "uint128"
        }
      ],
      "anonymous": false
    },
    {
      "type": "event",
      "name": "ValidatorKroBonded",
      "inputs": [
        {
          "name": "validator",
          "type": "address",
          "indexed": true,
          "internalType": "address"
        },
        {
          "name": "amount",
          "type": "uint128",
          "indexed": false,
          "internalType": "uint128"
        },
        {
          "name": "remainder",
          "type": "uint128",
          "indexed": false,
          "internalType": "uint128"
        }
      ],
      "anonymous": false
    },
    {
      "type": "event",
      "name": "ValidatorKroUnbonded",
      "inputs": [
        {
          "name": "validator",
          "type": "address",
          "indexed": true,
          "internalType": "address"
        },
        {
          "name": "amount",
          "type": "uint128",
          "indexed": false,
          "internalType": "uint128"
        },
        {
          "name": "remainder",
          "type": "uint128",
          "indexed": false,
          "internalType": "uint128"
        }
      ],
      "anonymous": false
    },
    {
      "type": "event",
      "name": "Withdrawn",
      "inputs": [
        {
          "name": "validator",
          "type": "address",
          "indexed": true,
          "internalType": "address"
        },
        {
          "name": "amount",
          "type": "uint128",
          "indexed": false,
          "internalType": "uint128"
        }
      ],
      "anonymous": false
    },
    {
      "type": "error",
      "name": "ImproperValidatorStatus",
      "inputs": []
    },
    {
      "type": "error",
      "name": "InsufficientAsset",
      "inputs": []
    },
    {
      "type": "error",
      "name": "InsufficientShare",
      "inputs": []
    },
    {
      "type": "error",
      "name": "InvalidTokenIdsInput",
      "inputs": []
    },
    {
      "type": "error",
      "name": "NotAllowedCaller",
      "inputs": []
    },
    {
      "type": "error",
      "name": "NotAllowedZeroInput",
      "inputs": []
    },
    {
      "type": "error",
      "name": "NotElapsedMinDelegationPeriod",
      "inputs": []
    },
    {
      "type": "error",
      "name": "ZeroAddress",
      "inputs": []
    }
  ],
  "transactionHash": "0xd694f17aaddcc0adc64daa5a84bd413c3187d651c6a6ae758ce19ae7ab71af0a",
  "args": [
    "0x25500000d700bbE27104577CCcce8eAbCC96c8ad",
    "0xacA91C74748090f861E25D142B6fCB265c6171c8",
    "0x3de211088dF516da72efe68D386b561BEE256Ec4",
    "0xe57E217d8ed498992452791622711B866403E950",
    "0x232277d9672eEdd53c4B26C0F386C2Eb88DC7363",
    604800,
    "0x10F0CF064DD59200000"
  ],
  "numDeployments": 1,
  "solcInputHash": "6271f6f40156b835b824d3aeb153efe1",
  "bytecode": "0x6101606040523480156200001257600080fd5b50604051620040e5380380620040e58339810160408190526200003591620000ac565b6001600160a01b0396871660805294861660a05292851660c05290841660e052909216610100526001600160801b039182166101205216610140526200014f565b6001600160a01b03811681146200008c57600080fd5b50565b80516001600160801b0381168114620000a757600080fd5b919050565b600080600080600080600060e0888a031215620000c857600080fd5b8751620000d58162000076565b6020890151909750620000e88162000076565b6040890151909650620000fb8162000076565b60608901519095506200010e8162000076565b6080890151909450620001218162000076565b92506200013160a089016200008f565b91506200014160c089016200008f565b905092959891949750929550565b60805160a05160c05160e051610100516101205161014051613dcf620003166000396000818161078b01528181611cd801528181611fc1015281816121ed0152818161226d015281816123cf0152612a4601526000818161085c015281816120dc015281816123200152612b5a01526000818161072b0152818161099b01528181610a9201528181610b98015281816110990152818161115401528181611532015281816115ed01528181611c4f01528181611da301528181611ed601528181611f4a0152818161215601528181612359015281816124ab01528181612566015281816127510152818161281001528181612d9701528181612e9401526132d10152600081816107b2015261286c01526000818161040b015281816128de0152818161291a01528181612f0a01528181612f5f0152612fdf0152600081816104df01528181610ee8015281816112d50152818161179e0152611b4701526000818161082b01528181610b0e01528181610fd8015281816112200152818161147a015281816116f401528181611bc701528181612658015281816128ab0152818161295801528181612e0001528181612f3d01528181612fbd015261321d0152613dcf6000f3fe608060405234801561001057600080fd5b50600436106102f45760003560e01c80638abf0af011610191578063b172597e116100e3578063c2d9b68411610097578063d706200511610071578063d706200514610826578063de7d4d6a1461084d578063fdbb3fd21461085757600080fd5b8063c2d9b684146107d4578063c42996d614610800578063c7ab2c071461081357600080fd5b8063b744d2f9116100c8578063b744d2f914610773578063bcacc70a14610786578063c0a63a79146107ad57600080fd5b8063b172597e1461074d578063b55cd78e1461076057600080fd5b8063a51c9ace11610145578063a85120e41161011f578063a85120e414610700578063ad42945114610713578063ae9483e01461072657600080fd5b8063a51c9ace146106d2578063a63b8d14146106da578063a8387172146106ed57600080fd5b8063913f1a9f11610176578063913f1a9f14610655578063960a08931461068a578063981cee531461069d57600080fd5b80638abf0af01461062f5780638c1516c71461064257600080fd5b806354469aea1161024a5780636b9ffeac116101fe578063833a333b116101d8578063833a333b146105c5578063842d0d3b146105d857806386d18a941461061c57600080fd5b80636b9ffeac1461053d5780637db41f971461057257806382dae3aa146105bd57600080fd5b80635636aabd1161022f5780635636aabd146104c757806356576b5b146104da5780635959b7651461050157600080fd5b806354469aea1461046b57806354fd4d501461047e57600080fd5b8063209a9694116102ac5780633608641711610286578063360864171461040657806340ce01f114610445578063536afae41461045857600080fd5b8063209a9694146103b5578063270a1644146103e057806331d8e007146103f357600080fd5b806319412a20116102dd57806319412a201461037c5780631e5d81781461038f5780631f86f4f1146103a257600080fd5b806308fab167146102f9578063150b7a021461030e575b600080fd5b61030c61030736600461382c565b61087e565b005b61034661031c366004613863565b7f150b7a020000000000000000000000000000000000000000000000000000000095945050505050565b6040517fffffffff0000000000000000000000000000000000000000000000000000000090911681526020015b60405180910390f35b61030c61038a3660046138fe565b610b8d565b61030c61039d366004613943565b610cc7565b61030c6103b03660046139c9565b61105e565b6103c86103c336600461382c565b611407565b6040516001600160801b039091168152602001610373565b61030c6103ee3660046139f3565b61141c565b61030c610401366004613943565b6114f7565b61042d7f000000000000000000000000000000000000000000000000000000000000000081565b6040516001600160a01b039091168152602001610373565b61030c6104533660046139c9565b611989565b6103c86104663660046139f3565b611c42565b61030c610479366004613a0e565b611d30565b6104ba6040518060400160405280600581526020017f312e302e3000000000000000000000000000000000000000000000000000000081525081565b6040516103739190613a5e565b6103c86104d53660046139f3565b611f3d565b61042d7f000000000000000000000000000000000000000000000000000000000000000081565b6103c861050f3660046139f3565b6001600160a01b0316600090815260208190526040902060020154600160801b90046001600160801b031690565b6103c861054b3660046139f3565b6001600160a01b03166000908152602081905260409020600301546001600160801b031690565b6103c8610580366004613aaf565b6001600160a01b0391821660009081526020818152604080832093909416825260069092019091522054600160801b90046001600160801b031690565b6103c8601481565b6103c86105d3366004613aaf565b612028565b6103c86105e6366004613aaf565b6001600160a01b03918216600090815260208181526040808320939094168252600590920190915220546001600160801b031690565b6103c861062a366004613ae2565b6120a1565b6103c861063d3660046139f3565b612112565b61030c6106503660046139f3565b61214b565b6103c86106633660046139f3565b6001600160a01b03166000908152602081905260409020600401546001600160801b031690565b6103c861069836600461382c565b6122f2565b6103c86106ab3660046139f3565b6001600160a01b03166000908152602081905260409020600201546001600160801b031690565b6103c8606481565b6103c86106e83660046139f3565b6122fe565b61030c6106fb3660046139f3565b61234e565b6103c861070e36600461382c565b61246e565b61030c610721366004613b1e565b612805565b61042d7f000000000000000000000000000000000000000000000000000000000000000081565b6103c861075b3660046139f3565b612af2565b6103c861076e366004613aaf565b612b2a565b61030c61078136600461382c565b612b8f565b6103c87f000000000000000000000000000000000000000000000000000000000000000081565b61042d7f000000000000000000000000000000000000000000000000000000000000000081565b61042d6107e23660046139f3565b6001600160a01b039081166000908152602081905260409020541690565b6103c861080e36600461382c565b612e87565b6103c8610821366004613aaf565b613040565b61042d7f000000000000000000000000000000000000000000000000000000000000000081565b6103c8620f424081565b6103c87f000000000000000000000000000000000000000000000000000000000000000081565b6001600160a01b0382811660009081526020819052604090205483911633146108d3576040517f9d02a7c200000000000000000000000000000000000000000000000000000000815260040160405180910390fd5b816001600160801b0316600003610916576040517f69646ab000000000000000000000000000000000000000000000000000000000815260040160405180910390fd5b42610920846122fe565b6001600160801b03161115610961576040517f285d5a9200000000000000000000000000000000000000000000000000000000815260040160405180910390fd5b6040517f970531c10000000000000000000000000000000000000000000000000000000081526001600160a01b03848116600483015242917f00000000000000000000000000000000000000000000000000000000000000009091169063970531c190602401602060405180830381865afa1580156109e4573d6000803e3d6000fd5b505050506040513d601f19601f82011682018060405250810190610a089190613b78565b6001600160801b03161115610a49576040517f197299a000000000000000000000000000000000000000000000000000000000815260040160405180910390fd5b610a53838361307e565b6040517f5bab847f0000000000000000000000000000000000000000000000000000000081526001600160a01b038481166004830152600160248301527f00000000000000000000000000000000000000000000000000000000000000001690635bab847f90604401600060405180830381600087803b158015610ad657600080fd5b505af1158015610aea573d6000803e3d6000fd5b5050506001600160a01b03808516600090815260208190526040902054610b4092507f0000000000000000000000000000000000000000000000000000000000000000821691166001600160801b038516613131565b6040516001600160801b03831681526001600160a01b038416907fab48b3d59a240196dc5bdd7f7a638fca310f8194c7d350c3dd7765861311ddf8906020015b60405180910390a2505050565b336001600160a01b037f00000000000000000000000000000000000000000000000000000000000000001614610bef576040517f9d02a7c200000000000000000000000000000000000000000000000000000000815260040160405180910390fd5b6001600160a01b038116610c2f576040517fd92e233d00000000000000000000000000000000000000000000000000000000815260040160405180910390fd5b6001600160a01b03838116600090815260208190526040812080547fffffffffffffffffffffffff00000000000000000000000000000000000000001692841692909217909155610c8390849084906131fd565b6040516001600160801b03831681526001600160a01b038416907fadb1a06aea2cd2ff20eac971640a5eb7d687df3e3a897be2f334836494958a4790602001610b80565b6000819003610d02576040517f69646ab000000000000000000000000000000000000000000000000000000000815260040160405180910390fd5b6001600160a01b0383166000908152602081815260408083203384526006019091528120905b82811015610e5a57816001016000858584818110610d4857610d48613b95565b602090810292909201358352508101919091526040016000908120546001600160801b03169003610da5576040517fe77a0da400000000000000000000000000000000000000000000000000000000815260040160405180910390fd5b42610dc98633878786818110610dbd57610dbd613b95565b905060200201356120a1565b6001600160801b03161115610e0a576040517f285d5a9200000000000000000000000000000000000000000000000000000000815260040160405180910390fd5b816001016000858584818110610e2257610e22613b95565b6020908102929092013583525081019190915260400160002080546fffffffffffffffffffffffffffffffff19169055600101610d28565b506000610e678533613333565b6001600160a01b0386166000908152602081815260408083206004810180546fffffffffffffffffffffffffffffffff1981166001600160801b039182168b900382161790915533855260069091019092529091208054808316600160801b91829004841688900390931602919091179055905060005b83811015610fbb577f00000000000000000000000000000000000000000000000000000000000000006001600160a01b03166342842e0e3033888886818110610f2957610f29613b95565b6040517fffffffff0000000000000000000000000000000000000000000000000000000060e088901b1681526001600160a01b03958616600482015294909316602485015250602090910201356044820152606401600060405180830381600087803b158015610f9857600080fd5b505af1158015610fac573d6000803e3d6000fd5b50505050806001019050610ede565b506001600160801b03811615611008576110086001600160a01b037f000000000000000000000000000000000000000000000000000000000000000016336001600160801b038416613131565b336001600160a01b0316856001600160a01b03167f6fcfb0c3a157955b6809f57bb114c142779ab9b7dd686a1b28ec0f2c9edfb94386868560405161104f93929190613c13565b60405180910390a35050505050565b8160026040517f30ccebb50000000000000000000000000000000000000000000000000000000081526001600160a01b0383811660048301527f000000000000000000000000000000000000000000000000000000000000000016906330ccebb590602401602060405180830381865afa1580156110e0573d6000803e3d6000fd5b505050506040513d601f19601f820116820180604052508101906111049190613c6f565b600581111561111557611115613c40565b10806111bf57506040517f56b65e970000000000000000000000000000000000000000000000000000000081526001600160a01b0382811660048301527f000000000000000000000000000000000000000000000000000000000000000016906356b65e9790602401602060405180830381865afa15801561119b573d6000803e3d6000fd5b505050506040513d601f19601f820116820180604052508101906111bf9190613c90565b156111f6576040517f197299a000000000000000000000000000000000000000000000000000000000815260040160405180910390fd5b60006112028433613333565b90506001600160801b0381161561129a576112506001600160a01b037f000000000000000000000000000000000000000000000000000000000000000016336001600160801b038416613131565b6040516001600160801b038216815233906001600160a01b038616907ff31a7084636b55317cfeed458343e6f580e12d52ba89be9f1faae91731fcce429060200160405180910390a35b6040517f42842e0e000000000000000000000000000000000000000000000000000000008152336004820152306024820152604481018490527f00000000000000000000000000000000000000000000000000000000000000006001600160a01b0316906342842e0e90606401600060405180830381600087803b15801561132157600080fd5b505af1158015611335573d6000803e3d6000fd5b505050506001600160a01b038416600090815260208181526040808320338452600681018352818420600490910180546001600160801b03808216600190810182166fffffffffffffffffffffffffffffffff19938416179093558354600160801b808204831685018316029082161784558987529190920190935292208054429092169190921617905560405183815233906001600160a01b038616907f7a9043ba5086cf56c416db64f7608d06eae96d08a7e35a101ad4f42aab23585d906020015b60405180910390a350505050565b600061141383836133d2565b90505b92915050565b60006114288233613333565b9050806001600160801b031660000361146d576040517f24f21b1500000000000000000000000000000000000000000000000000000000815260040160405180910390fd5b6114aa6001600160a01b037f000000000000000000000000000000000000000000000000000000000000000016336001600160801b038416613131565b6040516001600160801b038216815233906001600160a01b038416907ff31a7084636b55317cfeed458343e6f580e12d52ba89be9f1faae91731fcce429060200160405180910390a35050565b8260026040517f30ccebb50000000000000000000000000000000000000000000000000000000081526001600160a01b0383811660048301527f000000000000000000000000000000000000000000000000000000000000000016906330ccebb590602401602060405180830381865afa158015611579573d6000803e3d6000fd5b505050506040513d601f19601f8201168201806040525081019061159d9190613c6f565b60058111156115ae576115ae613c40565b108061165857506040517f56b65e970000000000000000000000000000000000000000000000000000000081526001600160a01b0382811660048301527f000000000000000000000000000000000000000000000000000000000000000016906356b65e9790602401602060405180830381865afa158015611634573d6000803e3d6000fd5b505050506040513d601f19601f820116820180604052508101906116589190613c90565b1561168f576040517f197299a000000000000000000000000000000000000000000000000000000000815260040160405180910390fd5b60008290036116ca576040517f69646ab000000000000000000000000000000000000000000000000000000000815260040160405180910390fd5b60006116d68533613333565b90506001600160801b0381161561176e576117246001600160a01b037f000000000000000000000000000000000000000000000000000000000000000016336001600160801b038416613131565b6040516001600160801b038216815233906001600160a01b038716907ff31a7084636b55317cfeed458343e6f580e12d52ba89be9f1faae91731fcce429060200160405180910390a35b6001600160a01b0385166000908152602081815260408083203384526006019091528120905b848110156118c3577f00000000000000000000000000000000000000000000000000000000000000006001600160a01b03166342842e0e33308989868181106117df576117df613b95565b6040517fffffffff0000000000000000000000000000000000000000000000000000000060e088901b1681526001600160a01b03958616600482015294909316602485015250602090910201356044820152606401600060405180830381600087803b15801561184e57600080fd5b505af1158015611862573d6000803e3d6000fd5b505050504282600101600088888581811061187f5761187f613b95565b90506020020135815260200190815260200160002060006101000a8154816001600160801b0302191690836001600160801b03160217905550806001019050611794565b506001600160a01b0386166000908152602081815260408083206004810180546fffffffffffffffffffffffffffffffff1981166001600160801b039182168b0182161790915533855260069091019092529091208054808316600160801b918290048416880190931602919091179055336001600160a01b0316866001600160a01b03167fafdb227ea10128ee703397dbff24db1f7c90303e6fff8068a2712a1b10c935f18787604051611979929190613cb2565b60405180910390a3505050505050565b6001600160a01b03821660009081526020818152604080832033845260060182528083208484526001810190925282205490916001600160801b0390911690036119ff576040517fe77a0da400000000000000000000000000000000000000000000000000000000815260040160405180910390fd5b42611a0b8433856120a1565b6001600160801b03161115611a4c576040517f285d5a9200000000000000000000000000000000000000000000000000000000815260040160405180910390fd5b6000611a588433613333565b9050611b0c8433856001600160a01b03928316600090815260208181526040808320949095168252600684018152848220600490940180547fffffffffffffffffffffffffffffffffffffffffffffffffffffffffffffffff6001600160801b03808316820181166fffffffffffffffffffffffffffffffff19938416179093558654600160801b808204851690920184169091029216919091178555928252600190930190925291902080549091169055565b6040517f42842e0e000000000000000000000000000000000000000000000000000000008152306004820152336024820152604481018490527f00000000000000000000000000000000000000000000000000000000000000006001600160a01b0316906342842e0e90606401600060405180830381600087803b158015611b9357600080fd5b505af1158015611ba7573d6000803e3d6000fd5b505050506001600160801b03811615611bf757611bf76001600160a01b037f000000000000000000000000000000000000000000000000000000000000000016336001600160801b038416613131565b604080518481526001600160801b038316602082015233916001600160a01b038716917fd1343dccf52a899cdc8aaa99714d930d2871b21c218512c779ca3f7c7fddab4191016113f9565b6000336001600160a01b037f00000000000000000000000000000000000000000000000000000000000000001614611ca6576040517f9d02a7c200000000000000000000000000000000000000000000000000000000815260040160405180910390fd5b506001600160a01b038116600090815260208190526040902060020180546fffffffffffffffffffffffffffffffff197f0000000000000000000000000000000000000000000000000000000000000000600160801b8084046001600160801b0390811683018116909102928316938116928116929092178101909116919091179091555b919050565b806001600160801b0316600003611d73576040517f69646ab000000000000000000000000000000000000000000000000000000000815260040160405180910390fd5b60006040517f30ccebb50000000000000000000000000000000000000000000000000000000081523360048201527f00000000000000000000000000000000000000000000000000000000000000006001600160a01b0316906330ccebb590602401602060405180830381865afa158015611df2573d6000803e3d6000fd5b505050506040513d601f19601f82011682018060405250810190611e169190613c6f565b6005811115611e2757611e27613c40565b03611e5e576040517f197299a000000000000000000000000000000000000000000000000000000000815260040160405180910390fd5b611e6a338260016131fd565b6040516001600160801b038216815233907fadb1a06aea2cd2ff20eac971640a5eb7d687df3e3a897be2f334836494958a479060200160405180910390a26040517fe428c2f40000000000000000000000000000000000000000000000000000000081523360048201527f00000000000000000000000000000000000000000000000000000000000000006001600160a01b03169063e428c2f490602401600060405180830381600087803b158015611f2257600080fd5b505af1158015611f36573d6000803e3d6000fd5b5050505050565b6000336001600160a01b037f00000000000000000000000000000000000000000000000000000000000000001614611fa1576040517f9d02a7c200000000000000000000000000000000000000000000000000000000815260040160405180910390fd5b506001600160a01b038116600090815260208190526040902060020180547f00000000000000000000000000000000000000000000000000000000000000006001600160801b03600160801b808404821683900382160280821693821693909317829003166fffffffffffffffffffffffffffffffff199290921691909117909155919050565b6001600160a01b038083166000908152602081815260408083209385168352600684019091528120600483015481549293926001600160801b03600160801b909204821691859161207a911683613cf5565b83546120969190600160801b90046001600160801b0316613d1d565b979650505050505050565b6001600160a01b0380841660009081526020818152604080832093861683526006909301815282822084835260010190529081205461210a907f0000000000000000000000000000000000000000000000000000000000000000906001600160801b0316613d4c565b949350505050565b6001600160a01b03811660009081526020819052604081206002810154600390910154611416916001600160801b039081169116613d4c565b336001600160a01b037f000000000000000000000000000000000000000000000000000000000000000016146121ad576040517f9d02a7c200000000000000000000000000000000000000000000000000000000815260040160405180910390fd5b6001600160a01b038116600090815260208190526040812060020180549091906121e9906001600160801b03600160801b820481169116613cf5565b90507f00000000000000000000000000000000000000000000000000000000000000006001600160801b0316816001600160801b03161015612257576040517f24f21b1500000000000000000000000000000000000000000000000000000000815260040160405180910390fd5b81546001600160801b03600160801b80830482167f00000000000000000000000000000000000000000000000000000000000000009081018316909102919092161783556001600160a01b038416907f7ad6f32675ff7ed77c34b45d23cd987ea6a62560f390baac683de0bc6b24fb7e906122d28185613cf5565b604080516001600160801b03938416815292909116602083015201610b80565b60006114138383613452565b6001600160a01b038116600090815260208190526040812060010154611416907f0000000000000000000000000000000000000000000000000000000000000000906001600160801b0316613d4c565b336001600160a01b037f000000000000000000000000000000000000000000000000000000000000000016146123b0576040517f9d02a7c200000000000000000000000000000000000000000000000000000000815260040160405180910390fd5b6001600160a01b038116600081815260208190526040902060020180547f00000000000000000000000000000000000000000000000000000000000000006001600160801b03600160801b8084048216839003821681029382168481178087559596957fc8d4f2228d78be7d0ca97344025aae4f9bc2c87ece32295d72791a4d39f2a71a9561244794939091048316921617613cf5565b604080516001600160801b0393841681529290911660208301520160405180910390a25050565b60008260026040517f30ccebb50000000000000000000000000000000000000000000000000000000081526001600160a01b0383811660048301527f000000000000000000000000000000000000000000000000000000000000000016906330ccebb590602401602060405180830381865afa1580156124f2573d6000803e3d6000fd5b505050506040513d601f19601f820116820180604052508101906125169190613c6f565b600581111561252757612527613c40565b10806125d157506040517f56b65e970000000000000000000000000000000000000000000000000000000081526001600160a01b0382811660048301527f000000000000000000000000000000000000000000000000000000000000000016906356b65e9790602401602060405180830381865afa1580156125ad573d6000803e3d6000fd5b505050506040513d601f19601f820116820180604052508101906125d19190613c90565b15612608576040517f197299a000000000000000000000000000000000000000000000000000000000815260040160405180910390fd5b826001600160801b031660000361264b576040517f69646ab000000000000000000000000000000000000000000000000000000000815260040160405180910390fd5b6126896001600160a01b037f00000000000000000000000000000000000000000000000000000000000000001633306001600160801b0387166134c1565b60006126958585613452565b6001600160a01b038616600090815260208181526040808320600381018054600160801b6fffffffffffffffffffffffffffffffff1982166001600160801b039283168d0183169081178290048316890183168202179092553386526005909201909352922080548316840183164290931690910291909117905590506040517f5bab847f0000000000000000000000000000000000000000000000000000000081526001600160a01b038681166004830152600060248301527f00000000000000000000000000000000000000000000000000000000000000001690635bab847f90604401600060405180830381600087803b15801561279557600080fd5b505af11580156127a9573d6000803e3d6000fd5b5050604080516001600160801b038089168252851660208201523393506001600160a01b03891692507f334cabe84b7338f2bdd62070c02f24ffbcc7735e46f425fa401db349717e1328910160405180910390a3949350505050565b336001600160a01b037f00000000000000000000000000000000000000000000000000000000000000001614612867576040517f9d02a7c200000000000000000000000000000000000000000000000000000000815260040160405180910390fd5b6128dc7f000000000000000000000000000000000000000000000000000000000000000030836128978688613d4c565b6128a19190613d4c565b6001600160a01b037f0000000000000000000000000000000000000000000000000000000000000000169291906001600160801b03166134c1565b7f00000000000000000000000000000000000000000000000000000000000000006001600160a01b0316846001600160a01b03160361298d576129887f0000000000000000000000000000000000000000000000000000000000000000826129448587613d4c565b61294e9190613d4c565b6001600160a01b037f00000000000000000000000000000000000000000000000000000000000000001691906001600160801b0316613131565b612aec565b6001600160a01b03841660009081526020819052604090206003810180546001600160801b03808216870181166fffffffffffffffffffffffffffffffff19928316179092556002830180548084168601841692169190911781556004909201541615612a425760028101546001600160801b0390811690841681612a1457612a14613d77565b6002830180546001600160801b0380821694909304600160801b918290048416019092169091029190911790555b80547f00000000000000000000000000000000000000000000000000000000000000006001600160801b03600160801b8084048216839003821681029382168481178087556001600160a01b038b16957fc8d4f2228d78be7d0ca97344025aae4f9bc2c87ece32295d72791a4d39f2a71a9594612ac794909204821692911617613cf5565b604080516001600160801b0393841681529290911660208301520160405180910390a2505b50505050565b6001600160a01b038116600090815260208190526040812060020154611416906001600160801b03600160801b820481169116613cf5565b6001600160a01b0382811660009081526020818152604080832093851683526005909301905290812054611413907f000000000000000000000000000000000000000000000000000000000000000090600160801b90046001600160801b0316613d4c565b806001600160801b0316600003612bd2576040517f69646ab000000000000000000000000000000000000000000000000000000000815260040160405180910390fd5b6000612bde8383613452565b9050806001600160801b0316600003612c23576040517fab32f25400000000000000000000000000000000000000000000000000000000815260040160405180910390fd5b6001600160a01b0383166000908152602081815260408083203384526005019091529020546001600160801b039081169082161115612c8e576040517fab32f25400000000000000000000000000000000000000000000000000000000815260040160405180910390fd5b42612c998433612b2a565b6001600160801b03161115612cda576040517f285d5a9200000000000000000000000000000000000000000000000000000000815260040160405180910390fd5b6001600160a01b0383166000908152602081815260408083206003810180546001600160801b03600160801b80830482168990038216028082169282169290921789900381166fffffffffffffffffffffffffffffffff1992831617909255338652600590920190935292208054808316859003909216919092161790556040517f5bab847f0000000000000000000000000000000000000000000000000000000081526001600160a01b038481166004830152600160248301527f00000000000000000000000000000000000000000000000000000000000000001690635bab847f90604401600060405180830381600087803b158015612ddb57600080fd5b505af1158015612def573d6000803e3d6000fd5b50612e329250506001600160a01b037f0000000000000000000000000000000000000000000000000000000000000000169050336001600160801b038516613131565b604080516001600160801b0380851682528316602082015233916001600160a01b038616917f6acf5e34cb1562e3a0785bb4565e0761928cda3dd258168c73bca09621c669e9910160405180910390a3505050565b6000336001600160a01b037f00000000000000000000000000000000000000000000000000000000000000001614612eeb576040517f9d02a7c200000000000000000000000000000000000000000000000000000000815260040160405180910390fd5b6001600160a01b038084166000818152602081905260409020600201917f0000000000000000000000000000000000000000000000000000000000000000169003612f9657612f8d6001600160a01b037f0000000000000000000000000000000000000000000000000000000000000000167f00000000000000000000000000000000000000000000000000000000000000006001600160801b038616613131565b82915050611416565b6000612fae6001600160801b03851660146064613512565b905061300d6001600160a01b037f0000000000000000000000000000000000000000000000000000000000000000167f00000000000000000000000000000000000000000000000000000000000000006001600160801b038416613131565b81546fffffffffffffffffffffffffffffffff198116919094036001600160801b03948516810190941617905550919050565b6001600160a01b03808316600090815260208181526040808320938516835260059093019052908120546114139084906001600160801b03166133d2565b6001600160a01b038216600090815260208190526040902060020180546130b7906001600160801b03600160801b820481169116613cf5565b6001600160801b0316826001600160801b03161115613102576040517f24f21b1500000000000000000000000000000000000000000000000000000000815260040160405180910390fd5b80546fffffffffffffffffffffffffffffffff1981166001600160801b03918216939093031691909117905550565b6040516001600160a01b0383166024820152604481018290526131f89084907fa9059cbb00000000000000000000000000000000000000000000000000000000906064015b604080517fffffffffffffffffffffffffffffffffffffffffffffffffffffffffffffffe08184030181529190526020810180517bffffffffffffffffffffffffffffffffffffffffffffffffffffffff167fffffffff00000000000000000000000000000000000000000000000000000000909316929092179091526135b4565b505050565b6001600160a01b0380841660009081526020819052604090209061324e907f00000000000000000000000000000000000000000000000000000000000000001685306001600160801b0387166134c1565b6002810180546fffffffffffffffffffffffffffffffff198082166001600160801b039283168701831617909255600183018054909216429091161790558115612aec576040517f5bab847f0000000000000000000000000000000000000000000000000000000081526001600160a01b038581166004830152600060248301527f00000000000000000000000000000000000000000000000000000000000000001690635bab847f90604401600060405180830381600087803b15801561331557600080fd5b505af1158015613329573d6000803e3d6000fd5b5050505050505050565b6001600160a01b038083166000908152602081815260408083209385168352600684019091528120600483015481549293926001600160801b03600160801b9092048216918591613385911683613cf5565b83546133a19190600160801b90046001600160801b0316613d1d565b83546fffffffffffffffffffffffffffffffff19166001600160801b03939093169290921790925595945050505050565b6001600160a01b038216600090815260208190526040812060030154611413906001600160801b0316613406906001613d4c565b6001600160a01b038516600090815260208190526040902060030154620f424090600160801b90046001600160801b03166134419190613d4c565b6001600160801b0385169190613512565b6001600160a01b03821660009081526020819052604081206003015461141390620f424090600160801b90046001600160801b03166134919190613d4c565b6001600160a01b0385166000908152602081905260409020600301546001600160801b0316613441906001613d4c565b6040516001600160a01b0380851660248301528316604482015260648101829052612aec9085907f23b872dd0000000000000000000000000000000000000000000000000000000090608401613176565b6000838302608081901c6001600160801b03841611613592576040517f08c379a000000000000000000000000000000000000000000000000000000000815260206004820152601c60248201527f55696e743132384d6174683a206d756c446976206f766572666c6f770000000060448201526064015b60405180910390fd5b826001600160801b031681816135aa576135aa613d77565b0495945050505050565b6000613609826040518060400160405280602081526020017f5361666545524332303a206c6f772d6c6576656c2063616c6c206661696c6564815250856001600160a01b03166136b69092919063ffffffff16565b905080516000148061362a57508080602001905181019061362a9190613c90565b6131f8576040517f08c379a000000000000000000000000000000000000000000000000000000000815260206004820152602a60248201527f5361666545524332303a204552433230206f7065726174696f6e20646964206e60448201527f6f742073756363656564000000000000000000000000000000000000000000006064820152608401613589565b606061210a848460008585600080866001600160a01b031685876040516136dd9190613da6565b60006040518083038185875af1925050503d806000811461371a576040519150601f19603f3d011682016040523d82523d6000602084013e61371f565b606091505b509150915061209687838387606083156137b45782516000036137ad576001600160a01b0385163b6137ad576040517f08c379a000000000000000000000000000000000000000000000000000000000815260206004820152601d60248201527f416464726573733a2063616c6c20746f206e6f6e2d636f6e74726163740000006044820152606401613589565b508161210a565b61210a83838151156137c95781518083602001fd5b806040517f08c379a00000000000000000000000000000000000000000000000000000000081526004016135899190613a5e565b80356001600160a01b0381168114611d2b57600080fd5b6001600160801b038116811461382957600080fd5b50565b6000806040838503121561383f57600080fd5b613848836137fd565b9150602083013561385881613814565b809150509250929050565b60008060008060006080868803121561387b57600080fd5b613884866137fd565b9450613892602087016137fd565b935060408601359250606086013567ffffffffffffffff808211156138b657600080fd5b818801915088601f8301126138ca57600080fd5b8135818111156138d957600080fd5b8960208285010111156138eb57600080fd5b9699959850939650602001949392505050565b60008060006060848603121561391357600080fd5b61391c846137fd565b9250602084013561392c81613814565b915061393a604085016137fd565b90509250925092565b60008060006040848603121561395857600080fd5b613961846137fd565b9250602084013567ffffffffffffffff8082111561397e57600080fd5b818601915086601f83011261399257600080fd5b8135818111156139a157600080fd5b8760208260051b85010111156139b657600080fd5b6020830194508093505050509250925092565b600080604083850312156139dc57600080fd5b6139e5836137fd565b946020939093013593505050565b600060208284031215613a0557600080fd5b611413826137fd565b600060208284031215613a2057600080fd5b8135613a2b81613814565b9392505050565b60005b83811015613a4d578181015183820152602001613a35565b83811115612aec5750506000910152565b6020815260008251806020840152613a7d816040850160208701613a32565b601f017fffffffffffffffffffffffffffffffffffffffffffffffffffffffffffffffe0169190910160400192915050565b60008060408385031215613ac257600080fd5b613acb836137fd565b9150613ad9602084016137fd565b90509250929050565b600080600060608486031215613af757600080fd5b613b00846137fd565b9250613b0e602085016137fd565b9150604084013590509250925092565b60008060008060808587031215613b3457600080fd5b613b3d856137fd565b93506020850135613b4d81613814565b92506040850135613b5d81613814565b91506060850135613b6d81613814565b939692955090935050565b600060208284031215613b8a57600080fd5b8151613a2b81613814565b7f4e487b7100000000000000000000000000000000000000000000000000000000600052603260045260246000fd5b81835260007f07ffffffffffffffffffffffffffffffffffffffffffffffffffffffffffffff831115613bf657600080fd5b8260051b8083602087013760009401602001938452509192915050565b604081526000613c27604083018587613bc4565b90506001600160801b0383166020830152949350505050565b7f4e487b7100000000000000000000000000000000000000000000000000000000600052602160045260246000fd5b600060208284031215613c8157600080fd5b815160068110613a2b57600080fd5b600060208284031215613ca257600080fd5b81518015158114613a2b57600080fd5b60208152600061210a602083018486613bc4565b7f4e487b7100000000000000000000000000000000000000000000000000000000600052601160045260246000fd5b60006001600160801b0383811690831681811015613d1557613d15613cc6565b039392505050565b60006001600160801b0380831681851681830481118215151615613d4357613d43613cc6565b02949350505050565b60006001600160801b03808316818516808303821115613d6e57613d6e613cc6565b01949350505050565b7f4e487b7100000000000000000000000000000000000000000000000000000000600052601260045260246000fd5b60008251613db8818460208701613a32565b919091019291505056fea164736f6c634300080f000a",
  "devdoc": {
    "version": 1,
    "kind": "dev",
    "methods": {
      "bondValidatorKro(address)": {
        "params": {
          "validator": "Address of the validator."
        }
      },
      "canUndelegateKghAt(address,address,uint256)": {
        "params": {
          "delegator": "Address of the KGH delegator.",
          "tokenId": "The token id of KGH to undelegate.",
          "validator": "Address of the validator."
        },
        "returns": {
          "_0": "When the KGH delegators can undelegate KGH for the given token id."
        }
      },
      "canUndelegateKroAt(address,address)": {
        "params": {
          "delegator": "Address of the KRO delegator.",
          "validator": "Address of the validator."
        },
        "returns": {
          "_0": "When the KRO delegators can undelegate KRO."
        }
      },
      "canWithdrawAt(address)": {
        "params": {
          "validator": "Address of the validator."
        },
        "returns": {
          "_0": "When the validator can withdraw KRO."
        }
      },
      "claimKghReward(address)": {
        "params": {
          "validator": "Address of the validator."
        }
      },
      "constructor": {
        "params": {
          "_assetToken": "Address of the KRO token.",
          "_bondAmount": "Amount to bond.",
          "_kgh": "Address of the KGH token.",
          "_minDelegationPeriod": "Minimum delegation period.",
          "_securityCouncil": "Address of the SecurityCouncil contract.",
          "_validatorManager": "Address of the ValidatorManager contract.",
          "_validatorRewardVault": "Address of the Validator Reward Vault."
        }
      },
      "decreaseBalanceWithChallenge(address)": {
        "params": {
          "loser": "Address of the challenge loser."
        },
        "returns": {
          "_0": "The challenge reward slashed from loser's asset."
        }
      },
      "delegate(address,uint128)": {
        "params": {
          "assets": "The amount of KRO to delegate.",
          "validator": "Address of the validator."
        },
        "returns": {
          "_0": "The amount of shares that the Vault would exchange for the amount of assets provided."
        }
      },
      "delegateKgh(address,uint256)": {
        "params": {
          "tokenId": "The token id of KGH to delegate.",
          "validator": "Address of the validator."
        }
      },
      "delegateKghBatch(address,uint256[])": {
        "params": {
          "tokenIds": "The token ids of KGHs to delegate.",
          "validator": "Address of the validator."
        }
      },
      "deposit(uint128)": {
        "params": {
          "assets": "The amount of KRO to deposit."
        }
      },
      "depositToRegister(address,uint128,address)": {
        "params": {
          "assets": "The amount of KRO to deposit.",
          "validator": "Address of the validator.",
          "withdrawAccount": "An account where assets can be withdrawn to. Only this account can                        withdraw the assets."
        }
      },
      "getKghNum(address,address)": {
        "params": {
          "delegator": "Address of the delegator.",
          "validator": "Address of the validator."
        },
        "returns": {
          "_0": "The number of KGH delegated by the given delegator."
        }
      },
      "getKghReward(address,address)": {
        "params": {
          "delegator": "The address of the delegator.",
          "validator": "The address of the validator."
        },
        "returns": {
          "_0": "The amount of claimable reward of KGH delegation."
        }
      },
      "getKroAssets(address,address)": {
        "params": {
          "delegator": "Address of the delegator.",
          "validator": "Address of the validator."
        },
        "returns": {
          "_0": "The amount of KRO assets that the delegator delegated to the validator."
        }
      },
      "getKroTotalShareBalance(address,address)": {
        "params": {
          "delegator": "Address of the delegator.",
          "validator": "Address of the validator."
        },
        "returns": {
          "_0": "The amount of KRO shares that the KRO delegator has."
        }
      },
      "getWithdrawAccount(address)": {
        "params": {
          "validator": "Address of the validator."
        },
        "returns": {
          "_0": "The address of withdraw account of given validator."
        }
      },
      "increaseBalanceWithChallenge(address,uint128)": {
        "params": {
          "challengeReward": "The challenge reward to be added to the winner's asset after excluding                        tax.",
          "winner": "Address of the challenge winner."
        },
        "returns": {
          "_0": "The challenge reward added to winner's asset."
        }
      },
      "increaseBalanceWithReward(address,uint128,uint128,uint128)": {
        "params": {
          "baseReward": "The base reward to distribute.",
          "boostedReward": "The boosted reward to distribute.",
          "validator": "Address of the validator.",
          "validatorReward": "The validator reward to distribute."
        }
      },
      "onERC721Received(address,address,uint256,bytes)": {
        "details": "Whenever an {IERC721} `tokenId` token is transferred to this contract via {IERC721-safeTransferFrom} by `operator` from `from`, this function is called. It must return its Solidity selector to confirm the token transfer. If any other value is returned or the interface is not implemented by the recipient, the transfer will be reverted. The selector can be obtained in Solidity with `IERC721Receiver.onERC721Received.selector`."
      },
      "previewDelegate(address,uint128)": {
        "params": {
          "assets": "The amount of assets to delegate.",
          "validator": "Address of the validator."
        },
        "returns": {
          "_0": "The amount of shares that the Vault would exchange for the amount of assets provided."
        }
      },
      "previewUndelegate(address,uint128)": {
        "params": {
          "shares": "The amount of shares to undelegate.",
          "validator": "The address of the validator."
        },
        "returns": {
          "_0": "The amount of assets that the Vault would exchange for the amount of shares provided."
        }
      },
      "reflectiveWeight(address)": {
        "params": {
          "validator": "Address of the validator."
        },
        "returns": {
          "_0": "The reflective weight of given validator."
        }
      },
      "revertDecreaseBalanceWithChallenge(address)": {
        "params": {
          "loser": "Address of the challenge original loser."
        },
        "returns": {
          "_0": "The challenge reward refunded to loser's asset."
        }
      },
      "totalKghNum(address)": {
        "params": {
          "validator": "Address of the validator."
        },
        "returns": {
          "_0": "The total number of KGHs held by the vault."
        }
      },
      "totalKroAssets(address)": {
        "params": {
          "validator": "Address of the validator."
        },
        "returns": {
          "_0": "The total amount of KRO that delegated by the delegators and accumulated as KRO         delegation reward."
        }
      },
      "totalValidatorKro(address)": {
        "params": {
          "validator": "Address of the validator."
        },
        "returns": {
          "_0": "The total amount of KRO a validator has deposited and been rewarded."
        }
      },
      "totalValidatorKroBonded(address)": {
        "params": {
          "validator": "Address of the validator."
        },
        "returns": {
          "_0": "The total amount of validator KRO bonded."
        }
      },
      "totalValidatorKroNotBonded(address)": {
        "params": {
          "validator": "Address of the validator."
        },
        "returns": {
          "_0": "The total amount of validator balance excluding the bond amount."
        }
      },
      "unbondValidatorKro(address)": {
        "params": {
          "validator": "Address of the validator."
        }
      },
      "undelegate(address,uint128)": {
        "params": {
          "assets": "The amount of assets to undelegate.",
          "validator": "Address of the validator."
        }
      },
      "undelegateKgh(address,uint256)": {
        "params": {
          "tokenId": "Token id of KGH to undelegate.",
          "validator": "Address of the validator."
        }
      },
      "undelegateKghBatch(address,uint256[])": {
        "params": {
          "tokenIds": "Array of token ids of KGHs to undelegate.",
          "validator": "Address of the validator."
        }
      },
      "withdraw(address,uint128)": {
        "params": {
          "assets": "The amount of KRO to withdraw.",
          "validator": "Address of the validator."
        }
      }
    },
    "title": "AssetManager"
  },
  "userdoc": {
    "version": 1,
    "kind": "user",
    "methods": {
      "ASSET_TOKEN()": {
        "notice": "Address of the KRO token contract."
      },
      "BOND_AMOUNT()": {
        "notice": "The amount to bond."
      },
      "DECIMAL_OFFSET()": {
        "notice": "Decimals offset for the KRO shares."
      },
      "KGH()": {
        "notice": "Address of the KGH token contract."
      },
      "MIN_DELEGATION_PERIOD()": {
        "notice": "Minimum delegation period. Can be updated via upgrade."
      },
      "SECURITY_COUNCIL()": {
        "notice": "The address of the SecurityCouncil contract. Can be updated via upgrade."
      },
      "TAX_DENOMINATOR()": {
        "notice": "The denominator of the tax."
      },
      "TAX_NUMERATOR()": {
        "notice": "The numerator of the tax."
      },
      "VALIDATOR_MANAGER()": {
        "notice": "Address of ValidatorManager contract. Can be updated via upgrade."
      },
      "VALIDATOR_REWARD_VAULT()": {
        "notice": "The address of Validator Reward Vault. Can be updated via upgrade."
      },
      "bondValidatorKro(address)": {
        "notice": "Bond KRO from validator KRO during output submission or challenge creation. This         function is only called by the ValidatorManager contract."
      },
      "canUndelegateKghAt(address,address,uint256)": {
        "notice": "Returns when the KGH delegators can undelegate KGH. The delegators can undelegate KGH         for the given token id after MIN_DELEGATION_PERIOD elapsed from delegation         timestamp."
      },
      "canUndelegateKroAt(address,address)": {
        "notice": "Returns when the KRO delegators can undelegate KRO. The delegators can undelegate         after MIN_DELEGATION_PERIOD elapsed from lastDelegatedAt."
      },
      "canWithdrawAt(address)": {
        "notice": "Returns when the validator can withdraw KRO. The validator can withdraw after         MIN_DELEGATION_PERIOD elapsed from lastDepositedAt."
      },
      "claimKghReward(address)": {
        "notice": "Claim the boosted reward of the KGH delegator from the given validator vault."
      },
      "constructor": {
        "notice": "Constructs the AssetManager contract."
      },
      "decreaseBalanceWithChallenge(address)": {
        "notice": "Update the vault of challenge loser with the challenge reward. This function is only         called by the ValidatorManager contract."
      },
      "delegate(address,uint128)": {
        "notice": "Delegate KRO to the validator and returns the amount of shares that the vault would         exchange."
      },
      "delegateKgh(address,uint256)": {
        "notice": "Delegate KGH to the validator."
      },
      "delegateKghBatch(address,uint256[])": {
        "notice": "Delegate KGHs to the validator."
      },
      "deposit(uint128)": {
        "notice": "Deposit KRO. To deposit KRO, the validator should be initiated."
      },
      "depositToRegister(address,uint128,address)": {
        "notice": "Deposit KRO to register as a validator. This function is only called by the         ValidatorManager contract."
      },
      "getKghNum(address,address)": {
        "notice": "Returns the number of KGH delegated by the given delegator."
      },
      "getKghReward(address,address)": {
        "notice": "Returns the claimable reward of KGH delegation."
      },
      "getKroAssets(address,address)": {
        "notice": "Returns the amount of KRO assets delegated to the given validator by the delegator."
      },
      "getKroTotalShareBalance(address,address)": {
        "notice": "Returns the amount of KRO shares that the KRO delegator has."
      },
      "getWithdrawAccount(address)": {
        "notice": "Returns the address of withdraw account of given validator."
      },
      "increaseBalanceWithChallenge(address,uint128)": {
        "notice": "Update the vault of challenge winner with the challenge reward. This function is only         called by the ValidatorManager contract."
      },
      "increaseBalanceWithReward(address,uint128,uint128,uint128)": {
        "notice": "Update the vault of validator with the distributed reward. This function is only         called by the ValidatorManager contract."
      },
      "previewDelegate(address,uint128)": {
        "notice": "Allows an on-chain or off-chain user to simulate the effects of their KRO delegation         at the current block."
      },
      "previewUndelegate(address,uint128)": {
        "notice": "Allows an on-chain or off-chain user to simulate the effects of their KRO         undelegation at the current block."
      },
      "reflectiveWeight(address)": {
        "notice": "Returns the reflective weight of given validator."
      },
      "revertDecreaseBalanceWithChallenge(address)": {
        "notice": "Revert the changes of decreaseBalanceWithChallenge. This function is only called by         the ValidatorManager contract."
      },
      "totalKghNum(address)": {
        "notice": "Returns the total number of KGHs held by the vault."
      },
      "totalKroAssets(address)": {
        "notice": "Returns the total amount of KRO that delegated by the delegators and accumulated as         KRO delegation reward."
      },
      "totalValidatorKro(address)": {
        "notice": "Returns the total amount of KRO a validator has deposited and been rewarded."
      },
      "totalValidatorKroBonded(address)": {
        "notice": "Returns the total amount of validator KRO that bonded during output submission or         challenge creation."
      },
      "totalValidatorKroNotBonded(address)": {
        "notice": "Returns the total amount of validator balance excluding the bond amount."
      },
      "unbondValidatorKro(address)": {
        "notice": "Unbond KRO from validator KRO during output finalization or challenge slashing. This         function is only called by the ValidatorManager contract."
      },
      "undelegate(address,uint128)": {
        "notice": "Undelegate the KRO of given assets for the given validator."
      },
      "undelegateKgh(address,uint256)": {
        "notice": "Undelegate KGH for given validator and tokenId."
      },
      "undelegateKghBatch(address,uint256[])": {
        "notice": "Undelegate KGHs for given validator and token ids."
      },
      "version()": {
        "notice": "Semantic version."
      },
      "withdraw(address,uint128)": {
        "notice": "Withdraw KRO. To withdraw KRO, the validator should be initiated and MIN_DELEGATION_PERIOD         should be passed after the last deposit time. Only withdrawAccount of the validator can call         this function."
      }
    },
    "events": {
      "Deposited(address,uint128)": {
        "notice": "Emitted when validator deposited KROs."
      },
      "KghBatchDelegated(address,address,uint256[])": {
        "notice": "Emitted when KGHs are delegated in batch."
      },
      "KghBatchUndelegated(address,address,uint256[],uint128)": {
        "notice": "Emitted when KGHs are undelegated in batch."
      },
      "KghDelegated(address,address,uint256)": {
        "notice": "Emitted when a KGH is delegated."
      },
      "KghRewardClaimed(address,address,uint128)": {
        "notice": "Emitted when accumulated rewards of KGH delegation are claimed."
      },
      "KghUndelegated(address,address,uint256,uint128)": {
        "notice": "Emitted when KGH is undelegated."
      },
      "KroDelegated(address,address,uint128,uint128)": {
        "notice": "Emitted when KROs are delegated."
      },
      "KroUndelegated(address,address,uint128,uint128)": {
        "notice": "Emitted when KRO is undelegated."
      },
      "ValidatorKroBonded(address,uint128,uint128)": {
        "notice": "Emitted when validator KRO is bonded during output submission or challenge creation."
      },
      "ValidatorKroUnbonded(address,uint128,uint128)": {
        "notice": "Emitted when validator KRO is unbonded during output finalization or slashing."
      },
      "Withdrawn(address,uint128)": {
        "notice": "Emitted when validator withdrew KRO."
      }
    },
    "errors": {
      "ImproperValidatorStatus()": [
        {
          "notice": "Reverts when the status of validator is improper."
        }
      ],
      "InsufficientAsset()": [
        {
          "notice": "Reverts when the asset is insufficient."
        }
      ],
      "InsufficientShare()": [
        {
          "notice": "Reverts when the share is insufficient."
        }
      ],
      "InvalidTokenIdsInput()": [
        {
          "notice": "Reverts when the given token ids are invalid."
        }
      ],
      "NotAllowedCaller()": [
        {
          "notice": "Reverts when caller is not allowed."
        }
      ],
      "NotAllowedZeroInput()": [
        {
          "notice": "Reverts when try to input zero."
        }
      ],
      "NotElapsedMinDelegationPeriod()": [
        {
          "notice": "Reverts when the minimum delegation period is not elapsed."
        }
      ],
      "ZeroAddress()": [
        {
          "notice": "Reverts when the address is zero address."
        }
      ]
    },
    "notice": "AssetManager is a contract that handles (un)delegations of KRO and KGH, and the         distribution of rewards to the delegators and the validator."
  },
  "storageLayout": {
    "storage": [
      {
        "astId": 75,
        "contract": "contracts/L1/AssetManager.sol:AssetManager",
        "label": "_vaults",
        "offset": 0,
        "slot": "0",
        "type": "t_mapping(t_address,t_struct(Vault)17070_storage)"
      }
    ],
    "types": {
      "t_address": {
        "encoding": "inplace",
        "label": "address",
        "numberOfBytes": "20"
      },
      "t_mapping(t_address,t_struct(KghDelegator)17052_storage)": {
        "encoding": "mapping",
        "key": "t_address",
        "label": "mapping(address => struct IAssetManager.KghDelegator)",
        "numberOfBytes": "32",
        "value": "t_struct(KghDelegator)17052_storage"
      },
      "t_mapping(t_address,t_struct(KroDelegator)17043_storage)": {
        "encoding": "mapping",
        "key": "t_address",
        "label": "mapping(address => struct IAssetManager.KroDelegator)",
        "numberOfBytes": "32",
        "value": "t_struct(KroDelegator)17043_storage"
      },
      "t_mapping(t_address,t_struct(Vault)17070_storage)": {
        "encoding": "mapping",
        "key": "t_address",
        "label": "mapping(address => struct IAssetManager.Vault)",
        "numberOfBytes": "32",
        "value": "t_struct(Vault)17070_storage"
      },
      "t_mapping(t_uint256,t_uint128)": {
        "encoding": "mapping",
        "key": "t_uint256",
        "label": "mapping(uint256 => uint128)",
        "numberOfBytes": "32",
        "value": "t_uint128"
      },
      "t_struct(Asset)17038_storage": {
        "encoding": "inplace",
        "label": "struct IAssetManager.Asset",
        "numberOfBytes": "96",
        "members": [
          {
            "astId": 17027,
            "contract": "contracts/L1/AssetManager.sol:AssetManager",
            "label": "validatorKro",
            "offset": 0,
            "slot": "0",
            "type": "t_uint128"
          },
          {
            "astId": 17029,
            "contract": "contracts/L1/AssetManager.sol:AssetManager",
            "label": "validatorKroBonded",
            "offset": 16,
            "slot": "0",
            "type": "t_uint128"
          },
          {
            "astId": 17031,
            "contract": "contracts/L1/AssetManager.sol:AssetManager",
            "label": "totalKro",
            "offset": 0,
            "slot": "1",
            "type": "t_uint128"
          },
          {
            "astId": 17033,
            "contract": "contracts/L1/AssetManager.sol:AssetManager",
            "label": "totalKroShares",
            "offset": 16,
            "slot": "1",
            "type": "t_uint128"
          },
          {
            "astId": 17035,
            "contract": "contracts/L1/AssetManager.sol:AssetManager",
            "label": "totalKgh",
            "offset": 0,
            "slot": "2",
            "type": "t_uint128"
          },
          {
            "astId": 17037,
            "contract": "contracts/L1/AssetManager.sol:AssetManager",
            "label": "rewardPerKghStored",
            "offset": 16,
            "slot": "2",
            "type": "t_uint128"
          }
        ]
      },
      "t_struct(KghDelegator)17052_storage": {
        "encoding": "inplace",
        "label": "struct IAssetManager.KghDelegator",
        "numberOfBytes": "64",
        "members": [
          {
            "astId": 17045,
            "contract": "contracts/L1/AssetManager.sol:AssetManager",
            "label": "rewardPerKghPaid",
            "offset": 0,
            "slot": "0",
            "type": "t_uint128"
          },
          {
            "astId": 17047,
            "contract": "contracts/L1/AssetManager.sol:AssetManager",
            "label": "kghNum",
            "offset": 16,
            "slot": "0",
            "type": "t_uint128"
          },
          {
            "astId": 17051,
            "contract": "contracts/L1/AssetManager.sol:AssetManager",
            "label": "delegatedAt",
            "offset": 0,
            "slot": "1",
            "type": "t_mapping(t_uint256,t_uint128)"
          }
        ]
      },
      "t_struct(KroDelegator)17043_storage": {
        "encoding": "inplace",
        "label": "struct IAssetManager.KroDelegator",
        "numberOfBytes": "32",
        "members": [
          {
            "astId": 17040,
            "contract": "contracts/L1/AssetManager.sol:AssetManager",
            "label": "shares",
            "offset": 0,
            "slot": "0",
            "type": "t_uint128"
          },
          {
            "astId": 17042,
            "contract": "contracts/L1/AssetManager.sol:AssetManager",
            "label": "lastDelegatedAt",
            "offset": 16,
            "slot": "0",
            "type": "t_uint128"
          }
        ]
      },
      "t_struct(Vault)17070_storage": {
        "encoding": "inplace",
        "label": "struct IAssetManager.Vault",
        "numberOfBytes": "224",
        "members": [
          {
            "astId": 17054,
            "contract": "contracts/L1/AssetManager.sol:AssetManager",
            "label": "withdrawAccount",
            "offset": 0,
            "slot": "0",
            "type": "t_address"
          },
          {
            "astId": 17056,
            "contract": "contracts/L1/AssetManager.sol:AssetManager",
            "label": "lastDepositedAt",
            "offset": 0,
            "slot": "1",
            "type": "t_uint128"
          },
          {
            "astId": 17059,
            "contract": "contracts/L1/AssetManager.sol:AssetManager",
            "label": "asset",
            "offset": 0,
            "slot": "2",
            "type": "t_struct(Asset)17038_storage"
          },
          {
            "astId": 17064,
            "contract": "contracts/L1/AssetManager.sol:AssetManager",
            "label": "kroDelegators",
            "offset": 0,
            "slot": "5",
            "type": "t_mapping(t_address,t_struct(KroDelegator)17043_storage)"
          },
          {
            "astId": 17069,
            "contract": "contracts/L1/AssetManager.sol:AssetManager",
            "label": "kghDelegators",
            "offset": 0,
            "slot": "6",
            "type": "t_mapping(t_address,t_struct(KghDelegator)17052_storage)"
          }
        ]
      },
      "t_uint128": {
        "encoding": "inplace",
        "label": "uint128",
        "numberOfBytes": "16"
      },
      "t_uint256": {
        "encoding": "inplace",
        "label": "uint256",
        "numberOfBytes": "32"
      }
    }
  }
}