{
  "address": "0xAB54b3e775f645cf4486039bfA4dA539E70c9f99",
  "abi": [
    {
      "type": "constructor",
      "inputs": [
        {
          "name": "_l2Oracle",
          "type": "address",
          "internalType": "contract L2OutputOracle"
        },
        {
          "name": "_zkVerifier",
          "type": "address",
          "internalType": "contract ZKVerifier"
        },
        {
          "name": "_submissionInterval",
          "type": "uint256",
          "internalType": "uint256"
        },
        {
          "name": "_creationPeriodSeconds",
          "type": "uint256",
          "internalType": "uint256"
        },
        {
          "name": "_bisectionTimeout",
          "type": "uint256",
          "internalType": "uint256"
        },
        {
          "name": "_provingTimeout",
          "type": "uint256",
          "internalType": "uint256"
        },
        {
          "name": "_dummyHash",
          "type": "bytes32",
          "internalType": "bytes32"
        },
        {
          "name": "_maxTxs",
          "type": "uint256",
          "internalType": "uint256"
        },
        {
          "name": "_segmentsLengths",
          "type": "uint256[]",
          "internalType": "uint256[]"
        },
        {
          "name": "_securityCouncil",
          "type": "address",
          "internalType": "address"
        },
        {
          "name": "_zkMerkleTrie",
          "type": "address",
          "internalType": "address"
        }
      ],
      "stateMutability": "nonpayable"
    },
    {
      "type": "function",
      "name": "BISECTION_TIMEOUT",
      "inputs": [],
      "outputs": [
        {
          "name": "",
          "type": "uint256",
          "internalType": "uint256"
        }
      ],
      "stateMutability": "view"
    },
    {
      "type": "function",
      "name": "CREATION_PERIOD_SECONDS",
      "inputs": [],
      "outputs": [
        {
          "name": "",
          "type": "uint256",
          "internalType": "uint256"
        }
      ],
      "stateMutability": "view"
    },
    {
      "type": "function",
      "name": "DUMMY_HASH",
      "inputs": [],
      "outputs": [
        {
          "name": "",
          "type": "bytes32",
          "internalType": "bytes32"
        }
      ],
      "stateMutability": "view"
    },
    {
      "type": "function",
      "name": "L2_ORACLE",
      "inputs": [],
      "outputs": [
        {
          "name": "",
          "type": "address",
          "internalType": "contract L2OutputOracle"
        }
      ],
      "stateMutability": "view"
    },
    {
      "type": "function",
      "name": "L2_ORACLE_SUBMISSION_INTERVAL",
      "inputs": [],
      "outputs": [
        {
          "name": "",
          "type": "uint256",
          "internalType": "uint256"
        }
      ],
      "stateMutability": "view"
    },
    {
      "type": "function",
      "name": "MAX_TXS",
      "inputs": [],
      "outputs": [
        {
          "name": "",
          "type": "uint256",
          "internalType": "uint256"
        }
      ],
      "stateMutability": "view"
    },
    {
      "type": "function",
      "name": "PROVING_TIMEOUT",
      "inputs": [],
      "outputs": [
        {
          "name": "",
          "type": "uint256",
          "internalType": "uint256"
        }
      ],
      "stateMutability": "view"
    },
    {
      "type": "function",
      "name": "SECURITY_COUNCIL",
      "inputs": [],
      "outputs": [
        {
          "name": "",
          "type": "address",
          "internalType": "address"
        }
      ],
      "stateMutability": "view"
    },
    {
      "type": "function",
      "name": "ZK_MERKLE_TRIE",
      "inputs": [],
      "outputs": [
        {
          "name": "",
          "type": "address",
          "internalType": "address"
        }
      ],
      "stateMutability": "view"
    },
    {
      "type": "function",
      "name": "ZK_VERIFIER",
      "inputs": [],
      "outputs": [
        {
          "name": "",
          "type": "address",
          "internalType": "contract ZKVerifier"
        }
      ],
      "stateMutability": "view"
    },
    {
      "type": "function",
      "name": "bisect",
      "inputs": [
        {
          "name": "_outputIndex",
          "type": "uint256",
          "internalType": "uint256"
        },
        {
          "name": "_challenger",
          "type": "address",
          "internalType": "address"
        },
        {
          "name": "_pos",
          "type": "uint256",
          "internalType": "uint256"
        },
        {
          "name": "_segments",
          "type": "bytes32[]",
          "internalType": "bytes32[]"
        }
      ],
      "outputs": [],
      "stateMutability": "nonpayable"
    },
    {
      "type": "function",
      "name": "cancelChallenge",
      "inputs": [
        {
          "name": "_outputIndex",
          "type": "uint256",
          "internalType": "uint256"
        }
      ],
      "outputs": [],
      "stateMutability": "nonpayable"
    },
    {
      "type": "function",
      "name": "challengerTimeout",
      "inputs": [
        {
          "name": "_outputIndex",
          "type": "uint256",
          "internalType": "uint256"
        },
        {
          "name": "_challenger",
          "type": "address",
          "internalType": "address"
        }
      ],
      "outputs": [],
      "stateMutability": "nonpayable"
    },
    {
      "type": "function",
      "name": "challenges",
      "inputs": [
        {
          "name": "",
          "type": "uint256",
          "internalType": "uint256"
        },
        {
          "name": "",
          "type": "address",
          "internalType": "address"
        }
      ],
      "outputs": [
        {
          "name": "turn",
          "type": "uint8",
          "internalType": "uint8"
        },
        {
          "name": "timeoutAt",
          "type": "uint64",
          "internalType": "uint64"
        },
        {
          "name": "asserter",
          "type": "address",
          "internalType": "address"
        },
        {
          "name": "challenger",
          "type": "address",
          "internalType": "address"
        },
        {
          "name": "segSize",
          "type": "uint256",
          "internalType": "uint256"
        },
        {
          "name": "segStart",
          "type": "uint256",
          "internalType": "uint256"
        }
      ],
      "stateMutability": "view"
    },
    {
      "type": "function",
      "name": "createChallenge",
      "inputs": [
        {
          "name": "_outputIndex",
          "type": "uint256",
          "internalType": "uint256"
        },
        {
          "name": "_l1BlockHash",
          "type": "bytes32",
          "internalType": "bytes32"
        },
        {
          "name": "_l1BlockNumber",
          "type": "uint256",
          "internalType": "uint256"
        },
        {
          "name": "_segments",
          "type": "bytes32[]",
          "internalType": "bytes32[]"
        }
      ],
      "outputs": [],
      "stateMutability": "nonpayable"
    },
    {
      "type": "function",
      "name": "deletedOutputs",
      "inputs": [
        {
          "name": "",
          "type": "uint256",
          "internalType": "uint256"
        }
      ],
      "outputs": [
        {
          "name": "submitter",
          "type": "address",
          "internalType": "address"
        },
        {
          "name": "outputRoot",
          "type": "bytes32",
          "internalType": "bytes32"
        },
        {
          "name": "timestamp",
          "type": "uint128",
          "internalType": "uint128"
        },
        {
          "name": "l2BlockNumber",
          "type": "uint128",
          "internalType": "uint128"
        }
      ],
      "stateMutability": "view"
    },
    {
      "type": "function",
      "name": "dismissChallenge",
      "inputs": [
        {
          "name": "_outputIndex",
          "type": "uint256",
          "internalType": "uint256"
        },
        {
          "name": "_challenger",
          "type": "address",
          "internalType": "address"
        },
        {
          "name": "_asserter",
          "type": "address",
          "internalType": "address"
        },
        {
          "name": "_outputRoot",
          "type": "bytes32",
          "internalType": "bytes32"
        },
        {
          "name": "_publicInputHash",
          "type": "bytes32",
          "internalType": "bytes32"
        }
      ],
      "outputs": [],
      "stateMutability": "nonpayable"
    },
    {
      "type": "function",
      "name": "forceDeleteOutput",
      "inputs": [
        {
          "name": "_outputIndex",
          "type": "uint256",
          "internalType": "uint256"
        }
      ],
      "outputs": [],
      "stateMutability": "nonpayable"
    },
    {
      "type": "function",
      "name": "getSegments",
      "inputs": [
        {
          "name": "_outputIndex",
          "type": "uint256",
          "internalType": "uint256"
        },
        {
          "name": "_challenger",
          "type": "address",
          "internalType": "address"
        }
      ],
      "outputs": [
        {
          "name": "",
          "type": "bytes32[]",
          "internalType": "bytes32[]"
        }
      ],
      "stateMutability": "view"
    },
    {
      "type": "function",
      "name": "getStatus",
      "inputs": [
        {
          "name": "_outputIndex",
          "type": "uint256",
          "internalType": "uint256"
        },
        {
          "name": "_challenger",
          "type": "address",
          "internalType": "address"
        }
      ],
      "outputs": [
        {
          "name": "",
          "type": "uint8",
          "internalType": "enum Colosseum.ChallengeStatus"
        }
      ],
      "stateMutability": "view"
    },
    {
      "type": "function",
      "name": "initialize",
      "inputs": [
        {
          "name": "_segmentsLengths",
          "type": "uint256[]",
          "internalType": "uint256[]"
        }
      ],
      "outputs": [],
      "stateMutability": "nonpayable"
    },
    {
      "type": "function",
      "name": "isInCreationPeriod",
      "inputs": [
        {
          "name": "_outputIndex",
          "type": "uint256",
          "internalType": "uint256"
        }
      ],
      "outputs": [
        {
          "name": "",
          "type": "bool",
          "internalType": "bool"
        }
      ],
      "stateMutability": "view"
    },
    {
      "type": "function",
      "name": "proveFault",
      "inputs": [
        {
          "name": "_outputIndex",
          "type": "uint256",
          "internalType": "uint256"
        },
        {
          "name": "_pos",
          "type": "uint256",
          "internalType": "uint256"
        },
        {
          "name": "_proof",
          "type": "tuple",
          "internalType": "struct Types.PublicInputProof",
          "components": [
            {
              "name": "srcOutputRootProof",
              "type": "tuple",
              "internalType": "struct Types.OutputRootProof",
              "components": [
                {
                  "name": "version",
                  "type": "bytes32",
                  "internalType": "bytes32"
                },
                {
                  "name": "stateRoot",
                  "type": "bytes32",
                  "internalType": "bytes32"
                },
                {
                  "name": "messagePasserStorageRoot",
                  "type": "bytes32",
                  "internalType": "bytes32"
                },
                {
                  "name": "blockHash",
                  "type": "bytes32",
                  "internalType": "bytes32"
                },
                {
                  "name": "nextBlockHash",
                  "type": "bytes32",
                  "internalType": "bytes32"
                }
              ]
            },
            {
              "name": "dstOutputRootProof",
              "type": "tuple",
              "internalType": "struct Types.OutputRootProof",
              "components": [
                {
                  "name": "version",
                  "type": "bytes32",
                  "internalType": "bytes32"
                },
                {
                  "name": "stateRoot",
                  "type": "bytes32",
                  "internalType": "bytes32"
                },
                {
                  "name": "messagePasserStorageRoot",
                  "type": "bytes32",
                  "internalType": "bytes32"
                },
                {
                  "name": "blockHash",
                  "type": "bytes32",
                  "internalType": "bytes32"
                },
                {
                  "name": "nextBlockHash",
                  "type": "bytes32",
                  "internalType": "bytes32"
                }
              ]
            },
            {
              "name": "publicInput",
              "type": "tuple",
              "internalType": "struct Types.PublicInput",
              "components": [
                {
                  "name": "blockHash",
                  "type": "bytes32",
                  "internalType": "bytes32"
                },
                {
                  "name": "parentHash",
                  "type": "bytes32",
                  "internalType": "bytes32"
                },
                {
                  "name": "timestamp",
                  "type": "uint64",
                  "internalType": "uint64"
                },
                {
                  "name": "number",
                  "type": "uint64",
                  "internalType": "uint64"
                },
                {
                  "name": "gasLimit",
                  "type": "uint64",
                  "internalType": "uint64"
                },
                {
                  "name": "baseFee",
                  "type": "uint256",
                  "internalType": "uint256"
                },
                {
                  "name": "transactionsRoot",
                  "type": "bytes32",
                  "internalType": "bytes32"
                },
                {
                  "name": "stateRoot",
                  "type": "bytes32",
                  "internalType": "bytes32"
                },
                {
                  "name": "withdrawalsRoot",
                  "type": "bytes32",
                  "internalType": "bytes32"
                },
                {
                  "name": "txHashes",
                  "type": "bytes32[]",
                  "internalType": "bytes32[]"
                },
                {
                  "name": "blobGasUsed",
                  "type": "uint64",
                  "internalType": "uint64"
                },
                {
                  "name": "excessBlobGas",
                  "type": "uint64",
                  "internalType": "uint64"
                },
                {
                  "name": "parentBeaconRoot",
                  "type": "bytes32",
                  "internalType": "bytes32"
                }
              ]
            },
            {
              "name": "rlps",
              "type": "tuple",
              "internalType": "struct Types.BlockHeaderRLP",
              "components": [
                {
                  "name": "uncleHash",
                  "type": "bytes",
                  "internalType": "bytes"
                },
                {
                  "name": "coinbase",
                  "type": "bytes",
                  "internalType": "bytes"
                },
                {
                  "name": "receiptsRoot",
                  "type": "bytes",
                  "internalType": "bytes"
                },
                {
                  "name": "logsBloom",
                  "type": "bytes",
                  "internalType": "bytes"
                },
                {
                  "name": "difficulty",
                  "type": "bytes",
                  "internalType": "bytes"
                },
                {
                  "name": "gasUsed",
                  "type": "bytes",
                  "internalType": "bytes"
                },
                {
                  "name": "extraData",
                  "type": "bytes",
                  "internalType": "bytes"
                },
                {
                  "name": "mixHash",
                  "type": "bytes",
                  "internalType": "bytes"
                },
                {
                  "name": "nonce",
                  "type": "bytes",
                  "internalType": "bytes"
                }
              ]
            },
            {
              "name": "l2ToL1MessagePasserBalance",
              "type": "bytes32",
              "internalType": "bytes32"
            },
            {
              "name": "l2ToL1MessagePasserCodeHash",
              "type": "bytes32",
              "internalType": "bytes32"
            },
            {
              "name": "merkleProof",
              "type": "bytes[]",
              "internalType": "bytes[]"
            }
          ]
        },
        {
          "name": "_zkproof",
          "type": "uint256[]",
          "internalType": "uint256[]"
        },
        {
          "name": "_pair",
          "type": "uint256[]",
          "internalType": "uint256[]"
        }
      ],
      "outputs": [],
      "stateMutability": "nonpayable"
    },
    {
      "type": "function",
      "name": "segmentsLengths",
      "inputs": [
        {
          "name": "",
          "type": "uint256",
          "internalType": "uint256"
        }
      ],
      "outputs": [
        {
          "name": "",
          "type": "uint256",
          "internalType": "uint256"
        }
      ],
      "stateMutability": "view"
    },
    {
      "type": "function",
      "name": "verifiedPublicInputs",
      "inputs": [
        {
          "name": "",
          "type": "bytes32",
          "internalType": "bytes32"
        }
      ],
      "outputs": [
        {
          "name": "",
          "type": "bool",
          "internalType": "bool"
        }
      ],
      "stateMutability": "view"
    },
    {
      "type": "function",
      "name": "version",
      "inputs": [],
      "outputs": [
        {
          "name": "",
          "type": "string",
          "internalType": "string"
        }
      ],
      "stateMutability": "view"
    },
    {
      "type": "event",
      "name": "Bisected",
      "inputs": [
        {
          "name": "outputIndex",
          "type": "uint256",
          "indexed": true,
          "internalType": "uint256"
        },
        {
          "name": "challenger",
          "type": "address",
          "indexed": true,
          "internalType": "address"
        },
        {
          "name": "turn",
          "type": "uint8",
          "indexed": false,
          "internalType": "uint8"
        },
        {
          "name": "timestamp",
          "type": "uint256",
          "indexed": false,
          "internalType": "uint256"
        }
      ],
      "anonymous": false
    },
    {
      "type": "event",
      "name": "ChallengeCanceled",
      "inputs": [
        {
          "name": "outputIndex",
          "type": "uint256",
          "indexed": true,
          "internalType": "uint256"
        },
        {
          "name": "challenger",
          "type": "address",
          "indexed": true,
          "internalType": "address"
        },
        {
          "name": "timestamp",
          "type": "uint256",
          "indexed": false,
          "internalType": "uint256"
        }
      ],
      "anonymous": false
    },
    {
      "type": "event",
      "name": "ChallengeCreated",
      "inputs": [
        {
          "name": "outputIndex",
          "type": "uint256",
          "indexed": true,
          "internalType": "uint256"
        },
        {
          "name": "asserter",
          "type": "address",
          "indexed": true,
          "internalType": "address"
        },
        {
          "name": "challenger",
          "type": "address",
          "indexed": true,
          "internalType": "address"
        },
        {
          "name": "timestamp",
          "type": "uint256",
          "indexed": false,
          "internalType": "uint256"
        }
      ],
      "anonymous": false
    },
    {
      "type": "event",
      "name": "ChallengeDismissed",
      "inputs": [
        {
          "name": "outputIndex",
          "type": "uint256",
          "indexed": true,
          "internalType": "uint256"
        },
        {
          "name": "challenger",
          "type": "address",
          "indexed": true,
          "internalType": "address"
        },
        {
          "name": "timestamp",
          "type": "uint256",
          "indexed": false,
          "internalType": "uint256"
        }
      ],
      "anonymous": false
    },
    {
      "type": "event",
      "name": "ChallengerTimedOut",
      "inputs": [
        {
          "name": "outputIndex",
          "type": "uint256",
          "indexed": true,
          "internalType": "uint256"
        },
        {
          "name": "challenger",
          "type": "address",
          "indexed": true,
          "internalType": "address"
        },
        {
          "name": "timestamp",
          "type": "uint256",
          "indexed": false,
          "internalType": "uint256"
        }
      ],
      "anonymous": false
    },
    {
      "type": "event",
      "name": "Initialized",
      "inputs": [
        {
          "name": "version",
          "type": "uint8",
          "indexed": false,
          "internalType": "uint8"
        }
      ],
      "anonymous": false
    },
    {
      "type": "event",
      "name": "OutputForceDeleted",
      "inputs": [
        {
          "name": "outputIndex",
          "type": "uint256",
          "indexed": true,
          "internalType": "uint256"
        },
        {
          "name": "asseter",
          "type": "address",
          "indexed": true,
          "internalType": "address"
        },
        {
          "name": "timestamp",
          "type": "uint256",
          "indexed": false,
          "internalType": "uint256"
        }
      ],
      "anonymous": false
    },
    {
      "type": "event",
      "name": "Proven",
      "inputs": [
        {
          "name": "outputIndex",
          "type": "uint256",
          "indexed": true,
          "internalType": "uint256"
        },
        {
          "name": "challenger",
          "type": "address",
          "indexed": true,
          "internalType": "address"
        },
        {
          "name": "timestamp",
          "type": "uint256",
          "indexed": false,
          "internalType": "uint256"
        }
      ],
      "anonymous": false
    },
    {
      "type": "event",
      "name": "ReadyToProve",
      "inputs": [
        {
          "name": "outputIndex",
          "type": "uint256",
          "indexed": true,
          "internalType": "uint256"
        },
        {
          "name": "challenger",
          "type": "address",
          "indexed": true,
          "internalType": "address"
        }
      ],
      "anonymous": false
    },
    {
      "type": "error",
      "name": "BlockHashMismatched",
      "inputs": []
    },
    {
      "type": "error",
      "name": "BlockHashMismatchedBtwSrcAndDst",
      "inputs": []
    },
    {
      "type": "error",
      "name": "CannotCancelChallenge",
      "inputs": []
    },
    {
      "type": "error",
      "name": "CreationPeriodPassed",
      "inputs": []
    },
    {
      "type": "error",
      "name": "FirstSegmentMismatched",
      "inputs": []
    },
    {
      "type": "error",
      "name": "ImproperChallengeStatus",
      "inputs": []
    },
    {
      "type": "error",
      "name": "ImproperChallengeStatusToCancel",
      "inputs": []
    },
    {
      "type": "error",
      "name": "ImproperValidatorStatus",
      "inputs": []
    },
    {
      "type": "error",
      "name": "InvalidAddressGiven",
      "inputs": []
    },
    {
      "type": "error",
      "name": "InvalidInclusionProof",
      "inputs": []
    },
    {
      "type": "error",
      "name": "InvalidOutputGiven",
      "inputs": []
    },
    {
      "type": "error",
      "name": "InvalidPublicInput",
      "inputs": []
    },
    {
      "type": "error",
      "name": "InvalidSegmentsLength",
      "inputs": []
    },
    {
      "type": "error",
      "name": "InvalidTurn",
      "inputs": []
    },
    {
      "type": "error",
      "name": "InvalidZKProof",
      "inputs": []
    },
    {
      "type": "error",
      "name": "L1Reorged",
      "inputs": []
    },
    {
      "type": "error",
      "name": "LastSegmentMatched",
      "inputs": []
    },
    {
      "type": "error",
      "name": "NotAllowedCaller",
      "inputs": []
    },
    {
      "type": "error",
      "name": "NotAllowedGenesisOutput",
      "inputs": []
    },
    {
      "type": "error",
      "name": "OnlyChallengerCanCancel",
      "inputs": []
    },
    {
      "type": "error",
      "name": "OutputAlreadyDeleted",
      "inputs": []
    },
    {
      "type": "error",
      "name": "OutputAlreadyFinalized",
      "inputs": []
    },
    {
      "type": "error",
      "name": "OutputNotDeleted",
      "inputs": []
    },
    {
      "type": "error",
      "name": "StateRootMismatched",
      "inputs": []
    }
  ],
  "transactionHash": "0xa847a6d4af7934c91a109ffee144e18d6cb4afa17b584d9ff2d151048dd66687",
  "args": [
    "0x180c77aE51a9c505a43A2C7D81f8CE70cacb93A6",
    "0x6deb6a630D7b486c1C08d4016AEe3835a2F52Fa7",
    1800,
    518400,
    3600,
    28800,
    "0xedf1ae3da135c124658e215a9bf53477facb442a1dcd5a92388332cb6193237f",
    100,
    [
      "9",
      "6",
      "10",
      "6"
    ],
    "0x3de211088dF516da72efe68D386b561BEE256Ec4",
    "0x339208824010425cBE73201ceD4372308ACD610B"
  ],
  "numDeployments": 4,
  "solcInputHash": "6271f6f40156b835b824d3aeb153efe1",
  "bytecode": "0x6101c06040523480156200001257600080fd5b50604051620064fd380380620064fd83398101604081905262000035916200038a565b6001600160a01b03808c166080528a811660a05260c089905260e08890526101008790526101208a90526101408690526101608590528281166101805281166101a052620000838362000094565b5050505050505050505050620004e3565b600054610100900460ff1615808015620000b55750600054600160ff909116105b80620000e55750620000d2306200029660201b62002dca1760201c565b158015620000e5575060005460ff166001145b6200014d5760405162461bcd60e51b815260206004820152602e60248201527f496e697469616c697a61626c653a20636f6e747261637420697320616c72656160448201526d191e481a5b9a5d1a585b1a5e995960921b606482015260840160405180910390fd5b6000805460ff19166001179055801562000171576000805461ff0019166101001790555b6002825162000181919062000458565b15620001a057604051630fbb795f60e41b815260040160405180910390fd5b600160005b83518110156200022557838181518110620001c457620001c46200047b565b602002602001015160016000838152602001908152602001600020819055506001848281518110620001fa57620001fa6200047b565b60200260200101516200020e9190620004a7565b6200021a9083620004c1565b9150600101620001a5565b506101205181146200024a57604051630fbb795f60e41b815260040160405180910390fd5b50801562000292576000805461ff0019169055604051600181527f7f26b83ff96e1f2b6a682f133852f6798a09c465da95921460cefb38474024989060200160405180910390a15b5050565b6001600160a01b03163b151590565b6001600160a01b0381168114620002bb57600080fd5b50565b8051620002cb81620002a5565b919050565b634e487b7160e01b600052604160045260246000fd5b600082601f830112620002f857600080fd5b815160206001600160401b0380831115620003175762000317620002d0565b8260051b604051601f19603f830116810181811084821117156200033f576200033f620002d0565b6040529384528581018301938381019250878511156200035e57600080fd5b83870191505b848210156200037f5781518352918301919083019062000364565b979650505050505050565b60008060008060008060008060008060006101608c8e031215620003ad57600080fd5b8b51620003ba81620002a5565b60208d0151909b50620003cd81620002a5565b809a505060408c0151985060608c0151975060808c0151965060a08c0151955060c08c0151945060e08c015193506101008c015160018060401b038111156200041557600080fd5b620004238e828f01620002e6565b935050620004356101208d01620002be565b9150620004466101408d01620002be565b90509295989b509295989b9093969950565b6000826200047657634e487b7160e01b600052601260045260246000fd5b500690565b634e487b7160e01b600052603260045260246000fd5b634e487b7160e01b600052601160045260246000fd5b600082821015620004bc57620004bc62000491565b500390565b6000816000190483118215151615620004de57620004de62000491565b500290565b60805160a05160c05160e05161010051610120516101405161016051610180516101a051615e32620006cb600039600081816103d50152613e860152600081816102f6015281816115bc0152818161202c01528181612260015261351e01526000818161036501528181613f680152613fd60152600081816105dc0152613fa201526000818161058e0152818161108001528181612ca80152612ce10152600081816105b501528181612e3f01526141af01526000818161031d01526142160152600081816104da015281816106cc01526126e301526000818161052101526113270152600081816101b7015281816106ed015281816107e50152818161090c01528181610af301528181610b5101528181610c4601528181610d4501528181611444015281816116db015281816117c1015281816118d801528181611acd01528181611f3d01528181612054015281816120b2015281816121a7015281816123870152818161247c0152818161266b015281816128330152818161297a01528181612a6f01528181612b6a01528181612f8f015281816130840152818161311501528181613256015281816132d00152818161336201528181613443015281816135a601528181613687015281816138750152818161396a0152613a650152615e326000f3fe608060405234801561001057600080fd5b50600436106101ad5760003560e01c806380ab1313116100ee578063b3e7766d11610097578063d5145ebc11610071578063d5145ebc146105d7578063e39a219c146105fe578063e9371a2c14610611578063fc9d84df1461063157600080fd5b8063b3e7766d14610569578063cfb4474d14610589578063d2ee3075146105b057600080fd5b80639ded3952116100c85780639ded39521461051c578063a41483e314610543578063a6ade11f1461055657600080fd5b806380ab1313146104c25780638f3a6c88146104d55780638f86c803146104fc57600080fd5b8063461569b81161015b5780635865b607116101355780635865b607146103d05780635a6b011f146103f757806362fc00db1461049c5780636fe0e559146104af57600080fd5b8063461569b81461034d5780635375b8911461036057806354fd4d501461038757600080fd5b80632df27fa51161018c5780632df27fa51461023e57806336086417146102f15780634394c5841461031857600080fd5b80621c2ff6146101b25780631be4e27e146101f65780631db1b67214610229575b600080fd5b6101d97f000000000000000000000000000000000000000000000000000000000000000081565b6040516001600160a01b0390911681526020015b60405180910390f35b610219610204366004614e01565b60036020526000908152604090205460ff1681565b60405190151581526020016101ed565b61023c610237366004614e2f565b610644565b005b6102aa61024c366004614e2f565b6002602090815260009283526040808420909152908252902080546001820154600383015460049093015460ff83169367ffffffffffffffff610100850416936001600160a01b036901000000000000000000909104811693169186565b6040805160ff909716875267ffffffffffffffff90951660208701526001600160a01b039384169486019490945291166060840152608083015260a082015260c0016101ed565b6101d97f000000000000000000000000000000000000000000000000000000000000000081565b61033f7f000000000000000000000000000000000000000000000000000000000000000081565b6040519081526020016101ed565b61021961035b366004614e01565b6106c7565b61033f7f000000000000000000000000000000000000000000000000000000000000000081565b6103c36040518060400160405280600581526020017f312e312e3000000000000000000000000000000000000000000000000000000081525081565b6040516101ed9190614eb7565b6101d97f000000000000000000000000000000000000000000000000000000000000000081565b61045a610405366004614e01565b6004602052600090815260409020805460018201546002909201546001600160a01b0390911691906fffffffffffffffffffffffffffffffff8082169170010000000000000000000000000000000090041684565b604080516001600160a01b03909516855260208501939093526fffffffffffffffffffffffffffffffff918216928401929092521660608201526080016101ed565b61023c6104aa366004614eca565b6107a2565b61023c6104bd366004614fee565b610e96565b61023c6104d03660046150d0565b61113e565b61033f7f000000000000000000000000000000000000000000000000000000000000000081565b61033f61050a366004614e01565b60016020526000908152604090205481565b6101d97f000000000000000000000000000000000000000000000000000000000000000081565b61023c610551366004614e01565b611b3e565b61023c610564366004615181565b611baf565b61057c610577366004614e2f565b611e82565b6040516101ed91906151eb565b61033f7f000000000000000000000000000000000000000000000000000000000000000081565b61033f7f000000000000000000000000000000000000000000000000000000000000000081565b61033f7f000000000000000000000000000000000000000000000000000000000000000081565b61023c61060c366004614e01565b611efa565b61062461061f366004614e2f565b612319565b6040516101ed919061525e565b61023c61063f36600461529f565b61234b565b600360008381526002602090815260408083206001600160a01b0386168452909152902061067190612dd9565b60058111156106825761068261522f565b146106b9576040517f744b348200000000000000000000000000000000000000000000000000000000815260040160405180910390fd5b6106c38282612eb7565b5050565b6000427f00000000000000000000000000000000000000000000000000000000000000007f00000000000000000000000000000000000000000000000000000000000000006001600160a01b031663a25ae557856040518263ffffffff1660e01b815260040161073991815260200190565b608060405180830381865afa158015610756573d6000803e3d6000fd5b505050506040513d601f19601f8201168201806040525081019061077a9190615303565b604001516fffffffffffffffffffffffffffffffff1661079a91906153aa565b101592915050565b6107aa613513565b6107b385613577565b6040517fa25ae557000000000000000000000000000000000000000000000000000000008152600481018690526000907f00000000000000000000000000000000000000000000000000000000000000006001600160a01b03169063a25ae55790602401608060405180830381865afa158015610834573d6000803e3d6000fd5b505050506040513d601f19601f820116820180604052508101906108589190615303565b6020015114610893576040517f8796efdc00000000000000000000000000000000000000000000000000000000815260040160405180910390fd5b60008581526004602052604090206001015482146108dd576040517f90e78fa500000000000000000000000000000000000000000000000000000000815260040160405180910390fd5b6040517fb0ea09a8000000000000000000000000000000000000000000000000000000008152600481018690527f00000000000000000000000000000000000000000000000000000000000000006001600160a01b03169063b0ea09a890602401602060405180830381865afa15801561095b573d6000803e3d6000fd5b505050506040513d601f19601f8201168201806040525081019061097f91906153c2565b6001600160a01b0316846001600160a01b03161415806109b957506000858152600460205260409020546001600160a01b03848116911614155b156109f0576040517f8036a47f00000000000000000000000000000000000000000000000000000000815260040160405180910390fd5b60008181526003602052604090205460ff16610a38576040517f7458ca2e00000000000000000000000000000000000000000000000000000000815260040160405180910390fd5b600081815260036020908152604080832080547fffffffffffffffffffffffffffffffffffffffffffffffffffffffffffffff0016905587835260049182905280832080547fffffffffffffffffffffffff0000000000000000000000000000000000000000168155600181018490556002019290925590517fe6646723000000000000000000000000000000000000000000000000000000008152908101869052602481018390526001600160a01b0384811660448301527f0000000000000000000000000000000000000000000000000000000000000000169063e664672390606401600060405180830381600087803b158015610b3757600080fd5b505af1158015610b4b573d6000803e3d6000fd5b505050507f00000000000000000000000000000000000000000000000000000000000000006001600160a01b031663b98debbf6040518163ffffffff1660e01b8152600401602060405180830381865afa158015610bad573d6000803e3d6000fd5b505050506040513d601f19601f82011682018060405250810190610bd191906153c2565b6001600160a01b031663ad36d6cc866040518263ffffffff1660e01b8152600401610bfe91815260200190565b602060405180830381865afa158015610c1b573d6000803e3d6000fd5b505050506040513d601f19601f82011682018060405250810190610c3f91906153df565b15610e4b577f00000000000000000000000000000000000000000000000000000000000000006001600160a01b031663ae9483e06040518163ffffffff1660e01b8152600401602060405180830381865afa158015610ca2573d6000803e3d6000fd5b505050506040513d601f19601f82011682018060405250810190610cc691906153c2565b6040517fab04b8aa000000000000000000000000000000000000000000000000000000008152600481018790526001600160a01b038581166024830152919091169063ab04b8aa90604401600060405180830381600087803b158015610d2b57600080fd5b505af1158015610d3f573d6000803e3d6000fd5b505050507f00000000000000000000000000000000000000000000000000000000000000006001600160a01b031663ae9483e06040518163ffffffff1660e01b8152600401602060405180830381865afa158015610da1573d6000803e3d6000fd5b505050506040513d601f19601f82011682018060405250810190610dc591906153c2565b6040517fbe995dc2000000000000000000000000000000000000000000000000000000008152600481018790526001600160a01b0385811660248301528681166044830152919091169063be995dc290606401600060405180830381600087803b158015610e3257600080fd5b505af1158015610e46573d6000803e3d6000fd5b505050505b836001600160a01b0316857fdca9fa9b51a5ba03938c6a0cd5489011630370fc481ef2b0cb771ad904a7305342604051610e8791815260200190565b60405180910390a35050505050565b600054610100900460ff1615808015610eb65750600054600160ff909116105b80610ed05750303b158015610ed0575060005460ff166001145b610f61576040517f08c379a000000000000000000000000000000000000000000000000000000000815260206004820152602e60248201527f496e697469616c697a61626c653a20636f6e747261637420697320616c72656160448201527f647920696e697469616c697a656400000000000000000000000000000000000060648201526084015b60405180910390fd5b600080547fffffffffffffffffffffffffffffffffffffffffffffffffffffffffffffff001660011790558015610fbf57600080547fffffffffffffffffffffffffffffffffffffffffffffffffffffffffffff00ff166101001790555b60028251610fcd9190615430565b15611004576040517ffbb795f000000000000000000000000000000000000000000000000000000000815260040160405180910390fd5b600160005b835181101561107d5783818151811061102457611024615444565b60200260200101516001600083815260200190815260200160002081905550600184828151811061105757611057615444565b60200260200101516110699190615473565b611073908361548a565b9150600101611009565b507f000000000000000000000000000000000000000000000000000000000000000081146110d7576040517ffbb795f000000000000000000000000000000000000000000000000000000000815260040160405180910390fd5b5080156106c357600080547fffffffffffffffffffffffffffffffffffffffffffffffffffffffffffff00ff169055604051600181527f7f26b83ff96e1f2b6a682f133852f6798a09c465da95921460cefb38474024989060200160405180910390a15050565b61114787613577565b600087815260026020908152604080832033845290915281209061116a82612dd9565b6001830154909150611187908a906001600160a01b031683613653565b15611193575050611b35565b60058160058111156111a7576111a761522f565b141580156111c7575060048160058111156111c4576111c461522f565b14155b156111fe576040517f744b348200000000000000000000000000000000000000000000000000000000815260040160405180910390fd5b611239888361121a611215368c90038c018c6154c7565b613b72565b61122f611215368d90038d0160a08e016154c7565b8b60a08101613c61565b6112628760a0810161124f610140830183615537565b61125d6101608c018c615575565b613d69565b61128e6112736101c08901896155a9565b6101808a01356101a08b013560e08c013560c08d0135613e2e565b60006112ab60208901356112a66101408b018b615537565b613f62565b60008181526003602052604090205490915060ff16156112f7576040517f7458ca2e00000000000000000000000000000000000000000000000000000000815260040160405180910390fd5b6040517f4292dc3e0000000000000000000000000000000000000000000000000000000081526001600160a01b037f00000000000000000000000000000000000000000000000000000000000000001690634292dc3e90611364908a908a908a908a908890600401615660565b602060405180830381865afa158015611381573d6000803e3d6000fd5b505050506040513d601f19601f820116820180604052508101906113a591906153df565b6113db576040517f076490f600000000000000000000000000000000000000000000000000000000815260040160405180910390fd5b60405142815233908b907f0431864ed2609170587bbc7c198abd8caee4c55943dfb16fd42ec6f59c91c5f79060200160405180910390a36040517fa25ae557000000000000000000000000000000000000000000000000000000008152600481018b90526000907f00000000000000000000000000000000000000000000000000000000000000006001600160a01b03169063a25ae55790602401608060405180830381865afa158015611493573d6000803e3d6000fd5b505050506040513d601f19601f820116820180604052508101906114b79190615303565b84546020820151604051602481018f905233604482015269010000000000000000009092046001600160a01b03166064830152608482015260a481018490529091506000907f62fc00db000000000000000000000000000000000000000000000000000000009060c40160408051601f19818403018152918152602080830180517bffffffffffffffffffffffffffffffffffffffffffffffffffffffff167fffffffff000000000000000000000000000000000000000000000000000000009095169490941790935291840151606085015192517f080b91ee0000000000000000000000000000000000000000000000000000000081529193506001600160a01b037f0000000000000000000000000000000000000000000000000000000000000000169263080b91ee926115f3929190869060040161569a565b600060405180830381600087803b15801561160d57600080fd5b505af1158015611621573d6000803e3d6000fd5b50505060008d815260046020818152604092839020865181546001600160a01b039182167fffffffffffffffffffffffff0000000000000000000000000000000000000000909116178255828801516001830155848801516060909801516fffffffffffffffffffffffffffffffff9081167001000000000000000000000000000000000298169790971760029091015582517fb98debbf00000000000000000000000000000000000000000000000000000000815292517f00000000000000000000000000000000000000000000000000000000000000009096169563b98debbf9550838301945090929091908290030181865afa158015611728573d6000803e3d6000fd5b505050506040513d601f19601f8201168201806040525081019061174c91906153c2565b6001600160a01b031663ad36d6cc8b6040518263ffffffff1660e01b815260040161177991815260200190565b602060405180830381865afa158015611796573d6000803e3d6000fd5b505050506040513d601f19601f820116820180604052508101906117ba91906153df565b156118d6577f00000000000000000000000000000000000000000000000000000000000000006001600160a01b031663ae9483e06040518163ffffffff1660e01b8152600401602060405180830381865afa15801561181d573d6000803e3d6000fd5b505050506040513d601f19601f8201168201806040525081019061184191906153c2565b83546040517fbe995dc2000000000000000000000000000000000000000000000000000000008152600481018d90523360248201526001600160a01b0369010000000000000000009092048216604482015291169063be995dc290606401600060405180830381600087803b1580156118b957600080fd5b505af11580156118cd573d6000803e3d6000fd5b505050506119d4565b7f00000000000000000000000000000000000000000000000000000000000000006001600160a01b031663b98debbf6040518163ffffffff1660e01b8152600401602060405180830381865afa158015611934573d6000803e3d6000fd5b505050506040513d601f19601f8201168201806040525081019061195891906153c2565b6040517fdd215c5d000000000000000000000000000000000000000000000000000000008152600481018c90523360248201526001600160a01b03919091169063dd215c5d90604401600060405180830381600087803b1580156119bb57600080fd5b505af11580156119cf573d6000803e3d6000fd5b505050505b600081815260036020908152604080832080547fffffffffffffffffffffffffffffffffffffffffffffffffffffffffffffff001660019081179091558d8452600280845282852033865290935290832080547fffffff000000000000000000000000000000000000000000000000000000000016815590810180547fffffffffffffffffffffffff00000000000000000000000000000000000000001690559190611a8290830182614d83565b5060006003820181905560049182018190556040517fe66467230000000000000000000000000000000000000000000000000000000081529182018c905260248201523360448201527f00000000000000000000000000000000000000000000000000000000000000006001600160a01b03169063e664672390606401600060405180830381600087803b158015611b1957600080fd5b505af1158015611b2d573d6000803e3d6000fd5b505050505050505b50505050505050565b600081815260026020908152604080832033845290915290206001810154611b799083906001600160a01b0316611b7484612dd9565b613653565b6106c3576040517f4e9d86f500000000000000000000000000000000000000000000000000000000815260040160405180910390fd5b611bb885613577565b60008581526002602090815260408083206001600160a01b0388168452909152812090611be482612dd9565b6001830154909150611c019088906001600160a01b031683613653565b15611c0d575050611e7b565b60006001826005811115611c2357611c2361522f565b03611c3c575060018201546001600160a01b0316611c6f565b6002826005811115611c5057611c5061522f565b03611c6f57508154690100000000000000000090046001600160a01b03165b336001600160a01b03821614611cb1576040517f9d02a7c200000000000000000000000000000000000000000000000000000000815260040160405180910390fd5b8254600090611cc49060ff1660016156d4565b9050611d4f81856002018981548110611cdf57611cdf615444565b9060005260206000200154866002018a6001611cfb91906153aa565b81548110611d0b57611d0b615444565b906000526020600020015489898080602002602001604051908101604052809392919081815260200183836020028082843760009201919091525061401d92505050565b6000611d5a8561412e565b9050611db585888880806020026020016040519081016040528093929190818152602001838360200280828437600092019190915250611da092508691508d905061548a565b8860040154611daf91906153aa565b84614173565b84547fffffffffffffffffffffffffffffffffffffffffffffffffffffffffffffff001660ff8316178555611de98561419d565b6040805160ff841681524260208201526001600160a01b038b16918c917fcadef6622777415b0589e491bdbf6baf11242f676f77055fd03bf1658c17a145910160405180910390a3611e3a8561423b565b611e75576040516001600160a01b038a16908b907f5c4528cbb38a169d24837617d3fd3d5c70a47769a4e9af6f384720b359b716c890600090a35b50505050505b5050505050565b60008281526002602081815260408084206001600160a01b0386168552825292839020909101805483518184028101840190945280845260609392830182828015611eec57602002820191906000526020600020905b815481526020019060010190808311611ed8575b505050505090505b92915050565b611f02613513565b611f0b81613577565b6040517fa25ae557000000000000000000000000000000000000000000000000000000008152600481018290526000907f00000000000000000000000000000000000000000000000000000000000000006001600160a01b03169063a25ae55790602401608060405180830381865afa158015611f8c573d6000803e3d6000fd5b505050506040513d601f19601f82011682018060405250810190611fb09190615303565b6020810151909150611fee576040517fe66309bb00000000000000000000000000000000000000000000000000000000815260040160405180910390fd5b6040517fe664672300000000000000000000000000000000000000000000000000000000815260048101839052600060248201526001600160a01b037f0000000000000000000000000000000000000000000000000000000000000000811660448301527f0000000000000000000000000000000000000000000000000000000000000000169063e664672390606401600060405180830381600087803b15801561209857600080fd5b505af11580156120ac573d6000803e3d6000fd5b505050507f00000000000000000000000000000000000000000000000000000000000000006001600160a01b031663b98debbf6040518163ffffffff1660e01b8152600401602060405180830381865afa15801561210e573d6000803e3d6000fd5b505050506040513d601f19601f8201168201806040525081019061213291906153c2565b6001600160a01b031663ad36d6cc836040518263ffffffff1660e01b815260040161215f91815260200190565b602060405180830381865afa15801561217c573d6000803e3d6000fd5b505050506040513d601f19601f820116820180604052508101906121a091906153df565b156122cd577f00000000000000000000000000000000000000000000000000000000000000006001600160a01b031663ae9483e06040518163ffffffff1660e01b8152600401602060405180830381865afa158015612203573d6000803e3d6000fd5b505050506040513d601f19601f8201168201806040525081019061222791906153c2565b81516040517fbe995dc2000000000000000000000000000000000000000000000000000000008152600481018590526001600160a01b037f000000000000000000000000000000000000000000000000000000000000000081166024830152918216604482015291169063be995dc290606401600060405180830381600087803b1580156122b457600080fd5b505af11580156122c8573d6000803e3d6000fd5b505050505b80600001516001600160a01b0316827fa620f04b65b1d538481626bf41dc5ee321b5c48e0cc1a7daae213cf7c254b54e4260405161230d91815260200190565b60405180910390a35050565b60008281526002602090815260408083206001600160a01b0385168452909152812061234490612dd9565b9392505050565b84600003612385576040517f2604872b00000000000000000000000000000000000000000000000000000000815260040160405180910390fd5b7f00000000000000000000000000000000000000000000000000000000000000006001600160a01b031663b98debbf6040518163ffffffff1660e01b8152600401602060405180830381865afa1580156123e3573d6000803e3d6000fd5b505050506040513d601f19601f8201168201806040525081019061240791906153c2565b6001600160a01b031663ad36d6cc866040518263ffffffff1660e01b815260040161243491815260200190565b602060405180830381865afa158015612451573d6000803e3d6000fd5b505050506040513d601f19601f8201168201806040525081019061247591906153df565b156125b5577f00000000000000000000000000000000000000000000000000000000000000006001600160a01b031663ae9483e06040518163ffffffff1660e01b8152600401602060405180830381865afa1580156124d8573d6000803e3d6000fd5b505050506040513d601f19601f820116820180604052508101906124fc91906153c2565b6040517f9f8a13d70000000000000000000000000000000000000000000000000000000081523360048201526001600160a01b039190911690639f8a13d790602401602060405180830381865afa15801561255b573d6000803e3d6000fd5b505050506040513d601f19601f8201168201806040525081019061257f91906153df565b6125b5576040517f197299a000000000000000000000000000000000000000000000000000000000815260040160405180910390fd5b600085815260026020908152604080832033845290915290208054600160ff909116106126395760036125e782612dd9565b60058111156125f8576125f861522f565b1461262f576040517f744b348200000000000000000000000000000000000000000000000000000000815260040160405180910390fd5b6126398633612eb7565b6040517fa25ae557000000000000000000000000000000000000000000000000000000008152600481018790526000907f00000000000000000000000000000000000000000000000000000000000000006001600160a01b03169063a25ae55790602401608060405180830381865afa1580156126ba573d6000803e3d6000fd5b505050506040513d601f19601f820116820180604052508101906126de9190615303565b9050427f000000000000000000000000000000000000000000000000000000000000000082604001516fffffffffffffffffffffffffffffffff1661272391906153aa565b101561275b576040517fa0388b4700000000000000000000000000000000000000000000000000000000815260040160405180910390fd5b6020810151612796576040517fe66309bb00000000000000000000000000000000000000000000000000000000815260040160405180910390fd5b80516001600160a01b031633036127d9576040517f9d02a7c200000000000000000000000000000000000000000000000000000000815260040160405180910390fd5b85158015906127e85750844015155b156128275785854014612827576040517f72f1f56300000000000000000000000000000000000000000000000000000000815260040160405180910390fd5b60006001600160a01b037f00000000000000000000000000000000000000000000000000000000000000001663a25ae55761286360018b615473565b6040518263ffffffff1660e01b815260040161288191815260200190565b608060405180830381865afa15801561289e573d6000803e3d6000fd5b505050506040513d601f19601f820116820180604052508101906128c29190615303565b60208101519091506129305761292b6001868660008181106128e6576128e6615444565b90506020020135846020015188888080602002602001604051908101604052809392919081815260200183836020028082843760009201919091525061401d92505050565b612978565b61297860018260200151846020015188888080602002602001604051908101604052809392919081815260200183836020028082843760009201919091525061401d92505050565b7f00000000000000000000000000000000000000000000000000000000000000006001600160a01b031663b98debbf6040518163ffffffff1660e01b8152600401602060405180830381865afa1580156129d6573d6000803e3d6000fd5b505050506040513d601f19601f820116820180604052508101906129fa91906153c2565b6001600160a01b031663ad36d6cc896040518263ffffffff1660e01b8152600401612a2791815260200190565b602060405180830381865afa158015612a44573d6000803e3d6000fd5b505050506040513d601f19601f82011682018060405250810190612a6891906153df565b15612b68577f00000000000000000000000000000000000000000000000000000000000000006001600160a01b031663ae9483e06040518163ffffffff1660e01b8152600401602060405180830381865afa158015612acb573d6000803e3d6000fd5b505050506040513d601f19601f82011682018060405250810190612aef91906153c2565b6040517f8c1516c70000000000000000000000000000000000000000000000000000000081523360048201526001600160a01b039190911690638c1516c790602401600060405180830381600087803b158015612b4b57600080fd5b505af1158015612b5f573d6000803e3d6000fd5b50505050612c66565b7f00000000000000000000000000000000000000000000000000000000000000006001600160a01b031663b98debbf6040518163ffffffff1660e01b8152600401602060405180830381865afa158015612bc6573d6000803e3d6000fd5b505050506040513d601f19601f82011682018060405250810190612bea91906153c2565b6040517f5a544742000000000000000000000000000000000000000000000000000000008152600481018a90523360248201526001600160a01b039190911690635a54474290604401600060405180830381600087803b158015612c4d57600080fd5b505af1158015612c61573d6000803e3d6000fd5b505050505b612d058386868080602002602001604051908101604052809392919081815260200183836020028082843760009201919091525050506060860151612cdf91507f0000000000000000000000000000000000000000000000000000000000000000906fffffffffffffffffffffffffffffffff16615473565b7f0000000000000000000000000000000000000000000000000000000000000000614173565b825482516001600160a01b03166901000000000000000000027fffffff0000000000000000000000000000000000000000ffffffffffffffff009091161760019081178455830180547fffffffffffffffffffffffff00000000000000000000000000000000000000001633179055612d7d8361419d565b815160405142815233916001600160a01b0316908a907fd2f7931a802085b3d0234d4c320ce7ee0041da96678ce2bf5c93e8d3d7e65f529060200160405180910390a45050505050505050565b6001600160a01b03163b151590565b8054600090600160ff9091161015612df357506000919050565b8154600090612e079060029060ff166156f9565b835460ff91909116159150610100900467ffffffffffffffff16421115612e8c578015612e375750600392915050565b8254612e73907f000000000000000000000000000000000000000000000000000000000000000090610100900467ffffffffffffffff166153aa565b421115612e835750600392915050565b50600492915050565b612e958361423b565b612ea25750600592915050565b80612eae576002612344565b60019392505050565b60008281526002602081815260408084206001600160a01b0386168552909152822080547fffffff00000000000000000000000000000000000000000000000000000000001681556001810180547fffffffffffffffffffffffff00000000000000000000000000000000000000001690559190612f3790830182614d83565b600382016000905560048201600090555050806001600160a01b0316827fbf4506ef5d06ecb6168f37bc9e69dd473089eb9e3f2675322d01b4d466cff05142604051612f8591815260200190565b60405180910390a37f00000000000000000000000000000000000000000000000000000000000000006001600160a01b031663b98debbf6040518163ffffffff1660e01b8152600401602060405180830381865afa158015612feb573d6000803e3d6000fd5b505050506040513d601f19601f8201168201806040525081019061300f91906153c2565b6001600160a01b031663ad36d6cc836040518263ffffffff1660e01b815260040161303c91815260200190565b602060405180830381865afa158015613059573d6000803e3d6000fd5b505050506040513d601f19601f8201168201806040525081019061307d91906153df565b15613227577f00000000000000000000000000000000000000000000000000000000000000006001600160a01b031663ae9483e06040518163ffffffff1660e01b8152600401602060405180830381865afa1580156130e0573d6000803e3d6000fd5b505050506040513d601f19601f8201168201806040525081019061310491906153c2565b6001600160a01b031663be995dc2837f00000000000000000000000000000000000000000000000000000000000000006001600160a01b031663b0ea09a8866040518263ffffffff1660e01b815260040161316191815260200190565b602060405180830381865afa15801561317e573d6000803e3d6000fd5b505050506040513d601f19601f820116820180604052508101906131a291906153c2565b6040517fffffffff0000000000000000000000000000000000000000000000000000000060e085901b16815260048101929092526001600160a01b039081166024830152841660448201526064015b600060405180830381600087803b15801561320b57600080fd5b505af115801561321f573d6000803e3d6000fd5b505050505050565b6040517f33727c4d000000000000000000000000000000000000000000000000000000008152600481018390527f00000000000000000000000000000000000000000000000000000000000000006001600160a01b0316906333727c4d90602401602060405180830381865afa1580156132a5573d6000803e3d6000fd5b505050506040513d601f19601f820116820180604052508101906132c991906153df565b15613441577f00000000000000000000000000000000000000000000000000000000000000006001600160a01b031663b98debbf6040518163ffffffff1660e01b8152600401602060405180830381865afa15801561332c573d6000803e3d6000fd5b505050506040513d601f19601f8201168201806040525081019061335091906153c2565b6001600160a01b03166336b8346983837f00000000000000000000000000000000000000000000000000000000000000006001600160a01b031663b0ea09a8876040518263ffffffff1660e01b81526004016133ae91815260200190565b602060405180830381865afa1580156133cb573d6000803e3d6000fd5b505050506040513d601f19601f820116820180604052508101906133ef91906153c2565b6040517fffffffff0000000000000000000000000000000000000000000000000000000060e086901b16815260048101939093526001600160a01b0391821660248401521660448201526064016131f1565b7f00000000000000000000000000000000000000000000000000000000000000006001600160a01b031663b98debbf6040518163ffffffff1660e01b8152600401602060405180830381865afa15801561349f573d6000803e3d6000fd5b505050506040513d601f19601f820116820180604052508101906134c391906153c2565b6040517fdd215c5d000000000000000000000000000000000000000000000000000000008152600481018490526001600160a01b038381166024830152919091169063dd215c5d906044016131f1565b336001600160a01b037f00000000000000000000000000000000000000000000000000000000000000001614613575576040517f9d02a7c200000000000000000000000000000000000000000000000000000000815260040160405180910390fd5b565b6040517f33727c4d000000000000000000000000000000000000000000000000000000008152600481018290527f00000000000000000000000000000000000000000000000000000000000000006001600160a01b0316906333727c4d90602401602060405180830381865afa1580156135f5573d6000803e3d6000fd5b505050506040513d601f19601f8201168201806040525081019061361991906153df565b15613650576040517f5c9d9a2300000000000000000000000000000000000000000000000000000000815260040160405180910390fd5b50565b6040517fa25ae5570000000000000000000000000000000000000000000000000000000081526004810184905260009081907f00000000000000000000000000000000000000000000000000000000000000006001600160a01b03169063a25ae55790602401608060405180830381865afa1580156136d6573d6000803e3d6000fd5b505050506040513d601f19601f820116820180604052508101906136fa9190615303565b602001511461370b57506000612344565b336001600160a01b0384161461374d576040517f21e62a3f00000000000000000000000000000000000000000000000000000000815260040160405180910390fd5b60008260058111156137615761376161522f565b148061377e5750600382600581111561377c5761377c61522f565b145b156137b5576040517ff691b6e600000000000000000000000000000000000000000000000000000000815260040160405180910390fd5b6000848152600260208181526040808420338552909152822080547fffffff00000000000000000000000000000000000000000000000000000000001681556001810180547fffffffffffffffffffffffff0000000000000000000000000000000000000000169055919061382c90830182614d83565b50600060038201819055600490910155604051428152339085907f6f3468a095154788e69ed719ee418416c1e338ac2348ccb3531bb97a0ed6ed9d9060200160405180910390a37f00000000000000000000000000000000000000000000000000000000000000006001600160a01b031663b98debbf6040518163ffffffff1660e01b8152600401602060405180830381865afa1580156138d1573d6000803e3d6000fd5b505050506040513d601f19601f820116820180604052508101906138f591906153c2565b6001600160a01b031663ad36d6cc856040518263ffffffff1660e01b815260040161392291815260200190565b602060405180830381865afa15801561393f573d6000803e3d6000fd5b505050506040513d601f19601f8201168201806040525081019061396391906153df565b15613a63577f00000000000000000000000000000000000000000000000000000000000000006001600160a01b031663ae9483e06040518163ffffffff1660e01b8152600401602060405180830381865afa1580156139c6573d6000803e3d6000fd5b505050506040513d601f19601f820116820180604052508101906139ea91906153c2565b6040517fa83871720000000000000000000000000000000000000000000000000000000081523360048201526001600160a01b03919091169063a838717290602401600060405180830381600087803b158015613a4657600080fd5b505af1158015613a5a573d6000803e3d6000fd5b50505050613b68565b7f00000000000000000000000000000000000000000000000000000000000000006001600160a01b031663b98debbf6040518163ffffffff1660e01b8152600401602060405180830381865afa158015613ac1573d6000803e3d6000fd5b505050506040513d601f19601f82011682018060405250810190613ae591906153c2565b6040517f36b8346900000000000000000000000000000000000000000000000000000000815260048101869052336024820181905260448201526001600160a01b0391909116906336b8346990606401600060405180830381600087803b158015613b4f57600080fd5b505af1158015613b63573d6000803e3d6000fd5b505050505b5060019392505050565b8051600090613bd45781516020808401516040808601516060808801516080808a0151855180890199909952888601969096529187019290925285015260a0808501929092528051808503909201825260c09093019092528151910120611ef4565b6040517f08c379a000000000000000000000000000000000000000000000000000000000815260206004820152602a60248201527f48617368696e673a20756e6b6e6f776e206f757470757420726f6f742070726f60448201527f6f662076657273696f6e000000000000000000000000000000000000000000006064820152608401610f58565b919050565b83856002018781548110613c7757613c77615444565b906000526020600020015414613cb9576040517f224dff3200000000000000000000000000000000000000000000000000000000815260040160405180910390fd5b613cc28561423b565b613d28578260028601613cd68860016153aa565b81548110613ce657613ce6615444565b906000526020600020015403613d28576040517f87c1943200000000000000000000000000000000000000000000000000000000815260040160405180910390fd5b806060013582608001351461321f576040517f3f126fab00000000000000000000000000000000000000000000000000000000815260040160405180910390fd5b82602001358260e0013514613daa576040517f4d9e774000000000000000000000000000000000000000000000000000000000815260040160405180910390fd5b6000610180830135613dd557613dd0613dc284615799565b613dcb846158f3565b61424f565b613def565b613def613de184615799565b613dea846158f3565b6142f3565b905080856080013514611e7b576040517fb033950600000000000000000000000000000000000000000000000000000000815260040160405180910390fd5b60408051600060208201528082018690526060810185905260808082018590528251808303909101815260a08201928390527f12e64a72000000000000000000000000000000000000000000000000000000009092527f00000000000000000000000000000000000000000000000000000000000000006001600160a01b0316906312e64a7290613eeb907f42000000000000000000000000000000000000030000000000000000000000009085908c908c90899060a401615a94565b602060405180830381865afa158015613f08573d6000803e3d6000fd5b505050506040513d601f19601f82011682018060405250810190613f2c91906153df565b611b35576040517ff35959c000000000000000000000000000000000000000000000000000000000815260040160405180910390fd5b600060607f0000000000000000000000000000000000000000000000000000000000000000613f956101208501856155a9565b9050101561400257613fff7f0000000000000000000000000000000000000000000000000000000000000000613fcf6101208601866155a9565b613ffa91507f0000000000000000000000000000000000000000000000000000000000000000615473565b614404565b90505b6140158461400f85615799565b83614490565b949350505050565b80516001600061402d8288615b6f565b60ff1681526020019081526020016000205414614076576040517ffbb795f000000000000000000000000000000000000000000000000000000000815260040160405180910390fd5b8060008151811061408957614089615444565b602002602001015183146140c9576040517f224dff3200000000000000000000000000000000000000000000000000000000815260040160405180910390fd5b80600182516140d89190615473565b815181106140e8576140e8615444565b60200260200101518203614128576040517f87c1943200000000000000000000000000000000000000000000000000000000815260040160405180910390fd5b50505050565b80546000906001908190839061414890839060ff16615b6f565b60ff168152602001908152602001600020546141649190615473565b8260030154611ef49190615b92565b82516141889060028601906020860190614da1565b50600484019190915560039092019190915550565b6141a68161423b565b614211576141d47f0000000000000000000000000000000000000000000000000000000000000000426153aa565b815467ffffffffffffffff91909116610100027fffffffffffffffffffffffffffffffffffffffffffffff0000000000000000ff90911617815550565b6141d47f0000000000000000000000000000000000000000000000000000000000000000426153aa565b600060016142488361412e565b1192915050565b6040805160118082526102408201909252600091829190816020015b606081526020019060019003908161426b57905050905061428d848483614502565b6142bc8461010001516040516020016142a891815260200190565b6040516020818303038152906040526147b5565b816010815181106142cf576142cf615444565b60200260200101819052506142e381614824565b8051906020012091505092915050565b6040805160148082526102a08201909252600091829190816020015b606081526020019060019003908161430f579050509050614331848483614502565b61434c8461010001516040516020016142a891815260200190565b8160108151811061435f5761435f615444565b602002602001018190525061438284610140015167ffffffffffffffff16614868565b8160118151811061439557614395615444565b60200260200101819052506143b884610160015167ffffffffffffffff16614868565b816012815181106143cb576143cb615444565b60200260200101819052506143f18461018001516040516020016142a891815260200190565b816013815181106142cf576142cf615444565b606060008267ffffffffffffffff81111561442157614421614f1c565b60405190808252806020026020018201604052801561444a578160200160208202803683370190505b50905060005b83811015614488578482828151811061446b5761446b615444565b60209081029190910101528061448081615ba6565b915050614450565b509392505050565b6000838360e001516000801b85600001518660200151876060015188604001518960a001518a608001518b6101200151518c61012001518c6040516020016144e39c9b9a99989796959493929190615c11565b6040516020818303038152906040528051906020012090509392505050565b61451c83602001516040516020016142a891815260200190565b8160008151811061452f5761452f615444565b602002602001018190525081600001518160018151811061455257614552615444565b602002602001018190525081602001518160028151811061457557614575615444565b602002602001018190525061459a8360e001516040516020016142a891815260200190565b816003815181106145ad576145ad615444565b60200260200101819052506145d28360c001516040516020016142a891815260200190565b816004815181106145e5576145e5615444565b602002602001018190525081604001518160058151811061460857614608615444565b602002602001018190525081606001518160068151811061462b5761462b615444565b602002602001018190525081608001518160078151811061464e5761464e615444565b6020026020010181905250614670836060015167ffffffffffffffff16614868565b8160088151811061468357614683615444565b60200260200101819052506146a5836080015167ffffffffffffffff16614868565b816009815181106146b8576146b8615444565b60200260200101819052508160a0015181600a815181106146db576146db615444565b60200260200101819052506146fd836040015167ffffffffffffffff16614868565b81600b8151811061471057614710615444565b60200260200101819052508160c0015181600c8151811061473357614733615444565b60200260200101819052508160e0015181600d8151811061475657614756615444565b602002602001018190525081610100015181600e8151811061477a5761477a615444565b60200260200101819052506147928360a00151614868565b81600f815181106147a5576147a5615444565b6020026020010181905250505050565b606080825160011480156147e357506080836000815181106147d9576147d9615444565b016020015160f81c105b156147ef575081611ef4565b6147fb8351608061487b565b8360405160200161480d929190615cca565b604051602081830303815290604052905092915050565b6060600061483183614a71565b905061483f815160c061487b565b81604051602001614851929190615cca565b604051602081830303815290604052915050919050565b6060611ef461487683614ba9565b6147b5565b60608060388410156148fa57604080516001808252818301909252906020820181803683370190505090506148b083856156d4565b60f81b816000815181106148c6576148c6615444565b60200101907effffffffffffffffffffffffffffffffffffffffffffffffffffffffffffff1916908160001a905350612344565b600060015b6149098187615b92565b1561492f578161491881615ba6565b925061492890506101008261548a565b90506148ff565b61493a8260016153aa565b67ffffffffffffffff81111561495257614952614f1c565b6040519080825280601f01601f19166020018201604052801561497c576020820181803683370190505b50925061498985836156d4565b6149949060376156d4565b60f81b836000815181106149aa576149aa615444565b60200101907effffffffffffffffffffffffffffffffffffffffffffffffffffffffffffff1916908160001a905350600190505b818111614a68576101006149f28284615473565b6149fe90610100615e19565b614a089088615b92565b614a129190615430565b60f81b838281518110614a2757614a27615444565b60200101907effffffffffffffffffffffffffffffffffffffffffffffffffffffffffffff1916908160001a90535080614a6081615ba6565b9150506149de565b50509392505050565b60608151600003614a9057505060408051600081526020810190915290565b6000805b8351811015614ad757838181518110614aaf57614aaf615444565b60200260200101515182614ac391906153aa565b915080614acf81615ba6565b915050614a94565b60008267ffffffffffffffff811115614af257614af2614f1c565b6040519080825280601f01601f191660200182016040528015614b1c576020820181803683370190505b50600092509050602081015b8551831015614ba0576000868481518110614b4557614b45615444565b602002602001015190506000602082019050614b6383828451614d08565b878581518110614b7557614b75615444565b60200260200101515183614b8991906153aa565b925050508280614b9890615ba6565b935050614b28565b50949350505050565b6060600082604051602001614bc091815260200190565b604051602081830303815290604052905060005b6020811015614c2f57818181518110614bef57614bef615444565b01602001517fff0000000000000000000000000000000000000000000000000000000000000016600003614c2f5780614c2781615ba6565b915050614bd4565b6000614c3c826020615473565b67ffffffffffffffff811115614c5457614c54614f1c565b6040519080825280601f01601f191660200182016040528015614c7e576020820181803683370190505b50905060005b8151811015614ba0578383614c9881615ba6565b945081518110614caa57614caa615444565b602001015160f81c60f81b828281518110614cc757614cc7615444565b60200101907effffffffffffffffffffffffffffffffffffffffffffffffffffffffffffff1916908160001a90535080614d0081615ba6565b915050614c84565b8282825b60208110614d445781518352614d236020846153aa565b9250614d306020836153aa565b9150614d3d602082615473565b9050614d0c565b905182516020929092036101000a7fffffffffffffffffffffffffffffffffffffffffffffffffffffffffffffffff0180199091169116179052505050565b50805460008255906000526020600020908101906136509190614dec565b828054828255906000526020600020908101928215614ddc579160200282015b82811115614ddc578251825591602001919060010190614dc1565b50614de8929150614dec565b5090565b5b80821115614de85760008155600101614ded565b600060208284031215614e1357600080fd5b5035919050565b6001600160a01b038116811461365057600080fd5b60008060408385031215614e4257600080fd5b823591506020830135614e5481614e1a565b809150509250929050565b60005b83811015614e7a578181015183820152602001614e62565b838111156141285750506000910152565b60008151808452614ea3816020860160208601614e5f565b601f01601f19169290920160200192915050565b6020815260006123446020830184614e8b565b600080600080600060a08688031215614ee257600080fd5b853594506020860135614ef481614e1a565b93506040860135614f0481614e1a565b94979396509394606081013594506080013592915050565b7f4e487b7100000000000000000000000000000000000000000000000000000000600052604160045260246000fd5b6040516101a0810167ffffffffffffffff81118282101715614f6f57614f6f614f1c565b60405290565b604051610120810167ffffffffffffffff81118282101715614f6f57614f6f614f1c565b604051601f8201601f1916810167ffffffffffffffff81118282101715614fc257614fc2614f1c565b604052919050565b600067ffffffffffffffff821115614fe457614fe4614f1c565b5060051b60200190565b6000602080838503121561500157600080fd5b823567ffffffffffffffff81111561501857600080fd5b8301601f8101851361502957600080fd5b803561503c61503782614fca565b614f99565b81815260059190911b8201830190838101908783111561505b57600080fd5b928401925b8284101561507957833582529284019290840190615060565b979650505050505050565b60008083601f84011261509657600080fd5b50813567ffffffffffffffff8111156150ae57600080fd5b6020830191508360208260051b85010111156150c957600080fd5b9250929050565b600080600080600080600060a0888a0312156150eb57600080fd5b8735965060208801359550604088013567ffffffffffffffff8082111561511157600080fd5b908901906101e0828c03121561512657600080fd5b9095506060890135908082111561513c57600080fd5b6151488b838c01615084565b909650945060808a013591508082111561516157600080fd5b5061516e8a828b01615084565b989b979a50959850939692959293505050565b60008060008060006080868803121561519957600080fd5b8535945060208601356151ab81614e1a565b935060408601359250606086013567ffffffffffffffff8111156151ce57600080fd5b6151da88828901615084565b969995985093965092949392505050565b6020808252825182820181905260009190848201906040850190845b8181101561522357835183529284019291840191600101615207565b50909695505050505050565b7f4e487b7100000000000000000000000000000000000000000000000000000000600052602160045260246000fd5b6020810160068310615299577f4e487b7100000000000000000000000000000000000000000000000000000000600052602160045260246000fd5b91905290565b6000806000806000608086880312156152b757600080fd5b853594506020860135935060408601359250606086013567ffffffffffffffff8111156151ce57600080fd5b80516fffffffffffffffffffffffffffffffff81168114613c5c57600080fd5b60006080828403121561531557600080fd5b6040516080810181811067ffffffffffffffff8211171561533857615338614f1c565b604052825161534681614e1a565b81526020838101519082015261535e604084016152e3565b604082015261536f606084016152e3565b60608201529392505050565b7f4e487b7100000000000000000000000000000000000000000000000000000000600052601160045260246000fd5b600082198211156153bd576153bd61537b565b500190565b6000602082840312156153d457600080fd5b815161234481614e1a565b6000602082840312156153f157600080fd5b8151801515811461234457600080fd5b7f4e487b7100000000000000000000000000000000000000000000000000000000600052601260045260246000fd5b60008261543f5761543f615401565b500690565b7f4e487b7100000000000000000000000000000000000000000000000000000000600052603260045260246000fd5b6000828210156154855761548561537b565b500390565b6000817fffffffffffffffffffffffffffffffffffffffffffffffffffffffffffffffff04831182151516156154c2576154c261537b565b500290565b600060a082840312156154d957600080fd5b60405160a0810181811067ffffffffffffffff821117156154fc576154fc614f1c565b806040525082358152602083013560208201526040830135604082015260608301356060820152608083013560808201528091505092915050565b600082357ffffffffffffffffffffffffffffffffffffffffffffffffffffffffffffffe6183360301811261556b57600080fd5b9190910192915050565b600082357ffffffffffffffffffffffffffffffffffffffffffffffffffffffffffffffee183360301811261556b57600080fd5b60008083357fffffffffffffffffffffffffffffffffffffffffffffffffffffffffffffffe18436030181126155de57600080fd5b83018035915067ffffffffffffffff8211156155f957600080fd5b6020019150600581901b36038213156150c957600080fd5b81835260007f07ffffffffffffffffffffffffffffffffffffffffffffffffffffffffffffff83111561564357600080fd5b8260051b8083602087013760009401602001938452509192915050565b606081526000615674606083018789615611565b8281036020840152615687818688615611565b9150508260408301529695505050505050565b8381526fffffffffffffffffffffffffffffffff831660208201526060604082015260006156cb6060830184614e8b565b95945050505050565b600060ff821660ff84168060ff038211156156f1576156f161537b565b019392505050565b600060ff83168061570c5761570c615401565b8060ff84160691505092915050565b803567ffffffffffffffff81168114613c5c57600080fd5b600082601f83011261574457600080fd5b8135602061575461503783614fca565b82815260059290921b8401810191818101908684111561577357600080fd5b8286015b8481101561578e5780358352918301918301615777565b509695505050505050565b60006101a082360312156157ac57600080fd5b6157b4614f4b565b82358152602083013560208201526157ce6040840161571b565b60408201526157df6060840161571b565b60608201526157f06080840161571b565b608082015260a083013560a082015260c083013560c082015260e083013560e08201526101008084013581830152506101208084013567ffffffffffffffff81111561583b57600080fd5b61584736828701615733565b82840152505061014061585b81850161571b565b9082015261016061586d84820161571b565b9082015261018092830135928101929092525090565b600082601f83011261589457600080fd5b813567ffffffffffffffff8111156158ae576158ae614f1c565b6158c16020601f19601f84011601614f99565b8181528460208386010111156158d657600080fd5b816020850160208301376000918101602001919091529392505050565b6000610120823603121561590657600080fd5b61590e614f75565b823567ffffffffffffffff8082111561592657600080fd5b61593236838701615883565b8352602085013591508082111561594857600080fd5b61595436838701615883565b6020840152604085013591508082111561596d57600080fd5b61597936838701615883565b6040840152606085013591508082111561599257600080fd5b61599e36838701615883565b606084015260808501359150808211156159b757600080fd5b6159c336838701615883565b608084015260a08501359150808211156159dc57600080fd5b6159e836838701615883565b60a084015260c0850135915080821115615a0157600080fd5b615a0d36838701615883565b60c084015260e0850135915080821115615a2657600080fd5b615a3236838701615883565b60e084015261010091508185013581811115615a4d57600080fd5b615a5936828801615883565b8385015250505080915050919050565b818352818160208501375060006020828401015260006020601f19601f840116840101905092915050565b85815260006020608081840152615aae6080840188614e8b565b8381036040850152858152818101600587901b820183018860005b89811015615b5657601f1985840301845281357fffffffffffffffffffffffffffffffffffffffffffffffffffffffffffffffe18c3603018112615b0c57600080fd5b8b01868101903567ffffffffffffffff811115615b2857600080fd5b803603821315615b3757600080fd5b615b42858284615a69565b958801959450505090850190600101615ac9565b5050809450505050508260608301529695505050505050565b600060ff821660ff841680821015615b8957615b8961537b565b90039392505050565b600082615ba157615ba1615401565b500490565b60007fffffffffffffffffffffffffffffffffffffffffffffffffffffffffffffffff8203615bd757615bd761537b565b5060010190565b60008151602080840160005b83811015615c0657815187529582019590820190600101615bea565b509495945050505050565b8c81528b60208201528a604082015289606082015288608082015260007fffffffffffffffff000000000000000000000000000000000000000000000000808a60c01b1660a0840152808960c01b1660a88401528760b0840152808760c01b1660d0840152507fffff0000000000000000000000000000000000000000000000000000000000008560f01b1660d8830152615cb8615cb260da840186615bde565b84615bde565b9e9d5050505050505050505050505050565b60008351615cdc818460208801614e5f565b835190830190615cf0818360208801614e5f565b01949350505050565b600181815b80851115615d5257817fffffffffffffffffffffffffffffffffffffffffffffffffffffffffffffffff04821115615d3857615d3861537b565b80851615615d4557918102915b93841c9390800290615cfe565b509250929050565b600082615d6957506001611ef4565b81615d7657506000611ef4565b8160018114615d8c5760028114615d9657615db2565b6001915050611ef4565b60ff841115615da757615da761537b565b50506001821b611ef4565b5060208310610133831016604e8410600b8410161715615dd5575081810a611ef4565b615ddf8383615cf9565b807fffffffffffffffffffffffffffffffffffffffffffffffffffffffffffffffff04821115615e1157615e1161537b565b029392505050565b60006123448383615d5a56fea164736f6c634300080f000a",
  "devdoc": {
    "version": 1,
    "kind": "dev",
    "methods": {
      "bisect(uint256,address,uint256,bytes32[])": {
        "params": {
          "_challenger": "Address of the challenger.",
          "_outputIndex": "Index of the L2 checkpoint output.",
          "_pos": "Position of the last valid segment.",
          "_segments": "Array of the segment. A segment is the first output root of a specific range."
        }
      },
      "cancelChallenge(uint256)": {
        "params": {
          "_outputIndex": "Index of the L2 checkpoint output."
        }
      },
      "challengerTimeout(uint256,address)": {
        "params": {
          "_challenger": "Address of the challenger.",
          "_outputIndex": "Index of the L2 checkpoint output."
        }
      },
      "constructor": {
        "params": {
          "_bisectionTimeout": "Timeout seconds for the bisection.",
          "_creationPeriodSeconds": "Seconds The period seconds for which challenges can be created per each output.",
          "_dummyHash": "Dummy hash.",
          "_l2Oracle": "Address of the L2OutputOracle contract.",
          "_maxTxs": "Number of max transactions per block.",
          "_provingTimeout": "Timeout seconds for the proving.",
          "_securityCouncil": "Address of security council.",
          "_segmentsLengths": "Lengths of segments.",
          "_submissionInterval": "Interval in blocks at which checkpoints must be submitted.",
          "_zkMerkleTrie": "Address of zk merkle trie.",
          "_zkVerifier": "Address of the ZKVerifier contract."
        }
      },
      "createChallenge(uint256,bytes32,uint256,bytes32[])": {
        "params": {
          "_l1BlockHash": "The block hash of L1 at the time the output L2 block was created.",
          "_l1BlockNumber": "The block number of L1 with the specified L1 block hash.",
          "_outputIndex": "Index of the invalid L2 checkpoint output.",
          "_segments": "Array of the segment. A segment is the first output root of a specific range."
        }
      },
      "dismissChallenge(uint256,address,address,bytes32,bytes32)": {
        "params": {
          "_asserter": "Address of the asserter.",
          "_challenger": "Address of the challenger.",
          "_outputIndex": "Index of the L2 checkpoint output.",
          "_outputRoot": "The L2 output root to rollback.",
          "_publicInputHash": "Hash of public input."
        }
      },
      "forceDeleteOutput(uint256)": {
        "params": {
          "_outputIndex": "Index of the L2 checkpoint output."
        }
      },
      "getSegments(uint256,address)": {
        "params": {
          "_challenger": "Address of the challenger.",
          "_outputIndex": "Index of the L2 checkpoint output."
        },
        "returns": {
          "_0": "The challenge segments data."
        }
      },
      "getStatus(uint256,address)": {
        "params": {
          "_challenger": "Address of the challenger.",
          "_outputIndex": "Index of the L2 checkpoint output."
        },
        "returns": {
          "_0": "The status of the challenge."
        }
      },
      "isInCreationPeriod(uint256)": {
        "params": {
          "_outputIndex": "Index of the L2 checkpoint output."
        },
        "returns": {
          "_0": "Whether current timestamp is in challenge creation period."
        }
      },
      "proveFault(uint256,uint256,((bytes32,bytes32,bytes32,bytes32,bytes32),(bytes32,bytes32,bytes32,bytes32,bytes32),(bytes32,bytes32,uint64,uint64,uint64,uint256,bytes32,bytes32,bytes32,bytes32[],uint64,uint64,bytes32),(bytes,bytes,bytes,bytes,bytes,bytes,bytes,bytes,bytes),bytes32,bytes32,bytes[]),uint256[],uint256[])": {
        "params": {
          "_outputIndex": "Index of the L2 checkpoint output.",
          "_pair": "Aggregated multi-opening proofs and public inputs. (Currently only 2 public inputs)",
          "_pos": "Position of the last valid segment.",
          "_proof": "Proof for public input validation.",
          "_zkproof": "Halo2 proofs composed of points and scalars.                     See https://zcash.github.io/halo2/design/implementation/proofs.html."
        }
      }
    },
    "events": {
      "Bisected(uint256,address,uint8,uint256)": {
        "params": {
          "challenger": "Address of the challenger.",
          "outputIndex": "Index of the L2 checkpoint output.",
          "timestamp": "The timestamp when bisected.",
          "turn": "The current turn."
        }
      },
      "ChallengeCanceled(uint256,address,uint256)": {
        "params": {
          "challenger": "Address of the challenger.",
          "outputIndex": "Index of the L2 checkpoint output.",
          "timestamp": "The timestamp when canceled."
        }
      },
      "ChallengeCreated(uint256,address,address,uint256)": {
        "params": {
          "asserter": "Address of the asserter.",
          "challenger": "Address of the challenger.",
          "outputIndex": "Index of the L2 checkpoint output.",
          "timestamp": "The timestamp when created."
        }
      },
      "ChallengeDismissed(uint256,address,uint256)": {
        "params": {
          "challenger": "Address of the challenger.",
          "outputIndex": "Index of the L2 checkpoint output.",
          "timestamp": "The timestamp when dismissed."
        }
      },
      "ChallengerTimedOut(uint256,address,uint256)": {
        "params": {
          "challenger": "Address of the challenger.",
          "outputIndex": "Index of the L2 checkpoint output.",
          "timestamp": "The timestamp when deleted."
        }
      },
      "OutputForceDeleted(uint256,address,uint256)": {
        "params": {
          "asseter": "Address of the asseter.",
          "outputIndex": "Index of the L2 checkpoint output.",
          "timestamp": "The timestamp when output deleted."
        }
      },
      "Proven(uint256,address,uint256)": {
        "params": {
          "challenger": "Address of the challenger.",
          "outputIndex": "Index of the L2 checkpoint output.",
          "timestamp": "The timestamp when proven."
        }
      },
      "ReadyToProve(uint256,address)": {
        "params": {
          "challenger": "Address of the challenger.",
          "outputIndex": "Index of the L2 checkpoint output."
        }
      }
    }
  },
  "userdoc": {
    "version": 1,
    "kind": "user",
    "methods": {
      "BISECTION_TIMEOUT()": {
        "notice": "Timeout seconds for the bisection."
      },
      "CREATION_PERIOD_SECONDS()": {
        "notice": "The period seconds for which challenges can be created per each output."
      },
      "DUMMY_HASH()": {
        "notice": "The dummy transaction hash. This is used to pad if the         number of transactions is less than MAX_TXS. This is same as:         unsignedTx = {           nonce: 0,           gasLimit: 0,           gasPrice: 0,           to: address(0),           value: 0,           data: '0x',           chainId: CHAIN_ID,         }         signature = sign(unsignedTx, 0x1)         dummyHash = keccak256(rlp({           ...unsignedTx,           signature,         }))"
      },
      "L2_ORACLE()": {
        "notice": "Address of the L2OutputOracle."
      },
      "L2_ORACLE_SUBMISSION_INTERVAL()": {
        "notice": "The interval in L2 blocks at which checkpoints must be         submitted on L2OutputOracle contract."
      },
      "MAX_TXS()": {
        "notice": "The maximum number of transactions"
      },
      "PROVING_TIMEOUT()": {
        "notice": "Timeout seconds for the proving."
      },
      "SECURITY_COUNCIL()": {
        "notice": "Address that has the ability to approve the challenge."
      },
      "ZK_MERKLE_TRIE()": {
        "notice": "Address that has the ability to verify the merkle proof."
      },
      "ZK_VERIFIER()": {
        "notice": "Address of the ZKVerifier."
      },
      "bisect(uint256,address,uint256,bytes32[])": {
        "notice": "Selects an invalid section and submit segments of that section."
      },
      "cancelChallenge(uint256)": {
        "notice": "Cancels the challenge.         Reverts if is not possible to cancel the sender's challenge for the given output index."
      },
      "challengerTimeout(uint256,address)": {
        "notice": "Calls a private function that deletes the challenge because the challenger has timed out.         Reverts if the challenger hasn't timed out."
      },
      "challenges(uint256,address)": {
        "notice": "A mapping of the challenge."
      },
      "constructor": {
        "notice": "Constructs the Colosseum contract."
      },
      "createChallenge(uint256,bytes32,uint256,bytes32[])": {
        "notice": "Creates a challenge against an invalid output."
      },
      "deletedOutputs(uint256)": {
        "notice": "A mapping of deleted output index to the deleted output."
      },
      "dismissChallenge(uint256,address,address,bytes32,bytes32)": {
        "notice": "Dismisses the challenge and rollback l2 output.         This function can only be called by Security Council contract."
      },
      "forceDeleteOutput(uint256)": {
        "notice": "Deletes the L2 output root forcefully by the Security Council         when zk-proving is not possible due to an undeniable bug."
      },
      "getSegments(uint256,address)": {
        "notice": "Returns the challenge segments corresponding to the given L2 output index and challenger."
      },
      "getStatus(uint256,address)": {
        "notice": "Returns the challenge status corresponding to the given L2 output index."
      },
      "initialize(uint256[])": {
        "notice": "Initializer."
      },
      "isInCreationPeriod(uint256)": {
        "notice": "Determines whether current timestamp is in challenge creation period corresponding to the given L2 output index."
      },
      "proveFault(uint256,uint256,((bytes32,bytes32,bytes32,bytes32,bytes32),(bytes32,bytes32,bytes32,bytes32,bytes32),(bytes32,bytes32,uint64,uint64,uint64,uint256,bytes32,bytes32,bytes32,bytes32[],uint64,uint64,bytes32),(bytes,bytes,bytes,bytes,bytes,bytes,bytes,bytes,bytes),bytes32,bytes32,bytes[]),uint256[],uint256[])": {
        "notice": "Proves that a specific output is invalid using ZKP.         This function can only be called in the READY_TO_PROVE and ASSERTER_TIMEOUT states."
      },
      "segmentsLengths(uint256)": {
        "notice": "Length of segment array for each turn."
      },
      "verifiedPublicInputs(bytes32)": {
        "notice": "A mapping indicating whether a public input is verified or not."
      },
      "version()": {
        "notice": "Semantic version."
      }
    },
    "events": {
      "Bisected(uint256,address,uint8,uint256)": {
        "notice": "Emitted when segments are bisected."
      },
      "ChallengeCanceled(uint256,address,uint256)": {
        "notice": "Emitted when challenge is canceled."
      },
      "ChallengeCreated(uint256,address,address,uint256)": {
        "notice": "Emitted when the challenge is created."
      },
      "ChallengeDismissed(uint256,address,uint256)": {
        "notice": "Emitted when challenge is dismissed."
      },
      "ChallengerTimedOut(uint256,address,uint256)": {
        "notice": "Emitted when challenger timed out."
      },
      "OutputForceDeleted(uint256,address,uint256)": {
        "notice": "Emitted when challenge is deleted forcefully."
      },
      "Proven(uint256,address,uint256)": {
        "notice": "Emitted when proven fault."
      },
      "ReadyToProve(uint256,address)": {
        "notice": "Emitted when it is ready to be proved."
      }
    },
    "errors": {
      "BlockHashMismatched()": [
        {
          "notice": "Reverts when the block hash is mismatched."
        }
      ],
      "BlockHashMismatchedBtwSrcAndDst()": [
        {
          "notice": "Reverts when the block hash is mismatched between source and destination output root         proof."
        }
      ],
      "CannotCancelChallenge()": [
        {
          "notice": "Reverts when challenge cannot be cancelled."
        }
      ],
      "CreationPeriodPassed()": [
        {
          "notice": "Reverts when the creation period is already passed."
        }
      ],
      "FirstSegmentMismatched()": [
        {
          "notice": "Reverts when the first segment is mismatched."
        }
      ],
      "ImproperChallengeStatus()": [
        {
          "notice": "Reverts when the status of challenge is improper."
        }
      ],
      "ImproperChallengeStatusToCancel()": [
        {
          "notice": "Reverts when the status of challenge is improper to cancel challenge."
        }
      ],
      "ImproperValidatorStatus()": [
        {
          "notice": "Reverts when the status of validator is improper."
        }
      ],
      "InvalidAddressGiven()": [
        {
          "notice": "Reverts when given address is invalid."
        }
      ],
      "InvalidInclusionProof()": [
        {
          "notice": "Reverts when the inclusion proof is invalid."
        }
      ],
      "InvalidOutputGiven()": [
        {
          "notice": "Reverts when given output is invalid."
        }
      ],
      "InvalidPublicInput()": [
        {
          "notice": "Reverts when the public input is invalid."
        }
      ],
      "InvalidSegmentsLength()": [
        {
          "notice": "Reverts when segments length is invalid."
        }
      ],
      "InvalidTurn()": [
        {
          "notice": "Reverts when turn is invalid."
        }
      ],
      "InvalidZKProof()": [
        {
          "notice": "Reverts when the ZK proof is invalid."
        }
      ],
      "L1Reorged()": [
        {
          "notice": "Reverts when L1 is reorged."
        }
      ],
      "LastSegmentMatched()": [
        {
          "notice": "Reverts when the last segment is matched."
        }
      ],
      "NotAllowedCaller()": [
        {
          "notice": "Reverts when caller is not allowed."
        }
      ],
      "NotAllowedGenesisOutput()": [
        {
          "notice": "Reverts when output is genesis output."
        }
      ],
      "OnlyChallengerCanCancel()": [
        {
          "notice": "Reverts when a non-challenger calls cancel challenge."
        }
      ],
      "OutputAlreadyDeleted()": [
        {
          "notice": "Reverts when output is already deleted."
        }
      ],
      "OutputAlreadyFinalized()": [
        {
          "notice": "Reverts when output is already finalized."
        }
      ],
      "OutputNotDeleted()": [
        {
          "notice": "Reverts when output is not deleted."
        }
      ],
      "StateRootMismatched()": [
        {
          "notice": "Reverts when the state root is mismatched."
        }
      ]
    }
  },
  "storageLayout": {
    "storage": [
      {
        "astId": 97636,
        "contract": "contracts/L1/Colosseum.sol:Colosseum",
        "label": "_initialized",
        "offset": 0,
        "slot": "0",
        "type": "t_uint8"
      },
      {
        "astId": 97639,
        "contract": "contracts/L1/Colosseum.sol:Colosseum",
        "label": "_initializing",
        "offset": 1,
        "slot": "0",
        "type": "t_bool"
      },
      {
        "astId": 2164,
        "contract": "contracts/L1/Colosseum.sol:Colosseum",
        "label": "segmentsLengths",
        "offset": 0,
        "slot": "1",
        "type": "t_mapping(t_uint256,t_uint256)"
      },
      {
        "astId": 2172,
        "contract": "contracts/L1/Colosseum.sol:Colosseum",
        "label": "challenges",
        "offset": 0,
        "slot": "2",
        "type": "t_mapping(t_uint256,t_mapping(t_address,t_struct(Challenge)24539_storage))"
      },
      {
        "astId": 2177,
        "contract": "contracts/L1/Colosseum.sol:Colosseum",
        "label": "verifiedPublicInputs",
        "offset": 0,
        "slot": "3",
        "type": "t_mapping(t_bytes32,t_bool)"
      },
      {
        "astId": 2183,
        "contract": "contracts/L1/Colosseum.sol:Colosseum",
        "label": "deletedOutputs",
        "offset": 0,
        "slot": "4",
        "type": "t_mapping(t_uint256,t_struct(CheckpointOutput)24433_storage)"
      }
    ],
    "types": {
      "t_address": {
        "encoding": "inplace",
        "label": "address",
        "numberOfBytes": "20"
      },
      "t_array(t_bytes32)dyn_storage": {
        "encoding": "dynamic_array",
        "label": "bytes32[]",
        "numberOfBytes": "32",
        "base": "t_bytes32"
      },
      "t_bool": {
        "encoding": "inplace",
        "label": "bool",
        "numberOfBytes": "1"
      },
      "t_bytes32": {
        "encoding": "inplace",
        "label": "bytes32",
        "numberOfBytes": "32"
      },
      "t_mapping(t_address,t_struct(Challenge)24539_storage)": {
        "encoding": "mapping",
        "key": "t_address",
        "label": "mapping(address => struct Types.Challenge)",
        "numberOfBytes": "32",
        "value": "t_struct(Challenge)24539_storage"
      },
      "t_mapping(t_bytes32,t_bool)": {
        "encoding": "mapping",
        "key": "t_bytes32",
        "label": "mapping(bytes32 => bool)",
        "numberOfBytes": "32",
        "value": "t_bool"
      },
      "t_mapping(t_uint256,t_mapping(t_address,t_struct(Challenge)24539_storage))": {
        "encoding": "mapping",
        "key": "t_uint256",
        "label": "mapping(uint256 => mapping(address => struct Types.Challenge))",
        "numberOfBytes": "32",
        "value": "t_mapping(t_address,t_struct(Challenge)24539_storage)"
      },
      "t_mapping(t_uint256,t_struct(CheckpointOutput)24433_storage)": {
        "encoding": "mapping",
        "key": "t_uint256",
        "label": "mapping(uint256 => struct Types.CheckpointOutput)",
        "numberOfBytes": "32",
        "value": "t_struct(CheckpointOutput)24433_storage"
      },
      "t_mapping(t_uint256,t_uint256)": {
        "encoding": "mapping",
        "key": "t_uint256",
        "label": "mapping(uint256 => uint256)",
        "numberOfBytes": "32",
        "value": "t_uint256"
      },
      "t_struct(Challenge)24539_storage": {
        "encoding": "inplace",
        "label": "struct Types.Challenge",
        "numberOfBytes": "160",
        "members": [
          {
            "astId": 24525,
            "contract": "contracts/L1/Colosseum.sol:Colosseum",
            "label": "turn",
            "offset": 0,
            "slot": "0",
            "type": "t_uint8"
          },
          {
            "astId": 24527,
            "contract": "contracts/L1/Colosseum.sol:Colosseum",
            "label": "timeoutAt",
            "offset": 1,
            "slot": "0",
            "type": "t_uint64"
          },
          {
            "astId": 24529,
            "contract": "contracts/L1/Colosseum.sol:Colosseum",
            "label": "asserter",
            "offset": 9,
            "slot": "0",
            "type": "t_address"
          },
          {
            "astId": 24531,
            "contract": "contracts/L1/Colosseum.sol:Colosseum",
            "label": "challenger",
            "offset": 0,
            "slot": "1",
            "type": "t_address"
          },
          {
            "astId": 24534,
            "contract": "contracts/L1/Colosseum.sol:Colosseum",
            "label": "segments",
            "offset": 0,
            "slot": "2",
            "type": "t_array(t_bytes32)dyn_storage"
          },
          {
            "astId": 24536,
            "contract": "contracts/L1/Colosseum.sol:Colosseum",
            "label": "segSize",
            "offset": 0,
            "slot": "3",
            "type": "t_uint256"
          },
          {
            "astId": 24538,
            "contract": "contracts/L1/Colosseum.sol:Colosseum",
            "label": "segStart",
            "offset": 0,
            "slot": "4",
            "type": "t_uint256"
          }
        ]
      },
      "t_struct(CheckpointOutput)24433_storage": {
        "encoding": "inplace",
        "label": "struct Types.CheckpointOutput",
        "numberOfBytes": "96",
        "members": [
          {
            "astId": 24426,
            "contract": "contracts/L1/Colosseum.sol:Colosseum",
            "label": "submitter",
            "offset": 0,
            "slot": "0",
            "type": "t_address"
          },
          {
            "astId": 24428,
            "contract": "contracts/L1/Colosseum.sol:Colosseum",
            "label": "outputRoot",
            "offset": 0,
            "slot": "1",
            "type": "t_bytes32"
          },
          {
            "astId": 24430,
            "contract": "contracts/L1/Colosseum.sol:Colosseum",
            "label": "timestamp",
            "offset": 0,
            "slot": "2",
            "type": "t_uint128"
          },
          {
            "astId": 24432,
            "contract": "contracts/L1/Colosseum.sol:Colosseum",
            "label": "l2BlockNumber",
            "offset": 16,
            "slot": "2",
            "type": "t_uint128"
          }
        ]
      },
      "t_uint128": {
        "encoding": "inplace",
        "label": "uint128",
        "numberOfBytes": "16"
      },
      "t_uint256": {
        "encoding": "inplace",
        "label": "uint256",
        "numberOfBytes": "32"
      },
      "t_uint64": {
        "encoding": "inplace",
        "label": "uint64",
        "numberOfBytes": "8"
      },
      "t_uint8": {
        "encoding": "inplace",
        "label": "uint8",
        "numberOfBytes": "1"
      }
    }
  }
}