{
  "address": "0xb87eaB624EE684C1799f1E8b24936A1c90759eEc",
  "abi": [
    {
      "type": "constructor",
      "inputs": [
        {
          "name": "_l2Oracle",
          "type": "address",
          "internalType": "contract L2OutputOracle"
        },
        {
          "name": "_zkVerifier",
          "type": "address",
          "internalType": "contract ZKVerifier"
        },
        {
          "name": "_submissionInterval",
          "type": "uint256",
          "internalType": "uint256"
        },
        {
          "name": "_creationPeriodSeconds",
          "type": "uint256",
          "internalType": "uint256"
        },
        {
          "name": "_bisectionTimeout",
          "type": "uint256",
          "internalType": "uint256"
        },
        {
          "name": "_provingTimeout",
          "type": "uint256",
          "internalType": "uint256"
        },
        {
          "name": "_dummyHash",
          "type": "bytes32",
          "internalType": "bytes32"
        },
        {
          "name": "_maxTxs",
          "type": "uint256",
          "internalType": "uint256"
        },
        {
          "name": "_segmentsLengths",
          "type": "uint256[]",
          "internalType": "uint256[]"
        },
        {
          "name": "_securityCouncil",
          "type": "address",
          "internalType": "address"
        },
        {
          "name": "_zkMerkleTrie",
          "type": "address",
          "internalType": "address"
        }
      ],
      "stateMutability": "nonpayable"
    },
    {
      "type": "function",
      "name": "BISECTION_TIMEOUT",
      "inputs": [],
      "outputs": [
        {
          "name": "",
          "type": "uint256",
          "internalType": "uint256"
        }
      ],
      "stateMutability": "view"
    },
    {
      "type": "function",
      "name": "CREATION_PERIOD_SECONDS",
      "inputs": [],
      "outputs": [
        {
          "name": "",
          "type": "uint256",
          "internalType": "uint256"
        }
      ],
      "stateMutability": "view"
    },
    {
      "type": "function",
      "name": "DUMMY_HASH",
      "inputs": [],
      "outputs": [
        {
          "name": "",
          "type": "bytes32",
          "internalType": "bytes32"
        }
      ],
      "stateMutability": "view"
    },
    {
      "type": "function",
      "name": "L2_ORACLE",
      "inputs": [],
      "outputs": [
        {
          "name": "",
          "type": "address",
          "internalType": "contract L2OutputOracle"
        }
      ],
      "stateMutability": "view"
    },
    {
      "type": "function",
      "name": "L2_ORACLE_SUBMISSION_INTERVAL",
      "inputs": [],
      "outputs": [
        {
          "name": "",
          "type": "uint256",
          "internalType": "uint256"
        }
      ],
      "stateMutability": "view"
    },
    {
      "type": "function",
      "name": "MAX_TXS",
      "inputs": [],
      "outputs": [
        {
          "name": "",
          "type": "uint256",
          "internalType": "uint256"
        }
      ],
      "stateMutability": "view"
    },
    {
      "type": "function",
      "name": "PROVING_TIMEOUT",
      "inputs": [],
      "outputs": [
        {
          "name": "",
          "type": "uint256",
          "internalType": "uint256"
        }
      ],
      "stateMutability": "view"
    },
    {
      "type": "function",
      "name": "SECURITY_COUNCIL",
      "inputs": [],
      "outputs": [
        {
          "name": "",
          "type": "address",
          "internalType": "address"
        }
      ],
      "stateMutability": "view"
    },
    {
      "type": "function",
      "name": "ZK_MERKLE_TRIE",
      "inputs": [],
      "outputs": [
        {
          "name": "",
          "type": "address",
          "internalType": "address"
        }
      ],
      "stateMutability": "view"
    },
    {
      "type": "function",
      "name": "ZK_VERIFIER",
      "inputs": [],
      "outputs": [
        {
          "name": "",
          "type": "address",
          "internalType": "contract ZKVerifier"
        }
      ],
      "stateMutability": "view"
    },
    {
      "type": "function",
      "name": "bisect",
      "inputs": [
        {
          "name": "_outputIndex",
          "type": "uint256",
          "internalType": "uint256"
        },
        {
          "name": "_challenger",
          "type": "address",
          "internalType": "address"
        },
        {
          "name": "_pos",
          "type": "uint256",
          "internalType": "uint256"
        },
        {
          "name": "_segments",
          "type": "bytes32[]",
          "internalType": "bytes32[]"
        }
      ],
      "outputs": [],
      "stateMutability": "nonpayable"
    },
    {
      "type": "function",
      "name": "cancelChallenge",
      "inputs": [
        {
          "name": "_outputIndex",
          "type": "uint256",
          "internalType": "uint256"
        }
      ],
      "outputs": [],
      "stateMutability": "nonpayable"
    },
    {
      "type": "function",
      "name": "challengerTimeout",
      "inputs": [
        {
          "name": "_outputIndex",
          "type": "uint256",
          "internalType": "uint256"
        },
        {
          "name": "_challenger",
          "type": "address",
          "internalType": "address"
        }
      ],
      "outputs": [],
      "stateMutability": "nonpayable"
    },
    {
      "type": "function",
      "name": "challenges",
      "inputs": [
        {
          "name": "",
          "type": "uint256",
          "internalType": "uint256"
        },
        {
          "name": "",
          "type": "address",
          "internalType": "address"
        }
      ],
      "outputs": [
        {
          "name": "turn",
          "type": "uint8",
          "internalType": "uint8"
        },
        {
          "name": "timeoutAt",
          "type": "uint64",
          "internalType": "uint64"
        },
        {
          "name": "asserter",
          "type": "address",
          "internalType": "address"
        },
        {
          "name": "challenger",
          "type": "address",
          "internalType": "address"
        },
        {
          "name": "segSize",
          "type": "uint256",
          "internalType": "uint256"
        },
        {
          "name": "segStart",
          "type": "uint256",
          "internalType": "uint256"
        }
      ],
      "stateMutability": "view"
    },
    {
      "type": "function",
      "name": "createChallenge",
      "inputs": [
        {
          "name": "_outputIndex",
          "type": "uint256",
          "internalType": "uint256"
        },
        {
          "name": "_l1BlockHash",
          "type": "bytes32",
          "internalType": "bytes32"
        },
        {
          "name": "_l1BlockNumber",
          "type": "uint256",
          "internalType": "uint256"
        },
        {
          "name": "_segments",
          "type": "bytes32[]",
          "internalType": "bytes32[]"
        }
      ],
      "outputs": [],
      "stateMutability": "nonpayable"
    },
    {
      "type": "function",
      "name": "dismissChallenge",
      "inputs": [
        {
          "name": "_outputIndex",
          "type": "uint256",
          "internalType": "uint256"
        },
        {
          "name": "_challenger",
          "type": "address",
          "internalType": "address"
        },
        {
          "name": "_asserter",
          "type": "address",
          "internalType": "address"
        },
        {
          "name": "_outputRoot",
          "type": "bytes32",
          "internalType": "bytes32"
        },
        {
          "name": "_publicInputHash",
          "type": "bytes32",
          "internalType": "bytes32"
        }
      ],
      "outputs": [],
      "stateMutability": "nonpayable"
    },
    {
      "type": "function",
      "name": "forceDeleteOutput",
      "inputs": [
        {
          "name": "_outputIndex",
          "type": "uint256",
          "internalType": "uint256"
        }
      ],
      "outputs": [],
      "stateMutability": "nonpayable"
    },
    {
      "type": "function",
      "name": "getChallenge",
      "inputs": [
        {
          "name": "_outputIndex",
          "type": "uint256",
          "internalType": "uint256"
        },
        {
          "name": "_challenger",
          "type": "address",
          "internalType": "address"
        }
      ],
      "outputs": [
        {
          "name": "",
          "type": "tuple",
          "internalType": "struct Types.Challenge",
          "components": [
            {
              "name": "turn",
              "type": "uint8",
              "internalType": "uint8"
            },
            {
              "name": "timeoutAt",
              "type": "uint64",
              "internalType": "uint64"
            },
            {
              "name": "asserter",
              "type": "address",
              "internalType": "address"
            },
            {
              "name": "challenger",
              "type": "address",
              "internalType": "address"
            },
            {
              "name": "segments",
              "type": "bytes32[]",
              "internalType": "bytes32[]"
            },
            {
              "name": "segSize",
              "type": "uint256",
              "internalType": "uint256"
            },
            {
              "name": "segStart",
              "type": "uint256",
              "internalType": "uint256"
            }
          ]
        }
      ],
      "stateMutability": "view"
    },
    {
      "type": "function",
      "name": "getSegmentsLength",
      "inputs": [
        {
          "name": "_turn",
          "type": "uint8",
          "internalType": "uint8"
        }
      ],
      "outputs": [
        {
          "name": "",
          "type": "uint256",
          "internalType": "uint256"
        }
      ],
      "stateMutability": "view"
    },
    {
      "type": "function",
      "name": "getStatus",
      "inputs": [
        {
          "name": "_outputIndex",
          "type": "uint256",
          "internalType": "uint256"
        },
        {
          "name": "_challenger",
          "type": "address",
          "internalType": "address"
        }
      ],
      "outputs": [
        {
          "name": "",
          "type": "uint8",
          "internalType": "enum Colosseum.ChallengeStatus"
        }
      ],
      "stateMutability": "view"
    },
    {
      "type": "function",
      "name": "initialize",
      "inputs": [
        {
          "name": "_segmentsLengths",
          "type": "uint256[]",
          "internalType": "uint256[]"
        }
      ],
      "outputs": [],
      "stateMutability": "nonpayable"
    },
    {
      "type": "function",
      "name": "isAbleToBisect",
      "inputs": [
        {
          "name": "_outputIndex",
          "type": "uint256",
          "internalType": "uint256"
        },
        {
          "name": "_challenger",
          "type": "address",
          "internalType": "address"
        }
      ],
      "outputs": [
        {
          "name": "",
          "type": "bool",
          "internalType": "bool"
        }
      ],
      "stateMutability": "view"
    },
    {
      "type": "function",
      "name": "isInCreationPeriod",
      "inputs": [
        {
          "name": "_outputIndex",
          "type": "uint256",
          "internalType": "uint256"
        }
      ],
      "outputs": [
        {
          "name": "",
          "type": "bool",
          "internalType": "bool"
        }
      ],
      "stateMutability": "view"
    },
    {
      "type": "function",
      "name": "proveFault",
      "inputs": [
        {
          "name": "_outputIndex",
          "type": "uint256",
          "internalType": "uint256"
        },
        {
          "name": "_pos",
          "type": "uint256",
          "internalType": "uint256"
        },
        {
          "name": "_proof",
          "type": "tuple",
          "internalType": "struct Types.PublicInputProof",
          "components": [
            {
              "name": "srcOutputRootProof",
              "type": "tuple",
              "internalType": "struct Types.OutputRootProof",
              "components": [
                {
                  "name": "version",
                  "type": "bytes32",
                  "internalType": "bytes32"
                },
                {
                  "name": "stateRoot",
                  "type": "bytes32",
                  "internalType": "bytes32"
                },
                {
                  "name": "messagePasserStorageRoot",
                  "type": "bytes32",
                  "internalType": "bytes32"
                },
                {
                  "name": "blockHash",
                  "type": "bytes32",
                  "internalType": "bytes32"
                },
                {
                  "name": "nextBlockHash",
                  "type": "bytes32",
                  "internalType": "bytes32"
                }
              ]
            },
            {
              "name": "dstOutputRootProof",
              "type": "tuple",
              "internalType": "struct Types.OutputRootProof",
              "components": [
                {
                  "name": "version",
                  "type": "bytes32",
                  "internalType": "bytes32"
                },
                {
                  "name": "stateRoot",
                  "type": "bytes32",
                  "internalType": "bytes32"
                },
                {
                  "name": "messagePasserStorageRoot",
                  "type": "bytes32",
                  "internalType": "bytes32"
                },
                {
                  "name": "blockHash",
                  "type": "bytes32",
                  "internalType": "bytes32"
                },
                {
                  "name": "nextBlockHash",
                  "type": "bytes32",
                  "internalType": "bytes32"
                }
              ]
            },
            {
              "name": "publicInput",
              "type": "tuple",
              "internalType": "struct Types.PublicInput",
              "components": [
                {
                  "name": "blockHash",
                  "type": "bytes32",
                  "internalType": "bytes32"
                },
                {
                  "name": "parentHash",
                  "type": "bytes32",
                  "internalType": "bytes32"
                },
                {
                  "name": "timestamp",
                  "type": "uint64",
                  "internalType": "uint64"
                },
                {
                  "name": "number",
                  "type": "uint64",
                  "internalType": "uint64"
                },
                {
                  "name": "gasLimit",
                  "type": "uint64",
                  "internalType": "uint64"
                },
                {
                  "name": "baseFee",
                  "type": "uint256",
                  "internalType": "uint256"
                },
                {
                  "name": "transactionsRoot",
                  "type": "bytes32",
                  "internalType": "bytes32"
                },
                {
                  "name": "stateRoot",
                  "type": "bytes32",
                  "internalType": "bytes32"
                },
                {
                  "name": "withdrawalsRoot",
                  "type": "bytes32",
                  "internalType": "bytes32"
                },
                {
                  "name": "txHashes",
                  "type": "bytes32[]",
                  "internalType": "bytes32[]"
                },
                {
                  "name": "blobGasUsed",
                  "type": "uint64",
                  "internalType": "uint64"
                },
                {
                  "name": "excessBlobGas",
                  "type": "uint64",
                  "internalType": "uint64"
                },
                {
                  "name": "parentBeaconRoot",
                  "type": "bytes32",
                  "internalType": "bytes32"
                }
              ]
            },
            {
              "name": "rlps",
              "type": "tuple",
              "internalType": "struct Types.BlockHeaderRLP",
              "components": [
                {
                  "name": "uncleHash",
                  "type": "bytes",
                  "internalType": "bytes"
                },
                {
                  "name": "coinbase",
                  "type": "bytes",
                  "internalType": "bytes"
                },
                {
                  "name": "receiptsRoot",
                  "type": "bytes",
                  "internalType": "bytes"
                },
                {
                  "name": "logsBloom",
                  "type": "bytes",
                  "internalType": "bytes"
                },
                {
                  "name": "difficulty",
                  "type": "bytes",
                  "internalType": "bytes"
                },
                {
                  "name": "gasUsed",
                  "type": "bytes",
                  "internalType": "bytes"
                },
                {
                  "name": "extraData",
                  "type": "bytes",
                  "internalType": "bytes"
                },
                {
                  "name": "mixHash",
                  "type": "bytes",
                  "internalType": "bytes"
                },
                {
                  "name": "nonce",
                  "type": "bytes",
                  "internalType": "bytes"
                }
              ]
            },
            {
              "name": "l2ToL1MessagePasserBalance",
              "type": "bytes32",
              "internalType": "bytes32"
            },
            {
              "name": "l2ToL1MessagePasserCodeHash",
              "type": "bytes32",
              "internalType": "bytes32"
            },
            {
              "name": "merkleProof",
              "type": "bytes[]",
              "internalType": "bytes[]"
            }
          ]
        },
        {
          "name": "_zkproof",
          "type": "uint256[]",
          "internalType": "uint256[]"
        },
        {
          "name": "_pair",
          "type": "uint256[]",
          "internalType": "uint256[]"
        }
      ],
      "outputs": [],
      "stateMutability": "nonpayable"
    },
    {
      "type": "function",
      "name": "verifiedPublicInputs",
      "inputs": [
        {
          "name": "",
          "type": "bytes32",
          "internalType": "bytes32"
        }
      ],
      "outputs": [
        {
          "name": "",
          "type": "bool",
          "internalType": "bool"
        }
      ],
      "stateMutability": "view"
    },
    {
      "type": "function",
      "name": "version",
      "inputs": [],
      "outputs": [
        {
          "name": "",
          "type": "string",
          "internalType": "string"
        }
      ],
      "stateMutability": "view"
    },
    {
      "type": "event",
      "name": "Bisected",
      "inputs": [
        {
          "name": "outputIndex",
          "type": "uint256",
          "indexed": true,
          "internalType": "uint256"
        },
        {
          "name": "challenger",
          "type": "address",
          "indexed": true,
          "internalType": "address"
        },
        {
          "name": "turn",
          "type": "uint8",
          "indexed": false,
          "internalType": "uint8"
        },
        {
          "name": "timestamp",
          "type": "uint256",
          "indexed": false,
          "internalType": "uint256"
        }
      ],
      "anonymous": false
    },
    {
      "type": "event",
      "name": "ChallengeCanceled",
      "inputs": [
        {
          "name": "outputIndex",
          "type": "uint256",
          "indexed": true,
          "internalType": "uint256"
        },
        {
          "name": "challenger",
          "type": "address",
          "indexed": true,
          "internalType": "address"
        },
        {
          "name": "timestamp",
          "type": "uint256",
          "indexed": false,
          "internalType": "uint256"
        }
      ],
      "anonymous": false
    },
    {
      "type": "event",
      "name": "ChallengeCreated",
      "inputs": [
        {
          "name": "outputIndex",
          "type": "uint256",
          "indexed": true,
          "internalType": "uint256"
        },
        {
          "name": "asserter",
          "type": "address",
          "indexed": true,
          "internalType": "address"
        },
        {
          "name": "challenger",
          "type": "address",
          "indexed": true,
          "internalType": "address"
        },
        {
          "name": "timestamp",
          "type": "uint256",
          "indexed": false,
          "internalType": "uint256"
        }
      ],
      "anonymous": false
    },
    {
      "type": "event",
      "name": "ChallengeDismissed",
      "inputs": [
        {
          "name": "outputIndex",
          "type": "uint256",
          "indexed": true,
          "internalType": "uint256"
        },
        {
          "name": "challenger",
          "type": "address",
          "indexed": true,
          "internalType": "address"
        },
        {
          "name": "timestamp",
          "type": "uint256",
          "indexed": false,
          "internalType": "uint256"
        }
      ],
      "anonymous": false
    },
    {
      "type": "event",
      "name": "ChallengerTimedOut",
      "inputs": [
        {
          "name": "outputIndex",
          "type": "uint256",
          "indexed": true,
          "internalType": "uint256"
        },
        {
          "name": "challenger",
          "type": "address",
          "indexed": true,
          "internalType": "address"
        },
        {
          "name": "timestamp",
          "type": "uint256",
          "indexed": false,
          "internalType": "uint256"
        }
      ],
      "anonymous": false
    },
    {
      "type": "event",
      "name": "Initialized",
      "inputs": [
        {
          "name": "version",
          "type": "uint8",
          "indexed": false,
          "internalType": "uint8"
        }
      ],
      "anonymous": false
    },
    {
      "type": "event",
      "name": "Proven",
      "inputs": [
        {
          "name": "outputIndex",
          "type": "uint256",
          "indexed": true,
          "internalType": "uint256"
        },
        {
          "name": "challenger",
          "type": "address",
          "indexed": true,
          "internalType": "address"
        },
        {
          "name": "timestamp",
          "type": "uint256",
          "indexed": false,
          "internalType": "uint256"
        }
      ],
      "anonymous": false
    },
    {
      "type": "event",
      "name": "ReadyToProve",
      "inputs": [
        {
          "name": "outputIndex",
          "type": "uint256",
          "indexed": true,
          "internalType": "uint256"
        },
        {
          "name": "challenger",
          "type": "address",
          "indexed": true,
          "internalType": "address"
        }
      ],
      "anonymous": false
    }
  ],
  "transactionHash": "0x1fcfae179b0a88f4c3d9a9ef33f38397cecc1c1556d082f3e60860fd418d5611",
  "args": [
    "0x180c77aE51a9c505a43A2C7D81f8CE70cacb93A6",
    "0x6deb6a630D7b486c1C08d4016AEe3835a2F52Fa7",
    1800,
    518400,
    3600,
    28800,
    "0xedf1ae3da135c124658e215a9bf53477facb442a1dcd5a92388332cb6193237f",
    100,
    [
      "9",
      "6",
      "10",
      "6"
    ],
    "0x3de211088dF516da72efe68D386b561BEE256Ec4",
    "0x339208824010425cBE73201ceD4372308ACD610B"
  ],
  "numDeployments": 3,
  "solcInputHash": "7aa2ea4d6d2d79b52220665176bd238d",
  "bytecode": "0x6101c06040523480156200001257600080fd5b506040516200603e3803806200603e833981016040819052620000359162000427565b6001600160a01b03808c166080528a811660a05260c089905260e08890526101008790526101208a90526101408690526101608590528281166101805281166101a052620000838362000094565b505050505050505050505062000580565b600054610100900460ff1615808015620000b55750600054600160ff909116105b80620000e55750620000d230620001c860201b62002a001760201c565b158015620000e5575060005460ff166001145b6200014e5760405162461bcd60e51b815260206004820152602e60248201527f496e697469616c697a61626c653a20636f6e747261637420697320616c72656160448201526d191e481a5b9a5d1a585b1a5e995960921b60648201526084015b60405180910390fd5b6000805460ff19166001179055801562000172576000805461ff0019166101001790555b6200017d82620001d7565b8015620001c4576000805461ff0019169055604051600181527f7f26b83ff96e1f2b6a682f133852f6798a09c465da95921460cefb38474024989060200160405180910390a15b5050565b6001600160a01b03163b151590565b60028151620001e79190620004f5565b156200025c5760405162461bcd60e51b815260206004820152603a60248201527f436f6c6f737365756d3a206c656e677468206f66207365676d656e7473206c6560448201527f6e677468732063616e6e6f74206265206f6464206e756d626572000000000000606482015260840162000145565b600160005b8251811015620002e15782818151811062000280576200028062000518565b602002602001015160016000838152602001908152602001600020819055506001838281518110620002b657620002b662000518565b6020026020010151620002ca919062000544565b620002d690836200055e565b915060010162000261565b50610120518114620001c45760405162461bcd60e51b815260206004820152602360248201527f436f6c6f737365756d3a20696e76616c6964207365676d656e7473206c656e6760448201526274687360e81b606482015260840162000145565b6001600160a01b03811681146200035857600080fd5b50565b8051620003688162000342565b919050565b634e487b7160e01b600052604160045260246000fd5b600082601f8301126200039557600080fd5b815160206001600160401b0380831115620003b457620003b46200036d565b8260051b604051601f19603f83011681018181108482111715620003dc57620003dc6200036d565b604052938452858101830193838101925087851115620003fb57600080fd5b83870191505b848210156200041c5781518352918301919083019062000401565b979650505050505050565b60008060008060008060008060008060006101608c8e0312156200044a57600080fd5b8b51620004578162000342565b60208d0151909b506200046a8162000342565b809a505060408c0151985060608c0151975060808c0151965060a08c0151955060c08c0151945060e08c015193506101008c015160018060401b03811115620004b257600080fd5b620004c08e828f0162000383565b935050620004d26101208d016200035b565b9150620004e36101408d016200035b565b90509295989b509295989b9093969950565b6000826200051357634e487b7160e01b600052601260045260246000fd5b500690565b634e487b7160e01b600052603260045260246000fd5b634e487b7160e01b600052601160045260246000fd5b6000828210156200055957620005596200052e565b500390565b60008160001904831182151516156200057b576200057b6200052e565b500290565b60805160a05160c05160e05161010051610120516101405161016051610180516101a05161593862000706600039600081816103d501526138330152600081816102f60152818161076f0152818161129e01528181611bb90152611ee60152600081816103650152818161395101526139bf01526000818161051d015261398b0152600081816104cf015281816128dd015281816129160152612fe20152600081816104f601528181612a700152613c2001526000818161031d0152613c870152600081816104480152818161071b01526123f201526000818161046f0152610ff30152600081816101b7015281816106ab015281816108a701528181610a0b01528181610c5d0152818161112e01528181611432015281816114900152818161173e01528181611c7d01528181611dbb01528181611f0e015281816120d90152818161237a01528181612659015281816127a001528181612bf101528181612c9b01528181612d1201528181612dec015281816130b101526132f901526159386000f3fe608060405234801561001057600080fd5b50600436106101ad5760003560e01c8063887c560f116100ee578063cfb4474d11610097578063e39a219c11610071578063e39a219c1461053f578063e58932b314610552578063e9371a2c14610572578063fc9d84df1461059257600080fd5b8063cfb4474d146104ca578063d2ee3075146104f1578063d5145ebc1461051857600080fd5b8063a41483e3116100c8578063a41483e314610491578063a6ade11f146104a4578063b8b1a27c146104b757600080fd5b8063887c560f146104305780638f3a6c88146104435780639ded39521461046a57600080fd5b8063461569b81161015b5780635865b607116101355780635865b607146103d057806362fc00db146103f75780636fe0e5591461040a57806380ab13131461041d57600080fd5b8063461569b81461034d5780635375b8911461036057806354fd4d501461038757600080fd5b80632df27fa51161018c5780632df27fa51461023e57806336086417146102f15780634394c5841461031857600080fd5b80621c2ff6146101b25780631be4e27e146101f65780631db1b67214610229575b600080fd5b6101d97f000000000000000000000000000000000000000000000000000000000000000081565b6040516001600160a01b0390911681526020015b60405180910390f35b610219610204366004614878565b60036020526000908152604090205460ff1681565b60405190151581526020016101ed565b61023c6102373660046148a6565b6105a5565b005b6102aa61024c3660046148a6565b6002602090815260009283526040808420909152908252902080546001820154600383015460049093015460ff83169367ffffffffffffffff610100850416936001600160a01b036901000000000000000000909104811693169186565b6040805160ff909716875267ffffffffffffffff90951660208701526001600160a01b039384169486019490945291166060840152608083015260a082015260c0016101ed565b6101d97f000000000000000000000000000000000000000000000000000000000000000081565b61033f7f000000000000000000000000000000000000000000000000000000000000000081565b6040519081526020016101ed565b61021961035b366004614878565b61066f565b61033f7f000000000000000000000000000000000000000000000000000000000000000081565b6103c36040518060400160405280600581526020017f312e312e3000000000000000000000000000000000000000000000000000000081525081565b6040516101ed919061492e565b6101d97f000000000000000000000000000000000000000000000000000000000000000081565b61023c610405366004614941565b610764565b61023c610418366004614a65565b610ab2565b61023c61042b366004614b47565b610c2c565b61021961043e3660046148a6565b61159b565b61033f7f000000000000000000000000000000000000000000000000000000000000000081565b6101d97f000000000000000000000000000000000000000000000000000000000000000081565b61023c61049f366004614878565b6115d0565b61023c6104b2366004614bf8565b61170d565b61033f6104c5366004614c62565b611b31565b61033f7f000000000000000000000000000000000000000000000000000000000000000081565b61033f7f000000000000000000000000000000000000000000000000000000000000000081565b61033f7f000000000000000000000000000000000000000000000000000000000000000081565b61023c61054d366004614878565b611bae565b6105656105603660046148a6565b611f70565b6040516101ed9190614c85565b6105856105803660046148a6565b61207d565b6040516101ed9190614d64565b61023c6105a0366004614da5565b6120a8565b60008281526002602090815260408083206001600160a01b03851684529091528120906105d182612a0f565b905060038160058111156105e7576105e7614d35565b1461065f5760405162461bcd60e51b815260206004820152603c60248201527f436f6c6f737365756d3a2063616e206f6e6c792062652063616c6c656420696660448201527f20746865206368616c6c656e67657220697320696e2074696d6f75740000000060648201526084015b60405180910390fd5b6106698484612aec565b50505050565b6040517fa25ae5570000000000000000000000000000000000000000000000000000000081526004810182905260009081906001600160a01b037f0000000000000000000000000000000000000000000000000000000000000000169063a25ae55790602401608060405180830381865afa1580156106f2573d6000803e3d6000fd5b505050506040513d601f19601f820116820180604052508101906107169190614e09565b9050427f000000000000000000000000000000000000000000000000000000000000000082604001516fffffffffffffffffffffffffffffffff1661075b9190614eb0565b10159392505050565b336001600160a01b037f000000000000000000000000000000000000000000000000000000000000000016146108025760405162461bcd60e51b815260206004820152602d60248201527f436f6c6f737365756d3a2073656e646572206973206e6f74207468652073656360448201527f757269747920636f756e63696c000000000000000000000000000000000000006064820152608401610656565b816108755760405162461bcd60e51b815260206004820152602e60248201527f436f6c6f737365756d3a2063616e6e6f7420726f6c6c6261636b206f7574707560448201527f7420746f207a65726f20686173680000000000000000000000000000000000006064820152608401610656565b6040517fa25ae557000000000000000000000000000000000000000000000000000000008152600481018690526000907f00000000000000000000000000000000000000000000000000000000000000006001600160a01b03169063a25ae55790602401608060405180830381865afa1580156108f6573d6000803e3d6000fd5b505050506040513d601f19601f8201168201806040525081019061091a9190614e09565b60200151146109915760405162461bcd60e51b815260206004820152603b60248201527f436f6c6f737365756d3a206f6e6c792063616e20726f6c6c6261636b2069662060448201527f746865206f757470757420686173206265656e2064656c6574656400000000006064820152608401610656565b6000818152600360205260409081902080547fffffffffffffffffffffffffffffffffffffffffffffffffffffffffffffff00169055517fe664672300000000000000000000000000000000000000000000000000000000815260048101869052602481018390526001600160a01b0384811660448301527f0000000000000000000000000000000000000000000000000000000000000000169063e664672390606401600060405180830381600087803b158015610a4f57600080fd5b505af1158015610a63573d6000803e3d6000fd5b50505050836001600160a01b0316857fdca9fa9b51a5ba03938c6a0cd5489011630370fc481ef2b0cb771ad904a7305342604051610aa391815260200190565b60405180910390a35050505050565b600054610100900460ff1615808015610ad25750600054600160ff909116105b80610aec5750303b158015610aec575060005460ff166001145b610b5e5760405162461bcd60e51b815260206004820152602e60248201527f496e697469616c697a61626c653a20636f6e747261637420697320616c72656160448201527f647920696e697469616c697a65640000000000000000000000000000000000006064820152608401610656565b600080547fffffffffffffffffffffffffffffffffffffffffffffffffffffffffffffff001660011790558015610bbc57600080547fffffffffffffffffffffffffffffffffffffffffffffffffffffffffffff00ff166101001790555b610bc582612ee5565b8015610c2857600080547fffffffffffffffffffffffffffffffffffffffffffffffffffffffffffff00ff169055604051600181527f7f26b83ff96e1f2b6a682f133852f6798a09c465da95921460cefb38474024989060200160405180910390a15b5050565b6040517f33727c4d0000000000000000000000000000000000000000000000000000000081526004810188905287907f00000000000000000000000000000000000000000000000000000000000000006001600160a01b0316906333727c4d90602401602060405180830381865afa158015610cac573d6000803e3d6000fd5b505050506040513d601f19601f82011682018060405250810190610cd09190614ec8565b15610d695760405162461bcd60e51b815260206004820152604b60248201527f436f6c6f737365756d3a2063616e6e6f742070726f6772657373206368616c6c60448201527f656e67652070726f636573732061626f757420616c72656164792066696e616c60648201527f697a6564206f7574707574000000000000000000000000000000000000000000608482015260a401610656565b6000888152600260209081526040808320338452909152812090610d8c82612a0f565b6001830154909150610da9908b906001600160a01b031683613075565b15610db5575050611591565b6005816005811115610dc957610dc9614d35565b1480610de657506004816005811115610de457610de4614d35565b145b610e585760405162461bcd60e51b815260206004820152603a60248201527f436f6c6f737365756d3a20696d706f737369626c6520746f2070726f7665207460448201527f6865206661756c7420696e2063757272656e74207374617475730000000000006064820152608401610656565b6000610e71610e6c368b90038b018b614eea565b613406565b90506000610e8a610e6c368c90038c0160a08d01614eea565b9050610e9d8b8584848e60a081016134db565b610ec68a60a08101610eb3610140830183614f5a565b610ec16101608f018f614f98565b613697565b610ef8610ed76101c08c018c614fcc565b8c61018001358d6101a001358e60a001604001358f60a001602001356137db565b6000610f1560208c0135610f106101408e018e614f5a565b61394b565b60008181526003602052604090205490915060ff1615610fc35760405162461bcd60e51b815260206004820152604c60248201527f436f6c6f737365756d3a207075626c696320696e70757420746861742068617360448201527f20616c7265616479206265656e2076616c6964617465642063616e6e6f74206260648201527f65207573656420616761696e0000000000000000000000000000000000000000608482015260a401610656565b6040517f4292dc3e0000000000000000000000000000000000000000000000000000000081526001600160a01b037f00000000000000000000000000000000000000000000000000000000000000001690634292dc3e90611030908d908d908d908d908890600401615083565b602060405180830381865afa15801561104d573d6000803e3d6000fd5b505050506040513d601f19601f820116820180604052508101906110719190614ec8565b6110bd5760405162461bcd60e51b815260206004820152601860248201527f436f6c6f737365756d3a20696e76616c69642070726f6f6600000000000000006044820152606401610656565b60405142815233908e907f0431864ed2609170587bbc7c198abd8caee4c55943dfb16fd42ec6f59c91c5f79060200160405180910390a36040517fa25ae557000000000000000000000000000000000000000000000000000000008152600481018e90526000906001600160a01b037f0000000000000000000000000000000000000000000000000000000000000000169063a25ae55790602401608060405180830381865afa158015611175573d6000803e3d6000fd5b505050506040513d601f19601f820116820180604052508101906111999190614e09565b905060006362fc00db60e01b8f338960000160099054906101000a90046001600160a01b03168560200151876040516024016112039594939291909485526001600160a01b0393841660208601529190921660408401526060830191909152608082015260a00190565b60408051601f19818403018152918152602080830180517bffffffffffffffffffffffffffffffffffffffffffffffffffffffff167fffffffff000000000000000000000000000000000000000000000000000000009095169490941790935291840151606085015192517f080b91ee0000000000000000000000000000000000000000000000000000000081529193506001600160a01b037f0000000000000000000000000000000000000000000000000000000000000000169263080b91ee926112d592919086906004016150bd565b600060405180830381600087803b1580156112ef57600080fd5b505af1158015611303573d6000803e3d6000fd5b50505050505060016003600083815260200190815260200160002060006101000a81548160ff021916908315150217905550600260008e81526020019081526020016000206000336001600160a01b03166001600160a01b03168152602001908152602001600020600080820160006101000a81549060ff02191690556000820160016101000a81549067ffffffffffffffff02191690556000820160096101000a8154906001600160a01b0302191690556001820160006101000a8154906001600160a01b0302191690556002820160006113df91906147fa565b5060006003820181905560049182018190556040517fe66467230000000000000000000000000000000000000000000000000000000081529182018f905260248201523360448201526001600160a01b037f0000000000000000000000000000000000000000000000000000000000000000169063e664672390606401600060405180830381600087803b15801561147657600080fd5b505af115801561148a573d6000803e3d6000fd5b505050507f00000000000000000000000000000000000000000000000000000000000000006001600160a01b031663b98debbf6040518163ffffffff1660e01b8152600401602060405180830381865afa1580156114ec573d6000803e3d6000fd5b505050506040513d601f19601f8201168201806040525081019061151091906150f7565b6040517fdd215c5d000000000000000000000000000000000000000000000000000000008152600481018f90523360248201526001600160a01b03919091169063dd215c5d90604401600060405180830381600087803b15801561157357600080fd5b505af1158015611587573d6000803e3d6000fd5b5050505050505050505b5050505050505050565b60008281526002602090815260408083206001600160a01b038516845290915281206115c6816139fe565b9150505b92915050565b60008181526002602090815260408083203384529091528120906115f382612a0f565b9050600081600581111561160957611609614d35565b0361167c5760405162461bcd60e51b815260206004820152602760248201527f436f6c6f737365756d3a20746865206368616c6c656e676520646f6573206e6f60448201527f74206578697374000000000000000000000000000000000000000000000000006064820152608401610656565b60018201546116969084906001600160a01b031683613075565b6117085760405162461bcd60e51b815260206004820152602860248201527f436f6c6f737365756d3a206368616c6c656e67652063616e6e6f74206265206360448201527f616e63656c6c65640000000000000000000000000000000000000000000000006064820152608401610656565b505050565b6040517f33727c4d0000000000000000000000000000000000000000000000000000000081526004810186905285907f00000000000000000000000000000000000000000000000000000000000000006001600160a01b0316906333727c4d90602401602060405180830381865afa15801561178d573d6000803e3d6000fd5b505050506040513d601f19601f820116820180604052508101906117b19190614ec8565b1561184a5760405162461bcd60e51b815260206004820152604b60248201527f436f6c6f737365756d3a2063616e6e6f742070726f6772657373206368616c6c60448201527f656e67652070726f636573732061626f757420616c72656164792066696e616c60648201527f697a6564206f7574707574000000000000000000000000000000000000000000608482015260a401610656565b60008681526002602090815260408083206001600160a01b038916845290915281209061187682612a0f565b60018301549091506118939089906001600160a01b031683613075565b1561189f575050611b29565b600060018260058111156118b5576118b5614d35565b036118ce575060018201546001600160a01b0316611901565b60028260058111156118e2576118e2614d35565b0361190157508154690100000000000000000090046001600160a01b03165b336001600160a01b038216146119595760405162461bcd60e51b815260206004820152601860248201527f436f6c6f737365756d3a206e6f7420796f7572207475726e00000000000000006044820152606401610656565b825460009061196c9060ff166001615114565b90506119f781856002018a8154811061198757611987615139565b9060005260206000200154866002018b60016119a39190614eb0565b815481106119b3576119b3615139565b90600052602060002001548a8a80806020026020016040519081016040528093929190818152602001838360200280828437600092019190915250613a1292505050565b6000611a0285613bb8565b90506000611a10828b615168565b8660040154611a1f9190614eb0565b9050611a62868a8a80806020026020016040519081016040528093929190818152602001838360200280828437600092019190915250869250879150613be49050565b85547fffffffffffffffffffffffffffffffffffffffffffffffffffffffffffffff001660ff8416178655611a9686613c0e565b6040805160ff851681524260208201526001600160a01b038d16918e917fcadef6622777415b0589e491bdbf6baf11242f676f77055fd03bf1658c17a145910160405180910390a3611ae7866139fe565b611b22576040516001600160a01b038c16908d907f5c4528cbb38a169d24837617d3fd3d5c70a47769a4e9af6f384720b359b716c890600090a35b5050505050505b505050505050565b6000600160ff83161015611b875760405162461bcd60e51b815260206004820152601760248201527f436f6c6f737365756d3a20696e76616c6964207475726e0000000000000000006044820152606401610656565b60016000611b9582856151a5565b60ff168152602001908152602001600020549050919050565b336001600160a01b037f00000000000000000000000000000000000000000000000000000000000000001614611c4c5760405162461bcd60e51b815260206004820152602d60248201527f436f6c6f737365756d3a2073656e646572206973206e6f74207468652073656360448201527f757269747920636f756e63696c000000000000000000000000000000000000006064820152608401610656565b6040517f33727c4d0000000000000000000000000000000000000000000000000000000081526004810182905281907f00000000000000000000000000000000000000000000000000000000000000006001600160a01b0316906333727c4d90602401602060405180830381865afa158015611ccc573d6000803e3d6000fd5b505050506040513d601f19601f82011682018060405250810190611cf09190614ec8565b15611d895760405162461bcd60e51b815260206004820152604b60248201527f436f6c6f737365756d3a2063616e6e6f742070726f6772657373206368616c6c60448201527f656e67652070726f636573732061626f757420616c72656164792066696e616c60648201527f697a6564206f7574707574000000000000000000000000000000000000000000608482015260a401610656565b6040517fa25ae557000000000000000000000000000000000000000000000000000000008152600481018390526000907f00000000000000000000000000000000000000000000000000000000000000006001600160a01b03169063a25ae55790602401608060405180830381865afa158015611e0a573d6000803e3d6000fd5b505050506040513d601f19601f82011682018060405250810190611e2e9190614e09565b6020810151909150611ea85760405162461bcd60e51b815260206004820152602e60248201527f436f6c6f737365756d3a20746865206f75747075742068617320616c7265616460448201527f79206265656e2064656c657465640000000000000000000000000000000000006064820152608401610656565b6040517fe664672300000000000000000000000000000000000000000000000000000000815260048101849052600060248201526001600160a01b037f0000000000000000000000000000000000000000000000000000000000000000811660448301527f0000000000000000000000000000000000000000000000000000000000000000169063e6646723906064015b600060405180830381600087803b158015611f5357600080fd5b505af1158015611f67573d6000803e3d6000fd5b50505050505050565b6040805160e0810182526000808252602082018190529181018290526060808201839052608082015260a0810182905260c081019190915260008381526002602081815260408084206001600160a01b03808816865290835293819020815160e081018352815460ff8116825267ffffffffffffffff6101008204168286015269010000000000000000009004861681840152600182015490951660608601529283018054825181850281018501909352808352608086019383018282801561205857602002820191906000526020600020905b815481526020019060010190808311612044575b5050505050815260200160038201548152602001600482015481525050905092915050565b60008281526002602090815260408083206001600160a01b038516845290915281206115c681612a0f565b6040517f33727c4d0000000000000000000000000000000000000000000000000000000081526004810186905285907f00000000000000000000000000000000000000000000000000000000000000006001600160a01b0316906333727c4d90602401602060405180830381865afa158015612128573d6000803e3d6000fd5b505050506040513d601f19601f8201168201806040525081019061214c9190614ec8565b156121e55760405162461bcd60e51b815260206004820152604b60248201527f436f6c6f737365756d3a2063616e6e6f742070726f6772657373206368616c6c60448201527f656e67652070726f636573732061626f757420616c72656164792066696e616c60648201527f697a6564206f7574707574000000000000000000000000000000000000000000608482015260a401610656565b6000861161225b5760405162461bcd60e51b815260206004820152603660248201527f436f6c6f737365756d3a206368616c6c656e676520666f722067656e6573697360448201527f206f7574707574206973206e6f7420616c6c6f776564000000000000000000006064820152608401610656565b600086815260026020908152604080832033845290915290208054600160ff9091161061234857600061228d82612a0f565b905060038160058111156122a3576122a3614d35565b1461233c5760405162461bcd60e51b815260206004820152604660248201527f436f6c6f737365756d3a20746865206368616c6c656e676520666f722067697660448201527f656e206f757470757420696e64657820697320616c726561647920696e20707260648201527f6f67726573730000000000000000000000000000000000000000000000000000608482015260a401610656565b6123468833612aec565b505b6040517fa25ae557000000000000000000000000000000000000000000000000000000008152600481018890526000907f00000000000000000000000000000000000000000000000000000000000000006001600160a01b03169063a25ae55790602401608060405180830381865afa1580156123c9573d6000803e3d6000fd5b505050506040513d601f19601f820116820180604052508101906123ed9190614e09565b9050427f000000000000000000000000000000000000000000000000000000000000000082604001516fffffffffffffffffffffffffffffffff166124329190614eb0565b10156124a65760405162461bcd60e51b815260206004820152603e60248201527f436f6c6f737365756d3a2063616e6e6f74206372656174652061206368616c6c60448201527f656e676520616674657220746865206372656174696f6e20706572696f6400006064820152608401610656565b602081015161251d5760405162461bcd60e51b815260206004820152603660248201527f436f6c6f737365756d3a206368616c6c656e676520666f722064656c6574656460448201527f206f7574707574206973206e6f7420616c6c6f776564000000000000000000006064820152608401610656565b80516001600160a01b0316330361259c5760405162461bcd60e51b815260206004820152603860248201527f436f6c6f737365756d3a2074686520617373657274657220616e64206368616c60448201527f6c656e676572206d75737420626520646966666572656e7400000000000000006064820152608401610656565b86158015906125ab5750854015155b1561264d578686401461264d5760405162461bcd60e51b8152602060048201526044602482018190527f436f6c6f737365756d3a20626c6f636b206861736820646f6573206e6f74206d908201527f617463682074686520686173682061742074686520657870656374656420686560648201527f6967687400000000000000000000000000000000000000000000000000000000608482015260a401610656565b60006001600160a01b037f00000000000000000000000000000000000000000000000000000000000000001663a25ae55761268960018c6151c8565b6040518263ffffffff1660e01b81526004016126a791815260200190565b608060405180830381865afa1580156126c4573d6000803e3d6000fd5b505050506040513d601f19601f820116820180604052508101906126e89190614e09565b60208101519091506127565761275160018787600081811061270c5761270c615139565b905060200201358460200151898980806020026020016040519081016040528093929190818152602001838360200280828437600092019190915250613a1292505050565b61279e565b61279e600182602001518460200151898980806020026020016040519081016040528093929190818152602001838360200280828437600092019190915250613a1292505050565b7f00000000000000000000000000000000000000000000000000000000000000006001600160a01b031663b98debbf6040518163ffffffff1660e01b8152600401602060405180830381865afa1580156127fc573d6000803e3d6000fd5b505050506040513d601f19601f8201168201806040525081019061282091906150f7565b6040517f5a544742000000000000000000000000000000000000000000000000000000008152600481018b90523360248201526001600160a01b039190911690635a54474290604401600060405180830381600087803b15801561288357600080fd5b505af1158015612897573d6000803e3d6000fd5b5050505061293a838787808060200260200160405190810160405280939291908181526020018383602002808284376000920191909152505050606086015161291491507f0000000000000000000000000000000000000000000000000000000000000000906fffffffffffffffffffffffffffffffff166151c8565b7f0000000000000000000000000000000000000000000000000000000000000000613be4565b825482516001600160a01b03166901000000000000000000027fffffff0000000000000000000000000000000000000000ffffffffffffffff009091161760019081178455830180547fffffffffffffffffffffffff000000000000000000000000000000000000000016331790556129b283613c0e565b815160405142815233916001600160a01b0316908b907fd2f7931a802085b3d0234d4c320ce7ee0041da96678ce2bf5c93e8d3d7e65f529060200160405180910390a4505050505050505050565b6001600160a01b03163b151590565b8054600090600160ff9091161015612a2957506000919050565b8154600090612a3a9060ff16613caf565b8354909150610100900467ffffffffffffffff16421115612ac0578015612a645750600392915050565b8254612aa990612aa4907f000000000000000000000000000000000000000000000000000000000000000090610100900467ffffffffffffffff16614eb0565b421190565b15612ab75750600392915050565b50600492915050565b612ac9836139fe565b612ad65750600592915050565b80612ae2576002612ae5565b60015b9392505050565b60008281526002602081815260408084206001600160a01b0386168552909152822080547fffffff00000000000000000000000000000000000000000000000000000000001681556001810180547fffffffffffffffffffffffff00000000000000000000000000000000000000001690559190612b6c908301826147fa565b600382016000905560048201600090555050806001600160a01b0316827fbf4506ef5d06ecb6168f37bc9e69dd473089eb9e3f2675322d01b4d466cff05142604051612bba91815260200190565b60405180910390a36040517f33727c4d000000000000000000000000000000000000000000000000000000008152600481018390527f00000000000000000000000000000000000000000000000000000000000000006001600160a01b0316906333727c4d90602401602060405180830381865afa158015612c40573d6000803e3d6000fd5b505050506040513d601f19601f82011682018060405250810190612c649190614ec8565b15612dea576040517fa25ae557000000000000000000000000000000000000000000000000000000008152600481018390526000907f00000000000000000000000000000000000000000000000000000000000000006001600160a01b03169063a25ae55790602401608060405180830381865afa158015612cea573d6000803e3d6000fd5b505050506040513d601f19601f82011682018060405250810190612d0e9190614e09565b90507f00000000000000000000000000000000000000000000000000000000000000006001600160a01b031663b98debbf6040518163ffffffff1660e01b8152600401602060405180830381865afa158015612d6e573d6000803e3d6000fd5b505050506040513d601f19601f82011682018060405250810190612d9291906150f7565b81516040517f36b83469000000000000000000000000000000000000000000000000000000008152600481018690526001600160a01b03858116602483015291821660448201529116906336b8346990606401611f39565b7f00000000000000000000000000000000000000000000000000000000000000006001600160a01b031663b98debbf6040518163ffffffff1660e01b8152600401602060405180830381865afa158015612e48573d6000803e3d6000fd5b505050506040513d601f19601f82011682018060405250810190612e6c91906150f7565b6040517fdd215c5d000000000000000000000000000000000000000000000000000000008152600481018490526001600160a01b038381166024830152919091169063dd215c5d90604401600060405180830381600087803b158015612ed157600080fd5b505af1158015611b29573d6000803e3d6000fd5b60028151612ef3919061520e565b15612f665760405162461bcd60e51b815260206004820152603a60248201527f436f6c6f737365756d3a206c656e677468206f66207365676d656e7473206c6560448201527f6e677468732063616e6e6f74206265206f6464206e756d6265720000000000006064820152608401610656565b600160005b8251811015612fdf57828181518110612f8657612f86615139565b602002602001015160016000838152602001908152602001600020819055506001838281518110612fb957612fb9615139565b6020026020010151612fcb91906151c8565b612fd59083615168565b9150600101612f6b565b507f00000000000000000000000000000000000000000000000000000000000000008114610c285760405162461bcd60e51b815260206004820152602360248201527f436f6c6f737365756d3a20696e76616c6964207365676d656e7473206c656e6760448201527f74687300000000000000000000000000000000000000000000000000000000006064820152608401610656565b6040517fa25ae5570000000000000000000000000000000000000000000000000000000081526004810184905260009081906001600160a01b037f0000000000000000000000000000000000000000000000000000000000000000169063a25ae55790602401608060405180830381865afa1580156130f8573d6000803e3d6000fd5b505050506040513d601f19601f8201168201806040525081019061311c9190614e09565b6020015190508015613132576000915050612ae5565b336001600160a01b038516146131b05760405162461bcd60e51b815260206004820152602560248201527f436f6c6f737365756d3a2073656e646572206973206e6f742061206368616c6c60448201527f656e6765720000000000000000000000000000000000000000000000000000006064820152608401610656565b60038360058111156131c4576131c4614d35565b03613239576040805162461bcd60e51b81526020600482015260248101919091527f436f6c6f737365756d3a206368616c6c656e67652063616e6e6f74206265206360448201527f616e63656c6c6564206966206368616c6c656e6765722074696d6564206f75746064820152608401610656565b6000858152600260208181526040808420338552909152822080547fffffff00000000000000000000000000000000000000000000000000000000001681556001810180547fffffffffffffffffffffffff000000000000000000000000000000000000000016905591906132b0908301826147fa565b50600060038201819055600490910155604051428152339086907f6f3468a095154788e69ed719ee418416c1e338ac2348ccb3531bb97a0ed6ed9d9060200160405180910390a37f00000000000000000000000000000000000000000000000000000000000000006001600160a01b031663b98debbf6040518163ffffffff1660e01b8152600401602060405180830381865afa158015613355573d6000803e3d6000fd5b505050506040513d601f19601f8201168201806040525081019061337991906150f7565b6040517f36b8346900000000000000000000000000000000000000000000000000000000815260048101879052336024820181905260448201526001600160a01b0391909116906336b8346990606401600060405180830381600087803b1580156133e357600080fd5b505af11580156133f7573d6000803e3d6000fd5b50600198975050505050505050565b80516000906134685781516020808401516040808601516060808801516080808a0151855180890199909952888601969096529187019290925285015260a0808501929092528051808503909201825260c090930190925281519101206115ca565b60405162461bcd60e51b815260206004820152602a60248201527f48617368696e673a20756e6b6e6f776e206f757470757420726f6f742070726f60448201527f6f662076657273696f6e000000000000000000000000000000000000000000006064820152608401610656565b919050565b838560020187815481106134f1576134f1615139565b90600052602060002001541461356f5760405162461bcd60e51b815260206004820152602d60248201527f436f6c6f737365756d3a2074686520736f75726365207365676d656e74206d7560448201527f7374206265206d617463686564000000000000000000000000000000000000006064820152608401610656565b613578856139fe565b61361a57826002860161358c886001614eb0565b8154811061359c5761359c615139565b90600052602060002001540361361a5760405162461bcd60e51b815260206004820152603660248201527f436f6c6f737365756d3a207468652064657374696e6174696f6e207365676d6560448201527f6e74206d757374206e6f74206265206d617463686564000000000000000000006064820152608401610656565b8060600135826080013514611b295760405162461bcd60e51b815260206004820152602960248201527f436f6c6f737365756d3a2074686520626c6f636b2068617368206d757374206260448201527f65206d61746368656400000000000000000000000000000000000000000000006064820152608401610656565b82602001358260e00135146137145760405162461bcd60e51b815260206004820152602960248201527f436f6c6f737365756d3a2074686520737461746520726f6f74206d757374206260448201527f65206d61746368656400000000000000000000000000000000000000000000006064820152608401610656565b600061018083013561373f5761373a61372c846152a0565b613735846153fa565b613cc6565b613759565b61375961374b846152a0565b613754846153fa565b613d6a565b9050808560800135146137d45760405162461bcd60e51b815260206004820152603b60248201527f436f6c6f737365756d3a2074686520626c6f636b20686173682066726f6d207060448201527f75626c696320696e707574206d757374206265206d61746368656400000000006064820152608401610656565b5050505050565b60408051600060208201528082018690526060810185905260808082018590528251808303909101815260a08201928390527f12e64a72000000000000000000000000000000000000000000000000000000009092527f00000000000000000000000000000000000000000000000000000000000000006001600160a01b0316906312e64a7290613898907f42000000000000000000000000000000000000030000000000000000000000009085908c908c90899060a40161559b565b602060405180830381865afa1580156138b5573d6000803e3d6000fd5b505050506040513d601f19601f820116820180604052508101906138d99190614ec8565b611f675760405162461bcd60e51b815260206004820152603660248201527f436f6c6f737365756d3a20696e76616c6964204c32546f4c314d65737361676560448201527f50617373657220696e636c7573696f6e2070726f6f66000000000000000000006064820152608401610656565b600060607f000000000000000000000000000000000000000000000000000000000000000061397e610120850185614fcc565b905010156139eb576139e87f00000000000000000000000000000000000000000000000000000000000000006139b8610120860186614fcc565b6139e391507f00000000000000000000000000000000000000000000000000000000000000006151c8565b613e7b565b90505b6115c6846139f8856152a0565b83613f07565b60006001613a0b83613bb8565b1192915050565b805180613a1e86611b31565b14613a915760405162461bcd60e51b815260206004820152602260248201527f436f6c6f737365756d3a20696e76616c6964207365676d656e7473206c656e6760448201527f74680000000000000000000000000000000000000000000000000000000000006064820152608401610656565b81600081518110613aa457613aa4615139565b60200260200101518414613b205760405162461bcd60e51b815260206004820152602c60248201527f436f6c6f737365756d3a20746865206669727374207365676d656e74206d757360448201527f74206265206d61746368656400000000000000000000000000000000000000006064820152608401610656565b81613b2c6001836151c8565b81518110613b3c57613b3c615139565b602002602001015183036137d45760405162461bcd60e51b815260206004820152602f60248201527f436f6c6f737365756d3a20746865206c617374207365676d656e74206d75737460448201527f206e6f74206265206d61746368656400000000000000000000000000000000006064820152608401610656565b805460009060ff166001613bcb82611b31565b613bd591906151c8565b8360030154612ae59190615676565b8251613bf99060028601906020860190614818565b50600484019190915560039092019190915550565b613c17816139fe565b613c8257613c457f000000000000000000000000000000000000000000000000000000000000000042614eb0565b815467ffffffffffffffff91909116610100027fffffffffffffffffffffffffffffffffffffffffffffff0000000000000000ff90911617815550565b613c457f000000000000000000000000000000000000000000000000000000000000000042614eb0565b50565b6000613cbc60028361568a565b60ff161592915050565b6040805160118082526102408201909252600091829190816020015b6060815260200190600190039081613ce2579050509050613d04848483613f79565b613d33846101000151604051602001613d1f91815260200190565b60405160208183030381529060405261422c565b81601081518110613d4657613d46615139565b6020026020010181905250613d5a8161429b565b8051906020012091505092915050565b6040805160148082526102a08201909252600091829190816020015b6060815260200190600190039081613d86579050509050613da8848483613f79565b613dc3846101000151604051602001613d1f91815260200190565b81601081518110613dd657613dd6615139565b6020026020010181905250613df984610140015167ffffffffffffffff166142df565b81601181518110613e0c57613e0c615139565b6020026020010181905250613e2f84610160015167ffffffffffffffff166142df565b81601281518110613e4257613e42615139565b6020026020010181905250613e68846101800151604051602001613d1f91815260200190565b81601381518110613d4657613d46615139565b606060008267ffffffffffffffff811115613e9857613e98614993565b604051908082528060200260200182016040528015613ec1578160200160208202803683370190505b50905060005b83811015613eff5784828281518110613ee257613ee2615139565b602090810291909101015280613ef7816156ac565b915050613ec7565b509392505050565b6000838360e001516000801b85600001518660200151876060015188604001518960a001518a608001518b6101200151518c61012001518c604051602001613f5a9c9b9a99989796959493929190615717565b6040516020818303038152906040528051906020012090509392505050565b613f938360200151604051602001613d1f91815260200190565b81600081518110613fa657613fa6615139565b6020026020010181905250816000015181600181518110613fc957613fc9615139565b6020026020010181905250816020015181600281518110613fec57613fec615139565b60200260200101819052506140118360e00151604051602001613d1f91815260200190565b8160038151811061402457614024615139565b60200260200101819052506140498360c00151604051602001613d1f91815260200190565b8160048151811061405c5761405c615139565b602002602001018190525081604001518160058151811061407f5761407f615139565b60200260200101819052508160600151816006815181106140a2576140a2615139565b60200260200101819052508160800151816007815181106140c5576140c5615139565b60200260200101819052506140e7836060015167ffffffffffffffff166142df565b816008815181106140fa576140fa615139565b602002602001018190525061411c836080015167ffffffffffffffff166142df565b8160098151811061412f5761412f615139565b60200260200101819052508160a0015181600a8151811061415257614152615139565b6020026020010181905250614174836040015167ffffffffffffffff166142df565b81600b8151811061418757614187615139565b60200260200101819052508160c0015181600c815181106141aa576141aa615139565b60200260200101819052508160e0015181600d815181106141cd576141cd615139565b602002602001018190525081610100015181600e815181106141f1576141f1615139565b60200260200101819052506142098360a001516142df565b81600f8151811061421c5761421c615139565b6020026020010181905250505050565b6060808251600114801561425a575060808360008151811061425057614250615139565b016020015160f81c105b156142665750816115ca565b614272835160806142f2565b836040516020016142849291906157d0565b604051602081830303815290604052905092915050565b606060006142a8836144e8565b90506142b6815160c06142f2565b816040516020016142c89291906157d0565b604051602081830303815290604052915050919050565b60606115ca6142ed83614620565b61422c565b606080603884101561437157604080516001808252818301909252906020820181803683370190505090506143278385615114565b60f81b8160008151811061433d5761433d615139565b60200101907effffffffffffffffffffffffffffffffffffffffffffffffffffffffffffff1916908160001a905350612ae5565b600060015b6143808187615676565b156143a6578161438f816156ac565b925061439f905061010082615168565b9050614376565b6143b1826001614eb0565b67ffffffffffffffff8111156143c9576143c9614993565b6040519080825280601f01601f1916602001820160405280156143f3576020820181803683370190505b5092506144008583615114565b61440b906037615114565b60f81b8360008151811061442157614421615139565b60200101907effffffffffffffffffffffffffffffffffffffffffffffffffffffffffffff1916908160001a905350600190505b8181116144df5761010061446982846151c8565b6144759061010061591f565b61447f9088615676565b614489919061520e565b60f81b83828151811061449e5761449e615139565b60200101907effffffffffffffffffffffffffffffffffffffffffffffffffffffffffffff1916908160001a905350806144d7816156ac565b915050614455565b50509392505050565b6060815160000361450757505060408051600081526020810190915290565b6000805b835181101561454e5783818151811061452657614526615139565b6020026020010151518261453a9190614eb0565b915080614546816156ac565b91505061450b565b60008267ffffffffffffffff81111561456957614569614993565b6040519080825280601f01601f191660200182016040528015614593576020820181803683370190505b50600092509050602081015b85518310156146175760008684815181106145bc576145bc615139565b6020026020010151905060006020820190506145da8382845161477f565b8785815181106145ec576145ec615139565b602002602001015151836146009190614eb0565b92505050828061460f906156ac565b93505061459f565b50949350505050565b606060008260405160200161463791815260200190565b604051602081830303815290604052905060005b60208110156146a65781818151811061466657614666615139565b01602001517fff00000000000000000000000000000000000000000000000000000000000000166000036146a6578061469e816156ac565b91505061464b565b60006146b38260206151c8565b67ffffffffffffffff8111156146cb576146cb614993565b6040519080825280601f01601f1916602001820160405280156146f5576020820181803683370190505b50905060005b815181101561461757838361470f816156ac565b94508151811061472157614721615139565b602001015160f81c60f81b82828151811061473e5761473e615139565b60200101907effffffffffffffffffffffffffffffffffffffffffffffffffffffffffffff1916908160001a90535080614777816156ac565b9150506146fb565b8282825b602081106147bb578151835261479a602084614eb0565b92506147a7602083614eb0565b91506147b46020826151c8565b9050614783565b905182516020929092036101000a7fffffffffffffffffffffffffffffffffffffffffffffffffffffffffffffffff0180199091169116179052505050565b5080546000825590600052602060002090810190613cac9190614863565b828054828255906000526020600020908101928215614853579160200282015b82811115614853578251825591602001919060010190614838565b5061485f929150614863565b5090565b5b8082111561485f5760008155600101614864565b60006020828403121561488a57600080fd5b5035919050565b6001600160a01b0381168114613cac57600080fd5b600080604083850312156148b957600080fd5b8235915060208301356148cb81614891565b809150509250929050565b60005b838110156148f15781810151838201526020016148d9565b838111156106695750506000910152565b6000815180845261491a8160208601602086016148d6565b601f01601f19169290920160200192915050565b602081526000612ae56020830184614902565b600080600080600060a0868803121561495957600080fd5b85359450602086013561496b81614891565b9350604086013561497b81614891565b94979396509394606081013594506080013592915050565b7f4e487b7100000000000000000000000000000000000000000000000000000000600052604160045260246000fd5b6040516101a0810167ffffffffffffffff811182821017156149e6576149e6614993565b60405290565b604051610120810167ffffffffffffffff811182821017156149e6576149e6614993565b604051601f8201601f1916810167ffffffffffffffff81118282101715614a3957614a39614993565b604052919050565b600067ffffffffffffffff821115614a5b57614a5b614993565b5060051b60200190565b60006020808385031215614a7857600080fd5b823567ffffffffffffffff811115614a8f57600080fd5b8301601f81018513614aa057600080fd5b8035614ab3614aae82614a41565b614a10565b81815260059190911b82018301908381019087831115614ad257600080fd5b928401925b82841015614af057833582529284019290840190614ad7565b979650505050505050565b60008083601f840112614b0d57600080fd5b50813567ffffffffffffffff811115614b2557600080fd5b6020830191508360208260051b8501011115614b4057600080fd5b9250929050565b600080600080600080600060a0888a031215614b6257600080fd5b8735965060208801359550604088013567ffffffffffffffff80821115614b8857600080fd5b908901906101e0828c031215614b9d57600080fd5b90955060608901359080821115614bb357600080fd5b614bbf8b838c01614afb565b909650945060808a0135915080821115614bd857600080fd5b50614be58a828b01614afb565b989b979a50959850939692959293505050565b600080600080600060808688031215614c1057600080fd5b853594506020860135614c2281614891565b935060408601359250606086013567ffffffffffffffff811115614c4557600080fd5b614c5188828901614afb565b969995985093965092949392505050565b600060208284031215614c7457600080fd5b813560ff81168114612ae557600080fd5b60006020808352610100830160ff8551168285015267ffffffffffffffff8286015116604085015260408501516001600160a01b0380821660608701528060608801511660808701525050608085015160e060a0860152818151808452610120870191508483019350600092505b80831015614d135783518252928401926001929092019190840190614cf3565b5060a087015160c087015260c087015160e08701528094505050505092915050565b7f4e487b7100000000000000000000000000000000000000000000000000000000600052602160045260246000fd5b6020810160068310614d9f577f4e487b7100000000000000000000000000000000000000000000000000000000600052602160045260246000fd5b91905290565b600080600080600060808688031215614dbd57600080fd5b853594506020860135935060408601359250606086013567ffffffffffffffff811115614c4557600080fd5b80516fffffffffffffffffffffffffffffffff811681146134d657600080fd5b600060808284031215614e1b57600080fd5b6040516080810181811067ffffffffffffffff82111715614e3e57614e3e614993565b6040528251614e4c81614891565b815260208381015190820152614e6460408401614de9565b6040820152614e7560608401614de9565b60608201529392505050565b7f4e487b7100000000000000000000000000000000000000000000000000000000600052601160045260246000fd5b60008219821115614ec357614ec3614e81565b500190565b600060208284031215614eda57600080fd5b81518015158114612ae557600080fd5b600060a08284031215614efc57600080fd5b60405160a0810181811067ffffffffffffffff82111715614f1f57614f1f614993565b806040525082358152602083013560208201526040830135604082015260608301356060820152608083013560808201528091505092915050565b600082357ffffffffffffffffffffffffffffffffffffffffffffffffffffffffffffffe61833603018112614f8e57600080fd5b9190910192915050565b600082357ffffffffffffffffffffffffffffffffffffffffffffffffffffffffffffffee1833603018112614f8e57600080fd5b60008083357fffffffffffffffffffffffffffffffffffffffffffffffffffffffffffffffe184360301811261500157600080fd5b83018035915067ffffffffffffffff82111561501c57600080fd5b6020019150600581901b3603821315614b4057600080fd5b81835260007f07ffffffffffffffffffffffffffffffffffffffffffffffffffffffffffffff83111561506657600080fd5b8260051b8083602087013760009401602001938452509192915050565b606081526000615097606083018789615034565b82810360208401526150aa818688615034565b9150508260408301529695505050505050565b8381526fffffffffffffffffffffffffffffffff831660208201526060604082015260006150ee6060830184614902565b95945050505050565b60006020828403121561510957600080fd5b8151612ae581614891565b600060ff821660ff84168060ff0382111561513157615131614e81565b019392505050565b7f4e487b7100000000000000000000000000000000000000000000000000000000600052603260045260246000fd5b6000817fffffffffffffffffffffffffffffffffffffffffffffffffffffffffffffffff04831182151516156151a0576151a0614e81565b500290565b600060ff821660ff8416808210156151bf576151bf614e81565b90039392505050565b6000828210156151da576151da614e81565b500390565b7f4e487b7100000000000000000000000000000000000000000000000000000000600052601260045260246000fd5b60008261521d5761521d6151df565b500690565b803567ffffffffffffffff811681146134d657600080fd5b600082601f83011261524b57600080fd5b8135602061525b614aae83614a41565b82815260059290921b8401810191818101908684111561527a57600080fd5b8286015b84811015615295578035835291830191830161527e565b509695505050505050565b60006101a082360312156152b357600080fd5b6152bb6149c2565b82358152602083013560208201526152d560408401615222565b60408201526152e660608401615222565b60608201526152f760808401615222565b608082015260a083013560a082015260c083013560c082015260e083013560e08201526101008084013581830152506101208084013567ffffffffffffffff81111561534257600080fd5b61534e3682870161523a565b828401525050610140615362818501615222565b90820152610160615374848201615222565b9082015261018092830135928101929092525090565b600082601f83011261539b57600080fd5b813567ffffffffffffffff8111156153b5576153b5614993565b6153c86020601f19601f84011601614a10565b8181528460208386010111156153dd57600080fd5b816020850160208301376000918101602001919091529392505050565b6000610120823603121561540d57600080fd5b6154156149ec565b823567ffffffffffffffff8082111561542d57600080fd5b6154393683870161538a565b8352602085013591508082111561544f57600080fd5b61545b3683870161538a565b6020840152604085013591508082111561547457600080fd5b6154803683870161538a565b6040840152606085013591508082111561549957600080fd5b6154a53683870161538a565b606084015260808501359150808211156154be57600080fd5b6154ca3683870161538a565b608084015260a08501359150808211156154e357600080fd5b6154ef3683870161538a565b60a084015260c085013591508082111561550857600080fd5b6155143683870161538a565b60c084015260e085013591508082111561552d57600080fd5b6155393683870161538a565b60e08401526101009150818501358181111561555457600080fd5b6155603682880161538a565b8385015250505080915050919050565b818352818160208501375060006020828401015260006020601f19601f840116840101905092915050565b858152600060206080818401526155b56080840188614902565b8381036040850152858152818101600587901b820183018860005b8981101561565d57601f1985840301845281357fffffffffffffffffffffffffffffffffffffffffffffffffffffffffffffffe18c360301811261561357600080fd5b8b01868101903567ffffffffffffffff81111561562f57600080fd5b80360382131561563e57600080fd5b615649858284615570565b9588019594505050908501906001016155d0565b5050809450505050508260608301529695505050505050565b600082615685576156856151df565b500490565b600060ff83168061569d5761569d6151df565b8060ff84160691505092915050565b60007fffffffffffffffffffffffffffffffffffffffffffffffffffffffffffffffff82036156dd576156dd614e81565b5060010190565b60008151602080840160005b8381101561570c578151875295820195908201906001016156f0565b509495945050505050565b8c81528b60208201528a604082015289606082015288608082015260007fffffffffffffffff000000000000000000000000000000000000000000000000808a60c01b1660a0840152808960c01b1660a88401528760b0840152808760c01b1660d0840152507fffff0000000000000000000000000000000000000000000000000000000000008560f01b1660d88301526157be6157b860da8401866156e4565b846156e4565b9e9d5050505050505050505050505050565b600083516157e28184602088016148d6565b8351908301906157f68183602088016148d6565b01949350505050565b600181815b8085111561585857817fffffffffffffffffffffffffffffffffffffffffffffffffffffffffffffffff0482111561583e5761583e614e81565b8085161561584b57918102915b93841c9390800290615804565b509250929050565b60008261586f575060016115ca565b8161587c575060006115ca565b8160018114615892576002811461589c576158b8565b60019150506115ca565b60ff8411156158ad576158ad614e81565b50506001821b6115ca565b5060208310610133831016604e8410600b84101617156158db575081810a6115ca565b6158e583836157ff565b807fffffffffffffffffffffffffffffffffffffffffffffffffffffffffffffffff0482111561591757615917614e81565b029392505050565b6000612ae5838361586056fea164736f6c634300080f000a",
  "devdoc": {
    "version": 1,
    "kind": "dev",
    "methods": {
      "bisect(uint256,address,uint256,bytes32[])": {
        "params": {
          "_challenger": "Address of the challenger.",
          "_outputIndex": "Index of the L2 checkpoint output.",
          "_pos": "Position of the last valid segment.",
          "_segments": "Array of the segment. A segment is the first output root of a specific range."
        }
      },
      "cancelChallenge(uint256)": {
        "params": {
          "_outputIndex": "Index of the L2 checkpoint output."
        }
      },
      "challengerTimeout(uint256,address)": {
        "params": {
          "_challenger": "Address of the challenger.",
          "_outputIndex": "Index of the L2 checkpoint output."
        }
      },
      "constructor": {
        "params": {
          "_bisectionTimeout": "Timeout seconds for the bisection.",
          "_creationPeriodSeconds": "Seconds The period seconds for which challenges can be created per each output.",
          "_dummyHash": "Dummy hash.",
          "_l2Oracle": "Address of the L2OutputOracle contract.",
          "_maxTxs": "Number of max transactions per block.",
          "_provingTimeout": "Timeout seconds for the proving.",
          "_securityCouncil": "Address of security council.",
          "_segmentsLengths": "Lengths of segments.",
          "_submissionInterval": "Interval in blocks at which checkpoints must be submitted.",
          "_zkMerkleTrie": "Address of zk merkle trie.",
          "_zkVerifier": "Address of the ZKVerifier contract."
        }
      },
      "createChallenge(uint256,bytes32,uint256,bytes32[])": {
        "params": {
          "_l1BlockHash": "The block hash of L1 at the time the output L2 block was created.",
          "_l1BlockNumber": "The block number of L1 with the specified L1 block hash.",
          "_outputIndex": "Index of the invalid L2 checkpoint output.",
          "_segments": "Array of the segment. A segment is the first output root of a specific range."
        }
      },
      "dismissChallenge(uint256,address,address,bytes32,bytes32)": {
        "params": {
          "_asserter": "Address of the asserter.",
          "_challenger": "Address of the challenger.",
          "_outputIndex": "Index of the L2 checkpoint output.",
          "_outputRoot": "The L2 output root to rollback.",
          "_publicInputHash": "Hash of public input."
        }
      },
      "forceDeleteOutput(uint256)": {
        "params": {
          "_outputIndex": "Index of the L2 checkpoint output."
        }
      },
      "getChallenge(uint256,address)": {
        "params": {
          "_challenger": "Address of the challenger.",
          "_outputIndex": "Index of the L2 checkpoint output."
        },
        "returns": {
          "_0": "The challenge data."
        }
      },
      "getSegmentsLength(uint8)": {
        "params": {
          "_turn": "The challenge turn."
        },
        "returns": {
          "_0": "The segments length."
        }
      },
      "getStatus(uint256,address)": {
        "params": {
          "_challenger": "Address of the challenger.",
          "_outputIndex": "Index of the L2 checkpoint output."
        },
        "returns": {
          "_0": "The status of the challenge."
        }
      },
      "isAbleToBisect(uint256,address)": {
        "params": {
          "_challenger": "Address of the challenger.",
          "_outputIndex": "Index of the L2 checkpoint output."
        },
        "returns": {
          "_0": "Whether bisection is possible."
        }
      },
      "isInCreationPeriod(uint256)": {
        "params": {
          "_outputIndex": "Index of the L2 checkpoint output."
        },
        "returns": {
          "_0": "Whether current timestamp is in challenge creation period."
        }
      },
      "proveFault(uint256,uint256,((bytes32,bytes32,bytes32,bytes32,bytes32),(bytes32,bytes32,bytes32,bytes32,bytes32),(bytes32,bytes32,uint64,uint64,uint64,uint256,bytes32,bytes32,bytes32,bytes32[],uint64,uint64,bytes32),(bytes,bytes,bytes,bytes,bytes,bytes,bytes,bytes,bytes),bytes32,bytes32,bytes[]),uint256[],uint256[])": {
        "params": {
          "_outputIndex": "Index of the L2 checkpoint output.",
          "_pair": "Aggregated multi-opening proofs and public inputs. (Currently only 2 public inputs)",
          "_pos": "Position of the last valid segment.",
          "_proof": "Proof for public input validation.",
          "_zkproof": "Halo2 proofs composed of points and scalars.                     See https://zcash.github.io/halo2/design/implementation/proofs.html."
        }
      }
    },
    "events": {
      "Bisected(uint256,address,uint8,uint256)": {
        "params": {
          "challenger": "Address of the challenger.",
          "outputIndex": "Index of the L2 checkpoint output.",
          "timestamp": "The timestamp when bisected.",
          "turn": "The current turn."
        }
      },
      "ChallengeCanceled(uint256,address,uint256)": {
        "params": {
          "challenger": "Address of the challenger.",
          "outputIndex": "Index of the L2 checkpoint output.",
          "timestamp": "The timestamp when canceled."
        }
      },
      "ChallengeCreated(uint256,address,address,uint256)": {
        "params": {
          "asserter": "Address of the asserter.",
          "challenger": "Address of the challenger.",
          "outputIndex": "Index of the L2 checkpoint output.",
          "timestamp": "The timestamp when created."
        }
      },
      "ChallengeDismissed(uint256,address,uint256)": {
        "params": {
          "challenger": "Address of the challenger.",
          "outputIndex": "Index of the L2 checkpoint output.",
          "timestamp": "The timestamp when dismissed."
        }
      },
      "ChallengerTimedOut(uint256,address,uint256)": {
        "params": {
          "challenger": "Address of the challenger.",
          "outputIndex": "Index of the L2 checkpoint output.",
          "timestamp": "The timestamp when deleted."
        }
      },
      "Proven(uint256,address,uint256)": {
        "params": {
          "challenger": "Address of the challenger.",
          "outputIndex": "Index of the L2 checkpoint output.",
          "timestamp": "The timestamp when proven."
        }
      },
      "ReadyToProve(uint256,address)": {
        "params": {
          "challenger": "Address of the challenger.",
          "outputIndex": "Index of the L2 checkpoint output."
        }
      }
    }
  },
  "userdoc": {
    "version": 1,
    "kind": "user",
    "methods": {
      "BISECTION_TIMEOUT()": {
        "notice": "Timeout seconds for the bisection."
      },
      "CREATION_PERIOD_SECONDS()": {
        "notice": "The period seconds for which challenges can be created per each output."
      },
      "DUMMY_HASH()": {
        "notice": "The dummy transaction hash. This is used to pad if the         number of transactions is less than MAX_TXS. This is same as:         unsignedTx = {           nonce: 0,           gasLimit: 0,           gasPrice: 0,           to: address(0),           value: 0,           data: '0x',           chainId: CHAIN_ID,         }         signature = sign(unsignedTx, 0x1)         dummyHash = keccak256(rlp({           ...unsignedTx,           signature,         }))"
      },
      "L2_ORACLE()": {
        "notice": "Address of the L2OutputOracle."
      },
      "L2_ORACLE_SUBMISSION_INTERVAL()": {
        "notice": "The interval in L2 blocks at which checkpoints must be         submitted on L2OutputOracle contract."
      },
      "MAX_TXS()": {
        "notice": "The maximum number of transactions"
      },
      "PROVING_TIMEOUT()": {
        "notice": "Timeout seconds for the proving."
      },
      "SECURITY_COUNCIL()": {
        "notice": "Address that has the ability to approve the challenge."
      },
      "ZK_MERKLE_TRIE()": {
        "notice": "Address that has the ability to verify the merkle proof."
      },
      "ZK_VERIFIER()": {
        "notice": "Address of the ZKVerifier."
      },
      "bisect(uint256,address,uint256,bytes32[])": {
        "notice": "Selects an invalid section and submit segments of that section."
      },
      "cancelChallenge(uint256)": {
        "notice": "Cancels the challenge.         Reverts if is not possible to cancel the sender's challenge for the given output index."
      },
      "challengerTimeout(uint256,address)": {
        "notice": "Calls a private function that deletes the challenge because the challenger has timed out.         Reverts if the challenger hasn't timed out."
      },
      "challenges(uint256,address)": {
        "notice": "A mapping of the challenge."
      },
      "constructor": {
        "notice": "Constructs the Colosseum contract."
      },
      "createChallenge(uint256,bytes32,uint256,bytes32[])": {
        "notice": "Creates a challenge against an invalid output."
      },
      "dismissChallenge(uint256,address,address,bytes32,bytes32)": {
        "notice": "Dismisses the challenge and rollback l2 output.         This function can only be called by Security Council contract."
      },
      "forceDeleteOutput(uint256)": {
        "notice": "Deletes the L2 output root forcefully by the Security Council         when zk-proving is not possible due to an undeniable bug."
      },
      "getChallenge(uint256,address)": {
        "notice": "Returns the challenge corresponding to the given L2 output index."
      },
      "getSegmentsLength(uint8)": {
        "notice": "Returns the segment length required for that turn."
      },
      "getStatus(uint256,address)": {
        "notice": "Returns the challenge status corresponding to the given L2 output index."
      },
      "initialize(uint256[])": {
        "notice": "Initializer."
      },
      "isAbleToBisect(uint256,address)": {
        "notice": "Determines whether bisection is possible in the challenge corresponding to the given         L2 output index."
      },
      "isInCreationPeriod(uint256)": {
        "notice": "Determines whether current timestamp is in challenge creation period corresponding to the given L2 output index."
      },
      "proveFault(uint256,uint256,((bytes32,bytes32,bytes32,bytes32,bytes32),(bytes32,bytes32,bytes32,bytes32,bytes32),(bytes32,bytes32,uint64,uint64,uint64,uint256,bytes32,bytes32,bytes32,bytes32[],uint64,uint64,bytes32),(bytes,bytes,bytes,bytes,bytes,bytes,bytes,bytes,bytes),bytes32,bytes32,bytes[]),uint256[],uint256[])": {
        "notice": "Proves that a specific output is invalid using ZKP.         This function can only be called in the READY_TO_PROVE and ASSERTER_TIMEOUT states."
      },
      "verifiedPublicInputs(bytes32)": {
        "notice": "A mapping indicating whether a public input is verified or not."
      },
      "version()": {
        "notice": "Semantic version."
      }
    },
    "events": {
      "Bisected(uint256,address,uint8,uint256)": {
        "notice": "Emitted when segments are bisected."
      },
      "ChallengeCanceled(uint256,address,uint256)": {
        "notice": "Emitted when challenge is canceled."
      },
      "ChallengeCreated(uint256,address,address,uint256)": {
        "notice": "Emitted when the challenge is created."
      },
      "ChallengeDismissed(uint256,address,uint256)": {
        "notice": "Emitted when challenge is dismissed."
      },
      "ChallengerTimedOut(uint256,address,uint256)": {
        "notice": "Emitted when challenger timed out."
      },
      "Proven(uint256,address,uint256)": {
        "notice": "Emitted when proven fault."
      },
      "ReadyToProve(uint256,address)": {
        "notice": "Emitted when it is ready to be proved."
      }
    }
  },
  "storageLayout": {
    "storage": [
      {
        "astId": 77710,
        "contract": "contracts/L1/Colosseum.sol:Colosseum",
        "label": "_initialized",
        "offset": 0,
        "slot": "0",
        "type": "t_uint8"
      },
      {
        "astId": 77713,
        "contract": "contracts/L1/Colosseum.sol:Colosseum",
        "label": "_initializing",
        "offset": 1,
        "slot": "0",
        "type": "t_bool"
      },
      {
        "astId": 80,
        "contract": "contracts/L1/Colosseum.sol:Colosseum",
        "label": "segmentsLengths",
        "offset": 0,
        "slot": "1",
        "type": "t_mapping(t_uint256,t_uint256)"
      },
      {
        "astId": 88,
        "contract": "contracts/L1/Colosseum.sol:Colosseum",
        "label": "challenges",
        "offset": 0,
        "slot": "2",
        "type": "t_mapping(t_uint256,t_mapping(t_address,t_struct(Challenge)18553_storage))"
      },
      {
        "astId": 93,
        "contract": "contracts/L1/Colosseum.sol:Colosseum",
        "label": "verifiedPublicInputs",
        "offset": 0,
        "slot": "3",
        "type": "t_mapping(t_bytes32,t_bool)"
      }
    ],
    "types": {
      "t_address": {
        "encoding": "inplace",
        "label": "address",
        "numberOfBytes": "20"
      },
      "t_array(t_bytes32)dyn_storage": {
        "encoding": "dynamic_array",
        "label": "bytes32[]",
        "numberOfBytes": "32",
        "base": "t_bytes32"
      },
      "t_bool": {
        "encoding": "inplace",
        "label": "bool",
        "numberOfBytes": "1"
      },
      "t_bytes32": {
        "encoding": "inplace",
        "label": "bytes32",
        "numberOfBytes": "32"
      },
      "t_mapping(t_address,t_struct(Challenge)18553_storage)": {
        "encoding": "mapping",
        "key": "t_address",
        "label": "mapping(address => struct Types.Challenge)",
        "numberOfBytes": "32",
        "value": "t_struct(Challenge)18553_storage"
      },
      "t_mapping(t_bytes32,t_bool)": {
        "encoding": "mapping",
        "key": "t_bytes32",
        "label": "mapping(bytes32 => bool)",
        "numberOfBytes": "32",
        "value": "t_bool"
      },
      "t_mapping(t_uint256,t_mapping(t_address,t_struct(Challenge)18553_storage))": {
        "encoding": "mapping",
        "key": "t_uint256",
        "label": "mapping(uint256 => mapping(address => struct Types.Challenge))",
        "numberOfBytes": "32",
        "value": "t_mapping(t_address,t_struct(Challenge)18553_storage)"
      },
      "t_mapping(t_uint256,t_uint256)": {
        "encoding": "mapping",
        "key": "t_uint256",
        "label": "mapping(uint256 => uint256)",
        "numberOfBytes": "32",
        "value": "t_uint256"
      },
      "t_struct(Challenge)18553_storage": {
        "encoding": "inplace",
        "label": "struct Types.Challenge",
        "numberOfBytes": "160",
        "members": [
          {
            "astId": 18539,
            "contract": "contracts/L1/Colosseum.sol:Colosseum",
            "label": "turn",
            "offset": 0,
            "slot": "0",
            "type": "t_uint8"
          },
          {
            "astId": 18541,
            "contract": "contracts/L1/Colosseum.sol:Colosseum",
            "label": "timeoutAt",
            "offset": 1,
            "slot": "0",
            "type": "t_uint64"
          },
          {
            "astId": 18543,
            "contract": "contracts/L1/Colosseum.sol:Colosseum",
            "label": "asserter",
            "offset": 9,
            "slot": "0",
            "type": "t_address"
          },
          {
            "astId": 18545,
            "contract": "contracts/L1/Colosseum.sol:Colosseum",
            "label": "challenger",
            "offset": 0,
            "slot": "1",
            "type": "t_address"
          },
          {
            "astId": 18548,
            "contract": "contracts/L1/Colosseum.sol:Colosseum",
            "label": "segments",
            "offset": 0,
            "slot": "2",
            "type": "t_array(t_bytes32)dyn_storage"
          },
          {
            "astId": 18550,
            "contract": "contracts/L1/Colosseum.sol:Colosseum",
            "label": "segSize",
            "offset": 0,
            "slot": "3",
            "type": "t_uint256"
          },
          {
            "astId": 18552,
            "contract": "contracts/L1/Colosseum.sol:Colosseum",
            "label": "segStart",
            "offset": 0,
            "slot": "4",
            "type": "t_uint256"
          }
        ]
      },
      "t_uint256": {
        "encoding": "inplace",
        "label": "uint256",
        "numberOfBytes": "32"
      },
      "t_uint64": {
        "encoding": "inplace",
        "label": "uint64",
        "numberOfBytes": "8"
      },
      "t_uint8": {
        "encoding": "inplace",
        "label": "uint8",
        "numberOfBytes": "1"
      }
    }
  }
}