{
  "address": "0xf1aF9D897956434E5d7Bd875fd231e044890c897",
  "abi": [
    {
      "type": "constructor",
      "inputs": [
        {
          "name": "_bridge",
          "type": "address",
          "internalType": "address"
        },
        {
          "name": "_remoteToken",
          "type": "address",
          "internalType": "address"
        }
      ],
      "stateMutability": "nonpayable"
    },
    {
      "type": "function",
      "name": "BRIDGE",
      "inputs": [],
      "outputs": [
        {
          "name": "",
          "type": "address",
          "internalType": "address"
        }
      ],
      "stateMutability": "view"
    },
    {
      "type": "function",
      "name": "CLOCK_MODE",
      "inputs": [],
      "outputs": [
        {
          "name": "",
          "type": "string",
          "internalType": "string"
        }
      ],
      "stateMutability": "view"
    },
    {
      "type": "function",
      "name": "DOMAIN_SEPARATOR",
      "inputs": [],
      "outputs": [
        {
          "name": "",
          "type": "bytes32",
          "internalType": "bytes32"
        }
      ],
      "stateMutability": "view"
    },
    {
      "type": "function",
      "name": "REMOTE_TOKEN",
      "inputs": [],
      "outputs": [
        {
          "name": "",
          "type": "address",
          "internalType": "address"
        }
      ],
      "stateMutability": "view"
    },
    {
      "type": "function",
      "name": "acceptOwnership",
      "inputs": [],
      "outputs": [],
      "stateMutability": "nonpayable"
    },
    {
      "type": "function",
      "name": "allowance",
      "inputs": [
        {
          "name": "owner",
          "type": "address",
          "internalType": "address"
        },
        {
          "name": "spender",
          "type": "address",
          "internalType": "address"
        }
      ],
      "outputs": [
        {
          "name": "",
          "type": "uint256",
          "internalType": "uint256"
        }
      ],
      "stateMutability": "view"
    },
    {
      "type": "function",
      "name": "approve",
      "inputs": [
        {
          "name": "spender",
          "type": "address",
          "internalType": "address"
        },
        {
          "name": "amount",
          "type": "uint256",
          "internalType": "uint256"
        }
      ],
      "outputs": [
        {
          "name": "",
          "type": "bool",
          "internalType": "bool"
        }
      ],
      "stateMutability": "nonpayable"
    },
    {
      "type": "function",
      "name": "balanceOf",
      "inputs": [
        {
          "name": "account",
          "type": "address",
          "internalType": "address"
        }
      ],
      "outputs": [
        {
          "name": "",
          "type": "uint256",
          "internalType": "uint256"
        }
      ],
      "stateMutability": "view"
    },
    {
      "type": "function",
      "name": "burn",
      "inputs": [
        {
          "name": "_from",
          "type": "address",
          "internalType": "address"
        },
        {
          "name": "_amount",
          "type": "uint256",
          "internalType": "uint256"
        }
      ],
      "outputs": [],
      "stateMutability": "nonpayable"
    },
    {
      "type": "function",
      "name": "checkpoints",
      "inputs": [
        {
          "name": "account",
          "type": "address",
          "internalType": "address"
        },
        {
          "name": "pos",
          "type": "uint32",
          "internalType": "uint32"
        }
      ],
      "outputs": [
        {
          "name": "",
          "type": "tuple",
          "internalType": "struct ERC20Votes.Checkpoint",
          "components": [
            {
              "name": "fromBlock",
              "type": "uint32",
              "internalType": "uint32"
            },
            {
              "name": "votes",
              "type": "uint224",
              "internalType": "uint224"
            }
          ]
        }
      ],
      "stateMutability": "view"
    },
    {
      "type": "function",
      "name": "clock",
      "inputs": [],
      "outputs": [
        {
          "name": "",
          "type": "uint48",
          "internalType": "uint48"
        }
      ],
      "stateMutability": "view"
    },
    {
      "type": "function",
      "name": "decimals",
      "inputs": [],
      "outputs": [
        {
          "name": "",
          "type": "uint8",
          "internalType": "uint8"
        }
      ],
      "stateMutability": "view"
    },
    {
      "type": "function",
      "name": "decreaseAllowance",
      "inputs": [
        {
          "name": "spender",
          "type": "address",
          "internalType": "address"
        },
        {
          "name": "subtractedValue",
          "type": "uint256",
          "internalType": "uint256"
        }
      ],
      "outputs": [
        {
          "name": "",
          "type": "bool",
          "internalType": "bool"
        }
      ],
      "stateMutability": "nonpayable"
    },
    {
      "type": "function",
      "name": "delegate",
      "inputs": [
        {
          "name": "delegatee",
          "type": "address",
          "internalType": "address"
        }
      ],
      "outputs": [],
      "stateMutability": "nonpayable"
    },
    {
      "type": "function",
      "name": "delegateBySig",
      "inputs": [
        {
          "name": "delegatee",
          "type": "address",
          "internalType": "address"
        },
        {
          "name": "nonce",
          "type": "uint256",
          "internalType": "uint256"
        },
        {
          "name": "expiry",
          "type": "uint256",
          "internalType": "uint256"
        },
        {
          "name": "v",
          "type": "uint8",
          "internalType": "uint8"
        },
        {
          "name": "r",
          "type": "bytes32",
          "internalType": "bytes32"
        },
        {
          "name": "s",
          "type": "bytes32",
          "internalType": "bytes32"
        }
      ],
      "outputs": [],
      "stateMutability": "nonpayable"
    },
    {
      "type": "function",
      "name": "delegates",
      "inputs": [
        {
          "name": "account",
          "type": "address",
          "internalType": "address"
        }
      ],
      "outputs": [
        {
          "name": "",
          "type": "address",
          "internalType": "address"
        }
      ],
      "stateMutability": "view"
    },
    {
      "type": "function",
      "name": "eip712Domain",
      "inputs": [],
      "outputs": [
        {
          "name": "fields",
          "type": "bytes1",
          "internalType": "bytes1"
        },
        {
          "name": "name",
          "type": "string",
          "internalType": "string"
        },
        {
          "name": "version",
          "type": "string",
          "internalType": "string"
        },
        {
          "name": "chainId",
          "type": "uint256",
          "internalType": "uint256"
        },
        {
          "name": "verifyingContract",
          "type": "address",
          "internalType": "address"
        },
        {
          "name": "salt",
          "type": "bytes32",
          "internalType": "bytes32"
        },
        {
          "name": "extensions",
          "type": "uint256[]",
          "internalType": "uint256[]"
        }
      ],
      "stateMutability": "view"
    },
    {
      "type": "function",
      "name": "getPastTotalSupply",
      "inputs": [
        {
          "name": "timepoint",
          "type": "uint256",
          "internalType": "uint256"
        }
      ],
      "outputs": [
        {
          "name": "",
          "type": "uint256",
          "internalType": "uint256"
        }
      ],
      "stateMutability": "view"
    },
    {
      "type": "function",
      "name": "getPastVotes",
      "inputs": [
        {
          "name": "account",
          "type": "address",
          "internalType": "address"
        },
        {
          "name": "timepoint",
          "type": "uint256",
          "internalType": "uint256"
        }
      ],
      "outputs": [
        {
          "name": "",
          "type": "uint256",
          "internalType": "uint256"
        }
      ],
      "stateMutability": "view"
    },
    {
      "type": "function",
      "name": "getVotes",
      "inputs": [
        {
          "name": "account",
          "type": "address",
          "internalType": "address"
        }
      ],
      "outputs": [
        {
          "name": "",
          "type": "uint256",
          "internalType": "uint256"
        }
      ],
      "stateMutability": "view"
    },
    {
      "type": "function",
      "name": "increaseAllowance",
      "inputs": [
        {
          "name": "spender",
          "type": "address",
          "internalType": "address"
        },
        {
          "name": "addedValue",
          "type": "uint256",
          "internalType": "uint256"
        }
      ],
      "outputs": [
        {
          "name": "",
          "type": "bool",
          "internalType": "bool"
        }
      ],
      "stateMutability": "nonpayable"
    },
    {
      "type": "function",
      "name": "initialize",
      "inputs": [
        {
          "name": "_owner",
          "type": "address",
          "internalType": "address"
        }
      ],
      "outputs": [],
      "stateMutability": "nonpayable"
    },
    {
      "type": "function",
      "name": "mint",
      "inputs": [
        {
          "name": "_to",
          "type": "address",
          "internalType": "address"
        },
        {
          "name": "_amount",
          "type": "uint256",
          "internalType": "uint256"
        }
      ],
      "outputs": [],
      "stateMutability": "nonpayable"
    },
    {
      "type": "function",
      "name": "name",
      "inputs": [],
      "outputs": [
        {
          "name": "",
          "type": "string",
          "internalType": "string"
        }
      ],
      "stateMutability": "pure"
    },
    {
      "type": "function",
      "name": "nonces",
      "inputs": [
        {
          "name": "owner",
          "type": "address",
          "internalType": "address"
        }
      ],
      "outputs": [
        {
          "name": "",
          "type": "uint256",
          "internalType": "uint256"
        }
      ],
      "stateMutability": "view"
    },
    {
      "type": "function",
      "name": "numCheckpoints",
      "inputs": [
        {
          "name": "account",
          "type": "address",
          "internalType": "address"
        }
      ],
      "outputs": [
        {
          "name": "",
          "type": "uint32",
          "internalType": "uint32"
        }
      ],
      "stateMutability": "view"
    },
    {
      "type": "function",
      "name": "owner",
      "inputs": [],
      "outputs": [
        {
          "name": "",
          "type": "address",
          "internalType": "address"
        }
      ],
      "stateMutability": "view"
    },
    {
      "type": "function",
      "name": "pendingOwner",
      "inputs": [],
      "outputs": [
        {
          "name": "",
          "type": "address",
          "internalType": "address"
        }
      ],
      "stateMutability": "view"
    },
    {
      "type": "function",
      "name": "permit",
      "inputs": [
        {
          "name": "owner",
          "type": "address",
          "internalType": "address"
        },
        {
          "name": "spender",
          "type": "address",
          "internalType": "address"
        },
        {
          "name": "value",
          "type": "uint256",
          "internalType": "uint256"
        },
        {
          "name": "deadline",
          "type": "uint256",
          "internalType": "uint256"
        },
        {
          "name": "v",
          "type": "uint8",
          "internalType": "uint8"
        },
        {
          "name": "r",
          "type": "bytes32",
          "internalType": "bytes32"
        },
        {
          "name": "s",
          "type": "bytes32",
          "internalType": "bytes32"
        }
      ],
      "outputs": [],
      "stateMutability": "nonpayable"
    },
    {
      "type": "function",
      "name": "renounceOwnership",
      "inputs": [],
      "outputs": [],
      "stateMutability": "nonpayable"
    },
    {
      "type": "function",
      "name": "supportsInterface",
      "inputs": [
        {
          "name": "_interfaceId",
          "type": "bytes4",
          "internalType": "bytes4"
        }
      ],
      "outputs": [
        {
          "name": "",
          "type": "bool",
          "internalType": "bool"
        }
      ],
      "stateMutability": "pure"
    },
    {
      "type": "function",
      "name": "symbol",
      "inputs": [],
      "outputs": [
        {
          "name": "",
          "type": "string",
          "internalType": "string"
        }
      ],
      "stateMutability": "pure"
    },
    {
      "type": "function",
      "name": "totalSupply",
      "inputs": [],
      "outputs": [
        {
          "name": "",
          "type": "uint256",
          "internalType": "uint256"
        }
      ],
      "stateMutability": "view"
    },
    {
      "type": "function",
      "name": "transfer",
      "inputs": [
        {
          "name": "to",
          "type": "address",
          "internalType": "address"
        },
        {
          "name": "amount",
          "type": "uint256",
          "internalType": "uint256"
        }
      ],
      "outputs": [
        {
          "name": "",
          "type": "bool",
          "internalType": "bool"
        }
      ],
      "stateMutability": "nonpayable"
    },
    {
      "type": "function",
      "name": "transferFrom",
      "inputs": [
        {
          "name": "from",
          "type": "address",
          "internalType": "address"
        },
        {
          "name": "to",
          "type": "address",
          "internalType": "address"
        },
        {
          "name": "amount",
          "type": "uint256",
          "internalType": "uint256"
        }
      ],
      "outputs": [
        {
          "name": "",
          "type": "bool",
          "internalType": "bool"
        }
      ],
      "stateMutability": "nonpayable"
    },
    {
      "type": "function",
      "name": "transferOwnership",
      "inputs": [
        {
          "name": "newOwner",
          "type": "address",
          "internalType": "address"
        }
      ],
      "outputs": [],
      "stateMutability": "nonpayable"
    },
    {
      "type": "function",
      "name": "version",
      "inputs": [],
      "outputs": [
        {
          "name": "",
          "type": "string",
          "internalType": "string"
        }
      ],
      "stateMutability": "view"
    },
    {
      "type": "event",
      "name": "Approval",
      "inputs": [
        {
          "name": "owner",
          "type": "address",
          "indexed": true,
          "internalType": "address"
        },
        {
          "name": "spender",
          "type": "address",
          "indexed": true,
          "internalType": "address"
        },
        {
          "name": "value",
          "type": "uint256",
          "indexed": false,
          "internalType": "uint256"
        }
      ],
      "anonymous": false
    },
    {
      "type": "event",
      "name": "Burn",
      "inputs": [
        {
          "name": "account",
          "type": "address",
          "indexed": true,
          "internalType": "address"
        },
        {
          "name": "amount",
          "type": "uint256",
          "indexed": false,
          "internalType": "uint256"
        }
      ],
      "anonymous": false
    },
    {
      "type": "event",
      "name": "DelegateChanged",
      "inputs": [
        {
          "name": "delegator",
          "type": "address",
          "indexed": true,
          "internalType": "address"
        },
        {
          "name": "fromDelegate",
          "type": "address",
          "indexed": true,
          "internalType": "address"
        },
        {
          "name": "toDelegate",
          "type": "address",
          "indexed": true,
          "internalType": "address"
        }
      ],
      "anonymous": false
    },
    {
      "type": "event",
      "name": "DelegateVotesChanged",
      "inputs": [
        {
          "name": "delegate",
          "type": "address",
          "indexed": true,
          "internalType": "address"
        },
        {
          "name": "previousBalance",
          "type": "uint256",
          "indexed": false,
          "internalType": "uint256"
        },
        {
          "name": "newBalance",
          "type": "uint256",
          "indexed": false,
          "internalType": "uint256"
        }
      ],
      "anonymous": false
    },
    {
      "type": "event",
      "name": "EIP712DomainChanged",
      "inputs": [],
      "anonymous": false
    },
    {
      "type": "event",
      "name": "Initialized",
      "inputs": [
        {
          "name": "version",
          "type": "uint8",
          "indexed": false,
          "internalType": "uint8"
        }
      ],
      "anonymous": false
    },
    {
      "type": "event",
      "name": "Mint",
      "inputs": [
        {
          "name": "account",
          "type": "address",
          "indexed": true,
          "internalType": "address"
        },
        {
          "name": "amount",
          "type": "uint256",
          "indexed": false,
          "internalType": "uint256"
        }
      ],
      "anonymous": false
    },
    {
      "type": "event",
      "name": "OwnershipTransferStarted",
      "inputs": [
        {
          "name": "previousOwner",
          "type": "address",
          "indexed": true,
          "internalType": "address"
        },
        {
          "name": "newOwner",
          "type": "address",
          "indexed": true,
          "internalType": "address"
        }
      ],
      "anonymous": false
    },
    {
      "type": "event",
      "name": "OwnershipTransferred",
      "inputs": [
        {
          "name": "previousOwner",
          "type": "address",
          "indexed": true,
          "internalType": "address"
        },
        {
          "name": "newOwner",
          "type": "address",
          "indexed": true,
          "internalType": "address"
        }
      ],
      "anonymous": false
    },
    {
      "type": "event",
      "name": "Transfer",
      "inputs": [
        {
          "name": "from",
          "type": "address",
          "indexed": true,
          "internalType": "address"
        },
        {
          "name": "to",
          "type": "address",
          "indexed": true,
          "internalType": "address"
        },
        {
          "name": "value",
          "type": "uint256",
          "indexed": false,
          "internalType": "uint256"
        }
      ],
      "anonymous": false
    },
    {
      "type": "error",
      "name": "InvalidShortString",
      "inputs": []
    },
    {
      "type": "error",
      "name": "StringTooLong",
      "inputs": [
        {
          "name": "str",
          "type": "string",
          "internalType": "string"
        }
      ]
    }
  ],
  "transactionHash": "0xf3ecf2eb3e34baf4b1de02eea7053c95b469ee54a897a4fad215ef6c51835881",
  "args": [
    "0x827962404D7104202C5aaa6b929115C8211d9596",
    "0x25500000d700bbE27104577CCcce8eAbCC96c8ad"
  ],
  "numDeployments": 1,
  "solcInputHash": "1cc21f973aa4cfc73d832518987f54f8",
  "bytecode": "0x6101a06040523480156200001257600080fd5b506040516200369838038062003698833981016040819052620000359162000321565b604051806040016040528060058152602001644b726f6d6160d81b81525080604051806040016040528060018152602001603160f81b8152508484604051806020016040528060008152506040518060200160405280600081525081818160039081620000a39190620003fe565b506004620000b28282620003fe565b505050506001600160a01b03918216608052501660a052620000e2826005620001ac602090811b620012fb17901c565b61016052620000ff816006620001ac602090811b620012fb17901c565b61018052815160208084019190912061012052815190820120610140524660e0526200018f6101205161014051604080517f8b73c3c69bb8fe3d512ecc4cf759cc79239f7b179b0ffacaa9a75d522b39400f60208201529081019290925260608201524660808201523060a082015260009060c00160405160208183030381529060405280519060200120905090565b60c0525050306101005250620001a4620001fc565b505062000547565b6000602083511015620001cc57620001c483620002be565b9050620001f6565b82620001e3836200030160201b6200132c1760201c565b90620001f09082620003fe565b5060ff90505b92915050565b600c54610100900460ff16156200026a5760405162461bcd60e51b815260206004820152602760248201527f496e697469616c697a61626c653a20636f6e747261637420697320696e697469604482015266616c697a696e6760c81b60648201526084015b60405180910390fd5b600c5460ff90811614620002bc57600c805460ff191660ff9081179091556040519081527f7f26b83ff96e1f2b6a682f133852f6798a09c465da95921460cefb38474024989060200160405180910390a15b565b600080829050601f81511115620002ec578260405163305a27a960e01b8152600401620002619190620004ca565b8051620002f98262000522565b179392505050565b90565b80516001600160a01b03811681146200031c57600080fd5b919050565b600080604083850312156200033557600080fd5b620003408362000304565b9150620003506020840162000304565b90509250929050565b634e487b7160e01b600052604160045260246000fd5b600181811c908216806200038457607f821691505b602082108103620003a557634e487b7160e01b600052602260045260246000fd5b50919050565b601f821115620003f957600081815260208120601f850160051c81016020861015620003d45750805b601f850160051c820191505b81811015620003f557828155600101620003e0565b5050505b505050565b81516001600160401b038111156200041a576200041a62000359565b62000432816200042b84546200036f565b84620003ab565b602080601f8311600181146200046a5760008415620004515750858301515b600019600386901b1c1916600185901b178555620003f5565b600085815260208120601f198616915b828110156200049b578886015182559484019460019091019084016200047a565b5085821015620004ba5787850151600019600388901b60f8161c191681555b5050505050600190811b01905550565b600060208083528351808285015260005b81811015620004f957858101830151858201604001528201620004db565b818111156200050c576000604083870101525b50601f01601f1916929092016040019392505050565b80516020808301519190811015620003a55760001960209190910360031b1b16919050565b60805160a05160c05160e05161010051610120516101405161016051610180516130d2620005c66000396000610ad001526000610aa5015260006117e6015260006117be01526000611719015260006117430152600061176d0152600081816106110152818161085d0152610c69015260006102a901526130d26000f3fe608060405234801561001057600080fd5b50600436106102775760003560e01c806379ba509711610160578063a457c2d7116100d8578063dd62ed3e1161008c578063ee9a31a211610071578063ee9a31a21461060c578063f1127ed814610633578063f2fde38b1461068557600080fd5b8063dd62ed3e146105c2578063e30c3978146105fb57600080fd5b8063c3cda520116100bd578063c3cda52014610589578063c4d66de81461059c578063d505accf146105af57600080fd5b8063a457c2d714610563578063a9059cbb1461057657600080fd5b80638e539e8c1161012f57806395d89b411161011457806395d89b41146105045780639ab24eb01461053d5780639dc29fac1461055057600080fd5b80638e539e8c146104d257806391ddadf4146104e557600080fd5b806379ba50971461048b5780637ecebe001461049357806384b0196e146104a65780638da5cb5b146104c157600080fd5b80633a46b1a8116101f3578063587cde1e116101c25780636fcfff45116101a75780636fcfff451461043257806370a082311461045a578063715018a61461048357600080fd5b8063587cde1e146103f35780635c19a95c1461041f57600080fd5b80633a46b1a81461038757806340c10f191461039a5780634bf5d7e9146103af57806354fd4d50146103b757600080fd5b806318160ddd1161024a578063313ce5671161022f578063313ce5671461035d5780633644e5151461036c578063395093511461037457600080fd5b806318160ddd1461033857806323b872dd1461034a57600080fd5b806301ffc9a71461027c578063033964be146102a457806306fdde03146102e3578063095ea7b314610325575b600080fd5b61028f61028a366004612a65565b610698565b60405190151581526020015b60405180910390f35b6102cb7f000000000000000000000000000000000000000000000000000000000000000081565b6040516001600160a01b03909116815260200161029b565b60408051808201909152600581527f4b726f6d6100000000000000000000000000000000000000000000000000000060208201525b60405161029b9190612b12565b61028f610333366004612b41565b610738565b6002545b60405190815260200161029b565b61028f610358366004612b6b565b610752565b6040516012815260200161029b565b61033c610776565b61028f610382366004612b41565b610785565b61033c610395366004612b41565b6107c4565b6103ad6103a8366004612b41565b610852565b005b610318610913565b6103186040518060400160405280600581526020017f312e302e3000000000000000000000000000000000000000000000000000000081525081565b6102cb610401366004612ba7565b6001600160a01b039081166000908152600960205260409020541690565b6103ad61042d366004612ba7565b6109ab565b610445610440366004612ba7565b6109b8565b60405163ffffffff909116815260200161029b565b61033c610468366004612ba7565b6001600160a01b031660009081526020819052604090205490565b6103ad6109da565b6103ad6109ee565b61033c6104a1366004612ba7565b610a79565b6104ae610a97565b60405161029b9796959493929190612bc2565b603f546001600160a01b03166102cb565b61033c6104e0366004612c74565b610b3c565b6104ed610ba7565b60405165ffffffffffff909116815260200161029b565b60408051808201909152600381527f4b524f00000000000000000000000000000000000000000000000000000000006020820152610318565b61033c61054b366004612ba7565b610bb2565b6103ad61055e366004612b41565b610c5e565b61028f610571366004612b41565b610d06565b61028f610584366004612b41565b610db0565b6103ad610597366004612c9e565b610dbe565b6103ad6105aa366004612ba7565b610ef4565b6103ad6105bd366004612cf6565b611075565b61033c6105d0366004612d60565b6001600160a01b03918216600090815260016020908152604080832093909416825291909152205490565b6071546001600160a01b03166102cb565b6102cb7f000000000000000000000000000000000000000000000000000000000000000081565b610646610641366004612d93565b6111d9565b60408051825163ffffffff1681526020928301517bffffffffffffffffffffffffffffffffffffffffffffffffffffffff16928101929092520161029b565b6103ad610693366004612ba7565b611272565b60007f01ffc9a7000000000000000000000000000000000000000000000000000000007f30a0c5a9000000000000000000000000000000000000000000000000000000007fffffffff00000000000000000000000000000000000000000000000000000000841682148061073057507fffffffff00000000000000000000000000000000000000000000000000000000848116908216145b949350505050565b60003361074681858561132f565b60019150505b92915050565b600033610760858285611487565b61076b858585611519565b506001949350505050565b600061078061170c565b905090565b3360008181526001602090815260408083206001600160a01b038716845290915281205490919061074690829086906107bf908790612e02565b61132f565b60006107ce610ba7565b65ffffffffffff1682106108295760405162461bcd60e51b815260206004820152601960248201527f4552433230566f7465733a20667574757265206c6f6f6b75700000000000000060448201526064015b60405180910390fd5b6001600160a01b0383166000908152600a6020526040902061084b9083611837565b9392505050565b336001600160a01b037f00000000000000000000000000000000000000000000000000000000000000001614806108935750603f546001600160a01b031633145b6109055760405162461bcd60e51b815260206004820152602e60248201527f476f7665726e616e6365546f6b656e3a206f6e6c7920627269646765206f722060448201527f6f776e65722063616e206d696e740000000000000000000000000000000000006064820152608401610820565b61090f828261194a565b5050565b60604361091e610ba7565b65ffffffffffff16146109735760405162461bcd60e51b815260206004820152601d60248201527f4552433230566f7465733a2062726f6b656e20636c6f636b206d6f64650000006044820152606401610820565b5060408051808201909152601d81527f6d6f64653d626c6f636b6e756d6265722666726f6d3d64656661756c74000000602082015290565b6109b5338261199b565b50565b6001600160a01b0381166000908152600a602052604081205461074c90611a2c565b6109e2611aac565b6109ec6000611b06565b565b60715433906001600160a01b03168114610a705760405162461bcd60e51b815260206004820152602960248201527f4f776e61626c6532537465703a2063616c6c6572206973206e6f74207468652060448201527f6e6577206f776e657200000000000000000000000000000000000000000000006064820152608401610820565b6109b581611b06565b6001600160a01b03811660009081526007602052604081205461074c565b600060608082808083610acb7f00000000000000000000000000000000000000000000000000000000000000006005611b37565b610af67f00000000000000000000000000000000000000000000000000000000000000006006611b37565b604080516000808252602082019092527f0f000000000000000000000000000000000000000000000000000000000000009b939a50919850469750309650945092509050565b6000610b46610ba7565b65ffffffffffff168210610b9c5760405162461bcd60e51b815260206004820152601960248201527f4552433230566f7465733a20667574757265206c6f6f6b7570000000000000006044820152606401610820565b61074c600b83611837565b600061078043611bdb565b6001600160a01b0381166000908152600a60205260408120548015610c36576001600160a01b0383166000908152600a6020526040902080546000198301908110610bff57610bff612e49565b60009182526020909120015464010000000090047bffffffffffffffffffffffffffffffffffffffffffffffffffffffff16610c39565b60005b7bffffffffffffffffffffffffffffffffffffffffffffffffffffffff169392505050565b336001600160a01b037f00000000000000000000000000000000000000000000000000000000000000001614610cfc5760405162461bcd60e51b815260206004820152603160248201527f4b726f6d614d696e7461626c6545524332303a206f6e6c79206272696467652060448201527f63616e206d696e7420616e64206275726e0000000000000000000000000000006064820152608401610820565b61090f8282611c59565b3360008181526001602090815260408083206001600160a01b038716845290915281205490919083811015610da35760405162461bcd60e51b815260206004820152602560248201527f45524332303a2064656372656173656420616c6c6f77616e63652062656c6f7760448201527f207a65726f0000000000000000000000000000000000000000000000000000006064820152608401610820565b61076b828686840361132f565b600033610746818585611519565b83421115610e0e5760405162461bcd60e51b815260206004820152601d60248201527f4552433230566f7465733a207369676e617475726520657870697265640000006044820152606401610820565b604080517fe48329057bfd03d55e49b547132e39cffd9c1820ad7b9d4c5307691425d15adf60208201526001600160a01b038816918101919091526060810186905260808101859052600090610e8890610e809060a00160405160208183030381529060405280519060200120611c9e565b858585611ce6565b9050610e9381611d0e565b8614610ee15760405162461bcd60e51b815260206004820152601960248201527f4552433230566f7465733a20696e76616c6964206e6f6e6365000000000000006044820152606401610820565b610eeb818861199b565b50505050505050565b600c54610100900460ff1615808015610f145750600c54600160ff909116105b80610f2e5750303b158015610f2e5750600c5460ff166001145b610fa05760405162461bcd60e51b815260206004820152602e60248201527f496e697469616c697a61626c653a20636f6e747261637420697320616c72656160448201527f647920696e697469616c697a65640000000000000000000000000000000000006064820152608401610820565b600c80547fffffffffffffffffffffffffffffffffffffffffffffffffffffffffffffff001660011790558015610ffe57600c80547fffffffffffffffffffffffffffffffffffffffffffffffffffffffffffff00ff166101001790555b611006611d36565b61100f82611272565b801561090f57600c80547fffffffffffffffffffffffffffffffffffffffffffffffffffffffffffff00ff169055604051600181527f7f26b83ff96e1f2b6a682f133852f6798a09c465da95921460cefb38474024989060200160405180910390a15050565b834211156110c55760405162461bcd60e51b815260206004820152601d60248201527f45524332305065726d69743a206578706972656420646561646c696e650000006044820152606401610820565b60007f6e71edae12b1b97f4d1f60370fef10105fa2faae0126114a169c64845d6126c98888886110f48c611d0e565b6040805160208101969096526001600160a01b0394851690860152929091166060840152608083015260a082015260c0810186905260e001604051602081830303815290604052805190602001209050600061114f82611c9e565b9050600061115f82878787611ce6565b9050896001600160a01b0316816001600160a01b0316146111c25760405162461bcd60e51b815260206004820152601e60248201527f45524332305065726d69743a20696e76616c6964207369676e617475726500006044820152606401610820565b6111cd8a8a8a61132f565b50505050505050505050565b60408051808201909152600080825260208201526001600160a01b0383166000908152600a60205260409020805463ffffffff841690811061121d5761121d612e49565b60009182526020918290206040805180820190915291015463ffffffff8116825264010000000090047bffffffffffffffffffffffffffffffffffffffffffffffffffffffff16918101919091529392505050565b61127a611aac565b607180546001600160a01b0383167fffffffffffffffffffffffff000000000000000000000000000000000000000090911681179091556112c3603f546001600160a01b031690565b6001600160a01b03167f38d16b8cac22d99fc7c124b9cd0de2d3fa1faef420bfe791d8c362d765e2270060405160405180910390a350565b60006020835110156113175761131083611dbb565b905061074c565b816113228482612f13565b5060ff905061074c565b90565b6001600160a01b0383166113aa5760405162461bcd60e51b8152602060048201526024808201527f45524332303a20617070726f76652066726f6d20746865207a65726f2061646460448201527f72657373000000000000000000000000000000000000000000000000000000006064820152608401610820565b6001600160a01b0382166114265760405162461bcd60e51b815260206004820152602260248201527f45524332303a20617070726f766520746f20746865207a65726f20616464726560448201527f73730000000000000000000000000000000000000000000000000000000000006064820152608401610820565b6001600160a01b0383811660008181526001602090815260408083209487168084529482529182902085905590518481527f8c5be1e5ebec7d5bd14f71427d1e84f3dd0314c0f7b2291e5b200ac8c7c3b925910160405180910390a3505050565b6001600160a01b03838116600090815260016020908152604080832093861683529290522054600019811461151357818110156115065760405162461bcd60e51b815260206004820152601d60248201527f45524332303a20696e73756666696369656e7420616c6c6f77616e63650000006044820152606401610820565b611513848484840361132f565b50505050565b6001600160a01b0383166115955760405162461bcd60e51b815260206004820152602560248201527f45524332303a207472616e736665722066726f6d20746865207a65726f20616460448201527f64726573730000000000000000000000000000000000000000000000000000006064820152608401610820565b6001600160a01b0382166116115760405162461bcd60e51b815260206004820152602360248201527f45524332303a207472616e7366657220746f20746865207a65726f206164647260448201527f65737300000000000000000000000000000000000000000000000000000000006064820152608401610820565b6001600160a01b038316600090815260208190526040902054818110156116a05760405162461bcd60e51b815260206004820152602660248201527f45524332303a207472616e7366657220616d6f756e742065786365656473206260448201527f616c616e636500000000000000000000000000000000000000000000000000006064820152608401610820565b6001600160a01b03848116600081815260208181526040808320878703905593871680835291849020805487019055925185815290927fddf252ad1be2c89b69c2b068fc378daa952ba7f163c4a11628f55a4df523b3ef910160405180910390a3611513848484611e17565b6000306001600160a01b037f00000000000000000000000000000000000000000000000000000000000000001614801561176557507f000000000000000000000000000000000000000000000000000000000000000046145b1561178f57507f000000000000000000000000000000000000000000000000000000000000000090565b610780604080517f8b73c3c69bb8fe3d512ecc4cf759cc79239f7b179b0ffacaa9a75d522b39400f60208201527f0000000000000000000000000000000000000000000000000000000000000000918101919091527f000000000000000000000000000000000000000000000000000000000000000060608201524660808201523060a082015260009060c00160405160208183030381529060405280519060200120905090565b81546000908181600581111561189157600061185284611e22565b61185c9085612ff1565b600088815260209020909150869082015463ffffffff1611156118815780915061188f565b61188c816001612e02565b92505b505b808210156118de5760006118a58383611f0a565b600088815260209020909150869082015463ffffffff1611156118ca578091506118d8565b6118d5816001612e02565b92505b50611891565b801561191f576000868152602090208101600019015464010000000090047bffffffffffffffffffffffffffffffffffffffffffffffffffffffff16611922565b60005b7bffffffffffffffffffffffffffffffffffffffffffffffffffffffff169695505050505050565b6119548282611f25565b816001600160a01b03167f0f6798a560793a54c3bcfe86a93cde1e73087d944c0ea20544137d41213968858260405161198f91815260200190565b60405180910390a25050565b6001600160a01b038281166000818152600960208181526040808420805485845282862054949093528787167fffffffffffffffffffffffff00000000000000000000000000000000000000008416811790915590519190951694919391928592917f3134e8a2e6d97e929a7e54011ea5485d7d196dd5f0ba4d4ef95803e8e3fc257f9190a4611513828483611fd1565b600063ffffffff821115611aa85760405162461bcd60e51b815260206004820152602660248201527f53616665436173743a2076616c756520646f65736e27742066697420696e203360448201527f32206269747300000000000000000000000000000000000000000000000000006064820152608401610820565b5090565b603f546001600160a01b031633146109ec5760405162461bcd60e51b815260206004820181905260248201527f4f776e61626c653a2063616c6c6572206973206e6f7420746865206f776e65726044820152606401610820565b607180547fffffffffffffffffffffffff00000000000000000000000000000000000000001690556109b58161210e565b606060ff8314611b4a5761131083612178565b818054611b5690612e78565b80601f0160208091040260200160405190810160405280929190818152602001828054611b8290612e78565b8015611bcf5780601f10611ba457610100808354040283529160200191611bcf565b820191906000526020600020905b815481529060010190602001808311611bb257829003601f168201915b5050505050905061074c565b600065ffffffffffff821115611aa85760405162461bcd60e51b815260206004820152602660248201527f53616665436173743a2076616c756520646f65736e27742066697420696e203460448201527f38206269747300000000000000000000000000000000000000000000000000006064820152608401610820565b611c6382826121b7565b816001600160a01b03167fcc16f5dbb4873280815c1ee09dbd06736cffcc184412cf7a71a0fdb75d397ca58260405161198f91815260200190565b600061074c611cab61170c565b836040517f19010000000000000000000000000000000000000000000000000000000000008152600281019290925260228201526042902090565b6000806000611cf7878787876121cf565b91509150611d04816122b1565b5095945050505050565b6001600160a01b03811660009081526007602052604090208054600181018255905b50919050565b600c54610100900460ff16611db35760405162461bcd60e51b815260206004820152602b60248201527f496e697469616c697a61626c653a20636f6e7472616374206973206e6f74206960448201527f6e697469616c697a696e670000000000000000000000000000000000000000006064820152608401610820565b6109ec612416565b600080829050601f81511115611dff57826040517f305a27a90000000000000000000000000000000000000000000000000000000081526004016108209190612b12565b8051611e0a82613008565b179392505050565b505050565b611e1283838361249c565b600081600003611e3457506000919050565b60006001611e41846124ce565b901c6001901b90506001818481611e5a57611e5a61302c565b048201901c90506001818481611e7257611e7261302c565b048201901c90506001818481611e8a57611e8a61302c565b048201901c90506001818481611ea257611ea261302c565b048201901c90506001818481611eba57611eba61302c565b048201901c90506001818481611ed257611ed261302c565b048201901c90506001818481611eea57611eea61302c565b048201901c905061084b81828581611f0457611f0461302c565b04612562565b6000611f19600284841861305b565b61084b90848416612e02565b611f2f8282612578565b6002547bffffffffffffffffffffffffffffffffffffffffffffffffffffffff1015611fc35760405162461bcd60e51b815260206004820152603060248201527f4552433230566f7465733a20746f74616c20737570706c79207269736b73206f60448201527f766572666c6f77696e6720766f746573000000000000000000000000000000006064820152608401610820565b611513600b61263f8361264b565b816001600160a01b0316836001600160a01b031614158015611ff35750600081115b15611e12576001600160a01b03831615612081576001600160a01b0383166000908152600a60205260408120819061202e906128148561264b565b91509150846001600160a01b03167fdec2bacdd2f05b59de34da9b523dff8be42e5e38e818c82fdb0bae774387a7248383604051612076929190918252602082015260400190565b60405180910390a250505b6001600160a01b03821615611e12576001600160a01b0382166000908152600a6020526040812081906120b79061263f8561264b565b91509150836001600160a01b03167fdec2bacdd2f05b59de34da9b523dff8be42e5e38e818c82fdb0bae774387a72483836040516120ff929190918252602082015260400190565b60405180910390a25050505050565b603f80546001600160a01b038381167fffffffffffffffffffffffff0000000000000000000000000000000000000000831681179093556040519116919082907f8be0079c531659141344cd1fd0a4f28419497f9722a3daafe3b4186f6b6457e090600090a35050565b6060600061218583612820565b604080516020808252818301909252919250600091906020820181803683375050509182525060208101929092525090565b6121c18282612861565b611513600b6128148361264b565b6000807f7fffffffffffffffffffffffffffffff5d576e7357a4501ddfe92f46681b20a083111561220657506000905060036122a8565b6040805160008082526020820180845289905260ff881692820192909252606081018690526080810185905260019060a0016020604051602081039080840390855afa15801561225a573d6000803e3d6000fd5b50506040517fffffffffffffffffffffffffffffffffffffffffffffffffffffffffffffffe001519150506001600160a01b0381166122a1576000600192509250506122a8565b9150600090505b94509492505050565b60008160048111156122c5576122c5613096565b036122cd5750565b60018160048111156122e1576122e1613096565b0361232e5760405162461bcd60e51b815260206004820152601860248201527f45434453413a20696e76616c6964207369676e617475726500000000000000006044820152606401610820565b600281600481111561234257612342613096565b0361238f5760405162461bcd60e51b815260206004820152601f60248201527f45434453413a20696e76616c6964207369676e6174757265206c656e677468006044820152606401610820565b60038160048111156123a3576123a3613096565b036109b55760405162461bcd60e51b815260206004820152602260248201527f45434453413a20696e76616c6964207369676e6174757265202773272076616c60448201527f75650000000000000000000000000000000000000000000000000000000000006064820152608401610820565b600c54610100900460ff166124935760405162461bcd60e51b815260206004820152602b60248201527f496e697469616c697a61626c653a20636f6e7472616374206973206e6f74206960448201527f6e697469616c697a696e670000000000000000000000000000000000000000006064820152608401610820565b6109ec33611b06565b6001600160a01b03838116600090815260096020526040808220548584168352912054611e1292918216911683611fd1565b600080608083901c156124e357608092831c92015b604083901c156124f557604092831c92015b602083901c1561250757602092831c92015b601083901c1561251957601092831c92015b600883901c1561252b57600892831c92015b600483901c1561253d57600492831c92015b600283901c1561254f57600292831c92015b600183901c1561074c5760010192915050565b6000818310612571578161084b565b5090919050565b6001600160a01b0382166125ce5760405162461bcd60e51b815260206004820152601f60248201527f45524332303a206d696e7420746f20746865207a65726f2061646472657373006044820152606401610820565b80600260008282546125e09190612e02565b90915550506001600160a01b038216600081815260208181526040808320805486019055518481527fddf252ad1be2c89b69c2b068fc378daa952ba7f163c4a11628f55a4df523b3ef910160405180910390a361090f60008383611e17565b600061084b8284612e02565b825460009081908181156126ad5760008781526020902082016000190160408051808201909152905463ffffffff8116825264010000000090047bffffffffffffffffffffffffffffffffffffffffffffffffffffffff1660208201526126c2565b60408051808201909152600080825260208201525b905080602001517bffffffffffffffffffffffffffffffffffffffffffffffffffffffff1693506126f784868863ffffffff16565b9250600082118015612721575061270c610ba7565b65ffffffffffff16816000015163ffffffff16145b1561277b5761272f836129d1565b60008881526020902083016000190180547bffffffffffffffffffffffffffffffffffffffffffffffffffffffff929092166401000000000263ffffffff90921691909117905561280a565b86604051806040016040528061279f612792610ba7565b65ffffffffffff16611a2c565b63ffffffff1681526020016127b3866129d1565b7bffffffffffffffffffffffffffffffffffffffffffffffffffffffff90811690915282546001810184556000938452602093849020835194909301519091166401000000000263ffffffff909316929092179101555b5050935093915050565b600061084b8284612ff1565b600060ff8216601f81111561074c576040517fb3512b0c00000000000000000000000000000000000000000000000000000000815260040160405180910390fd5b6001600160a01b0382166128dd5760405162461bcd60e51b815260206004820152602160248201527f45524332303a206275726e2066726f6d20746865207a65726f2061646472657360448201527f73000000000000000000000000000000000000000000000000000000000000006064820152608401610820565b6001600160a01b0382166000908152602081905260409020548181101561296c5760405162461bcd60e51b815260206004820152602260248201527f45524332303a206275726e20616d6f756e7420657863656564732062616c616e60448201527f63650000000000000000000000000000000000000000000000000000000000006064820152608401610820565b6001600160a01b0383166000818152602081815260408083208686039055600280548790039055518581529192917fddf252ad1be2c89b69c2b068fc378daa952ba7f163c4a11628f55a4df523b3ef910160405180910390a3611e1283600084611e17565b60007bffffffffffffffffffffffffffffffffffffffffffffffffffffffff821115611aa85760405162461bcd60e51b815260206004820152602760248201527f53616665436173743a2076616c756520646f65736e27742066697420696e203260448201527f32342062697473000000000000000000000000000000000000000000000000006064820152608401610820565b600060208284031215612a7757600080fd5b81357fffffffff000000000000000000000000000000000000000000000000000000008116811461084b57600080fd5b6000815180845260005b81811015612acd57602081850181015186830182015201612ab1565b81811115612adf576000602083870101525b50601f017fffffffffffffffffffffffffffffffffffffffffffffffffffffffffffffffe0169290920160200192915050565b60208152600061084b6020830184612aa7565b80356001600160a01b0381168114612b3c57600080fd5b919050565b60008060408385031215612b5457600080fd5b612b5d83612b25565b946020939093013593505050565b600080600060608486031215612b8057600080fd5b612b8984612b25565b9250612b9760208501612b25565b9150604084013590509250925092565b600060208284031215612bb957600080fd5b61084b82612b25565b7fff00000000000000000000000000000000000000000000000000000000000000881681526000602060e081840152612bfe60e084018a612aa7565b8381036040850152612c10818a612aa7565b606085018990526001600160a01b038816608086015260a0850187905284810360c0860152855180825283870192509083019060005b81811015612c6257835183529284019291840191600101612c46565b50909c9b505050505050505050505050565b600060208284031215612c8657600080fd5b5035919050565b803560ff81168114612b3c57600080fd5b60008060008060008060c08789031215612cb757600080fd5b612cc087612b25565b95506020870135945060408701359350612cdc60608801612c8d565b92506080870135915060a087013590509295509295509295565b600080600080600080600060e0888a031215612d1157600080fd5b612d1a88612b25565b9650612d2860208901612b25565b95506040880135945060608801359350612d4460808901612c8d565b925060a0880135915060c0880135905092959891949750929550565b60008060408385031215612d7357600080fd5b612d7c83612b25565b9150612d8a60208401612b25565b90509250929050565b60008060408385031215612da657600080fd5b612daf83612b25565b9150602083013563ffffffff81168114612dc857600080fd5b809150509250929050565b7f4e487b7100000000000000000000000000000000000000000000000000000000600052601160045260246000fd5b60008219821115612e1557612e15612dd3565b500190565b7f4e487b7100000000000000000000000000000000000000000000000000000000600052604160045260246000fd5b7f4e487b7100000000000000000000000000000000000000000000000000000000600052603260045260246000fd5b600181811c90821680612e8c57607f821691505b602082108103611d30577f4e487b7100000000000000000000000000000000000000000000000000000000600052602260045260246000fd5b601f821115611e1257600081815260208120601f850160051c81016020861015612eec5750805b601f850160051c820191505b81811015612f0b57828155600101612ef8565b505050505050565b815167ffffffffffffffff811115612f2d57612f2d612e1a565b612f4181612f3b8454612e78565b84612ec5565b602080601f831160018114612f765760008415612f5e5750858301515b600019600386901b1c1916600185901b178555612f0b565b6000858152602081207fffffffffffffffffffffffffffffffffffffffffffffffffffffffffffffffe08616915b82811015612fc357888601518255948401946001909101908401612fa4565b5085821015612fe15787850151600019600388901b60f8161c191681555b5050505050600190811b01905550565b60008282101561300357613003612dd3565b500390565b80516020808301519190811015611d305760001960209190910360031b1b16919050565b7f4e487b7100000000000000000000000000000000000000000000000000000000600052601260045260246000fd5b600082613091577f4e487b7100000000000000000000000000000000000000000000000000000000600052601260045260246000fd5b500490565b7f4e487b7100000000000000000000000000000000000000000000000000000000600052602160045260246000fdfea164736f6c634300080f000a",
  "devdoc": {},
  "userdoc": {},
  "storageLayout": {
    "storage": [
      {
        "astId": 1333,
        "contract": "contracts/governance/GovernanceToken.sol:GovernanceToken",
        "label": "_balances",
        "offset": 0,
        "slot": "0",
        "type": "t_mapping(t_address,t_uint256)"
      },
      {
        "astId": 1339,
        "contract": "contracts/governance/GovernanceToken.sol:GovernanceToken",
        "label": "_allowances",
        "offset": 0,
        "slot": "1",
        "type": "t_mapping(t_address,t_mapping(t_address,t_uint256))"
      },
      {
        "astId": 1341,
        "contract": "contracts/governance/GovernanceToken.sol:GovernanceToken",
        "label": "_totalSupply",
        "offset": 0,
        "slot": "2",
        "type": "t_uint256"
      },
      {
        "astId": 1343,
        "contract": "contracts/governance/GovernanceToken.sol:GovernanceToken",
        "label": "_name",
        "offset": 0,
        "slot": "3",
        "type": "t_string_storage"
      },
      {
        "astId": 1345,
        "contract": "contracts/governance/GovernanceToken.sol:GovernanceToken",
        "label": "_symbol",
        "offset": 0,
        "slot": "4",
        "type": "t_string_storage"
      },
      {
        "astId": 3999,
        "contract": "contracts/governance/GovernanceToken.sol:GovernanceToken",
        "label": "_nameFallback",
        "offset": 0,
        "slot": "5",
        "type": "t_string_storage"
      },
      {
        "astId": 4001,
        "contract": "contracts/governance/GovernanceToken.sol:GovernanceToken",
        "label": "_versionFallback",
        "offset": 0,
        "slot": "6",
        "type": "t_string_storage"
      },
      {
        "astId": 2005,
        "contract": "contracts/governance/GovernanceToken.sol:GovernanceToken",
        "label": "_nonces",
        "offset": 0,
        "slot": "7",
        "type": "t_mapping(t_address,t_struct(Counter)2977_storage)"
      },
      {
        "astId": 2013,
        "contract": "contracts/governance/GovernanceToken.sol:GovernanceToken",
        "label": "_PERMIT_TYPEHASH_DEPRECATED_SLOT",
        "offset": 0,
        "slot": "8",
        "type": "t_bytes32"
      },
      {
        "astId": 2180,
        "contract": "contracts/governance/GovernanceToken.sol:GovernanceToken",
        "label": "_delegates",
        "offset": 0,
        "slot": "9",
        "type": "t_mapping(t_address,t_address)"
      },
      {
        "astId": 2186,
        "contract": "contracts/governance/GovernanceToken.sol:GovernanceToken",
        "label": "_checkpoints",
        "offset": 0,
        "slot": "10",
        "type": "t_mapping(t_address,t_array(t_struct(Checkpoint)2171_storage)dyn_storage)"
      },
      {
        "astId": 2190,
        "contract": "contracts/governance/GovernanceToken.sol:GovernanceToken",
        "label": "_totalSupplyCheckpoints",
        "offset": 0,
        "slot": "11",
        "type": "t_array(t_struct(Checkpoint)2171_storage)dyn_storage"
      },
      {
        "astId": 656,
        "contract": "contracts/governance/GovernanceToken.sol:GovernanceToken",
        "label": "_initialized",
        "offset": 0,
        "slot": "12",
        "type": "t_uint8"
      },
      {
        "astId": 659,
        "contract": "contracts/governance/GovernanceToken.sol:GovernanceToken",
        "label": "_initializing",
        "offset": 1,
        "slot": "12",
        "type": "t_bool"
      },
      {
        "astId": 1189,
        "contract": "contracts/governance/GovernanceToken.sol:GovernanceToken",
        "label": "__gap",
        "offset": 0,
        "slot": "13",
        "type": "t_array(t_uint256)50_storage"
      },
      {
        "astId": 528,
        "contract": "contracts/governance/GovernanceToken.sol:GovernanceToken",
        "label": "_owner",
        "offset": 0,
        "slot": "63",
        "type": "t_address"
      },
      {
        "astId": 648,
        "contract": "contracts/governance/GovernanceToken.sol:GovernanceToken",
        "label": "__gap",
        "offset": 0,
        "slot": "64",
        "type": "t_array(t_uint256)49_storage"
      },
      {
        "astId": 437,
        "contract": "contracts/governance/GovernanceToken.sol:GovernanceToken",
        "label": "_pendingOwner",
        "offset": 0,
        "slot": "113",
        "type": "t_address"
      },
      {
        "astId": 516,
        "contract": "contracts/governance/GovernanceToken.sol:GovernanceToken",
        "label": "__gap",
        "offset": 0,
        "slot": "114",
        "type": "t_array(t_uint256)49_storage"
      }
    ],
    "types": {
      "t_address": {
        "encoding": "inplace",
        "label": "address",
        "numberOfBytes": "20"
      },
      "t_array(t_struct(Checkpoint)2171_storage)dyn_storage": {
        "encoding": "dynamic_array",
        "label": "struct ERC20Votes.Checkpoint[]",
        "numberOfBytes": "32",
        "base": "t_struct(Checkpoint)2171_storage"
      },
      "t_array(t_uint256)49_storage": {
        "encoding": "inplace",
        "label": "uint256[49]",
        "numberOfBytes": "1568",
        "base": "t_uint256"
      },
      "t_array(t_uint256)50_storage": {
        "encoding": "inplace",
        "label": "uint256[50]",
        "numberOfBytes": "1600",
        "base": "t_uint256"
      },
      "t_bool": {
        "encoding": "inplace",
        "label": "bool",
        "numberOfBytes": "1"
      },
      "t_bytes32": {
        "encoding": "inplace",
        "label": "bytes32",
        "numberOfBytes": "32"
      },
      "t_mapping(t_address,t_address)": {
        "encoding": "mapping",
        "key": "t_address",
        "label": "mapping(address => address)",
        "numberOfBytes": "32",
        "value": "t_address"
      },
      "t_mapping(t_address,t_array(t_struct(Checkpoint)2171_storage)dyn_storage)": {
        "encoding": "mapping",
        "key": "t_address",
        "label": "mapping(address => struct ERC20Votes.Checkpoint[])",
        "numberOfBytes": "32",
        "value": "t_array(t_struct(Checkpoint)2171_storage)dyn_storage"
      },
      "t_mapping(t_address,t_mapping(t_address,t_uint256))": {
        "encoding": "mapping",
        "key": "t_address",
        "label": "mapping(address => mapping(address => uint256))",
        "numberOfBytes": "32",
        "value": "t_mapping(t_address,t_uint256)"
      },
      "t_mapping(t_address,t_struct(Counter)2977_storage)": {
        "encoding": "mapping",
        "key": "t_address",
        "label": "mapping(address => struct Counters.Counter)",
        "numberOfBytes": "32",
        "value": "t_struct(Counter)2977_storage"
      },
      "t_mapping(t_address,t_uint256)": {
        "encoding": "mapping",
        "key": "t_address",
        "label": "mapping(address => uint256)",
        "numberOfBytes": "32",
        "value": "t_uint256"
      },
      "t_string_storage": {
        "encoding": "bytes",
        "label": "string",
        "numberOfBytes": "32"
      },
      "t_struct(Checkpoint)2171_storage": {
        "encoding": "inplace",
        "label": "struct ERC20Votes.Checkpoint",
        "numberOfBytes": "32",
        "members": [
          {
            "astId": 2168,
            "contract": "contracts/governance/GovernanceToken.sol:GovernanceToken",
            "label": "fromBlock",
            "offset": 0,
            "slot": "0",
            "type": "t_uint32"
          },
          {
            "astId": 2170,
            "contract": "contracts/governance/GovernanceToken.sol:GovernanceToken",
            "label": "votes",
            "offset": 4,
            "slot": "0",
            "type": "t_uint224"
          }
        ]
      },
      "t_struct(Counter)2977_storage": {
        "encoding": "inplace",
        "label": "struct Counters.Counter",
        "numberOfBytes": "32",
        "members": [
          {
            "astId": 2976,
            "contract": "contracts/governance/GovernanceToken.sol:GovernanceToken",
            "label": "_value",
            "offset": 0,
            "slot": "0",
            "type": "t_uint256"
          }
        ]
      },
      "t_uint224": {
        "encoding": "inplace",
        "label": "uint224",
        "numberOfBytes": "28"
      },
      "t_uint256": {
        "encoding": "inplace",
        "label": "uint256",
        "numberOfBytes": "32"
      },
      "t_uint32": {
        "encoding": "inplace",
        "label": "uint32",
        "numberOfBytes": "4"
      },
      "t_uint8": {
        "encoding": "inplace",
        "label": "uint8",
        "numberOfBytes": "1"
      }
    }
  }
}