{
  "address": "0x4B68F22d96a04F6d80e284C20A648f8Da2fD569b",
  "abi": [
    {
      "type": "constructor",
      "inputs": [
        {
          "name": "_validatorPool",
          "type": "address",
          "internalType": "contract ValidatorPool"
        },
        {
          "name": "_validatorManager",
          "type": "address",
          "internalType": "contract IValidatorManager"
        },
        {
          "name": "_colosseum",
          "type": "address",
          "internalType": "address"
        },
        {
          "name": "_submissionInterval",
          "type": "uint256",
          "internalType": "uint256"
        },
        {
          "name": "_l2BlockTime",
          "type": "uint256",
          "internalType": "uint256"
        },
        {
          "name": "_startingBlockNumber",
          "type": "uint256",
          "internalType": "uint256"
        },
        {
          "name": "_startingTimestamp",
          "type": "uint256",
          "internalType": "uint256"
        },
        {
          "name": "_finalizationPeriodSeconds",
          "type": "uint256",
          "internalType": "uint256"
        }
      ],
      "stateMutability": "nonpayable"
    },
    {
      "type": "function",
      "name": "COLOSSEUM",
      "inputs": [],
      "outputs": [
        {
          "name": "",
          "type": "address",
          "internalType": "address"
        }
      ],
      "stateMutability": "view"
    },
    {
      "type": "function",
      "name": "FINALIZATION_PERIOD_SECONDS",
      "inputs": [],
      "outputs": [
        {
          "name": "",
          "type": "uint256",
          "internalType": "uint256"
        }
      ],
      "stateMutability": "view"
    },
    {
      "type": "function",
      "name": "L2_BLOCK_TIME",
      "inputs": [],
      "outputs": [
        {
          "name": "",
          "type": "uint256",
          "internalType": "uint256"
        }
      ],
      "stateMutability": "view"
    },
    {
      "type": "function",
      "name": "SUBMISSION_INTERVAL",
      "inputs": [],
      "outputs": [
        {
          "name": "",
          "type": "uint256",
          "internalType": "uint256"
        }
      ],
      "stateMutability": "view"
    },
    {
      "type": "function",
      "name": "VALIDATOR_MANAGER",
      "inputs": [],
      "outputs": [
        {
          "name": "",
          "type": "address",
          "internalType": "contract IValidatorManager"
        }
      ],
      "stateMutability": "view"
    },
    {
      "type": "function",
      "name": "VALIDATOR_POOL",
      "inputs": [],
      "outputs": [
        {
          "name": "",
          "type": "address",
          "internalType": "contract ValidatorPool"
        }
      ],
      "stateMutability": "view"
    },
    {
      "type": "function",
      "name": "computeL2Timestamp",
      "inputs": [
        {
          "name": "_l2BlockNumber",
          "type": "uint256",
          "internalType": "uint256"
        }
      ],
      "outputs": [
        {
          "name": "",
          "type": "uint256",
          "internalType": "uint256"
        }
      ],
      "stateMutability": "view"
    },
    {
      "type": "function",
      "name": "finalizedAt",
      "inputs": [
        {
          "name": "_outputIndex",
          "type": "uint256",
          "internalType": "uint256"
        }
      ],
      "outputs": [
        {
          "name": "",
          "type": "uint256",
          "internalType": "uint256"
        }
      ],
      "stateMutability": "view"
    },
    {
      "type": "function",
      "name": "getL2Output",
      "inputs": [
        {
          "name": "_l2OutputIndex",
          "type": "uint256",
          "internalType": "uint256"
        }
      ],
      "outputs": [
        {
          "name": "",
          "type": "tuple",
          "internalType": "struct Types.CheckpointOutput",
          "components": [
            {
              "name": "submitter",
              "type": "address",
              "internalType": "address"
            },
            {
              "name": "outputRoot",
              "type": "bytes32",
              "internalType": "bytes32"
            },
            {
              "name": "timestamp",
              "type": "uint128",
              "internalType": "uint128"
            },
            {
              "name": "l2BlockNumber",
              "type": "uint128",
              "internalType": "uint128"
            }
          ]
        }
      ],
      "stateMutability": "view"
    },
    {
      "type": "function",
      "name": "getL2OutputAfter",
      "inputs": [
        {
          "name": "_l2BlockNumber",
          "type": "uint256",
          "internalType": "uint256"
        }
      ],
      "outputs": [
        {
          "name": "",
          "type": "tuple",
          "internalType": "struct Types.CheckpointOutput",
          "components": [
            {
              "name": "submitter",
              "type": "address",
              "internalType": "address"
            },
            {
              "name": "outputRoot",
              "type": "bytes32",
              "internalType": "bytes32"
            },
            {
              "name": "timestamp",
              "type": "uint128",
              "internalType": "uint128"
            },
            {
              "name": "l2BlockNumber",
              "type": "uint128",
              "internalType": "uint128"
            }
          ]
        }
      ],
      "stateMutability": "view"
    },
    {
      "type": "function",
      "name": "getL2OutputIndexAfter",
      "inputs": [
        {
          "name": "_l2BlockNumber",
          "type": "uint256",
          "internalType": "uint256"
        }
      ],
      "outputs": [
        {
          "name": "",
          "type": "uint256",
          "internalType": "uint256"
        }
      ],
      "stateMutability": "view"
    },
    {
      "type": "function",
      "name": "getSubmitter",
      "inputs": [
        {
          "name": "_outputIndex",
          "type": "uint256",
          "internalType": "uint256"
        }
      ],
      "outputs": [
        {
          "name": "",
          "type": "address",
          "internalType": "address"
        }
      ],
      "stateMutability": "view"
    },
    {
      "type": "function",
      "name": "initialize",
      "inputs": [
        {
          "name": "_startingBlockNumber",
          "type": "uint256",
          "internalType": "uint256"
        },
        {
          "name": "_startingTimestamp",
          "type": "uint256",
          "internalType": "uint256"
        }
      ],
      "outputs": [],
      "stateMutability": "nonpayable"
    },
    {
      "type": "function",
      "name": "isFinalized",
      "inputs": [
        {
          "name": "_outputIndex",
          "type": "uint256",
          "internalType": "uint256"
        }
      ],
      "outputs": [
        {
          "name": "",
          "type": "bool",
          "internalType": "bool"
        }
      ],
      "stateMutability": "view"
    },
    {
      "type": "function",
      "name": "latestBlockNumber",
      "inputs": [],
      "outputs": [
        {
          "name": "",
          "type": "uint256",
          "internalType": "uint256"
        }
      ],
      "stateMutability": "view"
    },
    {
      "type": "function",
      "name": "latestOutputIndex",
      "inputs": [],
      "outputs": [
        {
          "name": "",
          "type": "uint256",
          "internalType": "uint256"
        }
      ],
      "stateMutability": "view"
    },
    {
      "type": "function",
      "name": "nextBlockNumber",
      "inputs": [],
      "outputs": [
        {
          "name": "",
          "type": "uint256",
          "internalType": "uint256"
        }
      ],
      "stateMutability": "view"
    },
    {
      "type": "function",
      "name": "nextFinalizeOutputIndex",
      "inputs": [],
      "outputs": [
        {
          "name": "",
          "type": "uint256",
          "internalType": "uint256"
        }
      ],
      "stateMutability": "view"
    },
    {
      "type": "function",
      "name": "nextOutputIndex",
      "inputs": [],
      "outputs": [
        {
          "name": "",
          "type": "uint256",
          "internalType": "uint256"
        }
      ],
      "stateMutability": "view"
    },
    {
      "type": "function",
      "name": "nextOutputMinL2Timestamp",
      "inputs": [],
      "outputs": [
        {
          "name": "",
          "type": "uint256",
          "internalType": "uint256"
        }
      ],
      "stateMutability": "view"
    },
    {
      "type": "function",
      "name": "replaceL2Output",
      "inputs": [
        {
          "name": "_l2OutputIndex",
          "type": "uint256",
          "internalType": "uint256"
        },
        {
          "name": "_newOutputRoot",
          "type": "bytes32",
          "internalType": "bytes32"
        },
        {
          "name": "_submitter",
          "type": "address",
          "internalType": "address"
        }
      ],
      "outputs": [],
      "stateMutability": "nonpayable"
    },
    {
      "type": "function",
      "name": "setNextFinalizeOutputIndex",
      "inputs": [
        {
          "name": "_outputIndex",
          "type": "uint256",
          "internalType": "uint256"
        }
      ],
      "outputs": [],
      "stateMutability": "nonpayable"
    },
    {
      "type": "function",
      "name": "startingBlockNumber",
      "inputs": [],
      "outputs": [
        {
          "name": "",
          "type": "uint256",
          "internalType": "uint256"
        }
      ],
      "stateMutability": "view"
    },
    {
      "type": "function",
      "name": "startingTimestamp",
      "inputs": [],
      "outputs": [
        {
          "name": "",
          "type": "uint256",
          "internalType": "uint256"
        }
      ],
      "stateMutability": "view"
    },
    {
      "type": "function",
      "name": "submitL2Output",
      "inputs": [
        {
          "name": "_outputRoot",
          "type": "bytes32",
          "internalType": "bytes32"
        },
        {
          "name": "_l2BlockNumber",
          "type": "uint256",
          "internalType": "uint256"
        },
        {
          "name": "_l1BlockHash",
          "type": "bytes32",
          "internalType": "bytes32"
        },
        {
          "name": "_l1BlockNumber",
          "type": "uint256",
          "internalType": "uint256"
        }
      ],
      "outputs": [],
      "stateMutability": "payable"
    },
    {
      "type": "function",
      "name": "version",
      "inputs": [],
      "outputs": [
        {
          "name": "",
          "type": "string",
          "internalType": "string"
        }
      ],
      "stateMutability": "view"
    },
    {
      "type": "event",
      "name": "Initialized",
      "inputs": [
        {
          "name": "version",
          "type": "uint8",
          "indexed": false,
          "internalType": "uint8"
        }
      ],
      "anonymous": false
    },
    {
      "type": "event",
      "name": "OutputReplaced",
      "inputs": [
        {
          "name": "outputIndex",
          "type": "uint256",
          "indexed": true,
          "internalType": "uint256"
        },
        {
          "name": "newSubmitter",
          "type": "address",
          "indexed": true,
          "internalType": "address"
        },
        {
          "name": "newOutputRoot",
          "type": "bytes32",
          "indexed": false,
          "internalType": "bytes32"
        }
      ],
      "anonymous": false
    },
    {
      "type": "event",
      "name": "OutputSubmitted",
      "inputs": [
        {
          "name": "outputRoot",
          "type": "bytes32",
          "indexed": true,
          "internalType": "bytes32"
        },
        {
          "name": "l2OutputIndex",
          "type": "uint256",
          "indexed": true,
          "internalType": "uint256"
        },
        {
          "name": "l2BlockNumber",
          "type": "uint256",
          "indexed": true,
          "internalType": "uint256"
        },
        {
          "name": "l1Timestamp",
          "type": "uint256",
          "indexed": false,
          "internalType": "uint256"
        }
      ],
      "anonymous": false
    }
  ],
  "transactionHash": "0x90e82e0b4175fed487c85cf04a1ce0890f51183e5fee32090012f02570cdc865",
  "args": [
    "0xFdFF462845953D90719A78Fd12a2d103541d2103",
    "0x232277d9672eEdd53c4B26C0F386C2Eb88DC7363",
    "0x713C2BEd44eB45D490afB8D4d1aA6F12290B829a",
    1800,
    2,
    0,
    0,
    604800
  ],
  "numDeployments": 1,
  "solcInputHash": "6271f6f40156b835b824d3aeb153efe1",
  "bytecode": "0x6101406040523480156200001257600080fd5b50604051620021da380380620021da83398101604081905262000035916200034b565b60008411620000b15760405162461bcd60e51b815260206004820152603460248201527f4c324f75747075744f7261636c653a204c3220626c6f636b2074696d65206d7560448201527f73742062652067726561746572207468616e203000000000000000000000000060648201526084015b60405180910390fd5b60008511620001295760405162461bcd60e51b815260206004820152603a60248201527f4c324f75747075744f7261636c653a207375626d697373696f6e20696e74657260448201527f76616c206d7573742062652067726561746572207468616e20300000000000006064820152608401620000a8565b6001600160a01b0380891660805287811660a052861660c05260e08590526101008490526101208190526200015f83836200016d565b5050505050505050620003cf565b600054610100900460ff16158080156200018e5750600054600160ff909116105b80620001be5750620001ab306200032360201b62001aa71760201c565b158015620001be575060005460ff166001145b620002235760405162461bcd60e51b815260206004820152602e60248201527f496e697469616c697a61626c653a20636f6e747261637420697320616c72656160448201526d191e481a5b9a5d1a585b1a5e995960921b6064820152608401620000a8565b6000805460ff19166001179055801562000247576000805461ff0019166101001790555b42821115620002cd5760405162461bcd60e51b8152602060048201526044602482018190527f4c324f75747075744f7261636c653a207374617274696e67204c322074696d65908201527f7374616d70206d757374206265206c657373207468616e2063757272656e742060648201526374696d6560e01b608482015260a401620000a8565b6002829055600183905580156200031e576000805461ff0019169055604051600181527f7f26b83ff96e1f2b6a682f133852f6798a09c465da95921460cefb38474024989060200160405180910390a15b505050565b6001600160a01b03163b151590565b6001600160a01b03811681146200034857600080fd5b50565b600080600080600080600080610100898b0312156200036957600080fd5b8851620003768162000332565b60208a0151909850620003898162000332565b60408a01519097506200039c8162000332565b60608a015160808b015160a08c015160c08d015160e0909d01519b9e9a9d50929b919a9099929850909650945092505050565b60805160a05160c05160e0516101005161012051611d5962000481600039600081816105b801528181610dce0152818161139a01526119500152600081816101b7015261148701526000818161024301526114d801526000818161038d01526117420152600081816104850152818161075901528181610d16015261114a0152600081816104d9015281816106b6015281816107cf01528181610da30152818161109e01526112200152611d596000f3fe6080604052600436106101a05760003560e01c80639e45e8f4116100e1578063cf8e5cf01161008a578063e4a3011611610064578063e4a3011614610550578063e664672314610570578063f403838d14610590578063f4daa291146105a657600080fd5b8063cf8e5cf0146104fb578063d1de856c1461051b578063dcec33481461053b57600080fd5b8063ae9483e0116100bb578063ae9483e014610473578063b0ea09a8146104a7578063b98debbf146104c757600080fd5b80639e45e8f41461037b578063a25ae557146103d4578063a48ea6de1461045357600080fd5b806369f16eec1161014e5780637f006420116101285780637f0064201461031057806380446bd21461033057806388786272146103455780639902cdc01461035b57600080fd5b806369f16eec146102d05780636abcf563146102e557806370872aa5146102fa57600080fd5b8063529933df1161017f578063529933df1461023157806354fd4d50146102655780635a045f78146102bb57600080fd5b80622134cc146101a557806333727c4d146101ec5780634599c7881461021c575b600080fd5b3480156101b157600080fd5b506101d97f000000000000000000000000000000000000000000000000000000000000000081565b6040519081526020015b60405180910390f35b3480156101f857600080fd5b5061020c610207366004611ac3565b6105da565b60405190151581526020016101e3565b34801561022857600080fd5b506101d96105ee565b34801561023d57600080fd5b506101d97f000000000000000000000000000000000000000000000000000000000000000081565b34801561027157600080fd5b506102ae6040518060400160405280600581526020017f312e312e3000000000000000000000000000000000000000000000000000000081525081565b6040516101e39190611adc565b6102ce6102c9366004611b4f565b610661565b005b3480156102dc57600080fd5b506101d9610e7d565b3480156102f157600080fd5b506003546101d9565b34801561030657600080fd5b506101d960015481565b34801561031c57600080fd5b506101d961032b366004611ac3565b610e8f565b34801561033c57600080fd5b506101d961106f565b34801561035157600080fd5b506101d960025481565b34801561036757600080fd5b506102ce610376366004611ac3565b611087565b34801561038757600080fd5b506103af7f000000000000000000000000000000000000000000000000000000000000000081565b60405173ffffffffffffffffffffffffffffffffffffffff90911681526020016101e3565b3480156103e057600080fd5b506103f46103ef366004611ac3565b6112d9565b60408051825173ffffffffffffffffffffffffffffffffffffffff16815260208084015190820152828201516fffffffffffffffffffffffffffffffff90811692820192909252606092830151909116918101919091526080016101e3565b34801561045f57600080fd5b506101d961046e366004611ac3565b611396565b34801561047f57600080fd5b506103af7f000000000000000000000000000000000000000000000000000000000000000081565b3480156104b357600080fd5b506103af6104c2366004611ac3565b611402565b3480156104d357600080fd5b506103af7f000000000000000000000000000000000000000000000000000000000000000081565b34801561050757600080fd5b506103f4610516366004611ac3565b611444565b34801561052757600080fd5b506101d9610536366004611ac3565b611483565b34801561054757600080fd5b506101d96114cb565b34801561055c57600080fd5b506102ce61056b366004611b81565b611511565b34801561057c57600080fd5b506102ce61058b366004611bc8565b61172a565b34801561059c57600080fd5b506101d960045481565b3480156105b257600080fd5b506101d97f000000000000000000000000000000000000000000000000000000000000000081565b6000426105e683611396565b111592915050565b60035460009015610658576003805461060990600190611c30565b8154811061061957610619611c47565b600091825260209091206003909102016002015470010000000000000000000000000000000090046fffffffffffffffffffffffffffffffff16919050565b6001545b905090565b600061066c60035490565b6040517fad36d6cc0000000000000000000000000000000000000000000000000000000081526004810182905290915060009073ffffffffffffffffffffffffffffffffffffffff7f0000000000000000000000000000000000000000000000000000000000000000169063ad36d6cc90602401602060405180830381865afa1580156106fd573d6000803e3d6000fd5b505050506040513d601f19601f820116820180604052508101906107219190611c76565b9050600081156107cd576040517f891aab740000000000000000000000000000000000000000000000000000000081523360048201527f000000000000000000000000000000000000000000000000000000000000000073ffffffffffffffffffffffffffffffffffffffff169063891aab749060240160006040518083038186803b1580156107b057600080fd5b505afa1580156107c4573d6000803e3d6000fd5b5050505061085f565b7f000000000000000000000000000000000000000000000000000000000000000073ffffffffffffffffffffffffffffffffffffffff16633a5490466040518163ffffffff1660e01b8152600401602060405180830381865afa158015610838573d6000803e3d6000fd5b505050506040513d601f19601f8201168201806040525081019061085c9190611c9f565b90505b81158015610883575073ffffffffffffffffffffffffffffffffffffffff81811614155b1561093e573373ffffffffffffffffffffffffffffffffffffffff82161461093e5760405162461bcd60e51b815260206004820152604260248201527f4c324f75747075744f7261636c653a206f6e6c7920746865206e65787420736560448201527f6c65637465642076616c696461746f722063616e207375626d6974206f75747060648201527f7574000000000000000000000000000000000000000000000000000000000000608482015260a4015b60405180910390fd5b6109466114cb565b86146109e05760405162461bcd60e51b815260206004820152604860248201527f4c324f75747075744f7261636c653a20626c6f636b206e756d626572206d757360448201527f7420626520657175616c20746f206e65787420657870656374656420626c6f6360648201527f6b206e756d626572000000000000000000000000000000000000000000000000608482015260a401610935565b426109e961106f565b1115610a5d5760405162461bcd60e51b815260206004820152603560248201527f4c324f75747075744f7261636c653a2063616e6e6f74207375626d6974204c3260448201527f206f757470757420696e207468652066757475726500000000000000000000006064820152608401610935565b86610ad05760405162461bcd60e51b815260206004820152603c60248201527f4c324f75747075744f7261636c653a204c3220636865636b706f696e74206f7560448201527f747075742063616e6e6f7420626520746865207a65726f2068617368000000006064820152608401610935565b8415801590610adf5750834015155b15610b805784844014610b805760405162461bcd60e51b815260206004820152604960248201527f4c324f75747075744f7261636c653a20626c6f636b206861736820646f65732060448201527f6e6f74206d61746368207468652068617368206174207468652065787065637460648201527f6564206865696768740000000000000000000000000000000000000000000000608482015260a401610935565b60408051608081018252338152602081018981526fffffffffffffffffffffffffffffffff428181168486019081528b831660608601908152600380546001810182556000829052965196027fc2575a0e9e593c00f959f8c92f12db2869c3395a3b0502d05e2516446f71f85b8101805473ffffffffffffffffffffffffffffffffffffffff989098167fffffffffffffffffffffffff00000000000000000000000000000000000000009098169790971790965593517fc2575a0e9e593c00f959f8c92f12db2869c3395a3b0502d05e2516446f71f85c86015551925182167001000000000000000000000000000000000292909116919091177fc2575a0e9e593c00f959f8c92f12db2869c3395a3b0502d05e2516446f71f85d909201919091559051879185918a917f457b4388026260019ae0b0b4f16c98235d74fe7359be469bdcba16e6d0d4968991610cd991815260200190565b60405180910390a48115610d8c576040517fbe119347000000000000000000000000000000000000000000000000000000008152600481018490527f000000000000000000000000000000000000000000000000000000000000000073ffffffffffffffffffffffffffffffffffffffff169063be11934790602401600060405180830381600087803b158015610d6f57600080fd5b505af1158015610d83573d6000803e3d6000fd5b50505050610e74565b73ffffffffffffffffffffffffffffffffffffffff7f00000000000000000000000000000000000000000000000000000000000000001663d38dc7ee84610df37f000000000000000000000000000000000000000000000000000000000000000042611cbc565b6040517fffffffff0000000000000000000000000000000000000000000000000000000060e085901b16815260048101929092526fffffffffffffffffffffffffffffffff166024820152604401600060405180830381600087803b158015610e5b57600080fd5b505af1158015610e6f573d6000803e3d6000fd5b505050505b50505050505050565b60035460009061065c90600190611c30565b6000610e996105ee565b821115610f345760405162461bcd60e51b815260206004820152604960248201527f4c324f75747075744f7261636c653a2063616e6e6f7420676574206f7574707560448201527f7420666f72206120626c6f636b207468617420686173206e6f74206265656e2060648201527f7375626d69747465640000000000000000000000000000000000000000000000608482015260a401610935565b600354610fcf5760405162461bcd60e51b815260206004820152604760248201527f4c324f75747075744f7261636c653a2063616e6e6f7420676574206f7574707560448201527f74206173206e6f206f7574707574732068617665206265656e207375626d697460648201527f7465642079657400000000000000000000000000000000000000000000000000608482015260a401610935565b6003546000905b808210156110685760006002610fec8385611cbc565b610ff69190611cd4565b9050846003828154811061100c5761100c611c47565b600091825260209091206003909102016002015470010000000000000000000000000000000090046fffffffffffffffffffffffffffffffff16101561105e57611057816001611cbc565b9250611062565b8091505b50610fd6565b5092915050565b600061065c61107c6114cb565b610536906001611cbc565b73ffffffffffffffffffffffffffffffffffffffff7f00000000000000000000000000000000000000000000000000000000000000001663ad36d6cc6110ce600184611c30565b6040518263ffffffff1660e01b81526004016110ec91815260200190565b602060405180830381865afa158015611109573d6000803e3d6000fd5b505050506040513d601f19601f8201168201806040525081019061112d9190611c76565b15611208573373ffffffffffffffffffffffffffffffffffffffff7f000000000000000000000000000000000000000000000000000000000000000016146112035760405162461bcd60e51b815260206004820152605660248201527f4c324f75747075744f7261636c653a206f6e6c79207468652076616c6964617460448201527f6f72206d616e6167657220636f6e74726163742063616e20736574206e65787460648201527f2066696e616c697a65206f757470757420696e64657800000000000000000000608482015260a401610935565b600455565b3373ffffffffffffffffffffffffffffffffffffffff7f000000000000000000000000000000000000000000000000000000000000000016146112035760405162461bcd60e51b815260206004820152605360248201527f4c324f75747075744f7261636c653a206f6e6c79207468652076616c6964617460448201527f6f7220706f6f6c20636f6e74726163742063616e20736574206e65787420666960648201527f6e616c697a65206f757470757420696e64657800000000000000000000000000608482015260a401610935565b6040805160808101825260008082526020820181905291810182905260608101919091526003828154811061131057611310611c47565b6000918252602091829020604080516080810182526003909302909101805473ffffffffffffffffffffffffffffffffffffffff1683526001810154938301939093526002909201546fffffffffffffffffffffffffffffffff808216938301939093527001000000000000000000000000000000009004909116606082015292915050565b60007f0000000000000000000000000000000000000000000000000000000000000000600383815481106113cc576113cc611c47565b60009182526020909120600260039092020101546113fc91906fffffffffffffffffffffffffffffffff16611cbc565b92915050565b60006003828154811061141757611417611c47565b600091825260209091206003909102015473ffffffffffffffffffffffffffffffffffffffff1692915050565b604080516080810182526000808252602082018190529181018290526060810191909152600361147383610e8f565b8154811061131057611310611c47565b60007f0000000000000000000000000000000000000000000000000000000000000000600154836114b49190611c30565b6114be9190611d0f565b6002546113fc9190611cbc565b60035460009015611509577f00000000000000000000000000000000000000000000000000000000000000006114ff6105ee565b61065c9190611cbc565b61065c6105ee565b600054610100900460ff16158080156115315750600054600160ff909116105b8061154b5750303b15801561154b575060005460ff166001145b6115bd5760405162461bcd60e51b815260206004820152602e60248201527f496e697469616c697a61626c653a20636f6e747261637420697320616c72656160448201527f647920696e697469616c697a65640000000000000000000000000000000000006064820152608401610935565b600080547fffffffffffffffffffffffffffffffffffffffffffffffffffffffffffffff00166001179055801561161b57600080547fffffffffffffffffffffffffffffffffffffffffffffffffffffffffffff00ff166101001790555b428211156116b85760405162461bcd60e51b8152602060048201526044602482018190527f4c324f75747075744f7261636c653a207374617274696e67204c322074696d65908201527f7374616d70206d757374206265206c657373207468616e2063757272656e742060648201527f74696d6500000000000000000000000000000000000000000000000000000000608482015260a401610935565b60028290556001839055801561172557600080547fffffffffffffffffffffffffffffffffffffffffffffffffffffffffffff00ff169055604051600181527f7f26b83ff96e1f2b6a682f133852f6798a09c465da95921460cefb38474024989060200160405180910390a15b505050565b3373ffffffffffffffffffffffffffffffffffffffff7f000000000000000000000000000000000000000000000000000000000000000016146117fb5760405162461bcd60e51b815260206004820152604160248201527f4c324f75747075744f7261636c653a206f6e6c792074686520636f6c6f73736560448201527f756d20636f6e74726163742063616e207265706c61636520616e206f7574707560648201527f7400000000000000000000000000000000000000000000000000000000000000608482015260a401610935565b73ffffffffffffffffffffffffffffffffffffffff81166118845760405162461bcd60e51b815260206004820152603060248201527f4c324f75747075744f7261636c653a207375626d69747465722061646472657360448201527f732063616e6e6f74206265207a65726f000000000000000000000000000000006064820152608401610935565b60035483106119215760405162461bcd60e51b815260206004820152604660248201527f4c324f75747075744f7261636c653a2063616e6e6f74207265706c616365206160448201527f6e206f757470757420616674657220746865206c6174657374206f757470757460648201527f20696e6465780000000000000000000000000000000000000000000000000000608482015260a401610935565b60006003848154811061193657611936611c47565b6000918252602090912060039091020160028101549091507f00000000000000000000000000000000000000000000000000000000000000009061198c906fffffffffffffffffffffffffffffffff1642611c30565b10611a255760405162461bcd60e51b815260206004820152604860248201527f4c324f75747075744f7261636c653a2063616e6e6f74207265706c616365206160448201527f6e206f757470757420746861742068617320616c7265616479206265656e206660648201527f696e616c697a6564000000000000000000000000000000000000000000000000608482015260a401610935565b6001810183905580547fffffffffffffffffffffffff00000000000000000000000000000000000000001673ffffffffffffffffffffffffffffffffffffffff8316908117825560405184815285907f1ec0d63ba3dd4b277ece3e578c4c9587edfa0d855192704c88f9a1d74316624f9060200160405180910390a350505050565b73ffffffffffffffffffffffffffffffffffffffff163b151590565b600060208284031215611ad557600080fd5b5035919050565b600060208083528351808285015260005b81811015611b0957858101830151858201604001528201611aed565b81811115611b1b576000604083870101525b50601f017fffffffffffffffffffffffffffffffffffffffffffffffffffffffffffffffe016929092016040019392505050565b60008060008060808587031215611b6557600080fd5b5050823594602084013594506040840135936060013592509050565b60008060408385031215611b9457600080fd5b50508035926020909101359150565b73ffffffffffffffffffffffffffffffffffffffff81168114611bc557600080fd5b50565b600080600060608486031215611bdd57600080fd5b83359250602084013591506040840135611bf681611ba3565b809150509250925092565b7f4e487b7100000000000000000000000000000000000000000000000000000000600052601160045260246000fd5b600082821015611c4257611c42611c01565b500390565b7f4e487b7100000000000000000000000000000000000000000000000000000000600052603260045260246000fd5b600060208284031215611c8857600080fd5b81518015158114611c9857600080fd5b9392505050565b600060208284031215611cb157600080fd5b8151611c9881611ba3565b60008219821115611ccf57611ccf611c01565b500190565b600082611d0a577f4e487b7100000000000000000000000000000000000000000000000000000000600052601260045260246000fd5b500490565b6000817fffffffffffffffffffffffffffffffffffffffffffffffffffffffffffffffff0483118215151615611d4757611d47611c01565b50029056fea164736f6c634300080f000a",
  "devdoc": {
    "version": 1,
    "kind": "dev",
    "methods": {
      "computeL2Timestamp(uint256)": {
        "params": {
          "_l2BlockNumber": "The L2 block number of the target block."
        },
        "returns": {
          "_0": "L2 timestamp of the given block."
        }
      },
      "constructor": {
        "params": {
          "_colosseum": "The address of the Colosseum contract.",
          "_finalizationPeriodSeconds": "Output finalization time in seconds.",
          "_l2BlockTime": "The time per L2 block, in seconds.",
          "_startingBlockNumber": "The number of the first L2 block.",
          "_startingTimestamp": "The timestamp of the first L2 block.",
          "_submissionInterval": "Interval in blocks at which checkpoints must be submitted.",
          "_validatorManager": "The address of the ValidatorManager contract.",
          "_validatorPool": "The address of the ValidatorPool contract."
        }
      },
      "finalizedAt(uint256)": {
        "params": {
          "_outputIndex": "Index of an output."
        },
        "returns": {
          "_0": "The finalization time of given output index."
        }
      },
      "getL2Output(uint256)": {
        "params": {
          "_l2OutputIndex": "Index of the output to return."
        },
        "returns": {
          "_0": "The output at the given index."
        }
      },
      "getL2OutputAfter(uint256)": {
        "params": {
          "_l2BlockNumber": "L2 block number to find a checkpoint for."
        },
        "returns": {
          "_0": "First checkpoint that commits to the given L2 block number."
        }
      },
      "getL2OutputIndexAfter(uint256)": {
        "params": {
          "_l2BlockNumber": "L2 block number to find a checkpoint for."
        },
        "returns": {
          "_0": "Index of the first checkpoint that commits to the given L2 block number."
        }
      },
      "getSubmitter(uint256)": {
        "params": {
          "_outputIndex": "Index of an output."
        },
        "returns": {
          "_0": "Address of the submitter."
        }
      },
      "initialize(uint256,uint256)": {
        "params": {
          "_startingBlockNumber": "Block number for the first recorded L2 block.",
          "_startingTimestamp": "Timestamp for the first recorded L2 block."
        }
      },
      "isFinalized(uint256)": {
        "params": {
          "_outputIndex": "Index of an output."
        },
        "returns": {
          "_0": "If the given output is finalized or not."
        }
      },
      "latestBlockNumber()": {
        "returns": {
          "_0": "Latest submitted L2 block number."
        }
      },
      "latestOutputIndex()": {
        "returns": {
          "_0": "The index of the latest submitted output."
        }
      },
      "nextBlockNumber()": {
        "returns": {
          "_0": "Next L2 block number."
        }
      },
      "nextOutputIndex()": {
        "returns": {
          "_0": "The index of the next output to be submitted."
        }
      },
      "nextOutputMinL2Timestamp()": {
        "returns": {
          "_0": "L2 timestamp of the right next block of the block that needs to be checkpointed."
        }
      },
      "replaceL2Output(uint256,bytes32,address)": {
        "params": {
          "_l2OutputIndex": "Index of the L2 output to be replaced.",
          "_newOutputRoot": "The L2 output root to replace the existing one.",
          "_submitter": "Address of the L2 output submitter."
        }
      },
      "setNextFinalizeOutputIndex(uint256)": {
        "params": {
          "_outputIndex": "Index of the next output to be finalized."
        }
      },
      "submitL2Output(bytes32,uint256,bytes32,uint256)": {
        "params": {
          "_l1BlockHash": "A block hash which must be included in the current chain.",
          "_l1BlockNumber": "The block number with the specified block hash.",
          "_l2BlockNumber": "The L2 block number that resulted in _outputRoot.",
          "_outputRoot": "The L2 output of the checkpoint block."
        }
      }
    },
    "events": {
      "OutputReplaced(uint256,address,bytes32)": {
        "params": {
          "newOutputRoot": "L2 output root after replacement.",
          "newSubmitter": "Output submitter after replacement.",
          "outputIndex": "Replaced L2 output index."
        }
      },
      "OutputSubmitted(bytes32,uint256,uint256,uint256)": {
        "params": {
          "l1Timestamp": "The L1 timestamp when submitted.",
          "l2BlockNumber": "The L2 block number of the output root.",
          "l2OutputIndex": "The index of the output in the l2Outputs array.",
          "outputRoot": "The output root."
        }
      }
    }
  },
  "userdoc": {
    "version": 1,
    "kind": "user",
    "methods": {
      "COLOSSEUM()": {
        "notice": "The address of the colosseum contract. Can be updated via upgrade."
      },
      "FINALIZATION_PERIOD_SECONDS()": {
        "notice": "Minimum time (in seconds) that must elapse before a withdrawal can be finalized."
      },
      "L2_BLOCK_TIME()": {
        "notice": "The time between L2 blocks in seconds. Once set, this value MUST NOT be modified."
      },
      "SUBMISSION_INTERVAL()": {
        "notice": "The interval in L2 blocks at which checkpoints must be submitted. Although this is         immutable, it can be modified by upgrading the implementation contract.         Note that nodes that fetch and use this value need to restart when it is modified."
      },
      "VALIDATOR_MANAGER()": {
        "notice": "The address of the validator manager contract. Can be updated via upgrade."
      },
      "VALIDATOR_POOL()": {
        "notice": "The address of the validator pool contract. Can be updated via upgrade."
      },
      "computeL2Timestamp(uint256)": {
        "notice": "Returns the L2 timestamp corresponding to a given L2 block number."
      },
      "constructor": {
        "notice": "Constructs the L2OutputOracle contract."
      },
      "finalizedAt(uint256)": {
        "notice": "Returns the finalization time of given output index."
      },
      "getL2Output(uint256)": {
        "notice": "Returns an output by index. Reverts if output is not found at the given index."
      },
      "getL2OutputAfter(uint256)": {
        "notice": "Returns the L2 checkpoint output that checkpoints a given L2 block number."
      },
      "getL2OutputIndexAfter(uint256)": {
        "notice": "Returns the index of the L2 output that checkpoints a given L2 block number. Uses a         binary search to find the first output greater than or equal to the given block."
      },
      "getSubmitter(uint256)": {
        "notice": "Returns the address of the L2 output submitter."
      },
      "initialize(uint256,uint256)": {
        "notice": "Initializer."
      },
      "isFinalized(uint256)": {
        "notice": "Returns if the output of given index is finalized."
      },
      "latestBlockNumber()": {
        "notice": "Returns the block number of the latest submitted L2 checkpoint output. If no outputs         have been submitted yet then this function will return the starting block number."
      },
      "latestOutputIndex()": {
        "notice": "Returns the index of the latest submitted output. Will revert if no outputs         have been submitted yet."
      },
      "nextBlockNumber()": {
        "notice": "Computes the block number of the next L2 block that needs to be checkpointed. If no         outputs have been submitted yet then this function will return the latest block         number, which is the starting block number."
      },
      "nextFinalizeOutputIndex()": {
        "notice": "The output index of the next finalization target output."
      },
      "nextOutputIndex()": {
        "notice": "Returns the index of the next output to be submitted."
      },
      "nextOutputMinL2Timestamp()": {
        "notice": "Returns the L2 timestamp corresponding to the right next block of the block that         needs to be checkpointed.         Note that the added one is because of the existence of next block hash in the output."
      },
      "replaceL2Output(uint256,bytes32,address)": {
        "notice": "Replaces the output that corresponds to the given output index.         Only the Colosseum contract can replace an output."
      },
      "setNextFinalizeOutputIndex(uint256)": {
        "notice": "Updates the next output index to be finalized. This function may only be called by         the validator pool contract before terminated, after that by the validator manager         contract."
      },
      "startingBlockNumber()": {
        "notice": "The number of the first L2 block recorded in this contract."
      },
      "startingTimestamp()": {
        "notice": "The timestamp of the first L2 block recorded in this contract."
      },
      "submitL2Output(bytes32,uint256,bytes32,uint256)": {
        "notice": "Accepts an outputRoot and the block number of the corresponding L2 block.         The block number must be equal to the current value returned by `nextBlockNumber()`         in order to be accepted. This function may only be called by the validator."
      },
      "version()": {
        "notice": "Semantic version."
      }
    },
    "events": {
      "OutputReplaced(uint256,address,bytes32)": {
        "notice": "Emitted when an output is replaced."
      },
      "OutputSubmitted(bytes32,uint256,uint256,uint256)": {
        "notice": "Emitted when an output is submitted."
      }
    },
    "notice": "The L2OutputOracle contains an array of L2 state outputs, where each output is a         commitment to the state of the L2 chain. Other contracts like the KromaPortal use         these outputs to verify information about the state of L2."
  },
  "storageLayout": {
    "storage": [
      {
        "astId": 97636,
        "contract": "contracts/L1/L2OutputOracle.sol:L2OutputOracle",
        "label": "_initialized",
        "offset": 0,
        "slot": "0",
        "type": "t_uint8"
      },
      {
        "astId": 97639,
        "contract": "contracts/L1/L2OutputOracle.sol:L2OutputOracle",
        "label": "_initializing",
        "offset": 1,
        "slot": "0",
        "type": "t_bool"
      },
      {
        "astId": 5184,
        "contract": "contracts/L1/L2OutputOracle.sol:L2OutputOracle",
        "label": "startingBlockNumber",
        "offset": 0,
        "slot": "1",
        "type": "t_uint256"
      },
      {
        "astId": 5187,
        "contract": "contracts/L1/L2OutputOracle.sol:L2OutputOracle",
        "label": "startingTimestamp",
        "offset": 0,
        "slot": "2",
        "type": "t_uint256"
      },
      {
        "astId": 5192,
        "contract": "contracts/L1/L2OutputOracle.sol:L2OutputOracle",
        "label": "l2Outputs",
        "offset": 0,
        "slot": "3",
        "type": "t_array(t_struct(CheckpointOutput)24433_storage)dyn_storage"
      },
      {
        "astId": 5195,
        "contract": "contracts/L1/L2OutputOracle.sol:L2OutputOracle",
        "label": "nextFinalizeOutputIndex",
        "offset": 0,
        "slot": "4",
        "type": "t_uint256"
      }
    ],
    "types": {
      "t_address": {
        "encoding": "inplace",
        "label": "address",
        "numberOfBytes": "20"
      },
      "t_array(t_struct(CheckpointOutput)24433_storage)dyn_storage": {
        "encoding": "dynamic_array",
        "label": "struct Types.CheckpointOutput[]",
        "numberOfBytes": "32",
        "base": "t_struct(CheckpointOutput)24433_storage"
      },
      "t_bool": {
        "encoding": "inplace",
        "label": "bool",
        "numberOfBytes": "1"
      },
      "t_bytes32": {
        "encoding": "inplace",
        "label": "bytes32",
        "numberOfBytes": "32"
      },
      "t_struct(CheckpointOutput)24433_storage": {
        "encoding": "inplace",
        "label": "struct Types.CheckpointOutput",
        "numberOfBytes": "96",
        "members": [
          {
            "astId": 24426,
            "contract": "contracts/L1/L2OutputOracle.sol:L2OutputOracle",
            "label": "submitter",
            "offset": 0,
            "slot": "0",
            "type": "t_address"
          },
          {
            "astId": 24428,
            "contract": "contracts/L1/L2OutputOracle.sol:L2OutputOracle",
            "label": "outputRoot",
            "offset": 0,
            "slot": "1",
            "type": "t_bytes32"
          },
          {
            "astId": 24430,
            "contract": "contracts/L1/L2OutputOracle.sol:L2OutputOracle",
            "label": "timestamp",
            "offset": 0,
            "slot": "2",
            "type": "t_uint128"
          },
          {
            "astId": 24432,
            "contract": "contracts/L1/L2OutputOracle.sol:L2OutputOracle",
            "label": "l2BlockNumber",
            "offset": 16,
            "slot": "2",
            "type": "t_uint128"
          }
        ]
      },
      "t_uint128": {
        "encoding": "inplace",
        "label": "uint128",
        "numberOfBytes": "16"
      },
      "t_uint256": {
        "encoding": "inplace",
        "label": "uint256",
        "numberOfBytes": "32"
      },
      "t_uint8": {
        "encoding": "inplace",
        "label": "uint8",
        "numberOfBytes": "1"
      }
    }
  }
}