{
  "address": "0x2a51e099CC7AF922CcDe7F3db909DC7b71B8D030",
  "abi": [
    {
      "inputs": [],
      "stateMutability": "nonpayable",
      "type": "constructor"
    },
    {
      "inputs": [],
      "name": "Empty",
      "type": "error"
    },
    {
      "anonymous": false,
      "inputs": [],
      "name": "EIP712DomainChanged",
      "type": "event"
    },
    {
      "anonymous": false,
      "inputs": [
        {
          "indexed": false,
          "internalType": "uint8",
          "name": "version",
          "type": "uint8"
        }
      ],
      "name": "Initialized",
      "type": "event"
    },
    {
      "anonymous": false,
      "inputs": [
        {
          "indexed": false,
          "internalType": "uint256",
          "name": "proposalId",
          "type": "uint256"
        }
      ],
      "name": "ProposalCanceled",
      "type": "event"
    },
    {
      "anonymous": false,
      "inputs": [
        {
          "indexed": false,
          "internalType": "uint256",
          "name": "proposalId",
          "type": "uint256"
        },
        {
          "indexed": false,
          "internalType": "address",
          "name": "proposer",
          "type": "address"
        },
        {
          "indexed": false,
          "internalType": "address[]",
          "name": "targets",
          "type": "address[]"
        },
        {
          "indexed": false,
          "internalType": "uint256[]",
          "name": "values",
          "type": "uint256[]"
        },
        {
          "indexed": false,
          "internalType": "string[]",
          "name": "signatures",
          "type": "string[]"
        },
        {
          "indexed": false,
          "internalType": "bytes[]",
          "name": "calldatas",
          "type": "bytes[]"
        },
        {
          "indexed": false,
          "internalType": "uint256",
          "name": "voteStart",
          "type": "uint256"
        },
        {
          "indexed": false,
          "internalType": "uint256",
          "name": "voteEnd",
          "type": "uint256"
        },
        {
          "indexed": false,
          "internalType": "string",
          "name": "description",
          "type": "string"
        }
      ],
      "name": "ProposalCreated",
      "type": "event"
    },
    {
      "anonymous": false,
      "inputs": [
        {
          "indexed": false,
          "internalType": "uint256",
          "name": "proposalId",
          "type": "uint256"
        }
      ],
      "name": "ProposalExecuted",
      "type": "event"
    },
    {
      "anonymous": false,
      "inputs": [
        {
          "indexed": false,
          "internalType": "uint256",
          "name": "proposalId",
          "type": "uint256"
        },
        {
          "indexed": false,
          "internalType": "uint256",
          "name": "eta",
          "type": "uint256"
        }
      ],
      "name": "ProposalQueued",
      "type": "event"
    },
    {
      "anonymous": false,
      "inputs": [
        {
          "indexed": false,
          "internalType": "uint256",
          "name": "oldProposalThreshold",
          "type": "uint256"
        },
        {
          "indexed": false,
          "internalType": "uint256",
          "name": "newProposalThreshold",
          "type": "uint256"
        }
      ],
      "name": "ProposalThresholdSet",
      "type": "event"
    },
    {
      "anonymous": false,
      "inputs": [
        {
          "indexed": false,
          "internalType": "uint256",
          "name": "oldQuorumNumerator",
          "type": "uint256"
        },
        {
          "indexed": false,
          "internalType": "uint256",
          "name": "newQuorumNumerator",
          "type": "uint256"
        }
      ],
      "name": "QuorumNumeratorUpdated",
      "type": "event"
    },
    {
      "anonymous": false,
      "inputs": [
        {
          "indexed": false,
          "internalType": "address",
          "name": "oldTimelock",
          "type": "address"
        },
        {
          "indexed": false,
          "internalType": "address",
          "name": "newTimelock",
          "type": "address"
        }
      ],
      "name": "TimelockChange",
      "type": "event"
    },
    {
      "anonymous": false,
      "inputs": [
        {
          "indexed": true,
          "internalType": "address",
          "name": "voter",
          "type": "address"
        },
        {
          "indexed": false,
          "internalType": "uint256",
          "name": "proposalId",
          "type": "uint256"
        },
        {
          "indexed": false,
          "internalType": "uint8",
          "name": "support",
          "type": "uint8"
        },
        {
          "indexed": false,
          "internalType": "uint256",
          "name": "weight",
          "type": "uint256"
        },
        {
          "indexed": false,
          "internalType": "string",
          "name": "reason",
          "type": "string"
        }
      ],
      "name": "VoteCast",
      "type": "event"
    },
    {
      "anonymous": false,
      "inputs": [
        {
          "indexed": true,
          "internalType": "address",
          "name": "voter",
          "type": "address"
        },
        {
          "indexed": false,
          "internalType": "uint256",
          "name": "proposalId",
          "type": "uint256"
        },
        {
          "indexed": false,
          "internalType": "uint8",
          "name": "support",
          "type": "uint8"
        },
        {
          "indexed": false,
          "internalType": "uint256",
          "name": "weight",
          "type": "uint256"
        },
        {
          "indexed": false,
          "internalType": "string",
          "name": "reason",
          "type": "string"
        },
        {
          "indexed": false,
          "internalType": "bytes",
          "name": "params",
          "type": "bytes"
        }
      ],
      "name": "VoteCastWithParams",
      "type": "event"
    },
    {
      "anonymous": false,
      "inputs": [
        {
          "indexed": false,
          "internalType": "uint256",
          "name": "oldVotingDelay",
          "type": "uint256"
        },
        {
          "indexed": false,
          "internalType": "uint256",
          "name": "newVotingDelay",
          "type": "uint256"
        }
      ],
      "name": "VotingDelaySet",
      "type": "event"
    },
    {
      "anonymous": false,
      "inputs": [
        {
          "indexed": false,
          "internalType": "uint256",
          "name": "oldVotingPeriod",
          "type": "uint256"
        },
        {
          "indexed": false,
          "internalType": "uint256",
          "name": "newVotingPeriod",
          "type": "uint256"
        }
      ],
      "name": "VotingPeriodSet",
      "type": "event"
    },
    {
      "inputs": [],
      "name": "BALLOT_TYPEHASH",
      "outputs": [
        {
          "internalType": "bytes32",
          "name": "",
          "type": "bytes32"
        }
      ],
      "stateMutability": "view",
      "type": "function"
    },
    {
      "inputs": [],
      "name": "CLOCK_MODE",
      "outputs": [
        {
          "internalType": "string",
          "name": "",
          "type": "string"
        }
      ],
      "stateMutability": "view",
      "type": "function"
    },
    {
      "inputs": [],
      "name": "COUNTING_MODE",
      "outputs": [
        {
          "internalType": "string",
          "name": "",
          "type": "string"
        }
      ],
      "stateMutability": "pure",
      "type": "function"
    },
    {
      "inputs": [],
      "name": "EXTENDED_BALLOT_TYPEHASH",
      "outputs": [
        {
          "internalType": "bytes32",
          "name": "",
          "type": "bytes32"
        }
      ],
      "stateMutability": "view",
      "type": "function"
    },
    {
      "inputs": [
        {
          "internalType": "address[]",
          "name": "targets",
          "type": "address[]"
        },
        {
          "internalType": "uint256[]",
          "name": "values",
          "type": "uint256[]"
        },
        {
          "internalType": "bytes[]",
          "name": "calldatas",
          "type": "bytes[]"
        },
        {
          "internalType": "bytes32",
          "name": "descriptionHash",
          "type": "bytes32"
        }
      ],
      "name": "cancel",
      "outputs": [
        {
          "internalType": "uint256",
          "name": "",
          "type": "uint256"
        }
      ],
      "stateMutability": "nonpayable",
      "type": "function"
    },
    {
      "inputs": [
        {
          "internalType": "uint256",
          "name": "proposalId",
          "type": "uint256"
        },
        {
          "internalType": "uint8",
          "name": "support",
          "type": "uint8"
        }
      ],
      "name": "castVote",
      "outputs": [
        {
          "internalType": "uint256",
          "name": "",
          "type": "uint256"
        }
      ],
      "stateMutability": "nonpayable",
      "type": "function"
    },
    {
      "inputs": [
        {
          "internalType": "uint256",
          "name": "proposalId",
          "type": "uint256"
        },
        {
          "internalType": "uint8",
          "name": "support",
          "type": "uint8"
        },
        {
          "internalType": "uint8",
          "name": "v",
          "type": "uint8"
        },
        {
          "internalType": "bytes32",
          "name": "r",
          "type": "bytes32"
        },
        {
          "internalType": "bytes32",
          "name": "s",
          "type": "bytes32"
        }
      ],
      "name": "castVoteBySig",
      "outputs": [
        {
          "internalType": "uint256",
          "name": "",
          "type": "uint256"
        }
      ],
      "stateMutability": "nonpayable",
      "type": "function"
    },
    {
      "inputs": [
        {
          "internalType": "uint256",
          "name": "proposalId",
          "type": "uint256"
        },
        {
          "internalType": "uint8",
          "name": "support",
          "type": "uint8"
        },
        {
          "internalType": "string",
          "name": "reason",
          "type": "string"
        }
      ],
      "name": "castVoteWithReason",
      "outputs": [
        {
          "internalType": "uint256",
          "name": "",
          "type": "uint256"
        }
      ],
      "stateMutability": "nonpayable",
      "type": "function"
    },
    {
      "inputs": [
        {
          "internalType": "uint256",
          "name": "proposalId",
          "type": "uint256"
        },
        {
          "internalType": "uint8",
          "name": "support",
          "type": "uint8"
        },
        {
          "internalType": "string",
          "name": "reason",
          "type": "string"
        },
        {
          "internalType": "bytes",
          "name": "params",
          "type": "bytes"
        }
      ],
      "name": "castVoteWithReasonAndParams",
      "outputs": [
        {
          "internalType": "uint256",
          "name": "",
          "type": "uint256"
        }
      ],
      "stateMutability": "nonpayable",
      "type": "function"
    },
    {
      "inputs": [
        {
          "internalType": "uint256",
          "name": "proposalId",
          "type": "uint256"
        },
        {
          "internalType": "uint8",
          "name": "support",
          "type": "uint8"
        },
        {
          "internalType": "string",
          "name": "reason",
          "type": "string"
        },
        {
          "internalType": "bytes",
          "name": "params",
          "type": "bytes"
        },
        {
          "internalType": "uint8",
          "name": "v",
          "type": "uint8"
        },
        {
          "internalType": "bytes32",
          "name": "r",
          "type": "bytes32"
        },
        {
          "internalType": "bytes32",
          "name": "s",
          "type": "bytes32"
        }
      ],
      "name": "castVoteWithReasonAndParamsBySig",
      "outputs": [
        {
          "internalType": "uint256",
          "name": "",
          "type": "uint256"
        }
      ],
      "stateMutability": "nonpayable",
      "type": "function"
    },
    {
      "inputs": [],
      "name": "clock",
      "outputs": [
        {
          "internalType": "uint48",
          "name": "",
          "type": "uint48"
        }
      ],
      "stateMutability": "view",
      "type": "function"
    },
    {
      "inputs": [],
      "name": "eip712Domain",
      "outputs": [
        {
          "internalType": "bytes1",
          "name": "fields",
          "type": "bytes1"
        },
        {
          "internalType": "string",
          "name": "name",
          "type": "string"
        },
        {
          "internalType": "string",
          "name": "version",
          "type": "string"
        },
        {
          "internalType": "uint256",
          "name": "chainId",
          "type": "uint256"
        },
        {
          "internalType": "address",
          "name": "verifyingContract",
          "type": "address"
        },
        {
          "internalType": "bytes32",
          "name": "salt",
          "type": "bytes32"
        },
        {
          "internalType": "uint256[]",
          "name": "extensions",
          "type": "uint256[]"
        }
      ],
      "stateMutability": "view",
      "type": "function"
    },
    {
      "inputs": [
        {
          "internalType": "address[]",
          "name": "targets",
          "type": "address[]"
        },
        {
          "internalType": "uint256[]",
          "name": "values",
          "type": "uint256[]"
        },
        {
          "internalType": "bytes[]",
          "name": "calldatas",
          "type": "bytes[]"
        },
        {
          "internalType": "bytes32",
          "name": "descriptionHash",
          "type": "bytes32"
        }
      ],
      "name": "execute",
      "outputs": [
        {
          "internalType": "uint256",
          "name": "",
          "type": "uint256"
        }
      ],
      "stateMutability": "payable",
      "type": "function"
    },
    {
      "inputs": [
        {
          "internalType": "address",
          "name": "account",
          "type": "address"
        },
        {
          "internalType": "uint256",
          "name": "timepoint",
          "type": "uint256"
        }
      ],
      "name": "getVotes",
      "outputs": [
        {
          "internalType": "uint256",
          "name": "",
          "type": "uint256"
        }
      ],
      "stateMutability": "view",
      "type": "function"
    },
    {
      "inputs": [
        {
          "internalType": "address",
          "name": "account",
          "type": "address"
        },
        {
          "internalType": "uint256",
          "name": "timepoint",
          "type": "uint256"
        },
        {
          "internalType": "bytes",
          "name": "params",
          "type": "bytes"
        }
      ],
      "name": "getVotesWithParams",
      "outputs": [
        {
          "internalType": "uint256",
          "name": "",
          "type": "uint256"
        }
      ],
      "stateMutability": "view",
      "type": "function"
    },
    {
      "inputs": [
        {
          "internalType": "uint256",
          "name": "proposalId",
          "type": "uint256"
        },
        {
          "internalType": "address",
          "name": "account",
          "type": "address"
        }
      ],
      "name": "hasVoted",
      "outputs": [
        {
          "internalType": "bool",
          "name": "",
          "type": "bool"
        }
      ],
      "stateMutability": "view",
      "type": "function"
    },
    {
      "inputs": [
        {
          "internalType": "address[]",
          "name": "targets",
          "type": "address[]"
        },
        {
          "internalType": "uint256[]",
          "name": "values",
          "type": "uint256[]"
        },
        {
          "internalType": "bytes[]",
          "name": "calldatas",
          "type": "bytes[]"
        },
        {
          "internalType": "bytes32",
          "name": "descriptionHash",
          "type": "bytes32"
        }
      ],
      "name": "hashProposal",
      "outputs": [
        {
          "internalType": "uint256",
          "name": "",
          "type": "uint256"
        }
      ],
      "stateMutability": "pure",
      "type": "function"
    },
    {
      "inputs": [
        {
          "internalType": "address",
          "name": "_token",
          "type": "address"
        },
        {
          "internalType": "address payable",
          "name": "_timelock",
          "type": "address"
        },
        {
          "internalType": "uint256",
          "name": "_initialVotingDelay",
          "type": "uint256"
        },
        {
          "internalType": "uint256",
          "name": "_initialVotingPeriod",
          "type": "uint256"
        },
        {
          "internalType": "uint256",
          "name": "_initialProposalThreshold",
          "type": "uint256"
        },
        {
          "internalType": "uint256",
          "name": "_votesQuorumFraction",
          "type": "uint256"
        }
      ],
      "name": "initialize",
      "outputs": [],
      "stateMutability": "nonpayable",
      "type": "function"
    },
    {
      "inputs": [],
      "name": "name",
      "outputs": [
        {
          "internalType": "string",
          "name": "",
          "type": "string"
        }
      ],
      "stateMutability": "view",
      "type": "function"
    },
    {
      "inputs": [
        {
          "internalType": "address",
          "name": "",
          "type": "address"
        },
        {
          "internalType": "address",
          "name": "",
          "type": "address"
        },
        {
          "internalType": "uint256[]",
          "name": "",
          "type": "uint256[]"
        },
        {
          "internalType": "uint256[]",
          "name": "",
          "type": "uint256[]"
        },
        {
          "internalType": "bytes",
          "name": "",
          "type": "bytes"
        }
      ],
      "name": "onERC1155BatchReceived",
      "outputs": [
        {
          "internalType": "bytes4",
          "name": "",
          "type": "bytes4"
        }
      ],
      "stateMutability": "nonpayable",
      "type": "function"
    },
    {
      "inputs": [
        {
          "internalType": "address",
          "name": "",
          "type": "address"
        },
        {
          "internalType": "address",
          "name": "",
          "type": "address"
        },
        {
          "internalType": "uint256",
          "name": "",
          "type": "uint256"
        },
        {
          "internalType": "uint256",
          "name": "",
          "type": "uint256"
        },
        {
          "internalType": "bytes",
          "name": "",
          "type": "bytes"
        }
      ],
      "name": "onERC1155Received",
      "outputs": [
        {
          "internalType": "bytes4",
          "name": "",
          "type": "bytes4"
        }
      ],
      "stateMutability": "nonpayable",
      "type": "function"
    },
    {
      "inputs": [
        {
          "internalType": "address",
          "name": "",
          "type": "address"
        },
        {
          "internalType": "address",
          "name": "",
          "type": "address"
        },
        {
          "internalType": "uint256",
          "name": "",
          "type": "uint256"
        },
        {
          "internalType": "bytes",
          "name": "",
          "type": "bytes"
        }
      ],
      "name": "onERC721Received",
      "outputs": [
        {
          "internalType": "bytes4",
          "name": "",
          "type": "bytes4"
        }
      ],
      "stateMutability": "nonpayable",
      "type": "function"
    },
    {
      "inputs": [
        {
          "internalType": "uint256",
          "name": "proposalId",
          "type": "uint256"
        }
      ],
      "name": "proposalDeadline",
      "outputs": [
        {
          "internalType": "uint256",
          "name": "",
          "type": "uint256"
        }
      ],
      "stateMutability": "view",
      "type": "function"
    },
    {
      "inputs": [
        {
          "internalType": "uint256",
          "name": "proposalId",
          "type": "uint256"
        }
      ],
      "name": "proposalEta",
      "outputs": [
        {
          "internalType": "uint256",
          "name": "",
          "type": "uint256"
        }
      ],
      "stateMutability": "view",
      "type": "function"
    },
    {
      "inputs": [
        {
          "internalType": "uint256",
          "name": "proposalId",
          "type": "uint256"
        }
      ],
      "name": "proposalProposer",
      "outputs": [
        {
          "internalType": "address",
          "name": "",
          "type": "address"
        }
      ],
      "stateMutability": "view",
      "type": "function"
    },
    {
      "inputs": [
        {
          "internalType": "uint256",
          "name": "proposalId",
          "type": "uint256"
        }
      ],
      "name": "proposalSnapshot",
      "outputs": [
        {
          "internalType": "uint256",
          "name": "",
          "type": "uint256"
        }
      ],
      "stateMutability": "view",
      "type": "function"
    },
    {
      "inputs": [],
      "name": "proposalThreshold",
      "outputs": [
        {
          "internalType": "uint256",
          "name": "",
          "type": "uint256"
        }
      ],
      "stateMutability": "view",
      "type": "function"
    },
    {
      "inputs": [
        {
          "internalType": "uint256",
          "name": "proposalId",
          "type": "uint256"
        }
      ],
      "name": "proposalVotes",
      "outputs": [
        {
          "internalType": "uint256",
          "name": "againstVotes",
          "type": "uint256"
        },
        {
          "internalType": "uint256",
          "name": "forVotes",
          "type": "uint256"
        },
        {
          "internalType": "uint256",
          "name": "abstainVotes",
          "type": "uint256"
        }
      ],
      "stateMutability": "view",
      "type": "function"
    },
    {
      "inputs": [
        {
          "internalType": "address[]",
          "name": "targets",
          "type": "address[]"
        },
        {
          "internalType": "uint256[]",
          "name": "values",
          "type": "uint256[]"
        },
        {
          "internalType": "bytes[]",
          "name": "calldatas",
          "type": "bytes[]"
        },
        {
          "internalType": "string",
          "name": "description",
          "type": "string"
        }
      ],
      "name": "propose",
      "outputs": [
        {
          "internalType": "uint256",
          "name": "",
          "type": "uint256"
        }
      ],
      "stateMutability": "nonpayable",
      "type": "function"
    },
    {
      "inputs": [
        {
          "internalType": "address[]",
          "name": "_targets",
          "type": "address[]"
        },
        {
          "internalType": "uint256[]",
          "name": "_values",
          "type": "uint256[]"
        },
        {
          "internalType": "bytes[]",
          "name": "_calldatas",
          "type": "bytes[]"
        },
        {
          "internalType": "bytes32",
          "name": "_descriptionHash",
          "type": "bytes32"
        }
      ],
      "name": "queue",
      "outputs": [
        {
          "internalType": "uint256",
          "name": "",
          "type": "uint256"
        }
      ],
      "stateMutability": "nonpayable",
      "type": "function"
    },
    {
      "inputs": [
        {
          "internalType": "uint256",
          "name": "blockNumber",
          "type": "uint256"
        }
      ],
      "name": "quorum",
      "outputs": [
        {
          "internalType": "uint256",
          "name": "",
          "type": "uint256"
        }
      ],
      "stateMutability": "view",
      "type": "function"
    },
    {
      "inputs": [],
      "name": "quorumDenominator",
      "outputs": [
        {
          "internalType": "uint256",
          "name": "",
          "type": "uint256"
        }
      ],
      "stateMutability": "view",
      "type": "function"
    },
    {
      "inputs": [
        {
          "internalType": "uint256",
          "name": "timepoint",
          "type": "uint256"
        }
      ],
      "name": "quorumNumerator",
      "outputs": [
        {
          "internalType": "uint256",
          "name": "",
          "type": "uint256"
        }
      ],
      "stateMutability": "view",
      "type": "function"
    },
    {
      "inputs": [],
      "name": "quorumNumerator",
      "outputs": [
        {
          "internalType": "uint256",
          "name": "",
          "type": "uint256"
        }
      ],
      "stateMutability": "view",
      "type": "function"
    },
    {
      "inputs": [
        {
          "internalType": "address",
          "name": "target",
          "type": "address"
        },
        {
          "internalType": "uint256",
          "name": "value",
          "type": "uint256"
        },
        {
          "internalType": "bytes",
          "name": "data",
          "type": "bytes"
        }
      ],
      "name": "relay",
      "outputs": [],
      "stateMutability": "payable",
      "type": "function"
    },
    {
      "inputs": [
        {
          "internalType": "uint256",
          "name": "newProposalThreshold",
          "type": "uint256"
        }
      ],
      "name": "setProposalThreshold",
      "outputs": [],
      "stateMutability": "nonpayable",
      "type": "function"
    },
    {
      "inputs": [
        {
          "internalType": "uint256",
          "name": "newVotingDelay",
          "type": "uint256"
        }
      ],
      "name": "setVotingDelay",
      "outputs": [],
      "stateMutability": "nonpayable",
      "type": "function"
    },
    {
      "inputs": [
        {
          "internalType": "uint256",
          "name": "newVotingPeriod",
          "type": "uint256"
        }
      ],
      "name": "setVotingPeriod",
      "outputs": [],
      "stateMutability": "nonpayable",
      "type": "function"
    },
    {
      "inputs": [
        {
          "internalType": "uint256",
          "name": "proposalId",
          "type": "uint256"
        }
      ],
      "name": "state",
      "outputs": [
        {
          "internalType": "enum IGovernorUpgradeable.ProposalState",
          "name": "",
          "type": "uint8"
        }
      ],
      "stateMutability": "view",
      "type": "function"
    },
    {
      "inputs": [
        {
          "internalType": "bytes4",
          "name": "interfaceId",
          "type": "bytes4"
        }
      ],
      "name": "supportsInterface",
      "outputs": [
        {
          "internalType": "bool",
          "name": "",
          "type": "bool"
        }
      ],
      "stateMutability": "view",
      "type": "function"
    },
    {
      "inputs": [],
      "name": "timelock",
      "outputs": [
        {
          "internalType": "address",
          "name": "",
          "type": "address"
        }
      ],
      "stateMutability": "view",
      "type": "function"
    },
    {
      "inputs": [],
      "name": "token",
      "outputs": [
        {
          "internalType": "contract IERC5805Upgradeable",
          "name": "",
          "type": "address"
        }
      ],
      "stateMutability": "view",
      "type": "function"
    },
    {
      "inputs": [
        {
          "internalType": "uint256",
          "name": "newQuorumNumerator",
          "type": "uint256"
        }
      ],
      "name": "updateQuorumNumerator",
      "outputs": [],
      "stateMutability": "nonpayable",
      "type": "function"
    },
    {
      "inputs": [
        {
          "internalType": "contract TimelockControllerUpgradeable",
          "name": "newTimelock",
          "type": "address"
        }
      ],
      "name": "updateTimelock",
      "outputs": [],
      "stateMutability": "nonpayable",
      "type": "function"
    },
    {
      "inputs": [],
      "name": "version",
      "outputs": [
        {
          "internalType": "string",
          "name": "",
          "type": "string"
        }
      ],
      "stateMutability": "view",
      "type": "function"
    },
    {
      "inputs": [],
      "name": "votingDelay",
      "outputs": [
        {
          "internalType": "uint256",
          "name": "",
          "type": "uint256"
        }
      ],
      "stateMutability": "view",
      "type": "function"
    },
    {
      "inputs": [],
      "name": "votingPeriod",
      "outputs": [
        {
          "internalType": "uint256",
          "name": "",
          "type": "uint256"
        }
      ],
      "stateMutability": "view",
      "type": "function"
    },
    {
      "stateMutability": "payable",
      "type": "receive"
    }
  ],
  "transactionHash": "0xf220235af95728e0f8af6b346e1c19aebd0e3c4509879174b7c50eea6c43c257",
  "args": [],
  "numDeployments": 1,
  "solcInputHash": "ede2722f578d3c24a4fca7231128a150",
  "bytecode": "0x60e06040523480156200001157600080fd5b506001608052600060a081905260c0526200002b62000031565b620000f2565b600054610100900460ff16156200009e5760405162461bcd60e51b815260206004820152602760248201527f496e697469616c697a61626c653a20636f6e747261637420697320696e697469604482015266616c697a696e6760c81b606482015260840160405180910390fd5b60005460ff90811614620000f0576000805460ff191660ff9081179091556040519081527f7f26b83ff96e1f2b6a682f133852f6798a09c465da95921460cefb38474024989060200160405180910390a15b565b60805160a05160c051615dc462000122600039600061267a01526000612651015260006126280152615dc46000f3fe60806040526004361061030c5760003560e01c80637b3c71d31161019a578063c01f9e37116100e1578063ea0217cf1161008a578063f23a6e6111610064578063f23a6e6114610a6d578063f8ce560a14610ab2578063fc0c546a14610ad257600080fd5b8063ea0217cf14610a0d578063eb9019d414610a2d578063ece40cc114610a4d57600080fd5b8063d33219b4116100bb578063d33219b414610974578063dd4e2ba514610993578063deaaa7cc146109d957600080fd5b8063c01f9e3714610907578063c28bc2fa14610941578063c59057e41461095457600080fd5b80639a802a6d11610143578063ab58fb8e1161011d578063ab58fb8e1461088d578063b58131b0146108ad578063bc197c81146108c257600080fd5b80639a802a6d14610838578063a7713a7014610858578063a890c9101461086d57600080fd5b806386489ba91161017457806386489ba9146107d857806391ddadf4146107f857806397c3d3341461082457600080fd5b80637b3c71d3146107705780637d5e81e21461079057806384b0196e146107b057600080fd5b80633932abb11161025e578063544ffc9c116102075780635f398a14116101e15780635f398a141461071057806360c4247f1461073057806370b0f6601461075057600080fd5b8063544ffc9c1461068557806354fd4d50146106db57806356781388146106f057600080fd5b806343859632116102385780634385963214610605578063452115d6146106505780634bf5d7e91461067057600080fd5b80633932abb1146105a35780633bccf4fd146105b85780633e4f49e6146105d857600080fd5b8063143489d0116102c05780632656227d1161029a5780632656227d146105255780632d63f693146105385780632fe3e2611461056f57600080fd5b8063143489d014610436578063150b7a0214610490578063160cbed71461050557600080fd5b806303420181116102f157806303420181146103d457806306f3f9e6146103f457806306fdde031461041457600080fd5b806301ffc9a71461037c57806302a251a3146103b157600080fd5b36610377573061031a610af3565b6001600160a01b0316146103755760405162461bcd60e51b815260206004820152601f60248201527f476f7665726e6f723a206d7573742073656e6420746f206578656375746f720060448201526064015b60405180910390fd5b005b600080fd5b34801561038857600080fd5b5061039c610397366004614c1a565b610b0d565b60405190151581526020015b60405180910390f35b3480156103bd57600080fd5b506103c6610b1e565b6040519081526020016103a8565b3480156103e057600080fd5b506103c66103ef366004614d9c565b610b2a565b34801561040057600080fd5b5061037561040f366004614e43565b610c22565b34801561042057600080fd5b50610429610cdc565b6040516103a89190614eb8565b34801561044257600080fd5b50610478610451366004614e43565b600090815260fe60205260409020546801000000000000000090046001600160a01b031690565b6040516001600160a01b0390911681526020016103a8565b34801561049c57600080fd5b506104d46104ab366004614ee0565b7f150b7a0200000000000000000000000000000000000000000000000000000000949350505050565b6040517fffffffff0000000000000000000000000000000000000000000000000000000090911681526020016103a8565b34801561051157600080fd5b506103c66105203660046150ba565b610d6e565b6103c66105333660046150ba565b611074565b34801561054457600080fd5b506103c6610553366004614e43565b600090815260fe602052604090205467ffffffffffffffff1690565b34801561057b57600080fd5b506103c67fb3b3f3b703cd84ce352197dcff232b1b5d3cfb2025ce47cf04742d0651f1af8881565b3480156105af57600080fd5b506103c66111da565b3480156105c457600080fd5b506103c66105d336600461514a565b6111e6565b3480156105e457600080fd5b506105f86105f3366004614e43565b61125c565b6040516103a891906151c7565b34801561061157600080fd5b5061039c610620366004615208565b6000828152610161602090815260408083206001600160a01b038516845260030190915290205460ff1692915050565b34801561065c57600080fd5b506103c661066b3660046150ba565b611267565b34801561067c57600080fd5b50610429611398565b34801561069157600080fd5b506106c06106a0366004614e43565b600090815261016160205260409020805460018201546002909201549092565b604080519384526020840192909252908201526060016103a8565b3480156106e757600080fd5b5061042961145e565b3480156106fc57600080fd5b506103c661070b366004615238565b611468565b34801561071c57600080fd5b506103c661072b366004615264565b611491565b34801561073c57600080fd5b506103c661074b366004614e43565b6114db565b34801561075c57600080fd5b5061037561076b366004614e43565b6115d0565b34801561077c57600080fd5b506103c661078b3660046152e8565b611687565b34801561079c57600080fd5b506103c66107ab366004615342565b6116cf565b3480156107bc57600080fd5b506107c56116e6565b6040516103a89796959493929190615432565b3480156107e457600080fd5b506103756107f33660046154ae565b6117a8565b34801561080457600080fd5b5061080d61198a565b60405165ffffffffffff90911681526020016103a8565b34801561083057600080fd5b5060646103c6565b34801561084457600080fd5b506103c6610853366004615507565b611a17565b34801561086457600080fd5b506103c6611a2e565b34801561087957600080fd5b50610375610888366004615560565b611a70565b34801561089957600080fd5b506103c66108a8366004614e43565b611b27565b3480156108b957600080fd5b506103c6611bdc565b3480156108ce57600080fd5b506104d46108dd36600461557d565b7fbc197c810000000000000000000000000000000000000000000000000000000095945050505050565b34801561091357600080fd5b506103c6610922366004614e43565b600090815260fe602052604090206001015467ffffffffffffffff1690565b61037561094f366004615611565b611be8565b34801561096057600080fd5b506103c661096f3660046150ba565b611d1e565b34801561098057600080fd5b506101f8546001600160a01b0316610478565b34801561099f57600080fd5b506040805180820190915260208082527f737570706f72743d627261766f2671756f72756d3d666f722c6162737461696e90820152610429565b3480156109e557600080fd5b506103c67f150214d74d59b7d1e90c73fc22ef3d991dd0a76b046543d4d80ab92d2a50328f81565b348015610a1957600080fd5b50610375610a28366004614e43565b611d58565b348015610a3957600080fd5b506103c6610a48366004615655565b611e0f565b348015610a5957600080fd5b50610375610a68366004614e43565b611e30565b348015610a7957600080fd5b506104d4610a88366004615681565b7ff23a6e610000000000000000000000000000000000000000000000000000000095945050505050565b348015610abe57600080fd5b506103c6610acd366004614e43565b611ee7565b348015610ade57600080fd5b5061019354610478906001600160a01b031681565b6000610b086101f8546001600160a01b031690565b905090565b6000610b1882611ef2565b92915050565b6000610b086101305490565b600080610bce610bc67fb3b3f3b703cd84ce352197dcff232b1b5d3cfb2025ce47cf04742d0651f1af888c8c8c8c604051610b669291906156ea565b60405180910390208b80519060200120604051602001610bab959493929190948552602085019390935260ff9190911660408401526060830152608082015260a00190565b60405160208183030381529060405280519060200120611f48565b868686611f90565b9050610c148a828b8b8b8080601f0160208091040260200160405190810160405280939291908181526020018383808284376000920191909152508d9250611fae915050565b9a9950505050505050505050565b610c2a610af3565b6001600160a01b0316336001600160a01b031614610c8a5760405162461bcd60e51b815260206004820152601860248201527f476f7665726e6f723a206f6e6c79476f7665726e616e63650000000000000000604482015260640161036c565b30610c93610af3565b6001600160a01b031614610cd05760008036604051610cb39291906156ea565b604051809103902090505b80610cc960ff61211e565b03610cbe57505b610cd9816121db565b50565b606060fd8054610ceb906156fa565b80601f0160208091040260200160405190810160405280929190818152602001828054610d17906156fa565b8015610d645780601f10610d3957610100808354040283529160200191610d64565b820191906000526020600020905b815481529060010190602001808311610d4757829003601f168201915b5050505050905090565b600080610d7d86868686611d1e565b90506004610d8a8261125c565b6007811115610d9b57610d9b615198565b14610e0e5760405162461bcd60e51b815260206004820152602860248201527f55706772616465476f7665726e6f723a2070726f706f73616c206e6f7420737560448201527f636365737366756c000000000000000000000000000000000000000000000000606482015260840161036c565b6101f854604080517ff27a0c9200000000000000000000000000000000000000000000000000000000815290516000926001600160a01b03169163f27a0c929160048083019260209291908290030181865afa158015610e72573d6000803e3d6000fd5b505050506040513d601f19601f82011682018060405250810190610e96919061574d565b905060006001600160a01b031687600081518110610eb657610eb6615766565b60200260200101516001600160a01b0316148015610eee575085600081518110610ee257610ee2615766565b60200260200101516000145b15610ef7575060005b6101f8546040517fb1c5f4270000000000000000000000000000000000000000000000000000000081526001600160a01b039091169063b1c5f42790610f4a908a908a908a906000908b90600401615823565b602060405180830381865afa158015610f67573d6000803e3d6000fd5b505050506040513d601f19601f82011682018060405250810190610f8b919061574d565b60008381526101f96020526040808220929092556101f85491517f8f2a0bb00000000000000000000000000000000000000000000000000000000081526001600160a01b0390921691638f2a0bb091610ff1918b918b918b91908b908990600401615871565b600060405180830381600087803b15801561100b57600080fd5b505af115801561101f573d6000803e3d6000fd5b505050507f9a2e42fd6722813d69113e7d0079d3d940171428df7373df9c7f7617cfda289282824261105191906158f8565b604080519283526020830191909152015b60405180910390a15095945050505050565b60008061108386868686611d1e565b905060006110908261125c565b905060048160078111156110a6576110a6615198565b14806110c3575060058160078111156110c1576110c1615198565b145b6111355760405162461bcd60e51b815260206004820152602160248201527f476f7665726e6f723a2070726f706f73616c206e6f742073756363657373667560448201527f6c00000000000000000000000000000000000000000000000000000000000000606482015260840161036c565b600082815260fe60205260409081902060020180547fffffffffffffffffffffffffffffffffffffffffffffffffffffffffffffff00166001179055517f712ae1383f79ac853f8d882153778e0260ef8f03b504e2866e0593e04d2b291f906111a19084815260200190565b60405180910390a16111b6828888888861237c565b6111c3828888888861241e565b6111d0828888888861242b565b5095945050505050565b6000610b0861012f5490565b604080517f150214d74d59b7d1e90c73fc22ef3d991dd0a76b046543d4d80ab92d2a50328f602082015290810186905260ff85166060820152600090819061123490610bc690608001610bab565b905061125187828860405180602001604052806000815250612471565b979650505050505050565b6000610b1882612494565b60008061127686868686611d1e565b905060006112838261125c565b600781111561129457611294615198565b146112e15760405162461bcd60e51b815260206004820152601c60248201527f476f7665726e6f723a20746f6f206c61746520746f2063616e63656c00000000604482015260640161036c565b600081815260fe60205260409020546801000000000000000090046001600160a01b0316336001600160a01b0316146113825760405162461bcd60e51b815260206004820152602260248201527f476f7665726e6f723a206f6e6c792070726f706f7365722063616e2063616e6360448201527f656c000000000000000000000000000000000000000000000000000000000000606482015260840161036c565b61138e86868686612613565b9695505050505050565b61019354604080517f4bf5d7e900000000000000000000000000000000000000000000000000000000815290516060926001600160a01b031691634bf5d7e99160048083019260009291908290030181865afa92505050801561141d57506040513d6000823e601f3d908101601f1916820160405261141a9190810190615910565b60015b611459575060408051808201909152601d81527f6d6f64653d626c6f636b6e756d6265722666726f6d3d64656661756c74000000602082015290565b919050565b6060610b08612621565b60008033905061148984828560405180602001604052806000815250612471565b949350505050565b60008033905061125187828888888080601f0160208091040260200160405190810160405280939291908181526020018383808284376000920191909152508a9250611fae915050565b6101c7546000908082036114f45750506101c654919050565b60006101c761150460018461597e565b8154811061151457611514615766565b60009182526020918290206040805180820190915291015463ffffffff81168083526401000000009091047bffffffffffffffffffffffffffffffffffffffffffffffffffffffff16928201929092529150841061159557602001517bffffffffffffffffffffffffffffffffffffffffffffffffffffffff169392505050565b6115aa6115a1856126c4565b6101c790612744565b7bffffffffffffffffffffffffffffffffffffffffffffffffffffffff16949350505050565b6115d8610af3565b6001600160a01b0316336001600160a01b0316146116385760405162461bcd60e51b815260206004820152601860248201527f476f7665726e6f723a206f6e6c79476f7665726e616e63650000000000000000604482015260640161036c565b30611641610af3565b6001600160a01b03161461167e57600080366040516116619291906156ea565b604051809103902090505b8061167760ff61211e565b0361166c57505b610cd98161280d565b60008033905061138e86828787878080601f01602080910402602001604051908101604052809392919081815260200183838082843760009201919091525061247192505050565b60006116dd85858585612850565b95945050505050565b6000606080600080600060606065546000801b1480156117065750606654155b6117525760405162461bcd60e51b815260206004820152601560248201527f4549503731323a20556e696e697469616c697a65640000000000000000000000604482015260640161036c565b61175a612d85565b611762612d94565b604080516000808252602082019092527f0f000000000000000000000000000000000000000000000000000000000000009b939a50919850469750309650945092509050565b600054610100900460ff16158080156117c85750600054600160ff909116105b806117e25750303b1580156117e2575060005460ff166001145b6118545760405162461bcd60e51b815260206004820152602e60248201527f496e697469616c697a61626c653a20636f6e747261637420697320616c72656160448201527f647920696e697469616c697a6564000000000000000000000000000000000000606482015260840161036c565b600080547fffffffffffffffffffffffffffffffffffffffffffffffffffffffffffffff0016600117905580156118b257600080547fffffffffffffffffffffffffffffffffffffffffffffffffffffffffffff00ff166101001790555b6118f06040518060400160405280600f81526020017f55706772616465476f7665726e6f720000000000000000000000000000000000815250612da3565b6118fb858585612e3a565b611903612ec7565b61190c87612f46565b61191582612fcc565b61191e86613052565b801561198157600080547fffffffffffffffffffffffffffffffffffffffffffffffffffffffffffff00ff169055604051600181527f7f26b83ff96e1f2b6a682f133852f6798a09c465da95921460cefb38474024989060200160405180910390a15b50505050505050565b61019354604080517f91ddadf400000000000000000000000000000000000000000000000000000000815290516000926001600160a01b0316916391ddadf49160048083019260209291908290030181865afa925050508015611a0a575060408051601f3d908101601f19168201909252611a0791810190615995565b60015b61145957610b08436130d8565b6000611a24848484613156565b90505b9392505050565b6101c75460009015611a6857611a456101c76131e6565b7bffffffffffffffffffffffffffffffffffffffffffffffffffffffff16905090565b506101c65490565b611a78610af3565b6001600160a01b0316336001600160a01b031614611ad85760405162461bcd60e51b815260206004820152601860248201527f476f7665726e6f723a206f6e6c79476f7665726e616e63650000000000000000604482015260640161036c565b30611ae1610af3565b6001600160a01b031614611b1e5760008036604051611b019291906156ea565b604051809103902090505b80611b1760ff61211e565b03611b0c57505b610cd98161322c565b6101f85460008281526101f960205260408082205490517fd45c44350000000000000000000000000000000000000000000000000000000081526004810191909152909182916001600160a01b039091169063d45c443590602401602060405180830381865afa158015611b9f573d6000803e3d6000fd5b505050506040513d601f19601f82011682018060405250810190611bc3919061574d565b905080600114611bd35780611a27565b60009392505050565b6000610b086101315490565b611bf0610af3565b6001600160a01b0316336001600160a01b031614611c505760405162461bcd60e51b815260206004820152601860248201527f476f7665726e6f723a206f6e6c79476f7665726e616e63650000000000000000604482015260640161036c565b30611c59610af3565b6001600160a01b031614611c965760008036604051611c799291906156ea565b604051809103902090505b80611c8f60ff61211e565b03611c8457505b600080856001600160a01b0316858585604051611cb49291906156ea565b60006040518083038185875af1925050503d8060008114611cf1576040519150601f19603f3d011682016040523d82523d6000602084013e611cf6565b606091505b50915091506119818282604051806060016040528060288152602001615d90602891396132af565b600084848484604051602001611d3794939291906159bd565b60408051601f19818403018152919052805160209091012095945050505050565b611d60610af3565b6001600160a01b0316336001600160a01b031614611dc05760405162461bcd60e51b815260206004820152601860248201527f476f7665726e6f723a206f6e6c79476f7665726e616e63650000000000000000604482015260640161036c565b30611dc9610af3565b6001600160a01b031614611e065760008036604051611de99291906156ea565b604051809103902090505b80611dff60ff61211e565b03611df457505b610cd9816132c8565b6000611a278383611e2b60408051602081019091526000815290565b613156565b611e38610af3565b6001600160a01b0316336001600160a01b031614611e985760405162461bcd60e51b815260206004820152601860248201527f476f7665726e6f723a206f6e6c79476f7665726e616e63650000000000000000604482015260640161036c565b30611ea1610af3565b6001600160a01b031614611ede5760008036604051611ec19291906156ea565b604051809103902090505b80611ed760ff61211e565b03611ecc57505b610cd981613381565b6000610b18826133c4565b60007fffffffff0000000000000000000000000000000000000000000000000000000082167f6e665ced000000000000000000000000000000000000000000000000000000001480610b185750610b188261346c565b6000610b18611f55613616565b836040517f19010000000000000000000000000000000000000000000000000000000000008152600281019290925260228201526042902090565b6000806000611fa187878787613620565b915091506111d0816136e4565b600085815260fe602052604081206001611fc78861125c565b6007811115611fd857611fd8615198565b1461204b5760405162461bcd60e51b815260206004820152602360248201527f476f7665726e6f723a20766f7465206e6f742063757272656e746c792061637460448201527f6976650000000000000000000000000000000000000000000000000000000000606482015260840161036c565b805460009061206690889067ffffffffffffffff1686613156565b90506120758888888488613849565b83516000036120ca57866001600160a01b03167fb8e138887d0aa13bab447e82de9d5c1777041ecd21ca36ba824ff1e6c07ddda4898884896040516120bd9493929190615a08565b60405180910390a2611251565b866001600160a01b03167fe2babfbac5889a709b63bb7f598b324e08bc5a4fb9ec647fb3cbc9ec07eb8712898884898960405161210b959493929190615a30565b60405180910390a2979650505050505050565b60006121468254600f81810b700100000000000000000000000000000000909204900b131590565b1561217d576040517f3db2a12a00000000000000000000000000000000000000000000000000000000815260040160405180910390fd5b508054600f0b6000818152600180840160205260408220805492905583547fffffffffffffffffffffffffffffffff000000000000000000000000000000001692016fffffffffffffffffffffffffffffffff169190911790915590565b60648111156122785760405162461bcd60e51b815260206004820152604360248201527f476f7665726e6f72566f74657351756f72756d4672616374696f6e3a2071756f60448201527f72756d4e756d657261746f72206f7665722071756f72756d44656e6f6d696e6160648201527f746f720000000000000000000000000000000000000000000000000000000000608482015260a40161036c565b6000612282611a2e565b9050801580159061229457506101c754155b1561230f5760408051808201909152600081526101c790602081016122b884613a1e565b7bffffffffffffffffffffffffffffffffffffffffffffffffffffffff90811690915282546001810184556000938452602093849020835194909301519091166401000000000263ffffffff909316929092179101555b61233d61232a61231d61198a565b65ffffffffffff166126c4565b61233384613a1e565b6101c79190613ab2565b505060408051828152602081018490527f0553476bf02ef2726e8ce5ced78d63e26e602e4a2257b1f559418e24b4633997910160405180910390a15050565b30612385610af3565b6001600160a01b0316146124175760005b845181101561241557306001600160a01b03168582815181106123bb576123bb615766565b60200260200101516001600160a01b031603612405576124058382815181106123e6576123e6615766565b60200260200101518051906020012060ff613acd90919063ffffffff16565b61240e81615a76565b9050612396565b505b5050505050565b6124178585858585613b1f565b30612434610af3565b6001600160a01b0316146124175760ff54600f81810b700100000000000000000000000000000000909204900b131561241757600060ff55612417565b60006116dd8585858561248f60408051602081019091526000815290565b611fae565b6000806124a083613bad565b905060048160078111156124b6576124b6615198565b146124c15792915050565b60008381526101f96020526040902054806124dd575092915050565b6101f8546040517f2ab0f529000000000000000000000000000000000000000000000000000000008152600481018390526001600160a01b0390911690632ab0f52990602401602060405180830381865afa158015612540573d6000803e3d6000fd5b505050506040513d601f19601f820116820180604052508101906125649190615a90565b15612573575060079392505050565b6101f8546040517f584b153e000000000000000000000000000000000000000000000000000000008152600481018390526001600160a01b039091169063584b153e90602401602060405180830381865afa1580156125d6573d6000803e3d6000fd5b505050506040513d601f19601f820116820180604052508101906125fa9190615a90565b15612609575060059392505050565b5060029392505050565b60006116dd85858585613cf0565b606061264c7f0000000000000000000000000000000000000000000000000000000000000000613dbf565b6126757f0000000000000000000000000000000000000000000000000000000000000000613dbf565b61269e7f0000000000000000000000000000000000000000000000000000000000000000613dbf565b6040516020016126b093929190615ab2565b604051602081830303815290604052905090565b600063ffffffff8211156127405760405162461bcd60e51b815260206004820152602660248201527f53616665436173743a2076616c756520646f65736e27742066697420696e203360448201527f3220626974730000000000000000000000000000000000000000000000000000606482015260840161036c565b5090565b8154600090818160058111156127a157600061275f84613e5f565b612769908561597e565b60008881526020902090915081015463ffffffff90811690871610156127915780915061279f565b61279c8160016158f8565b92505b505b60006127af87878585613f47565b90508015612800576127d4876127c660018461597e565b600091825260209091200190565b5464010000000090047bffffffffffffffffffffffffffffffffffffffffffffffffffffffff16611251565b6000979650505050505050565b61012f5460408051918252602082018390527fc565b045403dc03c2eea82b81a0465edad9e2e7fc4d97e11421c209da93d7a93910160405180910390a161012f55565b60003361285d8184613fa5565b6128a95760405162461bcd60e51b815260206004820152601d60248201527f476f7665726e6f723a2070726f706f7365722072657374726963746564000000604482015260640161036c565b60006128b361198a565b65ffffffffffff1690506128c5611bdc565b6128d483610a4860018561597e565b10156129485760405162461bcd60e51b815260206004820152603160248201527f476f7665726e6f723a2070726f706f73657220766f7465732062656c6f77207060448201527f726f706f73616c207468726573686f6c64000000000000000000000000000000606482015260840161036c565b600061295d8888888880519060200120611d1e565b905086518851146129d65760405162461bcd60e51b815260206004820152602160248201527f476f7665726e6f723a20696e76616c69642070726f706f73616c206c656e677460448201527f6800000000000000000000000000000000000000000000000000000000000000606482015260840161036c565b8551885114612a4d5760405162461bcd60e51b815260206004820152602160248201527f476f7665726e6f723a20696e76616c69642070726f706f73616c206c656e677460448201527f6800000000000000000000000000000000000000000000000000000000000000606482015260840161036c565b6000885111612a9e5760405162461bcd60e51b815260206004820152601860248201527f476f7665726e6f723a20656d7074792070726f706f73616c0000000000000000604482015260640161036c565b600081815260fe602052604090205467ffffffffffffffff1615612b2a5760405162461bcd60e51b815260206004820152602160248201527f476f7665726e6f723a2070726f706f73616c20616c726561647920657869737460448201527f7300000000000000000000000000000000000000000000000000000000000000606482015260840161036c565b6000612b346111da565b612b3e90846158f8565b90506000612b4a610b1e565b612b5490836158f8565b90506040518060e00160405280612b6a846140f5565b67ffffffffffffffff1681526001600160a01b038716602082015260006040820152606001612b98836140f5565b67ffffffffffffffff9081168252600060208084018290526040808501839052606094850183905288835260fe8252918290208551815492870151878501519186167fffffffff0000000000000000000000000000000000000000000000000000000090941693909317680100000000000000006001600160a01b039094168402177bffffffffffffffffffffffffffffffffffffffffffffffffffffffff167c010000000000000000000000000000000000000000000000000000000060e09290921c91909102178155938501516080860151908416921c0217600183015560a08301516002909201805460c0909401517fffffffffffffffffffffffffffffffffffffffffffffffffffffffffffff00009094169215157fffffffffffffffffffffffffffffffffffffffffffffffffffffffffffff00ff1692909217610100931515939093029290921790558a517f7d84a6263ae0d98d3329bd7b46bb4e8d6f98cd35a7adb45c274c8b7fd5ebd5e091859188918e918e91811115612d2257612d22614cb6565b604051908082528060200260200182016040528015612d5557816020015b6060815260200190600190039081612d405790505b508d88888f604051612d6f99989796959493929190615b28565b60405180910390a1509098975050505050505050565b606060678054610ceb906156fa565b606060688054610ceb906156fa565b600054610100900460ff16612e205760405162461bcd60e51b815260206004820152602b60248201527f496e697469616c697a61626c653a20636f6e7472616374206973206e6f74206960448201527f6e697469616c697a696e67000000000000000000000000000000000000000000606482015260840161036c565b612e3181612e2c61145e565b614175565b610cd98161421a565b600054610100900460ff16612eb75760405162461bcd60e51b815260206004820152602b60248201527f496e697469616c697a61626c653a20636f6e7472616374206973206e6f74206960448201527f6e697469616c697a696e67000000000000000000000000000000000000000000606482015260840161036c565b612ec28383836142a7565b505050565b600054610100900460ff16612f445760405162461bcd60e51b815260206004820152602b60248201527f496e697469616c697a61626c653a20636f6e7472616374206973206e6f74206960448201527f6e697469616c697a696e67000000000000000000000000000000000000000000606482015260840161036c565b565b600054610100900460ff16612fc35760405162461bcd60e51b815260206004820152602b60248201527f496e697469616c697a61626c653a20636f6e7472616374206973206e6f74206960448201527f6e697469616c697a696e67000000000000000000000000000000000000000000606482015260840161036c565b610cd98161433f565b600054610100900460ff166130495760405162461bcd60e51b815260206004820152602b60248201527f496e697469616c697a61626c653a20636f6e7472616374206973206e6f74206960448201527f6e697469616c697a696e67000000000000000000000000000000000000000000606482015260840161036c565b610cd9816143f7565b600054610100900460ff166130cf5760405162461bcd60e51b815260206004820152602b60248201527f496e697469616c697a61626c653a20636f6e7472616374206973206e6f74206960448201527f6e697469616c697a696e67000000000000000000000000000000000000000000606482015260840161036c565b610cd981614474565b600065ffffffffffff8211156127405760405162461bcd60e51b815260206004820152602660248201527f53616665436173743a2076616c756520646f65736e27742066697420696e203460448201527f3820626974730000000000000000000000000000000000000000000000000000606482015260840161036c565b610193546040517f3a46b1a80000000000000000000000000000000000000000000000000000000081526001600160a01b038581166004830152602482018590526000921690633a46b1a890604401602060405180830381865afa1580156131c2573d6000803e3d6000fd5b505050506040513d601f19601f82011682018060405250810190611a24919061574d565b80546000908015611bd357613200836127c660018461597e565b5464010000000090047bffffffffffffffffffffffffffffffffffffffffffffffffffffffff16611a27565b6101f854604080516001600160a01b03928316815291831660208301527f08f74ea46ef7894f65eabfb5e6e695de773a000b47c529ab559178069b226401910160405180910390a16101f880547fffffffffffffffffffffffff0000000000000000000000000000000000000000166001600160a01b0392909216919091179055565b606083156132be575081611a27565b611a2783836144f1565b6000811161333e5760405162461bcd60e51b815260206004820152602760248201527f476f7665726e6f7253657474696e67733a20766f74696e6720706572696f642060448201527f746f6f206c6f7700000000000000000000000000000000000000000000000000606482015260840161036c565b6101305460408051918252602082018390527f7e3f7f0708a84de9203036abaa450dccc85ad5ff52f78c170f3edb55cf5e8828910160405180910390a161013055565b6101315460408051918252602082018390527fccb45da8d5717e6c4544694297c4ba5cf151d455c9bb0ed4fc7a38411bc05461910160405180910390a161013155565b600060646133d1836114db565b610193546040517f8e539e8c000000000000000000000000000000000000000000000000000000008152600481018690526001600160a01b0390911690638e539e8c90602401602060405180830381865afa158015613434573d6000803e3d6000fd5b505050506040513d601f19601f82011682018060405250810190613458919061574d565b6134629190615c00565b610b189190615c4e565b60007f51159c06000000000000000000000000000000000000000000000000000000007fc6fba1f8000000000000000000000000000000000000000000000000000000007fbf26d897000000000000000000000000000000000000000000000000000000007f79dd796f000000000000000000000000000000000000000000000000000000007fffffffff00000000000000000000000000000000000000000000000000000000861682148061354657507fffffffff00000000000000000000000000000000000000000000000000000000868116908216145b8061357557507fffffffff00000000000000000000000000000000000000000000000000000000868116908516145b806135c157507fffffffff0000000000000000000000000000000000000000000000000000000086167f4e2312e000000000000000000000000000000000000000000000000000000000145b8061138e57507f01ffc9a7000000000000000000000000000000000000000000000000000000007fffffffff000000000000000000000000000000000000000000000000000000008716149695505050505050565b6000610b0861451b565b6000807f7fffffffffffffffffffffffffffffff5d576e7357a4501ddfe92f46681b20a083111561365757506000905060036136db565b6040805160008082526020820180845289905260ff881692820192909252606081018690526080810185905260019060a0016020604051602081039080840390855afa1580156136ab573d6000803e3d6000fd5b5050604051601f1901519150506001600160a01b0381166136d4576000600192509250506136db565b9150600090505b94509492505050565b60008160048111156136f8576136f8615198565b036137005750565b600181600481111561371457613714615198565b036137615760405162461bcd60e51b815260206004820152601860248201527f45434453413a20696e76616c6964207369676e61747572650000000000000000604482015260640161036c565b600281600481111561377557613775615198565b036137c25760405162461bcd60e51b815260206004820152601f60248201527f45434453413a20696e76616c6964207369676e6174757265206c656e67746800604482015260640161036c565b60038160048111156137d6576137d6615198565b03610cd95760405162461bcd60e51b815260206004820152602260248201527f45434453413a20696e76616c6964207369676e6174757265202773272076616c60448201527f7565000000000000000000000000000000000000000000000000000000000000606482015260840161036c565b6000858152610161602090815260408083206001600160a01b0388168452600381019092529091205460ff16156138e85760405162461bcd60e51b815260206004820152602760248201527f476f7665726e6f72566f74696e6753696d706c653a20766f746520616c72656160448201527f6479206361737400000000000000000000000000000000000000000000000000606482015260840161036c565b6001600160a01b0385166000908152600382016020526040902080547fffffffffffffffffffffffffffffffffffffffffffffffffffffffffffffff0016600117905560ff8416613952578281600001600082825461394791906158f8565b909155506124159050565b60001960ff851601613972578281600101600082825461394791906158f8565b7ffffffffffffffffffffffffffffffffffffffffffffffffffffffffffffffffe60ff8516016139b0578281600201600082825461394791906158f8565b60405162461bcd60e51b815260206004820152603560248201527f476f7665726e6f72566f74696e6753696d706c653a20696e76616c696420766160448201527f6c756520666f7220656e756d20566f7465547970650000000000000000000000606482015260840161036c565b60007bffffffffffffffffffffffffffffffffffffffffffffffffffffffff8211156127405760405162461bcd60e51b815260206004820152602760248201527f53616665436173743a2076616c756520646f65736e27742066697420696e203260448201527f3234206269747300000000000000000000000000000000000000000000000000606482015260840161036c565b600080613ac085858561458f565b915091505b935093915050565b815470010000000000000000000000000000000090819004600f0b6000818152600180860160205260409091209390935583546fffffffffffffffffffffffffffffffff908116939091011602179055565b6101f8546040517fe38335e50000000000000000000000000000000000000000000000000000000081526001600160a01b039091169063e38335e5903490613b74908890889088906000908990600401615823565b6000604051808303818588803b158015613b8d57600080fd5b505af1158015613ba1573d6000803e3d6000fd5b50505050505050505050565b600081815260fe60205260408120600281015460ff1615613bd15750600792915050565b6002810154610100900460ff1615613bec5750600292915050565b600083815260fe602052604081205467ffffffffffffffff1690819003613c555760405162461bcd60e51b815260206004820152601d60248201527f476f7665726e6f723a20756e6b6e6f776e2070726f706f73616c206964000000604482015260640161036c565b6000613c5f61198a565b65ffffffffffff169050808210613c7b57506000949350505050565b600085815260fe602052604090206001015467ffffffffffffffff16818110613caa5750600195945050505050565b613cb386614786565b8015613cd357506000868152610161602052604090208054600190910154115b15613ce45750600495945050505050565b50600395945050505050565b600080613cff868686866147d4565b60008181526101f96020526040902054909150156116dd576101f85460008281526101f96020526040908190205490517fc4d252f50000000000000000000000000000000000000000000000000000000081526001600160a01b039092169163c4d252f591613d749160040190815260200190565b600060405180830381600087803b158015613d8e57600080fd5b505af1158015613da2573d6000803e3d6000fd5b50505060008281526101f960205260408120555095945050505050565b60606000613dcc836148fd565b600101905060008167ffffffffffffffff811115613dec57613dec614cb6565b6040519080825280601f01601f191660200182016040528015613e16576020820181803683370190505b5090508181016020015b600019017f3031323334353637383961626364656600000000000000000000000000000000600a86061a8153600a8504945084613e2057509392505050565b600081600003613e7157506000919050565b60006001613e7e846149df565b901c6001901b90506001818481613e9757613e97615c1f565b048201901c90506001818481613eaf57613eaf615c1f565b048201901c90506001818481613ec757613ec7615c1f565b048201901c90506001818481613edf57613edf615c1f565b048201901c90506001818481613ef757613ef7615c1f565b048201901c90506001818481613f0f57613f0f615c1f565b048201901c90506001818481613f2757613f27615c1f565b048201901c9050611a2781828581613f4157613f41615c1f565b04614a73565b60005b81831015613f9d576000613f5e8484614a89565b60008781526020902090915063ffffffff86169082015463ffffffff161115613f8957809250613f97565b613f948160016158f8565b93505b50613f4a565b509392505050565b80516000906034811015613fbd576001915050610b18565b8281017fffffffffffffffffffffffffffffffffffffffffffffffffffffffffffffffec01517fffffffffffffffffffffffff000000000000000000000000000000000000000081167f2370726f706f7365723d307800000000000000000000000000000000000000001461403757600192505050610b18565b60008061404560288561597e565b90505b838110156140d45760008061409488848151811061406857614068615766565b01602001517fff0000000000000000000000000000000000000000000000000000000000000016614aa4565b91509150816140ac5760019650505050505050610b18565b8060ff166004856001600160a01b0316901b1793505050806140cd90615a76565b9050614048565b50856001600160a01b0316816001600160a01b031614935050505092915050565b600067ffffffffffffffff8211156127405760405162461bcd60e51b815260206004820152602660248201527f53616665436173743a2076616c756520646f65736e27742066697420696e203660448201527f3420626974730000000000000000000000000000000000000000000000000000606482015260840161036c565b600054610100900460ff166141f25760405162461bcd60e51b815260206004820152602b60248201527f496e697469616c697a61626c653a20636f6e7472616374206973206e6f74206960448201527f6e697469616c697a696e67000000000000000000000000000000000000000000606482015260840161036c565b60676141fe8382615ccf565b50606861420b8282615ccf565b50506000606581905560665550565b600054610100900460ff166142975760405162461bcd60e51b815260206004820152602b60248201527f496e697469616c697a61626c653a20636f6e7472616374206973206e6f74206960448201527f6e697469616c697a696e67000000000000000000000000000000000000000000606482015260840161036c565b60fd6142a38282615ccf565b5050565b600054610100900460ff166143245760405162461bcd60e51b815260206004820152602b60248201527f496e697469616c697a61626c653a20636f6e7472616374206973206e6f74206960448201527f6e697469616c697a696e67000000000000000000000000000000000000000000606482015260840161036c565b61432d8361280d565b614336826132c8565b612ec281613381565b600054610100900460ff166143bc5760405162461bcd60e51b815260206004820152602b60248201527f496e697469616c697a61626c653a20636f6e7472616374206973206e6f74206960448201527f6e697469616c697a696e67000000000000000000000000000000000000000000606482015260840161036c565b61019380547fffffffffffffffffffffffff0000000000000000000000000000000000000000166001600160a01b0392909216919091179055565b600054610100900460ff16610cd05760405162461bcd60e51b815260206004820152602b60248201527f496e697469616c697a61626c653a20636f6e7472616374206973206e6f74206960448201527f6e697469616c697a696e67000000000000000000000000000000000000000000606482015260840161036c565b600054610100900460ff16611b1e5760405162461bcd60e51b815260206004820152602b60248201527f496e697469616c697a61626c653a20636f6e7472616374206973206e6f74206960448201527f6e697469616c697a696e67000000000000000000000000000000000000000000606482015260840161036c565b8151156145015781518083602001fd5b8060405162461bcd60e51b815260040161036c9190614eb8565b60007f8b73c3c69bb8fe3d512ecc4cf759cc79239f7b179b0ffacaa9a75d522b39400f614546614b90565b61454e614be9565b60408051602081019490945283019190915260608201524660808201523060a082015260c00160405160208183030381529060405280519060200120905090565b8254600090819080156147175760006145ad876127c660018561597e565b60408051808201909152905463ffffffff8082168084526401000000009092047bffffffffffffffffffffffffffffffffffffffffffffffffffffffff16602084015291925090871610156146445760405162461bcd60e51b815260206004820152601b60248201527f436865636b706f696e743a2064656372656173696e67206b6579730000000000604482015260640161036c565b805163ffffffff8088169116036146a25784614665886127c660018661597e565b80547bffffffffffffffffffffffffffffffffffffffffffffffffffffffff929092166401000000000263ffffffff909216919091179055614707565b6040805180820190915263ffffffff80881682527bffffffffffffffffffffffffffffffffffffffffffffffffffffffff80881660208085019182528b54600181018d5560008d81529190912094519151909216640100000000029216919091179101555b602001519250839150613ac59050565b50506040805180820190915263ffffffff80851682527bffffffffffffffffffffffffffffffffffffffffffffffffffffffff80851660208085019182528854600181018a5560008a815291822095519251909316640100000000029190931617920191909155905081613ac5565b600081815261016160205260408120600281015460018201546147a991906158f8565b600084815260fe60205260409020546147cb9067ffffffffffffffff16611ee7565b11159392505050565b6000806147e386868686611d1e565b905060006147f08261125c565b9050600281600781111561480657614806615198565b141580156148265750600681600781111561482357614823615198565b14155b80156148445750600781600781111561484157614841615198565b14155b6148905760405162461bcd60e51b815260206004820152601d60248201527f476f7665726e6f723a2070726f706f73616c206e6f7420616374697665000000604482015260640161036c565b600082815260fe60205260409081902060020180547fffffffffffffffffffffffffffffffffffffffffffffffffffffffffffff00ff16610100179055517f789cf55be980739dad1d0699b93b58e806b51c9d96619bfa8fe0a28abaa7b30c906110629084815260200190565b6000807a184f03e93ff9f4daa797ed6e38ed64bf6a1f0100000000000000008310614946577a184f03e93ff9f4daa797ed6e38ed64bf6a1f010000000000000000830492506040015b6d04ee2d6d415b85acef81000000008310614972576d04ee2d6d415b85acef8100000000830492506020015b662386f26fc10000831061499057662386f26fc10000830492506010015b6305f5e10083106149a8576305f5e100830492506008015b61271083106149bc57612710830492506004015b606483106149ce576064830492506002015b600a8310610b185760010192915050565b600080608083901c156149f457608092831c92015b604083901c15614a0657604092831c92015b602083901c15614a1857602092831c92015b601083901c15614a2a57601092831c92015b600883901c15614a3c57600892831c92015b600483901c15614a4e57600492831c92015b600283901c15614a6057600292831c92015b600183901c15610b185760010192915050565b6000818310614a825781611a27565b5090919050565b6000614a986002848418615c4e565b611a27908484166158f8565b60008060f883901c602f81118015614abf5750603a8160ff16105b15614af2576001947fffffffffffffffffffffffffffffffffffffffffffffffffffffffffffffffd09091019350915050565b8060ff166040108015614b08575060478160ff16105b15614b3b576001947fffffffffffffffffffffffffffffffffffffffffffffffffffffffffffffffc99091019350915050565b8060ff166060108015614b51575060678160ff16105b15614b84576001947fffffffffffffffffffffffffffffffffffffffffffffffffffffffffffffffa99091019350915050565b50600093849350915050565b600080614b9b612d85565b805190915015614bb2578051602090910120919050565b6065548015614bc15792915050565b7fc5d2460186f7233c927e7db2dcc703c0e500b653ca82273b7bfad8045d85a4709250505090565b600080614bf4612d94565b805190915015614c0b578051602090910120919050565b6066548015614bc15792915050565b600060208284031215614c2c57600080fd5b81357fffffffff0000000000000000000000000000000000000000000000000000000081168114611a2757600080fd5b803560ff8116811461145957600080fd5b60008083601f840112614c7f57600080fd5b50813567ffffffffffffffff811115614c9757600080fd5b602083019150836020828501011115614caf57600080fd5b9250929050565b7f4e487b7100000000000000000000000000000000000000000000000000000000600052604160045260246000fd5b604051601f8201601f1916810167ffffffffffffffff81118282101715614d0e57614d0e614cb6565b604052919050565b600067ffffffffffffffff821115614d3057614d30614cb6565b50601f01601f191660200190565b6000614d51614d4c84614d16565b614ce5565b9050828152838383011115614d6557600080fd5b828260208301376000602084830101529392505050565b600082601f830112614d8d57600080fd5b611a2783833560208501614d3e565b60008060008060008060008060e0898b031215614db857600080fd5b88359750614dc860208a01614c5c565b9650604089013567ffffffffffffffff80821115614de557600080fd5b614df18c838d01614c6d565b909850965060608b0135915080821115614e0a57600080fd5b50614e178b828c01614d7c565b945050614e2660808a01614c5c565b925060a0890135915060c089013590509295985092959890939650565b600060208284031215614e5557600080fd5b5035919050565b60005b83811015614e77578181015183820152602001614e5f565b83811115614e86576000848401525b50505050565b60008151808452614ea4816020860160208601614e5c565b601f01601f19169290920160200192915050565b602081526000611a276020830184614e8c565b6001600160a01b0381168114610cd957600080fd5b60008060008060808587031215614ef657600080fd5b8435614f0181614ecb565b93506020850135614f1181614ecb565b925060408501359150606085013567ffffffffffffffff811115614f3457600080fd5b614f4087828801614d7c565b91505092959194509250565b600067ffffffffffffffff821115614f6657614f66614cb6565b5060051b60200190565b600082601f830112614f8157600080fd5b81356020614f91614d4c83614f4c565b82815260059290921b84018101918181019086841115614fb057600080fd5b8286015b84811015614fd4578035614fc781614ecb565b8352918301918301614fb4565b509695505050505050565b600082601f830112614ff057600080fd5b81356020615000614d4c83614f4c565b82815260059290921b8401810191818101908684111561501f57600080fd5b8286015b84811015614fd45780358352918301918301615023565b600082601f83011261504b57600080fd5b8135602061505b614d4c83614f4c565b82815260059290921b8401810191818101908684111561507a57600080fd5b8286015b84811015614fd457803567ffffffffffffffff81111561509e5760008081fd5b6150ac8986838b0101614d7c565b84525091830191830161507e565b600080600080608085870312156150d057600080fd5b843567ffffffffffffffff808211156150e857600080fd5b6150f488838901614f70565b9550602087013591508082111561510a57600080fd5b61511688838901614fdf565b9450604087013591508082111561512c57600080fd5b506151398782880161503a565b949793965093946060013593505050565b600080600080600060a0868803121561516257600080fd5b8535945061517260208701614c5c565b935061518060408701614c5c565b94979396509394606081013594506080013592915050565b7f4e487b7100000000000000000000000000000000000000000000000000000000600052602160045260246000fd5b6020810160088310615202577f4e487b7100000000000000000000000000000000000000000000000000000000600052602160045260246000fd5b91905290565b6000806040838503121561521b57600080fd5b82359150602083013561522d81614ecb565b809150509250929050565b6000806040838503121561524b57600080fd5b8235915061525b60208401614c5c565b90509250929050565b60008060008060006080868803121561527c57600080fd5b8535945061528c60208701614c5c565b9350604086013567ffffffffffffffff808211156152a957600080fd5b6152b589838a01614c6d565b909550935060608801359150808211156152ce57600080fd5b506152db88828901614d7c565b9150509295509295909350565b600080600080606085870312156152fe57600080fd5b8435935061530e60208601614c5c565b9250604085013567ffffffffffffffff81111561532a57600080fd5b61533687828801614c6d565b95989497509550505050565b6000806000806080858703121561535857600080fd5b843567ffffffffffffffff8082111561537057600080fd5b61537c88838901614f70565b9550602087013591508082111561539257600080fd5b61539e88838901614fdf565b945060408701359150808211156153b457600080fd5b6153c08883890161503a565b935060608701359150808211156153d657600080fd5b508501601f810187136153e857600080fd5b614f4087823560208401614d3e565b600081518084526020808501945080840160005b838110156154275781518752958201959082019060010161540b565b509495945050505050565b7fff000000000000000000000000000000000000000000000000000000000000008816815260e06020820152600061546d60e0830189614e8c565b828103604084015261547f8189614e8c565b90508660608401526001600160a01b03861660808401528460a084015282810360c0840152610c1481856153f7565b60008060008060008060c087890312156154c757600080fd5b86356154d281614ecb565b955060208701356154e281614ecb565b95989597505050506040840135936060810135936080820135935060a0909101359150565b60008060006060848603121561551c57600080fd5b833561552781614ecb565b925060208401359150604084013567ffffffffffffffff81111561554a57600080fd5b61555686828701614d7c565b9150509250925092565b60006020828403121561557257600080fd5b8135611a2781614ecb565b600080600080600060a0868803121561559557600080fd5b85356155a081614ecb565b945060208601356155b081614ecb565b9350604086013567ffffffffffffffff808211156155cd57600080fd5b6155d989838a01614fdf565b945060608801359150808211156155ef57600080fd5b6155fb89838a01614fdf565b935060808801359150808211156152ce57600080fd5b6000806000806060858703121561562757600080fd5b843561563281614ecb565b935060208501359250604085013567ffffffffffffffff81111561532a57600080fd5b6000806040838503121561566857600080fd5b823561567381614ecb565b946020939093013593505050565b600080600080600060a0868803121561569957600080fd5b85356156a481614ecb565b945060208601356156b481614ecb565b93506040860135925060608601359150608086013567ffffffffffffffff8111156156de57600080fd5b6152db88828901614d7c565b8183823760009101908152919050565b600181811c9082168061570e57607f821691505b602082108103615747577f4e487b7100000000000000000000000000000000000000000000000000000000600052602260045260246000fd5b50919050565b60006020828403121561575f57600080fd5b5051919050565b7f4e487b7100000000000000000000000000000000000000000000000000000000600052603260045260246000fd5b600081518084526020808501945080840160005b838110156154275781516001600160a01b0316875295820195908201906001016157a9565b600081518084526020808501808196508360051b8101915082860160005b85811015615816578284038952615804848351614e8c565b988501989350908401906001016157ec565b5091979650505050505050565b60a08152600061583660a0830188615795565b828103602084015261584881886153f7565b9050828103604084015261585c81876157ce565b60608401959095525050608001529392505050565b60c08152600061588460c0830189615795565b828103602084015261589681896153f7565b905082810360408401526158aa81886157ce565b60608401969096525050608081019290925260a0909101529392505050565b7f4e487b7100000000000000000000000000000000000000000000000000000000600052601160045260246000fd5b6000821982111561590b5761590b6158c9565b500190565b60006020828403121561592257600080fd5b815167ffffffffffffffff81111561593957600080fd5b8201601f8101841361594a57600080fd5b8051615958614d4c82614d16565b81815285602083850101111561596d57600080fd5b6116dd826020830160208601614e5c565b600082821015615990576159906158c9565b500390565b6000602082840312156159a757600080fd5b815165ffffffffffff81168114611a2757600080fd5b6080815260006159d06080830187615795565b82810360208401526159e281876153f7565b905082810360408401526159f681866157ce565b91505082606083015295945050505050565b84815260ff8416602082015282604082015260806060820152600061138e6080830184614e8c565b85815260ff8516602082015283604082015260a060608201526000615a5860a0830185614e8c565b8281036080840152615a6a8185614e8c565b98975050505050505050565b60006000198203615a8957615a896158c9565b5060010190565b600060208284031215615aa257600080fd5b81518015158114611a2757600080fd5b60008451615ac4818460208901614e5c565b80830190507f2e000000000000000000000000000000000000000000000000000000000000008082528551615b00816001850160208a01614e5c565b60019201918201528351615b1b816002840160208801614e5c565b0160020195945050505050565b60006101208b835260206001600160a01b038c1681850152816040850152615b528285018c615795565b91508382036060850152615b66828b6153f7565b915083820360808501528189518084528284019150828160051b850101838c0160005b83811015615bb757601f19878403018552615ba5838351614e8c565b94860194925090850190600101615b89565b505086810360a0880152615bcb818c6157ce565b9450505050508560c08401528460e0840152828103610100840152615bf08185614e8c565b9c9b505050505050505050505050565b6000816000190483118215151615615c1a57615c1a6158c9565b500290565b7f4e487b7100000000000000000000000000000000000000000000000000000000600052601260045260246000fd5b600082615c84577f4e487b7100000000000000000000000000000000000000000000000000000000600052601260045260246000fd5b500490565b601f821115612ec257600081815260208120601f850160051c81016020861015615cb05750805b601f850160051c820191505b8181101561241557828155600101615cbc565b815167ffffffffffffffff811115615ce957615ce9614cb6565b615cfd81615cf784546156fa565b84615c89565b602080601f831160018114615d325760008415615d1a5750858301515b600019600386901b1c1916600185901b178555612415565b600085815260208120601f198616915b82811015615d6157888601518255948401946001909101908401615d42565b5085821015615d7f5787850151600019600388901b60f8161c191681555b5050505050600190811b0190555056fe476f7665726e6f723a2072656c617920726576657274656420776974686f7574206d657373616765a164736f6c634300080f000a",
  "devdoc": {},
  "userdoc": {}
}