{
  "address": "0x8EDc4cCa2aF96f5D5141d55333043a65c3f59Ec4",
  "abi": [
    {
      "inputs": [
        {
          "internalType": "contract L2OutputOracle",
          "name": "_l2OutputOracle",
          "type": "address"
        },
        {
          "internalType": "contract KromaPortal",
          "name": "_portal",
          "type": "address"
        },
        {
          "internalType": "address",
          "name": "_securityCouncil",
          "type": "address"
        },
        {
          "internalType": "address",
          "name": "_trustedValidator",
          "type": "address"
        },
        {
          "internalType": "uint256",
          "name": "_requiredBondAmount",
          "type": "uint256"
        },
        {
          "internalType": "uint256",
          "name": "_maxUnbond",
          "type": "uint256"
        },
        {
          "internalType": "uint256",
          "name": "_roundDuration",
          "type": "uint256"
        }
      ],
      "stateMutability": "nonpayable",
      "type": "constructor"
    },
    {
      "anonymous": false,
      "inputs": [
        {
          "indexed": true,
          "internalType": "uint256",
          "name": "outputIndex",
          "type": "uint256"
        },
        {
          "indexed": true,
          "internalType": "address",
          "name": "challenger",
          "type": "address"
        },
        {
          "indexed": false,
          "internalType": "uint128",
          "name": "amount",
          "type": "uint128"
        }
      ],
      "name": "BondIncreased",
      "type": "event"
    },
    {
      "anonymous": false,
      "inputs": [
        {
          "indexed": true,
          "internalType": "address",
          "name": "submitter",
          "type": "address"
        },
        {
          "indexed": true,
          "internalType": "uint256",
          "name": "outputIndex",
          "type": "uint256"
        },
        {
          "indexed": false,
          "internalType": "uint128",
          "name": "amount",
          "type": "uint128"
        },
        {
          "indexed": false,
          "internalType": "uint128",
          "name": "expiresAt",
          "type": "uint128"
        }
      ],
      "name": "Bonded",
      "type": "event"
    },
    {
      "anonymous": false,
      "inputs": [
        {
          "indexed": false,
          "internalType": "uint8",
          "name": "version",
          "type": "uint8"
        }
      ],
      "name": "Initialized",
      "type": "event"
    },
    {
      "anonymous": false,
      "inputs": [
        {
          "indexed": true,
          "internalType": "uint256",
          "name": "outputIndex",
          "type": "uint256"
        },
        {
          "indexed": true,
          "internalType": "address",
          "name": "challenger",
          "type": "address"
        },
        {
          "indexed": false,
          "internalType": "uint128",
          "name": "amount",
          "type": "uint128"
        }
      ],
      "name": "PendingBondAdded",
      "type": "event"
    },
    {
      "anonymous": false,
      "inputs": [
        {
          "indexed": true,
          "internalType": "uint256",
          "name": "outputIndex",
          "type": "uint256"
        },
        {
          "indexed": true,
          "internalType": "address",
          "name": "challenger",
          "type": "address"
        },
        {
          "indexed": true,
          "internalType": "address",
          "name": "recipient",
          "type": "address"
        },
        {
          "indexed": false,
          "internalType": "uint128",
          "name": "amount",
          "type": "uint128"
        }
      ],
      "name": "PendingBondReleased",
      "type": "event"
    },
    {
      "anonymous": false,
      "inputs": [
        {
          "indexed": true,
          "internalType": "uint256",
          "name": "outputIndex",
          "type": "uint256"
        },
        {
          "indexed": true,
          "internalType": "address",
          "name": "recipient",
          "type": "address"
        },
        {
          "indexed": false,
          "internalType": "uint128",
          "name": "amount",
          "type": "uint128"
        }
      ],
      "name": "Unbonded",
      "type": "event"
    },
    {
      "inputs": [],
      "name": "L2_ORACLE",
      "outputs": [
        {
          "internalType": "contract L2OutputOracle",
          "name": "",
          "type": "address"
        }
      ],
      "stateMutability": "view",
      "type": "function"
    },
    {
      "inputs": [],
      "name": "MAX_UNBOND",
      "outputs": [
        {
          "internalType": "uint256",
          "name": "",
          "type": "uint256"
        }
      ],
      "stateMutability": "view",
      "type": "function"
    },
    {
      "inputs": [],
      "name": "PORTAL",
      "outputs": [
        {
          "internalType": "contract KromaPortal",
          "name": "",
          "type": "address"
        }
      ],
      "stateMutability": "view",
      "type": "function"
    },
    {
      "inputs": [],
      "name": "REQUIRED_BOND_AMOUNT",
      "outputs": [
        {
          "internalType": "uint128",
          "name": "",
          "type": "uint128"
        }
      ],
      "stateMutability": "view",
      "type": "function"
    },
    {
      "inputs": [],
      "name": "ROUND_DURATION",
      "outputs": [
        {
          "internalType": "uint256",
          "name": "",
          "type": "uint256"
        }
      ],
      "stateMutability": "view",
      "type": "function"
    },
    {
      "inputs": [],
      "name": "SECURITY_COUNCIL",
      "outputs": [
        {
          "internalType": "address",
          "name": "",
          "type": "address"
        }
      ],
      "stateMutability": "view",
      "type": "function"
    },
    {
      "inputs": [],
      "name": "TAX_DENOMINATOR",
      "outputs": [
        {
          "internalType": "uint128",
          "name": "",
          "type": "uint128"
        }
      ],
      "stateMutability": "view",
      "type": "function"
    },
    {
      "inputs": [],
      "name": "TAX_NUMERATOR",
      "outputs": [
        {
          "internalType": "uint128",
          "name": "",
          "type": "uint128"
        }
      ],
      "stateMutability": "view",
      "type": "function"
    },
    {
      "inputs": [],
      "name": "TRUSTED_VALIDATOR",
      "outputs": [
        {
          "internalType": "address",
          "name": "",
          "type": "address"
        }
      ],
      "stateMutability": "view",
      "type": "function"
    },
    {
      "inputs": [],
      "name": "VAULT_REWARD_GAS_LIMIT",
      "outputs": [
        {
          "internalType": "uint64",
          "name": "",
          "type": "uint64"
        }
      ],
      "stateMutability": "view",
      "type": "function"
    },
    {
      "inputs": [
        {
          "internalType": "uint256",
          "name": "_outputIndex",
          "type": "uint256"
        },
        {
          "internalType": "address",
          "name": "_challenger",
          "type": "address"
        }
      ],
      "name": "addPendingBond",
      "outputs": [],
      "stateMutability": "nonpayable",
      "type": "function"
    },
    {
      "inputs": [
        {
          "internalType": "address",
          "name": "_addr",
          "type": "address"
        }
      ],
      "name": "balanceOf",
      "outputs": [
        {
          "internalType": "uint256",
          "name": "",
          "type": "uint256"
        }
      ],
      "stateMutability": "view",
      "type": "function"
    },
    {
      "inputs": [
        {
          "internalType": "uint256",
          "name": "_outputIndex",
          "type": "uint256"
        },
        {
          "internalType": "uint128",
          "name": "_expiresAt",
          "type": "uint128"
        }
      ],
      "name": "createBond",
      "outputs": [],
      "stateMutability": "nonpayable",
      "type": "function"
    },
    {
      "inputs": [],
      "name": "deposit",
      "outputs": [],
      "stateMutability": "payable",
      "type": "function"
    },
    {
      "inputs": [
        {
          "internalType": "uint256",
          "name": "_outputIndex",
          "type": "uint256"
        }
      ],
      "name": "getBond",
      "outputs": [
        {
          "components": [
            {
              "internalType": "uint128",
              "name": "amount",
              "type": "uint128"
            },
            {
              "internalType": "uint128",
              "name": "expiresAt",
              "type": "uint128"
            }
          ],
          "internalType": "struct Types.Bond",
          "name": "",
          "type": "tuple"
        }
      ],
      "stateMutability": "view",
      "type": "function"
    },
    {
      "inputs": [
        {
          "internalType": "uint256",
          "name": "_outputIndex",
          "type": "uint256"
        },
        {
          "internalType": "address",
          "name": "_challenger",
          "type": "address"
        }
      ],
      "name": "getPendingBond",
      "outputs": [
        {
          "internalType": "uint128",
          "name": "",
          "type": "uint128"
        }
      ],
      "stateMutability": "view",
      "type": "function"
    },
    {
      "inputs": [
        {
          "internalType": "uint256",
          "name": "_outputIndex",
          "type": "uint256"
        },
        {
          "internalType": "address",
          "name": "_challenger",
          "type": "address"
        }
      ],
      "name": "increaseBond",
      "outputs": [],
      "stateMutability": "nonpayable",
      "type": "function"
    },
    {
      "inputs": [],
      "name": "initialize",
      "outputs": [],
      "stateMutability": "nonpayable",
      "type": "function"
    },
    {
      "inputs": [
        {
          "internalType": "address",
          "name": "_addr",
          "type": "address"
        }
      ],
      "name": "isValidator",
      "outputs": [
        {
          "internalType": "bool",
          "name": "",
          "type": "bool"
        }
      ],
      "stateMutability": "view",
      "type": "function"
    },
    {
      "inputs": [],
      "name": "nextValidator",
      "outputs": [
        {
          "internalType": "address",
          "name": "",
          "type": "address"
        }
      ],
      "stateMutability": "view",
      "type": "function"
    },
    {
      "inputs": [
        {
          "internalType": "uint256",
          "name": "_outputIndex",
          "type": "uint256"
        },
        {
          "internalType": "address",
          "name": "_challenger",
          "type": "address"
        },
        {
          "internalType": "address",
          "name": "_recipient",
          "type": "address"
        }
      ],
      "name": "releasePendingBond",
      "outputs": [],
      "stateMutability": "nonpayable",
      "type": "function"
    },
    {
      "inputs": [],
      "name": "unbond",
      "outputs": [],
      "stateMutability": "nonpayable",
      "type": "function"
    },
    {
      "inputs": [],
      "name": "validatorCount",
      "outputs": [
        {
          "internalType": "uint256",
          "name": "",
          "type": "uint256"
        }
      ],
      "stateMutability": "view",
      "type": "function"
    },
    {
      "inputs": [],
      "name": "version",
      "outputs": [
        {
          "internalType": "string",
          "name": "",
          "type": "string"
        }
      ],
      "stateMutability": "view",
      "type": "function"
    },
    {
      "inputs": [
        {
          "internalType": "uint256",
          "name": "_amount",
          "type": "uint256"
        }
      ],
      "name": "withdraw",
      "outputs": [],
      "stateMutability": "nonpayable",
      "type": "function"
    },
    {
      "inputs": [
        {
          "internalType": "address",
          "name": "_to",
          "type": "address"
        },
        {
          "internalType": "uint256",
          "name": "_amount",
          "type": "uint256"
        }
      ],
      "name": "withdrawTo",
      "outputs": [],
      "stateMutability": "nonpayable",
      "type": "function"
    }
  ],
  "transactionHash": "0x6f4f854796d2ee29f849ec4d48967a7c4fdfe1609245cfba34e2204c588dfaf8",
  "args": [
    "0x180c77aE51a9c505a43A2C7D81f8CE70cacb93A6",
    "0x31F648572b67e60Ec6eb8E197E1848CC5F5558de",
    "0x3de211088dF516da72efe68D386b561BEE256Ec4",
    "0x3aa00bb915A8e78b0523E4c365e3E70A19d329e6",
    "0x2c68af0bb140000",
    10,
    1800
  ],
  "numDeployments": 3,
  "solcInputHash": "2bfb5c7b0997e32e15308fc369203bdc",
  "bytecode": "0x6101606040523480156200001257600080fd5b5060405162002b4d38038062002b4d83398101604081905262000035916200024f565b6001600160a01b0380881660805286811660a05285811660c052841660e0526001600160801b038316610100526101208290526101408190526200007862000085565b50505050505050620002d6565b600054610100900460ff1615808015620000a65750600054600160ff909116105b80620000d65750620000c330620001b760201b6200193f1760201c565b158015620000d6575060005460ff166001145b6200013f5760405162461bcd60e51b815260206004820152602e60248201527f496e697469616c697a61626c653a20636f6e747261637420697320616c72656160448201526d191e481a5b9a5d1a585b1a5e995960921b60648201526084015b60405180910390fd5b6000805460ff19166001179055801562000163576000805461ff0019166101001790555b6200016d620001c6565b8015620001b4576000805461ff0019169055604051600181527f7f26b83ff96e1f2b6a682f133852f6798a09c465da95921460cefb38474024989060200160405180910390a15b50565b6001600160a01b03163b151590565b600054610100900460ff16620002335760405162461bcd60e51b815260206004820152602b60248201527f496e697469616c697a61626c653a20636f6e7472616374206973206e6f74206960448201526a6e697469616c697a696e6760a81b606482015260840162000136565b60018055565b6001600160a01b0381168114620001b457600080fd5b600080600080600080600060e0888a0312156200026b57600080fd5b8751620002788162000239565b60208901519097506200028b8162000239565b60408901519096506200029e8162000239565b6060890151909550620002b18162000239565b809450506080880151925060a0880151915060c0880151905092959891949750929550565b60805160a05160c05160e051610100516101205161014051612789620003c4600039600081816103c50152610ba001526000818161049a0152611d7f01526000818161051301528181610dca01528181610e4b015281816113670152818161139f01528181611a430152611c410152600081816103060152610bee01526000818161029d015281816118550152611c8e01526000818161022701526121ca0152600081816101b7015281816107e301528181610a6a01528181610af801528181610c1201528181611175015281816112ec0152818161156401528181611e49015261200501526127896000f3fe6080604052600436106101a05760003560e01c806370a08231116100e1578063ab91f1901161008a578063d38dc7ee11610064578063d38dc7ee1461053d578063d8fe76421461055d578063dd215c5d146105ad578063facd743b146105cd57600080fd5b8063ab91f190146104d1578063b7d636a514610501578063d0e30db01461053557600080fd5b80638f09ade4116100bb5780638f09ade414610468578063946765fd14610488578063a51c9ace146104bc57600080fd5b806370a08231146103e75780638129fc1c1461041d57806382dae3aa1461043257600080fd5b806336b834691161014e57806354fd4d501161012857806354fd4d50146103285780635a5447421461037e5780635df6a6bc1461039e5780636641ea08146103b357600080fd5b806336b83469146102bf5780633a549046146102df5780633ee4d4a3146102f457600080fd5b8063205c28781161017f578063205c2878146102495780632e1a7d4d1461026b578063360864171461028b57600080fd5b80621c2ff6146101a55780630f43a677146101f65780630ff754ea14610215575b600080fd5b3480156101b157600080fd5b506101d97f000000000000000000000000000000000000000000000000000000000000000081565b6040516001600160a01b0390911681526020015b60405180910390f35b34801561020257600080fd5b506036545b6040519081526020016101ed565b34801561022157600080fd5b506101d97f000000000000000000000000000000000000000000000000000000000000000081565b34801561025557600080fd5b5061026961026436600461233c565b6105fd565b005b34801561027757600080fd5b50610269610286366004612368565b610730565b34801561029757600080fd5b506101d97f000000000000000000000000000000000000000000000000000000000000000081565b3480156102cb57600080fd5b506102696102da366004612381565b6107e1565b3480156102eb57600080fd5b506101d9610a52565b34801561030057600080fd5b506101d97f000000000000000000000000000000000000000000000000000000000000000081565b34801561033457600080fd5b506103716040518060400160405280600581526020017f312e302e3100000000000000000000000000000000000000000000000000000081525081565b6040516101ed919061242e565b34801561038a57600080fd5b50610269610399366004612441565b610c10565b3480156103aa57600080fd5b50610269610eb9565b3480156103bf57600080fd5b506102077f000000000000000000000000000000000000000000000000000000000000000081565b3480156103f357600080fd5b50610207610402366004612471565b6001600160a01b031660009081526033602052604090205490565b34801561042957600080fd5b50610269610f38565b34801561043e57600080fd5b50610447601481565b6040516fffffffffffffffffffffffffffffffff90911681526020016101ed565b34801561047457600080fd5b50610447610483366004612441565b6110af565b34801561049457600080fd5b506102077f000000000000000000000000000000000000000000000000000000000000000081565b3480156104c857600080fd5b50610447606481565b3480156104dd57600080fd5b506104e8620186a081565b60405167ffffffffffffffff90911681526020016101ed565b34801561050d57600080fd5b506104477f000000000000000000000000000000000000000000000000000000000000000081565b61026961115e565b34801561054957600080fd5b506102696105583660046124ac565b61116a565b34801561056957600080fd5b5061057d610578366004612368565b611443565b6040805182516fffffffffffffffffffffffffffffffff90811682526020938401511692810192909252016101ed565b3480156105b957600080fd5b506102696105c8366004612441565b611562565b3480156105d957600080fd5b506105ed6105e8366004612471565b6118c8565b60405190151581526020016101ed565b61060561194e565b6001600160a01b0382166106865760405162461bcd60e51b815260206004820152603260248201527f56616c696461746f72506f6f6c3a2063616e6e6f74207769746864726177207460448201527f6f20746865207a65726f2061646472657373000000000000000000000000000060648201526084015b60405180910390fd5b61069033826119a7565b60006106ad835a8460405180602001604052806000815250611bf9565b9050806107225760405162461bcd60e51b815260206004820152602260248201527f56616c696461746f72506f6f6c3a20455448207472616e73666572206661696c60448201527f6564000000000000000000000000000000000000000000000000000000000000606482015260840161067d565b5061072c60018055565b5050565b61073861194e565b61074233826119a7565b600061075f335a8460405180602001604052806000815250611bf9565b9050806107d45760405162461bcd60e51b815260206004820152602260248201527f56616c696461746f72506f6f6c3a20455448207472616e73666572206661696c60448201527f6564000000000000000000000000000000000000000000000000000000000000606482015260840161067d565b506107de60018055565b50565b7f00000000000000000000000000000000000000000000000000000000000000006001600160a01b0316639e45e8f46040518163ffffffff1660e01b8152600401602060405180830381865afa15801561083f573d6000803e3d6000fd5b505050506040513d601f19601f8201168201806040525081019061086391906124d1565b6001600160a01b0316336001600160a01b0316146108e95760405162461bcd60e51b815260206004820152602660248201527f56616c696461746f72506f6f6c3a2073656e646572206973206e6f7420436f6c60448201527f6f737365756d0000000000000000000000000000000000000000000000000000606482015260840161067d565b60008381526039602090815260408083206001600160a01b03861684529091529020546fffffffffffffffffffffffffffffffff16806109915760405162461bcd60e51b815260206004820152602e60248201527f56616c696461746f72506f6f6c3a207468652070656e64696e6720626f6e642060448201527f646f6573206e6f74206578697374000000000000000000000000000000000000606482015260840161067d565b60008481526039602090815260408083206001600160a01b0387168452909152902080547fffffffffffffffffffffffffffffffff000000000000000000000000000000001690556109f5826fffffffffffffffffffffffffffffffff8316611c19565b6040516fffffffffffffffffffffffffffffffff821681526001600160a01b03808416919085169086907f8c95336a279406edcc768d685e8eb6667368a77d840a188144b8e3719423198f9060200160405180910390a450505050565b6038546000906001600160a01b031615610beb5760007f00000000000000000000000000000000000000000000000000000000000000006001600160a01b031663dcec33486040518163ffffffff1660e01b8152600401602060405180830381865afa158015610ac6573d6000803e3d6000fd5b505050506040513d601f19601f82011682018060405250810190610aea91906124ee565b905060006001600160a01b037f00000000000000000000000000000000000000000000000000000000000000001663d1de856c610b28846001612536565b6040518263ffffffff1660e01b8152600401610b4691815260200190565b602060405180830381865afa158015610b63573d6000803e3d6000fd5b505050506040513d601f19601f82011682018060405250810190610b8791906124ee565b9050804210610bd8576000610b9c824261254e565b90507f0000000000000000000000000000000000000000000000000000000000000000811115610bd6576001600160a01b03935050505090565b505b50506038546001600160a01b0316919050565b507f000000000000000000000000000000000000000000000000000000000000000090565b7f00000000000000000000000000000000000000000000000000000000000000006001600160a01b0316639e45e8f46040518163ffffffff1660e01b8152600401602060405180830381865afa158015610c6e573d6000803e3d6000fd5b505050506040513d601f19601f82011682018060405250810190610c9291906124d1565b6001600160a01b0316336001600160a01b031614610d185760405162461bcd60e51b815260206004820152602660248201527f56616c696461746f72506f6f6c3a2073656e646572206973206e6f7420436f6c60448201527f6f737365756d0000000000000000000000000000000000000000000000000000606482015260840161067d565b60008281526034602052604090208054427001000000000000000000000000000000009091046fffffffffffffffffffffffffffffffff161015610dc45760405162461bcd60e51b815260206004820152602e60248201527f56616c696461746f72506f6f6c3a20746865206f757470757420697320616c7260448201527f656164792066696e616c697a6564000000000000000000000000000000000000606482015260840161067d565b610e00827f00000000000000000000000000000000000000000000000000000000000000006fffffffffffffffffffffffffffffffff166119a7565b60008381526039602090815260408083206001600160a01b0386168085529083529281902080547fffffffffffffffffffffffffffffffff00000000000000000000000000000000167f00000000000000000000000000000000000000000000000000000000000000006fffffffffffffffffffffffffffffffff16908117909155905190815285917f2904258f32adf74dd8f23ad6f17ff50209896039c8ee3d4728ff55bd05c4cf2a910160405180910390a3505050565b6000610ec3611d4d565b9050806107de5760405162461bcd60e51b815260206004820152602960248201527f56616c696461746f72506f6f6c3a206e6f20626f6e6420746861742063616e2060448201527f626520756e626f6e640000000000000000000000000000000000000000000000606482015260840161067d565b600054610100900460ff1615808015610f585750600054600160ff909116105b80610f725750303b158015610f72575060005460ff166001145b610fe45760405162461bcd60e51b815260206004820152602e60248201527f496e697469616c697a61626c653a20636f6e747261637420697320616c72656160448201527f647920696e697469616c697a6564000000000000000000000000000000000000606482015260840161067d565b600080547fffffffffffffffffffffffffffffffffffffffffffffffffffffffffffffff00166001179055801561104257600080547fffffffffffffffffffffffffffffffffffffffffffffffffffffffffffff00ff166101001790555b61104a611f6b565b80156107de57600080547fffffffffffffffffffffffffffffffffffffffffffffffffffffffffffff00ff169055604051600181527f7f26b83ff96e1f2b6a682f133852f6798a09c465da95921460cefb38474024989060200160405180910390a150565b60008281526039602090815260408083206001600160a01b03851684529091528120546fffffffffffffffffffffffffffffffff16806111575760405162461bcd60e51b815260206004820152602e60248201527f56616c696461746f72506f6f6c3a207468652070656e64696e6720626f6e642060448201527f646f6573206e6f74206578697374000000000000000000000000000000000000606482015260840161067d565b9392505050565b6111683334611c19565b565b336001600160a01b037f000000000000000000000000000000000000000000000000000000000000000016146112085760405162461bcd60e51b815260206004820152602b60248201527f56616c696461746f72506f6f6c3a2073656e646572206973206e6f74204c324f60448201527f75747075744f7261636c65000000000000000000000000000000000000000000606482015260840161067d565b6000828152603460205260409020805470010000000000000000000000000000000090046fffffffffffffffffffffffffffffffff16156112b15760405162461bcd60e51b815260206004820152603c60248201527f56616c696461746f72506f6f6c3a20626f6e64206f662074686520676976656e60448201527f206f757470757420696e64657820616c72656164792065786973747300000000606482015260840161067d565b6112b9611d4d565b506040517fb0ea09a8000000000000000000000000000000000000000000000000000000008152600481018490526000907f00000000000000000000000000000000000000000000000000000000000000006001600160a01b03169063b0ea09a890602401602060405180830381865afa15801561133b573d6000803e3d6000fd5b505050506040513d601f19601f8201168201806040525081019061135f91906124d1565b905061139d817f00000000000000000000000000000000000000000000000000000000000000006fffffffffffffffffffffffffffffffff166119a7565b7f00000000000000000000000000000000000000000000000000000000000000006fffffffffffffffffffffffffffffffff9081167001000000000000000000000000000000009185169182028117845560408051918252602082019290925285916001600160a01b038416917f5ca130257b8f76f72ad2965efcbe166f3918d820e4a49956e70081ea311f97c4910160405180910390a361143d611fe8565b50505050565b6040805180820190915260008082526020820152600082815260346020526040902080546fffffffffffffffffffffffffffffffff16158015906114ad5750805470010000000000000000000000000000000090046fffffffffffffffffffffffffffffffff1615155b61151f5760405162461bcd60e51b815260206004820152602660248201527f56616c696461746f72506f6f6c3a2074686520626f6e6420646f6573206e6f7460448201527f2065786973740000000000000000000000000000000000000000000000000000606482015260840161067d565b6040805180820190915290546fffffffffffffffffffffffffffffffff808216835270010000000000000000000000000000000090910416602082015292915050565b7f00000000000000000000000000000000000000000000000000000000000000006001600160a01b0316639e45e8f46040518163ffffffff1660e01b8152600401602060405180830381865afa1580156115c0573d6000803e3d6000fd5b505050506040513d601f19601f820116820180604052508101906115e491906124d1565b6001600160a01b0316336001600160a01b03161461166a5760405162461bcd60e51b815260206004820152602660248201527f56616c696461746f72506f6f6c3a2073656e646572206973206e6f7420436f6c60448201527f6f737365756d0000000000000000000000000000000000000000000000000000606482015260840161067d565b60008281526034602052604090208054427001000000000000000000000000000000009091046fffffffffffffffffffffffffffffffff1610156117165760405162461bcd60e51b815260206004820152602e60248201527f56616c696461746f72506f6f6c3a20746865206f757470757420697320616c7260448201527f656164792066696e616c697a6564000000000000000000000000000000000000606482015260840161067d565b60008381526039602090815260408083206001600160a01b03861684529091529020546fffffffffffffffffffffffffffffffff16806117be5760405162461bcd60e51b815260206004820152602e60248201527f56616c696461746f72506f6f6c3a207468652070656e64696e6720626f6e642060448201527f646f6573206e6f74206578697374000000000000000000000000000000000000606482015260840161067d565b600060646117cd601484612565565b6117d791906125cc565b905060006117e582846125fb565b60008781526039602090815260408083206001600160a01b038a811680865291845282852080547fffffffffffffffffffffffffffffffff000000000000000000000000000000009081169091558a549081166fffffffffffffffffffffffffffffffff91821688018216178b557f00000000000000000000000000000000000000000000000000000000000000009091168552603384529382902080548886160190559051928416835292935088917f383f9b8b5a1fc2ec555726eb895621a312042e18b764135fa12ef1a520ad30db910160405180910390a3505050505050565b60365460009081036118dc57506000919050565b6001600160a01b0382166118f257506000919050565b6001600160a01b03821660008181526037602052604090205460368054919291839081106119225761192261262c565b6000918252602090912001546001600160a01b0316149392505050565b6001600160a01b03163b151590565b6002600154036119a05760405162461bcd60e51b815260206004820152601f60248201527f5265656e7472616e637947756172643a207265656e7472616e742063616c6c00604482015260640161067d565b6002600155565b6001600160a01b03821660009081526033602052604090205481811015611a355760405162461bcd60e51b8152602060048201526024808201527f56616c696461746f72506f6f6c3a20696e73756666696369656e742062616c6160448201527f6e63657300000000000000000000000000000000000000000000000000000000606482015260840161067d565b611a3f828261254e565b90507f00000000000000000000000000000000000000000000000000000000000000006fffffffffffffffffffffffffffffffff1681108015611a865750611a86836118c8565b15611bd957603654600090611a9d9060019061254e565b90508015611b55576001600160a01b0384166000908152603760205260408120546036805491929184908110611ad557611ad561262c565b600091825260209091200154603680546001600160a01b039092169250829184908110611b0457611b0461262c565b600091825260208083209190910180547fffffffffffffffffffffffff0000000000000000000000000000000000000000166001600160a01b03948516179055929091168152603790915260409020555b6001600160a01b0384166000908152603760205260408120556036805480611b7f57611b7f61265b565b60008281526020902081017fffffffffffffffffffffffffffffffffffffffffffffffffffffffffffffffff90810180547fffffffffffffffffffffffff0000000000000000000000000000000000000000169055019055505b6001600160a01b0390921660009081526033602052604090209190915550565b600080600080845160208601878a8af19695505050505050565b60018055565b6001600160a01b038216600090815260336020526040812054611c3d908390612536565b90507f00000000000000000000000000000000000000000000000000000000000000006fffffffffffffffffffffffffffffffff168110158015611c875750611c85836118c8565b155b15611bd9577f00000000000000000000000000000000000000000000000000000000000000006001600160a01b0316836001600160a01b031614611bd957603680546001600160a01b03949094166000818152603760209081526040808320889055600188019094557f4a11f94e20a93c79f6ec743a1954ec4fc2c08429ae2122118bf234b2185c81b890960180547fffffffffffffffffffffffff00000000000000000000000000000000000000001690921790915560339094529092209190915550565b60355460408051608081018252600080825260208201819052918101829052606081018290529091908290819060005b7f0000000000000000000000000000000000000000000000000000000000000000811015611f4857600085815260346020526040902080546fffffffffffffffffffffffffffffffff80821696509194507001000000000000000000000000000000009004164210801590611e0457506000846fffffffffffffffffffffffffffffffff16115b15611f485760008581526034602052604080822091909155517fa25ae557000000000000000000000000000000000000000000000000000000008152600481018690527f00000000000000000000000000000000000000000000000000000000000000006001600160a01b03169063a25ae55790602401608060405180830381865afa158015611e98573d6000803e3d6000fd5b505050506040513d601f19601f82011682018060405250810190611ebc919061268a565b9150611ede8260000151856fffffffffffffffffffffffffffffffff16611c19565b81516040516fffffffffffffffffffffffffffffffff861681526001600160a01b039091169086907f7047a0fb8bfae78c0ebbd4117437945bb85240453235ac4fd2e55712eb5bf0c39060200160405180910390a3611f3c826121b6565b60019485019401611d7d565b8015611f5f57505050603591909155506001919050565b60009550505050505090565b600054610100900460ff16611c135760405162461bcd60e51b815260206004820152602b60248201527f496e697469616c697a61626c653a20636f6e7472616374206973206e6f74206960448201527f6e697469616c697a696e67000000000000000000000000000000000000000000606482015260840161067d565b6036548015801590611ffc57506000603554115b1561218b5760007f00000000000000000000000000000000000000000000000000000000000000006001600160a01b031663a25ae5576001603554612041919061254e565b6040518263ffffffff1660e01b815260040161205f91815260200190565b608060405180830381865afa15801561207c573d6000803e3d6000fd5b505050506040513d601f19601f820116820180604052508101906120a0919061268a565b905060008282602001514341446001436120ba919061254e565b6040805160208101969096528501939093527fffffffffffffffffffffffffffffffffffffffff000000000000000000000000606092831b1691840191909152607483015240609482015260b4016040516020818303038152906040528051906020012060001c61212b919061272d565b9050603681815481106121405761214061262c565b600091825260209091200154603880547fffffffffffffffffffffffff0000000000000000000000000000000000000000166001600160a01b03909216919091179055506107de9050565b603880547fffffffffffffffffffffffff000000000000000000000000000000000000000016905550565b805160608201516040516001600160a01b037f0000000000000000000000000000000000000000000000000000000000000000169263c30af3889273420000000000000000000000000000000000000892620186a0927f21670f220000000000000000000000000000000000000000000000000000000092612260926024016001600160a01b039290921682526fffffffffffffffffffffffffffffffff16602082015260400190565b604080517fffffffffffffffffffffffffffffffffffffffffffffffffffffffffffffffe08184030181529181526020820180517bffffffffffffffffffffffffffffffffffffffffffffffffffffffff167fffffffff000000000000000000000000000000000000000000000000000000009485161790525160e086901b90921682526122f2939291600401612741565b600060405180830381600087803b15801561230c57600080fd5b505af1158015612320573d6000803e3d6000fd5b5050505050565b6001600160a01b03811681146107de57600080fd5b6000806040838503121561234f57600080fd5b823561235a81612327565b946020939093013593505050565b60006020828403121561237a57600080fd5b5035919050565b60008060006060848603121561239657600080fd5b8335925060208401356123a881612327565b915060408401356123b881612327565b809150509250925092565b6000815180845260005b818110156123e9576020818501810151868301820152016123cd565b818111156123fb576000602083870101525b50601f017fffffffffffffffffffffffffffffffffffffffffffffffffffffffffffffffe0169290920160200192915050565b60208152600061115760208301846123c3565b6000806040838503121561245457600080fd5b82359150602083013561246681612327565b809150509250929050565b60006020828403121561248357600080fd5b813561115781612327565b6fffffffffffffffffffffffffffffffff811681146107de57600080fd5b600080604083850312156124bf57600080fd5b8235915060208301356124668161248e565b6000602082840312156124e357600080fd5b815161115781612327565b60006020828403121561250057600080fd5b5051919050565b7f4e487b7100000000000000000000000000000000000000000000000000000000600052601160045260246000fd5b6000821982111561254957612549612507565b500190565b60008282101561256057612560612507565b500390565b60006fffffffffffffffffffffffffffffffff8083168185168183048111821515161561259457612594612507565b02949350505050565b7f4e487b7100000000000000000000000000000000000000000000000000000000600052601260045260246000fd5b60006fffffffffffffffffffffffffffffffff808416806125ef576125ef61259d565b92169190910492915050565b60006fffffffffffffffffffffffffffffffff8381169083168181101561262457612624612507565b039392505050565b7f4e487b7100000000000000000000000000000000000000000000000000000000600052603260045260246000fd5b7f4e487b7100000000000000000000000000000000000000000000000000000000600052603160045260246000fd5b60006080828403121561269c57600080fd5b6040516080810181811067ffffffffffffffff821117156126e6577f4e487b7100000000000000000000000000000000000000000000000000000000600052604160045260246000fd5b60405282516126f481612327565b815260208381015190820152604083015161270e8161248e565b604082015260608301516127218161248e565b60608201529392505050565b60008261273c5761273c61259d565b500690565b6001600160a01b038416815267ffffffffffffffff8316602082015260606040820152600061277360608301846123c3565b9594505050505056fea164736f6c634300080f000a",
  "devdoc": {
    "version": 1,
    "kind": "dev",
    "methods": {
      "addPendingBond(uint256,address)": {
        "params": {
          "_challenger": "Address of the challenger.",
          "_outputIndex": "Index of the L2 checkpoint output."
        }
      },
      "balanceOf(address)": {
        "params": {
          "_addr": "Address of validator."
        },
        "returns": {
          "_0": "Balance of given address."
        }
      },
      "constructor": {
        "params": {
          "_l2OutputOracle": "Address of the L2OutputOracle.",
          "_maxUnbond": "The max number of unbonds when trying unbond.",
          "_portal": "Address of the KromaPortal.",
          "_requiredBondAmount": "The required bond amount.",
          "_roundDuration": "The duration of one submission round in seconds.",
          "_securityCouncil": "Address of the security council.",
          "_trustedValidator": "Address of the trusted validator."
        }
      },
      "createBond(uint256,uint128)": {
        "params": {
          "_expiresAt": "The expiration timestamp of bond.",
          "_outputIndex": "Index of the L2 checkpoint output."
        }
      },
      "getBond(uint256)": {
        "params": {
          "_outputIndex": "Index of the L2 checkpoint output."
        },
        "returns": {
          "_0": "The bond data."
        }
      },
      "getPendingBond(uint256,address)": {
        "params": {
          "_challenger": "Address of the challenger.",
          "_outputIndex": "Index of the L2 checkpoint output."
        },
        "returns": {
          "_0": "Amount of the pending bond."
        }
      },
      "increaseBond(uint256,address)": {
        "params": {
          "_challenger": "Address of the challenger.",
          "_outputIndex": "Index of the L2 checkpoint output."
        }
      },
      "isValidator(address)": {
        "params": {
          "_addr": "Address of validator."
        },
        "returns": {
          "_0": "Whether the given address is an active validator."
        }
      },
      "nextValidator()": {
        "returns": {
          "_0": "The address of the validator."
        }
      },
      "releasePendingBond(uint256,address,address)": {
        "params": {
          "_challenger": "Address of the challenger.",
          "_outputIndex": "Index of the L2 checkpoint output.",
          "_recipient": "Address to receive amount from a pending bond."
        }
      },
      "validatorCount()": {
        "returns": {
          "_0": "The number of validators."
        }
      },
      "withdraw(uint256)": {
        "params": {
          "_amount": "Amount to withdraw."
        }
      },
      "withdrawTo(address,uint256)": {
        "params": {
          "_amount": "Amount to withdraw.",
          "_to": "Address to withdraw asset to."
        }
      }
    },
    "events": {
      "BondIncreased(uint256,address,uint128)": {
        "params": {
          "amount": "Amount of bond increased.",
          "challenger": "Address of the challenger.",
          "outputIndex": "Index of the L2 checkpoint output."
        }
      },
      "Bonded(address,uint256,uint128,uint128)": {
        "params": {
          "amount": "Amount of bonded.",
          "expiresAt": "The expiration timestamp of bond.",
          "outputIndex": "Index of the L2 checkpoint output index.",
          "submitter": "Address of submitter."
        }
      },
      "PendingBondAdded(uint256,address,uint128)": {
        "params": {
          "amount": "Amount of bond added.",
          "challenger": "Address of the challenger.",
          "outputIndex": "Index of the L2 checkpoint output."
        }
      },
      "PendingBondReleased(uint256,address,address,uint128)": {
        "params": {
          "amount": "Amount of bond released.",
          "challenger": "Address of the challenger.",
          "outputIndex": "Index of the L2 checkpoint output.",
          "recipient": "Address to receive amount from a pending bond."
        }
      },
      "Unbonded(uint256,address,uint128)": {
        "params": {
          "amount": "Amount of unbonded.",
          "outputIndex": "Index of the L2 checkpoint output.",
          "recipient": "Address of the recipient."
        }
      }
    }
  },
  "userdoc": {
    "version": 1,
    "kind": "user",
    "methods": {
      "L2_ORACLE()": {
        "notice": "The address of the L2OutputOracle contract. Can be updated via upgrade."
      },
      "MAX_UNBOND()": {
        "notice": "The max number of unbonds when trying unbond."
      },
      "PORTAL()": {
        "notice": "The address of the KromaPortal contract. Can be updated via upgrade."
      },
      "REQUIRED_BOND_AMOUNT()": {
        "notice": "The required bond amount. Can be updated via upgrade."
      },
      "ROUND_DURATION()": {
        "notice": "The duration of a submission round for one output (in seconds).         Note that there are two submission rounds for an output: PRIORITY ROUND and PUBLIC ROUND."
      },
      "SECURITY_COUNCIL()": {
        "notice": "The address of the SecurityCouncil contract. Can be updated via upgrade."
      },
      "TAX_DENOMINATOR()": {
        "notice": "The denominator of the tax."
      },
      "TAX_NUMERATOR()": {
        "notice": "The numerator of the tax."
      },
      "TRUSTED_VALIDATOR()": {
        "notice": "The address of the trusted validator. Can be updated via upgrade."
      },
      "VAULT_REWARD_GAS_LIMIT()": {
        "notice": "The gas limit to use when rewarding validator in the ValidatorRewardVault on L2.         This value is measured through simulation."
      },
      "addPendingBond(uint256,address)": {
        "notice": "Adds a pending bond to the challenge corresponding to the given output index and challenger address.         The pending bond is added to the bond when the challenge is proven or challenger is timed out,         or refunded when the challenge is canceled."
      },
      "balanceOf(address)": {
        "notice": "Returns the balance of given address."
      },
      "constructor": {
        "notice": "Constructs the ValidatorPool contract."
      },
      "createBond(uint256,uint128)": {
        "notice": "Bond asset corresponding to the given output index.         This function is called when submitting output."
      },
      "deposit()": {
        "notice": "Deposit ETH to be used as bond."
      },
      "getBond(uint256)": {
        "notice": "Returns the bond corresponding to the output index. Reverts if the bond does not exist."
      },
      "getPendingBond(uint256,address)": {
        "notice": "Returns the pending bond corresponding to the output index and challenger address.         Reverts if the pending bond does not exist."
      },
      "increaseBond(uint256,address)": {
        "notice": "Increases the bond amount corresponding to the given output index by the pending bond amount.         This is when taxes are charged, and note that taxes are a means of preventing collusive attacks by         the asserter and challenger."
      },
      "initialize()": {
        "notice": "Initializer."
      },
      "isValidator(address)": {
        "notice": "Determines whether the given address is an active validator."
      },
      "nextValidator()": {
        "notice": "Determines who can submit the L2 output next."
      },
      "releasePendingBond(uint256,address,address)": {
        "notice": "Releases the corresponding pending bond to the given output index and challenger address         if a challenge is canceled."
      },
      "unbond()": {
        "notice": "Attempt to unbond. Reverts if unbond is not possible."
      },
      "validatorCount()": {
        "notice": "Returns the number of validators."
      },
      "version()": {
        "notice": "Semantic version."
      },
      "withdraw(uint256)": {
        "notice": "Withdraw a given amount."
      },
      "withdrawTo(address,uint256)": {
        "notice": "Withdraw a given amount."
      }
    },
    "events": {
      "BondIncreased(uint256,address,uint128)": {
        "notice": "Emitted when the bond is increased."
      },
      "Bonded(address,uint256,uint128,uint128)": {
        "notice": "Emitted when a validator bonds."
      },
      "PendingBondAdded(uint256,address,uint128)": {
        "notice": "Emitted when the pending bond is added."
      },
      "PendingBondReleased(uint256,address,address,uint128)": {
        "notice": "Emitted when the pending bond is released(refunded)."
      },
      "Unbonded(uint256,address,uint128)": {
        "notice": "Emitted when a validator unbonds."
      }
    },
    "notice": "The ValidatorPool determines whether the validator is present and manages the validator's deposit."
  },
  "storageLayout": {
    "storage": [
      {
        "astId": 109216,
        "contract": "contracts/L1/ValidatorPool.sol:ValidatorPool",
        "label": "_initialized",
        "offset": 0,
        "slot": "0",
        "type": "t_uint8"
      },
      {
        "astId": 109219,
        "contract": "contracts/L1/ValidatorPool.sol:ValidatorPool",
        "label": "_initializing",
        "offset": 1,
        "slot": "0",
        "type": "t_bool"
      },
      {
        "astId": 109519,
        "contract": "contracts/L1/ValidatorPool.sol:ValidatorPool",
        "label": "_status",
        "offset": 0,
        "slot": "1",
        "type": "t_uint256"
      },
      {
        "astId": 109588,
        "contract": "contracts/L1/ValidatorPool.sol:ValidatorPool",
        "label": "__gap",
        "offset": 0,
        "slot": "2",
        "type": "t_array(t_uint256)49_storage"
      },
      {
        "astId": 48749,
        "contract": "contracts/L1/ValidatorPool.sol:ValidatorPool",
        "label": "balances",
        "offset": 0,
        "slot": "51",
        "type": "t_mapping(t_address,t_uint256)"
      },
      {
        "astId": 48755,
        "contract": "contracts/L1/ValidatorPool.sol:ValidatorPool",
        "label": "bonds",
        "offset": 0,
        "slot": "52",
        "type": "t_mapping(t_uint256,t_struct(Bond)61837_storage)"
      },
      {
        "astId": 48758,
        "contract": "contracts/L1/ValidatorPool.sol:ValidatorPool",
        "label": "nextUnbondOutputIndex",
        "offset": 0,
        "slot": "53",
        "type": "t_uint256"
      },
      {
        "astId": 48762,
        "contract": "contracts/L1/ValidatorPool.sol:ValidatorPool",
        "label": "validators",
        "offset": 0,
        "slot": "54",
        "type": "t_array(t_address)dyn_storage"
      },
      {
        "astId": 48767,
        "contract": "contracts/L1/ValidatorPool.sol:ValidatorPool",
        "label": "validatorIndexes",
        "offset": 0,
        "slot": "55",
        "type": "t_mapping(t_address,t_uint256)"
      },
      {
        "astId": 48770,
        "contract": "contracts/L1/ValidatorPool.sol:ValidatorPool",
        "label": "nextPriorityValidator",
        "offset": 0,
        "slot": "56",
        "type": "t_address"
      },
      {
        "astId": 48777,
        "contract": "contracts/L1/ValidatorPool.sol:ValidatorPool",
        "label": "pendingBonds",
        "offset": 0,
        "slot": "57",
        "type": "t_mapping(t_uint256,t_mapping(t_address,t_uint128))"
      }
    ],
    "types": {
      "t_address": {
        "encoding": "inplace",
        "label": "address",
        "numberOfBytes": "20"
      },
      "t_array(t_address)dyn_storage": {
        "encoding": "dynamic_array",
        "label": "address[]",
        "numberOfBytes": "32",
        "base": "t_address"
      },
      "t_array(t_uint256)49_storage": {
        "encoding": "inplace",
        "label": "uint256[49]",
        "numberOfBytes": "1568",
        "base": "t_uint256"
      },
      "t_bool": {
        "encoding": "inplace",
        "label": "bool",
        "numberOfBytes": "1"
      },
      "t_mapping(t_address,t_uint128)": {
        "encoding": "mapping",
        "key": "t_address",
        "label": "mapping(address => uint128)",
        "numberOfBytes": "32",
        "value": "t_uint128"
      },
      "t_mapping(t_address,t_uint256)": {
        "encoding": "mapping",
        "key": "t_address",
        "label": "mapping(address => uint256)",
        "numberOfBytes": "32",
        "value": "t_uint256"
      },
      "t_mapping(t_uint256,t_mapping(t_address,t_uint128))": {
        "encoding": "mapping",
        "key": "t_uint256",
        "label": "mapping(uint256 => mapping(address => uint128))",
        "numberOfBytes": "32",
        "value": "t_mapping(t_address,t_uint128)"
      },
      "t_mapping(t_uint256,t_struct(Bond)61837_storage)": {
        "encoding": "mapping",
        "key": "t_uint256",
        "label": "mapping(uint256 => struct Types.Bond)",
        "numberOfBytes": "32",
        "value": "t_struct(Bond)61837_storage"
      },
      "t_struct(Bond)61837_storage": {
        "encoding": "inplace",
        "label": "struct Types.Bond",
        "numberOfBytes": "32",
        "members": [
          {
            "astId": 61834,
            "contract": "contracts/L1/ValidatorPool.sol:ValidatorPool",
            "label": "amount",
            "offset": 0,
            "slot": "0",
            "type": "t_uint128"
          },
          {
            "astId": 61836,
            "contract": "contracts/L1/ValidatorPool.sol:ValidatorPool",
            "label": "expiresAt",
            "offset": 16,
            "slot": "0",
            "type": "t_uint128"
          }
        ]
      },
      "t_uint128": {
        "encoding": "inplace",
        "label": "uint128",
        "numberOfBytes": "16"
      },
      "t_uint256": {
        "encoding": "inplace",
        "label": "uint256",
        "numberOfBytes": "32"
      },
      "t_uint8": {
        "encoding": "inplace",
        "label": "uint8",
        "numberOfBytes": "1"
      }
    }
  }
}