{
  "address": "0x339208824010425cBE73201ceD4372308ACD610B",
  "abi": [
    {
      "inputs": [
        {
          "internalType": "address",
          "name": "_poseidon2",
          "type": "address"
        }
      ],
      "stateMutability": "nonpayable",
      "type": "constructor"
    },
    {
      "inputs": [],
      "name": "POSEIDON2",
      "outputs": [
        {
          "internalType": "contract IPoseidon2",
          "name": "",
          "type": "address"
        }
      ],
      "stateMutability": "view",
      "type": "function"
    },
    {
      "inputs": [
        {
          "internalType": "bytes32",
          "name": "_key",
          "type": "bytes32"
        },
        {
          "internalType": "bytes[]",
          "name": "_proofs",
          "type": "bytes[]"
        },
        {
          "internalType": "bytes32",
          "name": "_root",
          "type": "bytes32"
        }
      ],
      "name": "get",
      "outputs": [
        {
          "internalType": "bool",
          "name": "",
          "type": "bool"
        },
        {
          "internalType": "bytes",
          "name": "",
          "type": "bytes"
        }
      ],
      "stateMutability": "view",
      "type": "function"
    },
    {
      "inputs": [
        {
          "internalType": "bytes32",
          "name": "_key",
          "type": "bytes32"
        },
        {
          "internalType": "bytes",
          "name": "_value",
          "type": "bytes"
        },
        {
          "internalType": "bytes[]",
          "name": "_proofs",
          "type": "bytes[]"
        },
        {
          "internalType": "bytes32",
          "name": "_root",
          "type": "bytes32"
        }
      ],
      "name": "verifyInclusionProof",
      "outputs": [
        {
          "internalType": "bool",
          "name": "",
          "type": "bool"
        }
      ],
      "stateMutability": "view",
      "type": "function"
    }
  ],
  "transactionHash": "0x4394569fa908421a0c516aa914af6f07d36a24eda7af1ae2d08fd0423431122b",
  "args": [
    "0xFd234971881a7c72965175fA8E438c97B2Dcd273"
  ],
  "numDeployments": 1,
  "solcInputHash": "b97aafec05891224459cbb7c22d23f0d",
  "bytecode": "0x60a060405234801561001057600080fd5b50604051611c0c380380611c0c83398101604081905261002f91610040565b6001600160a01b0316608052610070565b60006020828403121561005257600080fd5b81516001600160a01b038116811461006957600080fd5b9392505050565b608051611b666100a6600039600081816094015281816107ca015281816109e801528181610c3c01526111a00152611b666000f3fe608060405234801561001057600080fd5b50600436106100415760003560e01c806312e64a7214610046578063c423b1e81461006e578063dc8b50381461008f575b600080fd5b6100596100543660046117b2565b6100db565b60405190151581526020015b60405180910390f35b61008161007c366004611827565b6101a6565b6040516100659291906118f1565b6100b67f000000000000000000000000000000000000000000000000000000000000000081565b60405173ffffffffffffffffffffffffffffffffffffffff9091168152602001610065565b6040517fc423b1e800000000000000000000000000000000000000000000000000000000815260009081908190309063c423b1e890610122908a908990899060040161190c565b600060405180830381865afa15801561013f573d6000803e3d6000fd5b505050506040513d6000823e601f3d9081017fffffffffffffffffffffffffffffffffffffffffffffffffffffffffffffffe0168201604052610185919081019061199c565b9150915081801561019b575061019b868261074b565b979650505050505050565b600060606002845110156102275760405162461bcd60e51b815260206004820152602960248201527f5a4b4d65726b6c65547269653a2070726f76696465642070726f6f662069732060448201527f746f6f2073686f7274000000000000000000000000000000000000000000000060648201526084015b60405180910390fd5b61027e84600186516102399190611a5d565b8151811061024957610249611a74565b602002602001015180516020909101207f950654da67865a81bc70e45f3230f5179f08e29c66184bf746f71050f117b3b81490565b6102f05760405162461bcd60e51b815260206004820152602d60248201527f5a4b4d65726b6c65547269653a20746865206c617374206974656d206973206e60448201527f6f74206d61676963206861736800000000000000000000000000000000000000606482015260840161021e565b60006102fb86610767565b9050600061030886610846565b90506103526040805161010081019091528060008152600060208201819052604082018190526060808301829052608083015260a0820181905260c0820181905260e09091015290565b60408051602081019091526000808252835190918291829190829061037990600290611a5d565b90505b86818151811061038e5761038e611a74565b6020026020010151602001519550600060038111156103af576103af611aa3565b865160038111156103c2576103c2611aa3565b036104a05760006103d38983610939565b90508015610433578660200151861461042e5760405162461bcd60e51b815260206004820152601b60248201527f5a4b4d65726b6c65547269653a20696e76616c6964206b6579204c0000000000604482015260640161021e565b610486565b866040015186146104865760405162461bcd60e51b815260206004820152601b60248201527f5a4b4d65726b6c65547269653a20696e76616c6964206b657920520000000000604482015260640161021e565b61049887602001518860400151610996565b9550506106b5565b6001865160038111156104b5576104b5611aa3565b0361061857831580156104c6575082155b6105385760405162461bcd60e51b815260206004820152602660248201527f5a4b4d65726b6c65547269653a206475706c696361746564207465726d696e6160448201527f6c206e6f64650000000000000000000000000000000000000000000000000000606482015260840161021e565b87866060015114935083156107385761056b600160001b87606001516105668960a001518a60800151610a63565b610bff565b6080870151805160208102825260e0890151929750909350839115610611578e8860e00151148061059f5750898860e00151145b6106115760405162461bcd60e51b815260206004820152602260248201527f5a4b4d65726b6c65547269653a20696e76616c6964206b657920707265696d6160448201527f6765000000000000000000000000000000000000000000000000000000000000606482015260840161021e565b50506106b5565b60028651600381111561062d5761062d611aa3565b036106b5578315801561063e575082155b6106b05760405162461bcd60e51b815260206004820152602660248201527f5a4b4d65726b6c65547269653a206475706c696361746564207465726d696e6160448201527f6c206e6f64650000000000000000000000000000000000000000000000000000606482015260840161021e565b600192505b80600003610711578a851461070c5760405162461bcd60e51b815260206004820152601960248201527f5a4b4d65726b65547269653a20696e76616c696420726f6f7400000000000000604482015260640161021e565b610738565b7fffffffffffffffffffffffffffffffffffffffffffffffffffffffffffffffff0161037c565b50919b919a509098505050505050505050565b6000818051906020012083805190602001201490505b92915050565b600080600061077584610d77565b6040805180820182528381526020810183905290517f299e566000000000000000000000000000000000000000000000000000000000815292945090925073ffffffffffffffffffffffffffffffffffffffff7f0000000000000000000000000000000000000000000000000000000000000000169163299e5660916107fd91600401611ad2565b602060405180830381865afa15801561081a573d6000803e3d6000fd5b505050506040513d601f19601f8201168201806040525081019061083e9190611b03565b949350505050565b805160609060008167ffffffffffffffff811115610866576108666115f9565b60405190808252806020026020018201604052801561089f57816020015b61088c61159a565b8152602001906001900390816108845790505b50905060005b6108b0600184611a5d565b8110156109315760006108db8683815181106108ce576108ce611a74565b6020026020010151610d9f565b905060405180604001604052808784815181106108fa576108fa611a74565b602002602001015181526020018281525083838151811061091d5761091d611a74565b6020908102919091010152506001016108a5565b509392505050565b6000610100821061098c5760405162461bcd60e51b815260206004820152601c60248201527f5a4b4d65726b6c65547269653a20746f6f206c6f6e6720646570746800000000604482015260640161021e565b506001901b161590565b6040805180820182528381526020810183905290517f299e566000000000000000000000000000000000000000000000000000000000815260009173ffffffffffffffffffffffffffffffffffffffff7f0000000000000000000000000000000000000000000000000000000000000000169163299e566091610a1b91600401611ad2565b602060405180830381865afa158015610a38573d6000803e3d6000fd5b505050506040513d601f19601f82011682018060405250810190610a5c9190611b03565b9392505050565b6000600182511015610add5760405162461bcd60e51b815260206004820152602b60248201527f5a4b547269654861736865723a20746f6f206665772076616c75657320666f7260448201527f205f76616c756548617368000000000000000000000000000000000000000000606482015260840161021e565b6000825167ffffffffffffffff811115610af957610af96115f9565b604051908082528060200260200182016040528015610b22578160200160208202803683370190505b50905060005b8351811015610bc8576001811b851663ffffffff1615610b8757610b64848281518110610b5757610b57611a74565b6020026020010151610767565b828281518110610b7657610b76611a74565b602002602001018181525050610bc0565b838181518110610b9957610b99611a74565b6020026020010151828281518110610bb357610bb3611a74565b6020026020010181815250505b600101610b28565b50600283511015610bf65780600081518110610be657610be6611a74565b6020026020010151915050610761565b61083e81611122565b6040805180820182528481526020810184905290517f299e56600000000000000000000000000000000000000000000000000000000081526000917f00000000000000000000000000000000000000000000000000000000000000009173ffffffffffffffffffffffffffffffffffffffff83169163299e566091610c879190600401611ad2565b602060405180830381865afa158015610ca4573d6000803e3d6000fd5b505050506040513d601f19601f82011682018060405250810190610cc89190611b03565b6040805180820182528281526020810186905290517f299e566000000000000000000000000000000000000000000000000000000000815291965073ffffffffffffffffffffffffffffffffffffffff83169163299e566091610d2d91600401611ad2565b602060405180830381865afa158015610d4a573d6000803e3d6000fd5b505050506040513d601f19601f82011682018060405250810190610d6e9190611b03565b95945050505050565b60008082608081901b610d8a8260801c90565b610d948260801c90565b935093505050915091565b60408051610100810182526000808252602082018190529181018290526060808201839052608082015260a0810182905260c0810182905260e081019190915260408051610100810182526000808252602082018190529181018290526060808201839052608082015260a0810182905260c0810182905260e08101919091526000610e53846040805180820182526060815260006020918201528151808301909252828101825291519181019190915290565b90506000610e608261130c565b60ff16905080610e8b57610e7382611393565b6020840152610e8182611393565b60408401526110de565b6001810361101857610e9c82611393565b6060840152600080610ead84611431565b60ff16915091508163ffffffff166001148015610eca5750806001145b80610ee657508163ffffffff166004148015610ee65750806004145b610f585760405162461bcd60e51b815260206004820152602360248201527f4e6f64655265616465723a20696e76616c696420636f6d70726573736564466c60448201527f6167730000000000000000000000000000000000000000000000000000000000606482015260840161021e565b63ffffffff821660a08601528067ffffffffffffffff811115610f7d57610f7d6115f9565b604051908082528060200260200182016040528015610fa6578160200160208202803683370190505b50608086015260005b81811015610fe957610fc085611393565b86608001518281518110610fd657610fd6611a74565b6020908102919091010152600101610faf565b506000610ff58561130c565b60ff16905080156110105761100a85826114cb565b60e08701525b5050506110de565b600281146110de57600381036110965760405162461bcd60e51b815260206004820152602560248201527f4e6f64655265616465723a20756e657870656374656420726f6f74206e6f646560448201527f2074797065000000000000000000000000000000000000000000000000000000606482015260840161021e565b60405162461bcd60e51b815260206004820152601d60248201527f4e6f64655265616465723a20696e76616c6964206e6f64652074797065000000604482015260640161021e565b8060038111156110f0576110f0611aa3565b8390600381111561110357611103611aa3565b9081600381111561111657611116611aa3565b90525091949350505050565b600060048251101561119c5760405162461bcd60e51b815260206004820152602b60248201527f5a4b547269654861736865723a20746f6f206665772076616c75657320666f7260448201527f205f68617368456c656d73000000000000000000000000000000000000000000606482015260840161021e565b81517f00000000000000000000000000000000000000000000000000000000000000009060009081906001906002905b808310156112e457600094505b808510156112d6578285019350808410156112cd578573ffffffffffffffffffffffffffffffffffffffff1663299e566060405180604001604052808b898151811061122757611227611a74565b602002602001015181526020018b888151811061124657611246611a74565b60200260200101518152506040518263ffffffff1660e01b815260040161126d9190611ad2565b602060405180830381865afa15801561128a573d6000803e3d6000fd5b505050506040513d601f19601f820116820180604052508101906112ae9190611b03565b8886815181106112c0576112c0611a74565b6020026020010181815250505b938101936111d9565b909150600182901b906111cc565b876000815181106112f7576112f7611a74565b60200260200101519650505050505050919050565b60006001826020015110156113635760405162461bcd60e51b815260206004820152601f60248201527f4e6f64655265616465723a20746f6f2073686f727420666f722075696e743800604482015260640161021e565b81518051600180830180865260208601805191949360f81c9291611388908390611a5d565b905250949350505050565b60006020826020015110156114105760405162461bcd60e51b815260206004820152602160248201527f4e6f64655265616465723a20746f6f2073686f727420666f722062797465733360448201527f3200000000000000000000000000000000000000000000000000000000000000606482015260840161021e565b81518051602080830180865281860180519194939291611388908390611a5d565b6000806004836020015110156114895760405162461bcd60e51b815260206004820181905260248201527f4e6f64655265616465723a20746f6f2073686f727420666f722075696e743332604482015260640161021e565b8251805160048083018087526020870180519194939260f084901c9260f885901c92906114b7908390611a5d565b90525060ff90911697909650945050505050565b600081836020015110156115475760405162461bcd60e51b815260206004820152602160248201527f4e6f64655265616465723a20746f6f2073686f727420666f72206e206279746560448201527f7300000000000000000000000000000000000000000000000000000000000000606482015260840161021e565b825160609060008061155a866008611b1c565b61156690610100611a5d565b8351848801808a5260208a01805191975091831c9450919250879161158c908390611a5d565b905250909695505050505050565b6040518060400160405280606081526020016115f46040805161010081019091528060008152600060208201819052604082018190526060808301829052608083015260a0820181905260c0820181905260e09091015290565b905290565b7f4e487b7100000000000000000000000000000000000000000000000000000000600052604160045260246000fd5b604051601f82017fffffffffffffffffffffffffffffffffffffffffffffffffffffffffffffffe016810167ffffffffffffffff8111828210171561166f5761166f6115f9565b604052919050565b600067ffffffffffffffff821115611691576116916115f9565b50601f017fffffffffffffffffffffffffffffffffffffffffffffffffffffffffffffffe01660200190565b600082601f8301126116ce57600080fd5b81356116e16116dc82611677565b611628565b8181528460208386010111156116f657600080fd5b816020850160208301376000918101602001919091529392505050565b600082601f83011261172457600080fd5b8135602067ffffffffffffffff80831115611741576117416115f9565b8260051b611750838201611628565b938452858101830193838101908886111561176a57600080fd5b84880192505b858310156117a6578235848111156117885760008081fd5b6117968a87838c01016116bd565b8352509184019190840190611770565b98975050505050505050565b600080600080608085870312156117c857600080fd5b84359350602085013567ffffffffffffffff808211156117e757600080fd5b6117f3888389016116bd565b9450604087013591508082111561180957600080fd5b5061181687828801611713565b949793965093946060013593505050565b60008060006060848603121561183c57600080fd5b83359250602084013567ffffffffffffffff81111561185a57600080fd5b61186686828701611713565b925050604084013590509250925092565b60005b8381101561189257818101518382015260200161187a565b838111156118a1576000848401525b50505050565b600081518084526118bf816020860160208601611877565b601f017fffffffffffffffffffffffffffffffffffffffffffffffffffffffffffffffe0169290920160200192915050565b821515815260406020820152600061083e60408301846118a7565b600060608201858352602060608185015281865180845260808601915060808160051b870101935082880160005b82811015611986577fffffffffffffffffffffffffffffffffffffffffffffffffffffffffffffff808887030184526119748683516118a7565b9550928401929084019060010161193a565b5050505050604092909201929092529392505050565b600080604083850312156119af57600080fd5b825180151581146119bf57600080fd5b602084015190925067ffffffffffffffff8111156119dc57600080fd5b8301601f810185136119ed57600080fd5b80516119fb6116dc82611677565b818152866020838501011115611a1057600080fd5b611a21826020830160208601611877565b8093505050509250929050565b7f4e487b7100000000000000000000000000000000000000000000000000000000600052601160045260246000fd5b600082821015611a6f57611a6f611a2e565b500390565b7f4e487b7100000000000000000000000000000000000000000000000000000000600052603260045260246000fd5b7f4e487b7100000000000000000000000000000000000000000000000000000000600052602160045260246000fd5b60408101818360005b6002811015611afa578151835260209283019290910190600101611adb565b50505092915050565b600060208284031215611b1557600080fd5b5051919050565b6000817fffffffffffffffffffffffffffffffffffffffffffffffffffffffffffffffff0483118215151615611b5457611b54611a2e565b50029056fea164736f6c634300080f000a",
  "devdoc": {
    "version": 1,
    "kind": "dev",
    "methods": {
      "constructor": {
        "params": {
          "_poseidon2": "The address of poseidon2 contract."
        }
      },
      "get(bytes32,bytes[],bytes32)": {
        "params": {
          "_key": "Key to search for, as hex bytes.",
          "_proofs": "Merkle trie inclusion proof for the key.",
          "_root": "Known root of the Merkle trie."
        },
        "returns": {
          "_0": "Whether or not the key exists.",
          "_1": "Value of the key if it exists."
        }
      },
      "verifyInclusionProof(bytes32,bytes,bytes[],bytes32)": {
        "params": {
          "_key": "Key of the node to search for, as a hex string.",
          "_proofs": "Merkle trie inclusion proof for the desired node.",
          "_root": "Known root of the Merkle trie. Used to verify that the included proof is                correctly constructed.",
          "_value": "Value of the node to search for, as a hex string."
        },
        "returns": {
          "_0": "Whether or not the proof is valid."
        }
      }
    }
  },
  "userdoc": {
    "version": 1,
    "kind": "user",
    "methods": {
      "POSEIDON2()": {
        "notice": "Poseidon2 contract generated by circomlibjs."
      },
      "get(bytes32,bytes[],bytes32)": {
        "notice": "Retrieves the value associated with a given key."
      },
      "verifyInclusionProof(bytes32,bytes,bytes[],bytes32)": {
        "notice": "Verifies a proof that a given key/value pair is present in the trie."
      }
    },
    "notice": "The ZKMerkleTrie is contract which can produce a hash according to ZKTrie.         This owns an interface of Poseidon2 that is required to compute hash used by ZKTrie."
  }
}