{
  "address": "0xC0d3C0d3c0d3c0D3c0D3c0D3c0d3c0d3c0d3000C",
  "abi": [
    {
      "type": "constructor",
      "payable": false,
      "inputs": [
        {
          "type": "address",
          "name": "_bridge"
        },
        {
          "type": "uint256",
          "name": "_remoteChainId"
        }
      ]
    },
    {
      "type": "event",
      "anonymous": false,
      "name": "KromaMintableERC721Created",
      "inputs": [
        {
          "type": "address",
          "name": "localToken",
          "indexed": true
        },
        {
          "type": "address",
          "name": "remoteToken",
          "indexed": true
        },
        {
          "type": "address",
          "name": "deployer",
          "indexed": false
        }
      ]
    },
    {
      "type": "function",
      "name": "BRIDGE",
      "constant": true,
      "stateMutability": "view",
      "payable": false,
      "inputs": [],
      "outputs": [
        {
          "type": "address"
        }
      ]
    },
    {
      "type": "function",
      "name": "REMOTE_CHAIN_ID",
      "constant": true,
      "stateMutability": "view",
      "payable": false,
      "inputs": [],
      "outputs": [
        {
          "type": "uint256"
        }
      ]
    },
    {
      "type": "function",
      "name": "createKromaMintableERC721",
      "constant": false,
      "payable": false,
      "inputs": [
        {
          "type": "address",
          "name": "_remoteToken"
        },
        {
          "type": "string",
          "name": "_name"
        },
        {
          "type": "string",
          "name": "_symbol"
        }
      ],
      "outputs": [
        {
          "type": "address"
        }
      ]
    },
    {
      "type": "function",
      "name": "isKromaMintableERC721",
      "constant": true,
      "stateMutability": "view",
      "payable": false,
      "inputs": [
        {
          "type": "address"
        }
      ],
      "outputs": [
        {
          "type": "bool"
        }
      ]
    },
    {
      "type": "function",
      "name": "version",
      "constant": true,
      "stateMutability": "view",
      "payable": false,
      "inputs": [],
      "outputs": [
        {
          "type": "string"
        }
      ]
    }
  ],
  "numDeployments": 1,
  "bytecode": "0x61012060405234801561001157600080fd5b5060405161397a38038061397a83398101604081905261003091610056565b6001608052600060a081905260c0526001600160a01b0390911660e05261010052610090565b6000806040838503121561006957600080fd5b82516001600160a01b038116811461008057600080fd5b6020939093015192949293505050565b60805160a05160c05160e051610100516138996100e160003960008181609c015261030901526000818161014701526102e8015260006101c70152600061019c0152600061017101526138996000f3fe60806040523480156200001157600080fd5b50600436106200006f5760003560e01c8063c8ddda4c1162000056578063c8ddda4c14620000cd578063de679a4e1462000104578063ee9a31a2146200014157600080fd5b806354fd4d5014620000745780637d1d0c5b1462000096575b600080fd5b6200007e62000169565b6040516200008d919062000635565b60405180910390f35b620000be7f000000000000000000000000000000000000000000000000000000000000000081565b6040519081526020016200008d565b620000f3620000de3660046200067b565b60006020819052908152604090205460ff1681565b60405190151581526020016200008d565b6200011b620001153660046200077b565b62000214565b60405173ffffffffffffffffffffffffffffffffffffffff90911681526020016200008d565b6200011b7f000000000000000000000000000000000000000000000000000000000000000081565b6060620001967f0000000000000000000000000000000000000000000000000000000000000000620003f9565b620001c17f0000000000000000000000000000000000000000000000000000000000000000620003f9565b620001ec7f0000000000000000000000000000000000000000000000000000000000000000620003f9565b6040516020016200020093929190620007f8565b604051602081830303815290604052905090565b600073ffffffffffffffffffffffffffffffffffffffff8416620002e4576040517f08c379a000000000000000000000000000000000000000000000000000000000815260206004820152604160248201527f4b726f6d614d696e7461626c65455243373231466163746f72793a204c31207460448201527f6f6b656e20616464726573732063616e6e6f742062652061646472657373283060648201527f2900000000000000000000000000000000000000000000000000000000000000608482015260a40160405180910390fd5b60007f00000000000000000000000000000000000000000000000000000000000000007f00000000000000000000000000000000000000000000000000000000000000008686866040516200033990620005a8565b6200034995949392919062000874565b604051809103906000f08015801562000366573d6000803e3d6000fd5b5073ffffffffffffffffffffffffffffffffffffffff8181166000818152602081815260409182902080547fffffffffffffffffffffffffffffffffffffffffffffffffffffffffffffff0016600117905590513381529394509188169290917f0b5bde7eee01f5b9701af85ba2f7e4ddcfe77445964a66b30a8d5d8659667f9f910160405180910390a3949350505050565b606060006200040883620004be565b600101905060008167ffffffffffffffff8111156200042b576200042b62000699565b6040519080825280601f01601f19166020018201604052801562000456576020820181803683370190505b5090508181016020015b7fffffffffffffffffffffffffffffffffffffffffffffffffffffffffffffffff017f3031323334353637383961626364656600000000000000000000000000000000600a86061a8153600a85049450846200046057509392505050565b6000807a184f03e93ff9f4daa797ed6e38ed64bf6a1f010000000000000000831062000508577a184f03e93ff9f4daa797ed6e38ed64bf6a1f010000000000000000830492506040015b6d04ee2d6d415b85acef8100000000831062000535576d04ee2d6d415b85acef8100000000830492506020015b662386f26fc1000083106200055457662386f26fc10000830492506010015b6305f5e10083106200056d576305f5e100830492506008015b61271083106200058257612710830492506004015b6064831062000595576064830492506002015b600a8310620005a2576001015b92915050565b612fb780620008d683390190565b60005b83811015620005d3578181015183820152602001620005b9565b83811115620005e3576000848401525b50505050565b6000815180845262000603816020860160208601620005b6565b601f017fffffffffffffffffffffffffffffffffffffffffffffffffffffffffffffffe0169290920160200192915050565b6020815260006200064a6020830184620005e9565b9392505050565b803573ffffffffffffffffffffffffffffffffffffffff811681146200067657600080fd5b919050565b6000602082840312156200068e57600080fd5b6200064a8262000651565b7f4e487b7100000000000000000000000000000000000000000000000000000000600052604160045260246000fd5b600082601f830112620006da57600080fd5b813567ffffffffffffffff80821115620006f857620006f862000699565b604051601f83017fffffffffffffffffffffffffffffffffffffffffffffffffffffffffffffffe0908116603f0116810190828211818310171562000741576200074162000699565b816040528381528660208588010111156200075b57600080fd5b836020870160208301376000602085830101528094505050505092915050565b6000806000606084860312156200079157600080fd5b6200079c8462000651565b9250602084013567ffffffffffffffff80821115620007ba57600080fd5b620007c887838801620006c8565b93506040860135915080821115620007df57600080fd5b50620007ee86828701620006c8565b9150509250925092565b600084516200080c818460208901620005b6565b80830190507f2e0000000000000000000000000000000000000000000000000000000000000080825285516200084a816001850160208a01620005b6565b6001920191820152835162000867816002840160208801620005b6565b0160020195945050505050565b600073ffffffffffffffffffffffffffffffffffffffff808816835286602084015280861660408401525060a06060830152620008b560a0830185620005e9565b8281036080840152620008c98185620005e9565b9897505050505050505056fe6101406040523480156200001257600080fd5b5060405162002fb738038062002fb78339810160408190526200003591620006a1565b6001600080848482620000498382620007ca565b506001620000588282620007ca565b50505060809290925260a05260c0526001600160a01b038516620000dc5760405162461bcd60e51b815260206004820152603060248201527f4b726f6d614d696e7461626c654552433732313a206272696467652063616e6e60448201526f6f74206265206164647265737328302960801b60648201526084015b60405180910390fd5b83600003620001545760405162461bcd60e51b815260206004820152603360248201527f4b726f6d614d696e7461626c654552433732313a2072656d6f7465206368616960448201527f6e2069642063616e6e6f74206265207a65726f000000000000000000000000006064820152608401620000d3565b6001600160a01b038316620001d25760405162461bcd60e51b815260206004820152603660248201527f4b726f6d614d696e7461626c654552433732313a2072656d6f746520746f6b6560448201527f6e2063616e6e6f742062652061646472657373283029000000000000000000006064820152608401620000d3565b60e08490526001600160a01b0383811661010081905290861661012052620002089060146200025c602090811b62000df417901c565b6200021e856200041c60201b6200101d1760201c565b6040516020016200023192919062000896565b604051602081830303815290604052600a9081620002509190620007ca565b5050505050506200098d565b606060006200026d83600262000920565b6200027a90600262000942565b6001600160401b03811115620002945762000294620005c7565b6040519080825280601f01601f191660200182016040528015620002bf576020820181803683370190505b509050600360fc1b81600081518110620002dd57620002dd6200095d565b60200101906001600160f81b031916908160001a905350600f60fb1b816001815181106200030f576200030f6200095d565b60200101906001600160f81b031916908160001a90535060006200033584600262000920565b6200034290600162000942565b90505b6001811115620003c4576f181899199a1a9b1b9c1cb0b131b232b360811b85600f16601081106200037a576200037a6200095d565b1a60f81b8282815181106200039357620003936200095d565b60200101906001600160f81b031916908160001a90535060049490941c93620003bc8162000973565b905062000345565b508315620004155760405162461bcd60e51b815260206004820181905260248201527f537472696e67733a20686578206c656e67746820696e73756666696369656e746044820152606401620000d3565b9392505050565b606060006200043683620004c060201b620010db1760201c565b60010190506000816001600160401b03811115620004585762000458620005c7565b6040519080825280601f01601f19166020018201604052801562000483576020820181803683370190505b5090508181016020015b600019016f181899199a1a9b1b9c1cb0b131b232b360811b600a86061a8153600a85049450846200048d57509392505050565b6000807a184f03e93ff9f4daa797ed6e38ed64bf6a1f01000000000000000083106200050a577a184f03e93ff9f4daa797ed6e38ed64bf6a1f010000000000000000830492506040015b6d04ee2d6d415b85acef8100000000831062000537576d04ee2d6d415b85acef8100000000830492506020015b662386f26fc1000083106200055657662386f26fc10000830492506010015b6305f5e10083106200056f576305f5e100830492506008015b61271083106200058457612710830492506004015b6064831062000597576064830492506002015b600a8310620005a4576001015b92915050565b80516001600160a01b0381168114620005c257600080fd5b919050565b634e487b7160e01b600052604160045260246000fd5b60005b83811015620005fa578181015183820152602001620005e0565b838111156200060a576000848401525b50505050565b600082601f8301126200062257600080fd5b81516001600160401b03808211156200063f576200063f620005c7565b604051601f8301601f19908116603f011681019082821181831017156200066a576200066a620005c7565b816040528381528660208588010111156200068457600080fd5b62000697846020830160208901620005dd565b9695505050505050565b600080600080600060a08688031215620006ba57600080fd5b620006c586620005aa565b945060208601519350620006dc60408701620005aa565b60608701519093506001600160401b0380821115620006fa57600080fd5b6200070889838a0162000610565b935060808801519150808211156200071f57600080fd5b506200072e8882890162000610565b9150509295509295909350565b600181811c908216806200075057607f821691505b6020821081036200077157634e487b7160e01b600052602260045260246000fd5b50919050565b601f821115620007c557600081815260208120601f850160051c81016020861015620007a05750805b601f850160051c820191505b81811015620007c157828155600101620007ac565b5050505b505050565b81516001600160401b03811115620007e657620007e6620005c7565b620007fe81620007f784546200073b565b8462000777565b602080601f8311600181146200083657600084156200081d5750858301515b600019600386901b1c1916600185901b178555620007c1565b600085815260208120601f198616915b82811015620008675788860151825594840194600190910190840162000846565b5085821015620008865787850151600019600388901b60f8161c191681555b5050505050600190811b01905550565b6832ba3432b932bab69d60b91b815260008351620008bc816009850160208801620005dd565b600160fe1b6009918401918201528351620008df81600a840160208801620005dd565b712f746f6b656e5552493f75696e743235363d60701b600a9290910191820152601c01949350505050565b634e487b7160e01b600052601160045260246000fd5b60008160001904831182151516156200093d576200093d6200090a565b500290565b600082198211156200095857620009586200090a565b500190565b634e487b7160e01b600052603260045260246000fd5b6000816200098557620009856200090a565b506000190190565b60805160a05160c05160e05161010051610120516125b762000a00600039600081816103a10152818161042c01528181610a9c0152610b8a0152600081816101e0015261037b0152600081816102e801526103c7015260006109330152600061090a015260006108e101526125b76000f3fe608060405234801561001057600080fd5b50600436106101ae5760003560e01c80637d1d0c5b116100ee578063c87b56dd11610097578063e78cea9211610071578063e78cea921461039f578063e9518196146103c5578063e985e9c5146103eb578063ee9a31a21461042757600080fd5b8063c87b56dd1461035e578063d547cfb714610371578063d6c0b2c41461037957600080fd5b8063a1448194116100c8578063a144819414610325578063a22cb46514610338578063b88d4fde1461034b57600080fd5b80637d1d0c5b146102e357806395d89b411461030a5780639dc29fac1461031257600080fd5b806323b872dd1161015b5780634f6ccce7116101355780634f6ccce7146102a257806354fd4d50146102b55780636352211e146102bd57806370a08231146102d057600080fd5b806323b872dd146102695780632f745c591461027c57806342842e0e1461028f57600080fd5b8063081812fc1161018c578063081812fc1461022f578063095ea7b31461024257806318160ddd1461025757600080fd5b806301ffc9a7146101b3578063033964be146101db57806306fdde031461021a575b600080fd5b6101c66101c1366004612037565b61044e565b60405190151581526020015b60405180910390f35b6102027f000000000000000000000000000000000000000000000000000000000000000081565b6040516001600160a01b0390911681526020016101d2565b6102226104fd565b6040516101d291906120ca565b61020261023d3660046120dd565b61058f565b610255610250366004612112565b6105b6565b005b6008545b6040519081526020016101d2565b61025561027736600461213c565b6106ec565b61025b61028a366004612112565b610773565b61025561029d36600461213c565b61081b565b61025b6102b03660046120dd565b610836565b6102226108da565b6102026102cb3660046120dd565b61097d565b61025b6102de366004612178565b6109e8565b61025b7f000000000000000000000000000000000000000000000000000000000000000081565b610222610a82565b610255610320366004612112565b610a91565b610255610333366004612112565b610b7f565b610255610346366004612193565b610c62565b6102556103593660046121fe565b610c71565b61022261036c3660046120dd565b610cff565b610222610d66565b7f0000000000000000000000000000000000000000000000000000000000000000610202565b7f0000000000000000000000000000000000000000000000000000000000000000610202565b7f000000000000000000000000000000000000000000000000000000000000000061025b565b6101c66103f93660046122f8565b6001600160a01b03918216600090815260056020908152604080832093909416825291909152205460ff1690565b6102027f000000000000000000000000000000000000000000000000000000000000000081565b60007f01ffc9a7000000000000000000000000000000000000000000000000000000007f74259ebf000000000000000000000000000000000000000000000000000000007fffffffff0000000000000000000000000000000000000000000000000000000084168214806104e657507fffffffff00000000000000000000000000000000000000000000000000000000848116908216145b806104f557506104f5846111bd565b949350505050565b60606000805461050c9061232b565b80601f01602080910402602001604051908101604052809291908181526020018280546105389061232b565b80156105855780601f1061055a57610100808354040283529160200191610585565b820191906000526020600020905b81548152906001019060200180831161056857829003601f168201915b5050505050905090565b600061059a82611213565b506000908152600460205260409020546001600160a01b031690565b60006105c18261097d565b9050806001600160a01b0316836001600160a01b03160361064f5760405162461bcd60e51b815260206004820152602160248201527f4552433732313a20617070726f76616c20746f2063757272656e74206f776e6560448201527f720000000000000000000000000000000000000000000000000000000000000060648201526084015b60405180910390fd5b336001600160a01b038216148061066b575061066b81336103f9565b6106dd5760405162461bcd60e51b815260206004820152603d60248201527f4552433732313a20617070726f76652063616c6c6572206973206e6f7420746f60448201527f6b656e206f776e6572206f7220617070726f76656420666f7220616c6c0000006064820152608401610646565b6106e7838361127a565b505050565b6106f63382611300565b6107685760405162461bcd60e51b815260206004820152602d60248201527f4552433732313a2063616c6c6572206973206e6f7420746f6b656e206f776e6560448201527f72206f7220617070726f766564000000000000000000000000000000000000006064820152608401610646565b6106e783838361137e565b600061077e836109e8565b82106107f25760405162461bcd60e51b815260206004820152602b60248201527f455243373231456e756d657261626c653a206f776e657220696e646578206f7560448201527f74206f6620626f756e64730000000000000000000000000000000000000000006064820152608401610646565b506001600160a01b03919091166000908152600660209081526040808320938352929052205490565b6106e783838360405180602001604052806000815250610c71565b600061084160085490565b82106108b55760405162461bcd60e51b815260206004820152602c60248201527f455243373231456e756d657261626c653a20676c6f62616c20696e646578206f60448201527f7574206f6620626f756e647300000000000000000000000000000000000000006064820152608401610646565b600882815481106108c8576108c861237e565b90600052602060002001549050919050565b60606109057f000000000000000000000000000000000000000000000000000000000000000061101d565b61092e7f000000000000000000000000000000000000000000000000000000000000000061101d565b6109577f000000000000000000000000000000000000000000000000000000000000000061101d565b604051602001610969939291906123ad565b604051602081830303815290604052905090565b6000818152600260205260408120546001600160a01b0316806109e25760405162461bcd60e51b815260206004820152601860248201527f4552433732313a20696e76616c696420746f6b656e20494400000000000000006044820152606401610646565b92915050565b60006001600160a01b038216610a665760405162461bcd60e51b815260206004820152602960248201527f4552433732313a2061646472657373207a65726f206973206e6f74206120766160448201527f6c6964206f776e657200000000000000000000000000000000000000000000006064820152608401610646565b506001600160a01b031660009081526003602052604090205490565b60606001805461050c9061232b565b336001600160a01b037f00000000000000000000000000000000000000000000000000000000000000001614610b2f5760405162461bcd60e51b815260206004820152603760248201527f4b726f6d614d696e7461626c654552433732313a206f6e6c792062726964676560448201527f2063616e2063616c6c20746869732066756e6374696f6e0000000000000000006064820152608401610646565b610b38816115ea565b816001600160a01b03167fcc16f5dbb4873280815c1ee09dbd06736cffcc184412cf7a71a0fdb75d397ca582604051610b7391815260200190565b60405180910390a25050565b336001600160a01b037f00000000000000000000000000000000000000000000000000000000000000001614610c1d5760405162461bcd60e51b815260206004820152603760248201527f4b726f6d614d696e7461626c654552433732313a206f6e6c792062726964676560448201527f2063616e2063616c6c20746869732066756e6374696f6e0000000000000000006064820152608401610646565b610c2782826116c3565b816001600160a01b03167f0f6798a560793a54c3bcfe86a93cde1e73087d944c0ea20544137d412139688582604051610b7391815260200190565b610c6d3383836116dd565b5050565b610c7b3383611300565b610ced5760405162461bcd60e51b815260206004820152602d60248201527f4552433732313a2063616c6c6572206973206e6f7420746f6b656e206f776e6560448201527f72206f7220617070726f766564000000000000000000000000000000000000006064820152608401610646565b610cf9848484846117c9565b50505050565b6060610d0a82611213565b6000610d14611852565b90506000815111610d345760405180602001604052806000815250610d5f565b80610d3e8461101d565b604051602001610d4f929190612423565b6040516020818303038152906040525b9392505050565b600a8054610d739061232b565b80601f0160208091040260200160405190810160405280929190818152602001828054610d9f9061232b565b8015610dec5780601f10610dc157610100808354040283529160200191610dec565b820191906000526020600020905b815481529060010190602001808311610dcf57829003601f168201915b505050505081565b60606000610e03836002612481565b610e0e9060026124be565b67ffffffffffffffff811115610e2657610e266121cf565b6040519080825280601f01601f191660200182016040528015610e50576020820181803683370190505b5090507f300000000000000000000000000000000000000000000000000000000000000081600081518110610e8757610e8761237e565b60200101907effffffffffffffffffffffffffffffffffffffffffffffffffffffffffffff1916908160001a9053507f780000000000000000000000000000000000000000000000000000000000000081600181518110610eea57610eea61237e565b60200101907effffffffffffffffffffffffffffffffffffffffffffffffffffffffffffff1916908160001a9053506000610f26846002612481565b610f319060016124be565b90505b6001811115610fce577f303132333435363738396162636465660000000000000000000000000000000085600f1660108110610f7257610f7261237e565b1a60f81b828281518110610f8857610f8861237e565b60200101907effffffffffffffffffffffffffffffffffffffffffffffffffffffffffffff1916908160001a90535060049490941c93610fc7816124d6565b9050610f34565b508315610d5f5760405162461bcd60e51b815260206004820181905260248201527f537472696e67733a20686578206c656e67746820696e73756666696369656e746044820152606401610646565b6060600061102a836110db565b600101905060008167ffffffffffffffff81111561104a5761104a6121cf565b6040519080825280601f01601f191660200182016040528015611074576020820181803683370190505b5090508181016020015b7fffffffffffffffffffffffffffffffffffffffffffffffffffffffffffffffff017f3031323334353637383961626364656600000000000000000000000000000000600a86061a8153600a850494508461107e57509392505050565b6000807a184f03e93ff9f4daa797ed6e38ed64bf6a1f0100000000000000008310611124577a184f03e93ff9f4daa797ed6e38ed64bf6a1f010000000000000000830492506040015b6d04ee2d6d415b85acef81000000008310611150576d04ee2d6d415b85acef8100000000830492506020015b662386f26fc10000831061116e57662386f26fc10000830492506010015b6305f5e1008310611186576305f5e100830492506008015b612710831061119a57612710830492506004015b606483106111ac576064830492506002015b600a83106109e25760010192915050565b60007fffffffff0000000000000000000000000000000000000000000000000000000082167f780e9d630000000000000000000000000000000000000000000000000000000014806109e257506109e282611861565b6000818152600260205260409020546001600160a01b03166112775760405162461bcd60e51b815260206004820152601860248201527f4552433732313a20696e76616c696420746f6b656e20494400000000000000006044820152606401610646565b50565b600081815260046020526040902080547fffffffffffffffffffffffff0000000000000000000000000000000000000000166001600160a01b03841690811790915581906112c78261097d565b6001600160a01b03167f8c5be1e5ebec7d5bd14f71427d1e84f3dd0314c0f7b2291e5b200ac8c7c3b92560405160405180910390a45050565b60008061130c8361097d565b9050806001600160a01b0316846001600160a01b0316148061135357506001600160a01b0380821660009081526005602090815260408083209388168352929052205460ff165b806104f55750836001600160a01b031661136c8461058f565b6001600160a01b031614949350505050565b826001600160a01b03166113918261097d565b6001600160a01b03161461140d5760405162461bcd60e51b815260206004820152602560248201527f4552433732313a207472616e736665722066726f6d20696e636f72726563742060448201527f6f776e65720000000000000000000000000000000000000000000000000000006064820152608401610646565b6001600160a01b0382166114885760405162461bcd60e51b8152602060048201526024808201527f4552433732313a207472616e7366657220746f20746865207a65726f2061646460448201527f72657373000000000000000000000000000000000000000000000000000000006064820152608401610646565b6114958383836001611944565b826001600160a01b03166114a88261097d565b6001600160a01b0316146115245760405162461bcd60e51b815260206004820152602560248201527f4552433732313a207472616e736665722066726f6d20696e636f72726563742060448201527f6f776e65720000000000000000000000000000000000000000000000000000006064820152608401610646565b600081815260046020908152604080832080547fffffffffffffffffffffffff00000000000000000000000000000000000000009081169091556001600160a01b038781168086526003855283862080547fffffffffffffffffffffffffffffffffffffffffffffffffffffffffffffffff01905590871680865283862080546001019055868652600290945282852080549092168417909155905184937fddf252ad1be2c89b69c2b068fc378daa952ba7f163c4a11628f55a4df523b3ef91a4505050565b60006115f58261097d565b9050611605816000846001611944565b61160e8261097d565b600083815260046020908152604080832080547fffffffffffffffffffffffff00000000000000000000000000000000000000009081169091556001600160a01b0385168085526003845282852080547fffffffffffffffffffffffffffffffffffffffffffffffffffffffffffffffff0190558785526002909352818420805490911690555192935084927fddf252ad1be2c89b69c2b068fc378daa952ba7f163c4a11628f55a4df523b3ef908390a45050565b610c6d828260405180602001604052806000815250611a80565b816001600160a01b0316836001600160a01b03160361173e5760405162461bcd60e51b815260206004820152601960248201527f4552433732313a20617070726f766520746f2063616c6c6572000000000000006044820152606401610646565b6001600160a01b0383811660008181526005602090815260408083209487168084529482529182902080547fffffffffffffffffffffffffffffffffffffffffffffffffffffffffffffff001686151590811790915591519182527f17307eab39ab6107e8899845ad3d59bd9653f200f220920489ca2b5937696c31910160405180910390a3505050565b6117d484848461137e565b6117e084848484611b09565b610cf95760405162461bcd60e51b815260206004820152603260248201527f4552433732313a207472616e7366657220746f206e6f6e20455243373231526560448201527f63656976657220696d706c656d656e74657200000000000000000000000000006064820152608401610646565b6060600a805461050c9061232b565b60007fffffffff0000000000000000000000000000000000000000000000000000000082167f80ac58cd0000000000000000000000000000000000000000000000000000000014806118f457507fffffffff0000000000000000000000000000000000000000000000000000000082167f5b5e139f00000000000000000000000000000000000000000000000000000000145b806109e257507f01ffc9a7000000000000000000000000000000000000000000000000000000007fffffffff000000000000000000000000000000000000000000000000000000008316146109e2565b60018111156119bb5760405162461bcd60e51b815260206004820152603560248201527f455243373231456e756d657261626c653a20636f6e736563757469766520747260448201527f616e7366657273206e6f7420737570706f7274656400000000000000000000006064820152608401610646565b816001600160a01b038516611a1757611a1281600880546000838152600960205260408120829055600182018355919091527ff3f7a9fe364faab93b216da50a3214154f22a0a2b415b23a84c8169e8b636ee30155565b611a3a565b836001600160a01b0316856001600160a01b031614611a3a57611a3a8582611cc8565b6001600160a01b038416611a5657611a5181611d65565b611a79565b846001600160a01b0316846001600160a01b031614611a7957611a798482611e14565b5050505050565b611a8a8383611e58565b611a976000848484611b09565b6106e75760405162461bcd60e51b815260206004820152603260248201527f4552433732313a207472616e7366657220746f206e6f6e20455243373231526560448201527f63656976657220696d706c656d656e74657200000000000000000000000000006064820152608401610646565b60006001600160a01b0384163b15611cbd576040517f150b7a020000000000000000000000000000000000000000000000000000000081526001600160a01b0385169063150b7a0290611b6690339089908890889060040161250b565b6020604051808303816000875af1925050508015611bbf575060408051601f3d9081017fffffffffffffffffffffffffffffffffffffffffffffffffffffffffffffffe0168201909252611bbc91810190612547565b60015b611c72573d808015611bed576040519150601f19603f3d011682016040523d82523d6000602084013e611bf2565b606091505b508051600003611c6a5760405162461bcd60e51b815260206004820152603260248201527f4552433732313a207472616e7366657220746f206e6f6e20455243373231526560448201527f63656976657220696d706c656d656e74657200000000000000000000000000006064820152608401610646565b805181602001fd5b7fffffffff00000000000000000000000000000000000000000000000000000000167f150b7a02000000000000000000000000000000000000000000000000000000001490506104f5565b506001949350505050565b60006001611cd5846109e8565b611cdf9190612564565b600083815260076020526040902054909150808214611d32576001600160a01b03841660009081526006602090815260408083208584528252808320548484528184208190558352600790915290208190555b5060009182526007602090815260408084208490556001600160a01b039094168352600681528383209183525290812055565b600854600090611d7790600190612564565b60008381526009602052604081205460088054939450909284908110611d9f57611d9f61237e565b906000526020600020015490508060088381548110611dc057611dc061237e565b6000918252602080832090910192909255828152600990915260408082208490558582528120556008805480611df857611df861257b565b6001900381819060005260206000200160009055905550505050565b6000611e1f836109e8565b6001600160a01b039093166000908152600660209081526040808320868452825280832085905593825260079052919091209190915550565b6001600160a01b038216611eae5760405162461bcd60e51b815260206004820181905260248201527f4552433732313a206d696e7420746f20746865207a65726f20616464726573736044820152606401610646565b6000818152600260205260409020546001600160a01b031615611f135760405162461bcd60e51b815260206004820152601c60248201527f4552433732313a20746f6b656e20616c7265616479206d696e746564000000006044820152606401610646565b611f21600083836001611944565b6000818152600260205260409020546001600160a01b031615611f865760405162461bcd60e51b815260206004820152601c60248201527f4552433732313a20746f6b656e20616c7265616479206d696e746564000000006044820152606401610646565b6001600160a01b038216600081815260036020908152604080832080546001019055848352600290915280822080547fffffffffffffffffffffffff0000000000000000000000000000000000000000168417905551839291907fddf252ad1be2c89b69c2b068fc378daa952ba7f163c4a11628f55a4df523b3ef908290a45050565b7fffffffff000000000000000000000000000000000000000000000000000000008116811461127757600080fd5b60006020828403121561204957600080fd5b8135610d5f81612009565b60005b8381101561206f578181015183820152602001612057565b83811115610cf95750506000910152565b60008151808452612098816020860160208601612054565b601f017fffffffffffffffffffffffffffffffffffffffffffffffffffffffffffffffe0169290920160200192915050565b602081526000610d5f6020830184612080565b6000602082840312156120ef57600080fd5b5035919050565b80356001600160a01b038116811461210d57600080fd5b919050565b6000806040838503121561212557600080fd5b61212e836120f6565b946020939093013593505050565b60008060006060848603121561215157600080fd5b61215a846120f6565b9250612168602085016120f6565b9150604084013590509250925092565b60006020828403121561218a57600080fd5b610d5f826120f6565b600080604083850312156121a657600080fd5b6121af836120f6565b9150602083013580151581146121c457600080fd5b809150509250929050565b7f4e487b7100000000000000000000000000000000000000000000000000000000600052604160045260246000fd5b6000806000806080858703121561221457600080fd5b61221d856120f6565b935061222b602086016120f6565b925060408501359150606085013567ffffffffffffffff8082111561224f57600080fd5b818701915087601f83011261226357600080fd5b813581811115612275576122756121cf565b604051601f82017fffffffffffffffffffffffffffffffffffffffffffffffffffffffffffffffe0908116603f011681019083821181831017156122bb576122bb6121cf565b816040528281528a60208487010111156122d457600080fd5b82602086016020830137600060208483010152809550505050505092959194509250565b6000806040838503121561230b57600080fd5b612314836120f6565b9150612322602084016120f6565b90509250929050565b600181811c9082168061233f57607f821691505b602082108103612378577f4e487b7100000000000000000000000000000000000000000000000000000000600052602260045260246000fd5b50919050565b7f4e487b7100000000000000000000000000000000000000000000000000000000600052603260045260246000fd5b600084516123bf818460208901612054565b80830190507f2e0000000000000000000000000000000000000000000000000000000000000080825285516123fb816001850160208a01612054565b60019201918201528351612416816002840160208801612054565b0160020195945050505050565b60008351612435818460208801612054565b835190830190612449818360208801612054565b01949350505050565b7f4e487b7100000000000000000000000000000000000000000000000000000000600052601160045260246000fd5b6000817fffffffffffffffffffffffffffffffffffffffffffffffffffffffffffffffff04831182151516156124b9576124b9612452565b500290565b600082198211156124d1576124d1612452565b500190565b6000816124e5576124e5612452565b507fffffffffffffffffffffffffffffffffffffffffffffffffffffffffffffffff0190565b60006001600160a01b0380871683528086166020840152508360408301526080606083015261253d6080830184612080565b9695505050505050565b60006020828403121561255957600080fd5b8151610d5f81612009565b60008282101561257657612576612452565b500390565b7f4e487b7100000000000000000000000000000000000000000000000000000000600052603160045260246000fdfea164736f6c634300080f000aa164736f6c634300080f000a",
  "deployedBytecode": "0x60806040523480156200001157600080fd5b50600436106200006f5760003560e01c8063c8ddda4c1162000056578063c8ddda4c14620000cd578063de679a4e1462000104578063ee9a31a2146200014157600080fd5b806354fd4d5014620000745780637d1d0c5b1462000096575b600080fd5b6200007e62000169565b6040516200008d919062000635565b60405180910390f35b620000be7f000000000000000000000000000000000000000000000000000000000000000181565b6040519081526020016200008d565b620000f3620000de3660046200067b565b60006020819052908152604090205460ff1681565b60405190151581526020016200008d565b6200011b620001153660046200077b565b62000214565b60405173ffffffffffffffffffffffffffffffffffffffff90911681526020016200008d565b6200011b7f000000000000000000000000420000000000000000000000000000000000000a81565b6060620001967f0000000000000000000000000000000000000000000000000000000000000001620003f9565b620001c17f0000000000000000000000000000000000000000000000000000000000000000620003f9565b620001ec7f0000000000000000000000000000000000000000000000000000000000000000620003f9565b6040516020016200020093929190620007f8565b604051602081830303815290604052905090565b600073ffffffffffffffffffffffffffffffffffffffff8416620002e4576040517f08c379a000000000000000000000000000000000000000000000000000000000815260206004820152604160248201527f4b726f6d614d696e7461626c65455243373231466163746f72793a204c31207460448201527f6f6b656e20616464726573732063616e6e6f742062652061646472657373283060648201527f2900000000000000000000000000000000000000000000000000000000000000608482015260a40160405180910390fd5b60007f000000000000000000000000420000000000000000000000000000000000000a7f00000000000000000000000000000000000000000000000000000000000000018686866040516200033990620005a8565b6200034995949392919062000874565b604051809103906000f08015801562000366573d6000803e3d6000fd5b5073ffffffffffffffffffffffffffffffffffffffff8181166000818152602081815260409182902080547fffffffffffffffffffffffffffffffffffffffffffffffffffffffffffffff0016600117905590513381529394509188169290917f0b5bde7eee01f5b9701af85ba2f7e4ddcfe77445964a66b30a8d5d8659667f9f910160405180910390a3949350505050565b606060006200040883620004be565b600101905060008167ffffffffffffffff8111156200042b576200042b62000699565b6040519080825280601f01601f19166020018201604052801562000456576020820181803683370190505b5090508181016020015b7fffffffffffffffffffffffffffffffffffffffffffffffffffffffffffffffff017f3031323334353637383961626364656600000000000000000000000000000000600a86061a8153600a85049450846200046057509392505050565b6000807a184f03e93ff9f4daa797ed6e38ed64bf6a1f010000000000000000831062000508577a184f03e93ff9f4daa797ed6e38ed64bf6a1f010000000000000000830492506040015b6d04ee2d6d415b85acef8100000000831062000535576d04ee2d6d415b85acef8100000000830492506020015b662386f26fc1000083106200055457662386f26fc10000830492506010015b6305f5e10083106200056d576305f5e100830492506008015b61271083106200058257612710830492506004015b6064831062000595576064830492506002015b600a8310620005a2576001015b92915050565b612fb780620008d683390190565b60005b83811015620005d3578181015183820152602001620005b9565b83811115620005e3576000848401525b50505050565b6000815180845262000603816020860160208601620005b6565b601f017fffffffffffffffffffffffffffffffffffffffffffffffffffffffffffffffe0169290920160200192915050565b6020815260006200064a6020830184620005e9565b9392505050565b803573ffffffffffffffffffffffffffffffffffffffff811681146200067657600080fd5b919050565b6000602082840312156200068e57600080fd5b6200064a8262000651565b7f4e487b7100000000000000000000000000000000000000000000000000000000600052604160045260246000fd5b600082601f830112620006da57600080fd5b813567ffffffffffffffff80821115620006f857620006f862000699565b604051601f83017fffffffffffffffffffffffffffffffffffffffffffffffffffffffffffffffe0908116603f0116810190828211818310171562000741576200074162000699565b816040528381528660208588010111156200075b57600080fd5b836020870160208301376000602085830101528094505050505092915050565b6000806000606084860312156200079157600080fd5b6200079c8462000651565b9250602084013567ffffffffffffffff80821115620007ba57600080fd5b620007c887838801620006c8565b93506040860135915080821115620007df57600080fd5b50620007ee86828701620006c8565b9150509250925092565b600084516200080c818460208901620005b6565b80830190507f2e0000000000000000000000000000000000000000000000000000000000000080825285516200084a816001850160208a01620005b6565b6001920191820152835162000867816002840160208801620005b6565b0160020195945050505050565b600073ffffffffffffffffffffffffffffffffffffffff808816835286602084015280861660408401525060a06060830152620008b560a0830185620005e9565b8281036080840152620008c98185620005e9565b9897505050505050505056fe6101406040523480156200001257600080fd5b5060405162002fb738038062002fb78339810160408190526200003591620006a1565b6001600080848482620000498382620007ca565b506001620000588282620007ca565b50505060809290925260a05260c0526001600160a01b038516620000dc5760405162461bcd60e51b815260206004820152603060248201527f4b726f6d614d696e7461626c654552433732313a206272696467652063616e6e60448201526f6f74206265206164647265737328302960801b60648201526084015b60405180910390fd5b83600003620001545760405162461bcd60e51b815260206004820152603360248201527f4b726f6d614d696e7461626c654552433732313a2072656d6f7465206368616960448201527f6e2069642063616e6e6f74206265207a65726f000000000000000000000000006064820152608401620000d3565b6001600160a01b038316620001d25760405162461bcd60e51b815260206004820152603660248201527f4b726f6d614d696e7461626c654552433732313a2072656d6f746520746f6b6560448201527f6e2063616e6e6f742062652061646472657373283029000000000000000000006064820152608401620000d3565b60e08490526001600160a01b0383811661010081905290861661012052620002089060146200025c602090811b62000df417901c565b6200021e856200041c60201b6200101d1760201c565b6040516020016200023192919062000896565b604051602081830303815290604052600a9081620002509190620007ca565b5050505050506200098d565b606060006200026d83600262000920565b6200027a90600262000942565b6001600160401b03811115620002945762000294620005c7565b6040519080825280601f01601f191660200182016040528015620002bf576020820181803683370190505b509050600360fc1b81600081518110620002dd57620002dd6200095d565b60200101906001600160f81b031916908160001a905350600f60fb1b816001815181106200030f576200030f6200095d565b60200101906001600160f81b031916908160001a90535060006200033584600262000920565b6200034290600162000942565b90505b6001811115620003c4576f181899199a1a9b1b9c1cb0b131b232b360811b85600f16601081106200037a576200037a6200095d565b1a60f81b8282815181106200039357620003936200095d565b60200101906001600160f81b031916908160001a90535060049490941c93620003bc8162000973565b905062000345565b508315620004155760405162461bcd60e51b815260206004820181905260248201527f537472696e67733a20686578206c656e67746820696e73756666696369656e746044820152606401620000d3565b9392505050565b606060006200043683620004c060201b620010db1760201c565b60010190506000816001600160401b03811115620004585762000458620005c7565b6040519080825280601f01601f19166020018201604052801562000483576020820181803683370190505b5090508181016020015b600019016f181899199a1a9b1b9c1cb0b131b232b360811b600a86061a8153600a85049450846200048d57509392505050565b6000807a184f03e93ff9f4daa797ed6e38ed64bf6a1f01000000000000000083106200050a577a184f03e93ff9f4daa797ed6e38ed64bf6a1f010000000000000000830492506040015b6d04ee2d6d415b85acef8100000000831062000537576d04ee2d6d415b85acef8100000000830492506020015b662386f26fc1000083106200055657662386f26fc10000830492506010015b6305f5e10083106200056f576305f5e100830492506008015b61271083106200058457612710830492506004015b6064831062000597576064830492506002015b600a8310620005a4576001015b92915050565b80516001600160a01b0381168114620005c257600080fd5b919050565b634e487b7160e01b600052604160045260246000fd5b60005b83811015620005fa578181015183820152602001620005e0565b838111156200060a576000848401525b50505050565b600082601f8301126200062257600080fd5b81516001600160401b03808211156200063f576200063f620005c7565b604051601f8301601f19908116603f011681019082821181831017156200066a576200066a620005c7565b816040528381528660208588010111156200068457600080fd5b62000697846020830160208901620005dd565b9695505050505050565b600080600080600060a08688031215620006ba57600080fd5b620006c586620005aa565b945060208601519350620006dc60408701620005aa565b60608701519093506001600160401b0380821115620006fa57600080fd5b6200070889838a0162000610565b935060808801519150808211156200071f57600080fd5b506200072e8882890162000610565b9150509295509295909350565b600181811c908216806200075057607f821691505b6020821081036200077157634e487b7160e01b600052602260045260246000fd5b50919050565b601f821115620007c557600081815260208120601f850160051c81016020861015620007a05750805b601f850160051c820191505b81811015620007c157828155600101620007ac565b5050505b505050565b81516001600160401b03811115620007e657620007e6620005c7565b620007fe81620007f784546200073b565b8462000777565b602080601f8311600181146200083657600084156200081d5750858301515b600019600386901b1c1916600185901b178555620007c1565b600085815260208120601f198616915b82811015620008675788860151825594840194600190910190840162000846565b5085821015620008865787850151600019600388901b60f8161c191681555b5050505050600190811b01905550565b6832ba3432b932bab69d60b91b815260008351620008bc816009850160208801620005dd565b600160fe1b6009918401918201528351620008df81600a840160208801620005dd565b712f746f6b656e5552493f75696e743235363d60701b600a9290910191820152601c01949350505050565b634e487b7160e01b600052601160045260246000fd5b60008160001904831182151516156200093d576200093d6200090a565b500290565b600082198211156200095857620009586200090a565b500190565b634e487b7160e01b600052603260045260246000fd5b6000816200098557620009856200090a565b506000190190565b60805160a05160c05160e05161010051610120516125b762000a00600039600081816103a10152818161042c01528181610a9c0152610b8a0152600081816101e0015261037b0152600081816102e801526103c7015260006109330152600061090a015260006108e101526125b76000f3fe608060405234801561001057600080fd5b50600436106101ae5760003560e01c80637d1d0c5b116100ee578063c87b56dd11610097578063e78cea9211610071578063e78cea921461039f578063e9518196146103c5578063e985e9c5146103eb578063ee9a31a21461042757600080fd5b8063c87b56dd1461035e578063d547cfb714610371578063d6c0b2c41461037957600080fd5b8063a1448194116100c8578063a144819414610325578063a22cb46514610338578063b88d4fde1461034b57600080fd5b80637d1d0c5b146102e357806395d89b411461030a5780639dc29fac1461031257600080fd5b806323b872dd1161015b5780634f6ccce7116101355780634f6ccce7146102a257806354fd4d50146102b55780636352211e146102bd57806370a08231146102d057600080fd5b806323b872dd146102695780632f745c591461027c57806342842e0e1461028f57600080fd5b8063081812fc1161018c578063081812fc1461022f578063095ea7b31461024257806318160ddd1461025757600080fd5b806301ffc9a7146101b3578063033964be146101db57806306fdde031461021a575b600080fd5b6101c66101c1366004612037565b61044e565b60405190151581526020015b60405180910390f35b6102027f000000000000000000000000000000000000000000000000000000000000000081565b6040516001600160a01b0390911681526020016101d2565b6102226104fd565b6040516101d291906120ca565b61020261023d3660046120dd565b61058f565b610255610250366004612112565b6105b6565b005b6008545b6040519081526020016101d2565b61025561027736600461213c565b6106ec565b61025b61028a366004612112565b610773565b61025561029d36600461213c565b61081b565b61025b6102b03660046120dd565b610836565b6102226108da565b6102026102cb3660046120dd565b61097d565b61025b6102de366004612178565b6109e8565b61025b7f000000000000000000000000000000000000000000000000000000000000000081565b610222610a82565b610255610320366004612112565b610a91565b610255610333366004612112565b610b7f565b610255610346366004612193565b610c62565b6102556103593660046121fe565b610c71565b61022261036c3660046120dd565b610cff565b610222610d66565b7f0000000000000000000000000000000000000000000000000000000000000000610202565b7f0000000000000000000000000000000000000000000000000000000000000000610202565b7f000000000000000000000000000000000000000000000000000000000000000061025b565b6101c66103f93660046122f8565b6001600160a01b03918216600090815260056020908152604080832093909416825291909152205460ff1690565b6102027f000000000000000000000000000000000000000000000000000000000000000081565b60007f01ffc9a7000000000000000000000000000000000000000000000000000000007f74259ebf000000000000000000000000000000000000000000000000000000007fffffffff0000000000000000000000000000000000000000000000000000000084168214806104e657507fffffffff00000000000000000000000000000000000000000000000000000000848116908216145b806104f557506104f5846111bd565b949350505050565b60606000805461050c9061232b565b80601f01602080910402602001604051908101604052809291908181526020018280546105389061232b565b80156105855780601f1061055a57610100808354040283529160200191610585565b820191906000526020600020905b81548152906001019060200180831161056857829003601f168201915b5050505050905090565b600061059a82611213565b506000908152600460205260409020546001600160a01b031690565b60006105c18261097d565b9050806001600160a01b0316836001600160a01b03160361064f5760405162461bcd60e51b815260206004820152602160248201527f4552433732313a20617070726f76616c20746f2063757272656e74206f776e6560448201527f720000000000000000000000000000000000000000000000000000000000000060648201526084015b60405180910390fd5b336001600160a01b038216148061066b575061066b81336103f9565b6106dd5760405162461bcd60e51b815260206004820152603d60248201527f4552433732313a20617070726f76652063616c6c6572206973206e6f7420746f60448201527f6b656e206f776e6572206f7220617070726f76656420666f7220616c6c0000006064820152608401610646565b6106e7838361127a565b505050565b6106f63382611300565b6107685760405162461bcd60e51b815260206004820152602d60248201527f4552433732313a2063616c6c6572206973206e6f7420746f6b656e206f776e6560448201527f72206f7220617070726f766564000000000000000000000000000000000000006064820152608401610646565b6106e783838361137e565b600061077e836109e8565b82106107f25760405162461bcd60e51b815260206004820152602b60248201527f455243373231456e756d657261626c653a206f776e657220696e646578206f7560448201527f74206f6620626f756e64730000000000000000000000000000000000000000006064820152608401610646565b506001600160a01b03919091166000908152600660209081526040808320938352929052205490565b6106e783838360405180602001604052806000815250610c71565b600061084160085490565b82106108b55760405162461bcd60e51b815260206004820152602c60248201527f455243373231456e756d657261626c653a20676c6f62616c20696e646578206f60448201527f7574206f6620626f756e647300000000000000000000000000000000000000006064820152608401610646565b600882815481106108c8576108c861237e565b90600052602060002001549050919050565b60606109057f000000000000000000000000000000000000000000000000000000000000000061101d565b61092e7f000000000000000000000000000000000000000000000000000000000000000061101d565b6109577f000000000000000000000000000000000000000000000000000000000000000061101d565b604051602001610969939291906123ad565b604051602081830303815290604052905090565b6000818152600260205260408120546001600160a01b0316806109e25760405162461bcd60e51b815260206004820152601860248201527f4552433732313a20696e76616c696420746f6b656e20494400000000000000006044820152606401610646565b92915050565b60006001600160a01b038216610a665760405162461bcd60e51b815260206004820152602960248201527f4552433732313a2061646472657373207a65726f206973206e6f74206120766160448201527f6c6964206f776e657200000000000000000000000000000000000000000000006064820152608401610646565b506001600160a01b031660009081526003602052604090205490565b60606001805461050c9061232b565b336001600160a01b037f00000000000000000000000000000000000000000000000000000000000000001614610b2f5760405162461bcd60e51b815260206004820152603760248201527f4b726f6d614d696e7461626c654552433732313a206f6e6c792062726964676560448201527f2063616e2063616c6c20746869732066756e6374696f6e0000000000000000006064820152608401610646565b610b38816115ea565b816001600160a01b03167fcc16f5dbb4873280815c1ee09dbd06736cffcc184412cf7a71a0fdb75d397ca582604051610b7391815260200190565b60405180910390a25050565b336001600160a01b037f00000000000000000000000000000000000000000000000000000000000000001614610c1d5760405162461bcd60e51b815260206004820152603760248201527f4b726f6d614d696e7461626c654552433732313a206f6e6c792062726964676560448201527f2063616e2063616c6c20746869732066756e6374696f6e0000000000000000006064820152608401610646565b610c2782826116c3565b816001600160a01b03167f0f6798a560793a54c3bcfe86a93cde1e73087d944c0ea20544137d412139688582604051610b7391815260200190565b610c6d3383836116dd565b5050565b610c7b3383611300565b610ced5760405162461bcd60e51b815260206004820152602d60248201527f4552433732313a2063616c6c6572206973206e6f7420746f6b656e206f776e6560448201527f72206f7220617070726f766564000000000000000000000000000000000000006064820152608401610646565b610cf9848484846117c9565b50505050565b6060610d0a82611213565b6000610d14611852565b90506000815111610d345760405180602001604052806000815250610d5f565b80610d3e8461101d565b604051602001610d4f929190612423565b6040516020818303038152906040525b9392505050565b600a8054610d739061232b565b80601f0160208091040260200160405190810160405280929190818152602001828054610d9f9061232b565b8015610dec5780601f10610dc157610100808354040283529160200191610dec565b820191906000526020600020905b815481529060010190602001808311610dcf57829003601f168201915b505050505081565b60606000610e03836002612481565b610e0e9060026124be565b67ffffffffffffffff811115610e2657610e266121cf565b6040519080825280601f01601f191660200182016040528015610e50576020820181803683370190505b5090507f300000000000000000000000000000000000000000000000000000000000000081600081518110610e8757610e8761237e565b60200101907effffffffffffffffffffffffffffffffffffffffffffffffffffffffffffff1916908160001a9053507f780000000000000000000000000000000000000000000000000000000000000081600181518110610eea57610eea61237e565b60200101907effffffffffffffffffffffffffffffffffffffffffffffffffffffffffffff1916908160001a9053506000610f26846002612481565b610f319060016124be565b90505b6001811115610fce577f303132333435363738396162636465660000000000000000000000000000000085600f1660108110610f7257610f7261237e565b1a60f81b828281518110610f8857610f8861237e565b60200101907effffffffffffffffffffffffffffffffffffffffffffffffffffffffffffff1916908160001a90535060049490941c93610fc7816124d6565b9050610f34565b508315610d5f5760405162461bcd60e51b815260206004820181905260248201527f537472696e67733a20686578206c656e67746820696e73756666696369656e746044820152606401610646565b6060600061102a836110db565b600101905060008167ffffffffffffffff81111561104a5761104a6121cf565b6040519080825280601f01601f191660200182016040528015611074576020820181803683370190505b5090508181016020015b7fffffffffffffffffffffffffffffffffffffffffffffffffffffffffffffffff017f3031323334353637383961626364656600000000000000000000000000000000600a86061a8153600a850494508461107e57509392505050565b6000807a184f03e93ff9f4daa797ed6e38ed64bf6a1f0100000000000000008310611124577a184f03e93ff9f4daa797ed6e38ed64bf6a1f010000000000000000830492506040015b6d04ee2d6d415b85acef81000000008310611150576d04ee2d6d415b85acef8100000000830492506020015b662386f26fc10000831061116e57662386f26fc10000830492506010015b6305f5e1008310611186576305f5e100830492506008015b612710831061119a57612710830492506004015b606483106111ac576064830492506002015b600a83106109e25760010192915050565b60007fffffffff0000000000000000000000000000000000000000000000000000000082167f780e9d630000000000000000000000000000000000000000000000000000000014806109e257506109e282611861565b6000818152600260205260409020546001600160a01b03166112775760405162461bcd60e51b815260206004820152601860248201527f4552433732313a20696e76616c696420746f6b656e20494400000000000000006044820152606401610646565b50565b600081815260046020526040902080547fffffffffffffffffffffffff0000000000000000000000000000000000000000166001600160a01b03841690811790915581906112c78261097d565b6001600160a01b03167f8c5be1e5ebec7d5bd14f71427d1e84f3dd0314c0f7b2291e5b200ac8c7c3b92560405160405180910390a45050565b60008061130c8361097d565b9050806001600160a01b0316846001600160a01b0316148061135357506001600160a01b0380821660009081526005602090815260408083209388168352929052205460ff165b806104f55750836001600160a01b031661136c8461058f565b6001600160a01b031614949350505050565b826001600160a01b03166113918261097d565b6001600160a01b03161461140d5760405162461bcd60e51b815260206004820152602560248201527f4552433732313a207472616e736665722066726f6d20696e636f72726563742060448201527f6f776e65720000000000000000000000000000000000000000000000000000006064820152608401610646565b6001600160a01b0382166114885760405162461bcd60e51b8152602060048201526024808201527f4552433732313a207472616e7366657220746f20746865207a65726f2061646460448201527f72657373000000000000000000000000000000000000000000000000000000006064820152608401610646565b6114958383836001611944565b826001600160a01b03166114a88261097d565b6001600160a01b0316146115245760405162461bcd60e51b815260206004820152602560248201527f4552433732313a207472616e736665722066726f6d20696e636f72726563742060448201527f6f776e65720000000000000000000000000000000000000000000000000000006064820152608401610646565b600081815260046020908152604080832080547fffffffffffffffffffffffff00000000000000000000000000000000000000009081169091556001600160a01b038781168086526003855283862080547fffffffffffffffffffffffffffffffffffffffffffffffffffffffffffffffff01905590871680865283862080546001019055868652600290945282852080549092168417909155905184937fddf252ad1be2c89b69c2b068fc378daa952ba7f163c4a11628f55a4df523b3ef91a4505050565b60006115f58261097d565b9050611605816000846001611944565b61160e8261097d565b600083815260046020908152604080832080547fffffffffffffffffffffffff00000000000000000000000000000000000000009081169091556001600160a01b0385168085526003845282852080547fffffffffffffffffffffffffffffffffffffffffffffffffffffffffffffffff0190558785526002909352818420805490911690555192935084927fddf252ad1be2c89b69c2b068fc378daa952ba7f163c4a11628f55a4df523b3ef908390a45050565b610c6d828260405180602001604052806000815250611a80565b816001600160a01b0316836001600160a01b03160361173e5760405162461bcd60e51b815260206004820152601960248201527f4552433732313a20617070726f766520746f2063616c6c6572000000000000006044820152606401610646565b6001600160a01b0383811660008181526005602090815260408083209487168084529482529182902080547fffffffffffffffffffffffffffffffffffffffffffffffffffffffffffffff001686151590811790915591519182527f17307eab39ab6107e8899845ad3d59bd9653f200f220920489ca2b5937696c31910160405180910390a3505050565b6117d484848461137e565b6117e084848484611b09565b610cf95760405162461bcd60e51b815260206004820152603260248201527f4552433732313a207472616e7366657220746f206e6f6e20455243373231526560448201527f63656976657220696d706c656d656e74657200000000000000000000000000006064820152608401610646565b6060600a805461050c9061232b565b60007fffffffff0000000000000000000000000000000000000000000000000000000082167f80ac58cd0000000000000000000000000000000000000000000000000000000014806118f457507fffffffff0000000000000000000000000000000000000000000000000000000082167f5b5e139f00000000000000000000000000000000000000000000000000000000145b806109e257507f01ffc9a7000000000000000000000000000000000000000000000000000000007fffffffff000000000000000000000000000000000000000000000000000000008316146109e2565b60018111156119bb5760405162461bcd60e51b815260206004820152603560248201527f455243373231456e756d657261626c653a20636f6e736563757469766520747260448201527f616e7366657273206e6f7420737570706f7274656400000000000000000000006064820152608401610646565b816001600160a01b038516611a1757611a1281600880546000838152600960205260408120829055600182018355919091527ff3f7a9fe364faab93b216da50a3214154f22a0a2b415b23a84c8169e8b636ee30155565b611a3a565b836001600160a01b0316856001600160a01b031614611a3a57611a3a8582611cc8565b6001600160a01b038416611a5657611a5181611d65565b611a79565b846001600160a01b0316846001600160a01b031614611a7957611a798482611e14565b5050505050565b611a8a8383611e58565b611a976000848484611b09565b6106e75760405162461bcd60e51b815260206004820152603260248201527f4552433732313a207472616e7366657220746f206e6f6e20455243373231526560448201527f63656976657220696d706c656d656e74657200000000000000000000000000006064820152608401610646565b60006001600160a01b0384163b15611cbd576040517f150b7a020000000000000000000000000000000000000000000000000000000081526001600160a01b0385169063150b7a0290611b6690339089908890889060040161250b565b6020604051808303816000875af1925050508015611bbf575060408051601f3d9081017fffffffffffffffffffffffffffffffffffffffffffffffffffffffffffffffe0168201909252611bbc91810190612547565b60015b611c72573d808015611bed576040519150601f19603f3d011682016040523d82523d6000602084013e611bf2565b606091505b508051600003611c6a5760405162461bcd60e51b815260206004820152603260248201527f4552433732313a207472616e7366657220746f206e6f6e20455243373231526560448201527f63656976657220696d706c656d656e74657200000000000000000000000000006064820152608401610646565b805181602001fd5b7fffffffff00000000000000000000000000000000000000000000000000000000167f150b7a02000000000000000000000000000000000000000000000000000000001490506104f5565b506001949350505050565b60006001611cd5846109e8565b611cdf9190612564565b600083815260076020526040902054909150808214611d32576001600160a01b03841660009081526006602090815260408083208584528252808320548484528184208190558352600790915290208190555b5060009182526007602090815260408084208490556001600160a01b039094168352600681528383209183525290812055565b600854600090611d7790600190612564565b60008381526009602052604081205460088054939450909284908110611d9f57611d9f61237e565b906000526020600020015490508060088381548110611dc057611dc061237e565b6000918252602080832090910192909255828152600990915260408082208490558582528120556008805480611df857611df861257b565b6001900381819060005260206000200160009055905550505050565b6000611e1f836109e8565b6001600160a01b039093166000908152600660209081526040808320868452825280832085905593825260079052919091209190915550565b6001600160a01b038216611eae5760405162461bcd60e51b815260206004820181905260248201527f4552433732313a206d696e7420746f20746865207a65726f20616464726573736044820152606401610646565b6000818152600260205260409020546001600160a01b031615611f135760405162461bcd60e51b815260206004820152601c60248201527f4552433732313a20746f6b656e20616c7265616479206d696e746564000000006044820152606401610646565b611f21600083836001611944565b6000818152600260205260409020546001600160a01b031615611f865760405162461bcd60e51b815260206004820152601c60248201527f4552433732313a20746f6b656e20616c7265616479206d696e746564000000006044820152606401610646565b6001600160a01b038216600081815260036020908152604080832080546001019055848352600290915280822080547fffffffffffffffffffffffff0000000000000000000000000000000000000000168417905551839291907fddf252ad1be2c89b69c2b068fc378daa952ba7f163c4a11628f55a4df523b3ef908290a45050565b7fffffffff000000000000000000000000000000000000000000000000000000008116811461127757600080fd5b60006020828403121561204957600080fd5b8135610d5f81612009565b60005b8381101561206f578181015183820152602001612057565b83811115610cf95750506000910152565b60008151808452612098816020860160208601612054565b601f017fffffffffffffffffffffffffffffffffffffffffffffffffffffffffffffffe0169290920160200192915050565b602081526000610d5f6020830184612080565b6000602082840312156120ef57600080fd5b5035919050565b80356001600160a01b038116811461210d57600080fd5b919050565b6000806040838503121561212557600080fd5b61212e836120f6565b946020939093013593505050565b60008060006060848603121561215157600080fd5b61215a846120f6565b9250612168602085016120f6565b9150604084013590509250925092565b60006020828403121561218a57600080fd5b610d5f826120f6565b600080604083850312156121a657600080fd5b6121af836120f6565b9150602083013580151581146121c457600080fd5b809150509250929050565b7f4e487b7100000000000000000000000000000000000000000000000000000000600052604160045260246000fd5b6000806000806080858703121561221457600080fd5b61221d856120f6565b935061222b602086016120f6565b925060408501359150606085013567ffffffffffffffff8082111561224f57600080fd5b818701915087601f83011261226357600080fd5b813581811115612275576122756121cf565b604051601f82017fffffffffffffffffffffffffffffffffffffffffffffffffffffffffffffffe0908116603f011681019083821181831017156122bb576122bb6121cf565b816040528281528a60208487010111156122d457600080fd5b82602086016020830137600060208483010152809550505050505092959194509250565b6000806040838503121561230b57600080fd5b612314836120f6565b9150612322602084016120f6565b90509250929050565b600181811c9082168061233f57607f821691505b602082108103612378577f4e487b7100000000000000000000000000000000000000000000000000000000600052602260045260246000fd5b50919050565b7f4e487b7100000000000000000000000000000000000000000000000000000000600052603260045260246000fd5b600084516123bf818460208901612054565b80830190507f2e0000000000000000000000000000000000000000000000000000000000000080825285516123fb816001850160208a01612054565b60019201918201528351612416816002840160208801612054565b0160020195945050505050565b60008351612435818460208801612054565b835190830190612449818360208801612054565b01949350505050565b7f4e487b7100000000000000000000000000000000000000000000000000000000600052601160045260246000fd5b6000817fffffffffffffffffffffffffffffffffffffffffffffffffffffffffffffffff04831182151516156124b9576124b9612452565b500290565b600082198211156124d1576124d1612452565b500190565b6000816124e5576124e5612452565b507fffffffffffffffffffffffffffffffffffffffffffffffffffffffffffffffff0190565b60006001600160a01b0380871683528086166020840152508360408301526080606083015261253d6080830184612080565b9695505050505050565b60006020828403121561255957600080fd5b8151610d5f81612009565b60008282101561257657612576612452565b500390565b7f4e487b7100000000000000000000000000000000000000000000000000000000600052603160045260246000fdfea164736f6c634300080f000aa164736f6c634300080f000a"
}