{
  "address": "0xc0D3c0D3C0d3c0D3c0d3c0D3C0d3C0D3c0d3000B",
  "abi": [
    {
      "type": "constructor",
      "payable": false,
      "inputs": [
        {
          "type": "address",
          "name": "_bridge"
        }
      ]
    },
    {
      "type": "event",
      "anonymous": false,
      "name": "KromaMintableERC20Created",
      "inputs": [
        {
          "type": "address",
          "name": "localToken",
          "indexed": true
        },
        {
          "type": "address",
          "name": "remoteToken",
          "indexed": true
        },
        {
          "type": "address",
          "name": "deployer",
          "indexed": false
        }
      ]
    },
    {
      "type": "function",
      "name": "BRIDGE",
      "constant": true,
      "stateMutability": "view",
      "payable": false,
      "inputs": [],
      "outputs": [
        {
          "type": "address"
        }
      ]
    },
    {
      "type": "function",
      "name": "createKromaMintableERC20",
      "constant": false,
      "payable": false,
      "inputs": [
        {
          "type": "address",
          "name": "_remoteToken"
        },
        {
          "type": "string",
          "name": "_name"
        },
        {
          "type": "string",
          "name": "_symbol"
        }
      ],
      "outputs": [
        {
          "type": "address"
        }
      ]
    },
    {
      "type": "function",
      "name": "version",
      "constant": true,
      "stateMutability": "view",
      "payable": false,
      "inputs": [],
      "outputs": [
        {
          "type": "string"
        }
      ]
    }
  ],
  "numDeployments": 1,
  "bytecode": "0x61010060405234801561001157600080fd5b50604051611f83380380611f8383398101604081905261003091610050565b6001608052600060a081905260c0526001600160a01b031660e052610080565b60006020828403121561006257600080fd5b81516001600160a01b038116811461007957600080fd5b9392505050565b60805160a05160c05160e051611ec46100bf6000396000818160ab015261017b01526000610291015260006102660152600061023b0152611ec46000f3fe60806040523480156200001157600080fd5b5060043610620000465760003560e01c80635269aa1b146200004b57806354fd4d50146200008c578063ee9a31a214620000a5575b600080fd5b620000626200005c3660046200057d565b620000cd565b60405173ffffffffffffffffffffffffffffffffffffffff90911681526020015b60405180910390f35b6200009662000233565b60405162000083919062000693565b620000627f000000000000000000000000000000000000000000000000000000000000000081565b600073ffffffffffffffffffffffffffffffffffffffff841662000177576040517f08c379a000000000000000000000000000000000000000000000000000000000815260206004820152603c60248201527f4b726f6d614d696e7461626c654552433230466163746f72793a206d7573742060448201527f70726f766964652072656d6f746520746f6b656e206164647265737300000000606482015260840160405180910390fd5b60007f0000000000000000000000000000000000000000000000000000000000000000858585604051620001ab906200048d565b620001ba9493929190620006af565b604051809103906000f080158015620001d7573d6000803e3d6000fd5b5060405133815290915073ffffffffffffffffffffffffffffffffffffffff80871691908316907f16f14001f89df9d8ecc68e7cbb61373ece9025038b9df30bea3635fc0e4701a99060200160405180910390a3949350505050565b6060620002607f0000000000000000000000000000000000000000000000000000000000000000620002de565b6200028b7f0000000000000000000000000000000000000000000000000000000000000000620002de565b620002b67f0000000000000000000000000000000000000000000000000000000000000000620002de565b604051602001620002ca9392919062000709565b604051602081830303815290604052905090565b60606000620002ed83620003a3565b600101905060008167ffffffffffffffff8111156200031057620003106200049b565b6040519080825280601f01601f1916602001820160405280156200033b576020820181803683370190505b5090508181016020015b7fffffffffffffffffffffffffffffffffffffffffffffffffffffffffffffffff017f3031323334353637383961626364656600000000000000000000000000000000600a86061a8153600a85049450846200034557509392505050565b6000807a184f03e93ff9f4daa797ed6e38ed64bf6a1f0100000000000000008310620003ed577a184f03e93ff9f4daa797ed6e38ed64bf6a1f010000000000000000830492506040015b6d04ee2d6d415b85acef810000000083106200041a576d04ee2d6d415b85acef8100000000830492506020015b662386f26fc1000083106200043957662386f26fc10000830492506010015b6305f5e100831062000452576305f5e100830492506008015b61271083106200046757612710830492506004015b606483106200047a576064830492506002015b600a831062000487576001015b92915050565b611732806200078683390190565b7f4e487b7100000000000000000000000000000000000000000000000000000000600052604160045260246000fd5b600082601f830112620004dc57600080fd5b813567ffffffffffffffff80821115620004fa57620004fa6200049b565b604051601f83017fffffffffffffffffffffffffffffffffffffffffffffffffffffffffffffffe0908116603f011681019082821181831017156200054357620005436200049b565b816040528381528660208588010111156200055d57600080fd5b836020870160208301376000602085830101528094505050505092915050565b6000806000606084860312156200059357600080fd5b833573ffffffffffffffffffffffffffffffffffffffff81168114620005b857600080fd5b9250602084013567ffffffffffffffff80821115620005d657600080fd5b620005e487838801620004ca565b93506040860135915080821115620005fb57600080fd5b506200060a86828701620004ca565b9150509250925092565b60005b838110156200063157818101518382015260200162000617565b8381111562000641576000848401525b50505050565b600081518084526200066181602086016020860162000614565b601f017fffffffffffffffffffffffffffffffffffffffffffffffffffffffffffffffe0169290920160200192915050565b602081526000620006a8602083018462000647565b9392505050565b600073ffffffffffffffffffffffffffffffffffffffff808716835280861660208401525060806040830152620006ea608083018562000647565b8281036060840152620006fe818562000647565b979650505050505050565b600084516200071d81846020890162000614565b80830190507f2e0000000000000000000000000000000000000000000000000000000000000080825285516200075b816001850160208a0162000614565b600192019182015283516200077881600284016020880162000614565b016002019594505050505056fe6101206040523480156200001257600080fd5b50604051620017323803806200173283398101604081905262000035916200016d565b6001600080848460036200004a83826200028c565b5060046200005982826200028c565b50505060809290925260a05260c05250506001600160a01b0390811660e052166101005262000358565b80516001600160a01b03811681146200009b57600080fd5b919050565b634e487b7160e01b600052604160045260246000fd5b600082601f830112620000c857600080fd5b81516001600160401b0380821115620000e557620000e5620000a0565b604051601f8301601f19908116603f01168101908282118183101715620001105762000110620000a0565b816040528381526020925086838588010111156200012d57600080fd5b600091505b8382101562000151578582018301518183018401529082019062000132565b83821115620001635760008385830101525b9695505050505050565b600080600080608085870312156200018457600080fd5b6200018f8562000083565b93506200019f6020860162000083565b60408601519093506001600160401b0380821115620001bd57600080fd5b620001cb88838901620000b6565b93506060870151915080821115620001e257600080fd5b50620001f187828801620000b6565b91505092959194509250565b600181811c908216806200021257607f821691505b6020821081036200023357634e487b7160e01b600052602260045260246000fd5b50919050565b601f8211156200028757600081815260208120601f850160051c81016020861015620002625750805b601f850160051c820191505b8181101562000283578281556001016200026e565b5050505b505050565b81516001600160401b03811115620002a857620002a8620000a0565b620002c081620002b98454620001fd565b8462000239565b602080601f831160018114620002f85760008415620002df5750858301515b600019600386901b1c1916600185901b17855562000283565b600085815260208120601f198616915b82811015620003295788860151825594840194600190910190840162000308565b5085821015620003485787850151600019600388901b60f8161c191681555b5050505050600190811b01905550565b60805160a05160c05160e05161010051611387620003ab600039600081816102e2015281816104d601526106960152600061014d01526000610625015260006105fc015260006105d301526113876000f3fe608060405234801561001057600080fd5b506004361061011b5760003560e01c806340c10f19116100b25780639dc29fac11610081578063a9059cbb11610066578063a9059cbb14610284578063dd62ed3e14610297578063ee9a31a2146102dd57600080fd5b80639dc29fac1461025e578063a457c2d71461027157600080fd5b806340c10f191461020357806354fd4d501461021857806370a082311461022057806395d89b411461025657600080fd5b806318160ddd116100ee57806318160ddd146101bc57806323b872dd146101ce578063313ce567146101e157806339509351146101f057600080fd5b806301ffc9a714610120578063033964be1461014857806306fdde0314610194578063095ea7b3146101a9575b600080fd5b61013361012e3660046110a0565b610304565b60405190151581526020015b60405180910390f35b61016f7f000000000000000000000000000000000000000000000000000000000000000081565b60405173ffffffffffffffffffffffffffffffffffffffff909116815260200161013f565b61019c6103a4565b60405161013f9190611115565b6101336101b736600461118f565b610436565b6002545b60405190815260200161013f565b6101336101dc3660046111b9565b61044e565b6040516012815260200161013f565b6101336101fe36600461118f565b610472565b61021661021136600461118f565b6104be565b005b61019c6105cc565b6101c061022e3660046111f5565b73ffffffffffffffffffffffffffffffffffffffff1660009081526020819052604090205490565b61019c61066f565b61021661026c36600461118f565b61067e565b61013361027f36600461118f565b61077b565b61013361029236600461118f565b610832565b6101c06102a5366004611210565b73ffffffffffffffffffffffffffffffffffffffff918216600090815260016020908152604080832093909416825291909152205490565b61016f7f000000000000000000000000000000000000000000000000000000000000000081565b60007f01ffc9a7000000000000000000000000000000000000000000000000000000007f30a0c5a9000000000000000000000000000000000000000000000000000000007fffffffff00000000000000000000000000000000000000000000000000000000841682148061039c57507fffffffff00000000000000000000000000000000000000000000000000000000848116908216145b949350505050565b6060600380546103b390611243565b80601f01602080910402602001604051908101604052809291908181526020018280546103df90611243565b801561042c5780601f106104015761010080835404028352916020019161042c565b820191906000526020600020905b81548152906001019060200180831161040f57829003601f168201915b5050505050905090565b600033610444818585610840565b5060019392505050565b60003361045c8582856109c0565b610467858585610a7d565b506001949350505050565b33600081815260016020908152604080832073ffffffffffffffffffffffffffffffffffffffff8716845290915281205490919061044490829086906104b9908790611296565b610840565b3373ffffffffffffffffffffffffffffffffffffffff7f0000000000000000000000000000000000000000000000000000000000000000161461056e5760405162461bcd60e51b815260206004820152603160248201527f4b726f6d614d696e7461626c6545524332303a206f6e6c79206272696467652060448201527f63616e206d696e7420616e64206275726e00000000000000000000000000000060648201526084015b60405180910390fd5b6105788282610c9e565b8173ffffffffffffffffffffffffffffffffffffffff167f0f6798a560793a54c3bcfe86a93cde1e73087d944c0ea20544137d4121396885826040516105c091815260200190565b60405180910390a25050565b60606105f77f0000000000000000000000000000000000000000000000000000000000000000610d77565b6106207f0000000000000000000000000000000000000000000000000000000000000000610d77565b6106497f0000000000000000000000000000000000000000000000000000000000000000610d77565b60405160200161065b939291906112d5565b604051602081830303815290604052905090565b6060600480546103b390611243565b3373ffffffffffffffffffffffffffffffffffffffff7f000000000000000000000000000000000000000000000000000000000000000016146107295760405162461bcd60e51b815260206004820152603160248201527f4b726f6d614d696e7461626c6545524332303a206f6e6c79206272696467652060448201527f63616e206d696e7420616e64206275726e0000000000000000000000000000006064820152608401610565565b6107338282610e35565b8173ffffffffffffffffffffffffffffffffffffffff167fcc16f5dbb4873280815c1ee09dbd06736cffcc184412cf7a71a0fdb75d397ca5826040516105c091815260200190565b33600081815260016020908152604080832073ffffffffffffffffffffffffffffffffffffffff87168452909152812054909190838110156108255760405162461bcd60e51b815260206004820152602560248201527f45524332303a2064656372656173656420616c6c6f77616e63652062656c6f7760448201527f207a65726f0000000000000000000000000000000000000000000000000000006064820152608401610565565b6104678286868403610840565b600033610444818585610a7d565b73ffffffffffffffffffffffffffffffffffffffff83166108c85760405162461bcd60e51b8152602060048201526024808201527f45524332303a20617070726f76652066726f6d20746865207a65726f2061646460448201527f72657373000000000000000000000000000000000000000000000000000000006064820152608401610565565b73ffffffffffffffffffffffffffffffffffffffff82166109515760405162461bcd60e51b815260206004820152602260248201527f45524332303a20617070726f766520746f20746865207a65726f20616464726560448201527f73730000000000000000000000000000000000000000000000000000000000006064820152608401610565565b73ffffffffffffffffffffffffffffffffffffffff83811660008181526001602090815260408083209487168084529482529182902085905590518481527f8c5be1e5ebec7d5bd14f71427d1e84f3dd0314c0f7b2291e5b200ac8c7c3b92591015b60405180910390a3505050565b73ffffffffffffffffffffffffffffffffffffffff8381166000908152600160209081526040808320938616835292905220547fffffffffffffffffffffffffffffffffffffffffffffffffffffffffffffffff8114610a775781811015610a6a5760405162461bcd60e51b815260206004820152601d60248201527f45524332303a20696e73756666696369656e7420616c6c6f77616e63650000006044820152606401610565565b610a778484848403610840565b50505050565b73ffffffffffffffffffffffffffffffffffffffff8316610b065760405162461bcd60e51b815260206004820152602560248201527f45524332303a207472616e736665722066726f6d20746865207a65726f20616460448201527f64726573730000000000000000000000000000000000000000000000000000006064820152608401610565565b73ffffffffffffffffffffffffffffffffffffffff8216610b8f5760405162461bcd60e51b815260206004820152602360248201527f45524332303a207472616e7366657220746f20746865207a65726f206164647260448201527f65737300000000000000000000000000000000000000000000000000000000006064820152608401610565565b73ffffffffffffffffffffffffffffffffffffffff831660009081526020819052604090205481811015610c2b5760405162461bcd60e51b815260206004820152602660248201527f45524332303a207472616e7366657220616d6f756e742065786365656473206260448201527f616c616e636500000000000000000000000000000000000000000000000000006064820152608401610565565b73ffffffffffffffffffffffffffffffffffffffff848116600081815260208181526040808320878703905593871680835291849020805487019055925185815290927fddf252ad1be2c89b69c2b068fc378daa952ba7f163c4a11628f55a4df523b3ef910160405180910390a3610a77565b73ffffffffffffffffffffffffffffffffffffffff8216610d015760405162461bcd60e51b815260206004820152601f60248201527f45524332303a206d696e7420746f20746865207a65726f2061646472657373006044820152606401610565565b8060026000828254610d139190611296565b909155505073ffffffffffffffffffffffffffffffffffffffff8216600081815260208181526040808320805486019055518481527fddf252ad1be2c89b69c2b068fc378daa952ba7f163c4a11628f55a4df523b3ef910160405180910390a35050565b60606000610d8483610fbd565b600101905060008167ffffffffffffffff811115610da457610da461134b565b6040519080825280601f01601f191660200182016040528015610dce576020820181803683370190505b5090508181016020015b7fffffffffffffffffffffffffffffffffffffffffffffffffffffffffffffffff017f3031323334353637383961626364656600000000000000000000000000000000600a86061a8153600a8504945084610dd857509392505050565b73ffffffffffffffffffffffffffffffffffffffff8216610ebe5760405162461bcd60e51b815260206004820152602160248201527f45524332303a206275726e2066726f6d20746865207a65726f2061646472657360448201527f73000000000000000000000000000000000000000000000000000000000000006064820152608401610565565b73ffffffffffffffffffffffffffffffffffffffff821660009081526020819052604090205481811015610f5a5760405162461bcd60e51b815260206004820152602260248201527f45524332303a206275726e20616d6f756e7420657863656564732062616c616e60448201527f63650000000000000000000000000000000000000000000000000000000000006064820152608401610565565b73ffffffffffffffffffffffffffffffffffffffff83166000818152602081815260408083208686039055600280548790039055518581529192917fddf252ad1be2c89b69c2b068fc378daa952ba7f163c4a11628f55a4df523b3ef91016109b3565b6000807a184f03e93ff9f4daa797ed6e38ed64bf6a1f0100000000000000008310611006577a184f03e93ff9f4daa797ed6e38ed64bf6a1f010000000000000000830492506040015b6d04ee2d6d415b85acef81000000008310611032576d04ee2d6d415b85acef8100000000830492506020015b662386f26fc10000831061105057662386f26fc10000830492506010015b6305f5e1008310611068576305f5e100830492506008015b612710831061107c57612710830492506004015b6064831061108e576064830492506002015b600a831061109a576001015b92915050565b6000602082840312156110b257600080fd5b81357fffffffff00000000000000000000000000000000000000000000000000000000811681146110e257600080fd5b9392505050565b60005b838110156111045781810151838201526020016110ec565b83811115610a775750506000910152565b60208152600082518060208401526111348160408501602087016110e9565b601f017fffffffffffffffffffffffffffffffffffffffffffffffffffffffffffffffe0169190910160400192915050565b803573ffffffffffffffffffffffffffffffffffffffff8116811461118a57600080fd5b919050565b600080604083850312156111a257600080fd5b6111ab83611166565b946020939093013593505050565b6000806000606084860312156111ce57600080fd5b6111d784611166565b92506111e560208501611166565b9150604084013590509250925092565b60006020828403121561120757600080fd5b6110e282611166565b6000806040838503121561122357600080fd5b61122c83611166565b915061123a60208401611166565b90509250929050565b600181811c9082168061125757607f821691505b602082108103611290577f4e487b7100000000000000000000000000000000000000000000000000000000600052602260045260246000fd5b50919050565b600082198211156112d0577f4e487b7100000000000000000000000000000000000000000000000000000000600052601160045260246000fd5b500190565b600084516112e78184602089016110e9565b80830190507f2e000000000000000000000000000000000000000000000000000000000000008082528551611323816001850160208a016110e9565b6001920191820152835161133e8160028401602088016110e9565b0160020195945050505050565b7f4e487b7100000000000000000000000000000000000000000000000000000000600052604160045260246000fdfea164736f6c634300080f000aa164736f6c634300080f000a",
  "deployedBytecode": "0x60806040523480156200001157600080fd5b5060043610620000465760003560e01c80635269aa1b146200004b57806354fd4d50146200008c578063ee9a31a214620000a5575b600080fd5b620000626200005c3660046200057d565b620000cd565b60405173ffffffffffffffffffffffffffffffffffffffff90911681526020015b60405180910390f35b6200009662000233565b60405162000083919062000693565b620000627f000000000000000000000000420000000000000000000000000000000000000981565b600073ffffffffffffffffffffffffffffffffffffffff841662000177576040517f08c379a000000000000000000000000000000000000000000000000000000000815260206004820152603c60248201527f4b726f6d614d696e7461626c654552433230466163746f72793a206d7573742060448201527f70726f766964652072656d6f746520746f6b656e206164647265737300000000606482015260840160405180910390fd5b60007f0000000000000000000000004200000000000000000000000000000000000009858585604051620001ab906200048d565b620001ba9493929190620006af565b604051809103906000f080158015620001d7573d6000803e3d6000fd5b5060405133815290915073ffffffffffffffffffffffffffffffffffffffff80871691908316907f16f14001f89df9d8ecc68e7cbb61373ece9025038b9df30bea3635fc0e4701a99060200160405180910390a3949350505050565b6060620002607f0000000000000000000000000000000000000000000000000000000000000001620002de565b6200028b7f0000000000000000000000000000000000000000000000000000000000000000620002de565b620002b67f0000000000000000000000000000000000000000000000000000000000000000620002de565b604051602001620002ca9392919062000709565b604051602081830303815290604052905090565b60606000620002ed83620003a3565b600101905060008167ffffffffffffffff8111156200031057620003106200049b565b6040519080825280601f01601f1916602001820160405280156200033b576020820181803683370190505b5090508181016020015b7fffffffffffffffffffffffffffffffffffffffffffffffffffffffffffffffff017f3031323334353637383961626364656600000000000000000000000000000000600a86061a8153600a85049450846200034557509392505050565b6000807a184f03e93ff9f4daa797ed6e38ed64bf6a1f0100000000000000008310620003ed577a184f03e93ff9f4daa797ed6e38ed64bf6a1f010000000000000000830492506040015b6d04ee2d6d415b85acef810000000083106200041a576d04ee2d6d415b85acef8100000000830492506020015b662386f26fc1000083106200043957662386f26fc10000830492506010015b6305f5e100831062000452576305f5e100830492506008015b61271083106200046757612710830492506004015b606483106200047a576064830492506002015b600a831062000487576001015b92915050565b611732806200078683390190565b7f4e487b7100000000000000000000000000000000000000000000000000000000600052604160045260246000fd5b600082601f830112620004dc57600080fd5b813567ffffffffffffffff80821115620004fa57620004fa6200049b565b604051601f83017fffffffffffffffffffffffffffffffffffffffffffffffffffffffffffffffe0908116603f011681019082821181831017156200054357620005436200049b565b816040528381528660208588010111156200055d57600080fd5b836020870160208301376000602085830101528094505050505092915050565b6000806000606084860312156200059357600080fd5b833573ffffffffffffffffffffffffffffffffffffffff81168114620005b857600080fd5b9250602084013567ffffffffffffffff80821115620005d657600080fd5b620005e487838801620004ca565b93506040860135915080821115620005fb57600080fd5b506200060a86828701620004ca565b9150509250925092565b60005b838110156200063157818101518382015260200162000617565b8381111562000641576000848401525b50505050565b600081518084526200066181602086016020860162000614565b601f017fffffffffffffffffffffffffffffffffffffffffffffffffffffffffffffffe0169290920160200192915050565b602081526000620006a8602083018462000647565b9392505050565b600073ffffffffffffffffffffffffffffffffffffffff808716835280861660208401525060806040830152620006ea608083018562000647565b8281036060840152620006fe818562000647565b979650505050505050565b600084516200071d81846020890162000614565b80830190507f2e0000000000000000000000000000000000000000000000000000000000000080825285516200075b816001850160208a0162000614565b600192019182015283516200077881600284016020880162000614565b016002019594505050505056fe6101206040523480156200001257600080fd5b50604051620017323803806200173283398101604081905262000035916200016d565b6001600080848460036200004a83826200028c565b5060046200005982826200028c565b50505060809290925260a05260c05250506001600160a01b0390811660e052166101005262000358565b80516001600160a01b03811681146200009b57600080fd5b919050565b634e487b7160e01b600052604160045260246000fd5b600082601f830112620000c857600080fd5b81516001600160401b0380821115620000e557620000e5620000a0565b604051601f8301601f19908116603f01168101908282118183101715620001105762000110620000a0565b816040528381526020925086838588010111156200012d57600080fd5b600091505b8382101562000151578582018301518183018401529082019062000132565b83821115620001635760008385830101525b9695505050505050565b600080600080608085870312156200018457600080fd5b6200018f8562000083565b93506200019f6020860162000083565b60408601519093506001600160401b0380821115620001bd57600080fd5b620001cb88838901620000b6565b93506060870151915080821115620001e257600080fd5b50620001f187828801620000b6565b91505092959194509250565b600181811c908216806200021257607f821691505b6020821081036200023357634e487b7160e01b600052602260045260246000fd5b50919050565b601f8211156200028757600081815260208120601f850160051c81016020861015620002625750805b601f850160051c820191505b8181101562000283578281556001016200026e565b5050505b505050565b81516001600160401b03811115620002a857620002a8620000a0565b620002c081620002b98454620001fd565b8462000239565b602080601f831160018114620002f85760008415620002df5750858301515b600019600386901b1c1916600185901b17855562000283565b600085815260208120601f198616915b82811015620003295788860151825594840194600190910190840162000308565b5085821015620003485787850151600019600388901b60f8161c191681555b5050505050600190811b01905550565b60805160a05160c05160e05161010051611387620003ab600039600081816102e2015281816104d601526106960152600061014d01526000610625015260006105fc015260006105d301526113876000f3fe608060405234801561001057600080fd5b506004361061011b5760003560e01c806340c10f19116100b25780639dc29fac11610081578063a9059cbb11610066578063a9059cbb14610284578063dd62ed3e14610297578063ee9a31a2146102dd57600080fd5b80639dc29fac1461025e578063a457c2d71461027157600080fd5b806340c10f191461020357806354fd4d501461021857806370a082311461022057806395d89b411461025657600080fd5b806318160ddd116100ee57806318160ddd146101bc57806323b872dd146101ce578063313ce567146101e157806339509351146101f057600080fd5b806301ffc9a714610120578063033964be1461014857806306fdde0314610194578063095ea7b3146101a9575b600080fd5b61013361012e3660046110a0565b610304565b60405190151581526020015b60405180910390f35b61016f7f000000000000000000000000000000000000000000000000000000000000000081565b60405173ffffffffffffffffffffffffffffffffffffffff909116815260200161013f565b61019c6103a4565b60405161013f9190611115565b6101336101b736600461118f565b610436565b6002545b60405190815260200161013f565b6101336101dc3660046111b9565b61044e565b6040516012815260200161013f565b6101336101fe36600461118f565b610472565b61021661021136600461118f565b6104be565b005b61019c6105cc565b6101c061022e3660046111f5565b73ffffffffffffffffffffffffffffffffffffffff1660009081526020819052604090205490565b61019c61066f565b61021661026c36600461118f565b61067e565b61013361027f36600461118f565b61077b565b61013361029236600461118f565b610832565b6101c06102a5366004611210565b73ffffffffffffffffffffffffffffffffffffffff918216600090815260016020908152604080832093909416825291909152205490565b61016f7f000000000000000000000000000000000000000000000000000000000000000081565b60007f01ffc9a7000000000000000000000000000000000000000000000000000000007f30a0c5a9000000000000000000000000000000000000000000000000000000007fffffffff00000000000000000000000000000000000000000000000000000000841682148061039c57507fffffffff00000000000000000000000000000000000000000000000000000000848116908216145b949350505050565b6060600380546103b390611243565b80601f01602080910402602001604051908101604052809291908181526020018280546103df90611243565b801561042c5780601f106104015761010080835404028352916020019161042c565b820191906000526020600020905b81548152906001019060200180831161040f57829003601f168201915b5050505050905090565b600033610444818585610840565b5060019392505050565b60003361045c8582856109c0565b610467858585610a7d565b506001949350505050565b33600081815260016020908152604080832073ffffffffffffffffffffffffffffffffffffffff8716845290915281205490919061044490829086906104b9908790611296565b610840565b3373ffffffffffffffffffffffffffffffffffffffff7f0000000000000000000000000000000000000000000000000000000000000000161461056e5760405162461bcd60e51b815260206004820152603160248201527f4b726f6d614d696e7461626c6545524332303a206f6e6c79206272696467652060448201527f63616e206d696e7420616e64206275726e00000000000000000000000000000060648201526084015b60405180910390fd5b6105788282610c9e565b8173ffffffffffffffffffffffffffffffffffffffff167f0f6798a560793a54c3bcfe86a93cde1e73087d944c0ea20544137d4121396885826040516105c091815260200190565b60405180910390a25050565b60606105f77f0000000000000000000000000000000000000000000000000000000000000000610d77565b6106207f0000000000000000000000000000000000000000000000000000000000000000610d77565b6106497f0000000000000000000000000000000000000000000000000000000000000000610d77565b60405160200161065b939291906112d5565b604051602081830303815290604052905090565b6060600480546103b390611243565b3373ffffffffffffffffffffffffffffffffffffffff7f000000000000000000000000000000000000000000000000000000000000000016146107295760405162461bcd60e51b815260206004820152603160248201527f4b726f6d614d696e7461626c6545524332303a206f6e6c79206272696467652060448201527f63616e206d696e7420616e64206275726e0000000000000000000000000000006064820152608401610565565b6107338282610e35565b8173ffffffffffffffffffffffffffffffffffffffff167fcc16f5dbb4873280815c1ee09dbd06736cffcc184412cf7a71a0fdb75d397ca5826040516105c091815260200190565b33600081815260016020908152604080832073ffffffffffffffffffffffffffffffffffffffff87168452909152812054909190838110156108255760405162461bcd60e51b815260206004820152602560248201527f45524332303a2064656372656173656420616c6c6f77616e63652062656c6f7760448201527f207a65726f0000000000000000000000000000000000000000000000000000006064820152608401610565565b6104678286868403610840565b600033610444818585610a7d565b73ffffffffffffffffffffffffffffffffffffffff83166108c85760405162461bcd60e51b8152602060048201526024808201527f45524332303a20617070726f76652066726f6d20746865207a65726f2061646460448201527f72657373000000000000000000000000000000000000000000000000000000006064820152608401610565565b73ffffffffffffffffffffffffffffffffffffffff82166109515760405162461bcd60e51b815260206004820152602260248201527f45524332303a20617070726f766520746f20746865207a65726f20616464726560448201527f73730000000000000000000000000000000000000000000000000000000000006064820152608401610565565b73ffffffffffffffffffffffffffffffffffffffff83811660008181526001602090815260408083209487168084529482529182902085905590518481527f8c5be1e5ebec7d5bd14f71427d1e84f3dd0314c0f7b2291e5b200ac8c7c3b92591015b60405180910390a3505050565b73ffffffffffffffffffffffffffffffffffffffff8381166000908152600160209081526040808320938616835292905220547fffffffffffffffffffffffffffffffffffffffffffffffffffffffffffffffff8114610a775781811015610a6a5760405162461bcd60e51b815260206004820152601d60248201527f45524332303a20696e73756666696369656e7420616c6c6f77616e63650000006044820152606401610565565b610a778484848403610840565b50505050565b73ffffffffffffffffffffffffffffffffffffffff8316610b065760405162461bcd60e51b815260206004820152602560248201527f45524332303a207472616e736665722066726f6d20746865207a65726f20616460448201527f64726573730000000000000000000000000000000000000000000000000000006064820152608401610565565b73ffffffffffffffffffffffffffffffffffffffff8216610b8f5760405162461bcd60e51b815260206004820152602360248201527f45524332303a207472616e7366657220746f20746865207a65726f206164647260448201527f65737300000000000000000000000000000000000000000000000000000000006064820152608401610565565b73ffffffffffffffffffffffffffffffffffffffff831660009081526020819052604090205481811015610c2b5760405162461bcd60e51b815260206004820152602660248201527f45524332303a207472616e7366657220616d6f756e742065786365656473206260448201527f616c616e636500000000000000000000000000000000000000000000000000006064820152608401610565565b73ffffffffffffffffffffffffffffffffffffffff848116600081815260208181526040808320878703905593871680835291849020805487019055925185815290927fddf252ad1be2c89b69c2b068fc378daa952ba7f163c4a11628f55a4df523b3ef910160405180910390a3610a77565b73ffffffffffffffffffffffffffffffffffffffff8216610d015760405162461bcd60e51b815260206004820152601f60248201527f45524332303a206d696e7420746f20746865207a65726f2061646472657373006044820152606401610565565b8060026000828254610d139190611296565b909155505073ffffffffffffffffffffffffffffffffffffffff8216600081815260208181526040808320805486019055518481527fddf252ad1be2c89b69c2b068fc378daa952ba7f163c4a11628f55a4df523b3ef910160405180910390a35050565b60606000610d8483610fbd565b600101905060008167ffffffffffffffff811115610da457610da461134b565b6040519080825280601f01601f191660200182016040528015610dce576020820181803683370190505b5090508181016020015b7fffffffffffffffffffffffffffffffffffffffffffffffffffffffffffffffff017f3031323334353637383961626364656600000000000000000000000000000000600a86061a8153600a8504945084610dd857509392505050565b73ffffffffffffffffffffffffffffffffffffffff8216610ebe5760405162461bcd60e51b815260206004820152602160248201527f45524332303a206275726e2066726f6d20746865207a65726f2061646472657360448201527f73000000000000000000000000000000000000000000000000000000000000006064820152608401610565565b73ffffffffffffffffffffffffffffffffffffffff821660009081526020819052604090205481811015610f5a5760405162461bcd60e51b815260206004820152602260248201527f45524332303a206275726e20616d6f756e7420657863656564732062616c616e60448201527f63650000000000000000000000000000000000000000000000000000000000006064820152608401610565565b73ffffffffffffffffffffffffffffffffffffffff83166000818152602081815260408083208686039055600280548790039055518581529192917fddf252ad1be2c89b69c2b068fc378daa952ba7f163c4a11628f55a4df523b3ef91016109b3565b6000807a184f03e93ff9f4daa797ed6e38ed64bf6a1f0100000000000000008310611006577a184f03e93ff9f4daa797ed6e38ed64bf6a1f010000000000000000830492506040015b6d04ee2d6d415b85acef81000000008310611032576d04ee2d6d415b85acef8100000000830492506020015b662386f26fc10000831061105057662386f26fc10000830492506010015b6305f5e1008310611068576305f5e100830492506008015b612710831061107c57612710830492506004015b6064831061108e576064830492506002015b600a831061109a576001015b92915050565b6000602082840312156110b257600080fd5b81357fffffffff00000000000000000000000000000000000000000000000000000000811681146110e257600080fd5b9392505050565b60005b838110156111045781810151838201526020016110ec565b83811115610a775750506000910152565b60208152600082518060208401526111348160408501602087016110e9565b601f017fffffffffffffffffffffffffffffffffffffffffffffffffffffffffffffffe0169190910160400192915050565b803573ffffffffffffffffffffffffffffffffffffffff8116811461118a57600080fd5b919050565b600080604083850312156111a257600080fd5b6111ab83611166565b946020939093013593505050565b6000806000606084860312156111ce57600080fd5b6111d784611166565b92506111e560208501611166565b9150604084013590509250925092565b60006020828403121561120757600080fd5b6110e282611166565b6000806040838503121561122357600080fd5b61122c83611166565b915061123a60208401611166565b90509250929050565b600181811c9082168061125757607f821691505b602082108103611290577f4e487b7100000000000000000000000000000000000000000000000000000000600052602260045260246000fd5b50919050565b600082198211156112d0577f4e487b7100000000000000000000000000000000000000000000000000000000600052601160045260246000fd5b500190565b600084516112e78184602089016110e9565b80830190507f2e000000000000000000000000000000000000000000000000000000000000008082528551611323816001850160208a016110e9565b6001920191820152835161133e8160028401602088016110e9565b0160020195945050505050565b7f4e487b7100000000000000000000000000000000000000000000000000000000600052604160045260246000fdfea164736f6c634300080f000aa164736f6c634300080f000a"
}