{
  "address": "0xC0D3c0d3C0d3C0D3c0D3c0D3C0D3c0d3C0d30003",
  "abi": [
    {
      "type": "constructor",
      "payable": false,
      "inputs": []
    },
    {
      "type": "event",
      "anonymous": false,
      "name": "MessagePassed",
      "inputs": [
        {
          "type": "uint256",
          "name": "nonce",
          "indexed": true
        },
        {
          "type": "address",
          "name": "sender",
          "indexed": true
        },
        {
          "type": "address",
          "name": "target",
          "indexed": true
        },
        {
          "type": "uint256",
          "name": "value",
          "indexed": false
        },
        {
          "type": "uint256",
          "name": "gasLimit",
          "indexed": false
        },
        {
          "type": "bytes",
          "name": "data",
          "indexed": false
        },
        {
          "type": "bytes32",
          "name": "withdrawalHash",
          "indexed": false
        }
      ]
    },
    {
      "type": "event",
      "anonymous": false,
      "name": "WithdrawerBalanceBurnt",
      "inputs": [
        {
          "type": "uint256",
          "name": "amount",
          "indexed": true
        }
      ]
    },
    {
      "type": "function",
      "name": "MESSAGE_VERSION",
      "constant": true,
      "stateMutability": "view",
      "payable": false,
      "inputs": [],
      "outputs": [
        {
          "type": "uint16"
        }
      ]
    },
    {
      "type": "function",
      "name": "burn",
      "constant": false,
      "payable": false,
      "inputs": [],
      "outputs": []
    },
    {
      "type": "function",
      "name": "initiateWithdrawal",
      "constant": false,
      "stateMutability": "payable",
      "payable": true,
      "inputs": [
        {
          "type": "address",
          "name": "_target"
        },
        {
          "type": "uint256",
          "name": "_gasLimit"
        },
        {
          "type": "bytes",
          "name": "_data"
        }
      ],
      "outputs": []
    },
    {
      "type": "function",
      "name": "messageNonce",
      "constant": true,
      "stateMutability": "view",
      "payable": false,
      "inputs": [],
      "outputs": [
        {
          "type": "uint256"
        }
      ]
    },
    {
      "type": "function",
      "name": "sentMessages",
      "constant": true,
      "stateMutability": "view",
      "payable": false,
      "inputs": [
        {
          "type": "bytes32"
        }
      ],
      "outputs": [
        {
          "type": "bool"
        }
      ]
    },
    {
      "type": "function",
      "name": "version",
      "constant": true,
      "stateMutability": "view",
      "payable": false,
      "inputs": [],
      "outputs": [
        {
          "type": "string"
        }
      ]
    }
  ],
  "numDeployments": 1,
  "bytecode": "0x60e060405234801561001057600080fd5b5060016080819052600060a081905260c0819052806108f661004a8239600061039a015260006103710152600061034801526108f66000f3fe6080604052600436106100695760003560e01c806382e3702d1161004357806382e3702d146100f6578063c2b3e5ac14610136578063ecc704281461014957600080fd5b80633f827a5a1461009257806344df8e70146100bf57806354fd4d50146100d457600080fd5b3661008d5761008b33620186a060405180602001604052806000815250610187565b005b600080fd5b34801561009e57600080fd5b506100a7600081565b60405161ffff90911681526020015b60405180910390f35b3480156100cb57600080fd5b5061008b610309565b3480156100e057600080fd5b506100e9610341565b6040516100b69190610686565b34801561010257600080fd5b506101266101113660046106a0565b60006020819052908152604090205460ff1681565b60405190151581526020016100b6565b61008b6101443660046106e8565b610187565b34801561015557600080fd5b506001547dffffffffffffffffffffffffffffffffffffffffffffffffffffffffffff166040519081526020016100b6565b60006101fc6040518060c001604052806101c06001547dffffffffffffffffffffffffffffffffffffffffffffffffffffffffffff1690565b815233602082015273ffffffffffffffffffffffffffffffffffffffff871660408201523460608201526080810186905260a0018490526103e4565b600081815260208190526040902080547fffffffffffffffffffffffffffffffffffffffffffffffffffffffffffffff00166001179055905073ffffffffffffffffffffffffffffffffffffffff8416336102766001547dffffffffffffffffffffffffffffffffffffffffffffffffffffffffffff1690565b7f02a52367d10742d8032712c1bb8e0144ff1ec5ffda1ed7d70bb05a2744955054348787876040516102ab94939291906107ec565b60405180910390a45050600180547dffffffffffffffffffffffffffffffffffffffffffffffffffffffffffff8082168301167fffff0000000000000000000000000000000000000000000000000000000000009091161790555050565b4761031381610431565b60405181907f7967de617a5ac1cc7eba2d6f37570a0135afa950d8bb77cdd35f0d0b4e85a16f90600090a250565b606061036c7f0000000000000000000000000000000000000000000000000000000000000000610451565b6103957f0000000000000000000000000000000000000000000000000000000000000000610451565b6103be7f0000000000000000000000000000000000000000000000000000000000000000610451565b6040516020016103d09392919061081c565b604051602081830303815290604052905090565b80516020808301516040808501516060860151608087015160a08801519351600097610414979096959101610892565b604051602081830303815290604052805190602001209050919050565b61044d60005a836040518060200160405280600081525061050f565b5050565b6060600061045e83610529565b600101905060008167ffffffffffffffff81111561047e5761047e6106b9565b6040519080825280601f01601f1916602001820160405280156104a8576020820181803683370190505b5090508181016020015b7fffffffffffffffffffffffffffffffffffffffffffffffffffffffffffffffff017f3031323334353637383961626364656600000000000000000000000000000000600a86061a8153600a85049450846104b257509392505050565b600080600080845160208601878a8af19695505050505050565b6000807a184f03e93ff9f4daa797ed6e38ed64bf6a1f0100000000000000008310610572577a184f03e93ff9f4daa797ed6e38ed64bf6a1f010000000000000000830492506040015b6d04ee2d6d415b85acef8100000000831061059e576d04ee2d6d415b85acef8100000000830492506020015b662386f26fc1000083106105bc57662386f26fc10000830492506010015b6305f5e10083106105d4576305f5e100830492506008015b61271083106105e857612710830492506004015b606483106105fa576064830492506002015b600a8310610606576001015b92915050565b60005b8381101561062757818101518382015260200161060f565b83811115610636576000848401525b50505050565b6000815180845261065481602086016020860161060c565b601f017fffffffffffffffffffffffffffffffffffffffffffffffffffffffffffffffe0169290920160200192915050565b602081526000610699602083018461063c565b9392505050565b6000602082840312156106b257600080fd5b5035919050565b7f4e487b7100000000000000000000000000000000000000000000000000000000600052604160045260246000fd5b6000806000606084860312156106fd57600080fd5b833573ffffffffffffffffffffffffffffffffffffffff8116811461072157600080fd5b925060208401359150604084013567ffffffffffffffff8082111561074557600080fd5b818601915086601f83011261075957600080fd5b81358181111561076b5761076b6106b9565b604051601f82017fffffffffffffffffffffffffffffffffffffffffffffffffffffffffffffffe0908116603f011681019083821181831017156107b1576107b16106b9565b816040528281528960208487010111156107ca57600080fd5b8260208601602083013760006020848301015280955050505050509250925092565b84815283602082015260806040820152600061080b608083018561063c565b905082606083015295945050505050565b6000845161082e81846020890161060c565b80830190507f2e00000000000000000000000000000000000000000000000000000000000000808252855161086a816001850160208a0161060c565b6001920191820152835161088581600284016020880161060c565b0160020195945050505050565b868152600073ffffffffffffffffffffffffffffffffffffffff808816602084015280871660408401525084606083015283608083015260c060a08301526108dd60c083018461063c565b9897505050505050505056fea164736f6c634300080f000a",
  "deployedBytecode": "0x6080604052600436106100695760003560e01c806382e3702d1161004357806382e3702d146100f6578063c2b3e5ac14610136578063ecc704281461014957600080fd5b80633f827a5a1461009257806344df8e70146100bf57806354fd4d50146100d457600080fd5b3661008d5761008b33620186a060405180602001604052806000815250610187565b005b600080fd5b34801561009e57600080fd5b506100a7600081565b60405161ffff90911681526020015b60405180910390f35b3480156100cb57600080fd5b5061008b610309565b3480156100e057600080fd5b506100e9610341565b6040516100b69190610686565b34801561010257600080fd5b506101266101113660046106a0565b60006020819052908152604090205460ff1681565b60405190151581526020016100b6565b61008b6101443660046106e8565b610187565b34801561015557600080fd5b506001547dffffffffffffffffffffffffffffffffffffffffffffffffffffffffffff166040519081526020016100b6565b60006101fc6040518060c001604052806101c06001547dffffffffffffffffffffffffffffffffffffffffffffffffffffffffffff1690565b815233602082015273ffffffffffffffffffffffffffffffffffffffff871660408201523460608201526080810186905260a0018490526103e4565b600081815260208190526040902080547fffffffffffffffffffffffffffffffffffffffffffffffffffffffffffffff00166001179055905073ffffffffffffffffffffffffffffffffffffffff8416336102766001547dffffffffffffffffffffffffffffffffffffffffffffffffffffffffffff1690565b7f02a52367d10742d8032712c1bb8e0144ff1ec5ffda1ed7d70bb05a2744955054348787876040516102ab94939291906107ec565b60405180910390a45050600180547dffffffffffffffffffffffffffffffffffffffffffffffffffffffffffff8082168301167fffff0000000000000000000000000000000000000000000000000000000000009091161790555050565b4761031381610431565b60405181907f7967de617a5ac1cc7eba2d6f37570a0135afa950d8bb77cdd35f0d0b4e85a16f90600090a250565b606061036c7f0000000000000000000000000000000000000000000000000000000000000001610451565b6103957f0000000000000000000000000000000000000000000000000000000000000000610451565b6103be7f0000000000000000000000000000000000000000000000000000000000000000610451565b6040516020016103d09392919061081c565b604051602081830303815290604052905090565b80516020808301516040808501516060860151608087015160a08801519351600097610414979096959101610892565b604051602081830303815290604052805190602001209050919050565b61044d60005a836040518060200160405280600081525061050f565b5050565b6060600061045e83610529565b600101905060008167ffffffffffffffff81111561047e5761047e6106b9565b6040519080825280601f01601f1916602001820160405280156104a8576020820181803683370190505b5090508181016020015b7fffffffffffffffffffffffffffffffffffffffffffffffffffffffffffffffff017f3031323334353637383961626364656600000000000000000000000000000000600a86061a8153600a85049450846104b257509392505050565b600080600080845160208601878a8af19695505050505050565b6000807a184f03e93ff9f4daa797ed6e38ed64bf6a1f0100000000000000008310610572577a184f03e93ff9f4daa797ed6e38ed64bf6a1f010000000000000000830492506040015b6d04ee2d6d415b85acef8100000000831061059e576d04ee2d6d415b85acef8100000000830492506020015b662386f26fc1000083106105bc57662386f26fc10000830492506010015b6305f5e10083106105d4576305f5e100830492506008015b61271083106105e857612710830492506004015b606483106105fa576064830492506002015b600a8310610606576001015b92915050565b60005b8381101561062757818101518382015260200161060f565b83811115610636576000848401525b50505050565b6000815180845261065481602086016020860161060c565b601f017fffffffffffffffffffffffffffffffffffffffffffffffffffffffffffffffe0169290920160200192915050565b602081526000610699602083018461063c565b9392505050565b6000602082840312156106b257600080fd5b5035919050565b7f4e487b7100000000000000000000000000000000000000000000000000000000600052604160045260246000fd5b6000806000606084860312156106fd57600080fd5b833573ffffffffffffffffffffffffffffffffffffffff8116811461072157600080fd5b925060208401359150604084013567ffffffffffffffff8082111561074557600080fd5b818601915086601f83011261075957600080fd5b81358181111561076b5761076b6106b9565b604051601f82017fffffffffffffffffffffffffffffffffffffffffffffffffffffffffffffffe0908116603f011681019083821181831017156107b1576107b16106b9565b816040528281528960208487010111156107ca57600080fd5b8260208601602083013760006020848301015280955050505050509250925092565b84815283602082015260806040820152600061080b608083018561063c565b905082606083015295945050505050565b6000845161082e81846020890161060c565b80830190507f2e00000000000000000000000000000000000000000000000000000000000000808252855161086a816001850160208a0161060c565b6001920191820152835161088581600284016020880161060c565b0160020195945050505050565b868152600073ffffffffffffffffffffffffffffffffffffffff808816602084015280871660408401525084606083015283608083015260c060a08301526108dd60c083018461063c565b9897505050505050505056fea164736f6c634300080f000a"
}