{
  "address": "0xc0d3C0d3c0D3c0d3C0D3C0D3c0D3C0D3c0d30005",
  "abi": [
    {
      "type": "constructor",
      "payable": false,
      "inputs": []
    },
    {
      "type": "function",
      "name": "DECIMALS",
      "constant": true,
      "stateMutability": "view",
      "payable": false,
      "inputs": [],
      "outputs": [
        {
          "type": "uint256"
        }
      ]
    },
    {
      "type": "function",
      "name": "baseFee",
      "constant": true,
      "stateMutability": "view",
      "payable": false,
      "inputs": [],
      "outputs": [
        {
          "type": "uint256"
        }
      ]
    },
    {
      "type": "function",
      "name": "gasPrice",
      "constant": true,
      "stateMutability": "view",
      "payable": false,
      "inputs": [],
      "outputs": [
        {
          "type": "uint256"
        }
      ]
    },
    {
      "type": "function",
      "name": "getL1Fee",
      "constant": true,
      "stateMutability": "view",
      "payable": false,
      "inputs": [
        {
          "type": "bytes",
          "name": "_data"
        }
      ],
      "outputs": [
        {
          "type": "uint256"
        }
      ]
    },
    {
      "type": "function",
      "name": "getL1GasUsed",
      "constant": true,
      "stateMutability": "view",
      "payable": false,
      "inputs": [
        {
          "type": "bytes",
          "name": "_data"
        }
      ],
      "outputs": [
        {
          "type": "uint256"
        }
      ]
    },
    {
      "type": "function",
      "name": "l1BaseFee",
      "constant": true,
      "stateMutability": "view",
      "payable": false,
      "inputs": [],
      "outputs": [
        {
          "type": "uint256"
        }
      ]
    },
    {
      "type": "function",
      "name": "overhead",
      "constant": true,
      "stateMutability": "view",
      "payable": false,
      "inputs": [],
      "outputs": [
        {
          "type": "uint256"
        }
      ]
    },
    {
      "type": "function",
      "name": "scalar",
      "constant": true,
      "stateMutability": "view",
      "payable": false,
      "inputs": [],
      "outputs": [
        {
          "type": "uint256"
        }
      ]
    },
    {
      "type": "function",
      "name": "version",
      "constant": true,
      "stateMutability": "view",
      "payable": false,
      "inputs": [],
      "outputs": [
        {
          "type": "string"
        }
      ]
    }
  ],
  "numDeployments": 1,
  "bytecode": "0x60e060405234801561001057600080fd5b5060006080819052600160a081905260c082905281610a1f61004a823960006102c1015260006102980152600061026f0152610a1f6000f3fe608060405234801561001057600080fd5b50600436106100a35760003560e01c806354fd4d5011610076578063de26c4a11161005b578063de26c4a114610101578063f45e65d814610114578063fe173b97146100fb57600080fd5b806354fd4d50146100e65780636ef25c3a146100fb57600080fd5b80630c18c162146100a85780632e0f2625146100c357806349948e0e146100cb578063519b4bd3146100de575b600080fd5b6100b061011c565b6040519081526020015b60405180910390f35b6100b0600681565b6100b06100d93660046105da565b6101a6565b6100b0610207565b6100ee610268565b6040516100ba91906106d9565b486100b0565b6100b061010f3660046105da565b61030b565b6100b06103a9565b600073420000000000000000000000000000000000000273ffffffffffffffffffffffffffffffffffffffff16638b239f736040518163ffffffff1660e01b8152600401602060405180830381865afa15801561017d573d6000803e3d6000fd5b505050506040513d601f19601f820116820180604052508101906101a1919061072a565b905090565b6000806101b28361030b565b905060006101be610207565b6101c89083610772565b905060006101d86006600a6108cf565b905060006101e46103a9565b6101ee9084610772565b905060006101fc83836108e2565b979650505050505050565b600073420000000000000000000000000000000000000273ffffffffffffffffffffffffffffffffffffffff16635cf249696040518163ffffffff1660e01b8152600401602060405180830381865afa15801561017d573d6000803e3d6000fd5b60606102937f000000000000000000000000000000000000000000000000000000000000000061040a565b6102bc7f000000000000000000000000000000000000000000000000000000000000000061040a565b6102e57f000000000000000000000000000000000000000000000000000000000000000061040a565b6040516020016102f79392919061091d565b604051602081830303815290604052905090565b80516000908190815b8181101561038e5784818151811061032e5761032e610993565b01602001517fff000000000000000000000000000000000000000000000000000000000000001660000361036e576103676004846109c2565b925061037c565b6103796010846109c2565b92505b80610386816109da565b915050610314565b5061039761011c565b6103a190836109c2565b949350505050565b600073420000000000000000000000000000000000000273ffffffffffffffffffffffffffffffffffffffff16639e8c49666040518163ffffffff1660e01b8152600401602060405180830381865afa15801561017d573d6000803e3d6000fd5b60606000610417836104c8565b600101905060008167ffffffffffffffff811115610437576104376105ab565b6040519080825280601f01601f191660200182016040528015610461576020820181803683370190505b5090508181016020015b7fffffffffffffffffffffffffffffffffffffffffffffffffffffffffffffffff017f3031323334353637383961626364656600000000000000000000000000000000600a86061a8153600a850494508461046b57509392505050565b6000807a184f03e93ff9f4daa797ed6e38ed64bf6a1f0100000000000000008310610511577a184f03e93ff9f4daa797ed6e38ed64bf6a1f010000000000000000830492506040015b6d04ee2d6d415b85acef8100000000831061053d576d04ee2d6d415b85acef8100000000830492506020015b662386f26fc10000831061055b57662386f26fc10000830492506010015b6305f5e1008310610573576305f5e100830492506008015b612710831061058757612710830492506004015b60648310610599576064830492506002015b600a83106105a5576001015b92915050565b7f4e487b7100000000000000000000000000000000000000000000000000000000600052604160045260246000fd5b6000602082840312156105ec57600080fd5b813567ffffffffffffffff8082111561060457600080fd5b818401915084601f83011261061857600080fd5b81358181111561062a5761062a6105ab565b604051601f82017fffffffffffffffffffffffffffffffffffffffffffffffffffffffffffffffe0908116603f01168101908382118183101715610670576106706105ab565b8160405282815287602084870101111561068957600080fd5b826020860160208301376000928101602001929092525095945050505050565b60005b838110156106c45781810151838201526020016106ac565b838111156106d3576000848401525b50505050565b60208152600082518060208401526106f88160408501602087016106a9565b601f017fffffffffffffffffffffffffffffffffffffffffffffffffffffffffffffffe0169190910160400192915050565b60006020828403121561073c57600080fd5b5051919050565b7f4e487b7100000000000000000000000000000000000000000000000000000000600052601160045260246000fd5b6000817fffffffffffffffffffffffffffffffffffffffffffffffffffffffffffffffff04831182151516156107aa576107aa610743565b500290565b600181815b8085111561080857817fffffffffffffffffffffffffffffffffffffffffffffffffffffffffffffffff048211156107ee576107ee610743565b808516156107fb57918102915b93841c93908002906107b4565b509250929050565b60008261081f575060016105a5565b8161082c575060006105a5565b8160018114610842576002811461084c57610868565b60019150506105a5565b60ff84111561085d5761085d610743565b50506001821b6105a5565b5060208310610133831016604e8410600b841016171561088b575081810a6105a5565b61089583836107af565b807fffffffffffffffffffffffffffffffffffffffffffffffffffffffffffffffff048211156108c7576108c7610743565b029392505050565b60006108db8383610810565b9392505050565b600082610918577f4e487b7100000000000000000000000000000000000000000000000000000000600052601260045260246000fd5b500490565b6000845161092f8184602089016106a9565b80830190507f2e00000000000000000000000000000000000000000000000000000000000000808252855161096b816001850160208a016106a9565b600192019182015283516109868160028401602088016106a9565b0160020195945050505050565b7f4e487b7100000000000000000000000000000000000000000000000000000000600052603260045260246000fd5b600082198211156109d5576109d5610743565b500190565b60007fffffffffffffffffffffffffffffffffffffffffffffffffffffffffffffffff8203610a0b57610a0b610743565b506001019056fea164736f6c634300080f000a",
  "deployedBytecode": "0x608060405234801561001057600080fd5b50600436106100a35760003560e01c806354fd4d5011610076578063de26c4a11161005b578063de26c4a114610101578063f45e65d814610114578063fe173b97146100fb57600080fd5b806354fd4d50146100e65780636ef25c3a146100fb57600080fd5b80630c18c162146100a85780632e0f2625146100c357806349948e0e146100cb578063519b4bd3146100de575b600080fd5b6100b061011c565b6040519081526020015b60405180910390f35b6100b0600681565b6100b06100d936600461056e565b6101a6565b6100b0610207565b6100ee610268565b6040516100ba919061066d565b486100b0565b6100b061010f36600461056e565b61030b565b6100b06103a9565b600073420000000000000000000000000000000000000273ffffffffffffffffffffffffffffffffffffffff16638b239f736040518163ffffffff1660e01b8152600401602060405180830381865afa15801561017d573d6000803e3d6000fd5b505050506040513d601f19601f820116820180604052508101906101a191906106be565b905090565b6000806101b28361030b565b905060006101be610207565b6101c89083610706565b905060006101d86006600a610865565b905060006101e46103a9565b6101ee9084610706565b905060006101fc83836108a7565b979650505050505050565b600073420000000000000000000000000000000000000273ffffffffffffffffffffffffffffffffffffffff16635cf249696040518163ffffffff1660e01b8152600401602060405180830381865afa15801561017d573d6000803e3d6000fd5b60606102937f000000000000000000000000000000000000000000000000000000000000000061040a565b6102bc7f000000000000000000000000000000000000000000000000000000000000000161040a565b6102e57f000000000000000000000000000000000000000000000000000000000000000061040a565b6040516020016102f7939291906108bb565b604051602081830303815290604052905090565b80516000908190815b8181101561038e5784818151811061032e5761032e610931565b01602001517fff000000000000000000000000000000000000000000000000000000000000001660000361036e57610367600484610960565b925061037c565b610379601084610960565b92505b8061038681610978565b915050610314565b5061039761011c565b6103a19083610960565b949350505050565b600073420000000000000000000000000000000000000273ffffffffffffffffffffffffffffffffffffffff16639e8c49666040518163ffffffff1660e01b8152600401602060405180830381865afa15801561017d573d6000803e3d6000fd5b60608160000361044d57505060408051808201909152600181527f3000000000000000000000000000000000000000000000000000000000000000602082015290565b8160005b8115610477578061046181610978565b91506104709050600a836108a7565b9150610451565b60008167ffffffffffffffff8111156104925761049261053f565b6040519080825280601f01601f1916602001820160405280156104bc576020820181803683370190505b5090505b84156103a1576104d16001836109b0565b91506104de600a866109c7565b6104e9906030610960565b60f81b8183815181106104fe576104fe610931565b60200101907effffffffffffffffffffffffffffffffffffffffffffffffffffffffffffff1916908160001a905350610538600a866108a7565b94506104c0565b7f4e487b7100000000000000000000000000000000000000000000000000000000600052604160045260246000fd5b60006020828403121561058057600080fd5b813567ffffffffffffffff8082111561059857600080fd5b818401915084601f8301126105ac57600080fd5b8135818111156105be576105be61053f565b604051601f82017fffffffffffffffffffffffffffffffffffffffffffffffffffffffffffffffe0908116603f011681019083821181831017156106045761060461053f565b8160405282815287602084870101111561061d57600080fd5b826020860160208301376000928101602001929092525095945050505050565b60005b83811015610658578181015183820152602001610640565b83811115610667576000848401525b50505050565b602081526000825180602084015261068c81604085016020870161063d565b601f017fffffffffffffffffffffffffffffffffffffffffffffffffffffffffffffffe0169190910160400192915050565b6000602082840312156106d057600080fd5b5051919050565b7f4e487b7100000000000000000000000000000000000000000000000000000000600052601160045260246000fd5b6000817fffffffffffffffffffffffffffffffffffffffffffffffffffffffffffffffff048311821515161561073e5761073e6106d7565b500290565b600181815b8085111561079c57817fffffffffffffffffffffffffffffffffffffffffffffffffffffffffffffffff04821115610782576107826106d7565b8085161561078f57918102915b93841c9390800290610748565b509250929050565b6000826107b35750600161085f565b816107c05750600061085f565b81600181146107d657600281146107e0576107fc565b600191505061085f565b60ff8411156107f1576107f16106d7565b50506001821b61085f565b5060208310610133831016604e8410600b841016171561081f575081810a61085f565b6108298383610743565b807fffffffffffffffffffffffffffffffffffffffffffffffffffffffffffffffff0482111561085b5761085b6106d7565b0290505b92915050565b600061087183836107a4565b9392505050565b7f4e487b7100000000000000000000000000000000000000000000000000000000600052601260045260246000fd5b6000826108b6576108b6610878565b500490565b600084516108cd81846020890161063d565b80830190507f2e000000000000000000000000000000000000000000000000000000000000008082528551610909816001850160208a0161063d565b6001920191820152835161092481600284016020880161063d565b0160020195945050505050565b7f4e487b7100000000000000000000000000000000000000000000000000000000600052603260045260246000fd5b60008219821115610973576109736106d7565b500190565b60007fffffffffffffffffffffffffffffffffffffffffffffffffffffffffffffffff82036109a9576109a96106d7565b5060010190565b6000828210156109c2576109c26106d7565b500390565b6000826109d6576109d6610878565b50069056fea164736f6c634300080f000a"
}