{
  "address": "0x95CF1b56499840DB5E809F119f9f75e6227Fc26D",
  "abi": [
    {
      "inputs": [],
      "stateMutability": "nonpayable",
      "type": "constructor"
    },
    {
      "inputs": [],
      "name": "DEPOSITOR_ACCOUNT",
      "outputs": [
        {
          "internalType": "address",
          "name": "",
          "type": "address"
        }
      ],
      "stateMutability": "view",
      "type": "function"
    },
    {
      "inputs": [],
      "name": "basefee",
      "outputs": [
        {
          "internalType": "uint256",
          "name": "",
          "type": "uint256"
        }
      ],
      "stateMutability": "view",
      "type": "function"
    },
    {
      "inputs": [],
      "name": "batcherHash",
      "outputs": [
        {
          "internalType": "bytes32",
          "name": "",
          "type": "bytes32"
        }
      ],
      "stateMutability": "view",
      "type": "function"
    },
    {
      "inputs": [],
      "name": "hash",
      "outputs": [
        {
          "internalType": "bytes32",
          "name": "",
          "type": "bytes32"
        }
      ],
      "stateMutability": "view",
      "type": "function"
    },
    {
      "inputs": [],
      "name": "l1FeeOverhead",
      "outputs": [
        {
          "internalType": "uint256",
          "name": "",
          "type": "uint256"
        }
      ],
      "stateMutability": "view",
      "type": "function"
    },
    {
      "inputs": [],
      "name": "l1FeeScalar",
      "outputs": [
        {
          "internalType": "uint256",
          "name": "",
          "type": "uint256"
        }
      ],
      "stateMutability": "view",
      "type": "function"
    },
    {
      "inputs": [],
      "name": "number",
      "outputs": [
        {
          "internalType": "uint64",
          "name": "",
          "type": "uint64"
        }
      ],
      "stateMutability": "view",
      "type": "function"
    },
    {
      "inputs": [],
      "name": "sequenceNumber",
      "outputs": [
        {
          "internalType": "uint64",
          "name": "",
          "type": "uint64"
        }
      ],
      "stateMutability": "view",
      "type": "function"
    },
    {
      "inputs": [
        {
          "internalType": "uint64",
          "name": "_number",
          "type": "uint64"
        },
        {
          "internalType": "uint64",
          "name": "_timestamp",
          "type": "uint64"
        },
        {
          "internalType": "uint256",
          "name": "_basefee",
          "type": "uint256"
        },
        {
          "internalType": "bytes32",
          "name": "_hash",
          "type": "bytes32"
        },
        {
          "internalType": "uint64",
          "name": "_sequenceNumber",
          "type": "uint64"
        },
        {
          "internalType": "bytes32",
          "name": "_batcherHash",
          "type": "bytes32"
        },
        {
          "internalType": "uint256",
          "name": "_l1FeeOverhead",
          "type": "uint256"
        },
        {
          "internalType": "uint256",
          "name": "_l1FeeScalar",
          "type": "uint256"
        },
        {
          "internalType": "uint256",
          "name": "_validatorRewardScalar",
          "type": "uint256"
        }
      ],
      "name": "setL1BlockValues",
      "outputs": [],
      "stateMutability": "nonpayable",
      "type": "function"
    },
    {
      "inputs": [],
      "name": "timestamp",
      "outputs": [
        {
          "internalType": "uint64",
          "name": "",
          "type": "uint64"
        }
      ],
      "stateMutability": "view",
      "type": "function"
    },
    {
      "inputs": [],
      "name": "validatorRewardScalar",
      "outputs": [
        {
          "internalType": "uint256",
          "name": "",
          "type": "uint256"
        }
      ],
      "stateMutability": "view",
      "type": "function"
    },
    {
      "inputs": [],
      "name": "version",
      "outputs": [
        {
          "internalType": "string",
          "name": "",
          "type": "string"
        }
      ],
      "stateMutability": "view",
      "type": "function"
    }
  ],
  "transactionHash": "0x18722c5f67f205750b734dbde026dabc99b1678d740c73a6833960456012e00e",
  "args": [],
  "numDeployments": 1,
  "solcInputHash": "573e8e271f935374a272abf2404bcb2f",
  "bytecode": "0x60e060405234801561001057600080fd5b5060006080819052600160a081905260c0829052816107fe61004a823960006102460152600061021d015260006101f401526107fe6000f3fe608060405234801561001057600080fd5b50600436106100d45760003560e01c80639e8c496611610081578063e81b2c6d1161005b578063e81b2c6d146101c6578063ed579ad3146101cf578063efc674eb146101d857600080fd5b80639e8c49661461015d578063b80777ea14610166578063e591b2821461018657600080fd5b806364ca23ef116100b257806364ca23ef146101135780638381f58a146101405780638b239f731461015457600080fd5b806309bd5a60146100d957806354fd4d50146100f55780635cf249691461010a575b600080fd5b6100e260025481565b6040519081526020015b60405180910390f35b6100fd6101ed565b6040516100ec9190610662565b6100e260015481565b6003546101279067ffffffffffffffff1681565b60405167ffffffffffffffff90911681526020016100ec565b6000546101279067ffffffffffffffff1681565b6100e260055481565b6100e260065481565b6000546101279068010000000000000000900467ffffffffffffffff1681565b6101a173deaddeaddeaddeaddeaddeaddeaddeaddead000181565b60405173ffffffffffffffffffffffffffffffffffffffff90911681526020016100ec565b6100e260045481565b6100e260075481565b6101eb6101e63660046106d0565b610290565b005b60606102187f0000000000000000000000000000000000000000000000000000000000000000610491565b6102417f0000000000000000000000000000000000000000000000000000000000000000610491565b61026a7f0000000000000000000000000000000000000000000000000000000000000000610491565b60405160200161027c9392919061074c565b604051602081830303815290604052905090565b3373deaddeaddeaddeaddeaddeaddeaddeaddead000114610338576040517f08c379a000000000000000000000000000000000000000000000000000000000815260206004820152603b60248201527f4c31426c6f636b3a206f6e6c7920746865206465706f7369746f72206163636f60448201527f756e742063616e20736574204c3120626c6f636b2076616c756573000000000060648201526084015b60405180910390fd5b6127108111156103f0576040517f08c379a000000000000000000000000000000000000000000000000000000000815260206004820152604360248201527f4c31426c6f636b3a20746865206d61782076616c7565206f662076616c69646160448201527f746f7220726577617264207363616c617220686173206265656e20657863656560648201527f6465640000000000000000000000000000000000000000000000000000000000608482015260a40161032f565b6000805467ffffffffffffffff998a1668010000000000000000027fffffffffffffffffffffffffffffffff000000000000000000000000000000009091169a8a169a909a179990991790985560019590955560029390935560038054929095167fffffffffffffffffffffffffffffffffffffffffffffffff00000000000000009290921691909117909355600492909255600591909155600655600755565b6060600061049e8361054f565b600101905060008167ffffffffffffffff8111156104be576104be6107c2565b6040519080825280601f01601f1916602001820160405280156104e8576020820181803683370190505b5090508181016020015b7fffffffffffffffffffffffffffffffffffffffffffffffffffffffffffffffff017f3031323334353637383961626364656600000000000000000000000000000000600a86061a8153600a85049450846104f257509392505050565b6000807a184f03e93ff9f4daa797ed6e38ed64bf6a1f0100000000000000008310610598577a184f03e93ff9f4daa797ed6e38ed64bf6a1f010000000000000000830492506040015b6d04ee2d6d415b85acef810000000083106105c4576d04ee2d6d415b85acef8100000000830492506020015b662386f26fc1000083106105e257662386f26fc10000830492506010015b6305f5e10083106105fa576305f5e100830492506008015b612710831061060e57612710830492506004015b60648310610620576064830492506002015b600a831061062c576001015b92915050565b60005b8381101561064d578181015183820152602001610635565b8381111561065c576000848401525b50505050565b6020815260008251806020840152610681816040850160208701610632565b601f017fffffffffffffffffffffffffffffffffffffffffffffffffffffffffffffffe0169190910160400192915050565b803567ffffffffffffffff811681146106cb57600080fd5b919050565b60008060008060008060008060006101208a8c0312156106ef57600080fd5b6106f88a6106b3565b985061070660208b016106b3565b975060408a0135965060608a0135955061072260808b016106b3565b989b979a50959894979660a0860135965060c08601359560e0810135955061010001359350915050565b6000845161075e818460208901610632565b80830190507f2e00000000000000000000000000000000000000000000000000000000000000808252855161079a816001850160208a01610632565b600192019182015283516107b5816002840160208801610632565b0160020195945050505050565b7f4e487b7100000000000000000000000000000000000000000000000000000000600052604160045260246000fdfea164736f6c634300080f000a",
  "devdoc": {
    "version": 1,
    "kind": "dev",
    "methods": {
      "constructor": {},
      "setL1BlockValues(uint64,uint64,uint256,bytes32,uint64,bytes32,uint256,uint256,uint256)": {
        "params": {
          "_basefee": "L1 basefee.",
          "_batcherHash": "Versioned hash to authenticate batcher by.",
          "_hash": "L1 blockhash.",
          "_l1FeeOverhead": "L1 fee overhead.",
          "_l1FeeScalar": "L1 fee scalar.",
          "_number": "L1 blocknumber.",
          "_sequenceNumber": "Number of L2 blocks since epoch start.",
          "_timestamp": "L1 timestamp.",
          "_validatorRewardScalar": "Validator reward scalar."
        }
      },
      "version()": {
        "returns": {
          "_0": "Semver contract version as a string."
        }
      }
    },
    "title": "L1Block"
  },
  "userdoc": {
    "version": 1,
    "kind": "user",
    "methods": {
      "DEPOSITOR_ACCOUNT()": {
        "notice": "Address of the special depositor account."
      },
      "basefee()": {
        "notice": "The latest L1 basefee."
      },
      "batcherHash()": {
        "notice": "The versioned hash to authenticate the batcher by."
      },
      "hash()": {
        "notice": "The latest L1 blockhash."
      },
      "l1FeeOverhead()": {
        "notice": "The overhead value applied to the L1 portion of the transaction         fee."
      },
      "l1FeeScalar()": {
        "notice": "The scalar value applied to the L1 portion of the transaction fee.         The denominator is 1,000,000, so the ratio is expressed in 6 decimal places."
      },
      "number()": {
        "notice": "The latest L1 block number known by the L2 system."
      },
      "sequenceNumber()": {
        "notice": "The number of L2 blocks in the same epoch."
      },
      "setL1BlockValues(uint64,uint64,uint256,bytes32,uint64,bytes32,uint256,uint256,uint256)": {
        "notice": "Updates the L1 block values."
      },
      "timestamp()": {
        "notice": "The latest L1 timestamp known by the L2 system."
      },
      "validatorRewardScalar()": {
        "notice": "The scalar value to distribute transaction fees as validator reward.         The denominator is 10000, so the ratio is expressed in 4 decimal places."
      },
      "version()": {
        "notice": "Returns the full semver contract version."
      }
    },
    "notice": "The L1Block predeploy gives users access to information about the last known L1 block.         Values within this contract are updated once per epoch (every L1 block) and can only be         set by the \"depositor\" account, a special system address. Depositor account transactions         are created by the protocol whenever we move to a new epoch."
  },
  "storageLayout": {
    "storage": [
      {
        "astId": 13316,
        "contract": "contracts/L2/L1Block.sol:L1Block",
        "label": "number",
        "offset": 0,
        "slot": "0",
        "type": "t_uint64"
      },
      {
        "astId": 13319,
        "contract": "contracts/L2/L1Block.sol:L1Block",
        "label": "timestamp",
        "offset": 8,
        "slot": "0",
        "type": "t_uint64"
      },
      {
        "astId": 13322,
        "contract": "contracts/L2/L1Block.sol:L1Block",
        "label": "basefee",
        "offset": 0,
        "slot": "1",
        "type": "t_uint256"
      },
      {
        "astId": 13325,
        "contract": "contracts/L2/L1Block.sol:L1Block",
        "label": "hash",
        "offset": 0,
        "slot": "2",
        "type": "t_bytes32"
      },
      {
        "astId": 13328,
        "contract": "contracts/L2/L1Block.sol:L1Block",
        "label": "sequenceNumber",
        "offset": 0,
        "slot": "3",
        "type": "t_uint64"
      },
      {
        "astId": 13331,
        "contract": "contracts/L2/L1Block.sol:L1Block",
        "label": "batcherHash",
        "offset": 0,
        "slot": "4",
        "type": "t_bytes32"
      },
      {
        "astId": 13334,
        "contract": "contracts/L2/L1Block.sol:L1Block",
        "label": "l1FeeOverhead",
        "offset": 0,
        "slot": "5",
        "type": "t_uint256"
      },
      {
        "astId": 13337,
        "contract": "contracts/L2/L1Block.sol:L1Block",
        "label": "l1FeeScalar",
        "offset": 0,
        "slot": "6",
        "type": "t_uint256"
      },
      {
        "astId": 13340,
        "contract": "contracts/L2/L1Block.sol:L1Block",
        "label": "validatorRewardScalar",
        "offset": 0,
        "slot": "7",
        "type": "t_uint256"
      }
    ],
    "types": {
      "t_bytes32": {
        "encoding": "inplace",
        "label": "bytes32",
        "numberOfBytes": "32"
      },
      "t_uint256": {
        "encoding": "inplace",
        "label": "uint256",
        "numberOfBytes": "32"
      },
      "t_uint64": {
        "encoding": "inplace",
        "label": "uint64",
        "numberOfBytes": "8"
      }
    }
  }
}