{
  "address": "0x70d81620E4B43C1f4D586737ab8C7EC243045e97",
  "abi": [
    {
      "inputs": [
        {
          "internalType": "address",
          "name": "_recipient",
          "type": "address"
        }
      ],
      "stateMutability": "nonpayable",
      "type": "constructor"
    },
    {
      "anonymous": false,
      "inputs": [
        {
          "indexed": false,
          "internalType": "uint256",
          "name": "value",
          "type": "uint256"
        },
        {
          "indexed": false,
          "internalType": "address",
          "name": "to",
          "type": "address"
        },
        {
          "indexed": false,
          "internalType": "address",
          "name": "from",
          "type": "address"
        }
      ],
      "name": "Withdrawal",
      "type": "event"
    },
    {
      "inputs": [],
      "name": "MIN_WITHDRAWAL_AMOUNT",
      "outputs": [
        {
          "internalType": "uint256",
          "name": "",
          "type": "uint256"
        }
      ],
      "stateMutability": "view",
      "type": "function"
    },
    {
      "inputs": [],
      "name": "RECIPIENT",
      "outputs": [
        {
          "internalType": "address",
          "name": "",
          "type": "address"
        }
      ],
      "stateMutability": "view",
      "type": "function"
    },
    {
      "inputs": [],
      "name": "totalProcessed",
      "outputs": [
        {
          "internalType": "uint256",
          "name": "",
          "type": "uint256"
        }
      ],
      "stateMutability": "view",
      "type": "function"
    },
    {
      "inputs": [],
      "name": "version",
      "outputs": [
        {
          "internalType": "string",
          "name": "",
          "type": "string"
        }
      ],
      "stateMutability": "view",
      "type": "function"
    },
    {
      "inputs": [],
      "name": "withdraw",
      "outputs": [],
      "stateMutability": "nonpayable",
      "type": "function"
    },
    {
      "inputs": [],
      "name": "withdrawToL2",
      "outputs": [],
      "stateMutability": "nonpayable",
      "type": "function"
    },
    {
      "stateMutability": "payable",
      "type": "receive"
    }
  ],
  "transactionHash": "0x903935da412c44e4b07ea036394a880ddc4e317ba08072e8c12b4ccd4aa24f27",
  "args": [
    "0xb5d7c1921fdbdea614f264a75ca0be416cf63eb5"
  ],
  "numDeployments": 2,
  "solcInputHash": "5c4eeaea782ed85e7217df8d223e6e00",
  "bytecode": "0x61012060405234801561001157600080fd5b50604051610b0c380380610b0c83398101604081905261003091610058565b600060808190526001600160a01b0390911660a052600160c05260e052600261010052610088565b60006020828403121561006a57600080fd5b81516001600160a01b038116811461008157600080fd5b9392505050565b60805160a05160c05160e05161010051610a176100f560003960006103620152600061033901526000610310015260008181608701528181610191015281816102a7015281816103c4015281816104840152610623015260008181610157015261052b0152610a176000f3fe6080604052600436106100695760003560e01c80636ed39f62116100435780636ed39f621461010c57806384411d6514610121578063d3e5792b1461014557600080fd5b80630d9019e1146100755780633ccfd60b146100d357806354fd4d50146100ea57600080fd5b3661007057005b600080fd5b34801561008157600080fd5b506100a97f000000000000000000000000000000000000000000000000000000000000000081565b60405173ffffffffffffffffffffffffffffffffffffffff90911681526020015b60405180910390f35b3480156100df57600080fd5b506100e8610179565b005b3480156100f657600080fd5b506100ff610309565b6040516100ca91906108c8565b34801561011857600080fd5b506100e86103ac565b34801561012d57600080fd5b5061013760005481565b6040519081526020016100ca565b34801561015157600080fd5b506101377f000000000000000000000000000000000000000000000000000000000000000081565b3373ffffffffffffffffffffffffffffffffffffffff7f00000000000000000000000000000000000000000000000000000000000000001614610243576040517f08c379a000000000000000000000000000000000000000000000000000000000815260206004820152602560248201527f4665655661756c743a20746865206f6e6c7920726563697069656e742063616e60448201527f2063616c6c00000000000000000000000000000000000000000000000000000060648201526084015b60405180910390fd5b600061024d610527565b604080516020810182526000815290517fe11013dd0000000000000000000000000000000000000000000000000000000081529192507342000000000000000000000000000000000000099163e11013dd9184916102d4917f0000000000000000000000000000000000000000000000000000000000000000916188b891906004016108e2565b6000604051808303818588803b1580156102ed57600080fd5b505af1158015610301573d6000803e3d6000fd5b505050505050565b60606103347f0000000000000000000000000000000000000000000000000000000000000000610693565b61035d7f0000000000000000000000000000000000000000000000000000000000000000610693565b6103867f0000000000000000000000000000000000000000000000000000000000000000610693565b60405160200161039893929190610926565b604051602081830303815290604052905090565b3373ffffffffffffffffffffffffffffffffffffffff7f00000000000000000000000000000000000000000000000000000000000000001614610471576040517f08c379a000000000000000000000000000000000000000000000000000000000815260206004820152602560248201527f4665655661756c743a20746865206f6e6c7920726563697069656e742063616e60448201527f2063616c6c000000000000000000000000000000000000000000000000000000606482015260840161023a565b600061047b610527565b905060006104ba7f00000000000000000000000000000000000000000000000000000000000000005a8460405180602001604052806000815250610751565b905080610523576040517f08c379a000000000000000000000000000000000000000000000000000000000815260206004820152601d60248201527f4665655661756c743a20455448207472616e73666572206661696c6564000000604482015260640161023a565b5050565b60007f00000000000000000000000000000000000000000000000000000000000000004710156105ff576040517f08c379a000000000000000000000000000000000000000000000000000000000815260206004820152604a60248201527f4665655661756c743a207769746864726177616c20616d6f756e74206d75737460448201527f2062652067726561746572207468616e206d696e696d756d207769746864726160648201527f77616c20616d6f756e7400000000000000000000000000000000000000000000608482015260a40161023a565b600047905080600080828254610615919061099c565b9091555050604080518281527f000000000000000000000000000000000000000000000000000000000000000073ffffffffffffffffffffffffffffffffffffffff166020820152338183015290517fc8a211cc64b6ed1b50595a9fcb1932b6d1e5a6e8ef15b60e5b1f988ea9086bba9181900360600190a1919050565b606060006106a08361076b565b600101905060008167ffffffffffffffff8111156106c0576106c06109db565b6040519080825280601f01601f1916602001820160405280156106ea576020820181803683370190505b5090508181016020015b7fffffffffffffffffffffffffffffffffffffffffffffffffffffffffffffffff017f3031323334353637383961626364656600000000000000000000000000000000600a86061a8153600a85049450846106f457509392505050565b600080600080845160208601878a8af19695505050505050565b6000807a184f03e93ff9f4daa797ed6e38ed64bf6a1f01000000000000000083106107b4577a184f03e93ff9f4daa797ed6e38ed64bf6a1f010000000000000000830492506040015b6d04ee2d6d415b85acef810000000083106107e0576d04ee2d6d415b85acef8100000000830492506020015b662386f26fc1000083106107fe57662386f26fc10000830492506010015b6305f5e1008310610816576305f5e100830492506008015b612710831061082a57612710830492506004015b6064831061083c576064830492506002015b600a8310610848576001015b92915050565b60005b83811015610869578181015183820152602001610851565b83811115610878576000848401525b50505050565b6000815180845261089681602086016020860161084e565b601f017fffffffffffffffffffffffffffffffffffffffffffffffffffffffffffffffe0169290920160200192915050565b6020815260006108db602083018461087e565b9392505050565b73ffffffffffffffffffffffffffffffffffffffff8416815263ffffffff8316602082015260606040820152600061091d606083018461087e565b95945050505050565b6000845161093881846020890161084e565b80830190507f2e000000000000000000000000000000000000000000000000000000000000008082528551610974816001850160208a0161084e565b6001920191820152835161098f81600284016020880161084e565b0160020195945050505050565b600082198211156109d6577f4e487b7100000000000000000000000000000000000000000000000000000000600052601160045260246000fd5b500190565b7f4e487b7100000000000000000000000000000000000000000000000000000000600052604160045260246000fdfea164736f6c634300080f000a",
  "devdoc": {
    "version": 1,
    "kind": "dev",
    "methods": {
      "constructor": {
        "params": {
          "_recipient": "Address that will receive the accumulated fees."
        }
      },
      "version()": {
        "returns": {
          "_0": "Semver contract version as a string."
        }
      }
    },
    "title": "L1FeeVault"
  },
  "userdoc": {
    "version": 1,
    "kind": "user",
    "methods": {
      "MIN_WITHDRAWAL_AMOUNT()": {
        "notice": "Minimum balance before a withdrawal can be triggered."
      },
      "RECIPIENT()": {
        "notice": "Wallet that will receive the fees on L1."
      },
      "totalProcessed()": {
        "notice": "Total amount of wei processed by the contract."
      },
      "version()": {
        "notice": "Returns the full semver contract version."
      },
      "withdraw()": {
        "notice": "Triggers a withdrawal of funds to the recipient on L1."
      },
      "withdrawToL2()": {
        "notice": "Triggers a withdrawal of funds to the recipient on L2."
      }
    },
    "events": {
      "Withdrawal(uint256,address,address)": {
        "notice": "Emits each time that a withdrawal occurs."
      }
    },
    "notice": "The L1FeeVault accumulates the L1 portion of the transaction fees."
  },
  "storageLayout": {
    "storage": [
      {
        "astId": 57446,
        "contract": "contracts/L2/L1FeeVault.sol:L1FeeVault",
        "label": "totalProcessed",
        "offset": 0,
        "slot": "0",
        "type": "t_uint256"
      }
    ],
    "types": {
      "t_uint256": {
        "encoding": "inplace",
        "label": "uint256",
        "numberOfBytes": "32"
      }
    }
  }
}