{
  "address": "0xc0D3c0D3c0D3c0d3c0d3C0d3C0d3c0D3C0D30004",
  "abi": [
    {
      "type": "constructor",
      "payable": false,
      "inputs": [
        {
          "type": "address",
          "name": "_l1CrossDomainMessenger"
        }
      ]
    },
    {
      "type": "event",
      "anonymous": false,
      "name": "FailedRelayedMessage",
      "inputs": [
        {
          "type": "bytes32",
          "name": "msgHash",
          "indexed": true
        }
      ]
    },
    {
      "type": "event",
      "anonymous": false,
      "name": "Initialized",
      "inputs": [
        {
          "type": "uint8",
          "name": "version",
          "indexed": false
        }
      ]
    },
    {
      "type": "event",
      "anonymous": false,
      "name": "Paused",
      "inputs": [
        {
          "type": "address",
          "name": "account",
          "indexed": false
        }
      ]
    },
    {
      "type": "event",
      "anonymous": false,
      "name": "RelayedMessage",
      "inputs": [
        {
          "type": "bytes32",
          "name": "msgHash",
          "indexed": true
        }
      ]
    },
    {
      "type": "event",
      "anonymous": false,
      "name": "SentMessage",
      "inputs": [
        {
          "type": "address",
          "name": "target",
          "indexed": true
        },
        {
          "type": "address",
          "name": "sender",
          "indexed": true
        },
        {
          "type": "uint256",
          "name": "value",
          "indexed": false
        },
        {
          "type": "bytes",
          "name": "message",
          "indexed": false
        },
        {
          "type": "uint256",
          "name": "messageNonce",
          "indexed": false
        },
        {
          "type": "uint256",
          "name": "gasLimit",
          "indexed": false
        }
      ]
    },
    {
      "type": "event",
      "anonymous": false,
      "name": "Unpaused",
      "inputs": [
        {
          "type": "address",
          "name": "account",
          "indexed": false
        }
      ]
    },
    {
      "type": "function",
      "name": "MESSAGE_VERSION",
      "constant": true,
      "stateMutability": "view",
      "payable": false,
      "inputs": [],
      "outputs": [
        {
          "type": "uint16"
        }
      ]
    },
    {
      "type": "function",
      "name": "MIN_GAS_CALLDATA_OVERHEAD",
      "constant": true,
      "stateMutability": "view",
      "payable": false,
      "inputs": [],
      "outputs": [
        {
          "type": "uint64"
        }
      ]
    },
    {
      "type": "function",
      "name": "MIN_GAS_DYNAMIC_OVERHEAD_DENOMINATOR",
      "constant": true,
      "stateMutability": "view",
      "payable": false,
      "inputs": [],
      "outputs": [
        {
          "type": "uint64"
        }
      ]
    },
    {
      "type": "function",
      "name": "MIN_GAS_DYNAMIC_OVERHEAD_NUMERATOR",
      "constant": true,
      "stateMutability": "view",
      "payable": false,
      "inputs": [],
      "outputs": [
        {
          "type": "uint64"
        }
      ]
    },
    {
      "type": "function",
      "name": "OTHER_MESSENGER",
      "constant": true,
      "stateMutability": "view",
      "payable": false,
      "inputs": [],
      "outputs": [
        {
          "type": "address"
        }
      ]
    },
    {
      "type": "function",
      "name": "RELAY_CALL_OVERHEAD",
      "constant": true,
      "stateMutability": "view",
      "payable": false,
      "inputs": [],
      "outputs": [
        {
          "type": "uint64"
        }
      ]
    },
    {
      "type": "function",
      "name": "RELAY_CONSTANT_OVERHEAD",
      "constant": true,
      "stateMutability": "view",
      "payable": false,
      "inputs": [],
      "outputs": [
        {
          "type": "uint64"
        }
      ]
    },
    {
      "type": "function",
      "name": "RELAY_GAS_CHECK_BUFFER",
      "constant": true,
      "stateMutability": "view",
      "payable": false,
      "inputs": [],
      "outputs": [
        {
          "type": "uint64"
        }
      ]
    },
    {
      "type": "function",
      "name": "RELAY_RESERVED_GAS",
      "constant": true,
      "stateMutability": "view",
      "payable": false,
      "inputs": [],
      "outputs": [
        {
          "type": "uint64"
        }
      ]
    },
    {
      "type": "function",
      "name": "baseGas",
      "constant": true,
      "stateMutability": "pure",
      "payable": false,
      "inputs": [
        {
          "type": "bytes",
          "name": "_message"
        },
        {
          "type": "uint32",
          "name": "_minGasLimit"
        }
      ],
      "outputs": [
        {
          "type": "uint64"
        }
      ]
    },
    {
      "type": "function",
      "name": "failedMessages",
      "constant": true,
      "stateMutability": "view",
      "payable": false,
      "inputs": [
        {
          "type": "bytes32"
        }
      ],
      "outputs": [
        {
          "type": "bool"
        }
      ]
    },
    {
      "type": "function",
      "name": "initialize",
      "constant": false,
      "payable": false,
      "inputs": [],
      "outputs": []
    },
    {
      "type": "function",
      "name": "messageNonce",
      "constant": true,
      "stateMutability": "view",
      "payable": false,
      "inputs": [],
      "outputs": [
        {
          "type": "uint256"
        }
      ]
    },
    {
      "type": "function",
      "name": "paused",
      "constant": true,
      "stateMutability": "view",
      "payable": false,
      "inputs": [],
      "outputs": [
        {
          "type": "bool"
        }
      ]
    },
    {
      "type": "function",
      "name": "relayMessage",
      "constant": false,
      "stateMutability": "payable",
      "payable": true,
      "inputs": [
        {
          "type": "uint256",
          "name": "_nonce"
        },
        {
          "type": "address",
          "name": "_sender"
        },
        {
          "type": "address",
          "name": "_target"
        },
        {
          "type": "uint256",
          "name": "_value"
        },
        {
          "type": "uint256",
          "name": "_minGasLimit"
        },
        {
          "type": "bytes",
          "name": "_message"
        }
      ],
      "outputs": []
    },
    {
      "type": "function",
      "name": "sendMessage",
      "constant": false,
      "stateMutability": "payable",
      "payable": true,
      "inputs": [
        {
          "type": "address",
          "name": "_target"
        },
        {
          "type": "bytes",
          "name": "_message"
        },
        {
          "type": "uint32",
          "name": "_minGasLimit"
        }
      ],
      "outputs": []
    },
    {
      "type": "function",
      "name": "successfulMessages",
      "constant": true,
      "stateMutability": "view",
      "payable": false,
      "inputs": [
        {
          "type": "bytes32"
        }
      ],
      "outputs": [
        {
          "type": "bool"
        }
      ]
    },
    {
      "type": "function",
      "name": "version",
      "constant": true,
      "stateMutability": "view",
      "payable": false,
      "inputs": [],
      "outputs": [
        {
          "type": "string"
        }
      ]
    },
    {
      "type": "function",
      "name": "xDomainMessageSender",
      "constant": true,
      "stateMutability": "view",
      "payable": false,
      "inputs": [],
      "outputs": [
        {
          "type": "address"
        }
      ]
    }
  ],
  "numDeployments": 1,
  "bytecode": "0x6101006040523480156200001257600080fd5b5060405162001de138038062001de1833981016040819052620000359162000226565b6001600160a01b038116608052600060a0819052600160c05260e0526200005b62000062565b5062000258565b600054610100900460ff1615808015620000835750600054600160ff909116105b80620000b35750620000a0306200019460201b620011251760201c565b158015620000b3575060005460ff166001145b6200011c5760405162461bcd60e51b815260206004820152602e60248201527f496e697469616c697a61626c653a20636f6e747261637420697320616c72656160448201526d191e481a5b9a5d1a585b1a5e995960921b60648201526084015b60405180910390fd5b6000805460ff19166001179055801562000140576000805461ff0019166101001790555b6200014a620001a3565b801562000191576000805461ff0019169055604051600181527f7f26b83ff96e1f2b6a682f133852f6798a09c465da95921460cefb38474024989060200160405180910390a15b50565b6001600160a01b03163b151590565b600054610100900460ff16620002105760405162461bcd60e51b815260206004820152602b60248201527f496e697469616c697a61626c653a20636f6e7472616374206973206e6f74206960448201526a6e697469616c697a696e6760a81b606482015260840162000113565b606680546001600160a01b03191661dead179055565b6000602082840312156200023957600080fd5b81516001600160a01b03811681146200025157600080fd5b9392505050565b60805160a05160c05160e051611b41620002a06000396000610607015260006105de015260006105b50152600081816102cd015281816103c50152610a7c0152611b416000f3fe6080604052600436106101445760003560e01c80636e296e45116100c0578063a4e7f8bd11610074578063b28ade2511610059578063b28ade251461034f578063d764ad0b1461036f578063ecc704281461038257600080fd5b8063a4e7f8bd146102ef578063b1b1b2091461031f57600080fd5b806383a74074116100a557806383a74074146102a45780638cbeeef2146101e35780639fce812c146102bb57600080fd5b80636e296e45146102555780638129fc1c1461028f57600080fd5b80633f827a5a1161011757806354fd4d50116100fc57806354fd4d50146101f95780635644cfdf1461021b5780635c975abb1461023157600080fd5b80633f827a5a146101bb5780634c1d6a69146101e357600080fd5b8063028f85f7146101495780630c5684981461017c5780632828d7e8146101915780633dbb202b146101a6575b600080fd5b34801561015557600080fd5b5061015e601081565b60405167ffffffffffffffff90911681526020015b60405180910390f35b34801561018857600080fd5b5061015e603f81565b34801561019d57600080fd5b5061015e604081565b6101b96101b4366004611609565b6103c0565b005b3480156101c757600080fd5b506101d0600081565b60405161ffff9091168152602001610173565b3480156101ef57600080fd5b5061015e619c4081565b34801561020557600080fd5b5061020e6105ae565b60405161017391906116e8565b34801561022757600080fd5b5061015e61138881565b34801561023d57600080fd5b5060335460ff165b6040519015158152602001610173565b34801561026157600080fd5b5061026a610651565b60405173ffffffffffffffffffffffffffffffffffffffff9091168152602001610173565b34801561029b57600080fd5b506101b961073d565b3480156102b057600080fd5b5061015e62030d4081565b3480156102c757600080fd5b5061026a7f000000000000000000000000000000000000000000000000000000000000000081565b3480156102fb57600080fd5b5061024561030a366004611702565b60686020526000908152604090205460ff1681565b34801561032b57600080fd5b5061024561033a366004611702565b60656020526000908152604090205460ff1681565b34801561035b57600080fd5b5061015e61036a36600461171b565b6108cf565b6101b961037d36600461176f565b61093d565b34801561038e57600080fd5b506067547dffffffffffffffffffffffffffffffffffffffffffffffffffffffffffff16604051908152602001610173565b6104d87f00000000000000000000000000000000000000000000000000000000000000006103ef8585856108cf565b347fd764ad0b0000000000000000000000000000000000000000000000000000000061043a6067547dffffffffffffffffffffffffffffffffffffffffffffffffffffffffffff1690565b338a34898c8c604051602401610456979695949392919061183a565b604080517fffffffffffffffffffffffffffffffffffffffffffffffffffffffffffffffe08184030181529190526020810180517bffffffffffffffffffffffffffffffffffffffffffffffffffffffff167fffffffff0000000000000000000000000000000000000000000000000000000090931692909217909152611141565b3373ffffffffffffffffffffffffffffffffffffffff85167fdd28cef75ff18fb538e43317144469f339702f973eace2bc808f2acc37db310e34868661053d6067547dffffffffffffffffffffffffffffffffffffffffffffffffffffffffffff1690565b8760405161054f959493929190611899565b60405180910390a35050606780547dffffffffffffffffffffffffffffffffffffffffffffffffffffffffffff808216600101167fffff0000000000000000000000000000000000000000000000000000000000009091161790555050565b60606105d97f00000000000000000000000000000000000000000000000000000000000000006111cf565b6106027f00000000000000000000000000000000000000000000000000000000000000006111cf565b61062b7f00000000000000000000000000000000000000000000000000000000000000006111cf565b60405160200161063d939291906118d1565b604051602081830303815290604052905090565b60665460009073ffffffffffffffffffffffffffffffffffffffff167fffffffffffffffffffffffffffffffffffffffffffffffffffffffffffff215301610720576040517f08c379a000000000000000000000000000000000000000000000000000000000815260206004820152603560248201527f43726f7373446f6d61696e4d657373656e6765723a2078446f6d61696e4d657360448201527f7361676553656e646572206973206e6f7420736574000000000000000000000060648201526084015b60405180910390fd5b5060665473ffffffffffffffffffffffffffffffffffffffff1690565b600054610100900460ff161580801561075d5750600054600160ff909116105b806107775750303b158015610777575060005460ff166001145b610803576040517f08c379a000000000000000000000000000000000000000000000000000000000815260206004820152602e60248201527f496e697469616c697a61626c653a20636f6e747261637420697320616c72656160448201527f647920696e697469616c697a65640000000000000000000000000000000000006064820152608401610717565b600080547fffffffffffffffffffffffffffffffffffffffffffffffffffffffffffffff00166001179055801561086157600080547fffffffffffffffffffffffffffffffffffffffffffffffffffffffffffff00ff166101001790555b61086961128d565b80156108cc57600080547fffffffffffffffffffffffffffffffffffffffffffffffffffffffffffff00ff169055604051600181527f7f26b83ff96e1f2b6a682f133852f6798a09c465da95921460cefb38474024989060200160405180910390a15b50565b6000611388619c4080603f6108eb604063ffffffff8816611976565b6108f591906119a6565b610900601088611976565b61090d9062030d406119f4565b61091791906119f4565b61092191906119f4565b61092b91906119f4565b61093591906119f4565b949350505050565b60f087901c600181106109f8576040517f08c379a000000000000000000000000000000000000000000000000000000000815260206004820152604760248201527f43726f7373446f6d61696e4d657373656e6765723a206f6e6c7920766572736960448201527f6f6e2030206d6573736167657320697320737570706f7274656420617420746860648201527f69732074696d6500000000000000000000000000000000000000000000000000608482015260a401610717565b6000610a3e898989898989898080601f01602080910402602001604051908101604052809392919081815260200183838082843760009201919091525061135292505050565b905073ffffffffffffffffffffffffffffffffffffffff7fffffffffffffffffffffffffeeeeffffffffffffffffffffffffffffffffeeef330181167f000000000000000000000000000000000000000000000000000000000000000090911603610ad657853414610ab257610ab2611a20565b60008181526068602052604090205460ff1615610ad157610ad1611a20565b610c28565b3415610b8a576040517f08c379a000000000000000000000000000000000000000000000000000000000815260206004820152605060248201527f43726f7373446f6d61696e4d657373656e6765723a2076616c7565206d75737460448201527f206265207a65726f20756e6c657373206d6573736167652069732066726f6d2060648201527f612073797374656d206164647265737300000000000000000000000000000000608482015260a401610717565b60008181526068602052604090205460ff16610c28576040517f08c379a000000000000000000000000000000000000000000000000000000000815260206004820152603060248201527f43726f7373446f6d61696e4d657373656e6765723a206d65737361676520636160448201527f6e6e6f74206265207265706c61796564000000000000000000000000000000006064820152608401610717565b610c3187611375565b15610ce4576040517f08c379a000000000000000000000000000000000000000000000000000000000815260206004820152604360248201527f43726f7373446f6d61696e4d657373656e6765723a2063616e6e6f742073656e60448201527f64206d65737361676520746f20626c6f636b65642073797374656d206164647260648201527f6573730000000000000000000000000000000000000000000000000000000000608482015260a401610717565b60008181526065602052604090205460ff1615610d83576040517f08c379a000000000000000000000000000000000000000000000000000000000815260206004820152603660248201527f43726f7373446f6d61696e4d657373656e6765723a206d65737361676520686160448201527f7320616c7265616479206265656e2072656c61796564000000000000000000006064820152608401610717565b610da485610d95611388619c406119f4565b67ffffffffffffffff166113ca565b1580610dca575060665473ffffffffffffffffffffffffffffffffffffffff1661dead14155b15610ee35760008181526068602052604080822080547fffffffffffffffffffffffffffffffffffffffffffffffffffffffffffffff001660011790555182917f99d0e048484baa1b1540b1367cb128acd7ab2946d1ed91ec10e3c85e4bf51b8f91a27fffffffffffffffffffffffffffffffffffffffffffffffffffffffffffffffff3201610edc576040517f08c379a000000000000000000000000000000000000000000000000000000000815260206004820152602d60248201527f43726f7373446f6d61696e4d657373656e6765723a206661696c656420746f2060448201527f72656c6179206d657373616765000000000000000000000000000000000000006064820152608401610717565b505061111c565b606680547fffffffffffffffffffffffff00000000000000000000000000000000000000001673ffffffffffffffffffffffffffffffffffffffff8a161790556000610f7488619c405a610f379190611a4f565b8988888080601f0160208091040260200160405190810160405280939291908181526020018383808284376000920191909152506113e892505050565b606680547fffffffffffffffffffffffff00000000000000000000000000000000000000001661dead1790559050801561100b5760008281526065602052604080822080547fffffffffffffffffffffffffffffffffffffffffffffffffffffffffffffff001660011790555183917f4641df4a962071e12719d8c8c8e5ac7fc4d97b927346a3d7a335b1f7517e133c91a2611118565b60008281526068602052604080822080547fffffffffffffffffffffffffffffffffffffffffffffffffffffffffffffff001660011790555183917f99d0e048484baa1b1540b1367cb128acd7ab2946d1ed91ec10e3c85e4bf51b8f91a27fffffffffffffffffffffffffffffffffffffffffffffffffffffffffffffffff3201611118576040517f08c379a000000000000000000000000000000000000000000000000000000000815260206004820152602d60248201527f43726f7373446f6d61696e4d657373656e6765723a206661696c656420746f2060448201527f72656c6179206d657373616765000000000000000000000000000000000000006064820152608401610717565b5050505b50505050505050565b73ffffffffffffffffffffffffffffffffffffffff163b151590565b6040517fc2b3e5ac0000000000000000000000000000000000000000000000000000000081527342000000000000000000000000000000000000039063c2b3e5ac90849061119790889088908790600401611a66565b6000604051808303818588803b1580156111b057600080fd5b505af11580156111c4573d6000803e3d6000fd5b505050505050505050565b606060006111dc83611402565b600101905060008167ffffffffffffffff8111156111fc576111fc611aae565b6040519080825280601f01601f191660200182016040528015611226576020820181803683370190505b5090508181016020015b7fffffffffffffffffffffffffffffffffffffffffffffffffffffffffffffffff017f3031323334353637383961626364656600000000000000000000000000000000600a86061a8153600a850494508461123057509392505050565b600054610100900460ff16611324576040517f08c379a000000000000000000000000000000000000000000000000000000000815260206004820152602b60248201527f496e697469616c697a61626c653a20636f6e7472616374206973206e6f74206960448201527f6e697469616c697a696e670000000000000000000000000000000000000000006064820152608401610717565b606680547fffffffffffffffffffffffff00000000000000000000000000000000000000001661dead179055565b60006113628787878787876114e4565b8051906020012090509695505050505050565b600073ffffffffffffffffffffffffffffffffffffffff82163014806113c4575073ffffffffffffffffffffffffffffffffffffffff8216734200000000000000000000000000000000000003145b92915050565b600080603f83619c4001026040850201603f5a021015949350505050565b600080600080845160208601878a8af19695505050505050565b6000807a184f03e93ff9f4daa797ed6e38ed64bf6a1f010000000000000000831061144b577a184f03e93ff9f4daa797ed6e38ed64bf6a1f010000000000000000830492506040015b6d04ee2d6d415b85acef81000000008310611477576d04ee2d6d415b85acef8100000000830492506020015b662386f26fc10000831061149557662386f26fc10000830492506010015b6305f5e10083106114ad576305f5e100830492506008015b61271083106114c157612710830492506004015b606483106114d3576064830492506002015b600a83106113c45760010192915050565b606086868686868660405160240161150196959493929190611add565b604080517fffffffffffffffffffffffffffffffffffffffffffffffffffffffffffffffe08184030181529190526020810180517bffffffffffffffffffffffffffffffffffffffffffffffffffffffff167fd764ad0b0000000000000000000000000000000000000000000000000000000017905290509695505050505050565b803573ffffffffffffffffffffffffffffffffffffffff811681146115a757600080fd5b919050565b60008083601f8401126115be57600080fd5b50813567ffffffffffffffff8111156115d657600080fd5b6020830191508360208285010111156115ee57600080fd5b9250929050565b803563ffffffff811681146115a757600080fd5b6000806000806060858703121561161f57600080fd5b61162885611583565b9350602085013567ffffffffffffffff81111561164457600080fd5b611650878288016115ac565b90945092506116639050604086016115f5565b905092959194509250565b60005b83811015611689578181015183820152602001611671565b83811115611698576000848401525b50505050565b600081518084526116b681602086016020860161166e565b601f017fffffffffffffffffffffffffffffffffffffffffffffffffffffffffffffffe0169290920160200192915050565b6020815260006116fb602083018461169e565b9392505050565b60006020828403121561171457600080fd5b5035919050565b60008060006040848603121561173057600080fd5b833567ffffffffffffffff81111561174757600080fd5b611753868287016115ac565b90945092506117669050602085016115f5565b90509250925092565b600080600080600080600060c0888a03121561178a57600080fd5b8735965061179a60208901611583565b95506117a860408901611583565b9450606088013593506080880135925060a088013567ffffffffffffffff8111156117d257600080fd5b6117de8a828b016115ac565b989b979a50959850939692959293505050565b8183528181602085013750600060208284010152600060207fffffffffffffffffffffffffffffffffffffffffffffffffffffffffffffffe0601f840116840101905092915050565b878152600073ffffffffffffffffffffffffffffffffffffffff808916602084015280881660408401525085606083015263ffffffff8516608083015260c060a083015261188c60c0830184866117f1565b9998505050505050505050565b8581526080602082015260006118b36080830186886117f1565b905083604083015263ffffffff831660608301529695505050505050565b600084516118e381846020890161166e565b80830190507f2e00000000000000000000000000000000000000000000000000000000000000808252855161191f816001850160208a0161166e565b6001920191820152835161193a81600284016020880161166e565b0160020195945050505050565b7f4e487b7100000000000000000000000000000000000000000000000000000000600052601160045260246000fd5b600067ffffffffffffffff8083168185168183048111821515161561199d5761199d611947565b02949350505050565b600067ffffffffffffffff808416806119e8577f4e487b7100000000000000000000000000000000000000000000000000000000600052601260045260246000fd5b92169190910492915050565b600067ffffffffffffffff808316818516808303821115611a1757611a17611947565b01949350505050565b7f4e487b7100000000000000000000000000000000000000000000000000000000600052600160045260246000fd5b600082821015611a6157611a61611947565b500390565b73ffffffffffffffffffffffffffffffffffffffff8416815267ffffffffffffffff83166020820152606060408201526000611aa5606083018461169e565b95945050505050565b7f4e487b7100000000000000000000000000000000000000000000000000000000600052604160045260246000fd5b868152600073ffffffffffffffffffffffffffffffffffffffff808816602084015280871660408401525084606083015283608083015260c060a0830152611b2860c083018461169e565b9897505050505050505056fea164736f6c634300080f000a",
  "deployedBytecode": "0x6080604052600436106100f35760003560e01c80637dea7cc31161008a578063b1b1b20911610059578063b1b1b209146102a4578063b28ade25146102d4578063d764ad0b146102f4578063ecc704281461030757600080fd5b80637dea7cc3146102145780638129fc1c1461022b5780639fce812c14610240578063a4e7f8bd1461027457600080fd5b80633f827a5a116100c65780633f827a5a1461016c57806354fd4d50146101945780635c975abb146101b65780636e296e45146101da57600080fd5b8063028f85f7146100f85780630c5684981461012b5780632828d7e8146101415780633dbb202b14610157575b600080fd5b34801561010457600080fd5b5061010d601081565b60405167ffffffffffffffff90911681526020015b60405180910390f35b34801561013757600080fd5b5061010d6103e881565b34801561014d57600080fd5b5061010d6103f881565b61016a6101653660046114b8565b610345565b005b34801561017857600080fd5b50610181600081565b60405161ffff9091168152602001610122565b3480156101a057600080fd5b506101a9610533565b6040516101229190611597565b3480156101c257600080fd5b5060335460ff165b6040519015158152602001610122565b3480156101e657600080fd5b506101ef6105d6565b60405173ffffffffffffffffffffffffffffffffffffffff9091168152602001610122565b34801561022057600080fd5b5061010d62030d4081565b34801561023757600080fd5b5061016a6106c2565b34801561024c57600080fd5b506101ef7f00000000000000000000000069786a10c1a153191bf5a50b61e70f6934fcc0a281565b34801561028057600080fd5b506101ca61028f3660046115b1565b60686020526000908152604090205460ff1681565b3480156102b057600080fd5b506101ca6102bf3660046115b1565b60656020526000908152604090205460ff1681565b3480156102e057600080fd5b5061010d6102ef3660046115ca565b610854565b61016a61030236600461161e565b6108a0565b34801561031357600080fd5b506067547dffffffffffffffffffffffffffffffffffffffffffffffffffffffffffff16604051908152602001610122565b61045d7f00000000000000000000000069786a10c1a153191bf5a50b61e70f6934fcc0a2610374858585610854565b347fd764ad0b000000000000000000000000000000000000000000000000000000006103bf6067547dffffffffffffffffffffffffffffffffffffffffffffffffffffffffffff1690565b338a34898c8c6040516024016103db97969594939291906116e9565b604080517fffffffffffffffffffffffffffffffffffffffffffffffffffffffffffffffe08184030181529190526020810180517bffffffffffffffffffffffffffffffffffffffffffffffffffffffff167fffffffff0000000000000000000000000000000000000000000000000000000090931692909217909152611039565b3373ffffffffffffffffffffffffffffffffffffffff85167fdd28cef75ff18fb538e43317144469f339702f973eace2bc808f2acc37db310e3486866104c26067547dffffffffffffffffffffffffffffffffffffffffffffffffffffffffffff1690565b876040516104d4959493929190611748565b60405180910390a35050606780547dffffffffffffffffffffffffffffffffffffffffffffffffffffffffffff808216600101167fffff0000000000000000000000000000000000000000000000000000000000009091161790555050565b606061055e7f00000000000000000000000000000000000000000000000000000000000000006110c7565b6105877f00000000000000000000000000000000000000000000000000000000000000016110c7565b6105b07f00000000000000000000000000000000000000000000000000000000000000006110c7565b6040516020016105c293929190611780565b604051602081830303815290604052905090565b60665460009073ffffffffffffffffffffffffffffffffffffffff167fffffffffffffffffffffffffffffffffffffffffffffffffffffffffffff2153016106a5576040517f08c379a000000000000000000000000000000000000000000000000000000000815260206004820152603560248201527f43726f7373446f6d61696e4d657373656e6765723a2078446f6d61696e4d657360448201527f7361676553656e646572206973206e6f7420736574000000000000000000000060648201526084015b60405180910390fd5b5060665473ffffffffffffffffffffffffffffffffffffffff1690565b600054610100900460ff16158080156106e25750600054600160ff909116105b806106fc5750303b1580156106fc575060005460ff166001145b610788576040517f08c379a000000000000000000000000000000000000000000000000000000000815260206004820152602e60248201527f496e697469616c697a61626c653a20636f6e747261637420697320616c72656160448201527f647920696e697469616c697a6564000000000000000000000000000000000000606482015260840161069c565b600080547fffffffffffffffffffffffffffffffffffffffffffffffffffffffffffffff0016600117905580156107e657600080547fffffffffffffffffffffffffffffffffffffffffffffffffffffffffffff00ff166101001790555b6107ee6111fc565b801561085157600080547fffffffffffffffffffffffffffffffffffffffffffffffffffffffffffff00ff169055604051600181527f7f26b83ff96e1f2b6a682f133852f6798a09c465da95921460cefb38474024989060200160405180910390a15b50565b600062030d40610865601085611825565b6103e861087a6103f863ffffffff8716611825565b6108849190611884565b61088e91906118ab565b61089891906118ab565b949350505050565b60f087901c6001811061095b576040517f08c379a000000000000000000000000000000000000000000000000000000000815260206004820152604760248201527f43726f7373446f6d61696e4d657373656e6765723a206f6e6c7920766572736960448201527f6f6e2030206d6573736167657320697320737570706f7274656420617420746860648201527f69732074696d6500000000000000000000000000000000000000000000000000608482015260a40161069c565b60006109a1898989898989898080601f0160208091040260200160405190810160405280939291908181526020018383808284376000920191909152506112c192505050565b60008181526069602052604090205490915060ff1615610a1d576040517f08c379a000000000000000000000000000000000000000000000000000000000815260206004820152601f60248201527f5265656e7472616e637947756172643a207265656e7472616e742063616c6c00604482015260640161069c565b600081815260696020526040902080547fffffffffffffffffffffffffffffffffffffffffffffffffffffffffffffff00166001179055610acf600073ffffffffffffffffffffffffffffffffffffffff7f00000000000000000000000069786a10c1a153191bf5a50b61e70f6934fcc0a2167fffffffffffffffffffffffffeeeeffffffffffffffffffffffffffffffffeeef330173ffffffffffffffffffffffffffffffffffffffff1614905090565b15610b0757853414610ae357610ae36118d7565b60008181526068602052604090205460ff1615610b0257610b026118d7565b610c59565b3415610bbb576040517f08c379a000000000000000000000000000000000000000000000000000000000815260206004820152605060248201527f43726f7373446f6d61696e4d657373656e6765723a2076616c7565206d75737460448201527f206265207a65726f20756e6c657373206d6573736167652069732066726f6d2060648201527f612073797374656d206164647265737300000000000000000000000000000000608482015260a40161069c565b60008181526068602052604090205460ff16610c59576040517f08c379a000000000000000000000000000000000000000000000000000000000815260206004820152603060248201527f43726f7373446f6d61696e4d657373656e6765723a206d65737361676520636160448201527f6e6e6f74206265207265706c6179656400000000000000000000000000000000606482015260840161069c565b610c62876112e4565b15610d15576040517f08c379a000000000000000000000000000000000000000000000000000000000815260206004820152604360248201527f43726f7373446f6d61696e4d657373656e6765723a2063616e6e6f742073656e60448201527f64206d65737361676520746f20626c6f636b65642073797374656d206164647260648201527f6573730000000000000000000000000000000000000000000000000000000000608482015260a40161069c565b60008181526065602052604090205460ff1615610db4576040517f08c379a000000000000000000000000000000000000000000000000000000000815260206004820152603660248201527f43726f7373446f6d61696e4d657373656e6765723a206d65737361676520686160448201527f7320616c7265616479206265656e2072656c6179656400000000000000000000606482015260840161069c565b606680547fffffffffffffffffffffffff00000000000000000000000000000000000000001673ffffffffffffffffffffffffffffffffffffffff8a16179055604080516020601f8601819004810282018101909252848152600091610e3a918a9189918b918a908a908190840183828082843760009201919091525061133992505050565b606680547fffffffffffffffffffffffff00000000000000000000000000000000000000001661dead17905590508015610ed15760008281526065602052604080822080547fffffffffffffffffffffffffffffffffffffffffffffffffffffffffffffff001660011790555183917f4641df4a962071e12719d8c8c8e5ac7fc4d97b927346a3d7a335b1f7517e133c91a2610fde565b60008281526068602052604080822080547fffffffffffffffffffffffffffffffffffffffffffffffffffffffffffffff001660011790555183917f99d0e048484baa1b1540b1367cb128acd7ab2946d1ed91ec10e3c85e4bf51b8f91a27fffffffffffffffffffffffffffffffffffffffffffffffffffffffffffffffff3201610fde576040517f08c379a000000000000000000000000000000000000000000000000000000000815260206004820152602d60248201527f43726f7373446f6d61696e4d657373656e6765723a206661696c656420746f2060448201527f72656c6179206d65737361676500000000000000000000000000000000000000606482015260840161069c565b50600090815260696020526040902080547fffffffffffffffffffffffffffffffffffffffffffffffffffffffffffffff001690555050505050505050565b73ffffffffffffffffffffffffffffffffffffffff163b151590565b6040517fc2b3e5ac0000000000000000000000000000000000000000000000000000000081527342000000000000000000000000000000000000039063c2b3e5ac90849061108f90889088908790600401611906565b6000604051808303818588803b1580156110a857600080fd5b505af11580156110bc573d6000803e3d6000fd5b505050505050505050565b60608160000361110a57505060408051808201909152600181527f3000000000000000000000000000000000000000000000000000000000000000602082015290565b8160005b8115611134578061111e8161194e565b915061112d9050600a83611986565b915061110e565b60008167ffffffffffffffff81111561114f5761114f61199a565b6040519080825280601f01601f191660200182016040528015611179576020820181803683370190505b5090505b84156108985761118e6001836119c9565b915061119b600a866119e0565b6111a69060306119f4565b60f81b8183815181106111bb576111bb611a0c565b60200101907effffffffffffffffffffffffffffffffffffffffffffffffffffffffffffff1916908160001a9053506111f5600a86611986565b945061117d565b600054610100900460ff16611293576040517f08c379a000000000000000000000000000000000000000000000000000000000815260206004820152602b60248201527f496e697469616c697a61626c653a20636f6e7472616374206973206e6f74206960448201527f6e697469616c697a696e67000000000000000000000000000000000000000000606482015260840161069c565b606680547fffffffffffffffffffffffff00000000000000000000000000000000000000001661dead179055565b60006112d1878787878787611393565b8051906020012090509695505050505050565b600073ffffffffffffffffffffffffffffffffffffffff8216301480611333575073ffffffffffffffffffffffffffffffffffffffff8216734200000000000000000000000000000000000003145b92915050565b600080603f60c88601604002045a101561137c576308c379a06000526020805278185361666543616c6c3a204e6f7420656e6f756768206761736058526064601cfd5b600080845160208601878a5af19695505050505050565b60608686868686866040516024016113b096959493929190611a3b565b604080517fffffffffffffffffffffffffffffffffffffffffffffffffffffffffffffffe08184030181529190526020810180517bffffffffffffffffffffffffffffffffffffffffffffffffffffffff167fd764ad0b0000000000000000000000000000000000000000000000000000000017905290509695505050505050565b803573ffffffffffffffffffffffffffffffffffffffff8116811461145657600080fd5b919050565b60008083601f84011261146d57600080fd5b50813567ffffffffffffffff81111561148557600080fd5b60208301915083602082850101111561149d57600080fd5b9250929050565b803563ffffffff8116811461145657600080fd5b600080600080606085870312156114ce57600080fd5b6114d785611432565b9350602085013567ffffffffffffffff8111156114f357600080fd5b6114ff8782880161145b565b90945092506115129050604086016114a4565b905092959194509250565b60005b83811015611538578181015183820152602001611520565b83811115611547576000848401525b50505050565b6000815180845261156581602086016020860161151d565b601f017fffffffffffffffffffffffffffffffffffffffffffffffffffffffffffffffe0169290920160200192915050565b6020815260006115aa602083018461154d565b9392505050565b6000602082840312156115c357600080fd5b5035919050565b6000806000604084860312156115df57600080fd5b833567ffffffffffffffff8111156115f657600080fd5b6116028682870161145b565b90945092506116159050602085016114a4565b90509250925092565b600080600080600080600060c0888a03121561163957600080fd5b8735965061164960208901611432565b955061165760408901611432565b9450606088013593506080880135925060a088013567ffffffffffffffff81111561168157600080fd5b61168d8a828b0161145b565b989b979a50959850939692959293505050565b8183528181602085013750600060208284010152600060207fffffffffffffffffffffffffffffffffffffffffffffffffffffffffffffffe0601f840116840101905092915050565b878152600073ffffffffffffffffffffffffffffffffffffffff808916602084015280881660408401525085606083015263ffffffff8516608083015260c060a083015261173b60c0830184866116a0565b9998505050505050505050565b8581526080602082015260006117626080830186886116a0565b905083604083015263ffffffff831660608301529695505050505050565b6000845161179281846020890161151d565b80830190507f2e0000000000000000000000000000000000000000000000000000000000000080825285516117ce816001850160208a0161151d565b600192019182015283516117e981600284016020880161151d565b0160020195945050505050565b7f4e487b7100000000000000000000000000000000000000000000000000000000600052601160045260246000fd5b600067ffffffffffffffff8083168185168183048111821515161561184c5761184c6117f6565b02949350505050565b7f4e487b7100000000000000000000000000000000000000000000000000000000600052601260045260246000fd5b600067ffffffffffffffff8084168061189f5761189f611855565b92169190910492915050565b600067ffffffffffffffff8083168185168083038211156118ce576118ce6117f6565b01949350505050565b7f4e487b7100000000000000000000000000000000000000000000000000000000600052600160045260246000fd5b73ffffffffffffffffffffffffffffffffffffffff8416815267ffffffffffffffff83166020820152606060408201526000611945606083018461154d565b95945050505050565b60007fffffffffffffffffffffffffffffffffffffffffffffffffffffffffffffffff820361197f5761197f6117f6565b5060010190565b60008261199557611995611855565b500490565b7f4e487b7100000000000000000000000000000000000000000000000000000000600052604160045260246000fd5b6000828210156119db576119db6117f6565b500390565b6000826119ef576119ef611855565b500690565b60008219821115611a0757611a076117f6565b500190565b7f4e487b7100000000000000000000000000000000000000000000000000000000600052603260045260246000fd5b868152600073ffffffffffffffffffffffffffffffffffffffff808816602084015280871660408401525084606083015283608083015260c060a0830152611a8660c083018461154d565b9897505050505050505056fea164736f6c634300080f000a"
}