{
  "address": "0xc0d3C0d3c0D3C0D3C0D3C0d3c0D3C0d3c0D30006",
  "abi": [
    {
      "type": "constructor",
      "payable": false,
      "inputs": [
        {
          "type": "address",
          "name": "_recipient"
        }
      ]
    },
    {
      "type": "event",
      "anonymous": false,
      "name": "Withdrawal",
      "inputs": [
        {
          "type": "uint256",
          "name": "value",
          "indexed": false
        },
        {
          "type": "address",
          "name": "to",
          "indexed": false
        },
        {
          "type": "address",
          "name": "from",
          "indexed": false
        }
      ]
    },
    {
      "type": "function",
      "name": "MIN_WITHDRAWAL_AMOUNT",
      "constant": true,
      "stateMutability": "view",
      "payable": false,
      "inputs": [],
      "outputs": [
        {
          "type": "uint256"
        }
      ]
    },
    {
      "type": "function",
      "name": "RECIPIENT",
      "constant": true,
      "stateMutability": "view",
      "payable": false,
      "inputs": [],
      "outputs": [
        {
          "type": "address"
        }
      ]
    },
    {
      "type": "function",
      "name": "totalProcessed",
      "constant": true,
      "stateMutability": "view",
      "payable": false,
      "inputs": [],
      "outputs": [
        {
          "type": "uint256"
        }
      ]
    },
    {
      "type": "function",
      "name": "version",
      "constant": true,
      "stateMutability": "view",
      "payable": false,
      "inputs": [],
      "outputs": [
        {
          "type": "string"
        }
      ]
    },
    {
      "type": "function",
      "name": "withdraw",
      "constant": false,
      "payable": false,
      "inputs": [],
      "outputs": []
    }
  ],
  "numDeployments": 1,
  "bytecode": "0x61012060405234801561001157600080fd5b5060405161086c38038061086c8339810160408190526100309161005d565b678ac7230489e800006080526001600160a01b031660a052600060c0819052600160e0526101005261008d565b60006020828403121561006f57600080fd5b81516001600160a01b038116811461008657600080fd5b9392505050565b60805160a05160c05160e051610100516107876100e560003960006103d3015260006103aa01526000610381015260008181607c015281816102570152610319015260008181610137015261015b01526107876000f3fe60806040526004361061005e5760003560e01c806354fd4d501161004357806354fd4d50146100df57806384411d6514610101578063d3e5792b1461012557600080fd5b80630d9019e11461006a5780633ccfd60b146100c857600080fd5b3661006557005b600080fd5b34801561007657600080fd5b5061009e7f000000000000000000000000000000000000000000000000000000000000000081565b60405173ffffffffffffffffffffffffffffffffffffffff90911681526020015b60405180910390f35b3480156100d457600080fd5b506100dd610159565b005b3480156100eb57600080fd5b506100f461037a565b6040516100bf9190610638565b34801561010d57600080fd5b5061011760005481565b6040519081526020016100bf565b34801561013157600080fd5b506101177f000000000000000000000000000000000000000000000000000000000000000081565b7f0000000000000000000000000000000000000000000000000000000000000000471015610233576040517f08c379a000000000000000000000000000000000000000000000000000000000815260206004820152604a60248201527f4665655661756c743a207769746864726177616c20616d6f756e74206d75737460448201527f2062652067726561746572207468616e206d696e696d756d207769746864726160648201527f77616c20616d6f756e7400000000000000000000000000000000000000000000608482015260a40160405180910390fd5b6000479050806000808282546102499190610652565b9091555050604080518281527f000000000000000000000000000000000000000000000000000000000000000073ffffffffffffffffffffffffffffffffffffffff166020820152338183015290517fc8a211cc64b6ed1b50595a9fcb1932b6d1e5a6e8ef15b60e5b1f988ea9086bba9181900360600190a1604080516020810182526000815290517fe11013dd0000000000000000000000000000000000000000000000000000000081527342000000000000000000000000000000000000099163e11013dd918491610345917f0000000000000000000000000000000000000000000000000000000000000000916188b891600401610691565b6000604051808303818588803b15801561035e57600080fd5b505af1158015610372573d6000803e3d6000fd5b505050505050565b60606103a57f000000000000000000000000000000000000000000000000000000000000000061041d565b6103ce7f000000000000000000000000000000000000000000000000000000000000000061041d565b6103f77f000000000000000000000000000000000000000000000000000000000000000061041d565b604051602001610409939291906106d5565b604051602081830303815290604052905090565b6060600061042a836104db565b600101905060008167ffffffffffffffff81111561044a5761044a61074b565b6040519080825280601f01601f191660200182016040528015610474576020820181803683370190505b5090508181016020015b7fffffffffffffffffffffffffffffffffffffffffffffffffffffffffffffffff017f3031323334353637383961626364656600000000000000000000000000000000600a86061a8153600a850494508461047e57509392505050565b6000807a184f03e93ff9f4daa797ed6e38ed64bf6a1f0100000000000000008310610524577a184f03e93ff9f4daa797ed6e38ed64bf6a1f010000000000000000830492506040015b6d04ee2d6d415b85acef81000000008310610550576d04ee2d6d415b85acef8100000000830492506020015b662386f26fc10000831061056e57662386f26fc10000830492506010015b6305f5e1008310610586576305f5e100830492506008015b612710831061059a57612710830492506004015b606483106105ac576064830492506002015b600a83106105b8576001015b92915050565b60005b838110156105d95781810151838201526020016105c1565b838111156105e8576000848401525b50505050565b600081518084526106068160208601602086016105be565b601f017fffffffffffffffffffffffffffffffffffffffffffffffffffffffffffffffe0169290920160200192915050565b60208152600061064b60208301846105ee565b9392505050565b6000821982111561068c577f4e487b7100000000000000000000000000000000000000000000000000000000600052601160045260246000fd5b500190565b73ffffffffffffffffffffffffffffffffffffffff8416815263ffffffff831660208201526060604082015260006106cc60608301846105ee565b95945050505050565b600084516106e78184602089016105be565b80830190507f2e000000000000000000000000000000000000000000000000000000000000008082528551610723816001850160208a016105be565b6001920191820152835161073e8160028401602088016105be565b0160020195945050505050565b7f4e487b7100000000000000000000000000000000000000000000000000000000600052604160045260246000fdfea164736f6c634300080f000a",
  "deployedBytecode": "0x60806040526004361061005e5760003560e01c806354fd4d501161004357806354fd4d50146100df57806384411d6514610101578063d3e5792b1461012557600080fd5b80630d9019e11461006a5780633ccfd60b146100c857600080fd5b3661006557005b600080fd5b34801561007657600080fd5b5061009e7f000000000000000000000000b5d7c1921fdbdea614f264a75ca0be416cf63eb581565b60405173ffffffffffffffffffffffffffffffffffffffff90911681526020015b60405180910390f35b3480156100d457600080fd5b506100dd610159565b005b3480156100eb57600080fd5b506100f461037a565b6040516100bf91906105d4565b34801561010d57600080fd5b5061011760005481565b6040519081526020016100bf565b34801561013157600080fd5b506101177f0000000000000000000000000000000000000000000000008ac7230489e8000081565b7f0000000000000000000000000000000000000000000000008ac7230489e80000471015610233576040517f08c379a000000000000000000000000000000000000000000000000000000000815260206004820152604a60248201527f4665655661756c743a207769746864726177616c20616d6f756e74206d75737460448201527f2062652067726561746572207468616e206d696e696d756d207769746864726160648201527f77616c20616d6f756e7400000000000000000000000000000000000000000000608482015260a40160405180910390fd5b600047905080600080828254610249919061061d565b9091555050604080518281527f000000000000000000000000b5d7c1921fdbdea614f264a75ca0be416cf63eb573ffffffffffffffffffffffffffffffffffffffff166020820152338183015290517fc8a211cc64b6ed1b50595a9fcb1932b6d1e5a6e8ef15b60e5b1f988ea9086bba9181900360600190a1604080516020810182526000815290517fe11013dd0000000000000000000000000000000000000000000000000000000081527342000000000000000000000000000000000000099163e11013dd918491610345917f000000000000000000000000b5d7c1921fdbdea614f264a75ca0be416cf63eb5916188b891600401610635565b6000604051808303818588803b15801561035e57600080fd5b505af1158015610372573d6000803e3d6000fd5b505050505050565b60606103a57f000000000000000000000000000000000000000000000000000000000000000061041d565b6103ce7f000000000000000000000000000000000000000000000000000000000000000161041d565b6103f77f000000000000000000000000000000000000000000000000000000000000000061041d565b60405160200161040993929190610679565b604051602081830303815290604052905090565b60608160000361046057505060408051808201909152600181527f3000000000000000000000000000000000000000000000000000000000000000602082015290565b8160005b811561048a5780610474816106ef565b91506104839050600a83610756565b9150610464565b60008167ffffffffffffffff8111156104a5576104a561076a565b6040519080825280601f01601f1916602001820160405280156104cf576020820181803683370190505b5090505b8415610552576104e4600183610799565b91506104f1600a866107b0565b6104fc90603061061d565b60f81b818381518110610511576105116107c4565b60200101907effffffffffffffffffffffffffffffffffffffffffffffffffffffffffffff1916908160001a90535061054b600a86610756565b94506104d3565b949350505050565b60005b8381101561057557818101518382015260200161055d565b83811115610584576000848401525b50505050565b600081518084526105a281602086016020860161055a565b601f017fffffffffffffffffffffffffffffffffffffffffffffffffffffffffffffffe0169290920160200192915050565b6020815260006105e7602083018461058a565b9392505050565b7f4e487b7100000000000000000000000000000000000000000000000000000000600052601160045260246000fd5b60008219821115610630576106306105ee565b500190565b73ffffffffffffffffffffffffffffffffffffffff8416815263ffffffff83166020820152606060408201526000610670606083018461058a565b95945050505050565b6000845161068b81846020890161055a565b80830190507f2e0000000000000000000000000000000000000000000000000000000000000080825285516106c7816001850160208a0161055a565b600192019182015283516106e281600284016020880161055a565b0160020195945050505050565b60007fffffffffffffffffffffffffffffffffffffffffffffffffffffffffffffffff8203610720576107206105ee565b5060010190565b7f4e487b7100000000000000000000000000000000000000000000000000000000600052601260045260246000fd5b60008261076557610765610727565b500490565b7f4e487b7100000000000000000000000000000000000000000000000000000000600052604160045260246000fd5b6000828210156107ab576107ab6105ee565b500390565b6000826107bf576107bf610727565b500690565b7f4e487b7100000000000000000000000000000000000000000000000000000000600052603260045260246000fdfea164736f6c634300080f000a"
}