{
  "address": "0x9f942C1D6Bb3DcE3DBc8D932579340B51a03789f",
  "abi": [
    {
      "type": "constructor",
      "inputs": [
        {
          "name": "_validatorPool",
          "type": "address",
          "internalType": "address"
        },
        {
          "name": "_rewardDivider",
          "type": "uint256",
          "internalType": "uint256"
        }
      ],
      "stateMutability": "nonpayable"
    },
    {
      "type": "receive",
      "stateMutability": "payable"
    },
    {
      "type": "function",
      "name": "MIN_WITHDRAWAL_AMOUNT",
      "inputs": [],
      "outputs": [
        {
          "name": "",
          "type": "uint256",
          "internalType": "uint256"
        }
      ],
      "stateMutability": "view"
    },
    {
      "type": "function",
      "name": "RECIPIENT",
      "inputs": [],
      "outputs": [
        {
          "name": "",
          "type": "address",
          "internalType": "address"
        }
      ],
      "stateMutability": "view"
    },
    {
      "type": "function",
      "name": "REWARD_DIVIDER",
      "inputs": [],
      "outputs": [
        {
          "name": "",
          "type": "uint256",
          "internalType": "uint256"
        }
      ],
      "stateMutability": "view"
    },
    {
      "type": "function",
      "name": "VALIDATOR_POOL",
      "inputs": [],
      "outputs": [
        {
          "name": "",
          "type": "address",
          "internalType": "address"
        }
      ],
      "stateMutability": "view"
    },
    {
      "type": "function",
      "name": "balanceOf",
      "inputs": [
        {
          "name": "_addr",
          "type": "address",
          "internalType": "address"
        }
      ],
      "outputs": [
        {
          "name": "",
          "type": "uint256",
          "internalType": "uint256"
        }
      ],
      "stateMutability": "view"
    },
    {
      "type": "function",
      "name": "reward",
      "inputs": [
        {
          "name": "_validator",
          "type": "address",
          "internalType": "address"
        },
        {
          "name": "_l2BlockNumber",
          "type": "uint256",
          "internalType": "uint256"
        }
      ],
      "outputs": [],
      "stateMutability": "nonpayable"
    },
    {
      "type": "function",
      "name": "totalProcessed",
      "inputs": [],
      "outputs": [
        {
          "name": "",
          "type": "uint256",
          "internalType": "uint256"
        }
      ],
      "stateMutability": "view"
    },
    {
      "type": "function",
      "name": "totalReserved",
      "inputs": [],
      "outputs": [
        {
          "name": "",
          "type": "uint256",
          "internalType": "uint256"
        }
      ],
      "stateMutability": "view"
    },
    {
      "type": "function",
      "name": "version",
      "inputs": [],
      "outputs": [
        {
          "name": "",
          "type": "string",
          "internalType": "string"
        }
      ],
      "stateMutability": "view"
    },
    {
      "type": "function",
      "name": "withdraw",
      "inputs": [],
      "outputs": [],
      "stateMutability": "nonpayable"
    },
    {
      "type": "function",
      "name": "withdrawToL2",
      "inputs": [],
      "outputs": [],
      "stateMutability": "nonpayable"
    },
    {
      "type": "function",
      "name": "withdrawToProtocolVault",
      "inputs": [],
      "outputs": [],
      "stateMutability": "nonpayable"
    },
    {
      "type": "event",
      "name": "Rewarded",
      "inputs": [
        {
          "name": "validator",
          "type": "address",
          "indexed": true,
          "internalType": "address"
        },
        {
          "name": "l2BlockNumber",
          "type": "uint256",
          "indexed": true,
          "internalType": "uint256"
        },
        {
          "name": "amount",
          "type": "uint256",
          "indexed": false,
          "internalType": "uint256"
        }
      ],
      "anonymous": false
    },
    {
      "type": "event",
      "name": "Withdrawal",
      "inputs": [
        {
          "name": "value",
          "type": "uint256",
          "indexed": false,
          "internalType": "uint256"
        },
        {
          "name": "to",
          "type": "address",
          "indexed": false,
          "internalType": "address"
        },
        {
          "name": "from",
          "type": "address",
          "indexed": false,
          "internalType": "address"
        }
      ],
      "anonymous": false
    }
  ],
  "transactionHash": "0x87b0f58eb5f62af4c1b21472f1fbbe59187d8db8aed5b30f0c8f4bc297dadd13",
  "args": [
    "0xbc171C51D9e3E0b24AA4606824e45F93DdE6E352",
    36
  ],
  "numDeployments": 3,
  "solcInputHash": "c9375212ffd331436ce484e7026e4f56",
  "bytecode": "0x61010060405234801561001157600080fd5b50604051610d31380380610d3183398101604081905261003091610051565b6000608081905260a0526001600160a01b039190911660c05260e05261008b565b6000806040838503121561006457600080fd5b82516001600160a01b038116811461007b57600080fd5b6020939093015192949293505050565b60805160a05160c05160e051610c596100d8600039600081816101e9015261091301526000818161029901526105070152600060e90152600081816102e301526109610152610c596000f3fe6080604052600436106100cb5760003560e01c80636ed39f6211610074578063b98debbf1161004e578063b98debbf14610287578063c71b0e1c146102bb578063d3e5792b146102d157600080fd5b80636ed39f621461021957806370a082311461022e57806384411d651461027157600080fd5b80633ccfd60b116100a55780633ccfd60b1461016c57806354fd4d501461018157806362aba76b146101d757600080fd5b80630d9019e1146100d75780631d546b4b1461013557806321670f221461014c57600080fd5b366100d257005b600080fd5b3480156100e357600080fd5b5061010b7f000000000000000000000000000000000000000000000000000000000000000081565b60405173ffffffffffffffffffffffffffffffffffffffff90911681526020015b60405180910390f35b34801561014157600080fd5b5061014a610305565b005b34801561015857600080fd5b5061014a610167366004610ac5565b6104f0565b34801561017857600080fd5b5061014a61082a565b34801561018d57600080fd5b506101ca6040518060400160405280600581526020017f312e302e3100000000000000000000000000000000000000000000000000000081525081565b60405161012c9190610b5a565b3480156101e357600080fd5b5061020b7f000000000000000000000000000000000000000000000000000000000000000081565b60405190815260200161012c565b34801561022557600080fd5b5061014a6108d0565b34801561023a57600080fd5b5061020b610249366004610b74565b73ffffffffffffffffffffffffffffffffffffffff1660009081526001602052604090205490565b34801561027d57600080fd5b5061020b60005481565b34801561029357600080fd5b5061010b7f000000000000000000000000000000000000000000000000000000000000000081565b3480156102c757600080fd5b5061020b60035481565b3480156102dd57600080fd5b5061020b7f000000000000000000000000000000000000000000000000000000000000000081565b6000600354476103159190610b8f565b9050600081116103d2576040517f08c379a000000000000000000000000000000000000000000000000000000000815260206004820152604160248201527f56616c696461746f725265776172645661756c743a207769746864726177616c60448201527f20616d6f756e74206d7573742062652067726561746572207468616e207a657260648201527f6f00000000000000000000000000000000000000000000000000000000000000608482015260a4015b60405180910390fd5b6000805482019055604080518281527342000000000000000000000000000000000000066020820152338183015290517fc8a211cc64b6ed1b50595a9fcb1932b6d1e5a6e8ef15b60e5b1f988ea9086bba9181900360600190a1600061045d7342000000000000000000000000000000000000065a84604051806020016040528060008152506108f5565b9050806104ec576040517f08c379a000000000000000000000000000000000000000000000000000000000815260206004820152602960248201527f56616c696461746f725265776172645661756c743a20455448207472616e736660448201527f6572206661696c6564000000000000000000000000000000000000000000000060648201526084016103c9565b5050565b73ffffffffffffffffffffffffffffffffffffffff7f0000000000000000000000000000000000000000000000000000000000000000167fffffffffffffffffffffffffeeeeffffffffffffffffffffffffffffffffeeef330173ffffffffffffffffffffffffffffffffffffffff1614610613576040517f08c379a000000000000000000000000000000000000000000000000000000000815260206004820152604860248201527f56616c696461746f725265776172645661756c743a2066756e6374696f6e206360448201527f616e206f6e6c792062652063616c6c65642066726f6d207468652056616c696460648201527f61746f72506f6f6c000000000000000000000000000000000000000000000000608482015260a4016103c9565b73ffffffffffffffffffffffffffffffffffffffff82166106b6576040517f08c379a000000000000000000000000000000000000000000000000000000000815260206004820152603360248201527f56616c696461746f725265776172645661756c743a2076616c696461746f722060448201527f616464726573732063616e6e6f7420626520300000000000000000000000000060648201526084016103c9565b60008181526002602052604090205460ff161561077b576040517f08c379a000000000000000000000000000000000000000000000000000000000815260206004820152604e60248201527f56616c696461746f725265776172645661756c743a207468652072657761726460448201527f2068617320616c7265616479206265656e207061696420666f7220746865204c60648201527f3220626c6f636b206e756d626572000000000000000000000000000000000000608482015260a4016103c9565b600061078561090f565b600380548201905573ffffffffffffffffffffffffffffffffffffffff84166000818152600160208181526040808420805487019055878452600282529283902080547fffffffffffffffffffffffffffffffffffffffffffffffffffffffffffffff0016909217909155905183815292935084927f291e8ba3c0f4b0bd86e6e2346fcee1e7ca0975b1cc1886bfbc722d34f3f24d91910160405180910390a3505050565b600061083461094f565b604080516020810182526000815290517fe11013dd0000000000000000000000000000000000000000000000000000000081529192507342000000000000000000000000000000000000099163e11013dd91849161089b9133916188b89190600401610bcd565b6000604051808303818588803b1580156108b457600080fd5b505af11580156108c8573d6000803e3d6000fd5b505050505050565b60006108da61094f565b9050600061045d335a84604051806020016040528060008152505b600080600080845160208601878a8af19695505050505050565b60007f0000000000000000000000000000000000000000000000000000000000000000600354476109409190610b8f565b61094a9190610c11565b905090565b336000908152600160205260408120547f0000000000000000000000000000000000000000000000000000000000000000811015610a35576040517f08c379a000000000000000000000000000000000000000000000000000000000815260206004820152605660248201527f56616c696461746f725265776172645661756c743a207769746864726177616c60448201527f20616d6f756e74206d7573742062652067726561746572207468616e206d696e60648201527f696d756d207769746864726177616c20616d6f756e7400000000000000000000608482015260a4016103c9565b33600081815260016020908152604080832083905560038054869003905582548501909255815184815290810183905280820192909252517fc8a211cc64b6ed1b50595a9fcb1932b6d1e5a6e8ef15b60e5b1f988ea9086bba9181900360600190a1919050565b803573ffffffffffffffffffffffffffffffffffffffff81168114610ac057600080fd5b919050565b60008060408385031215610ad857600080fd5b610ae183610a9c565b946020939093013593505050565b6000815180845260005b81811015610b1557602081850181015186830182015201610af9565b81811115610b27576000602083870101525b50601f017fffffffffffffffffffffffffffffffffffffffffffffffffffffffffffffffe0169290920160200192915050565b602081526000610b6d6020830184610aef565b9392505050565b600060208284031215610b8657600080fd5b610b6d82610a9c565b600082821015610bc8577f4e487b7100000000000000000000000000000000000000000000000000000000600052601160045260246000fd5b500390565b73ffffffffffffffffffffffffffffffffffffffff8416815263ffffffff83166020820152606060408201526000610c086060830184610aef565b95945050505050565b600082610c47577f4e487b7100000000000000000000000000000000000000000000000000000000600052601260045260246000fd5b50049056fea164736f6c634300080f000a",
  "devdoc": {
    "version": 1,
    "kind": "dev",
    "methods": {
      "balanceOf(address)": {
        "params": {
          "_addr": "Address to lookup."
        },
        "returns": {
          "_0": "The reward balance of the given address."
        }
      },
      "constructor": {
        "params": {
          "_rewardDivider": "A value to divide the vault balance by when determining the reward amount.",
          "_validatorPool": "Address of the ValidatorPool contract on L1."
        }
      },
      "reward(address,uint256)": {
        "params": {
          "_l2BlockNumber": "The L2 block number of the output root.",
          "_validator": "Address of the validator."
        }
      }
    },
    "events": {
      "Rewarded(address,uint256,uint256)": {
        "params": {
          "amount": "Amount of the reward.",
          "l2BlockNumber": "The L2 block number of the output root.",
          "validator": "Address of the validator."
        }
      }
    },
    "title": "ValidatorRewardVault"
  },
  "userdoc": {
    "version": 1,
    "kind": "user",
    "methods": {
      "MIN_WITHDRAWAL_AMOUNT()": {
        "notice": "Minimum balance before a withdrawal can be triggered."
      },
      "RECIPIENT()": {
        "notice": "Wallet that will receive the fees on L1."
      },
      "REWARD_DIVIDER()": {
        "notice": "A value to divide the vault balance by when determining the reward amount."
      },
      "VALIDATOR_POOL()": {
        "notice": "Address of the ValidatorPool contract on L1."
      },
      "balanceOf(address)": {
        "notice": "Returns the reward balance of the given address."
      },
      "constructor": {
        "notice": "Constructs the ValidatorRewardVault contract."
      },
      "reward(address,uint256)": {
        "notice": "Rewards the validator for submitting the output.         ValidatorPool contract on L1 calls this function over the portal when output is finalized."
      },
      "totalProcessed()": {
        "notice": "Total amount of wei processed by the contract."
      },
      "totalReserved()": {
        "notice": "The amount of determined as rewards."
      },
      "version()": {
        "notice": "Semantic version."
      },
      "withdraw()": {
        "notice": "Withdraws all of the sender's balance.         Reverts if the balance is less than the minimum withdrawal amount."
      },
      "withdrawToL2()": {
        "notice": "Withdraws all of the sender's balance to L2.         Reverts if the balance is less than the minimum withdrawal amount."
      },
      "withdrawToProtocolVault()": {
        "notice": "Withdraws all remaining contract balance excluding reserved amount to ProtocolVault.         Reverts if the available withdraw amount is 0.         Note that this function is added not to use this contract anymore."
      }
    },
    "events": {
      "Rewarded(address,uint256,uint256)": {
        "notice": "Emitted when the balance of a validator has increased."
      },
      "Withdrawal(uint256,address,address)": {
        "notice": "Emits each time that a withdrawal occurs."
      }
    },
    "notice": "The ValidatorRewardVault accumulates transaction fees and pays rewards to validators."
  },
  "storageLayout": {
    "storage": [
      {
        "astId": 79944,
        "contract": "contracts/L2/ValidatorRewardVault.sol:ValidatorRewardVault",
        "label": "totalProcessed",
        "offset": 0,
        "slot": "0",
        "type": "t_uint256"
      },
      {
        "astId": 19095,
        "contract": "contracts/L2/ValidatorRewardVault.sol:ValidatorRewardVault",
        "label": "rewards",
        "offset": 0,
        "slot": "1",
        "type": "t_mapping(t_address,t_uint256)"
      },
      {
        "astId": 19100,
        "contract": "contracts/L2/ValidatorRewardVault.sol:ValidatorRewardVault",
        "label": "isPaid",
        "offset": 0,
        "slot": "2",
        "type": "t_mapping(t_uint256,t_bool)"
      },
      {
        "astId": 19103,
        "contract": "contracts/L2/ValidatorRewardVault.sol:ValidatorRewardVault",
        "label": "totalReserved",
        "offset": 0,
        "slot": "3",
        "type": "t_uint256"
      }
    ],
    "types": {
      "t_address": {
        "encoding": "inplace",
        "label": "address",
        "numberOfBytes": "20"
      },
      "t_bool": {
        "encoding": "inplace",
        "label": "bool",
        "numberOfBytes": "1"
      },
      "t_mapping(t_address,t_uint256)": {
        "encoding": "mapping",
        "key": "t_address",
        "label": "mapping(address => uint256)",
        "numberOfBytes": "32",
        "value": "t_uint256"
      },
      "t_mapping(t_uint256,t_bool)": {
        "encoding": "mapping",
        "key": "t_uint256",
        "label": "mapping(uint256 => bool)",
        "numberOfBytes": "32",
        "value": "t_bool"
      },
      "t_uint256": {
        "encoding": "inplace",
        "label": "uint256",
        "numberOfBytes": "32"
      }
    }
  }
}