{
  "address": "0x3ed0f47c2800B5d287EA5Ef64543Dd8DD10CaDA6",
  "abi": [
    {
      "inputs": [
        {
          "internalType": "contract L2OutputOracle",
          "name": "_l2Oracle",
          "type": "address"
        },
        {
          "internalType": "contract ZKVerifier",
          "name": "_zkVerifier",
          "type": "address"
        },
        {
          "internalType": "uint256",
          "name": "_submissionInterval",
          "type": "uint256"
        },
        {
          "internalType": "uint256",
          "name": "_creationPeriodSeconds",
          "type": "uint256"
        },
        {
          "internalType": "uint256",
          "name": "_bisectionTimeout",
          "type": "uint256"
        },
        {
          "internalType": "uint256",
          "name": "_provingTimeout",
          "type": "uint256"
        },
        {
          "internalType": "bytes32",
          "name": "_dummyHash",
          "type": "bytes32"
        },
        {
          "internalType": "uint256",
          "name": "_maxTxs",
          "type": "uint256"
        },
        {
          "internalType": "uint256[]",
          "name": "_segmentsLengths",
          "type": "uint256[]"
        },
        {
          "internalType": "address",
          "name": "_securityCouncil",
          "type": "address"
        },
        {
          "internalType": "address",
          "name": "_zkMerkleTrie",
          "type": "address"
        }
      ],
      "stateMutability": "nonpayable",
      "type": "constructor"
    },
    {
      "anonymous": false,
      "inputs": [
        {
          "indexed": true,
          "internalType": "uint256",
          "name": "outputIndex",
          "type": "uint256"
        },
        {
          "indexed": true,
          "internalType": "address",
          "name": "challenger",
          "type": "address"
        },
        {
          "indexed": false,
          "internalType": "uint8",
          "name": "turn",
          "type": "uint8"
        },
        {
          "indexed": false,
          "internalType": "uint256",
          "name": "timestamp",
          "type": "uint256"
        }
      ],
      "name": "Bisected",
      "type": "event"
    },
    {
      "anonymous": false,
      "inputs": [
        {
          "indexed": true,
          "internalType": "uint256",
          "name": "outputIndex",
          "type": "uint256"
        },
        {
          "indexed": true,
          "internalType": "address",
          "name": "challenger",
          "type": "address"
        },
        {
          "indexed": false,
          "internalType": "uint256",
          "name": "timestamp",
          "type": "uint256"
        }
      ],
      "name": "ChallengeCanceled",
      "type": "event"
    },
    {
      "anonymous": false,
      "inputs": [
        {
          "indexed": true,
          "internalType": "uint256",
          "name": "outputIndex",
          "type": "uint256"
        },
        {
          "indexed": true,
          "internalType": "address",
          "name": "asserter",
          "type": "address"
        },
        {
          "indexed": true,
          "internalType": "address",
          "name": "challenger",
          "type": "address"
        },
        {
          "indexed": false,
          "internalType": "uint256",
          "name": "timestamp",
          "type": "uint256"
        }
      ],
      "name": "ChallengeCreated",
      "type": "event"
    },
    {
      "anonymous": false,
      "inputs": [
        {
          "indexed": true,
          "internalType": "uint256",
          "name": "outputIndex",
          "type": "uint256"
        },
        {
          "indexed": true,
          "internalType": "address",
          "name": "challenger",
          "type": "address"
        },
        {
          "indexed": false,
          "internalType": "uint256",
          "name": "timestamp",
          "type": "uint256"
        }
      ],
      "name": "ChallengeDismissed",
      "type": "event"
    },
    {
      "anonymous": false,
      "inputs": [
        {
          "indexed": true,
          "internalType": "uint256",
          "name": "outputIndex",
          "type": "uint256"
        },
        {
          "indexed": true,
          "internalType": "address",
          "name": "challenger",
          "type": "address"
        },
        {
          "indexed": false,
          "internalType": "uint256",
          "name": "timestamp",
          "type": "uint256"
        }
      ],
      "name": "ChallengerTimedOut",
      "type": "event"
    },
    {
      "anonymous": false,
      "inputs": [
        {
          "indexed": false,
          "internalType": "uint8",
          "name": "version",
          "type": "uint8"
        }
      ],
      "name": "Initialized",
      "type": "event"
    },
    {
      "anonymous": false,
      "inputs": [
        {
          "indexed": true,
          "internalType": "uint256",
          "name": "outputIndex",
          "type": "uint256"
        },
        {
          "indexed": true,
          "internalType": "address",
          "name": "challenger",
          "type": "address"
        },
        {
          "indexed": false,
          "internalType": "uint256",
          "name": "timestamp",
          "type": "uint256"
        }
      ],
      "name": "Proven",
      "type": "event"
    },
    {
      "anonymous": false,
      "inputs": [
        {
          "indexed": true,
          "internalType": "uint256",
          "name": "outputIndex",
          "type": "uint256"
        },
        {
          "indexed": true,
          "internalType": "address",
          "name": "challenger",
          "type": "address"
        }
      ],
      "name": "ReadyToProve",
      "type": "event"
    },
    {
      "inputs": [],
      "name": "BISECTION_TIMEOUT",
      "outputs": [
        {
          "internalType": "uint256",
          "name": "",
          "type": "uint256"
        }
      ],
      "stateMutability": "view",
      "type": "function"
    },
    {
      "inputs": [],
      "name": "CREATION_PERIOD_SECONDS",
      "outputs": [
        {
          "internalType": "uint256",
          "name": "",
          "type": "uint256"
        }
      ],
      "stateMutability": "view",
      "type": "function"
    },
    {
      "inputs": [],
      "name": "DUMMY_HASH",
      "outputs": [
        {
          "internalType": "bytes32",
          "name": "",
          "type": "bytes32"
        }
      ],
      "stateMutability": "view",
      "type": "function"
    },
    {
      "inputs": [],
      "name": "L2_ORACLE",
      "outputs": [
        {
          "internalType": "contract L2OutputOracle",
          "name": "",
          "type": "address"
        }
      ],
      "stateMutability": "view",
      "type": "function"
    },
    {
      "inputs": [],
      "name": "L2_ORACLE_SUBMISSION_INTERVAL",
      "outputs": [
        {
          "internalType": "uint256",
          "name": "",
          "type": "uint256"
        }
      ],
      "stateMutability": "view",
      "type": "function"
    },
    {
      "inputs": [],
      "name": "MAX_TXS",
      "outputs": [
        {
          "internalType": "uint256",
          "name": "",
          "type": "uint256"
        }
      ],
      "stateMutability": "view",
      "type": "function"
    },
    {
      "inputs": [],
      "name": "PROVING_TIMEOUT",
      "outputs": [
        {
          "internalType": "uint256",
          "name": "",
          "type": "uint256"
        }
      ],
      "stateMutability": "view",
      "type": "function"
    },
    {
      "inputs": [],
      "name": "SECURITY_COUNCIL",
      "outputs": [
        {
          "internalType": "address",
          "name": "",
          "type": "address"
        }
      ],
      "stateMutability": "view",
      "type": "function"
    },
    {
      "inputs": [],
      "name": "ZK_MERKLE_TRIE",
      "outputs": [
        {
          "internalType": "address",
          "name": "",
          "type": "address"
        }
      ],
      "stateMutability": "view",
      "type": "function"
    },
    {
      "inputs": [],
      "name": "ZK_VERIFIER",
      "outputs": [
        {
          "internalType": "contract ZKVerifier",
          "name": "",
          "type": "address"
        }
      ],
      "stateMutability": "view",
      "type": "function"
    },
    {
      "inputs": [
        {
          "internalType": "uint256",
          "name": "_outputIndex",
          "type": "uint256"
        },
        {
          "internalType": "address",
          "name": "_challenger",
          "type": "address"
        },
        {
          "internalType": "uint256",
          "name": "_pos",
          "type": "uint256"
        },
        {
          "internalType": "bytes32[]",
          "name": "_segments",
          "type": "bytes32[]"
        }
      ],
      "name": "bisect",
      "outputs": [],
      "stateMutability": "nonpayable",
      "type": "function"
    },
    {
      "inputs": [
        {
          "internalType": "uint256",
          "name": "_outputIndex",
          "type": "uint256"
        }
      ],
      "name": "cancelChallenge",
      "outputs": [],
      "stateMutability": "nonpayable",
      "type": "function"
    },
    {
      "inputs": [
        {
          "internalType": "uint256",
          "name": "_outputIndex",
          "type": "uint256"
        },
        {
          "internalType": "address",
          "name": "_challenger",
          "type": "address"
        }
      ],
      "name": "challengerTimeout",
      "outputs": [],
      "stateMutability": "nonpayable",
      "type": "function"
    },
    {
      "inputs": [
        {
          "internalType": "uint256",
          "name": "",
          "type": "uint256"
        },
        {
          "internalType": "address",
          "name": "",
          "type": "address"
        }
      ],
      "name": "challenges",
      "outputs": [
        {
          "internalType": "uint8",
          "name": "turn",
          "type": "uint8"
        },
        {
          "internalType": "uint64",
          "name": "timeoutAt",
          "type": "uint64"
        },
        {
          "internalType": "address",
          "name": "asserter",
          "type": "address"
        },
        {
          "internalType": "address",
          "name": "challenger",
          "type": "address"
        },
        {
          "internalType": "uint256",
          "name": "segSize",
          "type": "uint256"
        },
        {
          "internalType": "uint256",
          "name": "segStart",
          "type": "uint256"
        }
      ],
      "stateMutability": "view",
      "type": "function"
    },
    {
      "inputs": [
        {
          "internalType": "uint256",
          "name": "_outputIndex",
          "type": "uint256"
        },
        {
          "internalType": "bytes32",
          "name": "_l1BlockHash",
          "type": "bytes32"
        },
        {
          "internalType": "uint256",
          "name": "_l1BlockNumber",
          "type": "uint256"
        },
        {
          "internalType": "bytes32[]",
          "name": "_segments",
          "type": "bytes32[]"
        }
      ],
      "name": "createChallenge",
      "outputs": [],
      "stateMutability": "nonpayable",
      "type": "function"
    },
    {
      "inputs": [
        {
          "internalType": "uint256",
          "name": "_outputIndex",
          "type": "uint256"
        },
        {
          "internalType": "address",
          "name": "_challenger",
          "type": "address"
        },
        {
          "internalType": "address",
          "name": "_asserter",
          "type": "address"
        },
        {
          "internalType": "bytes32",
          "name": "_outputRoot",
          "type": "bytes32"
        },
        {
          "internalType": "bytes32",
          "name": "_publicInputHash",
          "type": "bytes32"
        }
      ],
      "name": "dismissChallenge",
      "outputs": [],
      "stateMutability": "nonpayable",
      "type": "function"
    },
    {
      "inputs": [
        {
          "internalType": "uint256",
          "name": "_outputIndex",
          "type": "uint256"
        }
      ],
      "name": "forceDeleteOutput",
      "outputs": [],
      "stateMutability": "nonpayable",
      "type": "function"
    },
    {
      "inputs": [
        {
          "internalType": "uint256",
          "name": "_outputIndex",
          "type": "uint256"
        },
        {
          "internalType": "address",
          "name": "_challenger",
          "type": "address"
        }
      ],
      "name": "getChallenge",
      "outputs": [
        {
          "components": [
            {
              "internalType": "uint8",
              "name": "turn",
              "type": "uint8"
            },
            {
              "internalType": "uint64",
              "name": "timeoutAt",
              "type": "uint64"
            },
            {
              "internalType": "address",
              "name": "asserter",
              "type": "address"
            },
            {
              "internalType": "address",
              "name": "challenger",
              "type": "address"
            },
            {
              "internalType": "bytes32[]",
              "name": "segments",
              "type": "bytes32[]"
            },
            {
              "internalType": "uint256",
              "name": "segSize",
              "type": "uint256"
            },
            {
              "internalType": "uint256",
              "name": "segStart",
              "type": "uint256"
            }
          ],
          "internalType": "struct Types.Challenge",
          "name": "",
          "type": "tuple"
        }
      ],
      "stateMutability": "view",
      "type": "function"
    },
    {
      "inputs": [
        {
          "internalType": "uint8",
          "name": "_turn",
          "type": "uint8"
        }
      ],
      "name": "getSegmentsLength",
      "outputs": [
        {
          "internalType": "uint256",
          "name": "",
          "type": "uint256"
        }
      ],
      "stateMutability": "view",
      "type": "function"
    },
    {
      "inputs": [
        {
          "internalType": "uint256",
          "name": "_outputIndex",
          "type": "uint256"
        },
        {
          "internalType": "address",
          "name": "_challenger",
          "type": "address"
        }
      ],
      "name": "getStatus",
      "outputs": [
        {
          "internalType": "enum Colosseum.ChallengeStatus",
          "name": "",
          "type": "uint8"
        }
      ],
      "stateMutability": "view",
      "type": "function"
    },
    {
      "inputs": [
        {
          "internalType": "uint256[]",
          "name": "_segmentsLengths",
          "type": "uint256[]"
        }
      ],
      "name": "initialize",
      "outputs": [],
      "stateMutability": "nonpayable",
      "type": "function"
    },
    {
      "inputs": [
        {
          "internalType": "uint256",
          "name": "_outputIndex",
          "type": "uint256"
        },
        {
          "internalType": "address",
          "name": "_challenger",
          "type": "address"
        }
      ],
      "name": "isAbleToBisect",
      "outputs": [
        {
          "internalType": "bool",
          "name": "",
          "type": "bool"
        }
      ],
      "stateMutability": "view",
      "type": "function"
    },
    {
      "inputs": [
        {
          "internalType": "uint256",
          "name": "_outputIndex",
          "type": "uint256"
        }
      ],
      "name": "isInCreationPeriod",
      "outputs": [
        {
          "internalType": "bool",
          "name": "",
          "type": "bool"
        }
      ],
      "stateMutability": "view",
      "type": "function"
    },
    {
      "inputs": [
        {
          "internalType": "uint256",
          "name": "_outputIndex",
          "type": "uint256"
        },
        {
          "internalType": "uint256",
          "name": "_pos",
          "type": "uint256"
        },
        {
          "components": [
            {
              "components": [
                {
                  "internalType": "bytes32",
                  "name": "version",
                  "type": "bytes32"
                },
                {
                  "internalType": "bytes32",
                  "name": "stateRoot",
                  "type": "bytes32"
                },
                {
                  "internalType": "bytes32",
                  "name": "messagePasserStorageRoot",
                  "type": "bytes32"
                },
                {
                  "internalType": "bytes32",
                  "name": "blockHash",
                  "type": "bytes32"
                },
                {
                  "internalType": "bytes32",
                  "name": "nextBlockHash",
                  "type": "bytes32"
                }
              ],
              "internalType": "struct Types.OutputRootProof",
              "name": "srcOutputRootProof",
              "type": "tuple"
            },
            {
              "components": [
                {
                  "internalType": "bytes32",
                  "name": "version",
                  "type": "bytes32"
                },
                {
                  "internalType": "bytes32",
                  "name": "stateRoot",
                  "type": "bytes32"
                },
                {
                  "internalType": "bytes32",
                  "name": "messagePasserStorageRoot",
                  "type": "bytes32"
                },
                {
                  "internalType": "bytes32",
                  "name": "blockHash",
                  "type": "bytes32"
                },
                {
                  "internalType": "bytes32",
                  "name": "nextBlockHash",
                  "type": "bytes32"
                }
              ],
              "internalType": "struct Types.OutputRootProof",
              "name": "dstOutputRootProof",
              "type": "tuple"
            },
            {
              "components": [
                {
                  "internalType": "bytes32",
                  "name": "blockHash",
                  "type": "bytes32"
                },
                {
                  "internalType": "bytes32",
                  "name": "parentHash",
                  "type": "bytes32"
                },
                {
                  "internalType": "uint64",
                  "name": "timestamp",
                  "type": "uint64"
                },
                {
                  "internalType": "uint64",
                  "name": "number",
                  "type": "uint64"
                },
                {
                  "internalType": "uint64",
                  "name": "gasLimit",
                  "type": "uint64"
                },
                {
                  "internalType": "uint256",
                  "name": "baseFee",
                  "type": "uint256"
                },
                {
                  "internalType": "bytes32",
                  "name": "transactionsRoot",
                  "type": "bytes32"
                },
                {
                  "internalType": "bytes32",
                  "name": "stateRoot",
                  "type": "bytes32"
                },
                {
                  "internalType": "bytes32",
                  "name": "withdrawalsRoot",
                  "type": "bytes32"
                },
                {
                  "internalType": "bytes32[]",
                  "name": "txHashes",
                  "type": "bytes32[]"
                }
              ],
              "internalType": "struct Types.PublicInput",
              "name": "publicInput",
              "type": "tuple"
            },
            {
              "components": [
                {
                  "internalType": "bytes",
                  "name": "uncleHash",
                  "type": "bytes"
                },
                {
                  "internalType": "bytes",
                  "name": "coinbase",
                  "type": "bytes"
                },
                {
                  "internalType": "bytes",
                  "name": "receiptsRoot",
                  "type": "bytes"
                },
                {
                  "internalType": "bytes",
                  "name": "logsBloom",
                  "type": "bytes"
                },
                {
                  "internalType": "bytes",
                  "name": "difficulty",
                  "type": "bytes"
                },
                {
                  "internalType": "bytes",
                  "name": "gasUsed",
                  "type": "bytes"
                },
                {
                  "internalType": "bytes",
                  "name": "extraData",
                  "type": "bytes"
                },
                {
                  "internalType": "bytes",
                  "name": "mixHash",
                  "type": "bytes"
                },
                {
                  "internalType": "bytes",
                  "name": "nonce",
                  "type": "bytes"
                }
              ],
              "internalType": "struct Types.BlockHeaderRLP",
              "name": "rlps",
              "type": "tuple"
            },
            {
              "internalType": "bytes32",
              "name": "l2ToL1MessagePasserBalance",
              "type": "bytes32"
            },
            {
              "internalType": "bytes32",
              "name": "l2ToL1MessagePasserCodeHash",
              "type": "bytes32"
            },
            {
              "internalType": "bytes[]",
              "name": "merkleProof",
              "type": "bytes[]"
            }
          ],
          "internalType": "struct Types.PublicInputProof",
          "name": "_proof",
          "type": "tuple"
        },
        {
          "internalType": "uint256[]",
          "name": "_zkproof",
          "type": "uint256[]"
        },
        {
          "internalType": "uint256[]",
          "name": "_pair",
          "type": "uint256[]"
        }
      ],
      "name": "proveFault",
      "outputs": [],
      "stateMutability": "nonpayable",
      "type": "function"
    },
    {
      "inputs": [
        {
          "internalType": "bytes32",
          "name": "",
          "type": "bytes32"
        }
      ],
      "name": "verifiedPublicInputs",
      "outputs": [
        {
          "internalType": "bool",
          "name": "",
          "type": "bool"
        }
      ],
      "stateMutability": "view",
      "type": "function"
    },
    {
      "inputs": [],
      "name": "version",
      "outputs": [
        {
          "internalType": "string",
          "name": "",
          "type": "string"
        }
      ],
      "stateMutability": "view",
      "type": "function"
    }
  ],
  "transactionHash": "0x6fad38f87051695610165f1ccd68585acfd7d7930308ed9640990e3d078d1624",
  "args": [
    "0x7291913342063fd10d31651735BAF3877D2F9645",
    "0xe6b10b3636D6da6A957841cF030Dd8bD79d40e72",
    60,
    18000,
    1800,
    14400,
    "0x87379d11e537ac64cf7b1bff157e504c71d50ec8713e72936dbae1de9fa07356",
    100,
    [
      "4",
      "3",
      "6",
      "3"
    ],
    "0x7F0DECbef4FdD0193b7d5c8Cc918C1A69d3eF78C",
    "0x3ca61fb8b86E5B69058ae1C2c2623276D2B99C21"
  ],
  "numDeployments": 3,
  "solcInputHash": "f31c773298cecf7cc40079cef79b9de5",
  "bytecode": "0x6102206040523480156200001257600080fd5b50604051620060a3380380620060a3833981016040819052620000359162000439565b6001608052600060a081905260c0526001600160a01b03808c1660e0528a8116610100526101208990526101408890526101608790526101808a90526101a08690526101c08590528281166101e0528116610200526200009583620000a6565b505050505050505050505062000592565b600054610100900460ff1615808015620000c75750600054600160ff909116105b80620000f75750620000e430620001da60201b62002a6f1760201c565b158015620000f7575060005460ff166001145b620001605760405162461bcd60e51b815260206004820152602e60248201527f496e697469616c697a61626c653a20636f6e747261637420697320616c72656160448201526d191e481a5b9a5d1a585b1a5e995960921b60648201526084015b60405180910390fd5b6000805460ff19166001179055801562000184576000805461ff0019166101001790555b6200018f82620001e9565b8015620001d6576000805461ff0019169055604051600181527f7f26b83ff96e1f2b6a682f133852f6798a09c465da95921460cefb38474024989060200160405180910390a15b5050565b6001600160a01b03163b151590565b60028151620001f9919062000507565b156200026e5760405162461bcd60e51b815260206004820152603a60248201527f436f6c6f737365756d3a206c656e677468206f66207365676d656e7473206c6560448201527f6e677468732063616e6e6f74206265206f6464206e756d626572000000000000606482015260840162000157565b600160005b8251811015620002f3578281815181106200029257620002926200052a565b602002602001015160016000838152602001908152602001600020819055506001838281518110620002c857620002c86200052a565b6020026020010151620002dc919062000556565b620002e8908362000570565b915060010162000273565b50610180518114620001d65760405162461bcd60e51b815260206004820152602360248201527f436f6c6f737365756d3a20696e76616c6964207365676d656e7473206c656e6760448201526274687360e81b606482015260840162000157565b6001600160a01b03811681146200036a57600080fd5b50565b80516200037a8162000354565b919050565b634e487b7160e01b600052604160045260246000fd5b600082601f830112620003a757600080fd5b815160206001600160401b0380831115620003c657620003c66200037f565b8260051b604051601f19603f83011681018181108482111715620003ee57620003ee6200037f565b6040529384528581018301938381019250878511156200040d57600080fd5b83870191505b848210156200042e5781518352918301919083019062000413565b979650505050505050565b60008060008060008060008060008060006101608c8e0312156200045c57600080fd5b8b51620004698162000354565b60208d0151909b506200047c8162000354565b809a505060408c0151985060608c0151975060808c0151965060a08c0151955060c08c0151945060e08c015193506101008c015160018060401b03811115620004c457600080fd5b620004d28e828f0162000395565b935050620004e46101208d016200036d565b9150620004f56101408d016200036d565b90509295989b509295989b9093969950565b6000826200052557634e487b7160e01b600052601260045260246000fd5b500690565b634e487b7160e01b600052603260045260246000fd5b634e487b7160e01b600052601160045260246000fd5b6000828210156200056b576200056b62000540565b500390565b60008160001904831182151516156200058d576200058d62000540565b500290565b60805160a05160c05160e05161010051610120516101405161016051610180516101a0516101c0516101e0516102005161596a62000739600039600081816103a101526139190152600081816102f6015281816107de0152818161130d01528181611c280152611f5501526000818161036501528181613a370152613aa50152600081816104e90152613a7101526000818161049b0152818161294c0152818161298501526130f10152600081816104c201528181612adf0152613d0601526000818161031d0152613d6d015260008181610414015281816106e7015261246101526000818161043b01526110620152600081816101b7015281816106770152818161091601528181610a7a01528181610ccc0152818161119d015281816114a1015281816114ff015281816117ad01528181611cec01528181611e2a01528181611f7d01528181612148015281816123e9015281816126c80152818161280f01528181612c6001528181612d0a01528181612d8101528181612e5b015281816131c00152613408015260006107890152600061076001526000610737015261596a6000f3fe608060405234801561001057600080fd5b50600436106101ad5760003560e01c8063887c560f116100ee578063cfb4474d11610097578063e39a219c11610071578063e39a219c1461050b578063e58932b31461051e578063e9371a2c1461053e578063fc9d84df1461055e57600080fd5b8063cfb4474d14610496578063d2ee3075146104bd578063d5145ebc146104e457600080fd5b8063a41483e3116100c8578063a41483e31461045d578063a6ade11f14610470578063b8b1a27c1461048357600080fd5b8063887c560f146103fc5780638f3a6c881461040f5780639ded39521461043657600080fd5b8063461569b81161015b5780635865b607116101355780635865b6071461039c57806362fc00db146103c35780636fe0e559146103d657806379c2575a146103e957600080fd5b8063461569b81461034d5780635375b8911461036057806354fd4d501461038757600080fd5b80632df27fa51161018c5780632df27fa51461023e57806336086417146102f15780634394c5841461031857600080fd5b80621c2ff6146101b25780631be4e27e146101f65780631db1b67214610229575b600080fd5b6101d97f000000000000000000000000000000000000000000000000000000000000000081565b6040516001600160a01b0390911681526020015b60405180910390f35b6102196102043660046148da565b60036020526000908152604090205460ff1681565b60405190151581526020016101ed565b61023c610237366004614908565b610571565b005b6102aa61024c366004614908565b6002602090815260009283526040808420909152908252902080546001820154600383015460049093015460ff83169367ffffffffffffffff610100850416936001600160a01b036901000000000000000000909104811693169186565b6040805160ff909716875267ffffffffffffffff90951660208701526001600160a01b039384169486019490945291166060840152608083015260a082015260c0016101ed565b6101d97f000000000000000000000000000000000000000000000000000000000000000081565b61033f7f000000000000000000000000000000000000000000000000000000000000000081565b6040519081526020016101ed565b61021961035b3660046148da565b61063b565b61033f7f000000000000000000000000000000000000000000000000000000000000000081565b61038f610730565b6040516101ed9190614990565b6101d97f000000000000000000000000000000000000000000000000000000000000000081565b61023c6103d13660046149a3565b6107d3565b61023c6103e4366004614ac7565b610b21565b61023c6103f7366004614ba9565b610c9b565b61021961040a366004614908565b61160a565b61033f7f000000000000000000000000000000000000000000000000000000000000000081565b6101d97f000000000000000000000000000000000000000000000000000000000000000081565b61023c61046b3660046148da565b61163f565b61023c61047e366004614c5a565b61177c565b61033f610491366004614cc4565b611ba0565b61033f7f000000000000000000000000000000000000000000000000000000000000000081565b61033f7f000000000000000000000000000000000000000000000000000000000000000081565b61033f7f000000000000000000000000000000000000000000000000000000000000000081565b61023c6105193660046148da565b611c1d565b61053161052c366004614908565b611fdf565b6040516101ed9190614ce7565b61055161054c366004614908565b6120ec565b6040516101ed9190614dc6565b61023c61056c366004614e07565b612117565b60008281526002602090815260408083206001600160a01b038516845290915281209061059d82612a7e565b905060038160058111156105b3576105b3614d97565b1461062b5760405162461bcd60e51b815260206004820152603c60248201527f436f6c6f737365756d3a2063616e206f6e6c792062652063616c6c656420696660448201527f20746865206368616c6c656e67657220697320696e2074696d6f75740000000060648201526084015b60405180910390fd5b6106358484612b5b565b50505050565b6040517fa25ae5570000000000000000000000000000000000000000000000000000000081526004810182905260009081906001600160a01b037f0000000000000000000000000000000000000000000000000000000000000000169063a25ae55790602401608060405180830381865afa1580156106be573d6000803e3d6000fd5b505050506040513d601f19601f820116820180604052508101906106e29190614e6b565b9050427f000000000000000000000000000000000000000000000000000000000000000082604001516fffffffffffffffffffffffffffffffff166107279190614f12565b10159392505050565b606061075b7f0000000000000000000000000000000000000000000000000000000000000000612f54565b6107847f0000000000000000000000000000000000000000000000000000000000000000612f54565b6107ad7f0000000000000000000000000000000000000000000000000000000000000000612f54565b6040516020016107bf93929190614f2a565b604051602081830303815290604052905090565b336001600160a01b037f000000000000000000000000000000000000000000000000000000000000000016146108715760405162461bcd60e51b815260206004820152602d60248201527f436f6c6f737365756d3a2073656e646572206973206e6f74207468652073656360448201527f757269747920636f756e63696c000000000000000000000000000000000000006064820152608401610622565b816108e45760405162461bcd60e51b815260206004820152602e60248201527f436f6c6f737365756d3a2063616e6e6f7420726f6c6c6261636b206f7574707560448201527f7420746f207a65726f20686173680000000000000000000000000000000000006064820152608401610622565b6040517fa25ae557000000000000000000000000000000000000000000000000000000008152600481018690526000907f00000000000000000000000000000000000000000000000000000000000000006001600160a01b03169063a25ae55790602401608060405180830381865afa158015610965573d6000803e3d6000fd5b505050506040513d601f19601f820116820180604052508101906109899190614e6b565b6020015114610a005760405162461bcd60e51b815260206004820152603b60248201527f436f6c6f737365756d3a206f6e6c792063616e20726f6c6c6261636b2069662060448201527f746865206f757470757420686173206265656e2064656c6574656400000000006064820152608401610622565b6000818152600360205260409081902080547fffffffffffffffffffffffffffffffffffffffffffffffffffffffffffffff00169055517fe664672300000000000000000000000000000000000000000000000000000000815260048101869052602481018390526001600160a01b0384811660448301527f0000000000000000000000000000000000000000000000000000000000000000169063e664672390606401600060405180830381600087803b158015610abe57600080fd5b505af1158015610ad2573d6000803e3d6000fd5b50505050836001600160a01b0316857fdca9fa9b51a5ba03938c6a0cd5489011630370fc481ef2b0cb771ad904a7305342604051610b1291815260200190565b60405180910390a35050505050565b600054610100900460ff1615808015610b415750600054600160ff909116105b80610b5b5750303b158015610b5b575060005460ff166001145b610bcd5760405162461bcd60e51b815260206004820152602e60248201527f496e697469616c697a61626c653a20636f6e747261637420697320616c72656160448201527f647920696e697469616c697a65640000000000000000000000000000000000006064820152608401610622565b600080547fffffffffffffffffffffffffffffffffffffffffffffffffffffffffffffff001660011790558015610c2b57600080547fffffffffffffffffffffffffffffffffffffffffffffffffffffffffffff00ff166101001790555b610c3482612ff4565b8015610c9757600080547fffffffffffffffffffffffffffffffffffffffffffffffffffffffffffff00ff169055604051600181527f7f26b83ff96e1f2b6a682f133852f6798a09c465da95921460cefb38474024989060200160405180910390a15b5050565b6040517f33727c4d0000000000000000000000000000000000000000000000000000000081526004810188905287907f00000000000000000000000000000000000000000000000000000000000000006001600160a01b0316906333727c4d90602401602060405180830381865afa158015610d1b573d6000803e3d6000fd5b505050506040513d601f19601f82011682018060405250810190610d3f9190614fa0565b15610dd85760405162461bcd60e51b815260206004820152604b60248201527f436f6c6f737365756d3a2063616e6e6f742070726f6772657373206368616c6c60448201527f656e67652070726f636573732061626f757420616c72656164792066696e616c60648201527f697a6564206f7574707574000000000000000000000000000000000000000000608482015260a401610622565b6000888152600260209081526040808320338452909152812090610dfb82612a7e565b6001830154909150610e18908b906001600160a01b031683613184565b15610e24575050611600565b6005816005811115610e3857610e38614d97565b1480610e5557506004816005811115610e5357610e53614d97565b145b610ec75760405162461bcd60e51b815260206004820152603a60248201527f436f6c6f737365756d3a20696d706f737369626c6520746f2070726f7665207460448201527f6865206661756c7420696e2063757272656e74207374617475730000000000006064820152608401610622565b6000610ee0610edb368b90038b018b614fc2565b613515565b90506000610ef9610edb368c90038c0160a08d01614fc2565b9050610f0c8b8584848e60a081016135ea565b610f358a60a08101610f22610140830183615032565b610f306101608f018f615070565b6137a6565b610f67610f466101c08c018c6150a4565b8c61018001358d6101a001358e60a001604001358f60a001602001356138c1565b6000610f8460208c0135610f7f6101408e018e615032565b613a31565b60008181526003602052604090205490915060ff16156110325760405162461bcd60e51b815260206004820152604c60248201527f436f6c6f737365756d3a207075626c696320696e70757420746861742068617360448201527f20616c7265616479206265656e2076616c6964617465642063616e6e6f74206260648201527f65207573656420616761696e0000000000000000000000000000000000000000608482015260a401610622565b6040517f4292dc3e0000000000000000000000000000000000000000000000000000000081526001600160a01b037f00000000000000000000000000000000000000000000000000000000000000001690634292dc3e9061109f908d908d908d908d90889060040161515b565b602060405180830381865afa1580156110bc573d6000803e3d6000fd5b505050506040513d601f19601f820116820180604052508101906110e09190614fa0565b61112c5760405162461bcd60e51b815260206004820152601860248201527f436f6c6f737365756d3a20696e76616c69642070726f6f6600000000000000006044820152606401610622565b60405142815233908e907f0431864ed2609170587bbc7c198abd8caee4c55943dfb16fd42ec6f59c91c5f79060200160405180910390a36040517fa25ae557000000000000000000000000000000000000000000000000000000008152600481018e90526000906001600160a01b037f0000000000000000000000000000000000000000000000000000000000000000169063a25ae55790602401608060405180830381865afa1580156111e4573d6000803e3d6000fd5b505050506040513d601f19601f820116820180604052508101906112089190614e6b565b905060006362fc00db60e01b8f338960000160099054906101000a90046001600160a01b03168560200151876040516024016112729594939291909485526001600160a01b0393841660208601529190921660408401526060830191909152608082015260a00190565b60408051601f19818403018152918152602080830180517bffffffffffffffffffffffffffffffffffffffffffffffffffffffff167fffffffff000000000000000000000000000000000000000000000000000000009095169490941790935291840151606085015192517f080b91ee0000000000000000000000000000000000000000000000000000000081529193506001600160a01b037f0000000000000000000000000000000000000000000000000000000000000000169263080b91ee926113449291908690600401615195565b600060405180830381600087803b15801561135e57600080fd5b505af1158015611372573d6000803e3d6000fd5b50505050505060016003600083815260200190815260200160002060006101000a81548160ff021916908315150217905550600260008e81526020019081526020016000206000336001600160a01b03166001600160a01b03168152602001908152602001600020600080820160006101000a81549060ff02191690556000820160016101000a81549067ffffffffffffffff02191690556000820160096101000a8154906001600160a01b0302191690556001820160006101000a8154906001600160a01b03021916905560028201600061144e919061485c565b5060006003820181905560049182018190556040517fe66467230000000000000000000000000000000000000000000000000000000081529182018f905260248201523360448201526001600160a01b037f0000000000000000000000000000000000000000000000000000000000000000169063e664672390606401600060405180830381600087803b1580156114e557600080fd5b505af11580156114f9573d6000803e3d6000fd5b505050507f00000000000000000000000000000000000000000000000000000000000000006001600160a01b031663b98debbf6040518163ffffffff1660e01b8152600401602060405180830381865afa15801561155b573d6000803e3d6000fd5b505050506040513d601f19601f8201168201806040525081019061157f91906151cf565b6040517fdd215c5d000000000000000000000000000000000000000000000000000000008152600481018f90523360248201526001600160a01b03919091169063dd215c5d90604401600060405180830381600087803b1580156115e257600080fd5b505af11580156115f6573d6000803e3d6000fd5b5050505050505050505b5050505050505050565b60008281526002602090815260408083206001600160a01b0385168452909152812061163581613ae4565b9150505b92915050565b600081815260026020908152604080832033845290915281209061166282612a7e565b9050600081600581111561167857611678614d97565b036116eb5760405162461bcd60e51b815260206004820152602760248201527f436f6c6f737365756d3a20746865206368616c6c656e676520646f6573206e6f60448201527f74206578697374000000000000000000000000000000000000000000000000006064820152608401610622565b60018201546117059084906001600160a01b031683613184565b6117775760405162461bcd60e51b815260206004820152602860248201527f436f6c6f737365756d3a206368616c6c656e67652063616e6e6f74206265206360448201527f616e63656c6c65640000000000000000000000000000000000000000000000006064820152608401610622565b505050565b6040517f33727c4d0000000000000000000000000000000000000000000000000000000081526004810186905285907f00000000000000000000000000000000000000000000000000000000000000006001600160a01b0316906333727c4d90602401602060405180830381865afa1580156117fc573d6000803e3d6000fd5b505050506040513d601f19601f820116820180604052508101906118209190614fa0565b156118b95760405162461bcd60e51b815260206004820152604b60248201527f436f6c6f737365756d3a2063616e6e6f742070726f6772657373206368616c6c60448201527f656e67652070726f636573732061626f757420616c72656164792066696e616c60648201527f697a6564206f7574707574000000000000000000000000000000000000000000608482015260a401610622565b60008681526002602090815260408083206001600160a01b03891684529091528120906118e582612a7e565b60018301549091506119029089906001600160a01b031683613184565b1561190e575050611b98565b6000600182600581111561192457611924614d97565b0361193d575060018201546001600160a01b0316611970565b600282600581111561195157611951614d97565b0361197057508154690100000000000000000090046001600160a01b03165b336001600160a01b038216146119c85760405162461bcd60e51b815260206004820152601860248201527f436f6c6f737365756d3a206e6f7420796f7572207475726e00000000000000006044820152606401610622565b82546000906119db9060ff1660016151ec565b9050611a6681856002018a815481106119f6576119f6615211565b9060005260206000200154866002018b6001611a129190614f12565b81548110611a2257611a22615211565b90600052602060002001548a8a80806020026020016040519081016040528093929190818152602001838360200280828437600092019190915250613af892505050565b6000611a7185613c9e565b90506000611a7f828b615240565b8660040154611a8e9190614f12565b9050611ad1868a8a80806020026020016040519081016040528093929190818152602001838360200280828437600092019190915250869250879150613cca9050565b85547fffffffffffffffffffffffffffffffffffffffffffffffffffffffffffffff001660ff8416178655611b0586613cf4565b6040805160ff851681524260208201526001600160a01b038d16918e917fcadef6622777415b0589e491bdbf6baf11242f676f77055fd03bf1658c17a145910160405180910390a3611b5686613ae4565b611b91576040516001600160a01b038c16908d907f5c4528cbb38a169d24837617d3fd3d5c70a47769a4e9af6f384720b359b716c890600090a35b5050505050505b505050505050565b6000600160ff83161015611bf65760405162461bcd60e51b815260206004820152601760248201527f436f6c6f737365756d3a20696e76616c6964207475726e0000000000000000006044820152606401610622565b60016000611c04828561525f565b60ff168152602001908152602001600020549050919050565b336001600160a01b037f00000000000000000000000000000000000000000000000000000000000000001614611cbb5760405162461bcd60e51b815260206004820152602d60248201527f436f6c6f737365756d3a2073656e646572206973206e6f74207468652073656360448201527f757269747920636f756e63696c000000000000000000000000000000000000006064820152608401610622565b6040517f33727c4d0000000000000000000000000000000000000000000000000000000081526004810182905281907f00000000000000000000000000000000000000000000000000000000000000006001600160a01b0316906333727c4d90602401602060405180830381865afa158015611d3b573d6000803e3d6000fd5b505050506040513d601f19601f82011682018060405250810190611d5f9190614fa0565b15611df85760405162461bcd60e51b815260206004820152604b60248201527f436f6c6f737365756d3a2063616e6e6f742070726f6772657373206368616c6c60448201527f656e67652070726f636573732061626f757420616c72656164792066696e616c60648201527f697a6564206f7574707574000000000000000000000000000000000000000000608482015260a401610622565b6040517fa25ae557000000000000000000000000000000000000000000000000000000008152600481018390526000907f00000000000000000000000000000000000000000000000000000000000000006001600160a01b03169063a25ae55790602401608060405180830381865afa158015611e79573d6000803e3d6000fd5b505050506040513d601f19601f82011682018060405250810190611e9d9190614e6b565b6020810151909150611f175760405162461bcd60e51b815260206004820152602e60248201527f436f6c6f737365756d3a20746865206f75747075742068617320616c7265616460448201527f79206265656e2064656c657465640000000000000000000000000000000000006064820152608401610622565b6040517fe664672300000000000000000000000000000000000000000000000000000000815260048101849052600060248201526001600160a01b037f0000000000000000000000000000000000000000000000000000000000000000811660448301527f0000000000000000000000000000000000000000000000000000000000000000169063e6646723906064015b600060405180830381600087803b158015611fc257600080fd5b505af1158015611fd6573d6000803e3d6000fd5b50505050505050565b6040805160e0810182526000808252602082018190529181018290526060808201839052608082015260a0810182905260c081019190915260008381526002602081815260408084206001600160a01b03808816865290835293819020815160e081018352815460ff8116825267ffffffffffffffff610100820416828601526901000000000000000000900486168184015260018201549095166060860152928301805482518185028101850190935280835260808601938301828280156120c757602002820191906000526020600020905b8154815260200190600101908083116120b3575b5050505050815260200160038201548152602001600482015481525050905092915050565b60008281526002602090815260408083206001600160a01b0385168452909152812061163581612a7e565b6040517f33727c4d0000000000000000000000000000000000000000000000000000000081526004810186905285907f00000000000000000000000000000000000000000000000000000000000000006001600160a01b0316906333727c4d90602401602060405180830381865afa158015612197573d6000803e3d6000fd5b505050506040513d601f19601f820116820180604052508101906121bb9190614fa0565b156122545760405162461bcd60e51b815260206004820152604b60248201527f436f6c6f737365756d3a2063616e6e6f742070726f6772657373206368616c6c60448201527f656e67652070726f636573732061626f757420616c72656164792066696e616c60648201527f697a6564206f7574707574000000000000000000000000000000000000000000608482015260a401610622565b600086116122ca5760405162461bcd60e51b815260206004820152603660248201527f436f6c6f737365756d3a206368616c6c656e676520666f722067656e6573697360448201527f206f7574707574206973206e6f7420616c6c6f776564000000000000000000006064820152608401610622565b600086815260026020908152604080832033845290915290208054600160ff909116106123b75760006122fc82612a7e565b9050600381600581111561231257612312614d97565b146123ab5760405162461bcd60e51b815260206004820152604660248201527f436f6c6f737365756d3a20746865206368616c6c656e676520666f722067697660448201527f656e206f757470757420696e64657820697320616c726561647920696e20707260648201527f6f67726573730000000000000000000000000000000000000000000000000000608482015260a401610622565b6123b58833612b5b565b505b6040517fa25ae557000000000000000000000000000000000000000000000000000000008152600481018890526000907f00000000000000000000000000000000000000000000000000000000000000006001600160a01b03169063a25ae55790602401608060405180830381865afa158015612438573d6000803e3d6000fd5b505050506040513d601f19601f8201168201806040525081019061245c9190614e6b565b9050427f000000000000000000000000000000000000000000000000000000000000000082604001516fffffffffffffffffffffffffffffffff166124a19190614f12565b10156125155760405162461bcd60e51b815260206004820152603e60248201527f436f6c6f737365756d3a2063616e6e6f74206372656174652061206368616c6c60448201527f656e676520616674657220746865206372656174696f6e20706572696f6400006064820152608401610622565b602081015161258c5760405162461bcd60e51b815260206004820152603660248201527f436f6c6f737365756d3a206368616c6c656e676520666f722064656c6574656460448201527f206f7574707574206973206e6f7420616c6c6f776564000000000000000000006064820152608401610622565b80516001600160a01b0316330361260b5760405162461bcd60e51b815260206004820152603860248201527f436f6c6f737365756d3a2074686520617373657274657220616e64206368616c60448201527f6c656e676572206d75737420626520646966666572656e7400000000000000006064820152608401610622565b861580159061261a5750854015155b156126bc57868640146126bc5760405162461bcd60e51b8152602060048201526044602482018190527f436f6c6f737365756d3a20626c6f636b206861736820646f6573206e6f74206d908201527f617463682074686520686173682061742074686520657870656374656420686560648201527f6967687400000000000000000000000000000000000000000000000000000000608482015260a401610622565b60006001600160a01b037f00000000000000000000000000000000000000000000000000000000000000001663a25ae5576126f860018c615282565b6040518263ffffffff1660e01b815260040161271691815260200190565b608060405180830381865afa158015612733573d6000803e3d6000fd5b505050506040513d601f19601f820116820180604052508101906127579190614e6b565b60208101519091506127c5576127c060018787600081811061277b5761277b615211565b905060200201358460200151898980806020026020016040519081016040528093929190818152602001838360200280828437600092019190915250613af892505050565b61280d565b61280d600182602001518460200151898980806020026020016040519081016040528093929190818152602001838360200280828437600092019190915250613af892505050565b7f00000000000000000000000000000000000000000000000000000000000000006001600160a01b031663b98debbf6040518163ffffffff1660e01b8152600401602060405180830381865afa15801561286b573d6000803e3d6000fd5b505050506040513d601f19601f8201168201806040525081019061288f91906151cf565b6040517f5a544742000000000000000000000000000000000000000000000000000000008152600481018b90523360248201526001600160a01b039190911690635a54474290604401600060405180830381600087803b1580156128f257600080fd5b505af1158015612906573d6000803e3d6000fd5b505050506129a9838787808060200260200160405190810160405280939291908181526020018383602002808284376000920191909152505050606086015161298391507f0000000000000000000000000000000000000000000000000000000000000000906fffffffffffffffffffffffffffffffff16615282565b7f0000000000000000000000000000000000000000000000000000000000000000613cca565b825482516001600160a01b03166901000000000000000000027fffffff0000000000000000000000000000000000000000ffffffffffffffff009091161760019081178455830180547fffffffffffffffffffffffff00000000000000000000000000000000000000001633179055612a2183613cf4565b815160405142815233916001600160a01b0316908b907fd2f7931a802085b3d0234d4c320ce7ee0041da96678ce2bf5c93e8d3d7e65f529060200160405180910390a4505050505050505050565b6001600160a01b03163b151590565b8054600090600160ff9091161015612a9857506000919050565b8154600090612aa99060ff16613d95565b8354909150610100900467ffffffffffffffff16421115612b2f578015612ad35750600392915050565b8254612b1890612b13907f000000000000000000000000000000000000000000000000000000000000000090610100900467ffffffffffffffff16614f12565b421190565b15612b265750600392915050565b50600492915050565b612b3883613ae4565b612b455750600592915050565b80612b51576002612b54565b60015b9392505050565b60008281526002602081815260408084206001600160a01b0386168552909152822080547fffffff00000000000000000000000000000000000000000000000000000000001681556001810180547fffffffffffffffffffffffff00000000000000000000000000000000000000001690559190612bdb9083018261485c565b600382016000905560048201600090555050806001600160a01b0316827fbf4506ef5d06ecb6168f37bc9e69dd473089eb9e3f2675322d01b4d466cff05142604051612c2991815260200190565b60405180910390a36040517f33727c4d000000000000000000000000000000000000000000000000000000008152600481018390527f00000000000000000000000000000000000000000000000000000000000000006001600160a01b0316906333727c4d90602401602060405180830381865afa158015612caf573d6000803e3d6000fd5b505050506040513d601f19601f82011682018060405250810190612cd39190614fa0565b15612e59576040517fa25ae557000000000000000000000000000000000000000000000000000000008152600481018390526000907f00000000000000000000000000000000000000000000000000000000000000006001600160a01b03169063a25ae55790602401608060405180830381865afa158015612d59573d6000803e3d6000fd5b505050506040513d601f19601f82011682018060405250810190612d7d9190614e6b565b90507f00000000000000000000000000000000000000000000000000000000000000006001600160a01b031663b98debbf6040518163ffffffff1660e01b8152600401602060405180830381865afa158015612ddd573d6000803e3d6000fd5b505050506040513d601f19601f82011682018060405250810190612e0191906151cf565b81516040517f36b83469000000000000000000000000000000000000000000000000000000008152600481018690526001600160a01b03858116602483015291821660448201529116906336b8346990606401611fa8565b7f00000000000000000000000000000000000000000000000000000000000000006001600160a01b031663b98debbf6040518163ffffffff1660e01b8152600401602060405180830381865afa158015612eb7573d6000803e3d6000fd5b505050506040513d601f19601f82011682018060405250810190612edb91906151cf565b6040517fdd215c5d000000000000000000000000000000000000000000000000000000008152600481018490526001600160a01b038381166024830152919091169063dd215c5d90604401600060405180830381600087803b158015612f4057600080fd5b505af1158015611b98573d6000803e3d6000fd5b60606000612f6183613dac565b600101905060008167ffffffffffffffff811115612f8157612f816149f5565b6040519080825280601f01601f191660200182016040528015612fab576020820181803683370190505b5090508181016020015b600019017f3031323334353637383961626364656600000000000000000000000000000000600a86061a8153600a8504945084612fb557509392505050565b6002815161300291906152c8565b156130755760405162461bcd60e51b815260206004820152603a60248201527f436f6c6f737365756d3a206c656e677468206f66207365676d656e7473206c6560448201527f6e677468732063616e6e6f74206265206f6464206e756d6265720000000000006064820152608401610622565b600160005b82518110156130ee5782818151811061309557613095615211565b6020026020010151600160008381526020019081526020016000208190555060018382815181106130c8576130c8615211565b60200260200101516130da9190615282565b6130e49083615240565b915060010161307a565b507f00000000000000000000000000000000000000000000000000000000000000008114610c975760405162461bcd60e51b815260206004820152602360248201527f436f6c6f737365756d3a20696e76616c6964207365676d656e7473206c656e6760448201527f74687300000000000000000000000000000000000000000000000000000000006064820152608401610622565b6040517fa25ae5570000000000000000000000000000000000000000000000000000000081526004810184905260009081906001600160a01b037f0000000000000000000000000000000000000000000000000000000000000000169063a25ae55790602401608060405180830381865afa158015613207573d6000803e3d6000fd5b505050506040513d601f19601f8201168201806040525081019061322b9190614e6b565b6020015190508015613241576000915050612b54565b336001600160a01b038516146132bf5760405162461bcd60e51b815260206004820152602560248201527f436f6c6f737365756d3a2073656e646572206973206e6f742061206368616c6c60448201527f656e6765720000000000000000000000000000000000000000000000000000006064820152608401610622565b60038360058111156132d3576132d3614d97565b03613348576040805162461bcd60e51b81526020600482015260248101919091527f436f6c6f737365756d3a206368616c6c656e67652063616e6e6f74206265206360448201527f616e63656c6c6564206966206368616c6c656e6765722074696d6564206f75746064820152608401610622565b6000858152600260208181526040808420338552909152822080547fffffff00000000000000000000000000000000000000000000000000000000001681556001810180547fffffffffffffffffffffffff000000000000000000000000000000000000000016905591906133bf9083018261485c565b50600060038201819055600490910155604051428152339086907f6f3468a095154788e69ed719ee418416c1e338ac2348ccb3531bb97a0ed6ed9d9060200160405180910390a37f00000000000000000000000000000000000000000000000000000000000000006001600160a01b031663b98debbf6040518163ffffffff1660e01b8152600401602060405180830381865afa158015613464573d6000803e3d6000fd5b505050506040513d601f19601f8201168201806040525081019061348891906151cf565b6040517f36b8346900000000000000000000000000000000000000000000000000000000815260048101879052336024820181905260448201526001600160a01b0391909116906336b8346990606401600060405180830381600087803b1580156134f257600080fd5b505af1158015613506573d6000803e3d6000fd5b50600198975050505050505050565b80516000906135775781516020808401516040808601516060808801516080808a0151855180890199909952888601969096529187019290925285015260a0808501929092528051808503909201825260c09093019092528151910120611639565b60405162461bcd60e51b815260206004820152602a60248201527f48617368696e673a20756e6b6e6f776e206f757470757420726f6f742070726f60448201527f6f662076657273696f6e000000000000000000000000000000000000000000006064820152608401610622565b919050565b8385600201878154811061360057613600615211565b90600052602060002001541461367e5760405162461bcd60e51b815260206004820152602d60248201527f436f6c6f737365756d3a2074686520736f75726365207365676d656e74206d7560448201527f7374206265206d617463686564000000000000000000000000000000000000006064820152608401610622565b61368785613ae4565b61372957826002860161369b886001614f12565b815481106136ab576136ab615211565b9060005260206000200154036137295760405162461bcd60e51b815260206004820152603660248201527f436f6c6f737365756d3a207468652064657374696e6174696f6e207365676d6560448201527f6e74206d757374206e6f74206265206d617463686564000000000000000000006064820152608401610622565b8060600135826080013514611b985760405162461bcd60e51b815260206004820152602960248201527f436f6c6f737365756d3a2074686520626c6f636b2068617368206d757374206260448201527f65206d61746368656400000000000000000000000000000000000000000000006064820152608401610622565b82602001358260e00135146138235760405162461bcd60e51b815260206004820152602960248201527f436f6c6f737365756d3a2074686520737461746520726f6f74206d757374206260448201527f65206d61746368656400000000000000000000000000000000000000000000006064820152608401610622565b600061383f6138318461535a565b61383a84615486565b613e8e565b9050808560800135146138ba5760405162461bcd60e51b815260206004820152602960248201527f436f6c6f737365756d3a2074686520626c6f636b2068617368206d757374206260448201527f65206d61746368656400000000000000000000000000000000000000000000006064820152608401610622565b5050505050565b60408051600060208201528082018690526060810185905260808082018590528251808303909101815260a08201928390527f12e64a72000000000000000000000000000000000000000000000000000000009092527f00000000000000000000000000000000000000000000000000000000000000006001600160a01b0316906312e64a729061397e907f42000000000000000000000000000000000000030000000000000000000000009085908c908c90899060a401615627565b602060405180830381865afa15801561399b573d6000803e3d6000fd5b505050506040513d601f19601f820116820180604052508101906139bf9190614fa0565b611fd65760405162461bcd60e51b815260206004820152603660248201527f436f6c6f737365756d3a20696e76616c6964204c32546f4c314d65737361676560448201527f50617373657220696e636c7573696f6e2070726f6f66000000000000000000006064820152608401610622565b600060607f0000000000000000000000000000000000000000000000000000000000000000613a646101208501856150a4565b90501015613ad157613ace7f0000000000000000000000000000000000000000000000000000000000000000613a9e6101208601866150a4565b613ac991507f0000000000000000000000000000000000000000000000000000000000000000615282565b613ee5565b90505b61163584613ade8561535a565b83613f71565b60006001613af183613c9e565b1192915050565b805180613b0486611ba0565b14613b775760405162461bcd60e51b815260206004820152602260248201527f436f6c6f737365756d3a20696e76616c6964207365676d656e7473206c656e6760448201527f74680000000000000000000000000000000000000000000000000000000000006064820152608401610622565b81600081518110613b8a57613b8a615211565b60200260200101518414613c065760405162461bcd60e51b815260206004820152602c60248201527f436f6c6f737365756d3a20746865206669727374207365676d656e74206d757360448201527f74206265206d61746368656400000000000000000000000000000000000000006064820152608401610622565b81613c12600183615282565b81518110613c2257613c22615211565b602002602001015183036138ba5760405162461bcd60e51b815260206004820152602f60248201527f436f6c6f737365756d3a20746865206c617374207365676d656e74206d75737460448201527f206e6f74206265206d61746368656400000000000000000000000000000000006064820152608401610622565b805460009060ff166001613cb182611ba0565b613cbb9190615282565b8360030154612b549190615702565b8251613cdf906002860190602086019061487a565b50600484019190915560039092019190915550565b613cfd81613ae4565b613d6857613d2b7f000000000000000000000000000000000000000000000000000000000000000042614f12565b815467ffffffffffffffff91909116610100027fffffffffffffffffffffffffffffffffffffffffffffff0000000000000000ff90911617815550565b613d2b7f000000000000000000000000000000000000000000000000000000000000000042614f12565b50565b6000613da2600283615716565b60ff161592915050565b6000807a184f03e93ff9f4daa797ed6e38ed64bf6a1f0100000000000000008310613df5577a184f03e93ff9f4daa797ed6e38ed64bf6a1f010000000000000000830492506040015b6d04ee2d6d415b85acef81000000008310613e21576d04ee2d6d415b85acef8100000000830492506020015b662386f26fc100008310613e3f57662386f26fc10000830492506010015b6305f5e1008310613e57576305f5e100830492506008015b6127108310613e6b57612710830492506004015b60648310613e7d576064830492506002015b600a83106116395760010192915050565b6040805160108082526102208201909252600091829190816020015b6060815260200190600190039081613eaa579050509050613ecc848483613fe5565b613ed5816142ac565b8051906020012091505092915050565b606060008267ffffffffffffffff811115613f0257613f026149f5565b604051908082528060200260200182016040528015613f2b578160200160208202803683370190505b50905060005b83811015613f695784828281518110613f4c57613f4c615211565b602090810291909101015280613f6181615738565b915050613f31565b509392505050565b6000838360e0015184610100015185600001518660200151876060015188604001518960a001518a608001518b6101200151518c61012001518c604051602001613fc69c9b9a99989796959493929190615785565b6040516020818303038152906040528051906020012090509392505050565b6140138360200151604051602001613fff91815260200190565b6040516020818303038152906040526142f0565b8160008151811061402657614026615211565b602002602001018190525081600001518160018151811061404957614049615211565b602002602001018190525081602001518160028151811061406c5761406c615211565b60200260200101819052506140918360e00151604051602001613fff91815260200190565b816003815181106140a4576140a4615211565b60200260200101819052506140c98360c00151604051602001613fff91815260200190565b816004815181106140dc576140dc615211565b60200260200101819052508160400151816005815181106140ff576140ff615211565b602002602001018190525081606001518160068151811061412257614122615211565b602002602001018190525081608001518160078151811061414557614145615211565b6020026020010181905250614167836060015167ffffffffffffffff1661435f565b8160088151811061417a5761417a615211565b602002602001018190525061419c836080015167ffffffffffffffff1661435f565b816009815181106141af576141af615211565b60200260200101819052508160a0015181600a815181106141d2576141d2615211565b60200260200101819052506141f4836040015167ffffffffffffffff1661435f565b81600b8151811061420757614207615211565b60200260200101819052508160c0015181600c8151811061422a5761422a615211565b60200260200101819052508160e0015181600d8151811061424d5761424d615211565b602002602001018190525081610100015181600e8151811061427157614271615211565b60200260200101819052506142898360a0015161435f565b81600f8151811061429c5761429c615211565b6020026020010181905250505050565b606060006142b983614372565b90506142c7815160c06144aa565b816040516020016142d992919061583e565b604051602081830303815290604052915050919050565b6060808251600114801561431e575060808360008151811061431457614314615211565b016020015160f81c105b1561432a575081611639565b614336835160806144aa565b8360405160200161434892919061583e565b604051602081830303815290604052905092915050565b606061163961436d836146a0565b6142f0565b6060815160000361439157505060408051600081526020810190915290565b6000805b83518110156143d8578381815181106143b0576143b0615211565b602002602001015151826143c49190614f12565b9150806143d081615738565b915050614395565b60008267ffffffffffffffff8111156143f3576143f36149f5565b6040519080825280601f01601f19166020018201604052801561441d576020820181803683370190505b50600092509050602081015b85518310156144a157600086848151811061444657614446615211565b602002602001015190506000602082019050614464838284516147ff565b87858151811061447657614476615211565b6020026020010151518361448a9190614f12565b92505050828061449990615738565b935050614429565b50949350505050565b606080603884101561452957604080516001808252818301909252906020820181803683370190505090506144df83856151ec565b60f81b816000815181106144f5576144f5615211565b60200101907effffffffffffffffffffffffffffffffffffffffffffffffffffffffffffff1916908160001a905350612b54565b600060015b6145388187615702565b1561455e578161454781615738565b9250614557905061010082615240565b905061452e565b614569826001614f12565b67ffffffffffffffff811115614581576145816149f5565b6040519080825280601f01601f1916602001820160405280156145ab576020820181803683370190505b5092506145b885836151ec565b6145c39060376151ec565b60f81b836000815181106145d9576145d9615211565b60200101907effffffffffffffffffffffffffffffffffffffffffffffffffffffffffffff1916908160001a905350600190505b818111614697576101006146218284615282565b61462d90610100615951565b6146379088615702565b61464191906152c8565b60f81b83828151811061465657614656615211565b60200101907effffffffffffffffffffffffffffffffffffffffffffffffffffffffffffff1916908160001a9053508061468f81615738565b91505061460d565b50509392505050565b60606000826040516020016146b791815260200190565b604051602081830303815290604052905060005b6020811015614726578181815181106146e6576146e6615211565b01602001517fff0000000000000000000000000000000000000000000000000000000000000016600003614726578061471e81615738565b9150506146cb565b6000614733826020615282565b67ffffffffffffffff81111561474b5761474b6149f5565b6040519080825280601f01601f191660200182016040528015614775576020820181803683370190505b50905060005b81518110156144a157838361478f81615738565b9450815181106147a1576147a1615211565b602001015160f81c60f81b8282815181106147be576147be615211565b60200101907effffffffffffffffffffffffffffffffffffffffffffffffffffffffffffff1916908160001a905350806147f781615738565b91505061477b565b8282825b6020811061483b578151835261481a602084614f12565b9250614827602083614f12565b9150614834602082615282565b9050614803565b905182516020929092036101000a6000190180199091169116179052505050565b5080546000825590600052602060002090810190613d9291906148c5565b8280548282559060005260206000209081019282156148b5579160200282015b828111156148b557825182559160200191906001019061489a565b506148c19291506148c5565b5090565b5b808211156148c157600081556001016148c6565b6000602082840312156148ec57600080fd5b5035919050565b6001600160a01b0381168114613d9257600080fd5b6000806040838503121561491b57600080fd5b82359150602083013561492d816148f3565b809150509250929050565b60005b8381101561495357818101518382015260200161493b565b838111156106355750506000910152565b6000815180845261497c816020860160208601614938565b601f01601f19169290920160200192915050565b602081526000612b546020830184614964565b600080600080600060a086880312156149bb57600080fd5b8535945060208601356149cd816148f3565b935060408601356149dd816148f3565b94979396509394606081013594506080013592915050565b7f4e487b7100000000000000000000000000000000000000000000000000000000600052604160045260246000fd5b604051610140810167ffffffffffffffff81118282101715614a4857614a486149f5565b60405290565b604051610120810167ffffffffffffffff81118282101715614a4857614a486149f5565b604051601f8201601f1916810167ffffffffffffffff81118282101715614a9b57614a9b6149f5565b604052919050565b600067ffffffffffffffff821115614abd57614abd6149f5565b5060051b60200190565b60006020808385031215614ada57600080fd5b823567ffffffffffffffff811115614af157600080fd5b8301601f81018513614b0257600080fd5b8035614b15614b1082614aa3565b614a72565b81815260059190911b82018301908381019087831115614b3457600080fd5b928401925b82841015614b5257833582529284019290840190614b39565b979650505050505050565b60008083601f840112614b6f57600080fd5b50813567ffffffffffffffff811115614b8757600080fd5b6020830191508360208260051b8501011115614ba257600080fd5b9250929050565b600080600080600080600060a0888a031215614bc457600080fd5b8735965060208801359550604088013567ffffffffffffffff80821115614bea57600080fd5b908901906101e0828c031215614bff57600080fd5b90955060608901359080821115614c1557600080fd5b614c218b838c01614b5d565b909650945060808a0135915080821115614c3a57600080fd5b50614c478a828b01614b5d565b989b979a50959850939692959293505050565b600080600080600060808688031215614c7257600080fd5b853594506020860135614c84816148f3565b935060408601359250606086013567ffffffffffffffff811115614ca757600080fd5b614cb388828901614b5d565b969995985093965092949392505050565b600060208284031215614cd657600080fd5b813560ff81168114612b5457600080fd5b60006020808352610100830160ff8551168285015267ffffffffffffffff8286015116604085015260408501516001600160a01b0380821660608701528060608801511660808701525050608085015160e060a0860152818151808452610120870191508483019350600092505b80831015614d755783518252928401926001929092019190840190614d55565b5060a087015160c087015260c087015160e08701528094505050505092915050565b7f4e487b7100000000000000000000000000000000000000000000000000000000600052602160045260246000fd5b6020810160068310614e01577f4e487b7100000000000000000000000000000000000000000000000000000000600052602160045260246000fd5b91905290565b600080600080600060808688031215614e1f57600080fd5b853594506020860135935060408601359250606086013567ffffffffffffffff811115614ca757600080fd5b80516fffffffffffffffffffffffffffffffff811681146135e557600080fd5b600060808284031215614e7d57600080fd5b6040516080810181811067ffffffffffffffff82111715614ea057614ea06149f5565b6040528251614eae816148f3565b815260208381015190820152614ec660408401614e4b565b6040820152614ed760608401614e4b565b60608201529392505050565b7f4e487b7100000000000000000000000000000000000000000000000000000000600052601160045260246000fd5b60008219821115614f2557614f25614ee3565b500190565b60008451614f3c818460208901614938565b80830190507f2e000000000000000000000000000000000000000000000000000000000000008082528551614f78816001850160208a01614938565b60019201918201528351614f93816002840160208801614938565b0160020195945050505050565b600060208284031215614fb257600080fd5b81518015158114612b5457600080fd5b600060a08284031215614fd457600080fd5b60405160a0810181811067ffffffffffffffff82111715614ff757614ff76149f5565b806040525082358152602083013560208201526040830135604082015260608301356060820152608083013560808201528091505092915050565b600082357ffffffffffffffffffffffffffffffffffffffffffffffffffffffffffffffec183360301811261506657600080fd5b9190910192915050565b600082357ffffffffffffffffffffffffffffffffffffffffffffffffffffffffffffffee183360301811261506657600080fd5b60008083357fffffffffffffffffffffffffffffffffffffffffffffffffffffffffffffffe18436030181126150d957600080fd5b83018035915067ffffffffffffffff8211156150f457600080fd5b6020019150600581901b3603821315614ba257600080fd5b81835260007f07ffffffffffffffffffffffffffffffffffffffffffffffffffffffffffffff83111561513e57600080fd5b8260051b8083602087013760009401602001938452509192915050565b60608152600061516f60608301878961510c565b828103602084015261518281868861510c565b9150508260408301529695505050505050565b8381526fffffffffffffffffffffffffffffffff831660208201526060604082015260006151c66060830184614964565b95945050505050565b6000602082840312156151e157600080fd5b8151612b54816148f3565b600060ff821660ff84168060ff0382111561520957615209614ee3565b019392505050565b7f4e487b7100000000000000000000000000000000000000000000000000000000600052603260045260246000fd5b600081600019048311821515161561525a5761525a614ee3565b500290565b600060ff821660ff84168082101561527957615279614ee3565b90039392505050565b60008282101561529457615294614ee3565b500390565b7f4e487b7100000000000000000000000000000000000000000000000000000000600052601260045260246000fd5b6000826152d7576152d7615299565b500690565b803567ffffffffffffffff811681146135e557600080fd5b600082601f83011261530557600080fd5b81356020615315614b1083614aa3565b82815260059290921b8401810191818101908684111561533457600080fd5b8286015b8481101561534f5780358352918301918301615338565b509695505050505050565b6000610140823603121561536d57600080fd5b615375614a24565b823581526020830135602082015261538f604084016152dc565b60408201526153a0606084016152dc565b60608201526153b1608084016152dc565b608082015260a083013560a082015260c083013560c082015260e083013560e08201526101008084013581830152506101208084013567ffffffffffffffff8111156153fc57600080fd5b615408368287016152f4565b918301919091525092915050565b600082601f83011261542757600080fd5b813567ffffffffffffffff811115615441576154416149f5565b6154546020601f19601f84011601614a72565b81815284602083860101111561546957600080fd5b816020850160208301376000918101602001919091529392505050565b6000610120823603121561549957600080fd5b6154a1614a4e565b823567ffffffffffffffff808211156154b957600080fd5b6154c536838701615416565b835260208501359150808211156154db57600080fd5b6154e736838701615416565b6020840152604085013591508082111561550057600080fd5b61550c36838701615416565b6040840152606085013591508082111561552557600080fd5b61553136838701615416565b6060840152608085013591508082111561554a57600080fd5b61555636838701615416565b608084015260a085013591508082111561556f57600080fd5b61557b36838701615416565b60a084015260c085013591508082111561559457600080fd5b6155a036838701615416565b60c084015260e08501359150808211156155b957600080fd5b6155c536838701615416565b60e0840152610100915081850135818111156155e057600080fd5b6155ec36828801615416565b8385015250505080915050919050565b818352818160208501375060006020828401015260006020601f19601f840116840101905092915050565b858152600060206080818401526156416080840188614964565b8381036040850152858152818101600587901b820183018860005b898110156156e957601f1985840301845281357fffffffffffffffffffffffffffffffffffffffffffffffffffffffffffffffe18c360301811261569f57600080fd5b8b01868101903567ffffffffffffffff8111156156bb57600080fd5b8036038213156156ca57600080fd5b6156d58582846155fc565b95880195945050509085019060010161565c565b5050809450505050508260608301529695505050505050565b60008261571157615711615299565b500490565b600060ff83168061572957615729615299565b8060ff84160691505092915050565b6000600019820361574b5761574b614ee3565b5060010190565b60008151602080840160005b8381101561577a5781518752958201959082019060010161575e565b509495945050505050565b8c81528b60208201528a604082015289606082015288608082015260007fffffffffffffffff000000000000000000000000000000000000000000000000808a60c01b1660a0840152808960c01b1660a88401528760b0840152808760c01b1660d0840152507fffff0000000000000000000000000000000000000000000000000000000000008560f01b1660d883015261582c61582660da840186615752565b84615752565b9e9d5050505050505050505050505050565b60008351615850818460208801614938565b835190830190615864818360208801614938565b01949350505050565b600181815b808511156158a857816000190482111561588e5761588e614ee3565b8085161561589b57918102915b93841c9390800290615872565b509250929050565b6000826158bf57506001611639565b816158cc57506000611639565b81600181146158e257600281146158ec57615908565b6001915050611639565b60ff8411156158fd576158fd614ee3565b50506001821b611639565b5060208310610133831016604e8410600b841016171561592b575081810a611639565b615935838361586d565b806000190482111561594957615949614ee3565b029392505050565b6000612b5483836158b056fea164736f6c634300080f000a",
  "devdoc": {
    "version": 1,
    "kind": "dev",
    "methods": {
      "bisect(uint256,address,uint256,bytes32[])": {
        "params": {
          "_challenger": "Address of the challenger.",
          "_outputIndex": "Index of the L2 checkpoint output.",
          "_pos": "Position of the last valid segment.",
          "_segments": "Array of the segment. A segment is the first output root of a specific range."
        }
      },
      "cancelChallenge(uint256)": {
        "params": {
          "_outputIndex": "Index of the L2 checkpoint output."
        }
      },
      "challengerTimeout(uint256,address)": {
        "params": {
          "_challenger": "Address of the challenger.",
          "_outputIndex": "Index of the L2 checkpoint output."
        }
      },
      "constructor": {
        "params": {
          "_bisectionTimeout": "Timeout seconds for the bisection.",
          "_creationPeriodSeconds": "Seconds The period seconds for which challenges can be created per each output.",
          "_dummyHash": "Dummy hash.",
          "_l2Oracle": "Address of the L2OutputOracle contract.",
          "_maxTxs": "Number of max transactions per block.",
          "_provingTimeout": "Timeout seconds for the proving.",
          "_securityCouncil": "Address of security council.",
          "_segmentsLengths": "Lengths of segments.",
          "_submissionInterval": "Interval in blocks at which checkpoints must be submitted.",
          "_zkMerkleTrie": "Address of zk merkle trie.",
          "_zkVerifier": "Address of the ZKVerifier contract."
        }
      },
      "createChallenge(uint256,bytes32,uint256,bytes32[])": {
        "params": {
          "_l1BlockHash": "The block hash of L1 at the time the output L2 block was created.",
          "_l1BlockNumber": "The block number of L1 with the specified L1 block hash.",
          "_outputIndex": "Index of the invalid L2 checkpoint output.",
          "_segments": "Array of the segment. A segment is the first output root of a specific range."
        }
      },
      "dismissChallenge(uint256,address,address,bytes32,bytes32)": {
        "params": {
          "_asserter": "Address of the asserter.",
          "_challenger": "Address of the challenger.",
          "_outputIndex": "Index of the L2 checkpoint output.",
          "_outputRoot": "The L2 output root to rollback.",
          "_publicInputHash": "Hash of public input."
        }
      },
      "forceDeleteOutput(uint256)": {
        "params": {
          "_outputIndex": "Index of the L2 checkpoint output."
        }
      },
      "getChallenge(uint256,address)": {
        "params": {
          "_challenger": "Address of the challenger.",
          "_outputIndex": "Index of the L2 checkpoint output."
        },
        "returns": {
          "_0": "The challenge data."
        }
      },
      "getSegmentsLength(uint8)": {
        "params": {
          "_turn": "The challenge turn."
        },
        "returns": {
          "_0": "The segments length."
        }
      },
      "getStatus(uint256,address)": {
        "params": {
          "_challenger": "Address of the challenger.",
          "_outputIndex": "Index of the L2 checkpoint output."
        },
        "returns": {
          "_0": "The status of the challenge."
        }
      },
      "isAbleToBisect(uint256,address)": {
        "params": {
          "_challenger": "Address of the challenger.",
          "_outputIndex": "Index of the L2 checkpoint output."
        },
        "returns": {
          "_0": "Whether bisection is possible."
        }
      },
      "isInCreationPeriod(uint256)": {
        "params": {
          "_outputIndex": "Index of the L2 checkpoint output."
        },
        "returns": {
          "_0": "Whether current timestamp is in challenge creation period."
        }
      },
      "proveFault(uint256,uint256,((bytes32,bytes32,bytes32,bytes32,bytes32),(bytes32,bytes32,bytes32,bytes32,bytes32),(bytes32,bytes32,uint64,uint64,uint64,uint256,bytes32,bytes32,bytes32,bytes32[]),(bytes,bytes,bytes,bytes,bytes,bytes,bytes,bytes,bytes),bytes32,bytes32,bytes[]),uint256[],uint256[])": {
        "params": {
          "_outputIndex": "Index of the L2 checkpoint output.",
          "_pair": "Aggregated multi-opening proofs and public inputs. (Currently only 2 public inputs)",
          "_pos": "Position of the last valid segment.",
          "_proof": "Proof for public input validation.",
          "_zkproof": "Halo2 proofs composed of points and scalars.                     See https://zcash.github.io/halo2/design/implementation/proofs.html."
        }
      },
      "version()": {
        "returns": {
          "_0": "Semver contract version as a string."
        }
      }
    },
    "events": {
      "Bisected(uint256,address,uint8,uint256)": {
        "params": {
          "challenger": "Address of the challenger.",
          "outputIndex": "Index of the L2 checkpoint output.",
          "timestamp": "The timestamp when bisected.",
          "turn": "The current turn."
        }
      },
      "ChallengeCanceled(uint256,address,uint256)": {
        "params": {
          "challenger": "Address of the challenger.",
          "outputIndex": "Index of the L2 checkpoint output.",
          "timestamp": "The timestamp when canceled."
        }
      },
      "ChallengeCreated(uint256,address,address,uint256)": {
        "params": {
          "asserter": "Address of the asserter.",
          "challenger": "Address of the challenger.",
          "outputIndex": "Index of the L2 checkpoint output.",
          "timestamp": "The timestamp when created."
        }
      },
      "ChallengeDismissed(uint256,address,uint256)": {
        "params": {
          "challenger": "Address of the challenger.",
          "outputIndex": "Index of the L2 checkpoint output.",
          "timestamp": "The timestamp when dismissed."
        }
      },
      "ChallengerTimedOut(uint256,address,uint256)": {
        "params": {
          "challenger": "Address of the challenger.",
          "outputIndex": "Index of the L2 checkpoint output.",
          "timestamp": "The timestamp when deleted."
        }
      },
      "Proven(uint256,address,uint256)": {
        "params": {
          "challenger": "Address of the challenger.",
          "outputIndex": "Index of the L2 checkpoint output.",
          "timestamp": "The timestamp when proven."
        }
      },
      "ReadyToProve(uint256,address)": {
        "params": {
          "challenger": "Address of the challenger.",
          "outputIndex": "Index of the L2 checkpoint output."
        }
      }
    }
  },
  "userdoc": {
    "version": 1,
    "kind": "user",
    "methods": {
      "BISECTION_TIMEOUT()": {
        "notice": "Timeout seconds for the bisection."
      },
      "CREATION_PERIOD_SECONDS()": {
        "notice": "The period seconds for which challenges can be created per each output."
      },
      "DUMMY_HASH()": {
        "notice": "The dummy transaction hash. This is used to pad if the         number of transactions is less than MAX_TXS. This is same as:         unsignedTx = {           nonce: 0,           gasLimit: 0,           gasPrice: 0,           to: address(0),           value: 0,           data: '0x',           chainId: CHAIN_ID,         }         signature = sign(unsignedTx, 0x1)         dummyHash = keccak256(rlp({           ...unsignedTx,           signature,         }))"
      },
      "L2_ORACLE()": {
        "notice": "Address of the L2OutputOracle."
      },
      "L2_ORACLE_SUBMISSION_INTERVAL()": {
        "notice": "The interval in L2 blocks at which checkpoints must be         submitted on L2OutputOracle contract."
      },
      "MAX_TXS()": {
        "notice": "The maximum number of transactions"
      },
      "PROVING_TIMEOUT()": {
        "notice": "Timeout seconds for the proving."
      },
      "SECURITY_COUNCIL()": {
        "notice": "Address that has the ability to approve the challenge."
      },
      "ZK_MERKLE_TRIE()": {
        "notice": "Address that has the ability to verify the merkle proof."
      },
      "ZK_VERIFIER()": {
        "notice": "Address of the ZKVerifier."
      },
      "bisect(uint256,address,uint256,bytes32[])": {
        "notice": "Selects an invalid section and submit segments of that section."
      },
      "cancelChallenge(uint256)": {
        "notice": "Cancels the challenge.         Reverts if is not possible to cancel the sender's challenge for the given output index."
      },
      "challengerTimeout(uint256,address)": {
        "notice": "Calls a private function that deletes the challenge because the challenger has timed out.         Reverts if the challenger hasn't timed out."
      },
      "challenges(uint256,address)": {
        "notice": "A mapping of the challenge."
      },
      "createChallenge(uint256,bytes32,uint256,bytes32[])": {
        "notice": "Creates a challenge against an invalid output."
      },
      "dismissChallenge(uint256,address,address,bytes32,bytes32)": {
        "notice": "Dismisses the challenge and rollback l2 output.         This function can only be called by Security Council contract."
      },
      "forceDeleteOutput(uint256)": {
        "notice": "Deletes the L2 output root forcefully by the Security Council         when zk-proving is not possible due to an undeniable bug."
      },
      "getChallenge(uint256,address)": {
        "notice": "Returns the challenge corresponding to the given L2 output index."
      },
      "getSegmentsLength(uint8)": {
        "notice": "Returns the segment length required for that turn."
      },
      "getStatus(uint256,address)": {
        "notice": "Returns the challenge status corresponding to the given L2 output index."
      },
      "initialize(uint256[])": {
        "notice": "Initializer."
      },
      "isAbleToBisect(uint256,address)": {
        "notice": "Determines whether bisection is possible in the challenge corresponding to the given         L2 output index."
      },
      "isInCreationPeriod(uint256)": {
        "notice": "Determines whether current timestamp is in challenge creation period corresponding to the given L2 output index."
      },
      "proveFault(uint256,uint256,((bytes32,bytes32,bytes32,bytes32,bytes32),(bytes32,bytes32,bytes32,bytes32,bytes32),(bytes32,bytes32,uint64,uint64,uint64,uint256,bytes32,bytes32,bytes32,bytes32[]),(bytes,bytes,bytes,bytes,bytes,bytes,bytes,bytes,bytes),bytes32,bytes32,bytes[]),uint256[],uint256[])": {
        "notice": "Proves that a specific output is invalid using ZKP.         This function can only be called in the READY_TO_PROVE and ASSERTER_TIMEOUT states."
      },
      "verifiedPublicInputs(bytes32)": {
        "notice": "A mapping indicating whether a public input is verified or not."
      },
      "version()": {
        "notice": "Returns the full semver contract version."
      }
    },
    "events": {
      "Bisected(uint256,address,uint8,uint256)": {
        "notice": "Emitted when segments are bisected."
      },
      "ChallengeCanceled(uint256,address,uint256)": {
        "notice": "Emitted when challenge is canceled."
      },
      "ChallengeCreated(uint256,address,address,uint256)": {
        "notice": "Emitted when the challenge is created."
      },
      "ChallengeDismissed(uint256,address,uint256)": {
        "notice": "Emitted when challenge is dismissed."
      },
      "ChallengerTimedOut(uint256,address,uint256)": {
        "notice": "Emitted when challenger timed out."
      },
      "Proven(uint256,address,uint256)": {
        "notice": "Emitted when proven fault."
      },
      "ReadyToProve(uint256,address)": {
        "notice": "Emitted when it is ready to be proved."
      }
    }
  },
  "storageLayout": {
    "storage": [
      {
        "astId": 74319,
        "contract": "contracts/L1/Colosseum.sol:Colosseum",
        "label": "_initialized",
        "offset": 0,
        "slot": "0",
        "type": "t_uint8"
      },
      {
        "astId": 74322,
        "contract": "contracts/L1/Colosseum.sol:Colosseum",
        "label": "_initializing",
        "offset": 1,
        "slot": "0",
        "type": "t_bool"
      },
      {
        "astId": 80,
        "contract": "contracts/L1/Colosseum.sol:Colosseum",
        "label": "segmentsLengths",
        "offset": 0,
        "slot": "1",
        "type": "t_mapping(t_uint256,t_uint256)"
      },
      {
        "astId": 88,
        "contract": "contracts/L1/Colosseum.sol:Colosseum",
        "label": "challenges",
        "offset": 0,
        "slot": "2",
        "type": "t_mapping(t_uint256,t_mapping(t_address,t_struct(Challenge)17587_storage))"
      },
      {
        "astId": 93,
        "contract": "contracts/L1/Colosseum.sol:Colosseum",
        "label": "verifiedPublicInputs",
        "offset": 0,
        "slot": "3",
        "type": "t_mapping(t_bytes32,t_bool)"
      }
    ],
    "types": {
      "t_address": {
        "encoding": "inplace",
        "label": "address",
        "numberOfBytes": "20"
      },
      "t_array(t_bytes32)dyn_storage": {
        "encoding": "dynamic_array",
        "label": "bytes32[]",
        "numberOfBytes": "32",
        "base": "t_bytes32"
      },
      "t_bool": {
        "encoding": "inplace",
        "label": "bool",
        "numberOfBytes": "1"
      },
      "t_bytes32": {
        "encoding": "inplace",
        "label": "bytes32",
        "numberOfBytes": "32"
      },
      "t_mapping(t_address,t_struct(Challenge)17587_storage)": {
        "encoding": "mapping",
        "key": "t_address",
        "label": "mapping(address => struct Types.Challenge)",
        "numberOfBytes": "32",
        "value": "t_struct(Challenge)17587_storage"
      },
      "t_mapping(t_bytes32,t_bool)": {
        "encoding": "mapping",
        "key": "t_bytes32",
        "label": "mapping(bytes32 => bool)",
        "numberOfBytes": "32",
        "value": "t_bool"
      },
      "t_mapping(t_uint256,t_mapping(t_address,t_struct(Challenge)17587_storage))": {
        "encoding": "mapping",
        "key": "t_uint256",
        "label": "mapping(uint256 => mapping(address => struct Types.Challenge))",
        "numberOfBytes": "32",
        "value": "t_mapping(t_address,t_struct(Challenge)17587_storage)"
      },
      "t_mapping(t_uint256,t_uint256)": {
        "encoding": "mapping",
        "key": "t_uint256",
        "label": "mapping(uint256 => uint256)",
        "numberOfBytes": "32",
        "value": "t_uint256"
      },
      "t_struct(Challenge)17587_storage": {
        "encoding": "inplace",
        "label": "struct Types.Challenge",
        "numberOfBytes": "160",
        "members": [
          {
            "astId": 17573,
            "contract": "contracts/L1/Colosseum.sol:Colosseum",
            "label": "turn",
            "offset": 0,
            "slot": "0",
            "type": "t_uint8"
          },
          {
            "astId": 17575,
            "contract": "contracts/L1/Colosseum.sol:Colosseum",
            "label": "timeoutAt",
            "offset": 1,
            "slot": "0",
            "type": "t_uint64"
          },
          {
            "astId": 17577,
            "contract": "contracts/L1/Colosseum.sol:Colosseum",
            "label": "asserter",
            "offset": 9,
            "slot": "0",
            "type": "t_address"
          },
          {
            "astId": 17579,
            "contract": "contracts/L1/Colosseum.sol:Colosseum",
            "label": "challenger",
            "offset": 0,
            "slot": "1",
            "type": "t_address"
          },
          {
            "astId": 17582,
            "contract": "contracts/L1/Colosseum.sol:Colosseum",
            "label": "segments",
            "offset": 0,
            "slot": "2",
            "type": "t_array(t_bytes32)dyn_storage"
          },
          {
            "astId": 17584,
            "contract": "contracts/L1/Colosseum.sol:Colosseum",
            "label": "segSize",
            "offset": 0,
            "slot": "3",
            "type": "t_uint256"
          },
          {
            "astId": 17586,
            "contract": "contracts/L1/Colosseum.sol:Colosseum",
            "label": "segStart",
            "offset": 0,
            "slot": "4",
            "type": "t_uint256"
          }
        ]
      },
      "t_uint256": {
        "encoding": "inplace",
        "label": "uint256",
        "numberOfBytes": "32"
      },
      "t_uint64": {
        "encoding": "inplace",
        "label": "uint64",
        "numberOfBytes": "8"
      },
      "t_uint8": {
        "encoding": "inplace",
        "label": "uint8",
        "numberOfBytes": "1"
      }
    }
  }
}