{
  "address": "0xE9fBAA7f3b19359F6CF2145DFd38Cd6a0f8F7C4D",
  "abi": [
    {
      "inputs": [
        {
          "internalType": "contract L2OutputOracle",
          "name": "_l2Oracle",
          "type": "address"
        },
        {
          "internalType": "contract ZKVerifier",
          "name": "_zkVerifier",
          "type": "address"
        },
        {
          "internalType": "uint256",
          "name": "_submissionInterval",
          "type": "uint256"
        },
        {
          "internalType": "uint256",
          "name": "_bisectionTimeout",
          "type": "uint256"
        },
        {
          "internalType": "uint256",
          "name": "_provingTimeout",
          "type": "uint256"
        },
        {
          "internalType": "bytes32",
          "name": "_dummyHash",
          "type": "bytes32"
        },
        {
          "internalType": "uint256",
          "name": "_maxTxs",
          "type": "uint256"
        },
        {
          "internalType": "uint256[]",
          "name": "_segmentsLengths",
          "type": "uint256[]"
        },
        {
          "internalType": "address",
          "name": "_securityCouncil",
          "type": "address"
        },
        {
          "internalType": "address",
          "name": "_zkMerkleTrie",
          "type": "address"
        }
      ],
      "stateMutability": "nonpayable",
      "type": "constructor"
    },
    {
      "anonymous": false,
      "inputs": [
        {
          "indexed": true,
          "internalType": "uint256",
          "name": "outputIndex",
          "type": "uint256"
        },
        {
          "indexed": false,
          "internalType": "uint256",
          "name": "timestamp",
          "type": "uint256"
        }
      ],
      "name": "Approved",
      "type": "event"
    },
    {
      "anonymous": false,
      "inputs": [
        {
          "indexed": true,
          "internalType": "uint256",
          "name": "outputIndex",
          "type": "uint256"
        },
        {
          "indexed": false,
          "internalType": "uint8",
          "name": "turn",
          "type": "uint8"
        },
        {
          "indexed": false,
          "internalType": "uint256",
          "name": "timestamp",
          "type": "uint256"
        }
      ],
      "name": "Bisected",
      "type": "event"
    },
    {
      "anonymous": false,
      "inputs": [
        {
          "indexed": true,
          "internalType": "uint256",
          "name": "outputIndex",
          "type": "uint256"
        },
        {
          "indexed": true,
          "internalType": "address",
          "name": "asserter",
          "type": "address"
        },
        {
          "indexed": true,
          "internalType": "address",
          "name": "challenger",
          "type": "address"
        },
        {
          "indexed": false,
          "internalType": "uint256",
          "name": "timestamp",
          "type": "uint256"
        }
      ],
      "name": "ChallengeCreated",
      "type": "event"
    },
    {
      "anonymous": false,
      "inputs": [
        {
          "indexed": true,
          "internalType": "uint256",
          "name": "outputIndex",
          "type": "uint256"
        },
        {
          "indexed": false,
          "internalType": "uint256",
          "name": "timestamp",
          "type": "uint256"
        }
      ],
      "name": "Deleted",
      "type": "event"
    },
    {
      "anonymous": false,
      "inputs": [
        {
          "indexed": false,
          "internalType": "uint8",
          "name": "version",
          "type": "uint8"
        }
      ],
      "name": "Initialized",
      "type": "event"
    },
    {
      "anonymous": false,
      "inputs": [
        {
          "indexed": true,
          "internalType": "uint256",
          "name": "outputIndex",
          "type": "uint256"
        },
        {
          "indexed": false,
          "internalType": "bytes32",
          "name": "newOutputRoot",
          "type": "bytes32"
        }
      ],
      "name": "Proven",
      "type": "event"
    },
    {
      "inputs": [],
      "name": "BISECTION_TIMEOUT",
      "outputs": [
        {
          "internalType": "uint256",
          "name": "",
          "type": "uint256"
        }
      ],
      "stateMutability": "view",
      "type": "function"
    },
    {
      "inputs": [],
      "name": "DUMMY_HASH",
      "outputs": [
        {
          "internalType": "bytes32",
          "name": "",
          "type": "bytes32"
        }
      ],
      "stateMutability": "view",
      "type": "function"
    },
    {
      "inputs": [],
      "name": "L2_ORACLE",
      "outputs": [
        {
          "internalType": "contract L2OutputOracle",
          "name": "",
          "type": "address"
        }
      ],
      "stateMutability": "view",
      "type": "function"
    },
    {
      "inputs": [],
      "name": "L2_ORACLE_SUBMISSION_INTERVAL",
      "outputs": [
        {
          "internalType": "uint256",
          "name": "",
          "type": "uint256"
        }
      ],
      "stateMutability": "view",
      "type": "function"
    },
    {
      "inputs": [],
      "name": "MAX_TXS",
      "outputs": [
        {
          "internalType": "uint256",
          "name": "",
          "type": "uint256"
        }
      ],
      "stateMutability": "view",
      "type": "function"
    },
    {
      "inputs": [],
      "name": "PROVING_TIMEOUT",
      "outputs": [
        {
          "internalType": "uint256",
          "name": "",
          "type": "uint256"
        }
      ],
      "stateMutability": "view",
      "type": "function"
    },
    {
      "inputs": [],
      "name": "SECURITY_COUNCIL",
      "outputs": [
        {
          "internalType": "address",
          "name": "",
          "type": "address"
        }
      ],
      "stateMutability": "view",
      "type": "function"
    },
    {
      "inputs": [],
      "name": "ZK_MERKLE_TRIE",
      "outputs": [
        {
          "internalType": "address",
          "name": "",
          "type": "address"
        }
      ],
      "stateMutability": "view",
      "type": "function"
    },
    {
      "inputs": [],
      "name": "ZK_VERIFIER",
      "outputs": [
        {
          "internalType": "contract ZKVerifier",
          "name": "",
          "type": "address"
        }
      ],
      "stateMutability": "view",
      "type": "function"
    },
    {
      "inputs": [
        {
          "internalType": "uint256",
          "name": "_outputIndex",
          "type": "uint256"
        }
      ],
      "name": "approveChallenge",
      "outputs": [],
      "stateMutability": "nonpayable",
      "type": "function"
    },
    {
      "inputs": [
        {
          "internalType": "uint256",
          "name": "_outputIndex",
          "type": "uint256"
        },
        {
          "internalType": "uint256",
          "name": "_pos",
          "type": "uint256"
        },
        {
          "internalType": "bytes32[]",
          "name": "_segments",
          "type": "bytes32[]"
        }
      ],
      "name": "bisect",
      "outputs": [],
      "stateMutability": "nonpayable",
      "type": "function"
    },
    {
      "inputs": [
        {
          "internalType": "uint256",
          "name": "_outputIndex",
          "type": "uint256"
        }
      ],
      "name": "challengerTimeout",
      "outputs": [],
      "stateMutability": "nonpayable",
      "type": "function"
    },
    {
      "inputs": [
        {
          "internalType": "uint256",
          "name": "",
          "type": "uint256"
        }
      ],
      "name": "challenges",
      "outputs": [
        {
          "internalType": "uint8",
          "name": "turn",
          "type": "uint8"
        },
        {
          "internalType": "uint64",
          "name": "timeoutAt",
          "type": "uint64"
        },
        {
          "internalType": "bool",
          "name": "approved",
          "type": "bool"
        },
        {
          "internalType": "address",
          "name": "asserter",
          "type": "address"
        },
        {
          "internalType": "address",
          "name": "challenger",
          "type": "address"
        },
        {
          "internalType": "uint256",
          "name": "segSize",
          "type": "uint256"
        },
        {
          "internalType": "uint256",
          "name": "segStart",
          "type": "uint256"
        },
        {
          "internalType": "bytes32",
          "name": "outputRoot",
          "type": "bytes32"
        }
      ],
      "stateMutability": "view",
      "type": "function"
    },
    {
      "inputs": [
        {
          "internalType": "uint256",
          "name": "_outputIndex",
          "type": "uint256"
        },
        {
          "internalType": "bytes32[]",
          "name": "_segments",
          "type": "bytes32[]"
        }
      ],
      "name": "createChallenge",
      "outputs": [],
      "stateMutability": "nonpayable",
      "type": "function"
    },
    {
      "inputs": [
        {
          "internalType": "uint256",
          "name": "_outputIndex",
          "type": "uint256"
        }
      ],
      "name": "getChallenge",
      "outputs": [
        {
          "components": [
            {
              "internalType": "uint8",
              "name": "turn",
              "type": "uint8"
            },
            {
              "internalType": "uint64",
              "name": "timeoutAt",
              "type": "uint64"
            },
            {
              "internalType": "bool",
              "name": "approved",
              "type": "bool"
            },
            {
              "internalType": "address",
              "name": "asserter",
              "type": "address"
            },
            {
              "internalType": "address",
              "name": "challenger",
              "type": "address"
            },
            {
              "internalType": "bytes32[]",
              "name": "segments",
              "type": "bytes32[]"
            },
            {
              "internalType": "uint256",
              "name": "segSize",
              "type": "uint256"
            },
            {
              "internalType": "uint256",
              "name": "segStart",
              "type": "uint256"
            },
            {
              "internalType": "bytes32",
              "name": "outputRoot",
              "type": "bytes32"
            }
          ],
          "internalType": "struct Types.Challenge",
          "name": "",
          "type": "tuple"
        }
      ],
      "stateMutability": "view",
      "type": "function"
    },
    {
      "inputs": [
        {
          "internalType": "uint8",
          "name": "_turn",
          "type": "uint8"
        }
      ],
      "name": "getSegmentsLength",
      "outputs": [
        {
          "internalType": "uint256",
          "name": "",
          "type": "uint256"
        }
      ],
      "stateMutability": "view",
      "type": "function"
    },
    {
      "inputs": [
        {
          "internalType": "uint256",
          "name": "_outputIndex",
          "type": "uint256"
        }
      ],
      "name": "getStatus",
      "outputs": [
        {
          "internalType": "enum Colosseum.ChallengeStatus",
          "name": "",
          "type": "uint8"
        }
      ],
      "stateMutability": "view",
      "type": "function"
    },
    {
      "inputs": [
        {
          "internalType": "uint256[]",
          "name": "_segmentsLengths",
          "type": "uint256[]"
        }
      ],
      "name": "initialize",
      "outputs": [],
      "stateMutability": "nonpayable",
      "type": "function"
    },
    {
      "inputs": [
        {
          "internalType": "uint256",
          "name": "_outputIndex",
          "type": "uint256"
        }
      ],
      "name": "isAbleToBisect",
      "outputs": [
        {
          "internalType": "bool",
          "name": "",
          "type": "bool"
        }
      ],
      "stateMutability": "view",
      "type": "function"
    },
    {
      "inputs": [
        {
          "internalType": "uint256",
          "name": "_outputIndex",
          "type": "uint256"
        },
        {
          "internalType": "address",
          "name": "_address",
          "type": "address"
        }
      ],
      "name": "isChallengeRelated",
      "outputs": [
        {
          "internalType": "bool",
          "name": "",
          "type": "bool"
        }
      ],
      "stateMutability": "view",
      "type": "function"
    },
    {
      "inputs": [
        {
          "internalType": "uint256",
          "name": "_outputIndex",
          "type": "uint256"
        }
      ],
      "name": "isInProgress",
      "outputs": [
        {
          "internalType": "bool",
          "name": "",
          "type": "bool"
        }
      ],
      "stateMutability": "view",
      "type": "function"
    },
    {
      "inputs": [
        {
          "internalType": "uint256",
          "name": "_outputIndex",
          "type": "uint256"
        },
        {
          "internalType": "bytes32",
          "name": "_outputRoot",
          "type": "bytes32"
        },
        {
          "internalType": "uint256",
          "name": "_pos",
          "type": "uint256"
        },
        {
          "components": [
            {
              "components": [
                {
                  "internalType": "bytes32",
                  "name": "version",
                  "type": "bytes32"
                },
                {
                  "internalType": "bytes32",
                  "name": "stateRoot",
                  "type": "bytes32"
                },
                {
                  "internalType": "bytes32",
                  "name": "messagePasserStorageRoot",
                  "type": "bytes32"
                },
                {
                  "internalType": "bytes32",
                  "name": "blockHash",
                  "type": "bytes32"
                },
                {
                  "internalType": "bytes32",
                  "name": "nextBlockHash",
                  "type": "bytes32"
                }
              ],
              "internalType": "struct Types.OutputRootProof",
              "name": "srcOutputRootProof",
              "type": "tuple"
            },
            {
              "components": [
                {
                  "internalType": "bytes32",
                  "name": "version",
                  "type": "bytes32"
                },
                {
                  "internalType": "bytes32",
                  "name": "stateRoot",
                  "type": "bytes32"
                },
                {
                  "internalType": "bytes32",
                  "name": "messagePasserStorageRoot",
                  "type": "bytes32"
                },
                {
                  "internalType": "bytes32",
                  "name": "blockHash",
                  "type": "bytes32"
                },
                {
                  "internalType": "bytes32",
                  "name": "nextBlockHash",
                  "type": "bytes32"
                }
              ],
              "internalType": "struct Types.OutputRootProof",
              "name": "dstOutputRootProof",
              "type": "tuple"
            },
            {
              "components": [
                {
                  "internalType": "bytes32",
                  "name": "blockHash",
                  "type": "bytes32"
                },
                {
                  "internalType": "bytes32",
                  "name": "parentHash",
                  "type": "bytes32"
                },
                {
                  "internalType": "uint64",
                  "name": "timestamp",
                  "type": "uint64"
                },
                {
                  "internalType": "uint64",
                  "name": "number",
                  "type": "uint64"
                },
                {
                  "internalType": "uint64",
                  "name": "gasLimit",
                  "type": "uint64"
                },
                {
                  "internalType": "uint256",
                  "name": "baseFee",
                  "type": "uint256"
                },
                {
                  "internalType": "bytes32",
                  "name": "transactionsRoot",
                  "type": "bytes32"
                },
                {
                  "internalType": "bytes32",
                  "name": "stateRoot",
                  "type": "bytes32"
                },
                {
                  "internalType": "bytes32",
                  "name": "withdrawalsRoot",
                  "type": "bytes32"
                },
                {
                  "internalType": "bytes32[]",
                  "name": "txHashes",
                  "type": "bytes32[]"
                }
              ],
              "internalType": "struct Types.PublicInput",
              "name": "publicInput",
              "type": "tuple"
            },
            {
              "components": [
                {
                  "internalType": "bytes",
                  "name": "uncleHash",
                  "type": "bytes"
                },
                {
                  "internalType": "bytes",
                  "name": "coinbase",
                  "type": "bytes"
                },
                {
                  "internalType": "bytes",
                  "name": "receiptsRoot",
                  "type": "bytes"
                },
                {
                  "internalType": "bytes",
                  "name": "logsBloom",
                  "type": "bytes"
                },
                {
                  "internalType": "bytes",
                  "name": "difficulty",
                  "type": "bytes"
                },
                {
                  "internalType": "bytes",
                  "name": "gasUsed",
                  "type": "bytes"
                },
                {
                  "internalType": "bytes",
                  "name": "extraData",
                  "type": "bytes"
                },
                {
                  "internalType": "bytes",
                  "name": "mixHash",
                  "type": "bytes"
                },
                {
                  "internalType": "bytes",
                  "name": "nonce",
                  "type": "bytes"
                }
              ],
              "internalType": "struct Types.BlockHeaderRLP",
              "name": "rlps",
              "type": "tuple"
            },
            {
              "internalType": "bytes32",
              "name": "l2ToL1MessagePasserBalance",
              "type": "bytes32"
            },
            {
              "internalType": "bytes32",
              "name": "l2ToL1MessagePasserCodeHash",
              "type": "bytes32"
            },
            {
              "internalType": "bytes[]",
              "name": "merkleProof",
              "type": "bytes[]"
            }
          ],
          "internalType": "struct Types.PublicInputProof",
          "name": "_proof",
          "type": "tuple"
        },
        {
          "internalType": "uint256[]",
          "name": "_zkproof",
          "type": "uint256[]"
        },
        {
          "internalType": "uint256[]",
          "name": "_pair",
          "type": "uint256[]"
        }
      ],
      "name": "proveFault",
      "outputs": [],
      "stateMutability": "nonpayable",
      "type": "function"
    },
    {
      "inputs": [
        {
          "internalType": "bytes32",
          "name": "",
          "type": "bytes32"
        }
      ],
      "name": "verifiedPublicInputs",
      "outputs": [
        {
          "internalType": "bool",
          "name": "",
          "type": "bool"
        }
      ],
      "stateMutability": "view",
      "type": "function"
    },
    {
      "inputs": [],
      "name": "version",
      "outputs": [
        {
          "internalType": "string",
          "name": "",
          "type": "string"
        }
      ],
      "stateMutability": "view",
      "type": "function"
    }
  ],
  "transactionHash": "0x91c861d3aadc9e05e42988936ccc6d02b6bd2648f49937a1a9864ce7ee37df2e",
  "args": [
    "0x7291913342063fd10d31651735BAF3877D2F9645",
    "0xAFc0b09f5F9113CBFE38b933f9c22c1301af4CFb",
    60,
    120,
    480,
    "0x87379d11e537ac64cf7b1bff157e504c71d50ec8713e72936dbae1de9fa07356",
    25,
    [
      "4",
      "3",
      "6",
      "3"
    ],
    "0x7F0DECbef4FdD0193b7d5c8Cc918C1A69d3eF78C",
    "0x1D1faF1B91fC182EadAC609ff3129555CEF8Baac"
  ],
  "numDeployments": 1,
  "solcInputHash": "5994a2571e3c90a6c7816d0a453ce4bc",
  "bytecode": "0x6102006040523480156200001257600080fd5b506040516200483e3803806200483e83398101604081905262000035916200038e565b60006080819052600160a05260c0526001600160a01b03808b1660e052898116610100526101208890526101408790526101608990526101808690526101a08590528281166101c05281166101e0526200008f836200009f565b505050505050505050506200056e565b600054610100900460ff1615808015620000c05750600054600160ff909116105b80620000f05750620000dd30620001d360201b620016c01760201c565b158015620000f0575060005460ff166001145b620001595760405162461bcd60e51b815260206004820152602e60248201527f496e697469616c697a61626c653a20636f6e747261637420697320616c72656160448201526d191e481a5b9a5d1a585b1a5e995960921b60648201526084015b60405180910390fd5b6000805460ff1916600117905580156200017d576000805461ff0019166101001790555b6200018882620001e2565b8015620001cf576000805461ff0019169055604051600181527f7f26b83ff96e1f2b6a682f133852f6798a09c465da95921460cefb38474024989060200160405180910390a15b5050565b6001600160a01b03163b151590565b60028151620001f29190620004e3565b15620002675760405162461bcd60e51b815260206004820152603b60248201527f436f6c6f737365756d3a206c656e677468206f66207365676d656e7473206c6560448201527f6e677468732063616e6e6f74206265206f6464206e756d6265722e0000000000606482015260840162000150565b600160005b8251811015620002ec578281815181106200028b576200028b62000506565b602002602001015160016000838152602001908152602001600020819055506001838281518110620002c157620002c162000506565b6020026020010151620002d5919062000532565b620002e190836200054c565b91506001016200026c565b50610160518114620001cf5760405162461bcd60e51b815260206004820152602360248201527f436f6c6f737365756d3a20696e76616c6964207365676d656e7473206c656e6760448201526274687360e81b606482015260840162000150565b6001600160a01b03811681146200036357600080fd5b50565b634e487b7160e01b600052604160045260246000fd5b805162000389816200034d565b919050565b6000806000806000806000806000806101408b8d031215620003af57600080fd5b8a51620003bc816200034d565b60208c0151909a50620003cf816200034d565b8099505060408b0151975060608b0151965060808b0151955060a08b0151945060c08b0151935060e08b015160018060401b03808211156200041057600080fd5b818d0191508d601f8301126200042557600080fd5b8151818111156200043a576200043a62000366565b604051601f19603f8360051b01168101818110848211171562000461576200046162000366565b6040528181526020808201935060059290921b8401909101908f8211156200048857600080fd5b6020840193505b81841015620004ac5783518352602093840193909201916200048f565b9550620004c1925050506101008c016200037c565b9150620004d26101208c016200037c565b90509295989b9194979a5092959850565b6000826200050157634e487b7160e01b600052601260045260246000fd5b500690565b634e487b7160e01b600052603260045260246000fd5b634e487b7160e01b600052601160045260246000fd5b6000828210156200054757620005476200051c565b500390565b60008160001904831182151516156200056957620005696200051c565b500290565b60805160a05160c05160e05161010051610120516101405161016051610180516101a0516101c0516101e0516141ce620006706000396000818161033e01526122ad01526000818161027e01528181610a7501526124a50152600081816102da015281816123e1015261244f015260008181610532015261241b0152600081816104e40152818161136f015281816113a801528181611eb901526124d001526000818161050b01528181611c200152611d410152600081816102a50152611c87015260006104aa0152600081816101a101528181610c08015281816110450152611218015260006107a2015260006107790152600061075001526141ce6000f3fe608060405234801561001057600080fd5b50600436106101975760003560e01c80635865b607116100e35780639ded39521161008c578063d2ee307511610066578063d2ee307514610506578063d5145ebc1461052d578063e79065551461055457600080fd5b80639ded3952146104a5578063b8b1a27c146104cc578063cfb4474d146104df57600080fd5b80636fe0e559116100bd5780636fe0e559146103935780637ecc14be146103a65780638f1d3776146103b957600080fd5b80635865b60714610339578063586b7414146103605780635c622a0e1461037357600080fd5b8063360864171161014557806354fd4d501161011f57806354fd4d50146102fc5780635713327814610311578063572419a01461032657600080fd5b806336086417146102795780634394c584146102a05780635375b891146102d557600080fd5b80631bdd4b74116101765780631bdd4b74146102235780631be4e27e1461024357806329204bc81461026657600080fd5b80621c2ff61461019c5780630d304c08146101ed5780631728fad114610210575b600080fd5b6101c37f000000000000000000000000000000000000000000000000000000000000000081565b60405173ffffffffffffffffffffffffffffffffffffffff90911681526020015b60405180910390f35b6102006101fb36600461314d565b610567565b60405190151581526020016101e4565b61020061021e36600461314d565b610585565b61023661023136600461314d565b61059c565b6040516101e491906131a1565b61020061025136600461314d565b60036020526000908152604090205460ff1681565b61020061027436600461328f565b6106df565b6101c37f000000000000000000000000000000000000000000000000000000000000000081565b6102c77f000000000000000000000000000000000000000000000000000000000000000081565b6040519081526020016101e4565b6102c77f000000000000000000000000000000000000000000000000000000000000000081565b610304610749565b6040516101e4919061331b565b61032461031f36600461337a565b6107ec565b005b61032461033436600461314d565b610987565b6101c37f000000000000000000000000000000000000000000000000000000000000000081565b61032461036e36600461314d565b610a5d565b61038661038136600461314d565b610d5c565b6040516101e491906133fc565b6103246103a136600461350f565b610d73565b6103246103b43660046135a5565b610eed565b6104406103c736600461314d565b6002602052600090815260409020805460018201546003830154600484015460059094015460ff8085169567ffffffffffffffff61010087041695690100000000000000000081049092169473ffffffffffffffffffffffffffffffffffffffff6a010000000000000000000090930483169492169288565b6040805160ff909916895267ffffffffffffffff90971660208901529415159587019590955273ffffffffffffffffffffffffffffffffffffffff92831660608701529116608085015260a084015260c083019190915260e0820152610100016101e4565b6101c37f000000000000000000000000000000000000000000000000000000000000000081565b6102c76104da3660046135f1565b6114a9565b6102c77f000000000000000000000000000000000000000000000000000000000000000081565b6102c77f000000000000000000000000000000000000000000000000000000000000000081565b6102c77f000000000000000000000000000000000000000000000000000000000000000081565b610324610562366004613614565b611526565b600081815260026020526040812061057e816116dc565b9392505050565b600081815260026020526040812061057e816116f0565b604080516101208101825260008082526020820181905291810182905260608082018390526080820183905260a082015260c0810182905260e08101829052610100810191909152600082815260026020818152604092839020835161012081018552815460ff808216835267ffffffffffffffff61010083041683860152690100000000000000000082041615158287015273ffffffffffffffffffffffffffffffffffffffff6a010000000000000000000090910481166060830152600183015416608082015292810180548551818502810185019096528086529394919360a08601938301828280156106b157602002820191906000526020600020905b81548152602001906001019080831161069d575b5050505050815260200160038201548152602001600482015481526020016005820154815250509050919050565b6000828152600260205260408120805473ffffffffffffffffffffffffffffffffffffffff8481166a010000000000000000000090920416148061073f5750600181015473ffffffffffffffffffffffffffffffffffffffff8481169116145b9150505b92915050565b60606107747f0000000000000000000000000000000000000000000000000000000000000000611738565b61079d7f0000000000000000000000000000000000000000000000000000000000000000611738565b6107c67f0000000000000000000000000000000000000000000000000000000000000000611738565b6040516020016107d8939291906136ce565b604051602081830303815290604052905090565b600084815260026020526040902061080381611875565b80546000906108169060ff166001613773565b90506108a18183600201878154811061083157610831613798565b90600052602060002001548460020188600161084d91906137c7565b8154811061085d5761085d613798565b9060005260206000200154878780806020026020016040519081016040528093929190818152602001838360200280828437600092019190915250611a0b92505050565b60006108ac83611bb8565b905060006108ba82886137df565b84600401546108c991906137c7565b905061090c84878780806020026020016040519081016040528093929190818152602001838360200280828437600092019190915250869250879150611be49050565b83547fffffffffffffffffffffffffffffffffffffffffffffffffffffffffffffff001660ff841617845561094084611c0e565b6040805160ff8516815242602082015289917fa2bae20ceacd256f82b17383dce1a4ae47160249716414a902f45a7f234e8302910160405180910390a25050505050505050565b600081815260026020526040902061099e81611875565b6000828152600260208190526040822080547fffff0000000000000000000000000000000000000000000000000000000000001681556001810180547fffffffffffffffffffffffff00000000000000000000000000000000000000001690559190610a0c908301826130cf565b506000600382018190556004820181905560059091015560405142815282907fe8f652f9f21a63a0e34171413bdc9d92cd79d0bb8bc66f3c92efedf25a3e32db906020015b60405180910390a25050565b3373ffffffffffffffffffffffffffffffffffffffff7f00000000000000000000000000000000000000000000000000000000000000001614610b0d5760405162461bcd60e51b815260206004820152602d60248201527f436f6c6f737365756d3a2073656e646572206973206e6f74207468652073656360448201527f757269747920636f756e63696c0000000000000000000000000000000000000060648201526084015b60405180910390fd5b60008181526002602052604090206006610b2682611caf565b6007811115610b3757610b376133cd565b14610baa5760405162461bcd60e51b815260206004820152602760248201527f436f6c6f737365756d3a2074686973206368616c6c656e6765206973206e6f7460448201527f2070726f76656e000000000000000000000000000000000000000000000000006064820152608401610b04565b600581015460018201546040517fe664672300000000000000000000000000000000000000000000000000000000815260048101859052602481019290925273ffffffffffffffffffffffffffffffffffffffff90811660448301527f0000000000000000000000000000000000000000000000000000000000000000169063e664672390606401600060405180830381600087803b158015610c4c57600080fd5b505af1158015610c60573d6000803e3d6000fd5b5050506000838152600260208190526040822080547fffff0000000000000000000000000000000000000000000000000000000000001681556001810180547fffffffffffffffffffffffff00000000000000000000000000000000000000001690559250610cd1908301826130cf565b50600060038201819055600482018190556005909101819055828152600260205260409081902080547fffffffffffffffffffffffffffffffffffffffffffff00ffffffffffffffffff1669010000000000000000001790555182907f1527ad5e6cfbfe249bfd6f9571cbfee0ce4a12335089fa9c6efeab04fec1f7a390610a519042815260200190565b600081815260026020526040812061057e81611caf565b600054610100900460ff1615808015610d935750600054600160ff909116105b80610dad5750303b158015610dad575060005460ff166001145b610e1f5760405162461bcd60e51b815260206004820152602e60248201527f496e697469616c697a61626c653a20636f6e747261637420697320616c72656160448201527f647920696e697469616c697a65640000000000000000000000000000000000006064820152608401610b04565b600080547fffffffffffffffffffffffffffffffffffffffffffffffffffffffffffffff001660011790558015610e7d57600080547fffffffffffffffffffffffffffffffffffffffffffffffffffffffffffff00ff166101001790555b610e8682611dbc565b8015610ee957600080547fffffffffffffffffffffffffffffffffffffffffffffffffffffffffffff00ff169055604051600181527f7f26b83ff96e1f2b6a682f133852f6798a09c465da95921460cefb38474024989060200160405180910390a15b5050565b60008311610f635760405162461bcd60e51b815260206004820152603660248201527f436f6c6f737365756d3a206368616c6c656e676520666f722067656e6573697360448201527f206f7574707574206973206e6f7420616c6c6f776564000000000000000000006064820152608401610b04565b6000838152600260205260409020610f7a816116f0565b156110135760405162461bcd60e51b815260206004820152605360248201527f436f6c6f737365756d3a20746865206368616c6c656e676520666f722067697660448201527f656e206f757470757420696e64657820697320616c726561647920696e20707260648201527f6f6772657373206f7220617070726f7665642e00000000000000000000000000608482015260a401610b04565b6040517fa25ae557000000000000000000000000000000000000000000000000000000008152600481018590526000907f000000000000000000000000000000000000000000000000000000000000000073ffffffffffffffffffffffffffffffffffffffff169063a25ae55790602401608060405180830381865afa1580156110a1573d6000803e3d6000fd5b505050506040513d601f19601f820116820180604052508101906110c5919061383c565b905080606001516fffffffffffffffffffffffffffffffff1660000361112d5760405162461bcd60e51b815260206004820152601b60248201527f436f6c6f737365756d3a206f7574707574206e6f7420666f756e6400000000006044820152606401610b04565b805173ffffffffffffffffffffffffffffffffffffffff1633036111b95760405162461bcd60e51b815260206004820152603860248201527f436f6c6f737365756d3a2074686520617373657274657220616e64206368616c60448201527f6c656e676572206d75737420626520646966666572656e7400000000000000006064820152608401610b04565b6112166001858560008181106111d1576111d1613798565b905060200201358360200151878780806020026020016040519081016040528093929190818152602001838360200280828437600092019190915250611a0b92505050565b7f000000000000000000000000000000000000000000000000000000000000000073ffffffffffffffffffffffffffffffffffffffff1663b98debbf6040518163ffffffff1660e01b8152600401602060405180830381865afa158015611281573d6000803e3d6000fd5b505050506040513d601f19601f820116820180604052508101906112a591906138b4565b6040517fda3893f00000000000000000000000000000000000000000000000000000000081523360048201526024810187905273ffffffffffffffffffffffffffffffffffffffff919091169063da3893f090604401600060405180830381600087803b15801561131557600080fd5b505af1158015611329573d6000803e3d6000fd5b505050506113cc82858580806020026020016040519081016040528093929190818152602001838360200280828437600092019190915250505060608501516113a691507f0000000000000000000000000000000000000000000000000000000000000000906fffffffffffffffffffffffffffffffff166138d1565b7f0000000000000000000000000000000000000000000000000000000000000000611be4565b8154815173ffffffffffffffffffffffffffffffffffffffff166a0100000000000000000000027fffff0000000000000000000000000000000000000000ffffffffffffffffff009091161760019081178355820180547fffffffffffffffffffffffff0000000000000000000000000000000000000000163317905561145282611c0e565b8051604051428152339173ffffffffffffffffffffffffffffffffffffffff169087907fd2f7931a802085b3d0234d4c320ce7ee0041da96678ce2bf5c93e8d3d7e65f529060200160405180910390a45050505050565b6000600160ff831610156114ff5760405162461bcd60e51b815260206004820152601760248201527f436f6c6f737365756d3a20696e76616c6964207475726e0000000000000000006044820152606401610b04565b6001600061150d82856138e8565b60ff168152602001908152602001600020549050919050565b600088815260026020526040902061153d81611875565b61154c87828860a08101611f4c565b6115758660a0810161156261014083018361390b565b6115706101608b018b613949565b612141565b6115a16115866101c088018861397d565b6101808901356101a08a013560e08b013560c08c0135612255565b60006115be60208801356115b96101408a018a61390b565b6123db565b60008181526003602052604090205490915060ff161561166c5760405162461bcd60e51b815260206004820152604d60248201527f436f6c6f737365756d3a207075626c696320696e70757420746861742068617360448201527f20616c7265616479206265656e2076616c6964617465642063616e6e6f74206260648201527f65207573656420616761696e2e00000000000000000000000000000000000000608482015260a401610b04565b600081815260036020526040902080547fffffffffffffffffffffffffffffffffffffffffffffffffffffffffffffff00166001179055600582018990556116b48a8a61248e565b50505050505050505050565b73ffffffffffffffffffffffffffffffffffffffff163b151590565b600060016116e983611bb8565b1192915050565b6000806116fc83611caf565b90506000816007811115611712576117126133cd565b1415801561057e5750600381600781111561172f5761172f6133cd565b14159392505050565b60608160000361177b57505060408051808201909152600181527f3000000000000000000000000000000000000000000000000000000000000000602082015290565b8160005b81156117a5578061178f816139e5565b915061179e9050600a83613a4c565b915061177f565b60008167ffffffffffffffff8111156117c0576117c061343d565b6040519080825280601f01601f1916602001820160405280156117ea576020820181803683370190505b5090505b841561186d576117ff6001836138d1565b915061180c600a86613a60565b6118179060306137c7565b60f81b81838151811061182c5761182c613798565b60200101907effffffffffffffffffffffffffffffffffffffffffffffffffffffffffffff1916908160001a905350611866600a86613a4c565b94506117ee565b949350505050565b600061188082611caf565b905060006001826007811115611898576118986133cd565b14806118b5575060058260078111156118b3576118b36133cd565b145b806118d1575060048260078111156118cf576118cf6133cd565b145b156118f75750600182015473ffffffffffffffffffffffffffffffffffffffff166119a1565b600282600781111561190b5761190b6133cd565b148061192857506003826007811115611926576119266133cd565b145b15611959575081546a0100000000000000000000900473ffffffffffffffffffffffffffffffffffffffff166119a1565b60405162461bcd60e51b815260206004820152601e60248201527f436f6c6f737365756d3a20756e61626c6520746f2062652063616c6c656400006044820152606401610b04565b73ffffffffffffffffffffffffffffffffffffffff81163314611a065760405162461bcd60e51b815260206004820152601860248201527f436f6c6f737365756d3a206e6f7420796f7572207475726e00000000000000006044820152606401610b04565b505050565b805180611a17866114a9565b14611a8a5760405162461bcd60e51b815260206004820152602260248201527f436f6c6f737365756d3a20696e76616c6964207365676d656e7473206c656e6760448201527f74680000000000000000000000000000000000000000000000000000000000006064820152608401610b04565b81600081518110611a9d57611a9d613798565b60200260200101518414611b195760405162461bcd60e51b815260206004820152602c60248201527f436f6c6f737365756d3a20746865206669727374207365676d656e74206d757360448201527f74206265206d61746368656400000000000000000000000000000000000000006064820152608401610b04565b81611b256001836138d1565b81518110611b3557611b35613798565b60200260200101518303611bb15760405162461bcd60e51b815260206004820152602f60248201527f436f6c6f737365756d3a20746865206c617374207365676d656e74206d75737460448201527f206e6f74206265206d61746368656400000000000000000000000000000000006064820152608401610b04565b5050505050565b805460009060ff166001611bcb826114a9565b611bd591906138d1565b836003015461057e9190613a4c565b8251611bf990600286019060208601906130ed565b50600484019190915560039092019190915550565b611c17816116dc565b611c8257611c457f0000000000000000000000000000000000000000000000000000000000000000426137c7565b815467ffffffffffffffff91909116610100027fffffffffffffffffffffffffffffffffffffffffffffff0000000000000000ff90911617815550565b611c457f0000000000000000000000000000000000000000000000000000000000000000426137c7565b50565b80546000906901000000000000000000900460ff1615611cd157506007919050565b8154600160ff9091161015611ce857506000919050565b600582015415611cfa57506006919050565b8154600090611d0b9060ff166125f7565b8354909150610100900467ffffffffffffffff16421115611d91578015611d355750600392915050565b8254611d7a90611d75907f000000000000000000000000000000000000000000000000000000000000000090610100900467ffffffffffffffff166137c7565b421190565b15611d885750600392915050565b50600492915050565b611d9a836116dc565b611da75750600592915050565b80611db357600261057e565b60019392505050565b60028151611dca9190613a60565b15611e3d5760405162461bcd60e51b815260206004820152603b60248201527f436f6c6f737365756d3a206c656e677468206f66207365676d656e7473206c6560448201527f6e677468732063616e6e6f74206265206f6464206e756d6265722e00000000006064820152608401610b04565b600160005b8251811015611eb657828181518110611e5d57611e5d613798565b602002602001015160016000838152602001908152602001600020819055506001838281518110611e9057611e90613798565b6020026020010151611ea291906138d1565b611eac90836137df565b9150600101611e42565b507f00000000000000000000000000000000000000000000000000000000000000008114610ee95760405162461bcd60e51b815260206004820152602360248201527f436f6c6f737365756d3a20696e76616c6964207365676d656e7473206c656e6760448201527f74687300000000000000000000000000000000000000000000000000000000006064820152608401610b04565b6000611f65611f6036859003850185613a74565b61260e565b90506000611f7b611f6036859003850185613a74565b9050611f86856116dc565b6120bc5781856002018781548110611fa057611fa0613798565b90600052602060002001541461201e5760405162461bcd60e51b815260206004820152602d60248201527f436f6c6f737365756d3a2074686520736f75726365207365676d656e74206d7560448201527f7374206265206d617463686564000000000000000000000000000000000000006064820152608401610b04565b806002860161202e8860016137c7565b8154811061203e5761203e613798565b9060005260206000200154036120bc5760405162461bcd60e51b815260206004820152603660248201527f436f6c6f737365756d3a207468652064657374696e6174696f6e207365676d6560448201527f6e74206d757374206e6f74206265206d617463686564000000000000000000006064820152608401610b04565b82606001358460800135146121395760405162461bcd60e51b815260206004820152602960248201527f436f6c6f737365756d3a2074686520626c6f636b2068617368206d757374206260448201527f65206d61746368656400000000000000000000000000000000000000000000006064820152608401610b04565b505050505050565b82602001358260e00135146121be5760405162461bcd60e51b815260206004820152602960248201527f436f6c6f737365756d3a2074686520737461746520726f6f74206d757374206260448201527f65206d61746368656400000000000000000000000000000000000000000000006064820152608401610b04565b60006121da6121cc84613b62565b6121d584613c8e565b6126e3565b905080856080013514611bb15760405162461bcd60e51b815260206004820152602960248201527f436f6c6f737365756d3a2074686520626c6f636b2068617368206d757374206260448201527f65206d61746368656400000000000000000000000000000000000000000000006064820152608401610b04565b60408051600060208201528082018690526060810185905260808082018590528251808303909101815260a08201928390527f12e64a72000000000000000000000000000000000000000000000000000000009092527f000000000000000000000000000000000000000000000000000000000000000073ffffffffffffffffffffffffffffffffffffffff16906312e64a729061231f907f42000000000000000000000000000000000000030000000000000000000000009085908c908c90899060a401613e2f565b602060405180830381865afa15801561233c573d6000803e3d6000fd5b505050506040513d601f19601f820116820180604052508101906123609190613f0a565b6123d25760405162461bcd60e51b815260206004820152603660248201527f436f6c6f737365756d3a20696e76616c6964204c32546f4c314d65737361676560448201527f50617373657220696e636c7573696f6e2070726f6f66000000000000000000006064820152608401610b04565b50505050505050565b600060607f000000000000000000000000000000000000000000000000000000000000000061240e61012085018561397d565b9050101561247b576124787f000000000000000000000000000000000000000000000000000000000000000061244861012086018661397d565b61247391507f00000000000000000000000000000000000000000000000000000000000000006138d1565b61273a565b90505b61073f8461248885613b62565b836127c6565b73ffffffffffffffffffffffffffffffffffffffff7f00000000000000000000000000000000000000000000000000000000000000001663b46bd885826124f57f0000000000000000000000000000000000000000000000000000000000000000866137df565b6040516024810187905260440160408051601f198184030181529181526020820180517bffffffffffffffffffffffffffffffffffffffffffffffffffffffff167f586b7414000000000000000000000000000000000000000000000000000000001790525160e085901b7fffffffff0000000000000000000000000000000000000000000000000000000016815261259393929190600401613f2c565b600060405180830381600087803b1580156125ad57600080fd5b505af11580156125c1573d6000803e3d6000fd5b50505050817fc2abee209438b2b732f3df51f48b7cc99f73c9965f06680549f28f36a2dc244782604051610a5191815260200190565b6000612604600283613f66565b60ff161592915050565b80516000906126705781516020808401516040808601516060808801516080808a0151855180890199909952888601969096529187019290925285015260a0808501929092528051808503909201825260c09093019092528151910120610743565b60405162461bcd60e51b815260206004820152602a60248201527f48617368696e673a20756e6b6e6f776e206f757470757420726f6f742070726f60448201527f6f662076657273696f6e000000000000000000000000000000000000000000006064820152608401610b04565b919050565b6040805160108082526102208201909252600091829190816020015b60608152602001906001900390816126ff57905050905061272184848361283a565b61272a81612b01565b8051906020012091505092915050565b606060008267ffffffffffffffff8111156127575761275761343d565b604051908082528060200260200182016040528015612780578160200160208202803683370190505b50905060005b838110156127be57848282815181106127a1576127a1613798565b6020908102919091010152806127b6816139e5565b915050612786565b509392505050565b6000838360e0015184610100015185600001518660200151876060015188604001518960a001518a608001518b6101200151518c61012001518c60405160200161281b9c9b9a99989796959493929190613fad565b6040516020818303038152906040528051906020012090509392505050565b612868836020015160405160200161285491815260200190565b604051602081830303815290604052612b45565b8160008151811061287b5761287b613798565b602002602001018190525081600001518160018151811061289e5761289e613798565b60200260200101819052508160200151816002815181106128c1576128c1613798565b60200260200101819052506128e68360e0015160405160200161285491815260200190565b816003815181106128f9576128f9613798565b602002602001018190525061291e8360c0015160405160200161285491815260200190565b8160048151811061293157612931613798565b602002602001018190525081604001518160058151811061295457612954613798565b602002602001018190525081606001518160068151811061297757612977613798565b602002602001018190525081608001518160078151811061299a5761299a613798565b60200260200101819052506129bc836060015167ffffffffffffffff16612bb4565b816008815181106129cf576129cf613798565b60200260200101819052506129f1836080015167ffffffffffffffff16612bb4565b81600981518110612a0457612a04613798565b60200260200101819052508160a0015181600a81518110612a2757612a27613798565b6020026020010181905250612a49836040015167ffffffffffffffff16612bb4565b81600b81518110612a5c57612a5c613798565b60200260200101819052508160c0015181600c81518110612a7f57612a7f613798565b60200260200101819052508160e0015181600d81518110612aa257612aa2613798565b602002602001018190525081610100015181600e81518110612ac657612ac6613798565b6020026020010181905250612ade8360a00151612bb4565b81600f81518110612af157612af1613798565b6020026020010181905250505050565b60606000612b0e83612bc7565b9050612b1c815160c0612cff565b81604051602001612b2e929190614066565b604051602081830303815290604052915050919050565b60608082516001148015612b735750608083600081518110612b6957612b69613798565b016020015160f81c105b15612b7f575081610743565b612b8b83516080612cff565b83604051602001612b9d929190614066565b604051602081830303815290604052905092915050565b6060610743612bc283612ef5565b612b45565b60608151600003612be657505060408051600081526020810190915290565b6000805b8351811015612c2d57838181518110612c0557612c05613798565b60200260200101515182612c1991906137c7565b915080612c25816139e5565b915050612bea565b60008267ffffffffffffffff811115612c4857612c4861343d565b6040519080825280601f01601f191660200182016040528015612c72576020820181803683370190505b50600092509050602081015b8551831015612cf6576000868481518110612c9b57612c9b613798565b602002602001015190506000602082019050612cb983828451613054565b878581518110612ccb57612ccb613798565b60200260200101515183612cdf91906137c7565b925050508280612cee906139e5565b935050612c7e565b50949350505050565b6060806038841015612d7e5760408051600180825281830190925290602082018180368337019050509050612d348385613773565b60f81b81600081518110612d4a57612d4a613798565b60200101907effffffffffffffffffffffffffffffffffffffffffffffffffffffffffffff1916908160001a90535061057e565b600060015b612d8d8187613a4c565b15612db35781612d9c816139e5565b9250612dac9050610100826137df565b9050612d83565b612dbe8260016137c7565b67ffffffffffffffff811115612dd657612dd661343d565b6040519080825280601f01601f191660200182016040528015612e00576020820181803683370190505b509250612e0d8583613773565b612e18906037613773565b60f81b83600081518110612e2e57612e2e613798565b60200101907effffffffffffffffffffffffffffffffffffffffffffffffffffffffffffff1916908160001a905350600190505b818111612eec57610100612e7682846138d1565b612e82906101006141b5565b612e8c9088613a4c565b612e969190613a60565b60f81b838281518110612eab57612eab613798565b60200101907effffffffffffffffffffffffffffffffffffffffffffffffffffffffffffff1916908160001a90535080612ee4816139e5565b915050612e62565b50509392505050565b6060600082604051602001612f0c91815260200190565b604051602081830303815290604052905060005b6020811015612f7b57818181518110612f3b57612f3b613798565b01602001517fff0000000000000000000000000000000000000000000000000000000000000016600003612f7b5780612f73816139e5565b915050612f20565b6000612f888260206138d1565b67ffffffffffffffff811115612fa057612fa061343d565b6040519080825280601f01601f191660200182016040528015612fca576020820181803683370190505b50905060005b8151811015612cf6578383612fe4816139e5565b945081518110612ff657612ff6613798565b602001015160f81c60f81b82828151811061301357613013613798565b60200101907effffffffffffffffffffffffffffffffffffffffffffffffffffffffffffff1916908160001a9053508061304c816139e5565b915050612fd0565b8282825b60208110613090578151835261306f6020846137c7565b925061307c6020836137c7565b91506130896020826138d1565b9050613058565b905182516020929092036101000a7fffffffffffffffffffffffffffffffffffffffffffffffffffffffffffffffff0180199091169116179052505050565b5080546000825590600052602060002090810190611cac9190613138565b828054828255906000526020600020908101928215613128579160200282015b8281111561312857825182559160200191906001019061310d565b50613134929150613138565b5090565b5b808211156131345760008155600101613139565b60006020828403121561315f57600080fd5b5035919050565b600081518084526020808501945080840160005b838110156131965781518752958201959082019060010161317a565b509495945050505050565b602081526131b560208201835160ff169052565b600060208301516131d2604084018267ffffffffffffffff169052565b506040830151801515606084015250606083015173ffffffffffffffffffffffffffffffffffffffff8116608084015250608083015173ffffffffffffffffffffffffffffffffffffffff811660a08401525060a08301516101208060c0850152613241610140850183613166565b60c086015160e08681019190915286015161010080870191909152909501519301929092525090919050565b73ffffffffffffffffffffffffffffffffffffffff81168114611cac57600080fd5b600080604083850312156132a257600080fd5b8235915060208301356132b48161326d565b809150509250929050565b60005b838110156132da5781810151838201526020016132c2565b838111156132e9576000848401525b50505050565b600081518084526133078160208601602086016132bf565b601f01601f19169290920160200192915050565b60208152600061057e60208301846132ef565b60008083601f84011261334057600080fd5b50813567ffffffffffffffff81111561335857600080fd5b6020830191508360208260051b850101111561337357600080fd5b9250929050565b6000806000806060858703121561339057600080fd5b8435935060208501359250604085013567ffffffffffffffff8111156133b557600080fd5b6133c18782880161332e565b95989497509550505050565b7f4e487b7100000000000000000000000000000000000000000000000000000000600052602160045260246000fd5b6020810160088310613437577f4e487b7100000000000000000000000000000000000000000000000000000000600052602160045260246000fd5b91905290565b7f4e487b7100000000000000000000000000000000000000000000000000000000600052604160045260246000fd5b604051610140810167ffffffffffffffff811182821017156134905761349061343d565b60405290565b604051610120810167ffffffffffffffff811182821017156134905761349061343d565b604051601f8201601f1916810167ffffffffffffffff811182821017156134e3576134e361343d565b604052919050565b600067ffffffffffffffff8211156135055761350561343d565b5060051b60200190565b6000602080838503121561352257600080fd5b823567ffffffffffffffff81111561353957600080fd5b8301601f8101851361354a57600080fd5b803561355d613558826134eb565b6134ba565b81815260059190911b8201830190838101908783111561357c57600080fd5b928401925b8284101561359a57833582529284019290840190613581565b979650505050505050565b6000806000604084860312156135ba57600080fd5b83359250602084013567ffffffffffffffff8111156135d857600080fd5b6135e48682870161332e565b9497909650939450505050565b60006020828403121561360357600080fd5b813560ff8116811461057e57600080fd5b60008060008060008060008060c0898b03121561363057600080fd5b883597506020890135965060408901359550606089013567ffffffffffffffff8082111561365d57600080fd5b908a01906101e0828d03121561367257600080fd5b90955060808a0135908082111561368857600080fd5b6136948c838d0161332e565b909650945060a08b01359150808211156136ad57600080fd5b506136ba8b828c0161332e565b999c989b5096995094979396929594505050565b600084516136e08184602089016132bf565b80830190507f2e00000000000000000000000000000000000000000000000000000000000000808252855161371c816001850160208a016132bf565b600192019182015283516137378160028401602088016132bf565b0160020195945050505050565b7f4e487b7100000000000000000000000000000000000000000000000000000000600052601160045260246000fd5b600060ff821660ff84168060ff0382111561379057613790613744565b019392505050565b7f4e487b7100000000000000000000000000000000000000000000000000000000600052603260045260246000fd5b600082198211156137da576137da613744565b500190565b6000817fffffffffffffffffffffffffffffffffffffffffffffffffffffffffffffffff048311821515161561381757613817613744565b500290565b80516fffffffffffffffffffffffffffffffff811681146126de57600080fd5b60006080828403121561384e57600080fd5b6040516080810181811067ffffffffffffffff821117156138715761387161343d565b604052825161387f8161326d565b8152602083810151908201526138976040840161381c565b60408201526138a86060840161381c565b60608201529392505050565b6000602082840312156138c657600080fd5b815161057e8161326d565b6000828210156138e3576138e3613744565b500390565b600060ff821660ff84168082101561390257613902613744565b90039392505050565b600082357ffffffffffffffffffffffffffffffffffffffffffffffffffffffffffffffec183360301811261393f57600080fd5b9190910192915050565b600082357ffffffffffffffffffffffffffffffffffffffffffffffffffffffffffffffee183360301811261393f57600080fd5b60008083357fffffffffffffffffffffffffffffffffffffffffffffffffffffffffffffffe18436030181126139b257600080fd5b83018035915067ffffffffffffffff8211156139cd57600080fd5b6020019150600581901b360382131561337357600080fd5b60007fffffffffffffffffffffffffffffffffffffffffffffffffffffffffffffffff8203613a1657613a16613744565b5060010190565b7f4e487b7100000000000000000000000000000000000000000000000000000000600052601260045260246000fd5b600082613a5b57613a5b613a1d565b500490565b600082613a6f57613a6f613a1d565b500690565b600060a08284031215613a8657600080fd5b60405160a0810181811067ffffffffffffffff82111715613aa957613aa961343d565b806040525082358152602083013560208201526040830135604082015260608301356060820152608083013560808201528091505092915050565b803567ffffffffffffffff811681146126de57600080fd5b600082601f830112613b0d57600080fd5b81356020613b1d613558836134eb565b82815260059290921b84018101918181019086841115613b3c57600080fd5b8286015b84811015613b575780358352918301918301613b40565b509695505050505050565b60006101408236031215613b7557600080fd5b613b7d61346c565b8235815260208301356020820152613b9760408401613ae4565b6040820152613ba860608401613ae4565b6060820152613bb960808401613ae4565b608082015260a083013560a082015260c083013560c082015260e083013560e08201526101008084013581830152506101208084013567ffffffffffffffff811115613c0457600080fd5b613c1036828701613afc565b918301919091525092915050565b600082601f830112613c2f57600080fd5b813567ffffffffffffffff811115613c4957613c4961343d565b613c5c6020601f19601f840116016134ba565b818152846020838601011115613c7157600080fd5b816020850160208301376000918101602001919091529392505050565b60006101208236031215613ca157600080fd5b613ca9613496565b823567ffffffffffffffff80821115613cc157600080fd5b613ccd36838701613c1e565b83526020850135915080821115613ce357600080fd5b613cef36838701613c1e565b60208401526040850135915080821115613d0857600080fd5b613d1436838701613c1e565b60408401526060850135915080821115613d2d57600080fd5b613d3936838701613c1e565b60608401526080850135915080821115613d5257600080fd5b613d5e36838701613c1e565b608084015260a0850135915080821115613d7757600080fd5b613d8336838701613c1e565b60a084015260c0850135915080821115613d9c57600080fd5b613da836838701613c1e565b60c084015260e0850135915080821115613dc157600080fd5b613dcd36838701613c1e565b60e084015261010091508185013581811115613de857600080fd5b613df436828801613c1e565b8385015250505080915050919050565b818352818160208501375060006020828401015260006020601f19601f840116840101905092915050565b85815260006020608081840152613e4960808401886132ef565b8381036040850152858152818101600587901b820183018860005b89811015613ef157601f1985840301845281357fffffffffffffffffffffffffffffffffffffffffffffffffffffffffffffffe18c3603018112613ea757600080fd5b8b01868101903567ffffffffffffffff811115613ec357600080fd5b803603821315613ed257600080fd5b613edd858284613e04565b958801959450505090850190600101613e64565b5050809450505050508260608301529695505050505050565b600060208284031215613f1c57600080fd5b8151801515811461057e57600080fd5b8381526fffffffffffffffffffffffffffffffff83166020820152606060408201526000613f5d60608301846132ef565b95945050505050565b600060ff831680613f7957613f79613a1d565b8060ff84160691505092915050565b805160009060208084018383156131965781518752958201959082019060010161317a565b8c81528b60208201528a604082015289606082015288608082015260007fffffffffffffffff000000000000000000000000000000000000000000000000808a60c01b1660a0840152808960c01b1660a88401528760b0840152808760c01b1660d0840152507fffff0000000000000000000000000000000000000000000000000000000000008560f01b1660d883015261405461404e60da840186613f88565b84613f88565b9e9d5050505050505050505050505050565b600083516140788184602088016132bf565b83519083019061408c8183602088016132bf565b01949350505050565b600181815b808511156140ee57817fffffffffffffffffffffffffffffffffffffffffffffffffffffffffffffffff048211156140d4576140d4613744565b808516156140e157918102915b93841c939080029061409a565b509250929050565b60008261410557506001610743565b8161411257506000610743565b816001811461412857600281146141325761414e565b6001915050610743565b60ff84111561414357614143613744565b50506001821b610743565b5060208310610133831016604e8410600b8410161715614171575081810a610743565b61417b8383614095565b807fffffffffffffffffffffffffffffffffffffffffffffffffffffffffffffffff048211156141ad576141ad613744565b029392505050565b600061057e83836140f656fea164736f6c634300080f000a",
  "devdoc": {},
  "userdoc": {}
}