{
  "address": "0x00636A0dd8195D6D6e2E936672eA284a5Bc4c0A3",
  "abi": [
    {
      "inputs": [
        {
          "internalType": "contract L2OutputOracle",
          "name": "_l2Oracle",
          "type": "address"
        },
        {
          "internalType": "address",
          "name": "_validatorPool",
          "type": "address"
        },
        {
          "internalType": "address",
          "name": "_guardian",
          "type": "address"
        },
        {
          "internalType": "bool",
          "name": "_paused",
          "type": "bool"
        },
        {
          "internalType": "contract SystemConfig",
          "name": "_config",
          "type": "address"
        },
        {
          "internalType": "contract ZKMerkleTrie",
          "name": "_zkMerkleTrie",
          "type": "address"
        }
      ],
      "stateMutability": "nonpayable",
      "type": "constructor"
    },
    {
      "anonymous": false,
      "inputs": [
        {
          "indexed": false,
          "internalType": "uint8",
          "name": "version",
          "type": "uint8"
        }
      ],
      "name": "Initialized",
      "type": "event"
    },
    {
      "anonymous": false,
      "inputs": [
        {
          "indexed": false,
          "internalType": "address",
          "name": "account",
          "type": "address"
        }
      ],
      "name": "Paused",
      "type": "event"
    },
    {
      "anonymous": false,
      "inputs": [
        {
          "indexed": true,
          "internalType": "address",
          "name": "from",
          "type": "address"
        },
        {
          "indexed": true,
          "internalType": "address",
          "name": "to",
          "type": "address"
        },
        {
          "indexed": true,
          "internalType": "uint256",
          "name": "version",
          "type": "uint256"
        },
        {
          "indexed": false,
          "internalType": "bytes",
          "name": "opaqueData",
          "type": "bytes"
        }
      ],
      "name": "TransactionDeposited",
      "type": "event"
    },
    {
      "anonymous": false,
      "inputs": [
        {
          "indexed": false,
          "internalType": "address",
          "name": "account",
          "type": "address"
        }
      ],
      "name": "Unpaused",
      "type": "event"
    },
    {
      "anonymous": false,
      "inputs": [
        {
          "indexed": true,
          "internalType": "bytes32",
          "name": "withdrawalHash",
          "type": "bytes32"
        },
        {
          "indexed": false,
          "internalType": "bool",
          "name": "success",
          "type": "bool"
        }
      ],
      "name": "WithdrawalFinalized",
      "type": "event"
    },
    {
      "anonymous": false,
      "inputs": [
        {
          "indexed": true,
          "internalType": "bytes32",
          "name": "withdrawalHash",
          "type": "bytes32"
        },
        {
          "indexed": true,
          "internalType": "address",
          "name": "from",
          "type": "address"
        },
        {
          "indexed": true,
          "internalType": "address",
          "name": "to",
          "type": "address"
        }
      ],
      "name": "WithdrawalProven",
      "type": "event"
    },
    {
      "inputs": [],
      "name": "GUARDIAN",
      "outputs": [
        {
          "internalType": "address",
          "name": "",
          "type": "address"
        }
      ],
      "stateMutability": "view",
      "type": "function"
    },
    {
      "inputs": [],
      "name": "L2_ORACLE",
      "outputs": [
        {
          "internalType": "contract L2OutputOracle",
          "name": "",
          "type": "address"
        }
      ],
      "stateMutability": "view",
      "type": "function"
    },
    {
      "inputs": [],
      "name": "SYSTEM_CONFIG",
      "outputs": [
        {
          "internalType": "contract SystemConfig",
          "name": "",
          "type": "address"
        }
      ],
      "stateMutability": "view",
      "type": "function"
    },
    {
      "inputs": [],
      "name": "VALIDATOR_POOL",
      "outputs": [
        {
          "internalType": "address",
          "name": "",
          "type": "address"
        }
      ],
      "stateMutability": "view",
      "type": "function"
    },
    {
      "inputs": [],
      "name": "ZK_MERKLE_TRIE",
      "outputs": [
        {
          "internalType": "contract ZKMerkleTrie",
          "name": "",
          "type": "address"
        }
      ],
      "stateMutability": "view",
      "type": "function"
    },
    {
      "inputs": [
        {
          "internalType": "address",
          "name": "_to",
          "type": "address"
        },
        {
          "internalType": "uint256",
          "name": "_value",
          "type": "uint256"
        },
        {
          "internalType": "uint64",
          "name": "_gasLimit",
          "type": "uint64"
        },
        {
          "internalType": "bool",
          "name": "_isCreation",
          "type": "bool"
        },
        {
          "internalType": "bytes",
          "name": "_data",
          "type": "bytes"
        }
      ],
      "name": "depositTransaction",
      "outputs": [],
      "stateMutability": "payable",
      "type": "function"
    },
    {
      "inputs": [
        {
          "internalType": "address",
          "name": "_to",
          "type": "address"
        },
        {
          "internalType": "uint64",
          "name": "_gasLimit",
          "type": "uint64"
        },
        {
          "internalType": "bytes",
          "name": "_data",
          "type": "bytes"
        }
      ],
      "name": "depositTransactionByValidatorPool",
      "outputs": [],
      "stateMutability": "nonpayable",
      "type": "function"
    },
    {
      "inputs": [
        {
          "components": [
            {
              "internalType": "uint256",
              "name": "nonce",
              "type": "uint256"
            },
            {
              "internalType": "address",
              "name": "sender",
              "type": "address"
            },
            {
              "internalType": "address",
              "name": "target",
              "type": "address"
            },
            {
              "internalType": "uint256",
              "name": "value",
              "type": "uint256"
            },
            {
              "internalType": "uint256",
              "name": "gasLimit",
              "type": "uint256"
            },
            {
              "internalType": "bytes",
              "name": "data",
              "type": "bytes"
            }
          ],
          "internalType": "struct Types.WithdrawalTransaction",
          "name": "_tx",
          "type": "tuple"
        }
      ],
      "name": "finalizeWithdrawalTransaction",
      "outputs": [],
      "stateMutability": "nonpayable",
      "type": "function"
    },
    {
      "inputs": [
        {
          "internalType": "bytes32",
          "name": "",
          "type": "bytes32"
        }
      ],
      "name": "finalizedWithdrawals",
      "outputs": [
        {
          "internalType": "bool",
          "name": "",
          "type": "bool"
        }
      ],
      "stateMutability": "view",
      "type": "function"
    },
    {
      "inputs": [
        {
          "internalType": "bool",
          "name": "_paused",
          "type": "bool"
        }
      ],
      "name": "initialize",
      "outputs": [],
      "stateMutability": "nonpayable",
      "type": "function"
    },
    {
      "inputs": [
        {
          "internalType": "uint256",
          "name": "_l2OutputIndex",
          "type": "uint256"
        }
      ],
      "name": "isOutputFinalized",
      "outputs": [
        {
          "internalType": "bool",
          "name": "",
          "type": "bool"
        }
      ],
      "stateMutability": "view",
      "type": "function"
    },
    {
      "inputs": [],
      "name": "l2Sender",
      "outputs": [
        {
          "internalType": "address",
          "name": "",
          "type": "address"
        }
      ],
      "stateMutability": "view",
      "type": "function"
    },
    {
      "inputs": [],
      "name": "params",
      "outputs": [
        {
          "internalType": "uint128",
          "name": "prevBaseFee",
          "type": "uint128"
        },
        {
          "internalType": "uint64",
          "name": "prevBoughtGas",
          "type": "uint64"
        },
        {
          "internalType": "uint64",
          "name": "prevBlockNum",
          "type": "uint64"
        }
      ],
      "stateMutability": "view",
      "type": "function"
    },
    {
      "inputs": [],
      "name": "pause",
      "outputs": [],
      "stateMutability": "nonpayable",
      "type": "function"
    },
    {
      "inputs": [],
      "name": "paused",
      "outputs": [
        {
          "internalType": "bool",
          "name": "",
          "type": "bool"
        }
      ],
      "stateMutability": "view",
      "type": "function"
    },
    {
      "inputs": [
        {
          "components": [
            {
              "internalType": "uint256",
              "name": "nonce",
              "type": "uint256"
            },
            {
              "internalType": "address",
              "name": "sender",
              "type": "address"
            },
            {
              "internalType": "address",
              "name": "target",
              "type": "address"
            },
            {
              "internalType": "uint256",
              "name": "value",
              "type": "uint256"
            },
            {
              "internalType": "uint256",
              "name": "gasLimit",
              "type": "uint256"
            },
            {
              "internalType": "bytes",
              "name": "data",
              "type": "bytes"
            }
          ],
          "internalType": "struct Types.WithdrawalTransaction",
          "name": "_tx",
          "type": "tuple"
        },
        {
          "internalType": "uint256",
          "name": "_l2OutputIndex",
          "type": "uint256"
        },
        {
          "components": [
            {
              "internalType": "bytes32",
              "name": "version",
              "type": "bytes32"
            },
            {
              "internalType": "bytes32",
              "name": "stateRoot",
              "type": "bytes32"
            },
            {
              "internalType": "bytes32",
              "name": "messagePasserStorageRoot",
              "type": "bytes32"
            },
            {
              "internalType": "bytes32",
              "name": "blockHash",
              "type": "bytes32"
            },
            {
              "internalType": "bytes32",
              "name": "nextBlockHash",
              "type": "bytes32"
            }
          ],
          "internalType": "struct Types.OutputRootProof",
          "name": "_outputRootProof",
          "type": "tuple"
        },
        {
          "internalType": "bytes[]",
          "name": "_withdrawalProof",
          "type": "bytes[]"
        }
      ],
      "name": "proveWithdrawalTransaction",
      "outputs": [],
      "stateMutability": "nonpayable",
      "type": "function"
    },
    {
      "inputs": [
        {
          "internalType": "bytes32",
          "name": "",
          "type": "bytes32"
        }
      ],
      "name": "provenWithdrawals",
      "outputs": [
        {
          "internalType": "bytes32",
          "name": "outputRoot",
          "type": "bytes32"
        },
        {
          "internalType": "uint128",
          "name": "timestamp",
          "type": "uint128"
        },
        {
          "internalType": "uint128",
          "name": "l2OutputIndex",
          "type": "uint128"
        }
      ],
      "stateMutability": "view",
      "type": "function"
    },
    {
      "inputs": [],
      "name": "unpause",
      "outputs": [],
      "stateMutability": "nonpayable",
      "type": "function"
    },
    {
      "inputs": [],
      "name": "version",
      "outputs": [
        {
          "internalType": "string",
          "name": "",
          "type": "string"
        }
      ],
      "stateMutability": "view",
      "type": "function"
    },
    {
      "stateMutability": "payable",
      "type": "receive"
    }
  ],
  "transactionHash": "0xc6e812a32c1860a7368dddca6bfbc6466253e24953ffdc246be3464681102a3c",
  "args": [
    "0xB70D7dBa8ac50842820E703C63022Ef52220410B",
    "0x1a174f69c3563917749f0b3479b7173913B1b438",
    "0x80e695eceb5bea3b1788c4dfb40b72afc59f60d8",
    false,
    "0x29Eeb4681BDe3b2d0E739c5d82c5908DD0769B61",
    "0x29584C5C9722BF06983f6Bf3AB173d8c30Da9B54"
  ],
  "numDeployments": 1,
  "solcInputHash": "5994a2571e3c90a6c7816d0a453ce4bc",
  "bytecode": "0x6101806040523480156200001257600080fd5b5060405162003a7138038062003a718339810160408190526200003591620002a6565b60006080819052600160a05260c0526001600160a01b0380871660e052858116610100528481166101405282811661012052811661016052620000788362000084565b5050505050506200033e565b600054610100900460ff1615808015620000a55750600054600160ff909116105b80620000d55750620000c230620001db60201b62001bc51760201c565b158015620000d5575060005460ff166001145b6200013e5760405162461bcd60e51b815260206004820152602e60248201527f496e697469616c697a61626c653a20636f6e747261637420697320616c72656160448201526d191e481a5b9a5d1a585b1a5e995960921b60648201526084015b60405180910390fd5b6000805460ff19166001179055801562000162576000805461ff0019166101001790555b603280546001600160a01b03191661dead1790556035805483151560ff1990911617905562000190620001ea565b8015620001d7576000805461ff0019169055604051600181527f7f26b83ff96e1f2b6a682f133852f6798a09c465da95921460cefb38474024989060200160405180910390a15b5050565b6001600160a01b03163b151590565b600054610100900460ff16620002575760405162461bcd60e51b815260206004820152602b60248201527f496e697469616c697a61626c653a20636f6e7472616374206973206e6f74206960448201526a6e697469616c697a696e6760a81b606482015260840162000135565b60408051606081018252633b9aca0080825260006020830152436001600160401b031691909201819052600160c01b0217600155565b6001600160a01b0381168114620002a357600080fd5b50565b60008060008060008060c08789031215620002c057600080fd5b8651620002cd816200028d565b6020880151909650620002e0816200028d565b6040880151909550620002f3816200028d565b606088015190945080151581146200030a57600080fd5b60808801519093506200031d816200028d565b60a088015190925062000330816200028d565b809150509295509295509295565b60805160a05160c05160e05161010051610120516101405161016051613680620003f16000396000818161023a0152610b770152600081816102b801528181610d560152610fd901526000818161053201526122fd01526000818161037e01526118ac0152600081816101850152818161086401528181610a2e01528181610f3501528181611286015281816114c4015261210701526000610ea001526000610e7701526000610e4e01526136806000f3fe6080604052600436106101475760003560e01c80638c3152e9116100c0578063cff0ab9611610074578063e965084c11610059578063e965084c14610481578063e9e05c421461050d578063f04987501461052057600080fd5b8063cff0ab96146103c0578063d53a822f1461046157600080fd5b8063a14238e7116100a5578063a14238e71461033c578063b98debbf1461036c578063c30af388146103a057600080fd5b80638c3152e9146102ef5780639bf62d821461030f57600080fd5b80635865b607116101175780636dbffb78116100fc5780636dbffb7814610286578063724c184c146102a65780638456cb59146102da57600080fd5b80635865b607146102285780635c975abb1461025c57600080fd5b80621c2ff6146101735780630757b244146101d15780633f4ba83a146101f157806354fd4d501461020657600080fd5b3661016e5761016c3334620186a0600060405180602001604052806000815250610554565b005b600080fd5b34801561017f57600080fd5b506101a77f000000000000000000000000000000000000000000000000000000000000000081565b60405173ffffffffffffffffffffffffffffffffffffffff90911681526020015b60405180910390f35b3480156101dd57600080fd5b5061016c6101ec366004612b8c565b61073a565b3480156101fd57600080fd5b5061016c610d3e565b34801561021257600080fd5b5061021b610e47565b6040516101c89190612ce3565b34801561023457600080fd5b506101a77f000000000000000000000000000000000000000000000000000000000000000081565b34801561026857600080fd5b506035546102769060ff1681565b60405190151581526020016101c8565b34801561029257600080fd5b506102766102a1366004612cf6565b610eea565b3480156102b257600080fd5b506101a77f000000000000000000000000000000000000000000000000000000000000000081565b3480156102e657600080fd5b5061016c610fc1565b3480156102fb57600080fd5b5061016c61030a366004612d0f565b6110c6565b34801561031b57600080fd5b506032546101a79073ffffffffffffffffffffffffffffffffffffffff1681565b34801561034857600080fd5b50610276610357366004612cf6565b60336020526000908152604090205460ff1681565b34801561037857600080fd5b506101a77f000000000000000000000000000000000000000000000000000000000000000081565b3480156103ac57600080fd5b5061016c6103bb366004612d5c565b611894565b3480156103cc57600080fd5b50600154610428906fffffffffffffffffffffffffffffffff81169067ffffffffffffffff7001000000000000000000000000000000008204811691780100000000000000000000000000000000000000000000000090041683565b604080516fffffffffffffffffffffffffffffffff909416845267ffffffffffffffff92831660208501529116908201526060016101c8565b34801561046d57600080fd5b5061016c61047c366004612dca565b6119f2565b34801561048d57600080fd5b506104df61049c366004612cf6565b603460205260009081526040902080546001909101546fffffffffffffffffffffffffffffffff8082169170010000000000000000000000000000000090041683565b604080519384526fffffffffffffffffffffffffffffffff92831660208501529116908201526060016101c8565b61016c61051b366004612de7565b610554565b34801561052c57600080fd5b506101a77f000000000000000000000000000000000000000000000000000000000000000081565b8260005a905083156105ef5773ffffffffffffffffffffffffffffffffffffffff8716156105ef5760405162461bcd60e51b815260206004820152603d60248201527f4b726f6d61506f7274616c3a206d7573742073656e6420746f2061646472657360448201527f73283029207768656e206372656174696e67206120636f6e747261637400000060648201526084015b60405180910390fd5b6152088567ffffffffffffffff1610156106715760405162461bcd60e51b815260206004820152603560248201527f4b726f6d61506f7274616c3a20676173206c696d6974206d75737420636f766560448201527f7220696e737472696e7369632067617320636f7374000000000000000000000060648201526084016105e6565b33328114610692575033731111000000000000000000000000000000001111015b600034888888886040516020016106ad959493929190612e64565b604051602081830303815290604052905060008973ffffffffffffffffffffffffffffffffffffffff168373ffffffffffffffffffffffffffffffffffffffff167fb3813568d9991fc951961fcb4c784893574240a28925604d09fc577c55bb7c328460405161071d9190612ce3565b60405180910390a450506107318282611be1565b50505050505050565b60355460ff161561078d5760405162461bcd60e51b815260206004820152601360248201527f4b726f6d61506f7274616c3a207061757365640000000000000000000000000060448201526064016105e6565b3073ffffffffffffffffffffffffffffffffffffffff16856040015173ffffffffffffffffffffffffffffffffffffffff16036108325760405162461bcd60e51b815260206004820152603c60248201527f4b726f6d61506f7274616c3a20796f752063616e6e6f742073656e64206d657360448201527f736167657320746f2074686520706f7274616c20636f6e74726163740000000060648201526084016105e6565b6040517fa25ae557000000000000000000000000000000000000000000000000000000008152600481018590526000907f000000000000000000000000000000000000000000000000000000000000000073ffffffffffffffffffffffffffffffffffffffff169063a25ae55790602401608060405180830381865afa1580156108c0573d6000803e3d6000fd5b505050506040513d601f19601f820116820180604052508101906108e49190612ee9565b6020015190506109016108fc36869003860186612f61565b611ef4565b81146109755760405162461bcd60e51b815260206004820152602660248201527f4b726f6d61506f7274616c3a20696e76616c6964206f757470757420726f6f7460448201527f2070726f6f66000000000000000000000000000000000000000000000000000060648201526084016105e6565b600061098087611f79565b6000818152603460209081526040918290208251606081018452815481526001909101546fffffffffffffffffffffffffffffffff8082169383018490527001000000000000000000000000000000009091041692810192909252919250901580610ab55750805160408083015190517fa25ae5570000000000000000000000000000000000000000000000000000000081526fffffffffffffffffffffffffffffffff90911660048201527f000000000000000000000000000000000000000000000000000000000000000073ffffffffffffffffffffffffffffffffffffffff169063a25ae55790602401608060405180830381865afa158015610a8a573d6000803e3d6000fd5b505050506040513d601f19601f82011682018060405250810190610aae9190612ee9565b6020015114155b610b275760405162461bcd60e51b815260206004820152603460248201527f4b726f6d61506f7274616c3a207769746864726177616c20686173682068617360448201527f20616c7265616479206265656e2070726f76656e00000000000000000000000060648201526084016105e6565b60408051602080820185905260008284015282518083038401815260608301808552815191909201207f12e64a7200000000000000000000000000000000000000000000000000000000909152917f000000000000000000000000000000000000000000000000000000000000000073ffffffffffffffffffffffffffffffffffffffff16916312e64a7291610bc99185918b918b918e01359060640161301a565b602060405180830381865afa158015610be6573d6000803e3d6000fd5b505050506040513d601f19601f82011682018060405250810190610c0a919061311b565b610c7c5760405162461bcd60e51b815260206004820152602f60248201527f4b726f6d61506f7274616c3a20696e76616c6964207769746864726177616c2060448201527f696e636c7573696f6e2070726f6f66000000000000000000000000000000000060648201526084016105e6565b604080516060810182528581526fffffffffffffffffffffffffffffffff42811660208084019182528c831684860190815260008981526034835286812095518655925190518416700100000000000000000000000000000000029316929092176001909301929092558b830151908c0151925173ffffffffffffffffffffffffffffffffffffffff918216939091169186917f67a6208cfcc0801d50f6cbe764733f4fddf66ac0b04442061a8a8c0cb6b63f629190a4505050505050505050565b3373ffffffffffffffffffffffffffffffffffffffff7f00000000000000000000000000000000000000000000000000000000000000001614610de95760405162461bcd60e51b815260206004820152602660248201527f4b726f6d61506f7274616c3a206f6e6c7920677561726469616e2063616e207560448201527f6e7061757365000000000000000000000000000000000000000000000000000060648201526084016105e6565b603580547fffffffffffffffffffffffffffffffffffffffffffffffffffffffffffffff001690556040513381527f5db9ee0a495bf2e6ff9c91a7834c1ba4fdd244a5e8aa4e537bd38aeae4b073aa906020015b60405180910390a1565b6060610e727f0000000000000000000000000000000000000000000000000000000000000000611fc6565b610e9b7f0000000000000000000000000000000000000000000000000000000000000000611fc6565b610ec47f0000000000000000000000000000000000000000000000000000000000000000611fc6565b604051602001610ed693929190613138565b604051602081830303815290604052905090565b6040517fa25ae55700000000000000000000000000000000000000000000000000000000815260048101829052600090610fbb9073ffffffffffffffffffffffffffffffffffffffff7f0000000000000000000000000000000000000000000000000000000000000000169063a25ae55790602401608060405180830381865afa158015610f7c573d6000803e3d6000fd5b505050506040513d601f19601f82011682018060405250810190610fa09190612ee9565b604001516fffffffffffffffffffffffffffffffff16612103565b92915050565b3373ffffffffffffffffffffffffffffffffffffffff7f0000000000000000000000000000000000000000000000000000000000000000161461106b5760405162461bcd60e51b8152602060048201526024808201527f4b726f6d61506f7274616c3a206f6e6c7920677561726469616e2063616e207060448201527f617573650000000000000000000000000000000000000000000000000000000060648201526084016105e6565b603580547fffffffffffffffffffffffffffffffffffffffffffffffffffffffffffffff001660011790556040513381527f62e78cea01bee320cd4e420270b5ea74000d11b0c9f74754ebdbfc544b05a25890602001610e3d565b60355460ff16156111195760405162461bcd60e51b815260206004820152601360248201527f4b726f6d61506f7274616c3a207061757365640000000000000000000000000060448201526064016105e6565b60325473ffffffffffffffffffffffffffffffffffffffff1661dead146111a85760405162461bcd60e51b815260206004820152603c60248201527f4b726f6d61506f7274616c3a2063616e206f6e6c792074726967676572206f6e60448201527f65207769746864726177616c20706572207472616e73616374696f6e0000000060648201526084016105e6565b60006111b382611f79565b60008181526034602090815260408083208151606081018352815481526001909101546fffffffffffffffffffffffffffffffff808216948301859052700100000000000000000000000000000000909104169181019190915292935090036112845760405162461bcd60e51b815260206004820152602f60248201527f4b726f6d61506f7274616c3a207769746864726177616c20686173206e6f742060448201527f6265656e2070726f76656e20796574000000000000000000000000000000000060648201526084016105e6565b7f000000000000000000000000000000000000000000000000000000000000000073ffffffffffffffffffffffffffffffffffffffff1663887862726040518163ffffffff1660e01b8152600401602060405180830381865afa1580156112ef573d6000803e3d6000fd5b505050506040513d601f19601f8201168201806040525081019061131391906131ae565b81602001516fffffffffffffffffffffffffffffffff1610156113c45760405162461bcd60e51b815260206004820152604860248201527f4b726f6d61506f7274616c3a207769746864726177616c2074696d657374616d60448201527f70206c657373207468616e204c32204f7261636c65207374617274696e67207460648201527f696d657374616d70000000000000000000000000000000000000000000000000608482015260a4016105e6565b6113e381602001516fffffffffffffffffffffffffffffffff16612103565b61147b5760405162461bcd60e51b815260206004820152604260248201527f4b726f6d61506f7274616c3a2070726f76656e207769746864726177616c206660448201527f696e616c697a6174696f6e20706572696f6420686173206e6f7420656c61707360648201527f6564000000000000000000000000000000000000000000000000000000000000608482015260a4016105e6565b60408181015190517fa25ae5570000000000000000000000000000000000000000000000000000000081526fffffffffffffffffffffffffffffffff90911660048201526000907f000000000000000000000000000000000000000000000000000000000000000073ffffffffffffffffffffffffffffffffffffffff169063a25ae55790602401608060405180830381865afa158015611520573d6000803e3d6000fd5b505050506040513d601f19601f820116820180604052508101906115449190612ee9565b82516020820151919250146115e75760405162461bcd60e51b815260206004820152604660248201527f4b726f6d61506f7274616c3a206f757470757420726f6f742070726f76656e2060448201527f6973206e6f74207468652073616d652061732063757272656e74206f7574707560648201527f7420726f6f740000000000000000000000000000000000000000000000000000608482015260a4016105e6565b61160681604001516fffffffffffffffffffffffffffffffff16612103565b61169e5760405162461bcd60e51b815260206004820152604260248201527f4b726f6d61506f7274616c3a20636865636b706f696e74206f7574707574206660448201527f696e616c697a6174696f6e20706572696f6420686173206e6f7420656c61707360648201527f6564000000000000000000000000000000000000000000000000000000000000608482015260a4016105e6565b60008381526033602052604090205460ff16156117235760405162461bcd60e51b815260206004820152603260248201527f4b726f6d61506f7274616c3a207769746864726177616c2068617320616c726560448201527f616479206265656e2066696e616c697a6564000000000000000000000000000060648201526084016105e6565b600083815260336020908152604080832080547fffffffffffffffffffffffffffffffffffffffffffffffffffffffffffffff00166001179055908601516032805473ffffffffffffffffffffffffffffffffffffffff9092167fffffffffffffffffffffffff00000000000000000000000000000000000000009092169190911790558501516080860151606087015160a08801516117c5939291906121a6565b603280547fffffffffffffffffffffffff00000000000000000000000000000000000000001661dead17905560405190915084907fdb5c7652857aa163daadd670e116628fb42e869d8ac4251ef8971d9e5727df1b9061182a90841515815260200190565b60405180910390a2801580156118405750326001145b1561188d5760405162461bcd60e51b815260206004820152601e60248201527f4b726f6d61506f7274616c3a207769746864726177616c206661696c6564000060448201526064016105e6565b5050505050565b3373ffffffffffffffffffffffffffffffffffffffff7f0000000000000000000000000000000000000000000000000000000000000000161461193f5760405162461bcd60e51b815260206004820152603f60248201527f4b726f6d61506f7274616c3a2066756e6374696f6e2063616e206f6e6c79206260448201527f652063616c6c65642066726f6d207468652056616c696461746f72506f6f6c0060648201526084016105e6565b6040513373111100000000000000000000000000000000111101906000906119739082908190879082908890602001612e64565b604051602081830303815290604052905060008573ffffffffffffffffffffffffffffffffffffffff168373ffffffffffffffffffffffffffffffffffffffff167fb3813568d9991fc951961fcb4c784893574240a28925604d09fc577c55bb7c32846040516119e39190612ce3565b60405180910390a45050505050565b600054610100900460ff1615808015611a125750600054600160ff909116105b80611a2c5750303b158015611a2c575060005460ff166001145b611a9e5760405162461bcd60e51b815260206004820152602e60248201527f496e697469616c697a61626c653a20636f6e747261637420697320616c72656160448201527f647920696e697469616c697a656400000000000000000000000000000000000060648201526084016105e6565b600080547fffffffffffffffffffffffffffffffffffffffffffffffffffffffffffffff001660011790558015611afc57600080547fffffffffffffffffffffffffffffffffffffffffffffffffffffffffffff00ff166101001790555b603280547fffffffffffffffffffffffff00000000000000000000000000000000000000001661dead179055603580548315157fffffffffffffffffffffffffffffffffffffffffffffffffffffffffffffff00909116179055611b5e612200565b8015611bc157600080547fffffffffffffffffffffffffffffffffffffffffffffffffffffffffffff00ff169055604051600181527f7f26b83ff96e1f2b6a682f133852f6798a09c465da95921460cefb38474024989060200160405180910390a15b5050565b73ffffffffffffffffffffffffffffffffffffffff163b151590565b600154600090611c17907801000000000000000000000000000000000000000000000000900467ffffffffffffffff16436131f6565b90506000611c236122c9565b90506000816020015160ff16826000015163ffffffff16611c44919061323c565b90508215611d7b57600154600090611c7b908390700100000000000000000000000000000000900467ffffffffffffffff166132a4565b90506000836040015160ff1683611c929190613318565b600154611cb29084906fffffffffffffffffffffffffffffffff16613318565b611cbc919061323c565b600154909150600090611d0d90611ce69084906fffffffffffffffffffffffffffffffff166133d4565b866060015163ffffffff168760a001516fffffffffffffffffffffffffffffffff1661238f565b90506001861115611d3c57611d39611ce682876040015160ff1660018a611d3491906131f6565b6123a4565b90505b6fffffffffffffffffffffffffffffffff16780100000000000000000000000000000000000000000000000067ffffffffffffffff4316021760015550505b60018054869190601090611dae908490700100000000000000000000000000000000900467ffffffffffffffff16613448565b92506101000a81548167ffffffffffffffff021916908367ffffffffffffffff160217905550816000015163ffffffff16600160000160109054906101000a900467ffffffffffffffff1667ffffffffffffffff161315611e775760405162461bcd60e51b815260206004820152603e60248201527f5265736f757263654d65746572696e673a2063616e6e6f7420627579206d6f7260448201527f6520676173207468616e20617661696c61626c6520676173206c696d6974000060648201526084016105e6565b600154600090611ea3906fffffffffffffffffffffffffffffffff1667ffffffffffffffff8816613474565b90506000611eb548633b9aca006123f9565b611ebf90836134b1565b905060005a611ece90886131f6565b905080821115611eea57611eea611ee582846131f6565b612412565b5050505050505050565b8051600090611f0657610fbb82612440565b60405162461bcd60e51b815260206004820152602a60248201527f48617368696e673a20756e6b6e6f776e206f757470757420726f6f742070726f60448201527f6f662076657273696f6e0000000000000000000000000000000000000000000060648201526084016105e6565b919050565b80516020808301516040808501516060860151608087015160a08801519351600097611fa99790969591016134c5565b604051602081830303815290604052805190602001209050919050565b60608160000361200957505060408051808201909152600181527f3000000000000000000000000000000000000000000000000000000000000000602082015290565b8160005b8115612033578061201d8161351c565b915061202c9050600a836134b1565b915061200d565b60008167ffffffffffffffff81111561204e5761204e6129de565b6040519080825280601f01601f191660200182016040528015612078576020820181803683370190505b5090505b84156120fb5761208d6001836131f6565b915061209a600a86613554565b6120a5906030613568565b60f81b8183815181106120ba576120ba613580565b60200101907effffffffffffffffffffffffffffffffffffffffffffffffffffffffffffff1916908160001a9053506120f4600a866134b1565b945061207c565b949350505050565b60007f000000000000000000000000000000000000000000000000000000000000000073ffffffffffffffffffffffffffffffffffffffff1663f4daa2916040518163ffffffff1660e01b8152600401602060405180830381865afa158015612170573d6000803e3d6000fd5b505050506040513d601f19601f8201168201806040525081019061219491906131ae565b61219e9083613568565b421192915050565b600080603f60c88601604002045a10156121e9576308c379a06000526020805278185361666543616c6c3a204e6f7420656e6f756768206761736058526064601cfd5b600080845160208601878a5af19695505050505050565b600054610100900460ff1661227d5760405162461bcd60e51b815260206004820152602b60248201527f496e697469616c697a61626c653a20636f6e7472616374206973206e6f74206960448201527f6e697469616c697a696e6700000000000000000000000000000000000000000060648201526084016105e6565b60408051606081018252633b9aca00808252600060208301524367ffffffffffffffff169190920181905278010000000000000000000000000000000000000000000000000217600155565b6040805160c081018252600080825260208201819052918101829052606081018290526080810182905260a08101919091527f000000000000000000000000000000000000000000000000000000000000000073ffffffffffffffffffffffffffffffffffffffff1663cc731b026040518163ffffffff1660e01b815260040160c060405180830381865afa158015612366573d6000803e3d6000fd5b505050506040513d601f19601f8201168201806040525081019061238a91906135d4565b905090565b60006120fb61239e8585612483565b83612493565b6000670de0b6b3a76400006123e56123bc858361323c565b6123ce90670de0b6b3a76400006132a4565b6123e085670de0b6b3a7640000613318565b6124a2565b6123ef9086613318565b6120fb919061323c565b600081831015612409578161240b565b825b9392505050565b6000805a90505b825a61242590836131f6565b101561243b576124348261351c565b9150612419565b505050565b80516020808301516040808501516060808701516080808901518551978801989098529386019490945284015282015260a081019190915260009060c001611fa9565b600081831215612409578161240b565b6000818312612409578161240b565b600061240b670de0b6b3a7640000836124ba866124d3565b6124c49190613318565b6124ce919061323c565b6126fd565b60008082136125245760405162461bcd60e51b815260206004820152600960248201527f554e444546494e4544000000000000000000000000000000000000000000000060448201526064016105e6565b6000606061253184612922565b03609f8181039490941b90931c6c465772b2bbbb5f824b15207a3081018102606090811d6d0388eaa27412d5aca026815d636e018202811d6d0df99ac502031bf953eff472fdcc018202811d6d13cdffb29d51d99322bdff5f2211018202811d6d0a0f742023def783a307a986912e018202811d6d01920d8043ca89b5239253284e42018202811d6c0b7a86d7375468fac667a0a527016c29508e458543d8aa4df2abee7883018302821d6d0139601a2efabe717e604cbb4894018302821d6d02247f7a7b6594320649aa03aba1018302821d7fffffffffffffffffffffffffffffffffffffff73c0c716a594e00d54e3c4cbc9018302821d7ffffffffffffffffffffffffffffffffffffffdc7b88c420e53a9890533129f6f01830290911d7fffffffffffffffffffffffffffffffffffffff465fda27eb4d63ded474e5f832019091027ffffffffffffffff5f6af8f7b3396644f18e157960000000000000000000000000105711340daa0d5f769dba1915cef59f0815a5506027d0267a36c0c95b3975ab3ee5b203a7614a3f75373f047d803ae7b6687f2b393909302929092017d57115e47018c7177eebf7cd370a3356a1b7863008a5ae8028c72b88642840160ae1d92915050565b60007ffffffffffffffffffffffffffffffffffffffffffffffffdb731c958f34d94c1821361272e57506000919050565b680755bf798b4a1bf1e582126127865760405162461bcd60e51b815260206004820152600c60248201527f4558505f4f564552464c4f57000000000000000000000000000000000000000060448201526064016105e6565b6503782dace9d9604e83901b059150600060606bb17217f7d1cf79abc9e3b39884821b056b80000000000000000000000001901d6bb17217f7d1cf79abc9e3b39881029093037fffffffffffffffffffffffffffffffffffffffdbf3ccf1604d263450f02a550481018102606090811d6d0277594991cfc85f6e2461837cd9018202811d7fffffffffffffffffffffffffffffffffffffe5adedaa1cb095af9e4da10e363c018202811d6db1bbb201f443cf962f1a1d3db4a5018202811d7ffffffffffffffffffffffffffffffffffffd38dc772608b0ae56cce01296c0eb018202811d6e05180bb14799ab47a8a8cb2a527d57016d02d16720577bd19bf614176fe9ea6c10fe68e7fd37d0007b713f765084018402831d9081019084017ffffffffffffffffffffffffffffffffffffffe2c69812cf03b0763fd454a8f7e010290911d6e0587f503bb6ea29d25fcb7401964500190910279d835ebba824c98fb31b83b2ca45c000000000000000000000000010574029d9dc38563c32e5c2f6dc192ee70ef65f9978af30260c3939093039290921c92915050565b60008082116129735760405162461bcd60e51b815260206004820152600960248201527f554e444546494e4544000000000000000000000000000000000000000000000060448201526064016105e6565b5060016fffffffffffffffffffffffffffffffff821160071b82811c67ffffffffffffffff1060061b1782811c63ffffffff1060051b1782811c61ffff1060041b1782811c60ff10600390811b90911783811c600f1060021b1783811c909110821b1791821c111790565b7f4e487b7100000000000000000000000000000000000000000000000000000000600052604160045260246000fd5b73ffffffffffffffffffffffffffffffffffffffff81168114612a2f57600080fd5b50565b600082601f830112612a4357600080fd5b813567ffffffffffffffff80821115612a5e57612a5e6129de565b604051601f83017fffffffffffffffffffffffffffffffffffffffffffffffffffffffffffffffe0908116603f01168101908282118183101715612aa457612aa46129de565b81604052838152866020858801011115612abd57600080fd5b836020870160208301376000602085830101528094505050505092915050565b600060c08284031215612aef57600080fd5b60405160c0810167ffffffffffffffff8282108183111715612b1357612b136129de565b816040528293508435835260208501359150612b2e82612a0d565b81602084015260408501359150612b4482612a0d565b816040840152606085013560608401526080850135608084015260a0850135915080821115612b7257600080fd5b50612b7f85828601612a32565b60a0830152505092915050565b6000806000806000858703610100811215612ba657600080fd5b863567ffffffffffffffff80821115612bbe57600080fd5b612bca8a838b01612add565b97506020890135965060a07fffffffffffffffffffffffffffffffffffffffffffffffffffffffffffffffc084011215612c0357600080fd5b60408901955060e0890135925080831115612c1d57600080fd5b828901925089601f840112612c3157600080fd5b8235915080821115612c4257600080fd5b508860208260051b8401011115612c5857600080fd5b959894975092955050506020019190565b60005b83811015612c84578181015183820152602001612c6c565b83811115612c93576000848401525b50505050565b60008151808452612cb1816020860160208601612c69565b601f017fffffffffffffffffffffffffffffffffffffffffffffffffffffffffffffffe0169290920160200192915050565b60208152600061240b6020830184612c99565b600060208284031215612d0857600080fd5b5035919050565b600060208284031215612d2157600080fd5b813567ffffffffffffffff811115612d3857600080fd5b6120fb84828501612add565b803567ffffffffffffffff81168114611f7457600080fd5b600080600060608486031215612d7157600080fd5b8335612d7c81612a0d565b9250612d8a60208501612d44565b9150604084013567ffffffffffffffff811115612da657600080fd5b612db286828701612a32565b9150509250925092565b8015158114612a2f57600080fd5b600060208284031215612ddc57600080fd5b813561240b81612dbc565b600080600080600060a08688031215612dff57600080fd5b8535612e0a81612a0d565b945060208601359350612e1f60408701612d44565b92506060860135612e2f81612dbc565b9150608086013567ffffffffffffffff811115612e4b57600080fd5b612e5788828901612a32565b9150509295509295909350565b8581528460208201527fffffffffffffffff0000000000000000000000000000000000000000000000008460c01b16604082015282151560f81b604882015260008251612eb8816049850160208701612c69565b919091016049019695505050505050565b80516fffffffffffffffffffffffffffffffff81168114611f7457600080fd5b600060808284031215612efb57600080fd5b6040516080810181811067ffffffffffffffff82111715612f1e57612f1e6129de565b6040528251612f2c81612a0d565b815260208381015190820152612f4460408401612ec9565b6040820152612f5560608401612ec9565b60608201529392505050565b600060a08284031215612f7357600080fd5b60405160a0810181811067ffffffffffffffff82111715612f9657612f966129de565b806040525082358152602083013560208201526040830135604082015260608301356060820152608083013560808201528091505092915050565b8183528181602085013750600060208284010152600060207fffffffffffffffffffffffffffffffffffffffffffffffffffffffffffffffe0601f840116840101905092915050565b8481526000602060808184015280608084015260018060a085015260c0840160c060408601528087825260e08601905060e08860051b87010191508860005b89811015613103577fffffffffffffffffffffffffffffffffffffffffffffffffffffffffffffff2088850301835281357fffffffffffffffffffffffffffffffffffffffffffffffffffffffffffffffe18c36030181126130ba57600080fd5b8b01868101903567ffffffffffffffff8111156130d657600080fd5b8036038213156130e557600080fd5b6130f0868284612fd1565b9550505091850191908501908401613059565b50505080935050505082606083015295945050505050565b60006020828403121561312d57600080fd5b815161240b81612dbc565b6000845161314a818460208901612c69565b80830190507f2e000000000000000000000000000000000000000000000000000000000000008082528551613186816001850160208a01612c69565b600192019182015283516131a1816002840160208801612c69565b0160020195945050505050565b6000602082840312156131c057600080fd5b5051919050565b7f4e487b7100000000000000000000000000000000000000000000000000000000600052601160045260246000fd5b600082821015613208576132086131c7565b500390565b7f4e487b7100000000000000000000000000000000000000000000000000000000600052601260045260246000fd5b60008261324b5761324b61320d565b7fffffffffffffffffffffffffffffffffffffffffffffffffffffffffffffffff83147f80000000000000000000000000000000000000000000000000000000000000008314161561329f5761329f6131c7565b500590565b6000808312837f8000000000000000000000000000000000000000000000000000000000000000018312811516156132de576132de6131c7565b837f7fffffffffffffffffffffffffffffffffffffffffffffffffffffffffffffff018313811615613312576133126131c7565b50500390565b60007f7fffffffffffffffffffffffffffffffffffffffffffffffffffffffffffffff600084136000841385830485118282161615613359576133596131c7565b7f80000000000000000000000000000000000000000000000000000000000000006000871286820588128184161615613394576133946131c7565b600087129250878205871284841616156133b0576133b06131c7565b878505871281841616156133c6576133c66131c7565b505050929093029392505050565b6000808212827f7fffffffffffffffffffffffffffffffffffffffffffffffffffffffffffffff0384138115161561340e5761340e6131c7565b827f8000000000000000000000000000000000000000000000000000000000000000038412811615613442576134426131c7565b50500190565b600067ffffffffffffffff80831681851680830382111561346b5761346b6131c7565b01949350505050565b6000817fffffffffffffffffffffffffffffffffffffffffffffffffffffffffffffffff04831182151516156134ac576134ac6131c7565b500290565b6000826134c0576134c061320d565b500490565b868152600073ffffffffffffffffffffffffffffffffffffffff808816602084015280871660408401525084606083015283608083015260c060a083015261351060c0830184612c99565b98975050505050505050565b60007fffffffffffffffffffffffffffffffffffffffffffffffffffffffffffffffff820361354d5761354d6131c7565b5060010190565b6000826135635761356361320d565b500690565b6000821982111561357b5761357b6131c7565b500190565b7f4e487b7100000000000000000000000000000000000000000000000000000000600052603260045260246000fd5b805163ffffffff81168114611f7457600080fd5b805160ff81168114611f7457600080fd5b600060c082840312156135e657600080fd5b60405160c0810181811067ffffffffffffffff82111715613609576136096129de565b604052613615836135af565b8152613623602084016135c3565b6020820152613634604084016135c3565b6040820152613645606084016135af565b6060820152613656608084016135af565b608082015261366760a08401612ec9565b60a0820152939250505056fea164736f6c634300080f000a",
  "devdoc": {},
  "userdoc": {}
}