{
  "address": "0x4CCA02cfE0507e63D7c03719e59F4C3A3f78c7fd",
  "abi": [
    {
      "inputs": [
        {
          "internalType": "address",
          "name": "_bridge",
          "type": "address"
        }
      ],
      "stateMutability": "nonpayable",
      "type": "constructor"
    },
    {
      "anonymous": false,
      "inputs": [
        {
          "indexed": true,
          "internalType": "address",
          "name": "localToken",
          "type": "address"
        },
        {
          "indexed": true,
          "internalType": "address",
          "name": "remoteToken",
          "type": "address"
        },
        {
          "indexed": false,
          "internalType": "address",
          "name": "deployer",
          "type": "address"
        }
      ],
      "name": "KromaMintableERC20Created",
      "type": "event"
    },
    {
      "inputs": [],
      "name": "BRIDGE",
      "outputs": [
        {
          "internalType": "address",
          "name": "",
          "type": "address"
        }
      ],
      "stateMutability": "view",
      "type": "function"
    },
    {
      "inputs": [
        {
          "internalType": "address",
          "name": "_remoteToken",
          "type": "address"
        },
        {
          "internalType": "string",
          "name": "_name",
          "type": "string"
        },
        {
          "internalType": "string",
          "name": "_symbol",
          "type": "string"
        }
      ],
      "name": "createKromaMintableERC20",
      "outputs": [
        {
          "internalType": "address",
          "name": "",
          "type": "address"
        }
      ],
      "stateMutability": "nonpayable",
      "type": "function"
    },
    {
      "inputs": [],
      "name": "version",
      "outputs": [
        {
          "internalType": "string",
          "name": "",
          "type": "string"
        }
      ],
      "stateMutability": "view",
      "type": "function"
    }
  ],
  "transactionHash": "0x8bd8915c012df21ceed66bf3b2170e88360f6cbf3233e6a21ee2615b7ae8ac05",
  "args": [
    "0x38C9a0a694AA0f92c05238484C3a9bdE1e85ddE4"
  ],
  "numDeployments": 1,
  "solcInputHash": "2be9b32c7691480936a9f139de7d6ffd",
  "bytecode": "0x61010060405234801561001157600080fd5b5060405161215f38038061215f83398101604081905261003091610050565b60006080819052600160a05260c0526001600160a01b031660e052610080565b60006020828403121561006257600080fd5b81516001600160a01b038116811461007957600080fd5b9392505050565b60805160a05160c05160e0516120a06100bf6000396000818160ab015261017b01526000610291015260006102660152600061023b01526120a06000f3fe60806040523480156200001157600080fd5b5060043610620000465760003560e01c80635269aa1b146200004b57806354fd4d50146200008c578063ee9a31a214620000a5575b600080fd5b620000626200005c36600462000523565b620000cd565b60405173ffffffffffffffffffffffffffffffffffffffff90911681526020015b60405180910390f35b6200009662000233565b60405162000083919062000639565b620000627f000000000000000000000000000000000000000000000000000000000000000081565b600073ffffffffffffffffffffffffffffffffffffffff841662000177576040517f08c379a000000000000000000000000000000000000000000000000000000000815260206004820152603c60248201527f4b726f6d614d696e7461626c654552433230466163746f72793a206d7573742060448201527f70726f766964652072656d6f746520746f6b656e206164647265737300000000606482015260840160405180910390fd5b60007f0000000000000000000000000000000000000000000000000000000000000000858585604051620001ab9062000433565b620001ba949392919062000655565b604051809103906000f080158015620001d7573d6000803e3d6000fd5b5060405133815290915073ffffffffffffffffffffffffffffffffffffffff80871691908316907f16f14001f89df9d8ecc68e7cbb61373ece9025038b9df30bea3635fc0e4701a99060200160405180910390a3949350505050565b6060620002607f0000000000000000000000000000000000000000000000000000000000000000620002de565b6200028b7f0000000000000000000000000000000000000000000000000000000000000000620002de565b620002b67f0000000000000000000000000000000000000000000000000000000000000000620002de565b604051602001620002ca93929190620006af565b604051602081830303815290604052905090565b6060816000036200032257505060408051808201909152600181527f3000000000000000000000000000000000000000000000000000000000000000602082015290565b8160005b811562000352578062000339816200075a565b91506200034a9050600a83620007c4565b915062000326565b60008167ffffffffffffffff81111562000370576200037062000441565b6040519080825280601f01601f1916602001820160405280156200039b576020820181803683370190505b5090505b84156200042b57620003b3600183620007db565b9150620003c2600a86620007f5565b620003cf9060306200080c565b60f81b818381518110620003e757620003e762000827565b60200101907effffffffffffffffffffffffffffffffffffffffffffffffffffffffffffff1916908160001a90535062000423600a86620007c4565b94506200039f565b949350505050565b61183d806200085783390190565b7f4e487b7100000000000000000000000000000000000000000000000000000000600052604160045260246000fd5b600082601f8301126200048257600080fd5b813567ffffffffffffffff80821115620004a057620004a062000441565b604051601f83017fffffffffffffffffffffffffffffffffffffffffffffffffffffffffffffffe0908116603f01168101908282118183101715620004e957620004e962000441565b816040528381528660208588010111156200050357600080fd5b836020870160208301376000602085830101528094505050505092915050565b6000806000606084860312156200053957600080fd5b833573ffffffffffffffffffffffffffffffffffffffff811681146200055e57600080fd5b9250602084013567ffffffffffffffff808211156200057c57600080fd5b6200058a8783880162000470565b93506040860135915080821115620005a157600080fd5b50620005b08682870162000470565b9150509250925092565b60005b83811015620005d7578181015183820152602001620005bd565b83811115620005e7576000848401525b50505050565b6000815180845262000607816020860160208601620005ba565b601f017fffffffffffffffffffffffffffffffffffffffffffffffffffffffffffffffe0169290920160200192915050565b6020815260006200064e6020830184620005ed565b9392505050565b600073ffffffffffffffffffffffffffffffffffffffff808716835280861660208401525060806040830152620006906080830185620005ed565b8281036060840152620006a48185620005ed565b979650505050505050565b60008451620006c3818460208901620005ba565b80830190507f2e00000000000000000000000000000000000000000000000000000000000000808252855162000701816001850160208a01620005ba565b600192019182015283516200071e816002840160208801620005ba565b0160020195945050505050565b7f4e487b7100000000000000000000000000000000000000000000000000000000600052601160045260246000fd5b60007fffffffffffffffffffffffffffffffffffffffffffffffffffffffffffffffff82036200078e576200078e6200072b565b5060010190565b7f4e487b7100000000000000000000000000000000000000000000000000000000600052601260045260246000fd5b600082620007d657620007d662000795565b500490565b600082821015620007f057620007f06200072b565b500390565b60008262000807576200080762000795565b500690565b600082198211156200082257620008226200072b565b500190565b7f4e487b7100000000000000000000000000000000000000000000000000000000600052603260045260246000fdfe6101206040523480156200001257600080fd5b506040516200183d3803806200183d83398101604081905262000035916200016d565b6000600181848460036200004a83826200028c565b5060046200005982826200028c565b50505060809290925260a05260c05250506001600160a01b0390811660e052166101005262000358565b80516001600160a01b03811681146200009b57600080fd5b919050565b634e487b7160e01b600052604160045260246000fd5b600082601f830112620000c857600080fd5b81516001600160401b0380821115620000e557620000e5620000a0565b604051601f8301601f19908116603f01168101908282118183101715620001105762000110620000a0565b816040528381526020925086838588010111156200012d57600080fd5b600091505b8382101562000151578582018301518183018401529082019062000132565b83821115620001635760008385830101525b9695505050505050565b600080600080608085870312156200018457600080fd5b6200018f8562000083565b93506200019f6020860162000083565b60408601519093506001600160401b0380821115620001bd57600080fd5b620001cb88838901620000b6565b93506060870151915080821115620001e257600080fd5b50620001f187828801620000b6565b91505092959194509250565b600181811c908216806200021257607f821691505b6020821081036200023357634e487b7160e01b600052602260045260246000fd5b50919050565b601f8211156200028757600081815260208120601f850160051c81016020861015620002625750805b601f850160051c820191505b8181101562000283578281556001016200026e565b5050505b505050565b81516001600160401b03811115620002a857620002a8620000a0565b620002c081620002b98454620001fd565b8462000239565b602080601f831160018114620002f85760008415620002df5750858301515b600019600386901b1c1916600185901b17855562000283565b600085815260208120601f198616915b82811015620003295788860151825594840194600190910190840162000308565b5085821015620003485787850151600019600388901b60f8161c191681555b5050505050600190811b01905550565b60805160a05160c05160e05161010051611492620003ab600039600081816102e2015281816104d601526106960152600061014d01526000610625015260006105fc015260006105d301526114926000f3fe608060405234801561001057600080fd5b506004361061011b5760003560e01c806340c10f19116100b25780639dc29fac11610081578063a9059cbb11610066578063a9059cbb14610284578063dd62ed3e14610297578063ee9a31a2146102dd57600080fd5b80639dc29fac1461025e578063a457c2d71461027157600080fd5b806340c10f191461020357806354fd4d501461021857806370a082311461022057806395d89b411461025657600080fd5b806318160ddd116100ee57806318160ddd146101bc57806323b872dd146101ce578063313ce567146101e157806339509351146101f057600080fd5b806301ffc9a714610120578063033964be1461014857806306fdde0314610194578063095ea7b3146101a9575b600080fd5b61013361012e3660046110ce565b610304565b60405190151581526020015b60405180910390f35b61016f7f000000000000000000000000000000000000000000000000000000000000000081565b60405173ffffffffffffffffffffffffffffffffffffffff909116815260200161013f565b61019c6103a4565b60405161013f9190611143565b6101336101b73660046111bd565b610436565b6002545b60405190815260200161013f565b6101336101dc3660046111e7565b61044e565b6040516012815260200161013f565b6101336101fe3660046111bd565b610472565b6102166102113660046111bd565b6104be565b005b61019c6105cc565b6101c061022e366004611223565b73ffffffffffffffffffffffffffffffffffffffff1660009081526020819052604090205490565b61019c61066f565b61021661026c3660046111bd565b61067e565b61013361027f3660046111bd565b61077b565b6101336102923660046111bd565b610832565b6101c06102a536600461123e565b73ffffffffffffffffffffffffffffffffffffffff918216600090815260016020908152604080832093909416825291909152205490565b61016f7f000000000000000000000000000000000000000000000000000000000000000081565b60007f01ffc9a7000000000000000000000000000000000000000000000000000000007f30a0c5a9000000000000000000000000000000000000000000000000000000007fffffffff00000000000000000000000000000000000000000000000000000000841682148061039c57507fffffffff00000000000000000000000000000000000000000000000000000000848116908216145b949350505050565b6060600380546103b390611271565b80601f01602080910402602001604051908101604052809291908181526020018280546103df90611271565b801561042c5780601f106104015761010080835404028352916020019161042c565b820191906000526020600020905b81548152906001019060200180831161040f57829003601f168201915b5050505050905090565b600033610444818585610840565b5060019392505050565b60003361045c8582856109c0565b610467858585610a7d565b506001949350505050565b33600081815260016020908152604080832073ffffffffffffffffffffffffffffffffffffffff8716845290915281205490919061044490829086906104b99087906112f3565b610840565b3373ffffffffffffffffffffffffffffffffffffffff7f0000000000000000000000000000000000000000000000000000000000000000161461056e5760405162461bcd60e51b815260206004820152603160248201527f4b726f6d614d696e7461626c6545524332303a206f6e6c79206272696467652060448201527f63616e206d696e7420616e64206275726e00000000000000000000000000000060648201526084015b60405180910390fd5b6105788282610ce2565b8173ffffffffffffffffffffffffffffffffffffffff167f0f6798a560793a54c3bcfe86a93cde1e73087d944c0ea20544137d4121396885826040516105c091815260200190565b60405180910390a25050565b60606105f77f0000000000000000000000000000000000000000000000000000000000000000610de8565b6106207f0000000000000000000000000000000000000000000000000000000000000000610de8565b6106497f0000000000000000000000000000000000000000000000000000000000000000610de8565b60405160200161065b9392919061130b565b604051602081830303815290604052905090565b6060600480546103b390611271565b3373ffffffffffffffffffffffffffffffffffffffff7f000000000000000000000000000000000000000000000000000000000000000016146107295760405162461bcd60e51b815260206004820152603160248201527f4b726f6d614d696e7461626c6545524332303a206f6e6c79206272696467652060448201527f63616e206d696e7420616e64206275726e0000000000000000000000000000006064820152608401610565565b6107338282610f1d565b8173ffffffffffffffffffffffffffffffffffffffff167fcc16f5dbb4873280815c1ee09dbd06736cffcc184412cf7a71a0fdb75d397ca5826040516105c091815260200190565b33600081815260016020908152604080832073ffffffffffffffffffffffffffffffffffffffff87168452909152812054909190838110156108255760405162461bcd60e51b815260206004820152602560248201527f45524332303a2064656372656173656420616c6c6f77616e63652062656c6f7760448201527f207a65726f0000000000000000000000000000000000000000000000000000006064820152608401610565565b6104678286868403610840565b600033610444818585610a7d565b73ffffffffffffffffffffffffffffffffffffffff83166108c85760405162461bcd60e51b8152602060048201526024808201527f45524332303a20617070726f76652066726f6d20746865207a65726f2061646460448201527f72657373000000000000000000000000000000000000000000000000000000006064820152608401610565565b73ffffffffffffffffffffffffffffffffffffffff82166109515760405162461bcd60e51b815260206004820152602260248201527f45524332303a20617070726f766520746f20746865207a65726f20616464726560448201527f73730000000000000000000000000000000000000000000000000000000000006064820152608401610565565b73ffffffffffffffffffffffffffffffffffffffff83811660008181526001602090815260408083209487168084529482529182902085905590518481527f8c5be1e5ebec7d5bd14f71427d1e84f3dd0314c0f7b2291e5b200ac8c7c3b92591015b60405180910390a3505050565b73ffffffffffffffffffffffffffffffffffffffff8381166000908152600160209081526040808320938616835292905220547fffffffffffffffffffffffffffffffffffffffffffffffffffffffffffffffff8114610a775781811015610a6a5760405162461bcd60e51b815260206004820152601d60248201527f45524332303a20696e73756666696369656e7420616c6c6f77616e63650000006044820152606401610565565b610a778484848403610840565b50505050565b73ffffffffffffffffffffffffffffffffffffffff8316610b065760405162461bcd60e51b815260206004820152602560248201527f45524332303a207472616e736665722066726f6d20746865207a65726f20616460448201527f64726573730000000000000000000000000000000000000000000000000000006064820152608401610565565b73ffffffffffffffffffffffffffffffffffffffff8216610b8f5760405162461bcd60e51b815260206004820152602360248201527f45524332303a207472616e7366657220746f20746865207a65726f206164647260448201527f65737300000000000000000000000000000000000000000000000000000000006064820152608401610565565b73ffffffffffffffffffffffffffffffffffffffff831660009081526020819052604090205481811015610c2b5760405162461bcd60e51b815260206004820152602660248201527f45524332303a207472616e7366657220616d6f756e742065786365656473206260448201527f616c616e636500000000000000000000000000000000000000000000000000006064820152608401610565565b73ffffffffffffffffffffffffffffffffffffffff808516600090815260208190526040808220858503905591851681529081208054849290610c6f9084906112f3565b925050819055508273ffffffffffffffffffffffffffffffffffffffff168473ffffffffffffffffffffffffffffffffffffffff167fddf252ad1be2c89b69c2b068fc378daa952ba7f163c4a11628f55a4df523b3ef84604051610cd591815260200190565b60405180910390a3610a77565b73ffffffffffffffffffffffffffffffffffffffff8216610d455760405162461bcd60e51b815260206004820152601f60248201527f45524332303a206d696e7420746f20746865207a65726f2061646472657373006044820152606401610565565b8060026000828254610d5791906112f3565b909155505073ffffffffffffffffffffffffffffffffffffffff821660009081526020819052604081208054839290610d919084906112f3565b909155505060405181815273ffffffffffffffffffffffffffffffffffffffff8316906000907fddf252ad1be2c89b69c2b068fc378daa952ba7f163c4a11628f55a4df523b3ef9060200160405180910390a35050565b606081600003610e2b57505060408051808201909152600181527f3000000000000000000000000000000000000000000000000000000000000000602082015290565b8160005b8115610e555780610e3f81611381565b9150610e4e9050600a836113e8565b9150610e2f565b60008167ffffffffffffffff811115610e7057610e706113fc565b6040519080825280601f01601f191660200182016040528015610e9a576020820181803683370190505b5090505b841561039c57610eaf60018361142b565b9150610ebc600a86611442565b610ec79060306112f3565b60f81b818381518110610edc57610edc611456565b60200101907effffffffffffffffffffffffffffffffffffffffffffffffffffffffffffff1916908160001a905350610f16600a866113e8565b9450610e9e565b73ffffffffffffffffffffffffffffffffffffffff8216610fa65760405162461bcd60e51b815260206004820152602160248201527f45524332303a206275726e2066726f6d20746865207a65726f2061646472657360448201527f73000000000000000000000000000000000000000000000000000000000000006064820152608401610565565b73ffffffffffffffffffffffffffffffffffffffff8216600090815260208190526040902054818110156110425760405162461bcd60e51b815260206004820152602260248201527f45524332303a206275726e20616d6f756e7420657863656564732062616c616e60448201527f63650000000000000000000000000000000000000000000000000000000000006064820152608401610565565b73ffffffffffffffffffffffffffffffffffffffff8316600090815260208190526040812083830390556002805484929061107e90849061142b565b909155505060405182815260009073ffffffffffffffffffffffffffffffffffffffff8516907fddf252ad1be2c89b69c2b068fc378daa952ba7f163c4a11628f55a4df523b3ef906020016109b3565b6000602082840312156110e057600080fd5b81357fffffffff000000000000000000000000000000000000000000000000000000008116811461111057600080fd5b9392505050565b60005b8381101561113257818101518382015260200161111a565b83811115610a775750506000910152565b6020815260008251806020840152611162816040850160208701611117565b601f017fffffffffffffffffffffffffffffffffffffffffffffffffffffffffffffffe0169190910160400192915050565b803573ffffffffffffffffffffffffffffffffffffffff811681146111b857600080fd5b919050565b600080604083850312156111d057600080fd5b6111d983611194565b946020939093013593505050565b6000806000606084860312156111fc57600080fd5b61120584611194565b925061121360208501611194565b9150604084013590509250925092565b60006020828403121561123557600080fd5b61111082611194565b6000806040838503121561125157600080fd5b61125a83611194565b915061126860208401611194565b90509250929050565b600181811c9082168061128557607f821691505b6020821081036112be577f4e487b7100000000000000000000000000000000000000000000000000000000600052602260045260246000fd5b50919050565b7f4e487b7100000000000000000000000000000000000000000000000000000000600052601160045260246000fd5b60008219821115611306576113066112c4565b500190565b6000845161131d818460208901611117565b80830190507f2e000000000000000000000000000000000000000000000000000000000000008082528551611359816001850160208a01611117565b60019201918201528351611374816002840160208801611117565b0160020195945050505050565b60007fffffffffffffffffffffffffffffffffffffffffffffffffffffffffffffffff82036113b2576113b26112c4565b5060010190565b7f4e487b7100000000000000000000000000000000000000000000000000000000600052601260045260246000fd5b6000826113f7576113f76113b9565b500490565b7f4e487b7100000000000000000000000000000000000000000000000000000000600052604160045260246000fd5b60008282101561143d5761143d6112c4565b500390565b600082611451576114516113b9565b500690565b7f4e487b7100000000000000000000000000000000000000000000000000000000600052603260045260246000fdfea164736f6c634300080f000aa164736f6c634300080f000a",
  "devdoc": {
    "version": 1,
    "kind": "dev",
    "methods": {
      "constructor": {
        "params": {
          "_bridge": "Address of the StandardBridge on this chain."
        }
      },
      "createKromaMintableERC20(address,string,string)": {
        "params": {
          "_name": "ERC20 name.",
          "_remoteToken": "Address of the token on the remote chain.",
          "_symbol": "ERC20 symbol."
        },
        "returns": {
          "_0": "Address of the newly created token."
        }
      },
      "version()": {
        "returns": {
          "_0": "Semver contract version as a string."
        }
      }
    },
    "events": {
      "KromaMintableERC20Created(address,address,address)": {
        "params": {
          "deployer": "Address of the account that deployed the token.",
          "localToken": "Address of the created token on the local chain.",
          "remoteToken": "Address of the corresponding token on the remote chain."
        }
      }
    },
    "title": "KromaMintableERC20Factory"
  },
  "userdoc": {
    "version": 1,
    "kind": "user",
    "methods": {
      "BRIDGE()": {
        "notice": "Address of the StandardBridge on this chain."
      },
      "constructor": {
        "notice": "The semver MUST be bumped any time that there is a change in         the KromaMintableERC20 token contract since this contract         is responsible for deploying KromaMintableERC20 contracts."
      },
      "createKromaMintableERC20(address,string,string)": {
        "notice": "Creates an instance of the KromaMintableERC20 contract."
      },
      "version()": {
        "notice": "Returns the full semver contract version."
      }
    },
    "events": {
      "KromaMintableERC20Created(address,address,address)": {
        "notice": "Emitted whenever a new KromaMintableERC20 is created."
      }
    },
    "notice": "KromaMintableERC20Factory is a factory contract that generates KromaMintableERC20         contracts on the network it's deployed to. Simplifies the deployment process for users         who may be less familiar with deploying smart contracts. Designed to be backwards         compatible with the older StandardL2ERC20Factory contract."
  }
}