{
  "address": "0x31755Ae4Fa75F2Da62a1A84ab60A718A6Dd0c9D5",
  "abi": [
    {
      "inputs": [
        {
          "internalType": "contract KromaPortal",
          "name": "_portal",
          "type": "address"
        }
      ],
      "stateMutability": "nonpayable",
      "type": "constructor"
    },
    {
      "anonymous": false,
      "inputs": [
        {
          "indexed": true,
          "internalType": "bytes32",
          "name": "msgHash",
          "type": "bytes32"
        }
      ],
      "name": "FailedRelayedMessage",
      "type": "event"
    },
    {
      "anonymous": false,
      "inputs": [
        {
          "indexed": false,
          "internalType": "uint8",
          "name": "version",
          "type": "uint8"
        }
      ],
      "name": "Initialized",
      "type": "event"
    },
    {
      "anonymous": false,
      "inputs": [
        {
          "indexed": false,
          "internalType": "address",
          "name": "account",
          "type": "address"
        }
      ],
      "name": "Paused",
      "type": "event"
    },
    {
      "anonymous": false,
      "inputs": [
        {
          "indexed": true,
          "internalType": "bytes32",
          "name": "msgHash",
          "type": "bytes32"
        }
      ],
      "name": "RelayedMessage",
      "type": "event"
    },
    {
      "anonymous": false,
      "inputs": [
        {
          "indexed": true,
          "internalType": "address",
          "name": "target",
          "type": "address"
        },
        {
          "indexed": true,
          "internalType": "address",
          "name": "sender",
          "type": "address"
        },
        {
          "indexed": false,
          "internalType": "uint256",
          "name": "value",
          "type": "uint256"
        },
        {
          "indexed": false,
          "internalType": "bytes",
          "name": "message",
          "type": "bytes"
        },
        {
          "indexed": false,
          "internalType": "uint256",
          "name": "messageNonce",
          "type": "uint256"
        },
        {
          "indexed": false,
          "internalType": "uint256",
          "name": "gasLimit",
          "type": "uint256"
        }
      ],
      "name": "SentMessage",
      "type": "event"
    },
    {
      "anonymous": false,
      "inputs": [
        {
          "indexed": false,
          "internalType": "address",
          "name": "account",
          "type": "address"
        }
      ],
      "name": "Unpaused",
      "type": "event"
    },
    {
      "inputs": [],
      "name": "MESSAGE_VERSION",
      "outputs": [
        {
          "internalType": "uint16",
          "name": "",
          "type": "uint16"
        }
      ],
      "stateMutability": "view",
      "type": "function"
    },
    {
      "inputs": [],
      "name": "MIN_GAS_CALLDATA_OVERHEAD",
      "outputs": [
        {
          "internalType": "uint64",
          "name": "",
          "type": "uint64"
        }
      ],
      "stateMutability": "view",
      "type": "function"
    },
    {
      "inputs": [],
      "name": "MIN_GAS_CONSTANT_OVERHEAD",
      "outputs": [
        {
          "internalType": "uint64",
          "name": "",
          "type": "uint64"
        }
      ],
      "stateMutability": "view",
      "type": "function"
    },
    {
      "inputs": [],
      "name": "MIN_GAS_DYNAMIC_OVERHEAD_DENOMINATOR",
      "outputs": [
        {
          "internalType": "uint64",
          "name": "",
          "type": "uint64"
        }
      ],
      "stateMutability": "view",
      "type": "function"
    },
    {
      "inputs": [],
      "name": "MIN_GAS_DYNAMIC_OVERHEAD_NUMERATOR",
      "outputs": [
        {
          "internalType": "uint64",
          "name": "",
          "type": "uint64"
        }
      ],
      "stateMutability": "view",
      "type": "function"
    },
    {
      "inputs": [],
      "name": "OTHER_MESSENGER",
      "outputs": [
        {
          "internalType": "address",
          "name": "",
          "type": "address"
        }
      ],
      "stateMutability": "view",
      "type": "function"
    },
    {
      "inputs": [],
      "name": "PORTAL",
      "outputs": [
        {
          "internalType": "contract KromaPortal",
          "name": "",
          "type": "address"
        }
      ],
      "stateMutability": "view",
      "type": "function"
    },
    {
      "inputs": [
        {
          "internalType": "bytes",
          "name": "_message",
          "type": "bytes"
        },
        {
          "internalType": "uint32",
          "name": "_minGasLimit",
          "type": "uint32"
        }
      ],
      "name": "baseGas",
      "outputs": [
        {
          "internalType": "uint64",
          "name": "",
          "type": "uint64"
        }
      ],
      "stateMutability": "pure",
      "type": "function"
    },
    {
      "inputs": [
        {
          "internalType": "bytes32",
          "name": "",
          "type": "bytes32"
        }
      ],
      "name": "failedMessages",
      "outputs": [
        {
          "internalType": "bool",
          "name": "",
          "type": "bool"
        }
      ],
      "stateMutability": "view",
      "type": "function"
    },
    {
      "inputs": [],
      "name": "initialize",
      "outputs": [],
      "stateMutability": "nonpayable",
      "type": "function"
    },
    {
      "inputs": [],
      "name": "messageNonce",
      "outputs": [
        {
          "internalType": "uint256",
          "name": "",
          "type": "uint256"
        }
      ],
      "stateMutability": "view",
      "type": "function"
    },
    {
      "inputs": [],
      "name": "paused",
      "outputs": [
        {
          "internalType": "bool",
          "name": "",
          "type": "bool"
        }
      ],
      "stateMutability": "view",
      "type": "function"
    },
    {
      "inputs": [
        {
          "internalType": "uint256",
          "name": "_nonce",
          "type": "uint256"
        },
        {
          "internalType": "address",
          "name": "_sender",
          "type": "address"
        },
        {
          "internalType": "address",
          "name": "_target",
          "type": "address"
        },
        {
          "internalType": "uint256",
          "name": "_value",
          "type": "uint256"
        },
        {
          "internalType": "uint256",
          "name": "_minGasLimit",
          "type": "uint256"
        },
        {
          "internalType": "bytes",
          "name": "_message",
          "type": "bytes"
        }
      ],
      "name": "relayMessage",
      "outputs": [],
      "stateMutability": "payable",
      "type": "function"
    },
    {
      "inputs": [
        {
          "internalType": "address",
          "name": "_target",
          "type": "address"
        },
        {
          "internalType": "bytes",
          "name": "_message",
          "type": "bytes"
        },
        {
          "internalType": "uint32",
          "name": "_minGasLimit",
          "type": "uint32"
        }
      ],
      "name": "sendMessage",
      "outputs": [],
      "stateMutability": "payable",
      "type": "function"
    },
    {
      "inputs": [
        {
          "internalType": "bytes32",
          "name": "",
          "type": "bytes32"
        }
      ],
      "name": "successfulMessages",
      "outputs": [
        {
          "internalType": "bool",
          "name": "",
          "type": "bool"
        }
      ],
      "stateMutability": "view",
      "type": "function"
    },
    {
      "inputs": [],
      "name": "version",
      "outputs": [
        {
          "internalType": "string",
          "name": "",
          "type": "string"
        }
      ],
      "stateMutability": "view",
      "type": "function"
    },
    {
      "inputs": [],
      "name": "xDomainMessageSender",
      "outputs": [
        {
          "internalType": "address",
          "name": "",
          "type": "address"
        }
      ],
      "stateMutability": "view",
      "type": "function"
    }
  ],
  "transactionHash": "0x9c06f59878a898dbc0ebebd06b35a9a52d17192ec974d2fc80ee56820d7cc2eb",
  "args": [
    "0x31ab8eD993A3BE9Aa2757C7D368Dc87101A868a4"
  ],
  "numDeployments": 1,
  "solcInputHash": "9dcf597872da179b668fa4ec9165630c",
  "bytecode": "0x6101206040523480156200001257600080fd5b5060405162001efe38038062001efe83398101604081905262000035916200023f565b734200000000000000000000000000000000000004608052600060a0819052600160c05260e0526001600160a01b03811661010052620000746200007b565b5062000271565b600054610100900460ff16158080156200009c5750600054600160ff909116105b80620000cc5750620000b930620001ad60201b62000ffe1760201c565b158015620000cc575060005460ff166001145b620001355760405162461bcd60e51b815260206004820152602e60248201527f496e697469616c697a61626c653a20636f6e747261637420697320616c72656160448201526d191e481a5b9a5d1a585b1a5e995960921b60648201526084015b60405180910390fd5b6000805460ff19166001179055801562000159576000805461ff0019166101001790555b62000163620001bc565b8015620001aa576000805461ff0019169055604051600181527f7f26b83ff96e1f2b6a682f133852f6798a09c465da95921460cefb38474024989060200160405180910390a15b50565b6001600160a01b03163b151590565b600054610100900460ff16620002295760405162461bcd60e51b815260206004820152602b60248201527f496e697469616c697a61626c653a20636f6e7472616374206973206e6f74206960448201526a6e697469616c697a696e6760a81b60648201526084016200012c565b606680546001600160a01b03191661dead179055565b6000602082840312156200025257600080fd5b81516001600160a01b03811681146200026a57600080fd5b9392505050565b60805160a05160c05160e05161010051611c1e620002e06000396000818161016e0152818161105701528181611306015281816113670152611433015260006105db015260006105b2015260006105890152600081816102a10152818161039901526113300152611c1e6000f3fe60806040526004361061010e5760003560e01c80636e296e45116100a5578063a4e7f8bd11610074578063b28ade2511610059578063b28ade2514610323578063d764ad0b14610343578063ecc704281461035657600080fd5b8063a4e7f8bd146102c3578063b1b1b209146102f357600080fd5b80636e296e451461024e5780637dea7cc3146102635780638129fc1c1461027a5780639fce812c1461028f57600080fd5b80633dbb202b116100e15780633dbb202b146101cb5780633f827a5a146101e057806354fd4d50146102085780635c975abb1461022a57600080fd5b8063028f85f7146101135780630c568498146101465780630ff754ea1461015c5780632828d7e8146101b5575b600080fd5b34801561011f57600080fd5b50610128601081565b60405167ffffffffffffffff90911681526020015b60405180910390f35b34801561015257600080fd5b506101286103e881565b34801561016857600080fd5b506101907f000000000000000000000000000000000000000000000000000000000000000081565b60405173ffffffffffffffffffffffffffffffffffffffff909116815260200161013d565b3480156101c157600080fd5b506101286103f881565b6101de6101d9366004611604565b610394565b005b3480156101ec57600080fd5b506101f5600081565b60405161ffff909116815260200161013d565b34801561021457600080fd5b5061021d610582565b60405161013d91906116e5565b34801561023657600080fd5b5060335460ff165b604051901515815260200161013d565b34801561025a57600080fd5b50610190610625565b34801561026f57600080fd5b5061012862030d4081565b34801561028657600080fd5b506101de610711565b34801561029b57600080fd5b506101907f000000000000000000000000000000000000000000000000000000000000000081565b3480156102cf57600080fd5b5061023e6102de3660046116ff565b60686020526000908152604090205460ff1681565b3480156102ff57600080fd5b5061023e61030e3660046116ff565b60656020526000908152604090205460ff1681565b34801561032f57600080fd5b5061012861033e366004611718565b6108a3565b6101de61035136600461176c565b6108ef565b34801561036257600080fd5b506067547dffffffffffffffffffffffffffffffffffffffffffffffffffffffffffff1660405190815260200161013d565b6104ac7f00000000000000000000000000000000000000000000000000000000000000006103c38585856108a3565b347fd764ad0b0000000000000000000000000000000000000000000000000000000061040e6067547dffffffffffffffffffffffffffffffffffffffffffffffffffffffffffff1690565b338a34898c8c60405160240161042a979695949392919061183b565b604080517fffffffffffffffffffffffffffffffffffffffffffffffffffffffffffffffe08184030181529190526020810180517bffffffffffffffffffffffffffffffffffffffffffffffffffffffff167fffffffff000000000000000000000000000000000000000000000000000000009093169290921790915261101a565b3373ffffffffffffffffffffffffffffffffffffffff85167fdd28cef75ff18fb538e43317144469f339702f973eace2bc808f2acc37db310e3486866105116067547dffffffffffffffffffffffffffffffffffffffffffffffffffffffffffff1690565b8760405161052395949392919061189a565b60405180910390a35050606780547dffffffffffffffffffffffffffffffffffffffffffffffffffffffffffff808216600101167fffff0000000000000000000000000000000000000000000000000000000000009091161790555050565b60606105ad7f00000000000000000000000000000000000000000000000000000000000000006110cf565b6105d67f00000000000000000000000000000000000000000000000000000000000000006110cf565b6105ff7f00000000000000000000000000000000000000000000000000000000000000006110cf565b604051602001610611939291906118d2565b604051602081830303815290604052905090565b60665460009073ffffffffffffffffffffffffffffffffffffffff167fffffffffffffffffffffffffffffffffffffffffffffffffffffffffffff2153016106f4576040517f08c379a000000000000000000000000000000000000000000000000000000000815260206004820152603560248201527f43726f7373446f6d61696e4d657373656e6765723a2078446f6d61696e4d657360448201527f7361676553656e646572206973206e6f7420736574000000000000000000000060648201526084015b60405180910390fd5b5060665473ffffffffffffffffffffffffffffffffffffffff1690565b600054610100900460ff16158080156107315750600054600160ff909116105b8061074b5750303b15801561074b575060005460ff166001145b6107d7576040517f08c379a000000000000000000000000000000000000000000000000000000000815260206004820152602e60248201527f496e697469616c697a61626c653a20636f6e747261637420697320616c72656160448201527f647920696e697469616c697a656400000000000000000000000000000000000060648201526084016106eb565b600080547fffffffffffffffffffffffffffffffffffffffffffffffffffffffffffffff00166001179055801561083557600080547fffffffffffffffffffffffffffffffffffffffffffffffffffffffffffff00ff166101001790555b61083d611204565b80156108a057600080547fffffffffffffffffffffffffffffffffffffffffffffffffffffffffffff00ff169055604051600181527f7f26b83ff96e1f2b6a682f133852f6798a09c465da95921460cefb38474024989060200160405180910390a15b50565b600062030d406108b4601085611977565b6103e86108c96103f863ffffffff8716611977565b6108d391906119d6565b6108dd91906119fd565b6108e791906119fd565b949350505050565b60f087901c600181106109aa576040517f08c379a000000000000000000000000000000000000000000000000000000000815260206004820152604760248201527f43726f7373446f6d61696e4d657373656e6765723a206f6e6c7920766572736960448201527f6f6e2030206d6573736167657320697320737570706f7274656420617420746860648201527f69732074696d6500000000000000000000000000000000000000000000000000608482015260a4016106eb565b60006109f0898989898989898080601f0160208091040260200160405190810160405280939291908181526020018383808284376000920191909152506112c992505050565b60008181526069602052604090205490915060ff1615610a6c576040517f08c379a000000000000000000000000000000000000000000000000000000000815260206004820152601f60248201527f5265656e7472616e637947756172643a207265656e7472616e742063616c6c0060448201526064016106eb565b600081815260696020526040902080547fffffffffffffffffffffffffffffffffffffffffffffffffffffffffffffff00166001179055610aab6112ec565b15610ae357853414610abf57610abf611a29565b60008181526068602052604090205460ff1615610ade57610ade611a29565b610c35565b3415610b97576040517f08c379a000000000000000000000000000000000000000000000000000000000815260206004820152605060248201527f43726f7373446f6d61696e4d657373656e6765723a2076616c7565206d75737460448201527f206265207a65726f20756e6c657373206d6573736167652069732066726f6d2060648201527f612073797374656d206164647265737300000000000000000000000000000000608482015260a4016106eb565b60008181526068602052604090205460ff16610c35576040517f08c379a000000000000000000000000000000000000000000000000000000000815260206004820152603060248201527f43726f7373446f6d61696e4d657373656e6765723a206d65737361676520636160448201527f6e6e6f74206265207265706c617965640000000000000000000000000000000060648201526084016106eb565b610c3e87611410565b15610cf1576040517f08c379a000000000000000000000000000000000000000000000000000000000815260206004820152604360248201527f43726f7373446f6d61696e4d657373656e6765723a2063616e6e6f742073656e60448201527f64206d65737361676520746f20626c6f636b65642073797374656d206164647260648201527f6573730000000000000000000000000000000000000000000000000000000000608482015260a4016106eb565b60008181526065602052604090205460ff1615610d90576040517f08c379a000000000000000000000000000000000000000000000000000000000815260206004820152603660248201527f43726f7373446f6d61696e4d657373656e6765723a206d65737361676520686160448201527f7320616c7265616479206265656e2072656c617965640000000000000000000060648201526084016106eb565b606680547fffffffffffffffffffffffff00000000000000000000000000000000000000001673ffffffffffffffffffffffffffffffffffffffff8a16179055604080516020601f8601819004810282018101909252848152600091610e16918a9189918b918a908a908190840183828082843760009201919091525061148792505050565b606680547fffffffffffffffffffffffff00000000000000000000000000000000000000001661dead17905590508015610ead5760008281526065602052604080822080547fffffffffffffffffffffffffffffffffffffffffffffffffffffffffffffff001660011790555183917f4641df4a962071e12719d8c8c8e5ac7fc4d97b927346a3d7a335b1f7517e133c91a2610fba565b60008281526068602052604080822080547fffffffffffffffffffffffffffffffffffffffffffffffffffffffffffffff001660011790555183917f99d0e048484baa1b1540b1367cb128acd7ab2946d1ed91ec10e3c85e4bf51b8f91a27fffffffffffffffffffffffffffffffffffffffffffffffffffffffffffffffff3201610fba576040517f08c379a000000000000000000000000000000000000000000000000000000000815260206004820152602d60248201527f43726f7373446f6d61696e4d657373656e6765723a206661696c656420746f2060448201527f72656c6179206d6573736167650000000000000000000000000000000000000060648201526084016106eb565b50600090815260696020526040902080547fffffffffffffffffffffffffffffffffffffffffffffffffffffffffffffff001690555050505050505050565b905090565b73ffffffffffffffffffffffffffffffffffffffff163b151590565b6040517fe9e05c4200000000000000000000000000000000000000000000000000000000815273ffffffffffffffffffffffffffffffffffffffff7f0000000000000000000000000000000000000000000000000000000000000000169063e9e05c42908490611097908890839089906000908990600401611a58565b6000604051808303818588803b1580156110b057600080fd5b505af11580156110c4573d6000803e3d6000fd5b505050505050505050565b60608160000361111257505060408051808201909152600181527f3000000000000000000000000000000000000000000000000000000000000000602082015290565b8160005b811561113c578061112681611ab0565b91506111359050600a83611ae8565b9150611116565b60008167ffffffffffffffff81111561115757611157611afc565b6040519080825280601f01601f191660200182016040528015611181576020820181803683370190505b5090505b84156108e757611196600183611b2b565b91506111a3600a86611b42565b6111ae906030611b56565b60f81b8183815181106111c3576111c3611b6e565b60200101907effffffffffffffffffffffffffffffffffffffffffffffffffffffffffffff1916908160001a9053506111fd600a86611ae8565b9450611185565b600054610100900460ff1661129b576040517f08c379a000000000000000000000000000000000000000000000000000000000815260206004820152602b60248201527f496e697469616c697a61626c653a20636f6e7472616374206973206e6f74206960448201527f6e697469616c697a696e6700000000000000000000000000000000000000000060648201526084016106eb565b606680547fffffffffffffffffffffffff00000000000000000000000000000000000000001661dead179055565b60006112d98787878787876114e1565b8051906020012090509695505050505050565b60003373ffffffffffffffffffffffffffffffffffffffff7f000000000000000000000000000000000000000000000000000000000000000016148015610ff957507f000000000000000000000000000000000000000000000000000000000000000073ffffffffffffffffffffffffffffffffffffffff167f000000000000000000000000000000000000000000000000000000000000000073ffffffffffffffffffffffffffffffffffffffff16639bf62d826040518163ffffffff1660e01b8152600401602060405180830381865afa1580156113d0573d6000803e3d6000fd5b505050506040513d601f19601f820116820180604052508101906113f49190611b9d565b73ffffffffffffffffffffffffffffffffffffffff1614905090565b600073ffffffffffffffffffffffffffffffffffffffff821630148061148157507f000000000000000000000000000000000000000000000000000000000000000073ffffffffffffffffffffffffffffffffffffffff168273ffffffffffffffffffffffffffffffffffffffff16145b92915050565b600080603f60c88601604002045a10156114ca576308c379a06000526020805278185361666543616c6c3a204e6f7420656e6f756768206761736058526064601cfd5b600080845160208601878a5af19695505050505050565b60608686868686866040516024016114fe96959493929190611bba565b604080517fffffffffffffffffffffffffffffffffffffffffffffffffffffffffffffffe08184030181529190526020810180517bffffffffffffffffffffffffffffffffffffffffffffffffffffffff167fd764ad0b0000000000000000000000000000000000000000000000000000000017905290509695505050505050565b73ffffffffffffffffffffffffffffffffffffffff811681146108a057600080fd5b60008083601f8401126115b457600080fd5b50813567ffffffffffffffff8111156115cc57600080fd5b6020830191508360208285010111156115e457600080fd5b9250929050565b803563ffffffff811681146115ff57600080fd5b919050565b6000806000806060858703121561161a57600080fd5b843561162581611580565b9350602085013567ffffffffffffffff81111561164157600080fd5b61164d878288016115a2565b90945092506116609050604086016115eb565b905092959194509250565b60005b8381101561168657818101518382015260200161166e565b83811115611695576000848401525b50505050565b600081518084526116b381602086016020860161166b565b601f017fffffffffffffffffffffffffffffffffffffffffffffffffffffffffffffffe0169290920160200192915050565b6020815260006116f8602083018461169b565b9392505050565b60006020828403121561171157600080fd5b5035919050565b60008060006040848603121561172d57600080fd5b833567ffffffffffffffff81111561174457600080fd5b611750868287016115a2565b90945092506117639050602085016115eb565b90509250925092565b600080600080600080600060c0888a03121561178757600080fd5b87359650602088013561179981611580565b955060408801356117a981611580565b9450606088013593506080880135925060a088013567ffffffffffffffff8111156117d357600080fd5b6117df8a828b016115a2565b989b979a50959850939692959293505050565b8183528181602085013750600060208284010152600060207fffffffffffffffffffffffffffffffffffffffffffffffffffffffffffffffe0601f840116840101905092915050565b878152600073ffffffffffffffffffffffffffffffffffffffff808916602084015280881660408401525085606083015263ffffffff8516608083015260c060a083015261188d60c0830184866117f2565b9998505050505050505050565b8581526080602082015260006118b46080830186886117f2565b905083604083015263ffffffff831660608301529695505050505050565b600084516118e481846020890161166b565b80830190507f2e000000000000000000000000000000000000000000000000000000000000008082528551611920816001850160208a0161166b565b6001920191820152835161193b81600284016020880161166b565b0160020195945050505050565b7f4e487b7100000000000000000000000000000000000000000000000000000000600052601160045260246000fd5b600067ffffffffffffffff8083168185168183048111821515161561199e5761199e611948565b02949350505050565b7f4e487b7100000000000000000000000000000000000000000000000000000000600052601260045260246000fd5b600067ffffffffffffffff808416806119f1576119f16119a7565b92169190910492915050565b600067ffffffffffffffff808316818516808303821115611a2057611a20611948565b01949350505050565b7f4e487b7100000000000000000000000000000000000000000000000000000000600052600160045260246000fd5b73ffffffffffffffffffffffffffffffffffffffff8616815284602082015267ffffffffffffffff84166040820152821515606082015260a060808201526000611aa560a083018461169b565b979650505050505050565b60007fffffffffffffffffffffffffffffffffffffffffffffffffffffffffffffffff8203611ae157611ae1611948565b5060010190565b600082611af757611af76119a7565b500490565b7f4e487b7100000000000000000000000000000000000000000000000000000000600052604160045260246000fd5b600082821015611b3d57611b3d611948565b500390565b600082611b5157611b516119a7565b500690565b60008219821115611b6957611b69611948565b500190565b7f4e487b7100000000000000000000000000000000000000000000000000000000600052603260045260246000fd5b600060208284031215611baf57600080fd5b81516116f881611580565b868152600073ffffffffffffffffffffffffffffffffffffffff808816602084015280871660408401525084606083015283608083015260c060a0830152611c0560c083018461169b565b9897505050505050505056fea164736f6c634300080f000a",
  "devdoc": {},
  "userdoc": {},
  "storageLayout": {
    "storage": [
      {
        "astId": 7918,
        "contract": "contracts/L1/L1CrossDomainMessenger.sol:L1CrossDomainMessenger",
        "label": "_initialized",
        "offset": 0,
        "slot": "0",
        "type": "t_uint8"
      },
      {
        "astId": 7921,
        "contract": "contracts/L1/L1CrossDomainMessenger.sol:L1CrossDomainMessenger",
        "label": "_initializing",
        "offset": 1,
        "slot": "0",
        "type": "t_bool"
      },
      {
        "astId": 8532,
        "contract": "contracts/L1/L1CrossDomainMessenger.sol:L1CrossDomainMessenger",
        "label": "__gap",
        "offset": 0,
        "slot": "1",
        "type": "t_array(t_uint256)50_storage"
      },
      {
        "astId": 8083,
        "contract": "contracts/L1/L1CrossDomainMessenger.sol:L1CrossDomainMessenger",
        "label": "_paused",
        "offset": 0,
        "slot": "51",
        "type": "t_bool"
      },
      {
        "astId": 8188,
        "contract": "contracts/L1/L1CrossDomainMessenger.sol:L1CrossDomainMessenger",
        "label": "__gap",
        "offset": 0,
        "slot": "52",
        "type": "t_array(t_uint256)49_storage"
      },
      {
        "astId": 6396,
        "contract": "contracts/L1/L1CrossDomainMessenger.sol:L1CrossDomainMessenger",
        "label": "successfulMessages",
        "offset": 0,
        "slot": "101",
        "type": "t_mapping(t_bytes32,t_bool)"
      },
      {
        "astId": 6399,
        "contract": "contracts/L1/L1CrossDomainMessenger.sol:L1CrossDomainMessenger",
        "label": "xDomainMsgSender",
        "offset": 0,
        "slot": "102",
        "type": "t_address"
      },
      {
        "astId": 6402,
        "contract": "contracts/L1/L1CrossDomainMessenger.sol:L1CrossDomainMessenger",
        "label": "msgNonce",
        "offset": 0,
        "slot": "103",
        "type": "t_uint240"
      },
      {
        "astId": 6407,
        "contract": "contracts/L1/L1CrossDomainMessenger.sol:L1CrossDomainMessenger",
        "label": "failedMessages",
        "offset": 0,
        "slot": "104",
        "type": "t_mapping(t_bytes32,t_bool)"
      },
      {
        "astId": 6412,
        "contract": "contracts/L1/L1CrossDomainMessenger.sol:L1CrossDomainMessenger",
        "label": "reentrancyLocks",
        "offset": 0,
        "slot": "105",
        "type": "t_mapping(t_bytes32,t_bool)"
      },
      {
        "astId": 6417,
        "contract": "contracts/L1/L1CrossDomainMessenger.sol:L1CrossDomainMessenger",
        "label": "__gap",
        "offset": 0,
        "slot": "106",
        "type": "t_array(t_uint256)44_storage"
      }
    ],
    "types": {
      "t_address": {
        "encoding": "inplace",
        "label": "address",
        "numberOfBytes": "20"
      },
      "t_array(t_uint256)44_storage": {
        "encoding": "inplace",
        "label": "uint256[44]",
        "numberOfBytes": "1408",
        "base": "t_uint256"
      },
      "t_array(t_uint256)49_storage": {
        "encoding": "inplace",
        "label": "uint256[49]",
        "numberOfBytes": "1568",
        "base": "t_uint256"
      },
      "t_array(t_uint256)50_storage": {
        "encoding": "inplace",
        "label": "uint256[50]",
        "numberOfBytes": "1600",
        "base": "t_uint256"
      },
      "t_bool": {
        "encoding": "inplace",
        "label": "bool",
        "numberOfBytes": "1"
      },
      "t_bytes32": {
        "encoding": "inplace",
        "label": "bytes32",
        "numberOfBytes": "32"
      },
      "t_mapping(t_bytes32,t_bool)": {
        "encoding": "mapping",
        "key": "t_bytes32",
        "label": "mapping(bytes32 => bool)",
        "numberOfBytes": "32",
        "value": "t_bool"
      },
      "t_uint240": {
        "encoding": "inplace",
        "label": "uint240",
        "numberOfBytes": "30"
      },
      "t_uint256": {
        "encoding": "inplace",
        "label": "uint256",
        "numberOfBytes": "32"
      },
      "t_uint8": {
        "encoding": "inplace",
        "label": "uint8",
        "numberOfBytes": "1"
      }
    }
  }
}