{
  "address": "0x49625fadA23947CB6813e217BC1Ec1761c777Ce4",
  "abi": [
    {
      "inputs": [
        {
          "internalType": "contract ValidatorPool",
          "name": "_validatorPool",
          "type": "address"
        },
        {
          "internalType": "address",
          "name": "_colosseum",
          "type": "address"
        },
        {
          "internalType": "uint256",
          "name": "_submissionInterval",
          "type": "uint256"
        },
        {
          "internalType": "uint256",
          "name": "_l2BlockTime",
          "type": "uint256"
        },
        {
          "internalType": "uint256",
          "name": "_startingBlockNumber",
          "type": "uint256"
        },
        {
          "internalType": "uint256",
          "name": "_startingTimestamp",
          "type": "uint256"
        },
        {
          "internalType": "uint256",
          "name": "_finalizationPeriodSeconds",
          "type": "uint256"
        }
      ],
      "stateMutability": "nonpayable",
      "type": "constructor"
    },
    {
      "anonymous": false,
      "inputs": [
        {
          "indexed": false,
          "internalType": "uint8",
          "name": "version",
          "type": "uint8"
        }
      ],
      "name": "Initialized",
      "type": "event"
    },
    {
      "anonymous": false,
      "inputs": [
        {
          "indexed": true,
          "internalType": "uint256",
          "name": "outputIndex",
          "type": "uint256"
        },
        {
          "indexed": false,
          "internalType": "bytes32",
          "name": "newOutputRoot",
          "type": "bytes32"
        }
      ],
      "name": "OutputReplaced",
      "type": "event"
    },
    {
      "anonymous": false,
      "inputs": [
        {
          "indexed": true,
          "internalType": "bytes32",
          "name": "outputRoot",
          "type": "bytes32"
        },
        {
          "indexed": true,
          "internalType": "uint256",
          "name": "l2OutputIndex",
          "type": "uint256"
        },
        {
          "indexed": true,
          "internalType": "uint256",
          "name": "l2BlockNumber",
          "type": "uint256"
        },
        {
          "indexed": false,
          "internalType": "uint256",
          "name": "l1Timestamp",
          "type": "uint256"
        }
      ],
      "name": "OutputSubmitted",
      "type": "event"
    },
    {
      "inputs": [],
      "name": "COLOSSEUM",
      "outputs": [
        {
          "internalType": "address",
          "name": "",
          "type": "address"
        }
      ],
      "stateMutability": "view",
      "type": "function"
    },
    {
      "inputs": [],
      "name": "FINALIZATION_PERIOD_SECONDS",
      "outputs": [
        {
          "internalType": "uint256",
          "name": "",
          "type": "uint256"
        }
      ],
      "stateMutability": "view",
      "type": "function"
    },
    {
      "inputs": [],
      "name": "L2_BLOCK_TIME",
      "outputs": [
        {
          "internalType": "uint256",
          "name": "",
          "type": "uint256"
        }
      ],
      "stateMutability": "view",
      "type": "function"
    },
    {
      "inputs": [],
      "name": "SUBMISSION_INTERVAL",
      "outputs": [
        {
          "internalType": "uint256",
          "name": "",
          "type": "uint256"
        }
      ],
      "stateMutability": "view",
      "type": "function"
    },
    {
      "inputs": [],
      "name": "VALIDATOR_POOL",
      "outputs": [
        {
          "internalType": "contract ValidatorPool",
          "name": "",
          "type": "address"
        }
      ],
      "stateMutability": "view",
      "type": "function"
    },
    {
      "inputs": [
        {
          "internalType": "uint256",
          "name": "_l2BlockNumber",
          "type": "uint256"
        }
      ],
      "name": "computeL2Timestamp",
      "outputs": [
        {
          "internalType": "uint256",
          "name": "",
          "type": "uint256"
        }
      ],
      "stateMutability": "view",
      "type": "function"
    },
    {
      "inputs": [
        {
          "internalType": "uint256",
          "name": "_outputIndex",
          "type": "uint256"
        }
      ],
      "name": "finalizedAt",
      "outputs": [
        {
          "internalType": "uint256",
          "name": "",
          "type": "uint256"
        }
      ],
      "stateMutability": "view",
      "type": "function"
    },
    {
      "inputs": [
        {
          "internalType": "uint256",
          "name": "_l2OutputIndex",
          "type": "uint256"
        }
      ],
      "name": "getL2Output",
      "outputs": [
        {
          "components": [
            {
              "internalType": "address",
              "name": "submitter",
              "type": "address"
            },
            {
              "internalType": "bytes32",
              "name": "outputRoot",
              "type": "bytes32"
            },
            {
              "internalType": "uint128",
              "name": "timestamp",
              "type": "uint128"
            },
            {
              "internalType": "uint128",
              "name": "l2BlockNumber",
              "type": "uint128"
            }
          ],
          "internalType": "struct Types.CheckpointOutput",
          "name": "",
          "type": "tuple"
        }
      ],
      "stateMutability": "view",
      "type": "function"
    },
    {
      "inputs": [
        {
          "internalType": "uint256",
          "name": "_l2BlockNumber",
          "type": "uint256"
        }
      ],
      "name": "getL2OutputAfter",
      "outputs": [
        {
          "components": [
            {
              "internalType": "address",
              "name": "submitter",
              "type": "address"
            },
            {
              "internalType": "bytes32",
              "name": "outputRoot",
              "type": "bytes32"
            },
            {
              "internalType": "uint128",
              "name": "timestamp",
              "type": "uint128"
            },
            {
              "internalType": "uint128",
              "name": "l2BlockNumber",
              "type": "uint128"
            }
          ],
          "internalType": "struct Types.CheckpointOutput",
          "name": "",
          "type": "tuple"
        }
      ],
      "stateMutability": "view",
      "type": "function"
    },
    {
      "inputs": [
        {
          "internalType": "uint256",
          "name": "_l2BlockNumber",
          "type": "uint256"
        }
      ],
      "name": "getL2OutputIndexAfter",
      "outputs": [
        {
          "internalType": "uint256",
          "name": "",
          "type": "uint256"
        }
      ],
      "stateMutability": "view",
      "type": "function"
    },
    {
      "inputs": [
        {
          "internalType": "uint256",
          "name": "_outputIndex",
          "type": "uint256"
        }
      ],
      "name": "getSubmitter",
      "outputs": [
        {
          "internalType": "address",
          "name": "",
          "type": "address"
        }
      ],
      "stateMutability": "view",
      "type": "function"
    },
    {
      "inputs": [
        {
          "internalType": "uint256",
          "name": "_startingBlockNumber",
          "type": "uint256"
        },
        {
          "internalType": "uint256",
          "name": "_startingTimestamp",
          "type": "uint256"
        }
      ],
      "name": "initialize",
      "outputs": [],
      "stateMutability": "nonpayable",
      "type": "function"
    },
    {
      "inputs": [
        {
          "internalType": "uint256",
          "name": "_outputIndex",
          "type": "uint256"
        }
      ],
      "name": "isFinalized",
      "outputs": [
        {
          "internalType": "bool",
          "name": "",
          "type": "bool"
        }
      ],
      "stateMutability": "view",
      "type": "function"
    },
    {
      "inputs": [],
      "name": "latestBlockNumber",
      "outputs": [
        {
          "internalType": "uint256",
          "name": "",
          "type": "uint256"
        }
      ],
      "stateMutability": "view",
      "type": "function"
    },
    {
      "inputs": [],
      "name": "latestOutputIndex",
      "outputs": [
        {
          "internalType": "uint256",
          "name": "",
          "type": "uint256"
        }
      ],
      "stateMutability": "view",
      "type": "function"
    },
    {
      "inputs": [],
      "name": "nextBlockNumber",
      "outputs": [
        {
          "internalType": "uint256",
          "name": "",
          "type": "uint256"
        }
      ],
      "stateMutability": "view",
      "type": "function"
    },
    {
      "inputs": [],
      "name": "nextOutputIndex",
      "outputs": [
        {
          "internalType": "uint256",
          "name": "",
          "type": "uint256"
        }
      ],
      "stateMutability": "view",
      "type": "function"
    },
    {
      "inputs": [
        {
          "internalType": "uint256",
          "name": "_l2OutputIndex",
          "type": "uint256"
        },
        {
          "internalType": "bytes32",
          "name": "_newOutputRoot",
          "type": "bytes32"
        },
        {
          "internalType": "address",
          "name": "_submitter",
          "type": "address"
        }
      ],
      "name": "replaceL2Output",
      "outputs": [],
      "stateMutability": "nonpayable",
      "type": "function"
    },
    {
      "inputs": [],
      "name": "startingBlockNumber",
      "outputs": [
        {
          "internalType": "uint256",
          "name": "",
          "type": "uint256"
        }
      ],
      "stateMutability": "view",
      "type": "function"
    },
    {
      "inputs": [],
      "name": "startingTimestamp",
      "outputs": [
        {
          "internalType": "uint256",
          "name": "",
          "type": "uint256"
        }
      ],
      "stateMutability": "view",
      "type": "function"
    },
    {
      "inputs": [
        {
          "internalType": "bytes32",
          "name": "_outputRoot",
          "type": "bytes32"
        },
        {
          "internalType": "uint256",
          "name": "_l2BlockNumber",
          "type": "uint256"
        },
        {
          "internalType": "bytes32",
          "name": "_l1BlockHash",
          "type": "bytes32"
        },
        {
          "internalType": "uint256",
          "name": "_l1BlockNumber",
          "type": "uint256"
        }
      ],
      "name": "submitL2Output",
      "outputs": [],
      "stateMutability": "payable",
      "type": "function"
    },
    {
      "inputs": [],
      "name": "version",
      "outputs": [
        {
          "internalType": "string",
          "name": "",
          "type": "string"
        }
      ],
      "stateMutability": "view",
      "type": "function"
    }
  ],
  "transactionHash": "0x48b7021b4ff350109f95070e4fe709bbd00ed3cc0faab82299dd23de7c63c53f",
  "args": [
    "0xbc171C51D9e3E0b24AA4606824e45F93DdE6E352",
    "0xA9bFbC621A65EfD1e19A28fD87f091bF72a67074",
    60,
    2,
    0,
    0,
    21600
  ],
  "numDeployments": 3,
  "solcInputHash": "55165455e9ad3d7f59ef2ff7aac048ed",
  "bytecode": "0x6101806040523480156200001257600080fd5b5060405162001f8a38038062001f8a833981016040819052620000359162000352565b6001608052600060a081905260c05283620000bd5760405162461bcd60e51b815260206004820152603460248201527f4c324f75747075744f7261636c653a204c3220626c6f636b2074696d65206d7560448201527f73742062652067726561746572207468616e203000000000000000000000000060648201526084015b60405180910390fd5b60008511620001355760405162461bcd60e51b815260206004820152603a60248201527f4c324f75747075744f7261636c653a207375626d697373696f6e20696e74657260448201527f76616c206d7573742062652067726561746572207468616e20300000000000006064820152608401620000b4565b6001600160a01b0380881660e05286166101005261012085905261014084905261016081905262000167838362000174565b50505050505050620003be565b600054610100900460ff1615808015620001955750600054600160ff909116105b80620001c55750620001b2306200032a60201b620016441760201c565b158015620001c5575060005460ff166001145b6200022a5760405162461bcd60e51b815260206004820152602e60248201527f496e697469616c697a61626c653a20636f6e747261637420697320616c72656160448201526d191e481a5b9a5d1a585b1a5e995960921b6064820152608401620000b4565b6000805460ff1916600117905580156200024e576000805461ff0019166101001790555b42821115620002d45760405162461bcd60e51b8152602060048201526044602482018190527f4c324f75747075744f7261636c653a207374617274696e67204c322074696d65908201527f7374616d70206d757374206265206c657373207468616e2063757272656e742060648201526374696d6560e01b608482015260a401620000b4565b60028290556001839055801562000325576000805461ff0019169055604051600181527f7f26b83ff96e1f2b6a682f133852f6798a09c465da95921460cefb38474024989060200160405180910390a15b505050565b6001600160a01b03163b151590565b6001600160a01b03811681146200034f57600080fd5b50565b600080600080600080600060e0888a0312156200036e57600080fd5b87516200037b8162000339565b60208901519097506200038e8162000339565b604089015160608a015160808b015160a08c015160c0909c01519a9d939c50919a90999198509650945092505050565b60805160a05160c05160e05161010051610120516101405161016051611b2762000463600039600081816104d90152818161050001528181610bd901528181610f3901526114ef01526000818161018b015261102601526000818161021701526110770152600081816102f801526112e1015260008181610410015281816106830152610bae015260006106350152600061060c015260006105e30152611b276000f3fe6080604052600436106101745760003560e01c80639e45e8f4116100cb578063cf8e5cf01161007f578063e4a3011611610059578063e4a3011614610487578063e6646723146104a7578063f4daa291146104c757600080fd5b8063cf8e5cf014610432578063d1de856c14610452578063dcec33481461047257600080fd5b8063a48ea6de116100b0578063a48ea6de146103be578063b0ea09a8146103de578063b98debbf146103fe57600080fd5b80639e45e8f4146102e6578063a25ae5571461033f57600080fd5b80635a045f781161012d57806370872aa51161010757806370872aa51461029a5780637f006420146102b057806388786272146102d057600080fd5b80635a045f781461025b57806369f16eec146102705780636abcf5631461028557600080fd5b80634599c7881161015e5780634599c788146101f0578063529933df1461020557806354fd4d501461023957600080fd5b80622134cc1461017957806333727c4d146101c0575b600080fd5b34801561018557600080fd5b506101ad7f000000000000000000000000000000000000000000000000000000000000000081565b6040519081526020015b60405180910390f35b3480156101cc57600080fd5b506101e06101db366004611800565b6104fb565b60405190151581526020016101b7565b3480156101fc57600080fd5b506101ad610569565b34801561021157600080fd5b506101ad7f000000000000000000000000000000000000000000000000000000000000000081565b34801561024557600080fd5b5061024e6105dc565b6040516101b79190611849565b61026e61026936600461189a565b61067f565b005b34801561027c57600080fd5b506101ad610c86565b34801561029157600080fd5b506003546101ad565b3480156102a657600080fd5b506101ad60015481565b3480156102bc57600080fd5b506101ad6102cb366004611800565b610c98565b3480156102dc57600080fd5b506101ad60025481565b3480156102f257600080fd5b5061031a7f000000000000000000000000000000000000000000000000000000000000000081565b60405173ffffffffffffffffffffffffffffffffffffffff90911681526020016101b7565b34801561034b57600080fd5b5061035f61035a366004611800565b610e78565b60408051825173ffffffffffffffffffffffffffffffffffffffff16815260208084015190820152828201516fffffffffffffffffffffffffffffffff90811692820192909252606092830151909116918101919091526080016101b7565b3480156103ca57600080fd5b506101ad6103d9366004611800565b610f35565b3480156103ea57600080fd5b5061031a6103f9366004611800565b610fa1565b34801561040a57600080fd5b5061031a7f000000000000000000000000000000000000000000000000000000000000000081565b34801561043e57600080fd5b5061035f61044d366004611800565b610fe3565b34801561045e57600080fd5b506101ad61046d366004611800565b611022565b34801561047e57600080fd5b506101ad61106a565b34801561049357600080fd5b5061026e6104a23660046118cc565b6110b0565b3480156104b357600080fd5b5061026e6104c2366004611913565b6112c9565b3480156104d357600080fd5b506101ad7f000000000000000000000000000000000000000000000000000000000000000081565b6000427f0000000000000000000000000000000000000000000000000000000000000000600384815481106105325761053261194c565b600091825260209091206002600390920201015461056291906fffffffffffffffffffffffffffffffff166119aa565b1092915050565b600354600090156105d35760038054610584906001906119c2565b815481106105945761059461194c565b600091825260209091206003909102016002015470010000000000000000000000000000000090046fffffffffffffffffffffffffffffffff16919050565b6001545b905090565b60606106077f0000000000000000000000000000000000000000000000000000000000000000611660565b6106307f0000000000000000000000000000000000000000000000000000000000000000611660565b6106597f0000000000000000000000000000000000000000000000000000000000000000611660565b60405160200161066b939291906119d9565b604051602081830303815290604052905090565b60007f000000000000000000000000000000000000000000000000000000000000000073ffffffffffffffffffffffffffffffffffffffff16633a5490466040518163ffffffff1660e01b8152600401602060405180830381865afa1580156106ec573d6000803e3d6000fd5b505050506040513d601f19601f820116820180604052508101906107109190611a4f565b905073ffffffffffffffffffffffffffffffffffffffff808216146107e5573373ffffffffffffffffffffffffffffffffffffffff8216146107e55760405162461bcd60e51b815260206004820152604260248201527f4c324f75747075744f7261636c653a206f6e6c7920746865206e65787420736560448201527f6c65637465642076616c696461746f722063616e207375626d6974206f75747060648201527f7574000000000000000000000000000000000000000000000000000000000000608482015260a4015b60405180910390fd5b6107ed61106a565b84146108875760405162461bcd60e51b815260206004820152604860248201527f4c324f75747075744f7261636c653a20626c6f636b206e756d626572206d757360448201527f7420626520657175616c20746f206e65787420657870656374656420626c6f6360648201527f6b206e756d626572000000000000000000000000000000000000000000000000608482015260a4016107dc565b4261089185611022565b106109045760405162461bcd60e51b815260206004820152603560248201527f4c324f75747075744f7261636c653a2063616e6e6f74207375626d6974204c3260448201527f206f757470757420696e2074686520667574757265000000000000000000000060648201526084016107dc565b846109775760405162461bcd60e51b815260206004820152603c60248201527f4c324f75747075744f7261636c653a204c3220636865636b706f696e74206f7560448201527f747075742063616e6e6f7420626520746865207a65726f20686173680000000060648201526084016107dc565b82158015906109865750814015155b15610a275782824014610a275760405162461bcd60e51b815260206004820152604960248201527f4c324f75747075744f7261636c653a20626c6f636b206861736820646f65732060448201527f6e6f74206d61746368207468652068617368206174207468652065787065637460648201527f6564206865696768740000000000000000000000000000000000000000000000608482015260a4016107dc565b6000610a3260035490565b60408051608081018252338152602081018981526fffffffffffffffffffffffffffffffff428181168486019081528b831660608601908152600380546001810182556000829052965196027fc2575a0e9e593c00f959f8c92f12db2869c3395a3b0502d05e2516446f71f85b8101805473ffffffffffffffffffffffffffffffffffffffff989098167fffffffffffffffffffffffff00000000000000000000000000000000000000009098169790971790965593517fc2575a0e9e593c00f959f8c92f12db2869c3395a3b0502d05e2516446f71f85c86015551925182167001000000000000000000000000000000000292909116919091177fc2575a0e9e593c00f959f8c92f12db2869c3395a3b0502d05e2516446f71f85d9092019190915590519192508691839189917f457b4388026260019ae0b0b4f16c98235d74fe7359be469bdcba16e6d0d4968991610b8f9190815260200190565b60405180910390a473ffffffffffffffffffffffffffffffffffffffff7f00000000000000000000000000000000000000000000000000000000000000001663d38dc7ee82610bfe7f0000000000000000000000000000000000000000000000000000000000000000426119aa565b6040517fffffffff0000000000000000000000000000000000000000000000000000000060e085901b16815260048101929092526fffffffffffffffffffffffffffffffff166024820152604401600060405180830381600087803b158015610c6657600080fd5b505af1158015610c7a573d6000803e3d6000fd5b50505050505050505050565b6003546000906105d7906001906119c2565b6000610ca2610569565b821115610d3d5760405162461bcd60e51b815260206004820152604960248201527f4c324f75747075744f7261636c653a2063616e6e6f7420676574206f7574707560448201527f7420666f72206120626c6f636b207468617420686173206e6f74206265656e2060648201527f7375626d69747465640000000000000000000000000000000000000000000000608482015260a4016107dc565b600354610dd85760405162461bcd60e51b815260206004820152604760248201527f4c324f75747075744f7261636c653a2063616e6e6f7420676574206f7574707560448201527f74206173206e6f206f7574707574732068617665206265656e207375626d697460648201527f7465642079657400000000000000000000000000000000000000000000000000608482015260a4016107dc565b6003546000905b80821015610e715760006002610df583856119aa565b610dff9190611a73565b90508460038281548110610e1557610e1561194c565b600091825260209091206003909102016002015470010000000000000000000000000000000090046fffffffffffffffffffffffffffffffff161015610e6757610e608160016119aa565b9250610e6b565b8091505b50610ddf565b5092915050565b60408051608081018252600080825260208201819052918101829052606081019190915260038281548110610eaf57610eaf61194c565b6000918252602091829020604080516080810182526003909302909101805473ffffffffffffffffffffffffffffffffffffffff1683526001810154938301939093526002909201546fffffffffffffffffffffffffffffffff808216938301939093527001000000000000000000000000000000009004909116606082015292915050565b60007f000000000000000000000000000000000000000000000000000000000000000060038381548110610f6b57610f6b61194c565b6000918252602090912060026003909202010154610f9b91906fffffffffffffffffffffffffffffffff166119aa565b92915050565b600060038281548110610fb657610fb661194c565b600091825260209091206003909102015473ffffffffffffffffffffffffffffffffffffffff1692915050565b604080516080810182526000808252602082018190529181018290526060810191909152600361101283610c98565b81548110610eaf57610eaf61194c565b60007f00000000000000000000000000000000000000000000000000000000000000006001548361105391906119c2565b61105d9190611aae565b600254610f9b91906119aa565b600354600090156110a8577f000000000000000000000000000000000000000000000000000000000000000061109e610569565b6105d791906119aa565b6105d7610569565b600054610100900460ff16158080156110d05750600054600160ff909116105b806110ea5750303b1580156110ea575060005460ff166001145b61115c5760405162461bcd60e51b815260206004820152602e60248201527f496e697469616c697a61626c653a20636f6e747261637420697320616c72656160448201527f647920696e697469616c697a656400000000000000000000000000000000000060648201526084016107dc565b600080547fffffffffffffffffffffffffffffffffffffffffffffffffffffffffffffff0016600117905580156111ba57600080547fffffffffffffffffffffffffffffffffffffffffffffffffffffffffffff00ff166101001790555b428211156112575760405162461bcd60e51b8152602060048201526044602482018190527f4c324f75747075744f7261636c653a207374617274696e67204c322074696d65908201527f7374616d70206d757374206265206c657373207468616e2063757272656e742060648201527f74696d6500000000000000000000000000000000000000000000000000000000608482015260a4016107dc565b6002829055600183905580156112c457600080547fffffffffffffffffffffffffffffffffffffffffffffffffffffffffffff00ff169055604051600181527f7f26b83ff96e1f2b6a682f133852f6798a09c465da95921460cefb38474024989060200160405180910390a15b505050565b3373ffffffffffffffffffffffffffffffffffffffff7f0000000000000000000000000000000000000000000000000000000000000000161461139a5760405162461bcd60e51b815260206004820152604160248201527f4c324f75747075744f7261636c653a206f6e6c792074686520636f6c6f73736560448201527f756d20636f6e74726163742063616e207265706c61636520616e206f7574707560648201527f7400000000000000000000000000000000000000000000000000000000000000608482015260a4016107dc565b73ffffffffffffffffffffffffffffffffffffffff81166114235760405162461bcd60e51b815260206004820152603060248201527f4c324f75747075744f7261636c653a207375626d69747465722061646472657360448201527f732063616e6e6f74206265207a65726f0000000000000000000000000000000060648201526084016107dc565b60035483106114c05760405162461bcd60e51b815260206004820152604660248201527f4c324f75747075744f7261636c653a2063616e6e6f74207265706c616365206160448201527f6e206f757470757420616674657220746865206c6174657374206f757470757460648201527f20696e6465780000000000000000000000000000000000000000000000000000608482015260a4016107dc565b6000600384815481106114d5576114d561194c565b6000918252602090912060039091020160028101549091507f00000000000000000000000000000000000000000000000000000000000000009061152b906fffffffffffffffffffffffffffffffff16426119c2565b106115c45760405162461bcd60e51b815260206004820152604860248201527f4c324f75747075744f7261636c653a2063616e6e6f74207265706c616365206160448201527f6e206f757470757420746861742068617320616c7265616479206265656e206660648201527f696e616c697a6564000000000000000000000000000000000000000000000000608482015260a4016107dc565b6001810183905580547fffffffffffffffffffffffff00000000000000000000000000000000000000001673ffffffffffffffffffffffffffffffffffffffff831617815560405183815284907fa1b831bb8b6b242db6d0988a6d21f869c610de9f703a5e45e1b7d3dc3137b9069060200160405180910390a250505050565b73ffffffffffffffffffffffffffffffffffffffff163b151590565b6060600061166d8361171e565b600101905060008167ffffffffffffffff81111561168d5761168d611aeb565b6040519080825280601f01601f1916602001820160405280156116b7576020820181803683370190505b5090508181016020015b7fffffffffffffffffffffffffffffffffffffffffffffffffffffffffffffffff017f3031323334353637383961626364656600000000000000000000000000000000600a86061a8153600a85049450846116c157509392505050565b6000807a184f03e93ff9f4daa797ed6e38ed64bf6a1f0100000000000000008310611767577a184f03e93ff9f4daa797ed6e38ed64bf6a1f010000000000000000830492506040015b6d04ee2d6d415b85acef81000000008310611793576d04ee2d6d415b85acef8100000000830492506020015b662386f26fc1000083106117b157662386f26fc10000830492506010015b6305f5e10083106117c9576305f5e100830492506008015b61271083106117dd57612710830492506004015b606483106117ef576064830492506002015b600a8310610f9b5760010192915050565b60006020828403121561181257600080fd5b5035919050565b60005b8381101561183457818101518382015260200161181c565b83811115611843576000848401525b50505050565b6020815260008251806020840152611868816040850160208701611819565b601f017fffffffffffffffffffffffffffffffffffffffffffffffffffffffffffffffe0169190910160400192915050565b600080600080608085870312156118b057600080fd5b5050823594602084013594506040840135936060013592509050565b600080604083850312156118df57600080fd5b50508035926020909101359150565b73ffffffffffffffffffffffffffffffffffffffff8116811461191057600080fd5b50565b60008060006060848603121561192857600080fd5b83359250602084013591506040840135611941816118ee565b809150509250925092565b7f4e487b7100000000000000000000000000000000000000000000000000000000600052603260045260246000fd5b7f4e487b7100000000000000000000000000000000000000000000000000000000600052601160045260246000fd5b600082198211156119bd576119bd61197b565b500190565b6000828210156119d4576119d461197b565b500390565b600084516119eb818460208901611819565b80830190507f2e000000000000000000000000000000000000000000000000000000000000008082528551611a27816001850160208a01611819565b60019201918201528351611a42816002840160208801611819565b0160020195945050505050565b600060208284031215611a6157600080fd5b8151611a6c816118ee565b9392505050565b600082611aa9577f4e487b7100000000000000000000000000000000000000000000000000000000600052601260045260246000fd5b500490565b6000817fffffffffffffffffffffffffffffffffffffffffffffffffffffffffffffffff0483118215151615611ae657611ae661197b565b500290565b7f4e487b7100000000000000000000000000000000000000000000000000000000600052604160045260246000fdfea164736f6c634300080f000a",
  "devdoc": {},
  "userdoc": {}
}