{
  "address": "0xBBB2E5E2cd4B4DEf369A4F250c46A910B3a6BECa",
  "abi": [
    {
      "inputs": [
        {
          "internalType": "contract ValidatorPool",
          "name": "_validatorPool",
          "type": "address"
        },
        {
          "internalType": "address",
          "name": "_colosseum",
          "type": "address"
        },
        {
          "internalType": "uint256",
          "name": "_submissionInterval",
          "type": "uint256"
        },
        {
          "internalType": "uint256",
          "name": "_l2BlockTime",
          "type": "uint256"
        },
        {
          "internalType": "uint256",
          "name": "_startingBlockNumber",
          "type": "uint256"
        },
        {
          "internalType": "uint256",
          "name": "_startingTimestamp",
          "type": "uint256"
        },
        {
          "internalType": "uint256",
          "name": "_finalizationPeriodSeconds",
          "type": "uint256"
        }
      ],
      "stateMutability": "nonpayable",
      "type": "constructor"
    },
    {
      "anonymous": false,
      "inputs": [
        {
          "indexed": false,
          "internalType": "uint8",
          "name": "version",
          "type": "uint8"
        }
      ],
      "name": "Initialized",
      "type": "event"
    },
    {
      "anonymous": false,
      "inputs": [
        {
          "indexed": true,
          "internalType": "uint256",
          "name": "outputIndex",
          "type": "uint256"
        },
        {
          "indexed": false,
          "internalType": "bytes32",
          "name": "newOutputRoot",
          "type": "bytes32"
        }
      ],
      "name": "OutputReplaced",
      "type": "event"
    },
    {
      "anonymous": false,
      "inputs": [
        {
          "indexed": true,
          "internalType": "bytes32",
          "name": "outputRoot",
          "type": "bytes32"
        },
        {
          "indexed": true,
          "internalType": "uint256",
          "name": "l2OutputIndex",
          "type": "uint256"
        },
        {
          "indexed": true,
          "internalType": "uint256",
          "name": "l2BlockNumber",
          "type": "uint256"
        },
        {
          "indexed": false,
          "internalType": "uint256",
          "name": "l1Timestamp",
          "type": "uint256"
        }
      ],
      "name": "OutputSubmitted",
      "type": "event"
    },
    {
      "inputs": [],
      "name": "COLOSSEUM",
      "outputs": [
        {
          "internalType": "address",
          "name": "",
          "type": "address"
        }
      ],
      "stateMutability": "view",
      "type": "function"
    },
    {
      "inputs": [],
      "name": "FINALIZATION_PERIOD_SECONDS",
      "outputs": [
        {
          "internalType": "uint256",
          "name": "",
          "type": "uint256"
        }
      ],
      "stateMutability": "view",
      "type": "function"
    },
    {
      "inputs": [],
      "name": "L2_BLOCK_TIME",
      "outputs": [
        {
          "internalType": "uint256",
          "name": "",
          "type": "uint256"
        }
      ],
      "stateMutability": "view",
      "type": "function"
    },
    {
      "inputs": [],
      "name": "SUBMISSION_INTERVAL",
      "outputs": [
        {
          "internalType": "uint256",
          "name": "",
          "type": "uint256"
        }
      ],
      "stateMutability": "view",
      "type": "function"
    },
    {
      "inputs": [],
      "name": "VALIDATOR_POOL",
      "outputs": [
        {
          "internalType": "contract ValidatorPool",
          "name": "",
          "type": "address"
        }
      ],
      "stateMutability": "view",
      "type": "function"
    },
    {
      "inputs": [
        {
          "internalType": "uint256",
          "name": "_l2BlockNumber",
          "type": "uint256"
        }
      ],
      "name": "computeL2Timestamp",
      "outputs": [
        {
          "internalType": "uint256",
          "name": "",
          "type": "uint256"
        }
      ],
      "stateMutability": "view",
      "type": "function"
    },
    {
      "inputs": [
        {
          "internalType": "uint256",
          "name": "_l2OutputIndex",
          "type": "uint256"
        }
      ],
      "name": "getL2Output",
      "outputs": [
        {
          "components": [
            {
              "internalType": "address",
              "name": "submitter",
              "type": "address"
            },
            {
              "internalType": "bytes32",
              "name": "outputRoot",
              "type": "bytes32"
            },
            {
              "internalType": "uint128",
              "name": "timestamp",
              "type": "uint128"
            },
            {
              "internalType": "uint128",
              "name": "l2BlockNumber",
              "type": "uint128"
            }
          ],
          "internalType": "struct Types.CheckpointOutput",
          "name": "",
          "type": "tuple"
        }
      ],
      "stateMutability": "view",
      "type": "function"
    },
    {
      "inputs": [
        {
          "internalType": "uint256",
          "name": "_l2BlockNumber",
          "type": "uint256"
        }
      ],
      "name": "getL2OutputAfter",
      "outputs": [
        {
          "components": [
            {
              "internalType": "address",
              "name": "submitter",
              "type": "address"
            },
            {
              "internalType": "bytes32",
              "name": "outputRoot",
              "type": "bytes32"
            },
            {
              "internalType": "uint128",
              "name": "timestamp",
              "type": "uint128"
            },
            {
              "internalType": "uint128",
              "name": "l2BlockNumber",
              "type": "uint128"
            }
          ],
          "internalType": "struct Types.CheckpointOutput",
          "name": "",
          "type": "tuple"
        }
      ],
      "stateMutability": "view",
      "type": "function"
    },
    {
      "inputs": [
        {
          "internalType": "uint256",
          "name": "_l2BlockNumber",
          "type": "uint256"
        }
      ],
      "name": "getL2OutputIndexAfter",
      "outputs": [
        {
          "internalType": "uint256",
          "name": "",
          "type": "uint256"
        }
      ],
      "stateMutability": "view",
      "type": "function"
    },
    {
      "inputs": [
        {
          "internalType": "uint256",
          "name": "_outputIndex",
          "type": "uint256"
        }
      ],
      "name": "getSubmitter",
      "outputs": [
        {
          "internalType": "address",
          "name": "",
          "type": "address"
        }
      ],
      "stateMutability": "view",
      "type": "function"
    },
    {
      "inputs": [
        {
          "internalType": "uint256",
          "name": "_startingBlockNumber",
          "type": "uint256"
        },
        {
          "internalType": "uint256",
          "name": "_startingTimestamp",
          "type": "uint256"
        }
      ],
      "name": "initialize",
      "outputs": [],
      "stateMutability": "nonpayable",
      "type": "function"
    },
    {
      "inputs": [],
      "name": "latestBlockNumber",
      "outputs": [
        {
          "internalType": "uint256",
          "name": "",
          "type": "uint256"
        }
      ],
      "stateMutability": "view",
      "type": "function"
    },
    {
      "inputs": [],
      "name": "latestOutputIndex",
      "outputs": [
        {
          "internalType": "uint256",
          "name": "",
          "type": "uint256"
        }
      ],
      "stateMutability": "view",
      "type": "function"
    },
    {
      "inputs": [],
      "name": "nextBlockNumber",
      "outputs": [
        {
          "internalType": "uint256",
          "name": "",
          "type": "uint256"
        }
      ],
      "stateMutability": "view",
      "type": "function"
    },
    {
      "inputs": [],
      "name": "nextOutputIndex",
      "outputs": [
        {
          "internalType": "uint256",
          "name": "",
          "type": "uint256"
        }
      ],
      "stateMutability": "view",
      "type": "function"
    },
    {
      "inputs": [
        {
          "internalType": "uint256",
          "name": "_l2OutputIndex",
          "type": "uint256"
        },
        {
          "internalType": "bytes32",
          "name": "_newOutputRoot",
          "type": "bytes32"
        },
        {
          "internalType": "address",
          "name": "_submitter",
          "type": "address"
        }
      ],
      "name": "replaceL2Output",
      "outputs": [],
      "stateMutability": "nonpayable",
      "type": "function"
    },
    {
      "inputs": [],
      "name": "startingBlockNumber",
      "outputs": [
        {
          "internalType": "uint256",
          "name": "",
          "type": "uint256"
        }
      ],
      "stateMutability": "view",
      "type": "function"
    },
    {
      "inputs": [],
      "name": "startingTimestamp",
      "outputs": [
        {
          "internalType": "uint256",
          "name": "",
          "type": "uint256"
        }
      ],
      "stateMutability": "view",
      "type": "function"
    },
    {
      "inputs": [
        {
          "internalType": "bytes32",
          "name": "_outputRoot",
          "type": "bytes32"
        },
        {
          "internalType": "uint256",
          "name": "_l2BlockNumber",
          "type": "uint256"
        },
        {
          "internalType": "bytes32",
          "name": "_l1BlockHash",
          "type": "bytes32"
        },
        {
          "internalType": "uint256",
          "name": "_l1BlockNumber",
          "type": "uint256"
        },
        {
          "internalType": "uint256",
          "name": "_bondAmount",
          "type": "uint256"
        }
      ],
      "name": "submitL2Output",
      "outputs": [],
      "stateMutability": "payable",
      "type": "function"
    },
    {
      "inputs": [],
      "name": "version",
      "outputs": [
        {
          "internalType": "string",
          "name": "",
          "type": "string"
        }
      ],
      "stateMutability": "view",
      "type": "function"
    }
  ],
  "transactionHash": "0x01d6dfa867639cb6e332aa32cd9d962fa3366d3adf85e264ff2eaea9be953d18",
  "args": [
    "0x1a174f69c3563917749f0b3479b7173913B1b438",
    "0xAAdB2B0DbB66791A34A73c29f6acC3b25549F3b2",
    60,
    2,
    0,
    0,
    600
  ],
  "numDeployments": 1,
  "solcInputHash": "5994a2571e3c90a6c7816d0a453ce4bc",
  "bytecode": "0x6101806040523480156200001257600080fd5b5060405162001e3838038062001e38833981016040819052620000359162000352565b60006080819052600160a05260c05283620000bd5760405162461bcd60e51b815260206004820152603460248201527f4c324f75747075744f7261636c653a204c3220626c6f636b2074696d65206d7560448201527f73742062652067726561746572207468616e203000000000000000000000000060648201526084015b60405180910390fd5b60008511620001355760405162461bcd60e51b815260206004820152603a60248201527f4c324f75747075744f7261636c653a207375626d697373696f6e20696e74657260448201527f76616c206d7573742062652067726561746572207468616e20300000000000006064820152608401620000b4565b6001600160a01b0380881660e05286166101005261012085905261014084905261016081905262000167838362000174565b50505050505050620003be565b600054610100900460ff1615808015620001955750600054600160ff909116105b80620001c55750620001b2306200032a60201b620015061760201c565b158015620001c5575060005460ff166001145b6200022a5760405162461bcd60e51b815260206004820152602e60248201527f496e697469616c697a61626c653a20636f6e747261637420697320616c72656160448201526d191e481a5b9a5d1a585b1a5e995960921b6064820152608401620000b4565b6000805460ff1916600117905580156200024e576000805461ff0019166101001790555b42821115620002d45760405162461bcd60e51b8152602060048201526044602482018190527f4c324f75747075744f7261636c653a207374617274696e67204c322074696d65908201527f7374616d70206d757374206265206c657373207468616e2063757272656e742060648201526374696d6560e01b608482015260a401620000b4565b60028290556001839055801562000325576000805461ff0019169055604051600181527f7f26b83ff96e1f2b6a682f133852f6798a09c465da95921460cefb38474024989060200160405180910390a15b505050565b6001600160a01b03163b151590565b6001600160a01b03811681146200034f57600080fd5b50565b600080600080600080600060e0888a0312156200036e57600080fd5b87516200037b8162000339565b60208901519097506200038e8162000339565b604089015160608a015160808b015160a08c015160c0909c01519a9d939c50919a90999198509650945092505050565b60805160a05160c05160e051610100516101205161014051610160516119e3620004556000396000818161047301528181610cea01526113b10152600081816101750152610ee20152600081816101d10152610f390152600081816102b201526111a30152600081816103aa015281816107a60152610cbe01526000610561015260006105380152600061050f01526119e36000f3fe60806040526004361061015e5760003560e01c80639e45e8f4116100c0578063d1de856c11610074578063e4a3011611610059578063e4a3011614610421578063e664672314610441578063f4daa2911461046157600080fd5b8063d1de856c146103ec578063dcec33481461040c57600080fd5b8063b0ea09a8116100a5578063b0ea09a814610378578063b98debbf14610398578063cf8e5cf0146103cc57600080fd5b80639e45e8f4146102a0578063a25ae557146102f957600080fd5b80636abcf563116101175780637f006420116100fc5780637f0064201461025557806380e95ef014610275578063887862721461028a57600080fd5b80636abcf5631461022a57806370872aa51461023f57600080fd5b8063529933df11610148578063529933df146101bf57806354fd4d50146101f357806369f16eec1461021557600080fd5b80622134cc146101635780634599c788146101aa575b600080fd5b34801561016f57600080fd5b506101977f000000000000000000000000000000000000000000000000000000000000000081565b6040519081526020015b60405180910390f35b3480156101b657600080fd5b50610197610495565b3480156101cb57600080fd5b506101977f000000000000000000000000000000000000000000000000000000000000000081565b3480156101ff57600080fd5b50610208610508565b6040516101a1919061168f565b34801561022157600080fd5b506101976105ab565b34801561023657600080fd5b50600354610197565b34801561024b57600080fd5b5061019760015481565b34801561026157600080fd5b506101976102703660046116e0565b6105bd565b6102886102833660046116f9565b6107a2565b005b34801561029657600080fd5b5061019760025481565b3480156102ac57600080fd5b506102d47f000000000000000000000000000000000000000000000000000000000000000081565b60405173ffffffffffffffffffffffffffffffffffffffff90911681526020016101a1565b34801561030557600080fd5b506103196103143660046116e0565b610da0565b60408051825173ffffffffffffffffffffffffffffffffffffffff16815260208084015190820152828201516fffffffffffffffffffffffffffffffff90811692820192909252606092830151909116918101919091526080016101a1565b34801561038457600080fd5b506102d46103933660046116e0565b610e5d565b3480156103a457600080fd5b506102d47f000000000000000000000000000000000000000000000000000000000000000081565b3480156103d857600080fd5b506103196103e73660046116e0565b610e9f565b3480156103f857600080fd5b506101976104073660046116e0565b610ede565b34801561041857600080fd5b50610197610f2c565b34801561042d57600080fd5b5061028861043c366004611734565b610f72565b34801561044d57600080fd5b5061028861045c36600461177b565b61118b565b34801561046d57600080fd5b506101977f000000000000000000000000000000000000000000000000000000000000000081565b600354600090156104ff57600380546104b0906001906117e3565b815481106104c0576104c06117fa565b600091825260209091206003909102016002015470010000000000000000000000000000000090046fffffffffffffffffffffffffffffffff16919050565b6001545b905090565b60606105337f0000000000000000000000000000000000000000000000000000000000000000611522565b61055c7f0000000000000000000000000000000000000000000000000000000000000000611522565b6105857f0000000000000000000000000000000000000000000000000000000000000000611522565b60405160200161059793929190611829565b604051602081830303815290604052905090565b600354600090610503906001906117e3565b60006105c7610495565b8211156106675760405162461bcd60e51b815260206004820152604960248201527f4c324f75747075744f7261636c653a2063616e6e6f7420676574206f7574707560448201527f7420666f72206120626c6f636b207468617420686173206e6f74206265656e2060648201527f7375626d69747465640000000000000000000000000000000000000000000000608482015260a4015b60405180910390fd5b6003546107025760405162461bcd60e51b815260206004820152604760248201527f4c324f75747075744f7261636c653a2063616e6e6f7420676574206f7574707560448201527f74206173206e6f206f7574707574732068617665206265656e207375626d697460648201527f7465642079657400000000000000000000000000000000000000000000000000608482015260a40161065e565b6003546000905b8082101561079b576000600261071f838561189f565b61072991906118e6565b9050846003828154811061073f5761073f6117fa565b600091825260209091206003909102016002015470010000000000000000000000000000000090046fffffffffffffffffffffffffffffffff1610156107915761078a81600161189f565b9250610795565b8091505b50610709565b5092915050565b60007f000000000000000000000000000000000000000000000000000000000000000073ffffffffffffffffffffffffffffffffffffffff16633a5490466040518163ffffffff1660e01b8152600401602060405180830381865afa15801561080f573d6000803e3d6000fd5b505050506040513d601f19601f8201168201806040525081019061083391906118fa565b905073ffffffffffffffffffffffffffffffffffffffff80821614610903573373ffffffffffffffffffffffffffffffffffffffff8216146109035760405162461bcd60e51b815260206004820152604260248201527f4c324f75747075744f7261636c653a206f6e6c7920746865206e65787420736560448201527f6c65637465642076616c696461746f722063616e207375626d6974206f75747060648201527f7574000000000000000000000000000000000000000000000000000000000000608482015260a40161065e565b61090b610f2c565b85146109a55760405162461bcd60e51b815260206004820152604860248201527f4c324f75747075744f7261636c653a20626c6f636b206e756d626572206d757360448201527f7420626520657175616c20746f206e65787420657870656374656420626c6f6360648201527f6b206e756d626572000000000000000000000000000000000000000000000000608482015260a40161065e565b426109af86610ede565b10610a225760405162461bcd60e51b815260206004820152603560248201527f4c324f75747075744f7261636c653a2063616e6e6f74207375626d6974204c3260448201527f206f757470757420696e20746865206675747572650000000000000000000000606482015260840161065e565b85610a955760405162461bcd60e51b815260206004820152603c60248201527f4c324f75747075744f7261636c653a204c3220636865636b706f696e74206f7560448201527f747075742063616e6e6f7420626520746865207a65726f206861736800000000606482015260840161065e565b8315610b375783834014610b375760405162461bcd60e51b815260206004820152604960248201527f4c324f75747075744f7261636c653a20626c6f636b206861736820646f65732060448201527f6e6f74206d61746368207468652068617368206174207468652065787065637460648201527f6564206865696768740000000000000000000000000000000000000000000000608482015260a40161065e565b6000610b4260035490565b60408051608081018252338152602081018a81526fffffffffffffffffffffffffffffffff428181168486019081528c831660608601908152600380546001810182556000829052965196027fc2575a0e9e593c00f959f8c92f12db2869c3395a3b0502d05e2516446f71f85b8101805473ffffffffffffffffffffffffffffffffffffffff989098167fffffffffffffffffffffffff00000000000000000000000000000000000000009098169790971790965593517fc2575a0e9e593c00f959f8c92f12db2869c3395a3b0502d05e2516446f71f85c86015551925182167001000000000000000000000000000000000292909116919091177fc2575a0e9e593c00f959f8c92f12db2869c3395a3b0502d05e2516446f71f85d909201919091559051919250879183918a917f457b4388026260019ae0b0b4f16c98235d74fe7359be469bdcba16e6d0d4968991610c9f9190815260200190565b60405180910390a473ffffffffffffffffffffffffffffffffffffffff7f0000000000000000000000000000000000000000000000000000000000000000166396946f758285610d0f7f00000000000000000000000000000000000000000000000000000000000000004261189f565b6040517fffffffff0000000000000000000000000000000000000000000000000000000060e086901b16815260048101939093526fffffffffffffffffffffffffffffffff9182166024840152166044820152606401600060405180830381600087803b158015610d7f57600080fd5b505af1158015610d93573d6000803e3d6000fd5b5050505050505050505050565b60408051608081018252600080825260208201819052918101829052606081019190915260038281548110610dd757610dd76117fa565b6000918252602091829020604080516080810182526003909302909101805473ffffffffffffffffffffffffffffffffffffffff1683526001810154938301939093526002909201546fffffffffffffffffffffffffffffffff808216938301939093527001000000000000000000000000000000009004909116606082015292915050565b600060038281548110610e7257610e726117fa565b600091825260209091206003909102015473ffffffffffffffffffffffffffffffffffffffff1692915050565b6040805160808101825260008082526020820181905291810182905260608101919091526003610ece836105bd565b81548110610dd757610dd76117fa565b60007f000000000000000000000000000000000000000000000000000000000000000060015483610f0f91906117e3565b610f19919061191e565b600254610f26919061189f565b92915050565b60035460009015610f6a577f0000000000000000000000000000000000000000000000000000000000000000610f60610495565b610503919061189f565b610503610495565b600054610100900460ff1615808015610f925750600054600160ff909116105b80610fac5750303b158015610fac575060005460ff166001145b61101e5760405162461bcd60e51b815260206004820152602e60248201527f496e697469616c697a61626c653a20636f6e747261637420697320616c72656160448201527f647920696e697469616c697a6564000000000000000000000000000000000000606482015260840161065e565b600080547fffffffffffffffffffffffffffffffffffffffffffffffffffffffffffffff00166001179055801561107c57600080547fffffffffffffffffffffffffffffffffffffffffffffffffffffffffffff00ff166101001790555b428211156111195760405162461bcd60e51b8152602060048201526044602482018190527f4c324f75747075744f7261636c653a207374617274696e67204c322074696d65908201527f7374616d70206d757374206265206c657373207468616e2063757272656e742060648201527f74696d6500000000000000000000000000000000000000000000000000000000608482015260a40161065e565b60028290556001839055801561118657600080547fffffffffffffffffffffffffffffffffffffffffffffffffffffffffffff00ff169055604051600181527f7f26b83ff96e1f2b6a682f133852f6798a09c465da95921460cefb38474024989060200160405180910390a15b505050565b3373ffffffffffffffffffffffffffffffffffffffff7f0000000000000000000000000000000000000000000000000000000000000000161461125c5760405162461bcd60e51b815260206004820152604160248201527f4c324f75747075744f7261636c653a206f6e6c792074686520636f6c6f73736560448201527f756d20636f6e74726163742063616e207265706c61636520616e206f7574707560648201527f7400000000000000000000000000000000000000000000000000000000000000608482015260a40161065e565b73ffffffffffffffffffffffffffffffffffffffff81166112e55760405162461bcd60e51b815260206004820152603060248201527f4c324f75747075744f7261636c653a207375626d69747465722061646472657360448201527f732063616e6e6f74206265207a65726f00000000000000000000000000000000606482015260840161065e565b60035483106113825760405162461bcd60e51b815260206004820152604660248201527f4c324f75747075744f7261636c653a2063616e6e6f74207265706c616365206160448201527f6e206f757470757420616674657220746865206c6174657374206f757470757460648201527f20696e6465780000000000000000000000000000000000000000000000000000608482015260a40161065e565b600060038481548110611397576113976117fa565b6000918252602090912060039091020160028101549091507f0000000000000000000000000000000000000000000000000000000000000000906113ed906fffffffffffffffffffffffffffffffff16426117e3565b106114865760405162461bcd60e51b815260206004820152604860248201527f4c324f75747075744f7261636c653a2063616e6e6f74207265706c616365206160448201527f6e206f757470757420746861742068617320616c7265616479206265656e206660648201527f696e616c697a6564000000000000000000000000000000000000000000000000608482015260a40161065e565b6001810183905580547fffffffffffffffffffffffff00000000000000000000000000000000000000001673ffffffffffffffffffffffffffffffffffffffff831617815560405183815284907fa1b831bb8b6b242db6d0988a6d21f869c610de9f703a5e45e1b7d3dc3137b9069060200160405180910390a250505050565b73ffffffffffffffffffffffffffffffffffffffff163b151590565b60608160000361156557505060408051808201909152600181527f3000000000000000000000000000000000000000000000000000000000000000602082015290565b8160005b811561158f57806115798161195b565b91506115889050600a836118e6565b9150611569565b60008167ffffffffffffffff8111156115aa576115aa611993565b6040519080825280601f01601f1916602001820160405280156115d4576020820181803683370190505b5090505b8415611657576115e96001836117e3565b91506115f6600a866119c2565b61160190603061189f565b60f81b818381518110611616576116166117fa565b60200101907effffffffffffffffffffffffffffffffffffffffffffffffffffffffffffff1916908160001a905350611650600a866118e6565b94506115d8565b949350505050565b60005b8381101561167a578181015183820152602001611662565b83811115611689576000848401525b50505050565b60208152600082518060208401526116ae81604085016020870161165f565b601f017fffffffffffffffffffffffffffffffffffffffffffffffffffffffffffffffe0169190910160400192915050565b6000602082840312156116f257600080fd5b5035919050565b600080600080600060a0868803121561171157600080fd5b505083359560208501359550604085013594606081013594506080013592509050565b6000806040838503121561174757600080fd5b50508035926020909101359150565b73ffffffffffffffffffffffffffffffffffffffff8116811461177857600080fd5b50565b60008060006060848603121561179057600080fd5b833592506020840135915060408401356117a981611756565b809150509250925092565b7f4e487b7100000000000000000000000000000000000000000000000000000000600052601160045260246000fd5b6000828210156117f5576117f56117b4565b500390565b7f4e487b7100000000000000000000000000000000000000000000000000000000600052603260045260246000fd5b6000845161183b81846020890161165f565b80830190507f2e000000000000000000000000000000000000000000000000000000000000008082528551611877816001850160208a0161165f565b6001920191820152835161189281600284016020880161165f565b0160020195945050505050565b600082198211156118b2576118b26117b4565b500190565b7f4e487b7100000000000000000000000000000000000000000000000000000000600052601260045260246000fd5b6000826118f5576118f56118b7565b500490565b60006020828403121561190c57600080fd5b815161191781611756565b9392505050565b6000817fffffffffffffffffffffffffffffffffffffffffffffffffffffffffffffffff0483118215151615611956576119566117b4565b500290565b60007fffffffffffffffffffffffffffffffffffffffffffffffffffffffffffffffff820361198c5761198c6117b4565b5060010190565b7f4e487b7100000000000000000000000000000000000000000000000000000000600052604160045260246000fd5b6000826119d1576119d16118b7565b50069056fea164736f6c634300080f000a",
  "devdoc": {},
  "userdoc": {}
}