{
  "address": "0xe07EBdc898b844aCd4bfbfD58B19CA40eFD5FCe5",
  "abi": [
    {
      "inputs": [],
      "stateMutability": "nonpayable",
      "type": "constructor"
    },
    {
      "inputs": [],
      "name": "ErrLocked",
      "type": "error"
    },
    {
      "inputs": [],
      "name": "ErrNotFound",
      "type": "error"
    },
    {
      "anonymous": false,
      "inputs": [
        {
          "indexed": true,
          "internalType": "address",
          "name": "owner",
          "type": "address"
        },
        {
          "indexed": true,
          "internalType": "address",
          "name": "approved",
          "type": "address"
        },
        {
          "indexed": true,
          "internalType": "uint256",
          "name": "tokenId",
          "type": "uint256"
        }
      ],
      "name": "Approval",
      "type": "event"
    },
    {
      "anonymous": false,
      "inputs": [
        {
          "indexed": true,
          "internalType": "address",
          "name": "owner",
          "type": "address"
        },
        {
          "indexed": true,
          "internalType": "address",
          "name": "operator",
          "type": "address"
        },
        {
          "indexed": false,
          "internalType": "bool",
          "name": "approved",
          "type": "bool"
        }
      ],
      "name": "ApprovalForAll",
      "type": "event"
    },
    {
      "anonymous": false,
      "inputs": [
        {
          "indexed": false,
          "internalType": "uint256",
          "name": "_fromTokenId",
          "type": "uint256"
        },
        {
          "indexed": false,
          "internalType": "uint256",
          "name": "_toTokenId",
          "type": "uint256"
        }
      ],
      "name": "BatchMetadataUpdate",
      "type": "event"
    },
    {
      "anonymous": false,
      "inputs": [
        {
          "indexed": true,
          "internalType": "address",
          "name": "delegator",
          "type": "address"
        },
        {
          "indexed": true,
          "internalType": "address",
          "name": "fromDelegate",
          "type": "address"
        },
        {
          "indexed": true,
          "internalType": "address",
          "name": "toDelegate",
          "type": "address"
        }
      ],
      "name": "DelegateChanged",
      "type": "event"
    },
    {
      "anonymous": false,
      "inputs": [
        {
          "indexed": true,
          "internalType": "address",
          "name": "delegate",
          "type": "address"
        },
        {
          "indexed": false,
          "internalType": "uint256",
          "name": "previousBalance",
          "type": "uint256"
        },
        {
          "indexed": false,
          "internalType": "uint256",
          "name": "newBalance",
          "type": "uint256"
        }
      ],
      "name": "DelegateVotesChanged",
      "type": "event"
    },
    {
      "anonymous": false,
      "inputs": [],
      "name": "EIP712DomainChanged",
      "type": "event"
    },
    {
      "anonymous": false,
      "inputs": [
        {
          "indexed": false,
          "internalType": "uint8",
          "name": "version",
          "type": "uint8"
        }
      ],
      "name": "Initialized",
      "type": "event"
    },
    {
      "anonymous": false,
      "inputs": [
        {
          "indexed": false,
          "internalType": "uint256",
          "name": "tokenId",
          "type": "uint256"
        }
      ],
      "name": "Locked",
      "type": "event"
    },
    {
      "anonymous": false,
      "inputs": [
        {
          "indexed": false,
          "internalType": "uint256",
          "name": "_tokenId",
          "type": "uint256"
        }
      ],
      "name": "MetadataUpdate",
      "type": "event"
    },
    {
      "anonymous": false,
      "inputs": [
        {
          "indexed": true,
          "internalType": "address",
          "name": "previousOwner",
          "type": "address"
        },
        {
          "indexed": true,
          "internalType": "address",
          "name": "newOwner",
          "type": "address"
        }
      ],
      "name": "OwnershipTransferred",
      "type": "event"
    },
    {
      "anonymous": false,
      "inputs": [
        {
          "indexed": false,
          "internalType": "address",
          "name": "account",
          "type": "address"
        }
      ],
      "name": "Paused",
      "type": "event"
    },
    {
      "anonymous": false,
      "inputs": [
        {
          "indexed": true,
          "internalType": "address",
          "name": "from",
          "type": "address"
        },
        {
          "indexed": true,
          "internalType": "address",
          "name": "to",
          "type": "address"
        },
        {
          "indexed": true,
          "internalType": "uint256",
          "name": "tokenId",
          "type": "uint256"
        }
      ],
      "name": "Transfer",
      "type": "event"
    },
    {
      "anonymous": false,
      "inputs": [
        {
          "indexed": false,
          "internalType": "uint256",
          "name": "tokenId",
          "type": "uint256"
        }
      ],
      "name": "Unlocked",
      "type": "event"
    },
    {
      "anonymous": false,
      "inputs": [
        {
          "indexed": false,
          "internalType": "address",
          "name": "account",
          "type": "address"
        }
      ],
      "name": "Unpaused",
      "type": "event"
    },
    {
      "inputs": [],
      "name": "CLOCK_MODE",
      "outputs": [
        {
          "internalType": "string",
          "name": "",
          "type": "string"
        }
      ],
      "stateMutability": "view",
      "type": "function"
    },
    {
      "inputs": [],
      "name": "DOMAIN_SEPARATOR",
      "outputs": [
        {
          "internalType": "bytes32",
          "name": "",
          "type": "bytes32"
        }
      ],
      "stateMutability": "view",
      "type": "function"
    },
    {
      "inputs": [
        {
          "internalType": "address",
          "name": "approved",
          "type": "address"
        },
        {
          "internalType": "uint256",
          "name": "tokenId",
          "type": "uint256"
        }
      ],
      "name": "approve",
      "outputs": [],
      "stateMutability": "nonpayable",
      "type": "function"
    },
    {
      "inputs": [
        {
          "internalType": "address",
          "name": "owner",
          "type": "address"
        }
      ],
      "name": "balanceOf",
      "outputs": [
        {
          "internalType": "uint256",
          "name": "",
          "type": "uint256"
        }
      ],
      "stateMutability": "view",
      "type": "function"
    },
    {
      "inputs": [
        {
          "internalType": "uint256",
          "name": "tokenId",
          "type": "uint256"
        }
      ],
      "name": "burn",
      "outputs": [],
      "stateMutability": "nonpayable",
      "type": "function"
    },
    {
      "inputs": [],
      "name": "clock",
      "outputs": [
        {
          "internalType": "uint48",
          "name": "",
          "type": "uint48"
        }
      ],
      "stateMutability": "view",
      "type": "function"
    },
    {
      "inputs": [
        {
          "internalType": "address",
          "name": "delegatee",
          "type": "address"
        }
      ],
      "name": "delegate",
      "outputs": [],
      "stateMutability": "nonpayable",
      "type": "function"
    },
    {
      "inputs": [
        {
          "internalType": "address",
          "name": "delegatee",
          "type": "address"
        },
        {
          "internalType": "uint256",
          "name": "nonce",
          "type": "uint256"
        },
        {
          "internalType": "uint256",
          "name": "expiry",
          "type": "uint256"
        },
        {
          "internalType": "uint8",
          "name": "v",
          "type": "uint8"
        },
        {
          "internalType": "bytes32",
          "name": "r",
          "type": "bytes32"
        },
        {
          "internalType": "bytes32",
          "name": "s",
          "type": "bytes32"
        }
      ],
      "name": "delegateBySig",
      "outputs": [],
      "stateMutability": "nonpayable",
      "type": "function"
    },
    {
      "inputs": [
        {
          "internalType": "address",
          "name": "account",
          "type": "address"
        }
      ],
      "name": "delegates",
      "outputs": [
        {
          "internalType": "address",
          "name": "",
          "type": "address"
        }
      ],
      "stateMutability": "view",
      "type": "function"
    },
    {
      "inputs": [],
      "name": "eip712Domain",
      "outputs": [
        {
          "internalType": "bytes1",
          "name": "fields",
          "type": "bytes1"
        },
        {
          "internalType": "string",
          "name": "name",
          "type": "string"
        },
        {
          "internalType": "string",
          "name": "version",
          "type": "string"
        },
        {
          "internalType": "uint256",
          "name": "chainId",
          "type": "uint256"
        },
        {
          "internalType": "address",
          "name": "verifyingContract",
          "type": "address"
        },
        {
          "internalType": "bytes32",
          "name": "salt",
          "type": "bytes32"
        },
        {
          "internalType": "uint256[]",
          "name": "extensions",
          "type": "uint256[]"
        }
      ],
      "stateMutability": "view",
      "type": "function"
    },
    {
      "inputs": [
        {
          "internalType": "uint256",
          "name": "tokenId",
          "type": "uint256"
        }
      ],
      "name": "getApproved",
      "outputs": [
        {
          "internalType": "address",
          "name": "",
          "type": "address"
        }
      ],
      "stateMutability": "view",
      "type": "function"
    },
    {
      "inputs": [
        {
          "internalType": "uint256",
          "name": "timepoint",
          "type": "uint256"
        }
      ],
      "name": "getPastTotalSupply",
      "outputs": [
        {
          "internalType": "uint256",
          "name": "",
          "type": "uint256"
        }
      ],
      "stateMutability": "view",
      "type": "function"
    },
    {
      "inputs": [
        {
          "internalType": "address",
          "name": "account",
          "type": "address"
        },
        {
          "internalType": "uint256",
          "name": "timepoint",
          "type": "uint256"
        }
      ],
      "name": "getPastVotes",
      "outputs": [
        {
          "internalType": "uint256",
          "name": "",
          "type": "uint256"
        }
      ],
      "stateMutability": "view",
      "type": "function"
    },
    {
      "inputs": [
        {
          "internalType": "address",
          "name": "account",
          "type": "address"
        }
      ],
      "name": "getVotes",
      "outputs": [
        {
          "internalType": "uint256",
          "name": "",
          "type": "uint256"
        }
      ],
      "stateMutability": "view",
      "type": "function"
    },
    {
      "inputs": [
        {
          "internalType": "address",
          "name": "_owner",
          "type": "address"
        }
      ],
      "name": "initialize",
      "outputs": [],
      "stateMutability": "nonpayable",
      "type": "function"
    },
    {
      "inputs": [
        {
          "internalType": "address",
          "name": "owner",
          "type": "address"
        },
        {
          "internalType": "address",
          "name": "operator",
          "type": "address"
        }
      ],
      "name": "isApprovedForAll",
      "outputs": [
        {
          "internalType": "bool",
          "name": "",
          "type": "bool"
        }
      ],
      "stateMutability": "view",
      "type": "function"
    },
    {
      "inputs": [
        {
          "internalType": "uint256",
          "name": "tokenId",
          "type": "uint256"
        }
      ],
      "name": "locked",
      "outputs": [
        {
          "internalType": "bool",
          "name": "",
          "type": "bool"
        }
      ],
      "stateMutability": "view",
      "type": "function"
    },
    {
      "inputs": [],
      "name": "name",
      "outputs": [
        {
          "internalType": "string",
          "name": "",
          "type": "string"
        }
      ],
      "stateMutability": "view",
      "type": "function"
    },
    {
      "inputs": [
        {
          "internalType": "address",
          "name": "owner",
          "type": "address"
        }
      ],
      "name": "nonces",
      "outputs": [
        {
          "internalType": "uint256",
          "name": "",
          "type": "uint256"
        }
      ],
      "stateMutability": "view",
      "type": "function"
    },
    {
      "inputs": [],
      "name": "owner",
      "outputs": [
        {
          "internalType": "address",
          "name": "",
          "type": "address"
        }
      ],
      "stateMutability": "view",
      "type": "function"
    },
    {
      "inputs": [
        {
          "internalType": "uint256",
          "name": "tokenId",
          "type": "uint256"
        }
      ],
      "name": "ownerOf",
      "outputs": [
        {
          "internalType": "address",
          "name": "",
          "type": "address"
        }
      ],
      "stateMutability": "view",
      "type": "function"
    },
    {
      "inputs": [],
      "name": "pause",
      "outputs": [],
      "stateMutability": "nonpayable",
      "type": "function"
    },
    {
      "inputs": [],
      "name": "paused",
      "outputs": [
        {
          "internalType": "bool",
          "name": "",
          "type": "bool"
        }
      ],
      "stateMutability": "view",
      "type": "function"
    },
    {
      "inputs": [],
      "name": "renounceOwnership",
      "outputs": [],
      "stateMutability": "nonpayable",
      "type": "function"
    },
    {
      "inputs": [
        {
          "internalType": "address",
          "name": "to",
          "type": "address"
        },
        {
          "internalType": "string",
          "name": "uri",
          "type": "string"
        }
      ],
      "name": "safeMint",
      "outputs": [],
      "stateMutability": "nonpayable",
      "type": "function"
    },
    {
      "inputs": [
        {
          "internalType": "address",
          "name": "from",
          "type": "address"
        },
        {
          "internalType": "address",
          "name": "to",
          "type": "address"
        },
        {
          "internalType": "uint256",
          "name": "tokenId",
          "type": "uint256"
        }
      ],
      "name": "safeTransferFrom",
      "outputs": [],
      "stateMutability": "nonpayable",
      "type": "function"
    },
    {
      "inputs": [
        {
          "internalType": "address",
          "name": "from",
          "type": "address"
        },
        {
          "internalType": "address",
          "name": "to",
          "type": "address"
        },
        {
          "internalType": "uint256",
          "name": "tokenId",
          "type": "uint256"
        },
        {
          "internalType": "bytes",
          "name": "data",
          "type": "bytes"
        }
      ],
      "name": "safeTransferFrom",
      "outputs": [],
      "stateMutability": "nonpayable",
      "type": "function"
    },
    {
      "inputs": [
        {
          "internalType": "address",
          "name": "operator",
          "type": "address"
        },
        {
          "internalType": "bool",
          "name": "approved",
          "type": "bool"
        }
      ],
      "name": "setApprovalForAll",
      "outputs": [],
      "stateMutability": "nonpayable",
      "type": "function"
    },
    {
      "inputs": [
        {
          "internalType": "bytes4",
          "name": "interfaceId",
          "type": "bytes4"
        }
      ],
      "name": "supportsInterface",
      "outputs": [
        {
          "internalType": "bool",
          "name": "",
          "type": "bool"
        }
      ],
      "stateMutability": "view",
      "type": "function"
    },
    {
      "inputs": [],
      "name": "symbol",
      "outputs": [
        {
          "internalType": "string",
          "name": "",
          "type": "string"
        }
      ],
      "stateMutability": "view",
      "type": "function"
    },
    {
      "inputs": [
        {
          "internalType": "uint256",
          "name": "index",
          "type": "uint256"
        }
      ],
      "name": "tokenByIndex",
      "outputs": [
        {
          "internalType": "uint256",
          "name": "",
          "type": "uint256"
        }
      ],
      "stateMutability": "view",
      "type": "function"
    },
    {
      "inputs": [
        {
          "internalType": "address",
          "name": "owner",
          "type": "address"
        },
        {
          "internalType": "uint256",
          "name": "index",
          "type": "uint256"
        }
      ],
      "name": "tokenOfOwnerByIndex",
      "outputs": [
        {
          "internalType": "uint256",
          "name": "",
          "type": "uint256"
        }
      ],
      "stateMutability": "view",
      "type": "function"
    },
    {
      "inputs": [
        {
          "internalType": "uint256",
          "name": "tokenId",
          "type": "uint256"
        }
      ],
      "name": "tokenURI",
      "outputs": [
        {
          "internalType": "string",
          "name": "",
          "type": "string"
        }
      ],
      "stateMutability": "view",
      "type": "function"
    },
    {
      "inputs": [],
      "name": "totalSupply",
      "outputs": [
        {
          "internalType": "uint256",
          "name": "",
          "type": "uint256"
        }
      ],
      "stateMutability": "view",
      "type": "function"
    },
    {
      "inputs": [
        {
          "internalType": "address",
          "name": "from",
          "type": "address"
        },
        {
          "internalType": "address",
          "name": "to",
          "type": "address"
        },
        {
          "internalType": "uint256",
          "name": "tokenId",
          "type": "uint256"
        }
      ],
      "name": "transferFrom",
      "outputs": [],
      "stateMutability": "nonpayable",
      "type": "function"
    },
    {
      "inputs": [
        {
          "internalType": "address",
          "name": "newOwner",
          "type": "address"
        }
      ],
      "name": "transferOwnership",
      "outputs": [],
      "stateMutability": "nonpayable",
      "type": "function"
    },
    {
      "inputs": [],
      "name": "unpause",
      "outputs": [],
      "stateMutability": "nonpayable",
      "type": "function"
    },
    {
      "inputs": [],
      "name": "version",
      "outputs": [
        {
          "internalType": "string",
          "name": "",
          "type": "string"
        }
      ],
      "stateMutability": "view",
      "type": "function"
    }
  ],
  "transactionHash": "0xe44ce25ba0b400a70fa9317bb82032ff7f2faa76c48b9226cb70dc08c77cb47d",
  "args": [],
  "numDeployments": 2,
  "solcInputHash": "93d503a8e2720ab3450df1241861fbfc",
  "bytecode": "0x60e06040523480156200001157600080fd5b5060016000806200002162000033565b60809290925260a05260c052620000f4565b600054610100900460ff1615620000a05760405162461bcd60e51b815260206004820152602760248201527f496e697469616c697a61626c653a20636f6e747261637420697320696e697469604482015266616c697a696e6760c81b606482015260840160405180910390fd5b60005460ff90811614620000f2576000805460ff191660ff9081179091556040519081527f7f26b83ff96e1f2b6a682f133852f6798a09c465da95921460cefb38474024989060200160405180910390a15b565b60805160a05160c05161471b620001246000396000610ab901526000610a9001526000610a67015261471b6000f3fe608060405234801561001057600080fd5b50600436106102925760003560e01c806370a08231116101605780639ab24eb0116100d8578063c4d66de81161008c578063d204c45e11610071578063d204c45e14610538578063e985e9c51461054b578063f2fde38b1461058757600080fd5b8063c4d66de814610512578063c87b56dd1461052557600080fd5b8063b45a3c0e116100bd578063b45a3c0e146104d9578063b88d4fde146104ec578063c3cda520146104ff57600080fd5b80639ab24eb0146104b3578063a22cb465146104c657600080fd5b806384b0196e1161012f5780638e539e8c116101145780638e539e8c1461047957806391ddadf41461048c57806395d89b41146104ab57600080fd5b806384b0196e1461044c5780638da5cb5b1461046757600080fd5b806370a0823114610416578063715018a6146104295780637ecebe00146104315780638456cb591461044457600080fd5b80633f4ba83a1161020e57806354fd4d50116101c25780635c19a95c116101a75780635c19a95c146103e55780635c975abb146103f85780636352211e1461040357600080fd5b806354fd4d50146103b0578063587cde1e146103b857600080fd5b806342966c68116101f357806342966c68146103825780634bf5d7e9146103955780634f6ccce71461039d57600080fd5b80633f4ba83a1461036757806342842e0e1461036f57600080fd5b806318160ddd116102655780632f745c591161024a5780632f745c59146103395780633644e5151461034c5780633a46b1a81461035457600080fd5b806318160ddd1461031457806323b872dd1461032657600080fd5b806301ffc9a71461029757806306fdde03146102bf578063081812fc146102d4578063095ea7b3146102ff575b600080fd5b6102aa6102a5366004613e50565b61059a565b60405190151581526020015b60405180910390f35b6102c76105f6565b6040516102b69190613ee3565b6102e76102e2366004613ef6565b610688565b6040516001600160a01b0390911681526020016102b6565b61031261030d366004613f2b565b6106af565b005b6099545b6040519081526020016102b6565b610312610334366004613f55565b6106fb565b610318610347366004613f2b565b610749565b6103186107f6565b610318610362366004613f2b565b610805565b6103126108b5565b61031261037d366004613f55565b6108c7565b610312610390366004613ef6565b610910565b6102c7610924565b6103186103ab366004613ef6565b6109bc565b6102c7610a60565b6102e76103c6366004613f91565b6001600160a01b03908116600090815261019360205260409020541690565b6103126103f3366004613f91565b610b03565b60fb5460ff166102aa565b6102e7610411366004613ef6565b610b0e565b610318610424366004613f91565b610b73565b610312610c0d565b61031861043f366004613f91565b610c1f565b610312610c3e565b610454610c4e565b6040516102b69796959493929190613fac565b61012d546001600160a01b03166102e7565b610318610487366004613ef6565b610d12565b610494610dab565b60405165ffffffffffff90911681526020016102b6565b6102c7610db6565b6103186104c1366004613f91565b610dc5565b6103126104d436600461405e565b610de7565b6102aa6104e7366004613ef6565b610e2f565b6103126104fa36600461415d565b610e89565b61031261050d3660046141d9565b610ed9565b610312610520366004613f91565b61100f565b6102c7610533366004613ef6565b6111d7565b610312610546366004614239565b6111e2565b6102aa61055936600461429b565b6001600160a01b039182166000908152606a6020908152604080832093909416825291909152205460ff1690565b610312610595366004613f91565b61121b565b60007fffffffff0000000000000000000000000000000000000000000000000000000082167fb45a3c0e0000000000000000000000000000000000000000000000000000000014806105f057506105f0826112a8565b92915050565b606060658054610605906142ce565b80601f0160208091040260200160405190810160405280929190818152602001828054610631906142ce565b801561067e5780601f106106535761010080835404028352916020019161067e565b820191906000526020600020905b81548152906001019060200180831161066157829003601f168201915b5050505050905090565b6000610693826112fe565b506000908152606960205260409020546001600160a01b031690565b6101f85460ff16156106ed576040517fbd291a9500000000000000000000000000000000000000000000000000000000815260040160405180910390fd5b6106f78282611362565b5050565b6101f85460ff1615610739576040517fbd291a9500000000000000000000000000000000000000000000000000000000815260040160405180910390fd5b61074483838361148e565b505050565b600061075483610b73565b82106107cd5760405162461bcd60e51b815260206004820152602b60248201527f455243373231456e756d657261626c653a206f776e657220696e646578206f7560448201527f74206f6620626f756e647300000000000000000000000000000000000000000060648201526084015b60405180910390fd5b506001600160a01b03919091166000908152609760209081526040808320938352929052205490565b6000610800611515565b905090565b600061080f610dab565b65ffffffffffff1682106108655760405162461bcd60e51b815260206004820152601460248201527f566f7465733a20667574757265206c6f6f6b757000000000000000000000000060448201526064016107c4565b6108906108718361151f565b6001600160a01b0385166000908152610194602052604090209061159f565b7bffffffffffffffffffffffffffffffffffffffffffffffffffffffff169392505050565b6108bd611669565b6108c56116c4565b565b6101f85460ff1615610905576040517fbd291a9500000000000000000000000000000000000000000000000000000000815260040160405180910390fd5b610744838383611716565b610918611669565b61092181611731565b50565b60604361092f610dab565b65ffffffffffff16146109845760405162461bcd60e51b815260206004820152601860248201527f566f7465733a2062726f6b656e20636c6f636b206d6f6465000000000000000060448201526064016107c4565b5060408051808201909152601d81527f6d6f64653d626c6f636b6e756d6265722666726f6d3d64656661756c74000000602082015290565b60006109c760995490565b8210610a3b5760405162461bcd60e51b815260206004820152602c60248201527f455243373231456e756d657261626c653a20676c6f62616c20696e646578206f60448201527f7574206f6620626f756e6473000000000000000000000000000000000000000060648201526084016107c4565b60998281548110610a4e57610a4e61431b565b90600052602060002001549050919050565b6060610a8b7f000000000000000000000000000000000000000000000000000000000000000061173a565b610ab47f000000000000000000000000000000000000000000000000000000000000000061173a565b610add7f000000000000000000000000000000000000000000000000000000000000000061173a565b604051602001610aef9392919061434a565b604051602081830303815290604052905090565b336106f781836117db565b6000818152606760205260408120546001600160a01b0316806105f05760405162461bcd60e51b815260206004820152601860248201527f4552433732313a20696e76616c696420746f6b656e204944000000000000000060448201526064016107c4565b60006001600160a01b038216610bf15760405162461bcd60e51b815260206004820152602960248201527f4552433732313a2061646472657373207a65726f206973206e6f74206120766160448201527f6c6964206f776e6572000000000000000000000000000000000000000000000060648201526084016107c4565b506001600160a01b031660009081526068602052604090205490565b610c15611669565b6108c56000611866565b6001600160a01b038116600090815261019660205260408120546105f0565b610c46611669565b6108c56118d1565b60006060806000806000606061015f546000801b148015610c70575061016054155b610cbc5760405162461bcd60e51b815260206004820152601560248201527f4549503731323a20556e696e697469616c697a6564000000000000000000000060448201526064016107c4565b610cc461190e565b610ccc61191e565b604080516000808252602082019092527f0f000000000000000000000000000000000000000000000000000000000000009b939a50919850469750309650945092509050565b6000610d1c610dab565b65ffffffffffff168210610d725760405162461bcd60e51b815260206004820152601460248201527f566f7465733a20667574757265206c6f6f6b757000000000000000000000000060448201526064016107c4565b610d87610d7e8361151f565b6101959061159f565b7bffffffffffffffffffffffffffffffffffffffffffffffffffffffff1692915050565b60006108004361192e565b606060668054610605906142ce565b6001600160a01b038116600090815261019460205260408120610d87906119ac565b6101f85460ff1615610e25576040517fbd291a9500000000000000000000000000000000000000000000000000000000815260040160405180910390fd5b6106f782826119fc565b6000818152606760205260408120546001600160a01b0316610e7d576040517fae9a63f500000000000000000000000000000000000000000000000000000000815260040160405180910390fd5b50506101f85460ff1690565b6101f85460ff1615610ec7576040517fbd291a9500000000000000000000000000000000000000000000000000000000815260040160405180910390fd5b610ed384848484611a07565b50505050565b83421115610f295760405162461bcd60e51b815260206004820152601860248201527f566f7465733a207369676e61747572652065787069726564000000000000000060448201526064016107c4565b604080517fe48329057bfd03d55e49b547132e39cffd9c1820ad7b9d4c5307691425d15adf60208201526001600160a01b038816918101919091526060810186905260808101859052600090610fa390610f9b9060a00160405160208183030381529060405280519060200120611a8f565b858585611ad7565b9050610fae81611b01565b8614610ffc5760405162461bcd60e51b815260206004820152601460248201527f566f7465733a20696e76616c6964206e6f6e636500000000000000000000000060448201526064016107c4565b61100681886117db565b50505050505050565b600054610100900460ff161580801561102f5750600054600160ff909116105b806110495750303b158015611049575060005460ff166001145b6110bb5760405162461bcd60e51b815260206004820152602e60248201527f496e697469616c697a61626c653a20636f6e747261637420697320616c72656160448201527f647920696e697469616c697a656400000000000000000000000000000000000060648201526084016107c4565b6000805460ff1916600117905580156110fb57600080547fffffffffffffffffffffffffffffffffffffffffffffffffffffffffffff00ff166101001790555b6111706040518060400160405280601481526020017f4b726f6d615365637572697479436f756e63696c0000000000000000000000008152506040518060400160405280600381526020017f4b5343000000000000000000000000000000000000000000000000000000000081525084611b2a565b80156106f757600080547fffffffffffffffffffffffffffffffffffffffffffffffffffffffffffff00ff169055604051600181527f7f26b83ff96e1f2b6a682f133852f6798a09c465da95921460cefb3847402498906020015b60405180910390a15050565b60606105f082611c23565b6111ea611669565b60006111f66101f75490565b90506112076101f780546001019055565b6112118382611d50565b6107448183611d6a565b611223611669565b6001600160a01b03811661129f5760405162461bcd60e51b815260206004820152602660248201527f4f776e61626c653a206e6577206f776e657220697320746865207a65726f206160448201527f646472657373000000000000000000000000000000000000000000000000000060648201526084016107c4565b61092181611866565b60007fffffffff0000000000000000000000000000000000000000000000000000000082167f490649060000000000000000000000000000000000000000000000000000000014806105f057506105f082611e3d565b6000818152606760205260409020546001600160a01b03166109215760405162461bcd60e51b815260206004820152601860248201527f4552433732313a20696e76616c696420746f6b656e204944000000000000000060448201526064016107c4565b600061136d82610b0e565b9050806001600160a01b0316836001600160a01b0316036113f65760405162461bcd60e51b815260206004820152602160248201527f4552433732313a20617070726f76616c20746f2063757272656e74206f776e6560448201527f720000000000000000000000000000000000000000000000000000000000000060648201526084016107c4565b336001600160a01b038216148061141257506114128133610559565b6114845760405162461bcd60e51b815260206004820152603d60248201527f4552433732313a20617070726f76652063616c6c6572206973206e6f7420746f60448201527f6b656e206f776e6572206f7220617070726f76656420666f7220616c6c00000060648201526084016107c4565b6107448383611e93565b6114983382611f19565b61150a5760405162461bcd60e51b815260206004820152602d60248201527f4552433732313a2063616c6c6572206973206e6f7420746f6b656e206f776e6560448201527f72206f7220617070726f7665640000000000000000000000000000000000000060648201526084016107c4565b610744838383611f97565b60006108006121ed565b600063ffffffff82111561159b5760405162461bcd60e51b815260206004820152602660248201527f53616665436173743a2076616c756520646f65736e27742066697420696e203360448201527f322062697473000000000000000000000000000000000000000000000000000060648201526084016107c4565b5090565b8154600090818160058111156115fc5760006115ba84612261565b6115c490856143ef565b60008881526020902090915081015463ffffffff90811690871610156115ec578091506115fa565b6115f7816001614406565b92505b505b600061160a87878585612349565b9050801561165b5761162f876116216001846143ef565b600091825260209091200190565b5464010000000090047bffffffffffffffffffffffffffffffffffffffffffffffffffffffff1661165e565b60005b979650505050505050565b61012d546001600160a01b031633146108c55760405162461bcd60e51b815260206004820181905260248201527f4f776e61626c653a2063616c6c6572206973206e6f7420746865206f776e657260448201526064016107c4565b6116cc61239f565b60fb805460ff191690557f5db9ee0a495bf2e6ff9c91a7834c1ba4fdd244a5e8aa4e537bd38aeae4b073aa335b6040516001600160a01b03909116815260200160405180910390a1565b61074483838360405180602001604052806000815250610e89565b610921816123f1565b6060600061174783612431565b600101905060008167ffffffffffffffff8111156117675761176761409a565b6040519080825280601f01601f191660200182016040528015611791576020820181803683370190505b5090508181016020015b600019017f3031323334353637383961626364656600000000000000000000000000000000600a86061a8153600a850494508461179b575b509392505050565b6001600160a01b038281166000818152610193602052604080822080548686167fffffffffffffffffffffffff0000000000000000000000000000000000000000821681179092559151919094169392849290917f3134e8a2e6d97e929a7e54011ea5485d7d196dd5f0ba4d4ef95803e8e3fc257f9190a4610744818361186186612513565b61251e565b61012d80546001600160a01b038381167fffffffffffffffffffffffff0000000000000000000000000000000000000000831681179093556040519116919082907f8be0079c531659141344cd1fd0a4f28419497f9722a3daafe3b4186f6b6457e090600090a35050565b6118d96126e0565b60fb805460ff191660011790557f62e78cea01bee320cd4e420270b5ea74000d11b0c9f74754ebdbfc544b05a2586116f93390565b60606101618054610605906142ce565b60606101628054610605906142ce565b600065ffffffffffff82111561159b5760405162461bcd60e51b815260206004820152602660248201527f53616665436173743a2076616c756520646f65736e27742066697420696e203460448201527f382062697473000000000000000000000000000000000000000000000000000060648201526084016107c4565b805460009080156119f2576119c6836116216001846143ef565b5464010000000090047bffffffffffffffffffffffffffffffffffffffffffffffffffffffff166119f5565b60005b9392505050565b6106f7338383612733565b611a113383611f19565b611a835760405162461bcd60e51b815260206004820152602d60248201527f4552433732313a2063616c6c6572206973206e6f7420746f6b656e206f776e6560448201527f72206f7220617070726f7665640000000000000000000000000000000000000060648201526084016107c4565b610ed384848484612801565b60006105f0611a9c611515565b836040517f19010000000000000000000000000000000000000000000000000000000000008152600281019290925260228201526042902090565b6000806000611ae88787878761288a565b91509150611af58161296c565b5090505b949350505050565b6001600160a01b0381166000908152610196602052604090208054600181018255905b50919050565b600054610100900460ff16611ba75760405162461bcd60e51b815260206004820152602b60248201527f496e697469616c697a61626c653a20636f6e7472616374206973206e6f74206960448201527f6e697469616c697a696e6700000000000000000000000000000000000000000060648201526084016107c4565b611bb16001612ad1565b611bbb8383612b62565b611bc3612be9565b611bcb612be9565b611bd3612c66565b611c12836040518060400160405280600181526020017f3100000000000000000000000000000000000000000000000000000000000000815250612ceb565b611c1a612be9565b61074481611866565b6060611c2e826112fe565b600082815260c9602052604081208054611c47906142ce565b80601f0160208091040260200160405190810160405280929190818152602001828054611c73906142ce565b8015611cc05780601f10611c9557610100808354040283529160200191611cc0565b820191906000526020600020905b815481529060010190602001808311611ca357829003601f168201915b505050505090506000611d0360408051808201909152601d81527f68747470733a2f2f6e66742e6b726f6d612e6e6574776f726b2f73632f000000602082015290565b90508051600003611d15575092915050565b815115611d47578082604051602001611d2f92919061444d565b60405160208183030381529060405292505050919050565b611af984612d72565b6106f7828260405180602001604052806000815250612e0a565b6000828152606760205260409020546001600160a01b0316611df45760405162461bcd60e51b815260206004820152602e60248201527f45524337323155524953746f726167653a2055524920736574206f66206e6f6e60448201527f6578697374656e7420746f6b656e00000000000000000000000000000000000060648201526084016107c4565b600082815260c960205260409020611e0c82826144ca565b506040518281527ff8e1a15aba9398e019f0b49df1a4fde98ee17ae345cb5f6b5e2c27f5033e8ce7906020016111cb565b60007fffffffff0000000000000000000000000000000000000000000000000000000082167f780e9d630000000000000000000000000000000000000000000000000000000014806105f057506105f082612e93565b600081815260696020526040902080547fffffffffffffffffffffffff0000000000000000000000000000000000000000166001600160a01b0384169081179091558190611ee082610b0e565b6001600160a01b03167f8c5be1e5ebec7d5bd14f71427d1e84f3dd0314c0f7b2291e5b200ac8c7c3b92560405160405180910390a45050565b600080611f2583610b0e565b9050806001600160a01b0316846001600160a01b03161480611f6c57506001600160a01b038082166000908152606a602090815260408083209388168352929052205460ff165b80611af95750836001600160a01b0316611f8584610688565b6001600160a01b031614949350505050565b826001600160a01b0316611faa82610b0e565b6001600160a01b0316146120265760405162461bcd60e51b815260206004820152602560248201527f4552433732313a207472616e736665722066726f6d20696e636f72726563742060448201527f6f776e657200000000000000000000000000000000000000000000000000000060648201526084016107c4565b6001600160a01b0382166120a15760405162461bcd60e51b8152602060048201526024808201527f4552433732313a207472616e7366657220746f20746865207a65726f2061646460448201527f726573730000000000000000000000000000000000000000000000000000000060648201526084016107c4565b6120ae8383836001612f76565b826001600160a01b03166120c182610b0e565b6001600160a01b03161461213d5760405162461bcd60e51b815260206004820152602560248201527f4552433732313a207472616e736665722066726f6d20696e636f72726563742060448201527f6f776e657200000000000000000000000000000000000000000000000000000060648201526084016107c4565b600081815260696020908152604080832080547fffffffffffffffffffffffff00000000000000000000000000000000000000009081169091556001600160a01b0387811680865260688552838620805460001901905590871680865283862080546001019055868652606790945282852080549092168417909155905184937fddf252ad1be2c89b69c2b068fc378daa952ba7f163c4a11628f55a4df523b3ef91a46107448383836001612f8a565b60007f8b73c3c69bb8fe3d512ecc4cf759cc79239f7b179b0ffacaa9a75d522b39400f612218612f96565b612220612ff0565b60408051602081019490945283019190915260608201524660808201523060a082015260c00160405160208183030381529060405280519060200120905090565b60008160000361227357506000919050565b6000600161228084613022565b901c6001901b905060018184816122995761229961441e565b048201901c905060018184816122b1576122b161441e565b048201901c905060018184816122c9576122c961441e565b048201901c905060018184816122e1576122e161441e565b048201901c905060018184816122f9576122f961441e565b048201901c905060018184816123115761231161441e565b048201901c905060018184816123295761232961441e565b048201901c90506119f5818285816123435761234361441e565b046130b6565b60005b818310156117d357600061236084846130cc565b60008781526020902090915063ffffffff86169082015463ffffffff16111561238b57809250612399565b612396816001614406565b93505b5061234c565b60fb5460ff166108c55760405162461bcd60e51b815260206004820152601460248201527f5061757361626c653a206e6f742070617573656400000000000000000000000060448201526064016107c4565b6123fa816130e7565b600081815260c9602052604090208054612413906142ce565b15905061092157600081815260c96020526040812061092191613dd8565b6000807a184f03e93ff9f4daa797ed6e38ed64bf6a1f010000000000000000831061247a577a184f03e93ff9f4daa797ed6e38ed64bf6a1f010000000000000000830492506040015b6d04ee2d6d415b85acef810000000083106124a6576d04ee2d6d415b85acef8100000000830492506020015b662386f26fc1000083106124c457662386f26fc10000830492506010015b6305f5e10083106124dc576305f5e100830492506008015b61271083106124f057612710830492506004015b60648310612502576064830492506002015b600a83106105f05760010192915050565b60006105f082610b73565b816001600160a01b0316836001600160a01b0316141580156125405750600081115b15610744576001600160a01b03831615612613576001600160a01b0383166000908152610194602052604081208190612584906131ac61257f866131b8565b61324c565b7bffffffffffffffffffffffffffffffffffffffffffffffffffffffff1691507bffffffffffffffffffffffffffffffffffffffffffffffffffffffff169150846001600160a01b03167fdec2bacdd2f05b59de34da9b523dff8be42e5e38e818c82fdb0bae774387a7248383604051612608929190918252602082015260400190565b60405180910390a250505b6001600160a01b03821615610744576001600160a01b038216600090815261019460205260408120819061264d9061329561257f866131b8565b7bffffffffffffffffffffffffffffffffffffffffffffffffffffffff1691507bffffffffffffffffffffffffffffffffffffffffffffffffffffffff169150836001600160a01b03167fdec2bacdd2f05b59de34da9b523dff8be42e5e38e818c82fdb0bae774387a72483836040516126d1929190918252602082015260400190565b60405180910390a25050505050565b60fb5460ff16156108c55760405162461bcd60e51b815260206004820152601060248201527f5061757361626c653a207061757365640000000000000000000000000000000060448201526064016107c4565b816001600160a01b0316836001600160a01b0316036127945760405162461bcd60e51b815260206004820152601960248201527f4552433732313a20617070726f766520746f2063616c6c65720000000000000060448201526064016107c4565b6001600160a01b038381166000818152606a6020908152604080832094871680845294825291829020805460ff191686151590811790915591519182527f17307eab39ab6107e8899845ad3d59bd9653f200f220920489ca2b5937696c31910160405180910390a3505050565b61280c848484611f97565b612818848484846132a1565b610ed35760405162461bcd60e51b815260206004820152603260248201527f4552433732313a207472616e7366657220746f206e6f6e20455243373231526560448201527f63656976657220696d706c656d656e746572000000000000000000000000000060648201526084016107c4565b6000807f7fffffffffffffffffffffffffffffff5d576e7357a4501ddfe92f46681b20a08311156128c15750600090506003612963565b6040805160008082526020820180845289905260ff881692820192909252606081018690526080810185905260019060a0016020604051602081039080840390855afa158015612915573d6000803e3d6000fd5b50506040517fffffffffffffffffffffffffffffffffffffffffffffffffffffffffffffffe001519150506001600160a01b03811661295c57600060019250925050612963565b9150600090505b94509492505050565b6000816004811115612980576129806145a8565b036129885750565b600181600481111561299c5761299c6145a8565b036129e95760405162461bcd60e51b815260206004820152601860248201527f45434453413a20696e76616c6964207369676e6174757265000000000000000060448201526064016107c4565b60028160048111156129fd576129fd6145a8565b03612a4a5760405162461bcd60e51b815260206004820152601f60248201527f45434453413a20696e76616c6964207369676e6174757265206c656e6774680060448201526064016107c4565b6003816004811115612a5e57612a5e6145a8565b036109215760405162461bcd60e51b815260206004820152602260248201527f45434453413a20696e76616c6964207369676e6174757265202773272076616c60448201527f756500000000000000000000000000000000000000000000000000000000000060648201526084016107c4565b600054610100900460ff16612b4e5760405162461bcd60e51b815260206004820152602b60248201527f496e697469616c697a61626c653a20636f6e7472616374206973206e6f74206960448201527f6e697469616c697a696e6700000000000000000000000000000000000000000060648201526084016107c4565b6101f8805460ff1916911515919091179055565b600054610100900460ff16612bdf5760405162461bcd60e51b815260206004820152602b60248201527f496e697469616c697a61626c653a20636f6e7472616374206973206e6f74206960448201527f6e697469616c697a696e6700000000000000000000000000000000000000000060648201526084016107c4565b6106f7828261345d565b600054610100900460ff166108c55760405162461bcd60e51b815260206004820152602b60248201527f496e697469616c697a61626c653a20636f6e7472616374206973206e6f74206960448201527f6e697469616c697a696e6700000000000000000000000000000000000000000060648201526084016107c4565b600054610100900460ff16612ce35760405162461bcd60e51b815260206004820152602b60248201527f496e697469616c697a61626c653a20636f6e7472616374206973206e6f74206960448201527f6e697469616c697a696e6700000000000000000000000000000000000000000060648201526084016107c4565b6108c56134f3565b600054610100900460ff16612d685760405162461bcd60e51b815260206004820152602b60248201527f496e697469616c697a61626c653a20636f6e7472616374206973206e6f74206960448201527f6e697469616c697a696e6700000000000000000000000000000000000000000060648201526084016107c4565b6106f7828261357c565b6060612d7d826112fe565b6000612db960408051808201909152601d81527f68747470733a2f2f6e66742e6b726f6d612e6e6574776f726b2f73632f000000602082015290565b90506000815111612dd957604051806020016040528060008152506119f5565b80612de384613625565b604051602001612df492919061444d565b6040516020818303038152906040529392505050565b612e1483836136c3565b612e2160008484846132a1565b6107445760405162461bcd60e51b815260206004820152603260248201527f4552433732313a207472616e7366657220746f206e6f6e20455243373231526560448201527f63656976657220696d706c656d656e746572000000000000000000000000000060648201526084016107c4565b60007fffffffff0000000000000000000000000000000000000000000000000000000082167f80ac58cd000000000000000000000000000000000000000000000000000000001480612f2657507fffffffff0000000000000000000000000000000000000000000000000000000082167f5b5e139f00000000000000000000000000000000000000000000000000000000145b806105f057507f01ffc9a7000000000000000000000000000000000000000000000000000000007fffffffff000000000000000000000000000000000000000000000000000000008316146105f0565b612f7e6126e0565b610ed38484848461387e565b610ed3848484846139ba565b600080612fa161190e565b805190915015612fb8578051602090910120919050565b61015f548015612fc85792915050565b7fc5d2460186f7233c927e7db2dcc703c0e500b653ca82273b7bfad8045d85a4709250505090565b600080612ffb61191e565b805190915015613012578051602090910120919050565b610160548015612fc85792915050565b600080608083901c1561303757608092831c92015b604083901c1561304957604092831c92015b602083901c1561305b57602092831c92015b601083901c1561306d57601092831c92015b600883901c1561307f57600892831c92015b600483901c1561309157600492831c92015b600283901c156130a357600292831c92015b600183901c156105f05760010192915050565b60008183106130c557816119f5565b5090919050565b60006130db60028484186145d7565b6119f590848416614406565b60006130f282610b0e565b9050613102816000846001612f76565b61310b82610b0e565b600083815260696020908152604080832080547fffffffffffffffffffffffff00000000000000000000000000000000000000009081169091556001600160a01b0385168085526068845282852080546000190190558785526067909352818420805490911690555192935084927fddf252ad1be2c89b69c2b068fc378daa952ba7f163c4a11628f55a4df523b3ef908390a46106f7816000846001612f8a565b60006119f58284614612565b60007bffffffffffffffffffffffffffffffffffffffffffffffffffffffff82111561159b5760405162461bcd60e51b815260206004820152602760248201527f53616665436173743a2076616c756520646f65736e27742066697420696e203260448201527f323420626974730000000000000000000000000000000000000000000000000060648201526084016107c4565b60008061328861326a61325d610dab565b65ffffffffffff1661151f565b613280613276886119ac565b868863ffffffff16565b8791906139ca565b915091505b935093915050565b60006119f5828461464f565b60006001600160a01b0384163b15613455576040517f150b7a020000000000000000000000000000000000000000000000000000000081526001600160a01b0385169063150b7a02906132fe903390899088908890600401614686565b6020604051808303816000875af1925050508015613357575060408051601f3d9081017fffffffffffffffffffffffffffffffffffffffffffffffffffffffffffffffe0168201909252613354918101906146c2565b60015b61340a573d808015613385576040519150601f19603f3d011682016040523d82523d6000602084013e61338a565b606091505b5080516000036134025760405162461bcd60e51b815260206004820152603260248201527f4552433732313a207472616e7366657220746f206e6f6e20455243373231526560448201527f63656976657220696d706c656d656e746572000000000000000000000000000060648201526084016107c4565b805181602001fd5b7fffffffff00000000000000000000000000000000000000000000000000000000167f150b7a0200000000000000000000000000000000000000000000000000000000149050611af9565b506001611af9565b600054610100900460ff166134da5760405162461bcd60e51b815260206004820152602b60248201527f496e697469616c697a61626c653a20636f6e7472616374206973206e6f74206960448201527f6e697469616c697a696e6700000000000000000000000000000000000000000060648201526084016107c4565b60656134e683826144ca565b50606661074482826144ca565b600054610100900460ff166135705760405162461bcd60e51b815260206004820152602b60248201527f496e697469616c697a61626c653a20636f6e7472616374206973206e6f74206960448201527f6e697469616c697a696e6700000000000000000000000000000000000000000060648201526084016107c4565b60fb805460ff19169055565b600054610100900460ff166135f95760405162461bcd60e51b815260206004820152602b60248201527f496e697469616c697a61626c653a20636f6e7472616374206973206e6f74206960448201527f6e697469616c697a696e6700000000000000000000000000000000000000000060648201526084016107c4565b61016161360683826144ca565b5061016261361482826144ca565b5050600061015f8190556101605550565b6060600061363283612431565b600101905060008167ffffffffffffffff8111156136525761365261409a565b6040519080825280601f01601f19166020018201604052801561367c576020820181803683370190505b5090508181016020015b600019017f3031323334353637383961626364656600000000000000000000000000000000600a86061a8153600a8504945084156117d357613686565b6001600160a01b0382166137195760405162461bcd60e51b815260206004820181905260248201527f4552433732313a206d696e7420746f20746865207a65726f206164647265737360448201526064016107c4565b6000818152606760205260409020546001600160a01b03161561377e5760405162461bcd60e51b815260206004820152601c60248201527f4552433732313a20746f6b656e20616c7265616479206d696e7465640000000060448201526064016107c4565b61378c600083836001612f76565b6000818152606760205260409020546001600160a01b0316156137f15760405162461bcd60e51b815260206004820152601c60248201527f4552433732313a20746f6b656e20616c7265616479206d696e7465640000000060448201526064016107c4565b6001600160a01b038216600081815260686020908152604080832080546001019055848352606790915280822080547fffffffffffffffffffffffff0000000000000000000000000000000000000000168417905551839291907fddf252ad1be2c89b69c2b068fc378daa952ba7f163c4a11628f55a4df523b3ef908290a46106f7600083836001612f8a565b60018111156138f55760405162461bcd60e51b815260206004820152603560248201527f455243373231456e756d657261626c653a20636f6e736563757469766520747260448201527f616e7366657273206e6f7420737570706f72746564000000000000000000000060648201526084016107c4565b816001600160a01b0385166139515761394c81609980546000838152609a60205260408120829055600182018355919091527f72a152ddfb8e864297c917af52ea6c1c68aead0fee1a62673fcc7e0c94979d000155565b613974565b836001600160a01b0316856001600160a01b0316146139745761397485826139d8565b6001600160a01b0384166139905761398b81613a75565b6139b3565b846001600160a01b0316846001600160a01b0316146139b3576139b38482613b24565b5050505050565b6139c5848483613b68565b610ed3565b600080613288858585613be1565b600060016139e584610b73565b6139ef91906143ef565b600083815260986020526040902054909150808214613a42576001600160a01b03841660009081526097602090815260408083208584528252808320548484528184208190558352609890915290208190555b5060009182526098602090815260408084208490556001600160a01b039094168352609781528383209183525290812055565b609954600090613a87906001906143ef565b6000838152609a602052604081205460998054939450909284908110613aaf57613aaf61431b565b906000526020600020015490508060998381548110613ad057613ad061431b565b6000918252602080832090910192909255828152609a90915260408082208490558582528120556099805480613b0857613b086146df565b6001900381819060005260206000200160009055905550505050565b6000613b2f83610b73565b6001600160a01b039093166000908152609760209081526040808320868452825280832085905593825260989052919091209190915550565b6001600160a01b038316613b8b57613b8861019561329561257f846131b8565b50505b6001600160a01b038216613bae57613bab6101956131ac61257f846131b8565b50505b6001600160a01b03838116600090815261019360205260408082205485841683529120546107449291821691168361251e565b825460009081908015613d69576000613bff876116216001856143ef565b60408051808201909152905463ffffffff8082168084526401000000009092047bffffffffffffffffffffffffffffffffffffffffffffffffffffffff1660208401529192509087161015613c965760405162461bcd60e51b815260206004820152601b60248201527f436865636b706f696e743a2064656372656173696e67206b657973000000000060448201526064016107c4565b805163ffffffff808816911603613cf45784613cb7886116216001866143ef565b80547bffffffffffffffffffffffffffffffffffffffffffffffffffffffff929092166401000000000263ffffffff909216919091179055613d59565b6040805180820190915263ffffffff80881682527bffffffffffffffffffffffffffffffffffffffffffffffffffffffff80881660208085019182528b54600181018d5560008d81529190912094519151909216640100000000029216919091179101555b60200151925083915061328d9050565b50506040805180820190915263ffffffff80851682527bffffffffffffffffffffffffffffffffffffffffffffffffffffffff80851660208085019182528854600181018a5560008a81529182209551925190931664010000000002919093161792019190915590508161328d565b508054613de4906142ce565b6000825580601f10613df4575050565b601f01602090049060005260206000209081019061092191905b8082111561159b5760008155600101613e0e565b7fffffffff000000000000000000000000000000000000000000000000000000008116811461092157600080fd5b600060208284031215613e6257600080fd5b81356119f581613e22565b60005b83811015613e88578181015183820152602001613e70565b83811115610ed35750506000910152565b60008151808452613eb1816020860160208601613e6d565b601f017fffffffffffffffffffffffffffffffffffffffffffffffffffffffffffffffe0169290920160200192915050565b6020815260006119f56020830184613e99565b600060208284031215613f0857600080fd5b5035919050565b80356001600160a01b0381168114613f2657600080fd5b919050565b60008060408385031215613f3e57600080fd5b613f4783613f0f565b946020939093013593505050565b600080600060608486031215613f6a57600080fd5b613f7384613f0f565b9250613f8160208501613f0f565b9150604084013590509250925092565b600060208284031215613fa357600080fd5b6119f582613f0f565b7fff00000000000000000000000000000000000000000000000000000000000000881681526000602060e081840152613fe860e084018a613e99565b8381036040850152613ffa818a613e99565b606085018990526001600160a01b038816608086015260a0850187905284810360c0860152855180825283870192509083019060005b8181101561404c57835183529284019291840191600101614030565b50909c9b505050505050505050505050565b6000806040838503121561407157600080fd5b61407a83613f0f565b91506020830135801515811461408f57600080fd5b809150509250929050565b7f4e487b7100000000000000000000000000000000000000000000000000000000600052604160045260246000fd5b600067ffffffffffffffff808411156140e4576140e461409a565b604051601f85017fffffffffffffffffffffffffffffffffffffffffffffffffffffffffffffffe0908116603f0116810190828211818310171561412a5761412a61409a565b8160405280935085815286868601111561414357600080fd5b858560208301376000602087830101525050509392505050565b6000806000806080858703121561417357600080fd5b61417c85613f0f565b935061418a60208601613f0f565b925060408501359150606085013567ffffffffffffffff8111156141ad57600080fd5b8501601f810187136141be57600080fd5b6141cd878235602084016140c9565b91505092959194509250565b60008060008060008060c087890312156141f257600080fd5b6141fb87613f0f565b95506020870135945060408701359350606087013560ff8116811461421f57600080fd5b9598949750929560808101359460a0909101359350915050565b6000806040838503121561424c57600080fd5b61425583613f0f565b9150602083013567ffffffffffffffff81111561427157600080fd5b8301601f8101851361428257600080fd5b614291858235602084016140c9565b9150509250929050565b600080604083850312156142ae57600080fd5b6142b783613f0f565b91506142c560208401613f0f565b90509250929050565b600181811c908216806142e257607f821691505b602082108103611b24577f4e487b7100000000000000000000000000000000000000000000000000000000600052602260045260246000fd5b7f4e487b7100000000000000000000000000000000000000000000000000000000600052603260045260246000fd5b6000845161435c818460208901613e6d565b80830190507f2e000000000000000000000000000000000000000000000000000000000000008082528551614398816001850160208a01613e6d565b600192019182015283516143b3816002840160208801613e6d565b0160020195945050505050565b7f4e487b7100000000000000000000000000000000000000000000000000000000600052601160045260246000fd5b600082821015614401576144016143c0565b500390565b60008219821115614419576144196143c0565b500190565b7f4e487b7100000000000000000000000000000000000000000000000000000000600052601260045260246000fd5b6000835161445f818460208801613e6d565b835190830190614473818360208801613e6d565b01949350505050565b601f82111561074457600081815260208120601f850160051c810160208610156144a35750805b601f850160051c820191505b818110156144c2578281556001016144af565b505050505050565b815167ffffffffffffffff8111156144e4576144e461409a565b6144f8816144f284546142ce565b8461447c565b602080601f83116001811461452d57600084156145155750858301515b600019600386901b1c1916600185901b1785556144c2565b6000858152602081207fffffffffffffffffffffffffffffffffffffffffffffffffffffffffffffffe08616915b8281101561457a5788860151825594840194600190910190840161455b565b50858210156145985787850151600019600388901b60f8161c191681555b5050505050600190811b01905550565b7f4e487b7100000000000000000000000000000000000000000000000000000000600052602160045260246000fd5b60008261460d577f4e487b7100000000000000000000000000000000000000000000000000000000600052601260045260246000fd5b500490565b60007bffffffffffffffffffffffffffffffffffffffffffffffffffffffff83811690831681811015614647576146476143c0565b039392505050565b60007bffffffffffffffffffffffffffffffffffffffffffffffffffffffff808316818516808303821115614473576144736143c0565b60006001600160a01b038087168352808616602084015250836040830152608060608301526146b86080830184613e99565b9695505050505050565b6000602082840312156146d457600080fd5b81516119f581613e22565b7f4e487b7100000000000000000000000000000000000000000000000000000000600052603160045260246000fdfea164736f6c634300080f000a",
  "devdoc": {
    "version": 1,
    "kind": "dev",
    "methods": {
      "CLOCK_MODE()": {
        "details": "Machine-readable description of the clock as specified in EIP-6372."
      },
      "DOMAIN_SEPARATOR()": {
        "details": "Returns the contract's {EIP712} domain separator."
      },
      "balanceOf(address)": {
        "details": "See {IERC721-balanceOf}."
      },
      "clock()": {
        "details": "Clock used for flagging checkpoints. Can be overridden to implement timestamp based checkpoints (and voting), in which case {CLOCK_MODE} should be overridden as well to match."
      },
      "constructor": {},
      "delegate(address)": {
        "details": "Delegates votes from the sender to `delegatee`."
      },
      "delegateBySig(address,uint256,uint256,uint8,bytes32,bytes32)": {
        "details": "Delegates votes from signer to `delegatee`."
      },
      "delegates(address)": {
        "details": "Returns the delegate that `account` has chosen."
      },
      "eip712Domain()": {
        "details": "See {EIP-5267}. _Available since v4.9._"
      },
      "getApproved(uint256)": {
        "details": "See {IERC721-getApproved}."
      },
      "getPastTotalSupply(uint256)": {
        "details": "Returns the total supply of votes available at a specific moment in the past. If the `clock()` is configured to use block numbers, this will return the value at the end of the corresponding block. NOTE: This value is the sum of all available votes, which is not necessarily the sum of all delegated votes. Votes that have not been delegated are still part of total supply, even though they would not participate in a vote. Requirements: - `timepoint` must be in the past. If operating using block numbers, the block must be already mined."
      },
      "getPastVotes(address,uint256)": {
        "details": "Returns the amount of votes that `account` had at a specific moment in the past. If the `clock()` is configured to use block numbers, this will return the value at the end of the corresponding block. Requirements: - `timepoint` must be in the past. If operating using block numbers, the block must be already mined."
      },
      "getVotes(address)": {
        "details": "Returns the current amount of votes that `account` has."
      },
      "initialize(address)": {
        "params": {
          "_owner": "Owner of this token contract."
        }
      },
      "isApprovedForAll(address,address)": {
        "details": "See {IERC721-isApprovedForAll}."
      },
      "locked(uint256)": {
        "details": "SBTs assigned to zero address are considered invalid, and queries about them do throw.",
        "params": {
          "tokenId": "The identifier for an SBT."
        }
      },
      "name()": {
        "details": "See {IERC721Metadata-name}."
      },
      "nonces(address)": {
        "details": "Returns an address nonce."
      },
      "owner()": {
        "details": "Returns the address of the current owner."
      },
      "ownerOf(uint256)": {
        "details": "See {IERC721-ownerOf}."
      },
      "paused()": {
        "details": "Returns true if the contract is paused, and false otherwise."
      },
      "renounceOwnership()": {
        "details": "Leaves the contract without owner. It will not be possible to call `onlyOwner` functions. Can only be called by the current owner. NOTE: Renouncing ownership will leave the contract without an owner, thereby disabling any functionality that is only available to the owner."
      },
      "symbol()": {
        "details": "See {IERC721Metadata-symbol}."
      },
      "tokenByIndex(uint256)": {
        "details": "See {IERC721Enumerable-tokenByIndex}."
      },
      "tokenOfOwnerByIndex(address,uint256)": {
        "details": "See {IERC721Enumerable-tokenOfOwnerByIndex}."
      },
      "totalSupply()": {
        "details": "See {IERC721Enumerable-totalSupply}."
      },
      "transferOwnership(address)": {
        "details": "Transfers ownership of the contract to a new account (`newOwner`). Can only be called by the current owner."
      },
      "version()": {
        "returns": {
          "_0": "Semver contract version as a string."
        }
      }
    }
  },
  "userdoc": {
    "version": 1,
    "kind": "user",
    "methods": {
      "initialize(address)": {
        "notice": "Initializer."
      },
      "locked(uint256)": {
        "notice": "Returns the locking status of an Soulbound Token"
      },
      "version()": {
        "notice": "Returns the full semver contract version."
      }
    },
    "events": {
      "Locked(uint256)": {
        "notice": "Emitted when the locking status is changed to locked."
      },
      "Unlocked(uint256)": {
        "notice": "Emitted when the locking status is changed to unlocked."
      }
    },
    "notice": "The SecurityCouncilToken is a basic token based on KromaSoulBoundERC721."
  },
  "storageLayout": {
    "storage": [
      {
        "astId": 1406,
        "contract": "contracts/governance/SecurityCouncilToken.sol:SecurityCouncilToken",
        "label": "_initialized",
        "offset": 0,
        "slot": "0",
        "type": "t_uint8"
      },
      {
        "astId": 1409,
        "contract": "contracts/governance/SecurityCouncilToken.sol:SecurityCouncilToken",
        "label": "_initializing",
        "offset": 1,
        "slot": "0",
        "type": "t_bool"
      },
      {
        "astId": 5374,
        "contract": "contracts/governance/SecurityCouncilToken.sol:SecurityCouncilToken",
        "label": "__gap",
        "offset": 0,
        "slot": "1",
        "type": "t_array(t_uint256)50_storage"
      },
      {
        "astId": 6371,
        "contract": "contracts/governance/SecurityCouncilToken.sol:SecurityCouncilToken",
        "label": "__gap",
        "offset": 0,
        "slot": "51",
        "type": "t_array(t_uint256)50_storage"
      },
      {
        "astId": 1724,
        "contract": "contracts/governance/SecurityCouncilToken.sol:SecurityCouncilToken",
        "label": "_name",
        "offset": 0,
        "slot": "101",
        "type": "t_string_storage"
      },
      {
        "astId": 1726,
        "contract": "contracts/governance/SecurityCouncilToken.sol:SecurityCouncilToken",
        "label": "_symbol",
        "offset": 0,
        "slot": "102",
        "type": "t_string_storage"
      },
      {
        "astId": 1730,
        "contract": "contracts/governance/SecurityCouncilToken.sol:SecurityCouncilToken",
        "label": "_owners",
        "offset": 0,
        "slot": "103",
        "type": "t_mapping(t_uint256,t_address)"
      },
      {
        "astId": 1734,
        "contract": "contracts/governance/SecurityCouncilToken.sol:SecurityCouncilToken",
        "label": "_balances",
        "offset": 0,
        "slot": "104",
        "type": "t_mapping(t_address,t_uint256)"
      },
      {
        "astId": 1738,
        "contract": "contracts/governance/SecurityCouncilToken.sol:SecurityCouncilToken",
        "label": "_tokenApprovals",
        "offset": 0,
        "slot": "105",
        "type": "t_mapping(t_uint256,t_address)"
      },
      {
        "astId": 1744,
        "contract": "contracts/governance/SecurityCouncilToken.sol:SecurityCouncilToken",
        "label": "_operatorApprovals",
        "offset": 0,
        "slot": "106",
        "type": "t_mapping(t_address,t_mapping(t_address,t_bool))"
      },
      {
        "astId": 2646,
        "contract": "contracts/governance/SecurityCouncilToken.sol:SecurityCouncilToken",
        "label": "__gap",
        "offset": 0,
        "slot": "107",
        "type": "t_array(t_uint256)44_storage"
      },
      {
        "astId": 2811,
        "contract": "contracts/governance/SecurityCouncilToken.sol:SecurityCouncilToken",
        "label": "_ownedTokens",
        "offset": 0,
        "slot": "151",
        "type": "t_mapping(t_address,t_mapping(t_uint256,t_uint256))"
      },
      {
        "astId": 2815,
        "contract": "contracts/governance/SecurityCouncilToken.sol:SecurityCouncilToken",
        "label": "_ownedTokensIndex",
        "offset": 0,
        "slot": "152",
        "type": "t_mapping(t_uint256,t_uint256)"
      },
      {
        "astId": 2818,
        "contract": "contracts/governance/SecurityCouncilToken.sol:SecurityCouncilToken",
        "label": "_allTokens",
        "offset": 0,
        "slot": "153",
        "type": "t_array(t_uint256)dyn_storage"
      },
      {
        "astId": 2822,
        "contract": "contracts/governance/SecurityCouncilToken.sol:SecurityCouncilToken",
        "label": "_allTokensIndex",
        "offset": 0,
        "slot": "154",
        "type": "t_mapping(t_uint256,t_uint256)"
      },
      {
        "astId": 3154,
        "contract": "contracts/governance/SecurityCouncilToken.sol:SecurityCouncilToken",
        "label": "__gap",
        "offset": 0,
        "slot": "155",
        "type": "t_array(t_uint256)46_storage"
      },
      {
        "astId": 3186,
        "contract": "contracts/governance/SecurityCouncilToken.sol:SecurityCouncilToken",
        "label": "_tokenURIs",
        "offset": 0,
        "slot": "201",
        "type": "t_mapping(t_uint256,t_string_storage)"
      },
      {
        "astId": 3330,
        "contract": "contracts/governance/SecurityCouncilToken.sol:SecurityCouncilToken",
        "label": "__gap",
        "offset": 0,
        "slot": "202",
        "type": "t_array(t_uint256)49_storage"
      },
      {
        "astId": 1589,
        "contract": "contracts/governance/SecurityCouncilToken.sol:SecurityCouncilToken",
        "label": "_paused",
        "offset": 0,
        "slot": "251",
        "type": "t_bool"
      },
      {
        "astId": 1694,
        "contract": "contracts/governance/SecurityCouncilToken.sol:SecurityCouncilToken",
        "label": "__gap",
        "offset": 0,
        "slot": "252",
        "type": "t_array(t_uint256)49_storage"
      },
      {
        "astId": 552,
        "contract": "contracts/governance/SecurityCouncilToken.sol:SecurityCouncilToken",
        "label": "_owner",
        "offset": 0,
        "slot": "301",
        "type": "t_address"
      },
      {
        "astId": 672,
        "contract": "contracts/governance/SecurityCouncilToken.sol:SecurityCouncilToken",
        "label": "__gap",
        "offset": 0,
        "slot": "302",
        "type": "t_array(t_uint256)49_storage"
      },
      {
        "astId": 6062,
        "contract": "contracts/governance/SecurityCouncilToken.sol:SecurityCouncilToken",
        "label": "_hashedName",
        "offset": 0,
        "slot": "351",
        "type": "t_bytes32"
      },
      {
        "astId": 6065,
        "contract": "contracts/governance/SecurityCouncilToken.sol:SecurityCouncilToken",
        "label": "_hashedVersion",
        "offset": 0,
        "slot": "352",
        "type": "t_bytes32"
      },
      {
        "astId": 6067,
        "contract": "contracts/governance/SecurityCouncilToken.sol:SecurityCouncilToken",
        "label": "_name",
        "offset": 0,
        "slot": "353",
        "type": "t_string_storage"
      },
      {
        "astId": 6069,
        "contract": "contracts/governance/SecurityCouncilToken.sol:SecurityCouncilToken",
        "label": "_version",
        "offset": 0,
        "slot": "354",
        "type": "t_string_storage"
      },
      {
        "astId": 6327,
        "contract": "contracts/governance/SecurityCouncilToken.sol:SecurityCouncilToken",
        "label": "__gap",
        "offset": 0,
        "slot": "355",
        "type": "t_array(t_uint256)48_storage"
      },
      {
        "astId": 797,
        "contract": "contracts/governance/SecurityCouncilToken.sol:SecurityCouncilToken",
        "label": "_delegation",
        "offset": 0,
        "slot": "403",
        "type": "t_mapping(t_address,t_address)"
      },
      {
        "astId": 803,
        "contract": "contracts/governance/SecurityCouncilToken.sol:SecurityCouncilToken",
        "label": "_delegateCheckpoints",
        "offset": 0,
        "slot": "404",
        "type": "t_mapping(t_address,t_struct(Trace224)4333_storage)"
      },
      {
        "astId": 807,
        "contract": "contracts/governance/SecurityCouncilToken.sol:SecurityCouncilToken",
        "label": "_totalCheckpoints",
        "offset": 0,
        "slot": "405",
        "type": "t_struct(Trace224)4333_storage"
      },
      {
        "astId": 812,
        "contract": "contracts/governance/SecurityCouncilToken.sol:SecurityCouncilToken",
        "label": "_nonces",
        "offset": 0,
        "slot": "406",
        "type": "t_mapping(t_address,t_struct(Counter)5381_storage)"
      },
      {
        "astId": 1321,
        "contract": "contracts/governance/SecurityCouncilToken.sol:SecurityCouncilToken",
        "label": "__gap",
        "offset": 0,
        "slot": "407",
        "type": "t_array(t_uint256)46_storage"
      },
      {
        "astId": 3403,
        "contract": "contracts/governance/SecurityCouncilToken.sol:SecurityCouncilToken",
        "label": "__gap",
        "offset": 0,
        "slot": "453",
        "type": "t_array(t_uint256)50_storage"
      },
      {
        "astId": 100,
        "contract": "contracts/governance/SecurityCouncilToken.sol:SecurityCouncilToken",
        "label": "_tokenIdCounter",
        "offset": 0,
        "slot": "503",
        "type": "t_struct(Counter)5381_storage"
      },
      {
        "astId": 102,
        "contract": "contracts/governance/SecurityCouncilToken.sol:SecurityCouncilToken",
        "label": "isLocked",
        "offset": 0,
        "slot": "504",
        "type": "t_bool"
      }
    ],
    "types": {
      "t_address": {
        "encoding": "inplace",
        "label": "address",
        "numberOfBytes": "20"
      },
      "t_array(t_struct(Checkpoint224)4338_storage)dyn_storage": {
        "encoding": "dynamic_array",
        "label": "struct CheckpointsUpgradeable.Checkpoint224[]",
        "numberOfBytes": "32",
        "base": "t_struct(Checkpoint224)4338_storage"
      },
      "t_array(t_uint256)44_storage": {
        "encoding": "inplace",
        "label": "uint256[44]",
        "numberOfBytes": "1408",
        "base": "t_uint256"
      },
      "t_array(t_uint256)46_storage": {
        "encoding": "inplace",
        "label": "uint256[46]",
        "numberOfBytes": "1472",
        "base": "t_uint256"
      },
      "t_array(t_uint256)48_storage": {
        "encoding": "inplace",
        "label": "uint256[48]",
        "numberOfBytes": "1536",
        "base": "t_uint256"
      },
      "t_array(t_uint256)49_storage": {
        "encoding": "inplace",
        "label": "uint256[49]",
        "numberOfBytes": "1568",
        "base": "t_uint256"
      },
      "t_array(t_uint256)50_storage": {
        "encoding": "inplace",
        "label": "uint256[50]",
        "numberOfBytes": "1600",
        "base": "t_uint256"
      },
      "t_array(t_uint256)dyn_storage": {
        "encoding": "dynamic_array",
        "label": "uint256[]",
        "numberOfBytes": "32",
        "base": "t_uint256"
      },
      "t_bool": {
        "encoding": "inplace",
        "label": "bool",
        "numberOfBytes": "1"
      },
      "t_bytes32": {
        "encoding": "inplace",
        "label": "bytes32",
        "numberOfBytes": "32"
      },
      "t_mapping(t_address,t_address)": {
        "encoding": "mapping",
        "key": "t_address",
        "label": "mapping(address => address)",
        "numberOfBytes": "32",
        "value": "t_address"
      },
      "t_mapping(t_address,t_bool)": {
        "encoding": "mapping",
        "key": "t_address",
        "label": "mapping(address => bool)",
        "numberOfBytes": "32",
        "value": "t_bool"
      },
      "t_mapping(t_address,t_mapping(t_address,t_bool))": {
        "encoding": "mapping",
        "key": "t_address",
        "label": "mapping(address => mapping(address => bool))",
        "numberOfBytes": "32",
        "value": "t_mapping(t_address,t_bool)"
      },
      "t_mapping(t_address,t_mapping(t_uint256,t_uint256))": {
        "encoding": "mapping",
        "key": "t_address",
        "label": "mapping(address => mapping(uint256 => uint256))",
        "numberOfBytes": "32",
        "value": "t_mapping(t_uint256,t_uint256)"
      },
      "t_mapping(t_address,t_struct(Counter)5381_storage)": {
        "encoding": "mapping",
        "key": "t_address",
        "label": "mapping(address => struct CountersUpgradeable.Counter)",
        "numberOfBytes": "32",
        "value": "t_struct(Counter)5381_storage"
      },
      "t_mapping(t_address,t_struct(Trace224)4333_storage)": {
        "encoding": "mapping",
        "key": "t_address",
        "label": "mapping(address => struct CheckpointsUpgradeable.Trace224)",
        "numberOfBytes": "32",
        "value": "t_struct(Trace224)4333_storage"
      },
      "t_mapping(t_address,t_uint256)": {
        "encoding": "mapping",
        "key": "t_address",
        "label": "mapping(address => uint256)",
        "numberOfBytes": "32",
        "value": "t_uint256"
      },
      "t_mapping(t_uint256,t_address)": {
        "encoding": "mapping",
        "key": "t_uint256",
        "label": "mapping(uint256 => address)",
        "numberOfBytes": "32",
        "value": "t_address"
      },
      "t_mapping(t_uint256,t_string_storage)": {
        "encoding": "mapping",
        "key": "t_uint256",
        "label": "mapping(uint256 => string)",
        "numberOfBytes": "32",
        "value": "t_string_storage"
      },
      "t_mapping(t_uint256,t_uint256)": {
        "encoding": "mapping",
        "key": "t_uint256",
        "label": "mapping(uint256 => uint256)",
        "numberOfBytes": "32",
        "value": "t_uint256"
      },
      "t_string_storage": {
        "encoding": "bytes",
        "label": "string",
        "numberOfBytes": "32"
      },
      "t_struct(Checkpoint224)4338_storage": {
        "encoding": "inplace",
        "label": "struct CheckpointsUpgradeable.Checkpoint224",
        "numberOfBytes": "32",
        "members": [
          {
            "astId": 4335,
            "contract": "contracts/governance/SecurityCouncilToken.sol:SecurityCouncilToken",
            "label": "_key",
            "offset": 0,
            "slot": "0",
            "type": "t_uint32"
          },
          {
            "astId": 4337,
            "contract": "contracts/governance/SecurityCouncilToken.sol:SecurityCouncilToken",
            "label": "_value",
            "offset": 4,
            "slot": "0",
            "type": "t_uint224"
          }
        ]
      },
      "t_struct(Counter)5381_storage": {
        "encoding": "inplace",
        "label": "struct CountersUpgradeable.Counter",
        "numberOfBytes": "32",
        "members": [
          {
            "astId": 5380,
            "contract": "contracts/governance/SecurityCouncilToken.sol:SecurityCouncilToken",
            "label": "_value",
            "offset": 0,
            "slot": "0",
            "type": "t_uint256"
          }
        ]
      },
      "t_struct(Trace224)4333_storage": {
        "encoding": "inplace",
        "label": "struct CheckpointsUpgradeable.Trace224",
        "numberOfBytes": "32",
        "members": [
          {
            "astId": 4332,
            "contract": "contracts/governance/SecurityCouncilToken.sol:SecurityCouncilToken",
            "label": "_checkpoints",
            "offset": 0,
            "slot": "0",
            "type": "t_array(t_struct(Checkpoint224)4338_storage)dyn_storage"
          }
        ]
      },
      "t_uint224": {
        "encoding": "inplace",
        "label": "uint224",
        "numberOfBytes": "28"
      },
      "t_uint256": {
        "encoding": "inplace",
        "label": "uint256",
        "numberOfBytes": "32"
      },
      "t_uint32": {
        "encoding": "inplace",
        "label": "uint32",
        "numberOfBytes": "4"
      },
      "t_uint8": {
        "encoding": "inplace",
        "label": "uint8",
        "numberOfBytes": "1"
      }
    }
  }
}