{
  "address": "0x38e397cECCEaFa1Ce598c45aeEE0550d5a6eA8F8",
  "abi": [
    {
      "inputs": [],
      "stateMutability": "nonpayable",
      "type": "constructor"
    },
    {
      "inputs": [],
      "name": "ErrLocked",
      "type": "error"
    },
    {
      "inputs": [],
      "name": "ErrNotFound",
      "type": "error"
    },
    {
      "anonymous": false,
      "inputs": [
        {
          "indexed": true,
          "internalType": "address",
          "name": "owner",
          "type": "address"
        },
        {
          "indexed": true,
          "internalType": "address",
          "name": "approved",
          "type": "address"
        },
        {
          "indexed": true,
          "internalType": "uint256",
          "name": "tokenId",
          "type": "uint256"
        }
      ],
      "name": "Approval",
      "type": "event"
    },
    {
      "anonymous": false,
      "inputs": [
        {
          "indexed": true,
          "internalType": "address",
          "name": "owner",
          "type": "address"
        },
        {
          "indexed": true,
          "internalType": "address",
          "name": "operator",
          "type": "address"
        },
        {
          "indexed": false,
          "internalType": "bool",
          "name": "approved",
          "type": "bool"
        }
      ],
      "name": "ApprovalForAll",
      "type": "event"
    },
    {
      "anonymous": false,
      "inputs": [
        {
          "indexed": false,
          "internalType": "uint256",
          "name": "_fromTokenId",
          "type": "uint256"
        },
        {
          "indexed": false,
          "internalType": "uint256",
          "name": "_toTokenId",
          "type": "uint256"
        }
      ],
      "name": "BatchMetadataUpdate",
      "type": "event"
    },
    {
      "anonymous": false,
      "inputs": [
        {
          "indexed": true,
          "internalType": "address",
          "name": "delegator",
          "type": "address"
        },
        {
          "indexed": true,
          "internalType": "address",
          "name": "fromDelegate",
          "type": "address"
        },
        {
          "indexed": true,
          "internalType": "address",
          "name": "toDelegate",
          "type": "address"
        }
      ],
      "name": "DelegateChanged",
      "type": "event"
    },
    {
      "anonymous": false,
      "inputs": [
        {
          "indexed": true,
          "internalType": "address",
          "name": "delegate",
          "type": "address"
        },
        {
          "indexed": false,
          "internalType": "uint256",
          "name": "previousBalance",
          "type": "uint256"
        },
        {
          "indexed": false,
          "internalType": "uint256",
          "name": "newBalance",
          "type": "uint256"
        }
      ],
      "name": "DelegateVotesChanged",
      "type": "event"
    },
    {
      "anonymous": false,
      "inputs": [],
      "name": "EIP712DomainChanged",
      "type": "event"
    },
    {
      "anonymous": false,
      "inputs": [
        {
          "indexed": false,
          "internalType": "uint8",
          "name": "version",
          "type": "uint8"
        }
      ],
      "name": "Initialized",
      "type": "event"
    },
    {
      "anonymous": false,
      "inputs": [
        {
          "indexed": false,
          "internalType": "uint256",
          "name": "tokenId",
          "type": "uint256"
        }
      ],
      "name": "Locked",
      "type": "event"
    },
    {
      "anonymous": false,
      "inputs": [
        {
          "indexed": false,
          "internalType": "uint256",
          "name": "_tokenId",
          "type": "uint256"
        }
      ],
      "name": "MetadataUpdate",
      "type": "event"
    },
    {
      "anonymous": false,
      "inputs": [
        {
          "indexed": true,
          "internalType": "address",
          "name": "previousOwner",
          "type": "address"
        },
        {
          "indexed": true,
          "internalType": "address",
          "name": "newOwner",
          "type": "address"
        }
      ],
      "name": "OwnershipTransferred",
      "type": "event"
    },
    {
      "anonymous": false,
      "inputs": [
        {
          "indexed": false,
          "internalType": "address",
          "name": "account",
          "type": "address"
        }
      ],
      "name": "Paused",
      "type": "event"
    },
    {
      "anonymous": false,
      "inputs": [
        {
          "indexed": true,
          "internalType": "address",
          "name": "from",
          "type": "address"
        },
        {
          "indexed": true,
          "internalType": "address",
          "name": "to",
          "type": "address"
        },
        {
          "indexed": true,
          "internalType": "uint256",
          "name": "tokenId",
          "type": "uint256"
        }
      ],
      "name": "Transfer",
      "type": "event"
    },
    {
      "anonymous": false,
      "inputs": [
        {
          "indexed": false,
          "internalType": "uint256",
          "name": "tokenId",
          "type": "uint256"
        }
      ],
      "name": "Unlocked",
      "type": "event"
    },
    {
      "anonymous": false,
      "inputs": [
        {
          "indexed": false,
          "internalType": "address",
          "name": "account",
          "type": "address"
        }
      ],
      "name": "Unpaused",
      "type": "event"
    },
    {
      "inputs": [],
      "name": "CLOCK_MODE",
      "outputs": [
        {
          "internalType": "string",
          "name": "",
          "type": "string"
        }
      ],
      "stateMutability": "view",
      "type": "function"
    },
    {
      "inputs": [],
      "name": "DOMAIN_SEPARATOR",
      "outputs": [
        {
          "internalType": "bytes32",
          "name": "",
          "type": "bytes32"
        }
      ],
      "stateMutability": "view",
      "type": "function"
    },
    {
      "inputs": [
        {
          "internalType": "address",
          "name": "approved",
          "type": "address"
        },
        {
          "internalType": "uint256",
          "name": "tokenId",
          "type": "uint256"
        }
      ],
      "name": "approve",
      "outputs": [],
      "stateMutability": "nonpayable",
      "type": "function"
    },
    {
      "inputs": [
        {
          "internalType": "address",
          "name": "owner",
          "type": "address"
        }
      ],
      "name": "balanceOf",
      "outputs": [
        {
          "internalType": "uint256",
          "name": "",
          "type": "uint256"
        }
      ],
      "stateMutability": "view",
      "type": "function"
    },
    {
      "inputs": [
        {
          "internalType": "uint256",
          "name": "tokenId",
          "type": "uint256"
        }
      ],
      "name": "burn",
      "outputs": [],
      "stateMutability": "nonpayable",
      "type": "function"
    },
    {
      "inputs": [],
      "name": "clock",
      "outputs": [
        {
          "internalType": "uint48",
          "name": "",
          "type": "uint48"
        }
      ],
      "stateMutability": "view",
      "type": "function"
    },
    {
      "inputs": [
        {
          "internalType": "address",
          "name": "delegatee",
          "type": "address"
        }
      ],
      "name": "delegate",
      "outputs": [],
      "stateMutability": "nonpayable",
      "type": "function"
    },
    {
      "inputs": [
        {
          "internalType": "address",
          "name": "delegatee",
          "type": "address"
        },
        {
          "internalType": "uint256",
          "name": "nonce",
          "type": "uint256"
        },
        {
          "internalType": "uint256",
          "name": "expiry",
          "type": "uint256"
        },
        {
          "internalType": "uint8",
          "name": "v",
          "type": "uint8"
        },
        {
          "internalType": "bytes32",
          "name": "r",
          "type": "bytes32"
        },
        {
          "internalType": "bytes32",
          "name": "s",
          "type": "bytes32"
        }
      ],
      "name": "delegateBySig",
      "outputs": [],
      "stateMutability": "nonpayable",
      "type": "function"
    },
    {
      "inputs": [
        {
          "internalType": "address",
          "name": "account",
          "type": "address"
        }
      ],
      "name": "delegates",
      "outputs": [
        {
          "internalType": "address",
          "name": "",
          "type": "address"
        }
      ],
      "stateMutability": "view",
      "type": "function"
    },
    {
      "inputs": [],
      "name": "eip712Domain",
      "outputs": [
        {
          "internalType": "bytes1",
          "name": "fields",
          "type": "bytes1"
        },
        {
          "internalType": "string",
          "name": "name",
          "type": "string"
        },
        {
          "internalType": "string",
          "name": "version",
          "type": "string"
        },
        {
          "internalType": "uint256",
          "name": "chainId",
          "type": "uint256"
        },
        {
          "internalType": "address",
          "name": "verifyingContract",
          "type": "address"
        },
        {
          "internalType": "bytes32",
          "name": "salt",
          "type": "bytes32"
        },
        {
          "internalType": "uint256[]",
          "name": "extensions",
          "type": "uint256[]"
        }
      ],
      "stateMutability": "view",
      "type": "function"
    },
    {
      "inputs": [
        {
          "internalType": "uint256",
          "name": "tokenId",
          "type": "uint256"
        }
      ],
      "name": "getApproved",
      "outputs": [
        {
          "internalType": "address",
          "name": "",
          "type": "address"
        }
      ],
      "stateMutability": "view",
      "type": "function"
    },
    {
      "inputs": [
        {
          "internalType": "uint256",
          "name": "timepoint",
          "type": "uint256"
        }
      ],
      "name": "getPastTotalSupply",
      "outputs": [
        {
          "internalType": "uint256",
          "name": "",
          "type": "uint256"
        }
      ],
      "stateMutability": "view",
      "type": "function"
    },
    {
      "inputs": [
        {
          "internalType": "address",
          "name": "account",
          "type": "address"
        },
        {
          "internalType": "uint256",
          "name": "timepoint",
          "type": "uint256"
        }
      ],
      "name": "getPastVotes",
      "outputs": [
        {
          "internalType": "uint256",
          "name": "",
          "type": "uint256"
        }
      ],
      "stateMutability": "view",
      "type": "function"
    },
    {
      "inputs": [
        {
          "internalType": "address",
          "name": "account",
          "type": "address"
        }
      ],
      "name": "getVotes",
      "outputs": [
        {
          "internalType": "uint256",
          "name": "",
          "type": "uint256"
        }
      ],
      "stateMutability": "view",
      "type": "function"
    },
    {
      "inputs": [
        {
          "internalType": "address",
          "name": "_owner",
          "type": "address"
        }
      ],
      "name": "initialize",
      "outputs": [],
      "stateMutability": "nonpayable",
      "type": "function"
    },
    {
      "inputs": [
        {
          "internalType": "address",
          "name": "owner",
          "type": "address"
        },
        {
          "internalType": "address",
          "name": "operator",
          "type": "address"
        }
      ],
      "name": "isApprovedForAll",
      "outputs": [
        {
          "internalType": "bool",
          "name": "",
          "type": "bool"
        }
      ],
      "stateMutability": "view",
      "type": "function"
    },
    {
      "inputs": [
        {
          "internalType": "uint256",
          "name": "tokenId",
          "type": "uint256"
        }
      ],
      "name": "locked",
      "outputs": [
        {
          "internalType": "bool",
          "name": "",
          "type": "bool"
        }
      ],
      "stateMutability": "view",
      "type": "function"
    },
    {
      "inputs": [],
      "name": "name",
      "outputs": [
        {
          "internalType": "string",
          "name": "",
          "type": "string"
        }
      ],
      "stateMutability": "view",
      "type": "function"
    },
    {
      "inputs": [
        {
          "internalType": "address",
          "name": "owner",
          "type": "address"
        }
      ],
      "name": "nonces",
      "outputs": [
        {
          "internalType": "uint256",
          "name": "",
          "type": "uint256"
        }
      ],
      "stateMutability": "view",
      "type": "function"
    },
    {
      "inputs": [],
      "name": "owner",
      "outputs": [
        {
          "internalType": "address",
          "name": "",
          "type": "address"
        }
      ],
      "stateMutability": "view",
      "type": "function"
    },
    {
      "inputs": [
        {
          "internalType": "uint256",
          "name": "tokenId",
          "type": "uint256"
        }
      ],
      "name": "ownerOf",
      "outputs": [
        {
          "internalType": "address",
          "name": "",
          "type": "address"
        }
      ],
      "stateMutability": "view",
      "type": "function"
    },
    {
      "inputs": [],
      "name": "pause",
      "outputs": [],
      "stateMutability": "nonpayable",
      "type": "function"
    },
    {
      "inputs": [],
      "name": "paused",
      "outputs": [
        {
          "internalType": "bool",
          "name": "",
          "type": "bool"
        }
      ],
      "stateMutability": "view",
      "type": "function"
    },
    {
      "inputs": [],
      "name": "renounceOwnership",
      "outputs": [],
      "stateMutability": "nonpayable",
      "type": "function"
    },
    {
      "inputs": [
        {
          "internalType": "address",
          "name": "to",
          "type": "address"
        },
        {
          "internalType": "string",
          "name": "uri",
          "type": "string"
        }
      ],
      "name": "safeMint",
      "outputs": [],
      "stateMutability": "nonpayable",
      "type": "function"
    },
    {
      "inputs": [
        {
          "internalType": "address",
          "name": "from",
          "type": "address"
        },
        {
          "internalType": "address",
          "name": "to",
          "type": "address"
        },
        {
          "internalType": "uint256",
          "name": "tokenId",
          "type": "uint256"
        }
      ],
      "name": "safeTransferFrom",
      "outputs": [],
      "stateMutability": "nonpayable",
      "type": "function"
    },
    {
      "inputs": [
        {
          "internalType": "address",
          "name": "from",
          "type": "address"
        },
        {
          "internalType": "address",
          "name": "to",
          "type": "address"
        },
        {
          "internalType": "uint256",
          "name": "tokenId",
          "type": "uint256"
        },
        {
          "internalType": "bytes",
          "name": "data",
          "type": "bytes"
        }
      ],
      "name": "safeTransferFrom",
      "outputs": [],
      "stateMutability": "nonpayable",
      "type": "function"
    },
    {
      "inputs": [
        {
          "internalType": "address",
          "name": "operator",
          "type": "address"
        },
        {
          "internalType": "bool",
          "name": "approved",
          "type": "bool"
        }
      ],
      "name": "setApprovalForAll",
      "outputs": [],
      "stateMutability": "nonpayable",
      "type": "function"
    },
    {
      "inputs": [
        {
          "internalType": "bytes4",
          "name": "interfaceId",
          "type": "bytes4"
        }
      ],
      "name": "supportsInterface",
      "outputs": [
        {
          "internalType": "bool",
          "name": "",
          "type": "bool"
        }
      ],
      "stateMutability": "view",
      "type": "function"
    },
    {
      "inputs": [],
      "name": "symbol",
      "outputs": [
        {
          "internalType": "string",
          "name": "",
          "type": "string"
        }
      ],
      "stateMutability": "view",
      "type": "function"
    },
    {
      "inputs": [
        {
          "internalType": "uint256",
          "name": "index",
          "type": "uint256"
        }
      ],
      "name": "tokenByIndex",
      "outputs": [
        {
          "internalType": "uint256",
          "name": "",
          "type": "uint256"
        }
      ],
      "stateMutability": "view",
      "type": "function"
    },
    {
      "inputs": [
        {
          "internalType": "address",
          "name": "owner",
          "type": "address"
        },
        {
          "internalType": "uint256",
          "name": "index",
          "type": "uint256"
        }
      ],
      "name": "tokenOfOwnerByIndex",
      "outputs": [
        {
          "internalType": "uint256",
          "name": "",
          "type": "uint256"
        }
      ],
      "stateMutability": "view",
      "type": "function"
    },
    {
      "inputs": [
        {
          "internalType": "uint256",
          "name": "tokenId",
          "type": "uint256"
        }
      ],
      "name": "tokenURI",
      "outputs": [
        {
          "internalType": "string",
          "name": "",
          "type": "string"
        }
      ],
      "stateMutability": "view",
      "type": "function"
    },
    {
      "inputs": [],
      "name": "totalSupply",
      "outputs": [
        {
          "internalType": "uint256",
          "name": "",
          "type": "uint256"
        }
      ],
      "stateMutability": "view",
      "type": "function"
    },
    {
      "inputs": [
        {
          "internalType": "address",
          "name": "from",
          "type": "address"
        },
        {
          "internalType": "address",
          "name": "to",
          "type": "address"
        },
        {
          "internalType": "uint256",
          "name": "tokenId",
          "type": "uint256"
        }
      ],
      "name": "transferFrom",
      "outputs": [],
      "stateMutability": "nonpayable",
      "type": "function"
    },
    {
      "inputs": [
        {
          "internalType": "address",
          "name": "newOwner",
          "type": "address"
        }
      ],
      "name": "transferOwnership",
      "outputs": [],
      "stateMutability": "nonpayable",
      "type": "function"
    },
    {
      "inputs": [],
      "name": "unpause",
      "outputs": [],
      "stateMutability": "nonpayable",
      "type": "function"
    },
    {
      "inputs": [],
      "name": "version",
      "outputs": [
        {
          "internalType": "string",
          "name": "",
          "type": "string"
        }
      ],
      "stateMutability": "view",
      "type": "function"
    }
  ],
  "transactionHash": "0x81cddb30e795f7ae963a8a343439a0dbf3a05daa1be1f490c883890820a951ba",
  "args": [],
  "numDeployments": 1,
  "solcInputHash": "573e8e271f935374a272abf2404bcb2f",
  "bytecode": "0x60e06040523480156200001157600080fd5b5060006001816200002162000033565b60809290925260a05260c052620000f4565b600054610100900460ff1615620000a05760405162461bcd60e51b815260206004820152602760248201527f496e697469616c697a61626c653a20636f6e747261637420697320696e697469604482015266616c697a696e6760c81b606482015260840160405180910390fd5b60005460ff90811614620000f2576000805460ff191660ff9081179091556040519081527f7f26b83ff96e1f2b6a682f133852f6798a09c465da95921460cefb38474024989060200160405180910390a15b565b60805160a05160c05161474c620001246000396000610b2e01526000610b0501526000610adc015261474c6000f3fe608060405234801561001057600080fd5b50600436106102925760003560e01c806370a08231116101605780639ab24eb0116100d8578063c4d66de81161008c578063d204c45e11610071578063d204c45e14610538578063e985e9c51461054b578063f2fde38b1461058757600080fd5b8063c4d66de814610512578063c87b56dd1461052557600080fd5b8063b45a3c0e116100bd578063b45a3c0e146104d9578063b88d4fde146104ec578063c3cda520146104ff57600080fd5b80639ab24eb0146104b3578063a22cb465146104c657600080fd5b806384b0196e1161012f5780638e539e8c116101145780638e539e8c1461047957806391ddadf41461048c57806395d89b41146104ab57600080fd5b806384b0196e1461044c5780638da5cb5b1461046757600080fd5b806370a0823114610416578063715018a6146104295780637ecebe00146104315780638456cb591461044457600080fd5b80633f4ba83a1161020e57806354fd4d50116101c25780635c19a95c116101a75780635c19a95c146103e55780635c975abb146103f85780636352211e1461040357600080fd5b806354fd4d50146103b0578063587cde1e146103b857600080fd5b806342966c68116101f357806342966c68146103825780634bf5d7e9146103955780634f6ccce71461039d57600080fd5b80633f4ba83a1461036757806342842e0e1461036f57600080fd5b806318160ddd116102655780632f745c591161024a5780632f745c59146103395780633644e5151461034c5780633a46b1a81461035457600080fd5b806318160ddd1461031457806323b872dd1461032657600080fd5b806301ffc9a71461029757806306fdde03146102bf578063081812fc146102d4578063095ea7b3146102ff575b600080fd5b6102aa6102a5366004613e81565b61059a565b60405190151581526020015b60405180910390f35b6102c76105f6565b6040516102b69190613f14565b6102e76102e2366004613f27565b610688565b6040516001600160a01b0390911681526020016102b6565b61031261030d366004613f5c565b6106af565b005b6099545b6040519081526020016102b6565b610312610334366004613f86565b6106fb565b610318610347366004613f5c565b610749565b6103186107f6565b610318610362366004613f5c565b610805565b6103126108b5565b61031261037d366004613f86565b6108c7565b610312610390366004613f27565b610910565b6102c7610999565b6103186103ab366004613f27565b610a31565b6102c7610ad5565b6102e76103c6366004613fc2565b6001600160a01b0390811660009081526101c560205260409020541690565b6103126103f3366004613fc2565b610b78565b60fb5460ff166102aa565b6102e7610411366004613f27565b610b83565b610318610424366004613fc2565b610be8565b610312610c82565b61031861043f366004613fc2565b610c94565b610312610cb3565b610454610cc3565b6040516102b69796959493929190613fdd565b61012d546001600160a01b03166102e7565b610318610487366004613f27565b610d87565b610494610e20565b60405165ffffffffffff90911681526020016102b6565b6102c7610e2b565b6103186104c1366004613fc2565b610e3a565b6103126104d436600461408f565b610e5c565b6102aa6104e7366004613f27565b610ea4565b6103126104fa36600461418e565b610efe565b61031261050d36600461420a565b610f4e565b610312610520366004613fc2565b611084565b6102c7610533366004613f27565b61124c565b61031261054636600461426a565b611257565b6102aa6105593660046142cc565b6001600160a01b039182166000908152606a6020908152604080832093909416825291909152205460ff1690565b610312610595366004613fc2565b611290565b60007fffffffff0000000000000000000000000000000000000000000000000000000082167fb45a3c0e0000000000000000000000000000000000000000000000000000000014806105f057506105f08261131d565b92915050565b606060658054610605906142ff565b80601f0160208091040260200160405190810160405280929190818152602001828054610631906142ff565b801561067e5780601f106106535761010080835404028352916020019161067e565b820191906000526020600020905b81548152906001019060200180831161066157829003601f168201915b5050505050905090565b600061069382611373565b506000908152606960205260409020546001600160a01b031690565b61022a5460ff16156106ed576040517fbd291a9500000000000000000000000000000000000000000000000000000000815260040160405180910390fd5b6106f782826113d7565b5050565b61022a5460ff1615610739576040517fbd291a9500000000000000000000000000000000000000000000000000000000815260040160405180910390fd5b610744838383611503565b505050565b600061075483610be8565b82106107cd5760405162461bcd60e51b815260206004820152602b60248201527f455243373231456e756d657261626c653a206f776e657220696e646578206f7560448201527f74206f6620626f756e647300000000000000000000000000000000000000000060648201526084015b60405180910390fd5b506001600160a01b03919091166000908152609760209081526040808320938352929052205490565b6000610800611589565b905090565b600061080f610e20565b65ffffffffffff1682106108655760405162461bcd60e51b815260206004820152601460248201527f566f7465733a20667574757265206c6f6f6b757000000000000000000000000060448201526064016107c4565b61089061087183611593565b6001600160a01b03851660009081526101c66020526040902090611613565b7bffffffffffffffffffffffffffffffffffffffffffffffffffffffff169392505050565b6108bd6116dd565b6108c5611738565b565b61022a5460ff1615610905576040517fbd291a9500000000000000000000000000000000000000000000000000000000815260040160405180910390fd5b61074483838361178a565b61091b335b826117a5565b61098d5760405162461bcd60e51b815260206004820152602d60248201527f4552433732313a2063616c6c6572206973206e6f7420746f6b656e206f776e6560448201527f72206f7220617070726f7665640000000000000000000000000000000000000060648201526084016107c4565b61099681611824565b50565b6060436109a4610e20565b65ffffffffffff16146109f95760405162461bcd60e51b815260206004820152601860248201527f566f7465733a2062726f6b656e20636c6f636b206d6f6465000000000000000060448201526064016107c4565b5060408051808201909152601d81527f6d6f64653d626c6f636b6e756d6265722666726f6d3d64656661756c74000000602082015290565b6000610a3c60995490565b8210610ab05760405162461bcd60e51b815260206004820152602c60248201527f455243373231456e756d657261626c653a20676c6f62616c20696e646578206f60448201527f7574206f6620626f756e6473000000000000000000000000000000000000000060648201526084016107c4565b60998281548110610ac357610ac361434c565b90600052602060002001549050919050565b6060610b007f000000000000000000000000000000000000000000000000000000000000000061182d565b610b297f000000000000000000000000000000000000000000000000000000000000000061182d565b610b527f000000000000000000000000000000000000000000000000000000000000000061182d565b604051602001610b649392919061437b565b604051602081830303815290604052905090565b336106f781836118ce565b6000818152606760205260408120546001600160a01b0316806105f05760405162461bcd60e51b815260206004820152601860248201527f4552433732313a20696e76616c696420746f6b656e204944000000000000000060448201526064016107c4565b60006001600160a01b038216610c665760405162461bcd60e51b815260206004820152602960248201527f4552433732313a2061646472657373207a65726f206973206e6f74206120766160448201527f6c6964206f776e6572000000000000000000000000000000000000000000000060648201526084016107c4565b506001600160a01b031660009081526068602052604090205490565b610c8a6116dd565b6108c56000611959565b6001600160a01b03811660009081526101c860205260408120546105f0565b610cbb6116dd565b6108c56119c4565b600060608060008060006060610191546000801b148015610ce5575061019254155b610d315760405162461bcd60e51b815260206004820152601560248201527f4549503731323a20556e696e697469616c697a6564000000000000000000000060448201526064016107c4565b610d39611a01565b610d41611a11565b604080516000808252602082019092527f0f000000000000000000000000000000000000000000000000000000000000009b939a50919850469750309650945092509050565b6000610d91610e20565b65ffffffffffff168210610de75760405162461bcd60e51b815260206004820152601460248201527f566f7465733a20667574757265206c6f6f6b757000000000000000000000000060448201526064016107c4565b610dfc610df383611593565b6101c790611613565b7bffffffffffffffffffffffffffffffffffffffffffffffffffffffff1692915050565b600061080043611a21565b606060668054610605906142ff565b6001600160a01b03811660009081526101c660205260408120610dfc90611a9f565b61022a5460ff1615610e9a576040517fbd291a9500000000000000000000000000000000000000000000000000000000815260040160405180910390fd5b6106f78282611aef565b6000818152606760205260408120546001600160a01b0316610ef2576040517fae9a63f500000000000000000000000000000000000000000000000000000000815260040160405180910390fd5b505061022a5460ff1690565b61022a5460ff1615610f3c576040517fbd291a9500000000000000000000000000000000000000000000000000000000815260040160405180910390fd5b610f4884848484611afa565b50505050565b83421115610f9e5760405162461bcd60e51b815260206004820152601860248201527f566f7465733a207369676e61747572652065787069726564000000000000000060448201526064016107c4565b604080517fe48329057bfd03d55e49b547132e39cffd9c1820ad7b9d4c5307691425d15adf60208201526001600160a01b038816918101919091526060810186905260808101859052600090611018906110109060a00160405160208183030381529060405280519060200120611b82565b858585611bca565b905061102381611bf2565b86146110715760405162461bcd60e51b815260206004820152601460248201527f566f7465733a20696e76616c6964206e6f6e636500000000000000000000000060448201526064016107c4565b61107b81886118ce565b50505050505050565b600054610100900460ff16158080156110a45750600054600160ff909116105b806110be5750303b1580156110be575060005460ff166001145b6111305760405162461bcd60e51b815260206004820152602e60248201527f496e697469616c697a61626c653a20636f6e747261637420697320616c72656160448201527f647920696e697469616c697a656400000000000000000000000000000000000060648201526084016107c4565b6000805460ff19166001179055801561117057600080547fffffffffffffffffffffffffffffffffffffffffffffffffffffffffffff00ff166101001790555b6111e56040518060400160405280601481526020017f4b726f6d615365637572697479436f756e63696c0000000000000000000000008152506040518060400160405280600381526020017f4b5343000000000000000000000000000000000000000000000000000000000081525084611c1b565b80156106f757600080547fffffffffffffffffffffffffffffffffffffffffffffffffffffffffffff00ff169055604051600181527f7f26b83ff96e1f2b6a682f133852f6798a09c465da95921460cefb3847402498906020015b60405180910390a15050565b60606105f082611d1c565b61125f6116dd565b600061126b6102295490565b905061127c61022980546001019055565b6112868382611e24565b6107448183611e3e565b6112986116dd565b6001600160a01b0381166113145760405162461bcd60e51b815260206004820152602660248201527f4f776e61626c653a206e6577206f776e657220697320746865207a65726f206160448201527f646472657373000000000000000000000000000000000000000000000000000060648201526084016107c4565b61099681611959565b60007fffffffff0000000000000000000000000000000000000000000000000000000082167f490649060000000000000000000000000000000000000000000000000000000014806105f057506105f082611f11565b6000818152606760205260409020546001600160a01b03166109965760405162461bcd60e51b815260206004820152601860248201527f4552433732313a20696e76616c696420746f6b656e204944000000000000000060448201526064016107c4565b60006113e282610b83565b9050806001600160a01b0316836001600160a01b03160361146b5760405162461bcd60e51b815260206004820152602160248201527f4552433732313a20617070726f76616c20746f2063757272656e74206f776e6560448201527f720000000000000000000000000000000000000000000000000000000000000060648201526084016107c4565b336001600160a01b038216148061148757506114878133610559565b6114f95760405162461bcd60e51b815260206004820152603d60248201527f4552433732313a20617070726f76652063616c6c6572206973206e6f7420746f60448201527f6b656e206f776e6572206f7220617070726f76656420666f7220616c6c00000060648201526084016107c4565b6107448383611f67565b61150c33610915565b61157e5760405162461bcd60e51b815260206004820152602d60248201527f4552433732313a2063616c6c6572206973206e6f7420746f6b656e206f776e6560448201527f72206f7220617070726f7665640000000000000000000000000000000000000060648201526084016107c4565b610744838383611fed565b6000610800612243565b600063ffffffff82111561160f5760405162461bcd60e51b815260206004820152602660248201527f53616665436173743a2076616c756520646f65736e27742066697420696e203360448201527f322062697473000000000000000000000000000000000000000000000000000060648201526084016107c4565b5090565b81546000908181600581111561167057600061162e846122b7565b6116389085614420565b60008881526020902090915081015463ffffffff90811690871610156116605780915061166e565b61166b816001614437565b92505b505b600061167e8787858561239f565b905080156116cf576116a387611695600184614420565b600091825260209091200190565b5464010000000090047bffffffffffffffffffffffffffffffffffffffffffffffffffffffff166116d2565b60005b979650505050505050565b61012d546001600160a01b031633146108c55760405162461bcd60e51b815260206004820181905260248201527f4f776e61626c653a2063616c6c6572206973206e6f7420746865206f776e657260448201526064016107c4565b6117406123f5565b60fb805460ff191690557f5db9ee0a495bf2e6ff9c91a7834c1ba4fdd244a5e8aa4e537bd38aeae4b073aa335b6040516001600160a01b03909116815260200160405180910390a1565b61074483838360405180602001604052806000815250610efe565b6000806117b183610b83565b9050806001600160a01b0316846001600160a01b031614806117f857506001600160a01b038082166000908152606a602090815260408083209388168352929052205460ff165b8061181c5750836001600160a01b031661181184610688565b6001600160a01b0316145b949350505050565b61099681612447565b6060600061183a83612487565b600101905060008167ffffffffffffffff81111561185a5761185a6140cb565b6040519080825280601f01601f191660200182016040528015611884576020820181803683370190505b5090508181016020015b600019017f3031323334353637383961626364656600000000000000000000000000000000600a86061a8153600a850494508461188e575b509392505050565b6001600160a01b0382811660008181526101c5602052604080822080548686167fffffffffffffffffffffffff0000000000000000000000000000000000000000821681179092559151919094169392849290917f3134e8a2e6d97e929a7e54011ea5485d7d196dd5f0ba4d4ef95803e8e3fc257f9190a4610744818361195486612569565b612574565b61012d80546001600160a01b038381167fffffffffffffffffffffffff0000000000000000000000000000000000000000831681179093556040519116919082907f8be0079c531659141344cd1fd0a4f28419497f9722a3daafe3b4186f6b6457e090600090a35050565b6119cc612736565b60fb805460ff191660011790557f62e78cea01bee320cd4e420270b5ea74000d11b0c9f74754ebdbfc544b05a25861176d3390565b60606101938054610605906142ff565b60606101948054610605906142ff565b600065ffffffffffff82111561160f5760405162461bcd60e51b815260206004820152602660248201527f53616665436173743a2076616c756520646f65736e27742066697420696e203460448201527f382062697473000000000000000000000000000000000000000000000000000060648201526084016107c4565b80546000908015611ae557611ab983611695600184614420565b5464010000000090047bffffffffffffffffffffffffffffffffffffffffffffffffffffffff16611ae8565b60005b9392505050565b6106f7338383612789565b611b0433836117a5565b611b765760405162461bcd60e51b815260206004820152602d60248201527f4552433732313a2063616c6c6572206973206e6f7420746f6b656e206f776e6560448201527f72206f7220617070726f7665640000000000000000000000000000000000000060648201526084016107c4565b610f4884848484612857565b60006105f0611b8f611589565b836040517f19010000000000000000000000000000000000000000000000000000000000008152600281019290925260228201526042902090565b6000806000611bdb878787876128e0565b91509150611be8816129c2565b5095945050505050565b6001600160a01b03811660009081526101c8602052604090208054600181018255905b50919050565b600054610100900460ff16611c985760405162461bcd60e51b815260206004820152602b60248201527f496e697469616c697a61626c653a20636f6e7472616374206973206e6f74206960448201527f6e697469616c697a696e6700000000000000000000000000000000000000000060648201526084016107c4565b611ca26001612b27565b611cac8383612bb8565b611cb4612c3f565b611cbc612c3f565b611cc4612cbc565b611ccc612c3f565b611d0b836040518060400160405280600181526020017f3100000000000000000000000000000000000000000000000000000000000000815250612d41565b611d13612c3f565b61074481611959565b6060611d2782611373565b600082815260c9602052604081208054611d40906142ff565b80601f0160208091040260200160405190810160405280929190818152602001828054611d6c906142ff565b8015611db95780601f10611d8e57610100808354040283529160200191611db9565b820191906000526020600020905b815481529060010190602001808311611d9c57829003601f168201915b505050505090506000611dd760408051602081019091526000815290565b90508051600003611de9575092915050565b815115611e1b578082604051602001611e0392919061447e565b60405160208183030381529060405292505050919050565b61181c84612dc8565b6106f7828260405180602001604052806000815250612e3b565b6000828152606760205260409020546001600160a01b0316611ec85760405162461bcd60e51b815260206004820152602e60248201527f45524337323155524953746f726167653a2055524920736574206f66206e6f6e60448201527f6578697374656e7420746f6b656e00000000000000000000000000000000000060648201526084016107c4565b600082815260c960205260409020611ee082826144fb565b506040518281527ff8e1a15aba9398e019f0b49df1a4fde98ee17ae345cb5f6b5e2c27f5033e8ce790602001611240565b60007fffffffff0000000000000000000000000000000000000000000000000000000082167f780e9d630000000000000000000000000000000000000000000000000000000014806105f057506105f082612ec4565b600081815260696020526040902080547fffffffffffffffffffffffff0000000000000000000000000000000000000000166001600160a01b0384169081179091558190611fb482610b83565b6001600160a01b03167f8c5be1e5ebec7d5bd14f71427d1e84f3dd0314c0f7b2291e5b200ac8c7c3b92560405160405180910390a45050565b826001600160a01b031661200082610b83565b6001600160a01b03161461207c5760405162461bcd60e51b815260206004820152602560248201527f4552433732313a207472616e736665722066726f6d20696e636f72726563742060448201527f6f776e657200000000000000000000000000000000000000000000000000000060648201526084016107c4565b6001600160a01b0382166120f75760405162461bcd60e51b8152602060048201526024808201527f4552433732313a207472616e7366657220746f20746865207a65726f2061646460448201527f726573730000000000000000000000000000000000000000000000000000000060648201526084016107c4565b6121048383836001612fa7565b826001600160a01b031661211782610b83565b6001600160a01b0316146121935760405162461bcd60e51b815260206004820152602560248201527f4552433732313a207472616e736665722066726f6d20696e636f72726563742060448201527f6f776e657200000000000000000000000000000000000000000000000000000060648201526084016107c4565b600081815260696020908152604080832080547fffffffffffffffffffffffff00000000000000000000000000000000000000009081169091556001600160a01b0387811680865260688552838620805460001901905590871680865283862080546001019055868652606790945282852080549092168417909155905184937fddf252ad1be2c89b69c2b068fc378daa952ba7f163c4a11628f55a4df523b3ef91a46107448383836001612fbb565b60007f8b73c3c69bb8fe3d512ecc4cf759cc79239f7b179b0ffacaa9a75d522b39400f61226e612fc7565b612276613021565b60408051602081019490945283019190915260608201524660808201523060a082015260c00160405160208183030381529060405280519060200120905090565b6000816000036122c957506000919050565b600060016122d684613053565b901c6001901b905060018184816122ef576122ef61444f565b048201901c905060018184816123075761230761444f565b048201901c9050600181848161231f5761231f61444f565b048201901c905060018184816123375761233761444f565b048201901c9050600181848161234f5761234f61444f565b048201901c905060018184816123675761236761444f565b048201901c9050600181848161237f5761237f61444f565b048201901c9050611ae8818285816123995761239961444f565b046130e7565b60005b818310156118c65760006123b684846130fd565b60008781526020902090915063ffffffff86169082015463ffffffff1611156123e1578092506123ef565b6123ec816001614437565b93505b506123a2565b60fb5460ff166108c55760405162461bcd60e51b815260206004820152601460248201527f5061757361626c653a206e6f742070617573656400000000000000000000000060448201526064016107c4565b61245081613118565b600081815260c9602052604090208054612469906142ff565b15905061099657600081815260c96020526040812061099691613e09565b6000807a184f03e93ff9f4daa797ed6e38ed64bf6a1f01000000000000000083106124d0577a184f03e93ff9f4daa797ed6e38ed64bf6a1f010000000000000000830492506040015b6d04ee2d6d415b85acef810000000083106124fc576d04ee2d6d415b85acef8100000000830492506020015b662386f26fc10000831061251a57662386f26fc10000830492506010015b6305f5e1008310612532576305f5e100830492506008015b612710831061254657612710830492506004015b60648310612558576064830492506002015b600a83106105f05760010192915050565b60006105f082610be8565b816001600160a01b0316836001600160a01b0316141580156125965750600081115b15610744576001600160a01b03831615612669576001600160a01b03831660009081526101c66020526040812081906125da906131dd6125d5866131e9565b61327d565b7bffffffffffffffffffffffffffffffffffffffffffffffffffffffff1691507bffffffffffffffffffffffffffffffffffffffffffffffffffffffff169150846001600160a01b03167fdec2bacdd2f05b59de34da9b523dff8be42e5e38e818c82fdb0bae774387a724838360405161265e929190918252602082015260400190565b60405180910390a250505b6001600160a01b03821615610744576001600160a01b03821660009081526101c66020526040812081906126a3906132c66125d5866131e9565b7bffffffffffffffffffffffffffffffffffffffffffffffffffffffff1691507bffffffffffffffffffffffffffffffffffffffffffffffffffffffff169150836001600160a01b03167fdec2bacdd2f05b59de34da9b523dff8be42e5e38e818c82fdb0bae774387a7248383604051612727929190918252602082015260400190565b60405180910390a25050505050565b60fb5460ff16156108c55760405162461bcd60e51b815260206004820152601060248201527f5061757361626c653a207061757365640000000000000000000000000000000060448201526064016107c4565b816001600160a01b0316836001600160a01b0316036127ea5760405162461bcd60e51b815260206004820152601960248201527f4552433732313a20617070726f766520746f2063616c6c65720000000000000060448201526064016107c4565b6001600160a01b038381166000818152606a6020908152604080832094871680845294825291829020805460ff191686151590811790915591519182527f17307eab39ab6107e8899845ad3d59bd9653f200f220920489ca2b5937696c31910160405180910390a3505050565b612862848484611fed565b61286e848484846132d2565b610f485760405162461bcd60e51b815260206004820152603260248201527f4552433732313a207472616e7366657220746f206e6f6e20455243373231526560448201527f63656976657220696d706c656d656e746572000000000000000000000000000060648201526084016107c4565b6000807f7fffffffffffffffffffffffffffffff5d576e7357a4501ddfe92f46681b20a083111561291757506000905060036129b9565b6040805160008082526020820180845289905260ff881692820192909252606081018690526080810185905260019060a0016020604051602081039080840390855afa15801561296b573d6000803e3d6000fd5b50506040517fffffffffffffffffffffffffffffffffffffffffffffffffffffffffffffffe001519150506001600160a01b0381166129b2576000600192509250506129b9565b9150600090505b94509492505050565b60008160048111156129d6576129d66145d9565b036129de5750565b60018160048111156129f2576129f26145d9565b03612a3f5760405162461bcd60e51b815260206004820152601860248201527f45434453413a20696e76616c6964207369676e6174757265000000000000000060448201526064016107c4565b6002816004811115612a5357612a536145d9565b03612aa05760405162461bcd60e51b815260206004820152601f60248201527f45434453413a20696e76616c6964207369676e6174757265206c656e6774680060448201526064016107c4565b6003816004811115612ab457612ab46145d9565b036109965760405162461bcd60e51b815260206004820152602260248201527f45434453413a20696e76616c6964207369676e6174757265202773272076616c60448201527f756500000000000000000000000000000000000000000000000000000000000060648201526084016107c4565b600054610100900460ff16612ba45760405162461bcd60e51b815260206004820152602b60248201527f496e697469616c697a61626c653a20636f6e7472616374206973206e6f74206960448201527f6e697469616c697a696e6700000000000000000000000000000000000000000060648201526084016107c4565b61022a805460ff1916911515919091179055565b600054610100900460ff16612c355760405162461bcd60e51b815260206004820152602b60248201527f496e697469616c697a61626c653a20636f6e7472616374206973206e6f74206960448201527f6e697469616c697a696e6700000000000000000000000000000000000000000060648201526084016107c4565b6106f7828261348e565b600054610100900460ff166108c55760405162461bcd60e51b815260206004820152602b60248201527f496e697469616c697a61626c653a20636f6e7472616374206973206e6f74206960448201527f6e697469616c697a696e6700000000000000000000000000000000000000000060648201526084016107c4565b600054610100900460ff16612d395760405162461bcd60e51b815260206004820152602b60248201527f496e697469616c697a61626c653a20636f6e7472616374206973206e6f74206960448201527f6e697469616c697a696e6700000000000000000000000000000000000000000060648201526084016107c4565b6108c5613524565b600054610100900460ff16612dbe5760405162461bcd60e51b815260206004820152602b60248201527f496e697469616c697a61626c653a20636f6e7472616374206973206e6f74206960448201527f6e697469616c697a696e6700000000000000000000000000000000000000000060648201526084016107c4565b6106f782826135ad565b6060612dd382611373565b6000612dea60408051602081019091526000815290565b90506000815111612e0a5760405180602001604052806000815250611ae8565b80612e1484613656565b604051602001612e2592919061447e565b6040516020818303038152906040529392505050565b612e4583836136f4565b612e5260008484846132d2565b6107445760405162461bcd60e51b815260206004820152603260248201527f4552433732313a207472616e7366657220746f206e6f6e20455243373231526560448201527f63656976657220696d706c656d656e746572000000000000000000000000000060648201526084016107c4565b60007fffffffff0000000000000000000000000000000000000000000000000000000082167f80ac58cd000000000000000000000000000000000000000000000000000000001480612f5757507fffffffff0000000000000000000000000000000000000000000000000000000082167f5b5e139f00000000000000000000000000000000000000000000000000000000145b806105f057507f01ffc9a7000000000000000000000000000000000000000000000000000000007fffffffff000000000000000000000000000000000000000000000000000000008316146105f0565b612faf612736565b610f48848484846138af565b610f48848484846139eb565b600080612fd2611a01565b805190915015612fe9578051602090910120919050565b610191548015612ff95792915050565b7fc5d2460186f7233c927e7db2dcc703c0e500b653ca82273b7bfad8045d85a4709250505090565b60008061302c611a11565b805190915015613043578051602090910120919050565b610192548015612ff95792915050565b600080608083901c1561306857608092831c92015b604083901c1561307a57604092831c92015b602083901c1561308c57602092831c92015b601083901c1561309e57601092831c92015b600883901c156130b057600892831c92015b600483901c156130c257600492831c92015b600283901c156130d457600292831c92015b600183901c156105f05760010192915050565b60008183106130f65781611ae8565b5090919050565b600061310c6002848418614608565b611ae890848416614437565b600061312382610b83565b9050613133816000846001612fa7565b61313c82610b83565b600083815260696020908152604080832080547fffffffffffffffffffffffff00000000000000000000000000000000000000009081169091556001600160a01b0385168085526068845282852080546000190190558785526067909352818420805490911690555192935084927fddf252ad1be2c89b69c2b068fc378daa952ba7f163c4a11628f55a4df523b3ef908390a46106f7816000846001612fbb565b6000611ae88284614643565b60007bffffffffffffffffffffffffffffffffffffffffffffffffffffffff82111561160f5760405162461bcd60e51b815260206004820152602760248201527f53616665436173743a2076616c756520646f65736e27742066697420696e203260448201527f323420626974730000000000000000000000000000000000000000000000000060648201526084016107c4565b6000806132b961329b61328e610e20565b65ffffffffffff16611593565b6132b16132a788611a9f565b868863ffffffff16565b8791906139fb565b915091505b935093915050565b6000611ae88284614680565b60006001600160a01b0384163b15613486576040517f150b7a020000000000000000000000000000000000000000000000000000000081526001600160a01b0385169063150b7a029061332f9033908990889088906004016146b7565b6020604051808303816000875af1925050508015613388575060408051601f3d9081017fffffffffffffffffffffffffffffffffffffffffffffffffffffffffffffffe0168201909252613385918101906146f3565b60015b61343b573d8080156133b6576040519150601f19603f3d011682016040523d82523d6000602084013e6133bb565b606091505b5080516000036134335760405162461bcd60e51b815260206004820152603260248201527f4552433732313a207472616e7366657220746f206e6f6e20455243373231526560448201527f63656976657220696d706c656d656e746572000000000000000000000000000060648201526084016107c4565b805181602001fd5b7fffffffff00000000000000000000000000000000000000000000000000000000167f150b7a020000000000000000000000000000000000000000000000000000000014905061181c565b50600161181c565b600054610100900460ff1661350b5760405162461bcd60e51b815260206004820152602b60248201527f496e697469616c697a61626c653a20636f6e7472616374206973206e6f74206960448201527f6e697469616c697a696e6700000000000000000000000000000000000000000060648201526084016107c4565b606561351783826144fb565b50606661074482826144fb565b600054610100900460ff166135a15760405162461bcd60e51b815260206004820152602b60248201527f496e697469616c697a61626c653a20636f6e7472616374206973206e6f74206960448201527f6e697469616c697a696e6700000000000000000000000000000000000000000060648201526084016107c4565b60fb805460ff19169055565b600054610100900460ff1661362a5760405162461bcd60e51b815260206004820152602b60248201527f496e697469616c697a61626c653a20636f6e7472616374206973206e6f74206960448201527f6e697469616c697a696e6700000000000000000000000000000000000000000060648201526084016107c4565b61019361363783826144fb565b5061019461364582826144fb565b505060006101918190556101925550565b6060600061366383612487565b600101905060008167ffffffffffffffff811115613683576136836140cb565b6040519080825280601f01601f1916602001820160405280156136ad576020820181803683370190505b5090508181016020015b600019017f3031323334353637383961626364656600000000000000000000000000000000600a86061a8153600a8504945084156118c6576136b7565b6001600160a01b03821661374a5760405162461bcd60e51b815260206004820181905260248201527f4552433732313a206d696e7420746f20746865207a65726f206164647265737360448201526064016107c4565b6000818152606760205260409020546001600160a01b0316156137af5760405162461bcd60e51b815260206004820152601c60248201527f4552433732313a20746f6b656e20616c7265616479206d696e7465640000000060448201526064016107c4565b6137bd600083836001612fa7565b6000818152606760205260409020546001600160a01b0316156138225760405162461bcd60e51b815260206004820152601c60248201527f4552433732313a20746f6b656e20616c7265616479206d696e7465640000000060448201526064016107c4565b6001600160a01b038216600081815260686020908152604080832080546001019055848352606790915280822080547fffffffffffffffffffffffff0000000000000000000000000000000000000000168417905551839291907fddf252ad1be2c89b69c2b068fc378daa952ba7f163c4a11628f55a4df523b3ef908290a46106f7600083836001612fbb565b60018111156139265760405162461bcd60e51b815260206004820152603560248201527f455243373231456e756d657261626c653a20636f6e736563757469766520747260448201527f616e7366657273206e6f7420737570706f72746564000000000000000000000060648201526084016107c4565b816001600160a01b0385166139825761397d81609980546000838152609a60205260408120829055600182018355919091527f72a152ddfb8e864297c917af52ea6c1c68aead0fee1a62673fcc7e0c94979d000155565b6139a5565b836001600160a01b0316856001600160a01b0316146139a5576139a58582613a09565b6001600160a01b0384166139c1576139bc81613aa6565b6139e4565b846001600160a01b0316846001600160a01b0316146139e4576139e48482613b55565b5050505050565b6139f6848483613b99565b610f48565b6000806132b9858585613c12565b60006001613a1684610be8565b613a209190614420565b600083815260986020526040902054909150808214613a73576001600160a01b03841660009081526097602090815260408083208584528252808320548484528184208190558352609890915290208190555b5060009182526098602090815260408084208490556001600160a01b039094168352609781528383209183525290812055565b609954600090613ab890600190614420565b6000838152609a602052604081205460998054939450909284908110613ae057613ae061434c565b906000526020600020015490508060998381548110613b0157613b0161434c565b6000918252602080832090910192909255828152609a90915260408082208490558582528120556099805480613b3957613b39614710565b6001900381819060005260206000200160009055905550505050565b6000613b6083610be8565b6001600160a01b039093166000908152609760209081526040808320868452825280832085905593825260989052919091209190915550565b6001600160a01b038316613bbc57613bb96101c76132c66125d5846131e9565b50505b6001600160a01b038216613bdf57613bdc6101c76131dd6125d5846131e9565b50505b6001600160a01b0383811660009081526101c5602052604080822054858416835291205461074492918216911683612574565b825460009081908015613d9a576000613c3087611695600185614420565b60408051808201909152905463ffffffff8082168084526401000000009092047bffffffffffffffffffffffffffffffffffffffffffffffffffffffff1660208401529192509087161015613cc75760405162461bcd60e51b815260206004820152601b60248201527f436865636b706f696e743a2064656372656173696e67206b657973000000000060448201526064016107c4565b805163ffffffff808816911603613d255784613ce888611695600186614420565b80547bffffffffffffffffffffffffffffffffffffffffffffffffffffffff929092166401000000000263ffffffff909216919091179055613d8a565b6040805180820190915263ffffffff80881682527bffffffffffffffffffffffffffffffffffffffffffffffffffffffff80881660208085019182528b54600181018d5560008d81529190912094519151909216640100000000029216919091179101555b6020015192508391506132be9050565b50506040805180820190915263ffffffff80851682527bffffffffffffffffffffffffffffffffffffffffffffffffffffffff80851660208085019182528854600181018a5560008a8152918220955192519093166401000000000291909316179201919091559050816132be565b508054613e15906142ff565b6000825580601f10613e25575050565b601f01602090049060005260206000209081019061099691905b8082111561160f5760008155600101613e3f565b7fffffffff000000000000000000000000000000000000000000000000000000008116811461099657600080fd5b600060208284031215613e9357600080fd5b8135611ae881613e53565b60005b83811015613eb9578181015183820152602001613ea1565b83811115610f485750506000910152565b60008151808452613ee2816020860160208601613e9e565b601f017fffffffffffffffffffffffffffffffffffffffffffffffffffffffffffffffe0169290920160200192915050565b602081526000611ae86020830184613eca565b600060208284031215613f3957600080fd5b5035919050565b80356001600160a01b0381168114613f5757600080fd5b919050565b60008060408385031215613f6f57600080fd5b613f7883613f40565b946020939093013593505050565b600080600060608486031215613f9b57600080fd5b613fa484613f40565b9250613fb260208501613f40565b9150604084013590509250925092565b600060208284031215613fd457600080fd5b611ae882613f40565b7fff00000000000000000000000000000000000000000000000000000000000000881681526000602060e08184015261401960e084018a613eca565b838103604085015261402b818a613eca565b606085018990526001600160a01b038816608086015260a0850187905284810360c0860152855180825283870192509083019060005b8181101561407d57835183529284019291840191600101614061565b50909c9b505050505050505050505050565b600080604083850312156140a257600080fd5b6140ab83613f40565b9150602083013580151581146140c057600080fd5b809150509250929050565b7f4e487b7100000000000000000000000000000000000000000000000000000000600052604160045260246000fd5b600067ffffffffffffffff80841115614115576141156140cb565b604051601f85017fffffffffffffffffffffffffffffffffffffffffffffffffffffffffffffffe0908116603f0116810190828211818310171561415b5761415b6140cb565b8160405280935085815286868601111561417457600080fd5b858560208301376000602087830101525050509392505050565b600080600080608085870312156141a457600080fd5b6141ad85613f40565b93506141bb60208601613f40565b925060408501359150606085013567ffffffffffffffff8111156141de57600080fd5b8501601f810187136141ef57600080fd5b6141fe878235602084016140fa565b91505092959194509250565b60008060008060008060c0878903121561422357600080fd5b61422c87613f40565b95506020870135945060408701359350606087013560ff8116811461425057600080fd5b9598949750929560808101359460a0909101359350915050565b6000806040838503121561427d57600080fd5b61428683613f40565b9150602083013567ffffffffffffffff8111156142a257600080fd5b8301601f810185136142b357600080fd5b6142c2858235602084016140fa565b9150509250929050565b600080604083850312156142df57600080fd5b6142e883613f40565b91506142f660208401613f40565b90509250929050565b600181811c9082168061431357607f821691505b602082108103611c15577f4e487b7100000000000000000000000000000000000000000000000000000000600052602260045260246000fd5b7f4e487b7100000000000000000000000000000000000000000000000000000000600052603260045260246000fd5b6000845161438d818460208901613e9e565b80830190507f2e0000000000000000000000000000000000000000000000000000000000000080825285516143c9816001850160208a01613e9e565b600192019182015283516143e4816002840160208801613e9e565b0160020195945050505050565b7f4e487b7100000000000000000000000000000000000000000000000000000000600052601160045260246000fd5b600082821015614432576144326143f1565b500390565b6000821982111561444a5761444a6143f1565b500190565b7f4e487b7100000000000000000000000000000000000000000000000000000000600052601260045260246000fd5b60008351614490818460208801613e9e565b8351908301906144a4818360208801613e9e565b01949350505050565b601f82111561074457600081815260208120601f850160051c810160208610156144d45750805b601f850160051c820191505b818110156144f3578281556001016144e0565b505050505050565b815167ffffffffffffffff811115614515576145156140cb565b6145298161452384546142ff565b846144ad565b602080601f83116001811461455e57600084156145465750858301515b600019600386901b1c1916600185901b1785556144f3565b6000858152602081207fffffffffffffffffffffffffffffffffffffffffffffffffffffffffffffffe08616915b828110156145ab5788860151825594840194600190910190840161458c565b50858210156145c95787850151600019600388901b60f8161c191681555b5050505050600190811b01905550565b7f4e487b7100000000000000000000000000000000000000000000000000000000600052602160045260246000fd5b60008261463e577f4e487b7100000000000000000000000000000000000000000000000000000000600052601260045260246000fd5b500490565b60007bffffffffffffffffffffffffffffffffffffffffffffffffffffffff83811690831681811015614678576146786143f1565b039392505050565b60007bffffffffffffffffffffffffffffffffffffffffffffffffffffffff8083168185168083038211156144a4576144a46143f1565b60006001600160a01b038087168352808616602084015250836040830152608060608301526146e96080830184613eca565b9695505050505050565b60006020828403121561470557600080fd5b8151611ae881613e53565b7f4e487b7100000000000000000000000000000000000000000000000000000000600052603160045260246000fdfea164736f6c634300080f000a",
  "devdoc": {
    "version": 1,
    "kind": "dev",
    "methods": {
      "CLOCK_MODE()": {
        "details": "Machine-readable description of the clock as specified in EIP-6372."
      },
      "DOMAIN_SEPARATOR()": {
        "details": "Returns the contract's {EIP712} domain separator."
      },
      "balanceOf(address)": {
        "details": "See {IERC721-balanceOf}."
      },
      "burn(uint256)": {
        "details": "Burns `tokenId`. See {ERC721-_burn}. Requirements: - The caller must own `tokenId` or be an approved operator."
      },
      "clock()": {
        "details": "Clock used for flagging checkpoints. Can be overridden to implement timestamp based checkpoints (and voting), in which case {CLOCK_MODE} should be overridden as well to match."
      },
      "constructor": {},
      "delegate(address)": {
        "details": "Delegates votes from the sender to `delegatee`."
      },
      "delegateBySig(address,uint256,uint256,uint8,bytes32,bytes32)": {
        "details": "Delegates votes from signer to `delegatee`."
      },
      "delegates(address)": {
        "details": "Returns the delegate that `account` has chosen."
      },
      "eip712Domain()": {
        "details": "See {EIP-5267}. _Available since v4.9._"
      },
      "getApproved(uint256)": {
        "details": "See {IERC721-getApproved}."
      },
      "getPastTotalSupply(uint256)": {
        "details": "Returns the total supply of votes available at a specific moment in the past. If the `clock()` is configured to use block numbers, this will return the value at the end of the corresponding block. NOTE: This value is the sum of all available votes, which is not necessarily the sum of all delegated votes. Votes that have not been delegated are still part of total supply, even though they would not participate in a vote. Requirements: - `timepoint` must be in the past. If operating using block numbers, the block must be already mined."
      },
      "getPastVotes(address,uint256)": {
        "details": "Returns the amount of votes that `account` had at a specific moment in the past. If the `clock()` is configured to use block numbers, this will return the value at the end of the corresponding block. Requirements: - `timepoint` must be in the past. If operating using block numbers, the block must be already mined."
      },
      "getVotes(address)": {
        "details": "Returns the current amount of votes that `account` has."
      },
      "initialize(address)": {
        "params": {
          "_owner": "Owner of this token contract."
        }
      },
      "isApprovedForAll(address,address)": {
        "details": "See {IERC721-isApprovedForAll}."
      },
      "locked(uint256)": {
        "details": "SBTs assigned to zero address are considered invalid, and queries about them do throw.",
        "params": {
          "tokenId": "The identifier for an SBT."
        }
      },
      "name()": {
        "details": "See {IERC721Metadata-name}."
      },
      "nonces(address)": {
        "details": "Returns an address nonce."
      },
      "owner()": {
        "details": "Returns the address of the current owner."
      },
      "ownerOf(uint256)": {
        "details": "See {IERC721-ownerOf}."
      },
      "paused()": {
        "details": "Returns true if the contract is paused, and false otherwise."
      },
      "renounceOwnership()": {
        "details": "Leaves the contract without owner. It will not be possible to call `onlyOwner` functions. Can only be called by the current owner. NOTE: Renouncing ownership will leave the contract without an owner, thereby disabling any functionality that is only available to the owner."
      },
      "symbol()": {
        "details": "See {IERC721Metadata-symbol}."
      },
      "tokenByIndex(uint256)": {
        "details": "See {IERC721Enumerable-tokenByIndex}."
      },
      "tokenOfOwnerByIndex(address,uint256)": {
        "details": "See {IERC721Enumerable-tokenOfOwnerByIndex}."
      },
      "totalSupply()": {
        "details": "See {IERC721Enumerable-totalSupply}."
      },
      "transferOwnership(address)": {
        "details": "Transfers ownership of the contract to a new account (`newOwner`). Can only be called by the current owner."
      },
      "version()": {
        "returns": {
          "_0": "Semver contract version as a string."
        }
      }
    }
  },
  "userdoc": {
    "version": 1,
    "kind": "user",
    "methods": {
      "initialize(address)": {
        "notice": "Initializer."
      },
      "locked(uint256)": {
        "notice": "Returns the locking status of an Soulbound Token"
      },
      "version()": {
        "notice": "Returns the full semver contract version."
      }
    },
    "events": {
      "Locked(uint256)": {
        "notice": "Emitted when the locking status is changed to locked."
      },
      "Unlocked(uint256)": {
        "notice": "Emitted when the locking status is changed to unlocked."
      }
    },
    "notice": "The SecurityCouncilToken is a basic token based on KromaSoulBoundERC721."
  },
  "storageLayout": {
    "storage": [
      {
        "astId": 66103,
        "contract": "contracts/governance/SecurityCouncilToken.sol:SecurityCouncilToken",
        "label": "_initialized",
        "offset": 0,
        "slot": "0",
        "type": "t_uint8"
      },
      {
        "astId": 66106,
        "contract": "contracts/governance/SecurityCouncilToken.sol:SecurityCouncilToken",
        "label": "_initializing",
        "offset": 1,
        "slot": "0",
        "type": "t_bool"
      },
      {
        "astId": 70246,
        "contract": "contracts/governance/SecurityCouncilToken.sol:SecurityCouncilToken",
        "label": "__gap",
        "offset": 0,
        "slot": "1",
        "type": "t_array(t_uint256)50_storage"
      },
      {
        "astId": 71243,
        "contract": "contracts/governance/SecurityCouncilToken.sol:SecurityCouncilToken",
        "label": "__gap",
        "offset": 0,
        "slot": "51",
        "type": "t_array(t_uint256)50_storage"
      },
      {
        "astId": 66546,
        "contract": "contracts/governance/SecurityCouncilToken.sol:SecurityCouncilToken",
        "label": "_name",
        "offset": 0,
        "slot": "101",
        "type": "t_string_storage"
      },
      {
        "astId": 66548,
        "contract": "contracts/governance/SecurityCouncilToken.sol:SecurityCouncilToken",
        "label": "_symbol",
        "offset": 0,
        "slot": "102",
        "type": "t_string_storage"
      },
      {
        "astId": 66552,
        "contract": "contracts/governance/SecurityCouncilToken.sol:SecurityCouncilToken",
        "label": "_owners",
        "offset": 0,
        "slot": "103",
        "type": "t_mapping(t_uint256,t_address)"
      },
      {
        "astId": 66556,
        "contract": "contracts/governance/SecurityCouncilToken.sol:SecurityCouncilToken",
        "label": "_balances",
        "offset": 0,
        "slot": "104",
        "type": "t_mapping(t_address,t_uint256)"
      },
      {
        "astId": 66560,
        "contract": "contracts/governance/SecurityCouncilToken.sol:SecurityCouncilToken",
        "label": "_tokenApprovals",
        "offset": 0,
        "slot": "105",
        "type": "t_mapping(t_uint256,t_address)"
      },
      {
        "astId": 66566,
        "contract": "contracts/governance/SecurityCouncilToken.sol:SecurityCouncilToken",
        "label": "_operatorApprovals",
        "offset": 0,
        "slot": "106",
        "type": "t_mapping(t_address,t_mapping(t_address,t_bool))"
      },
      {
        "astId": 67468,
        "contract": "contracts/governance/SecurityCouncilToken.sol:SecurityCouncilToken",
        "label": "__gap",
        "offset": 0,
        "slot": "107",
        "type": "t_array(t_uint256)44_storage"
      },
      {
        "astId": 67683,
        "contract": "contracts/governance/SecurityCouncilToken.sol:SecurityCouncilToken",
        "label": "_ownedTokens",
        "offset": 0,
        "slot": "151",
        "type": "t_mapping(t_address,t_mapping(t_uint256,t_uint256))"
      },
      {
        "astId": 67687,
        "contract": "contracts/governance/SecurityCouncilToken.sol:SecurityCouncilToken",
        "label": "_ownedTokensIndex",
        "offset": 0,
        "slot": "152",
        "type": "t_mapping(t_uint256,t_uint256)"
      },
      {
        "astId": 67690,
        "contract": "contracts/governance/SecurityCouncilToken.sol:SecurityCouncilToken",
        "label": "_allTokens",
        "offset": 0,
        "slot": "153",
        "type": "t_array(t_uint256)dyn_storage"
      },
      {
        "astId": 67694,
        "contract": "contracts/governance/SecurityCouncilToken.sol:SecurityCouncilToken",
        "label": "_allTokensIndex",
        "offset": 0,
        "slot": "154",
        "type": "t_mapping(t_uint256,t_uint256)"
      },
      {
        "astId": 68026,
        "contract": "contracts/governance/SecurityCouncilToken.sol:SecurityCouncilToken",
        "label": "__gap",
        "offset": 0,
        "slot": "155",
        "type": "t_array(t_uint256)46_storage"
      },
      {
        "astId": 68058,
        "contract": "contracts/governance/SecurityCouncilToken.sol:SecurityCouncilToken",
        "label": "_tokenURIs",
        "offset": 0,
        "slot": "201",
        "type": "t_mapping(t_uint256,t_string_storage)"
      },
      {
        "astId": 68202,
        "contract": "contracts/governance/SecurityCouncilToken.sol:SecurityCouncilToken",
        "label": "__gap",
        "offset": 0,
        "slot": "202",
        "type": "t_array(t_uint256)49_storage"
      },
      {
        "astId": 66286,
        "contract": "contracts/governance/SecurityCouncilToken.sol:SecurityCouncilToken",
        "label": "_paused",
        "offset": 0,
        "slot": "251",
        "type": "t_bool"
      },
      {
        "astId": 66391,
        "contract": "contracts/governance/SecurityCouncilToken.sol:SecurityCouncilToken",
        "label": "__gap",
        "offset": 0,
        "slot": "252",
        "type": "t_array(t_uint256)49_storage"
      },
      {
        "astId": 61036,
        "contract": "contracts/governance/SecurityCouncilToken.sol:SecurityCouncilToken",
        "label": "_owner",
        "offset": 0,
        "slot": "301",
        "type": "t_address"
      },
      {
        "astId": 61156,
        "contract": "contracts/governance/SecurityCouncilToken.sol:SecurityCouncilToken",
        "label": "__gap",
        "offset": 0,
        "slot": "302",
        "type": "t_array(t_uint256)49_storage"
      },
      {
        "astId": 67652,
        "contract": "contracts/governance/SecurityCouncilToken.sol:SecurityCouncilToken",
        "label": "__gap",
        "offset": 0,
        "slot": "351",
        "type": "t_array(t_uint256)50_storage"
      },
      {
        "astId": 70934,
        "contract": "contracts/governance/SecurityCouncilToken.sol:SecurityCouncilToken",
        "label": "_hashedName",
        "offset": 0,
        "slot": "401",
        "type": "t_bytes32"
      },
      {
        "astId": 70937,
        "contract": "contracts/governance/SecurityCouncilToken.sol:SecurityCouncilToken",
        "label": "_hashedVersion",
        "offset": 0,
        "slot": "402",
        "type": "t_bytes32"
      },
      {
        "astId": 70939,
        "contract": "contracts/governance/SecurityCouncilToken.sol:SecurityCouncilToken",
        "label": "_name",
        "offset": 0,
        "slot": "403",
        "type": "t_string_storage"
      },
      {
        "astId": 70941,
        "contract": "contracts/governance/SecurityCouncilToken.sol:SecurityCouncilToken",
        "label": "_version",
        "offset": 0,
        "slot": "404",
        "type": "t_string_storage"
      },
      {
        "astId": 71199,
        "contract": "contracts/governance/SecurityCouncilToken.sol:SecurityCouncilToken",
        "label": "__gap",
        "offset": 0,
        "slot": "405",
        "type": "t_array(t_uint256)48_storage"
      },
      {
        "astId": 65494,
        "contract": "contracts/governance/SecurityCouncilToken.sol:SecurityCouncilToken",
        "label": "_delegation",
        "offset": 0,
        "slot": "453",
        "type": "t_mapping(t_address,t_address)"
      },
      {
        "astId": 65500,
        "contract": "contracts/governance/SecurityCouncilToken.sol:SecurityCouncilToken",
        "label": "_delegateCheckpoints",
        "offset": 0,
        "slot": "454",
        "type": "t_mapping(t_address,t_struct(Trace224)69205_storage)"
      },
      {
        "astId": 65504,
        "contract": "contracts/governance/SecurityCouncilToken.sol:SecurityCouncilToken",
        "label": "_totalCheckpoints",
        "offset": 0,
        "slot": "455",
        "type": "t_struct(Trace224)69205_storage"
      },
      {
        "astId": 65509,
        "contract": "contracts/governance/SecurityCouncilToken.sol:SecurityCouncilToken",
        "label": "_nonces",
        "offset": 0,
        "slot": "456",
        "type": "t_mapping(t_address,t_struct(Counter)70253_storage)"
      },
      {
        "astId": 66018,
        "contract": "contracts/governance/SecurityCouncilToken.sol:SecurityCouncilToken",
        "label": "__gap",
        "offset": 0,
        "slot": "457",
        "type": "t_array(t_uint256)46_storage"
      },
      {
        "astId": 68275,
        "contract": "contracts/governance/SecurityCouncilToken.sol:SecurityCouncilToken",
        "label": "__gap",
        "offset": 0,
        "slot": "503",
        "type": "t_array(t_uint256)50_storage"
      },
      {
        "astId": 58067,
        "contract": "contracts/governance/SecurityCouncilToken.sol:SecurityCouncilToken",
        "label": "_tokenIdCounter",
        "offset": 0,
        "slot": "553",
        "type": "t_struct(Counter)70253_storage"
      },
      {
        "astId": 58069,
        "contract": "contracts/governance/SecurityCouncilToken.sol:SecurityCouncilToken",
        "label": "isLocked",
        "offset": 0,
        "slot": "554",
        "type": "t_bool"
      }
    ],
    "types": {
      "t_address": {
        "encoding": "inplace",
        "label": "address",
        "numberOfBytes": "20"
      },
      "t_array(t_struct(Checkpoint224)69210_storage)dyn_storage": {
        "encoding": "dynamic_array",
        "label": "struct CheckpointsUpgradeable.Checkpoint224[]",
        "numberOfBytes": "32",
        "base": "t_struct(Checkpoint224)69210_storage"
      },
      "t_array(t_uint256)44_storage": {
        "encoding": "inplace",
        "label": "uint256[44]",
        "numberOfBytes": "1408",
        "base": "t_uint256"
      },
      "t_array(t_uint256)46_storage": {
        "encoding": "inplace",
        "label": "uint256[46]",
        "numberOfBytes": "1472",
        "base": "t_uint256"
      },
      "t_array(t_uint256)48_storage": {
        "encoding": "inplace",
        "label": "uint256[48]",
        "numberOfBytes": "1536",
        "base": "t_uint256"
      },
      "t_array(t_uint256)49_storage": {
        "encoding": "inplace",
        "label": "uint256[49]",
        "numberOfBytes": "1568",
        "base": "t_uint256"
      },
      "t_array(t_uint256)50_storage": {
        "encoding": "inplace",
        "label": "uint256[50]",
        "numberOfBytes": "1600",
        "base": "t_uint256"
      },
      "t_array(t_uint256)dyn_storage": {
        "encoding": "dynamic_array",
        "label": "uint256[]",
        "numberOfBytes": "32",
        "base": "t_uint256"
      },
      "t_bool": {
        "encoding": "inplace",
        "label": "bool",
        "numberOfBytes": "1"
      },
      "t_bytes32": {
        "encoding": "inplace",
        "label": "bytes32",
        "numberOfBytes": "32"
      },
      "t_mapping(t_address,t_address)": {
        "encoding": "mapping",
        "key": "t_address",
        "label": "mapping(address => address)",
        "numberOfBytes": "32",
        "value": "t_address"
      },
      "t_mapping(t_address,t_bool)": {
        "encoding": "mapping",
        "key": "t_address",
        "label": "mapping(address => bool)",
        "numberOfBytes": "32",
        "value": "t_bool"
      },
      "t_mapping(t_address,t_mapping(t_address,t_bool))": {
        "encoding": "mapping",
        "key": "t_address",
        "label": "mapping(address => mapping(address => bool))",
        "numberOfBytes": "32",
        "value": "t_mapping(t_address,t_bool)"
      },
      "t_mapping(t_address,t_mapping(t_uint256,t_uint256))": {
        "encoding": "mapping",
        "key": "t_address",
        "label": "mapping(address => mapping(uint256 => uint256))",
        "numberOfBytes": "32",
        "value": "t_mapping(t_uint256,t_uint256)"
      },
      "t_mapping(t_address,t_struct(Counter)70253_storage)": {
        "encoding": "mapping",
        "key": "t_address",
        "label": "mapping(address => struct CountersUpgradeable.Counter)",
        "numberOfBytes": "32",
        "value": "t_struct(Counter)70253_storage"
      },
      "t_mapping(t_address,t_struct(Trace224)69205_storage)": {
        "encoding": "mapping",
        "key": "t_address",
        "label": "mapping(address => struct CheckpointsUpgradeable.Trace224)",
        "numberOfBytes": "32",
        "value": "t_struct(Trace224)69205_storage"
      },
      "t_mapping(t_address,t_uint256)": {
        "encoding": "mapping",
        "key": "t_address",
        "label": "mapping(address => uint256)",
        "numberOfBytes": "32",
        "value": "t_uint256"
      },
      "t_mapping(t_uint256,t_address)": {
        "encoding": "mapping",
        "key": "t_uint256",
        "label": "mapping(uint256 => address)",
        "numberOfBytes": "32",
        "value": "t_address"
      },
      "t_mapping(t_uint256,t_string_storage)": {
        "encoding": "mapping",
        "key": "t_uint256",
        "label": "mapping(uint256 => string)",
        "numberOfBytes": "32",
        "value": "t_string_storage"
      },
      "t_mapping(t_uint256,t_uint256)": {
        "encoding": "mapping",
        "key": "t_uint256",
        "label": "mapping(uint256 => uint256)",
        "numberOfBytes": "32",
        "value": "t_uint256"
      },
      "t_string_storage": {
        "encoding": "bytes",
        "label": "string",
        "numberOfBytes": "32"
      },
      "t_struct(Checkpoint224)69210_storage": {
        "encoding": "inplace",
        "label": "struct CheckpointsUpgradeable.Checkpoint224",
        "numberOfBytes": "32",
        "members": [
          {
            "astId": 69207,
            "contract": "contracts/governance/SecurityCouncilToken.sol:SecurityCouncilToken",
            "label": "_key",
            "offset": 0,
            "slot": "0",
            "type": "t_uint32"
          },
          {
            "astId": 69209,
            "contract": "contracts/governance/SecurityCouncilToken.sol:SecurityCouncilToken",
            "label": "_value",
            "offset": 4,
            "slot": "0",
            "type": "t_uint224"
          }
        ]
      },
      "t_struct(Counter)70253_storage": {
        "encoding": "inplace",
        "label": "struct CountersUpgradeable.Counter",
        "numberOfBytes": "32",
        "members": [
          {
            "astId": 70252,
            "contract": "contracts/governance/SecurityCouncilToken.sol:SecurityCouncilToken",
            "label": "_value",
            "offset": 0,
            "slot": "0",
            "type": "t_uint256"
          }
        ]
      },
      "t_struct(Trace224)69205_storage": {
        "encoding": "inplace",
        "label": "struct CheckpointsUpgradeable.Trace224",
        "numberOfBytes": "32",
        "members": [
          {
            "astId": 69204,
            "contract": "contracts/governance/SecurityCouncilToken.sol:SecurityCouncilToken",
            "label": "_checkpoints",
            "offset": 0,
            "slot": "0",
            "type": "t_array(t_struct(Checkpoint224)69210_storage)dyn_storage"
          }
        ]
      },
      "t_uint224": {
        "encoding": "inplace",
        "label": "uint224",
        "numberOfBytes": "28"
      },
      "t_uint256": {
        "encoding": "inplace",
        "label": "uint256",
        "numberOfBytes": "32"
      },
      "t_uint32": {
        "encoding": "inplace",
        "label": "uint32",
        "numberOfBytes": "4"
      },
      "t_uint8": {
        "encoding": "inplace",
        "label": "uint8",
        "numberOfBytes": "1"
      }
    }
  }
}