{
  "address": "0xaC11de7B46e3d24915480E548ccEBD4AafC7A889",
  "abi": [
    {
      "inputs": [
        {
          "internalType": "address",
          "name": "_colosseum",
          "type": "address"
        },
        {
          "internalType": "address payable",
          "name": "_governor",
          "type": "address"
        }
      ],
      "stateMutability": "nonpayable",
      "type": "constructor"
    },
    {
      "anonymous": false,
      "inputs": [
        {
          "indexed": true,
          "internalType": "address",
          "name": "sender",
          "type": "address"
        },
        {
          "indexed": true,
          "internalType": "uint256",
          "name": "transactionId",
          "type": "uint256"
        }
      ],
      "name": "ConfirmationRevoked",
      "type": "event"
    },
    {
      "anonymous": false,
      "inputs": [
        {
          "indexed": true,
          "internalType": "uint256",
          "name": "transactionId",
          "type": "uint256"
        },
        {
          "indexed": true,
          "internalType": "uint256",
          "name": "outputIndex",
          "type": "uint256"
        }
      ],
      "name": "DeletionRequested",
      "type": "event"
    },
    {
      "anonymous": false,
      "inputs": [
        {
          "indexed": false,
          "internalType": "uint8",
          "name": "version",
          "type": "uint8"
        }
      ],
      "name": "Initialized",
      "type": "event"
    },
    {
      "anonymous": false,
      "inputs": [
        {
          "indexed": true,
          "internalType": "address",
          "name": "sender",
          "type": "address"
        },
        {
          "indexed": true,
          "internalType": "uint256",
          "name": "transactionId",
          "type": "uint256"
        }
      ],
      "name": "TransactionConfirmed",
      "type": "event"
    },
    {
      "anonymous": false,
      "inputs": [
        {
          "indexed": true,
          "internalType": "address",
          "name": "sender",
          "type": "address"
        },
        {
          "indexed": true,
          "internalType": "uint256",
          "name": "transactionId",
          "type": "uint256"
        }
      ],
      "name": "TransactionExecuted",
      "type": "event"
    },
    {
      "anonymous": false,
      "inputs": [
        {
          "indexed": true,
          "internalType": "address",
          "name": "sender",
          "type": "address"
        },
        {
          "indexed": true,
          "internalType": "uint256",
          "name": "transactionId",
          "type": "uint256"
        }
      ],
      "name": "TransactionSubmitted",
      "type": "event"
    },
    {
      "anonymous": false,
      "inputs": [
        {
          "indexed": true,
          "internalType": "uint256",
          "name": "transactionId",
          "type": "uint256"
        },
        {
          "indexed": false,
          "internalType": "bytes32",
          "name": "outputRoot",
          "type": "bytes32"
        },
        {
          "indexed": false,
          "internalType": "uint256",
          "name": "l2BlockNumber",
          "type": "uint256"
        }
      ],
      "name": "ValidationRequested",
      "type": "event"
    },
    {
      "inputs": [],
      "name": "COLOSSEUM",
      "outputs": [
        {
          "internalType": "address",
          "name": "",
          "type": "address"
        }
      ],
      "stateMutability": "view",
      "type": "function"
    },
    {
      "inputs": [],
      "name": "GOVERNOR",
      "outputs": [
        {
          "internalType": "contract UpgradeGovernor",
          "name": "",
          "type": "address"
        }
      ],
      "stateMutability": "view",
      "type": "function"
    },
    {
      "inputs": [],
      "name": "clock",
      "outputs": [
        {
          "internalType": "uint48",
          "name": "",
          "type": "uint48"
        }
      ],
      "stateMutability": "view",
      "type": "function"
    },
    {
      "inputs": [
        {
          "internalType": "uint256",
          "name": "_transactionId",
          "type": "uint256"
        }
      ],
      "name": "confirmTransaction",
      "outputs": [],
      "stateMutability": "nonpayable",
      "type": "function"
    },
    {
      "inputs": [
        {
          "internalType": "uint256",
          "name": "",
          "type": "uint256"
        }
      ],
      "name": "confirmations",
      "outputs": [
        {
          "internalType": "uint256",
          "name": "confirmationCount",
          "type": "uint256"
        }
      ],
      "stateMutability": "view",
      "type": "function"
    },
    {
      "inputs": [
        {
          "internalType": "uint256",
          "name": "_transactionId",
          "type": "uint256"
        }
      ],
      "name": "executeTransaction",
      "outputs": [],
      "stateMutability": "nonpayable",
      "type": "function"
    },
    {
      "inputs": [
        {
          "internalType": "address",
          "name": "_target",
          "type": "address"
        },
        {
          "internalType": "uint256",
          "name": "_value",
          "type": "uint256"
        },
        {
          "internalType": "bytes",
          "name": "_data",
          "type": "bytes"
        }
      ],
      "name": "generateTransactionId",
      "outputs": [
        {
          "internalType": "uint256",
          "name": "",
          "type": "uint256"
        }
      ],
      "stateMutability": "view",
      "type": "function"
    },
    {
      "inputs": [
        {
          "internalType": "uint256",
          "name": "_transactionId",
          "type": "uint256"
        }
      ],
      "name": "getConfirmationCount",
      "outputs": [
        {
          "internalType": "uint256",
          "name": "",
          "type": "uint256"
        }
      ],
      "stateMutability": "view",
      "type": "function"
    },
    {
      "inputs": [
        {
          "internalType": "address",
          "name": "account",
          "type": "address"
        }
      ],
      "name": "getVotes",
      "outputs": [
        {
          "internalType": "uint256",
          "name": "",
          "type": "uint256"
        }
      ],
      "stateMutability": "view",
      "type": "function"
    },
    {
      "inputs": [
        {
          "internalType": "uint256",
          "name": "_transactionId",
          "type": "uint256"
        }
      ],
      "name": "isConfirmed",
      "outputs": [
        {
          "internalType": "bool",
          "name": "",
          "type": "bool"
        }
      ],
      "stateMutability": "view",
      "type": "function"
    },
    {
      "inputs": [
        {
          "internalType": "uint256",
          "name": "_transactionId",
          "type": "uint256"
        },
        {
          "internalType": "address",
          "name": "_account",
          "type": "address"
        }
      ],
      "name": "isConfirmedBy",
      "outputs": [
        {
          "internalType": "bool",
          "name": "",
          "type": "bool"
        }
      ],
      "stateMutability": "view",
      "type": "function"
    },
    {
      "inputs": [
        {
          "internalType": "uint256",
          "name": "",
          "type": "uint256"
        }
      ],
      "name": "outputsDeleteRequested",
      "outputs": [
        {
          "internalType": "bool",
          "name": "",
          "type": "bool"
        }
      ],
      "stateMutability": "view",
      "type": "function"
    },
    {
      "inputs": [],
      "name": "quorum",
      "outputs": [
        {
          "internalType": "uint256",
          "name": "",
          "type": "uint256"
        }
      ],
      "stateMutability": "view",
      "type": "function"
    },
    {
      "inputs": [
        {
          "internalType": "uint256",
          "name": "_outputIndex",
          "type": "uint256"
        },
        {
          "internalType": "bool",
          "name": "_force",
          "type": "bool"
        }
      ],
      "name": "requestDeletion",
      "outputs": [],
      "stateMutability": "nonpayable",
      "type": "function"
    },
    {
      "inputs": [
        {
          "internalType": "bytes32",
          "name": "_outputRoot",
          "type": "bytes32"
        },
        {
          "internalType": "uint256",
          "name": "_l2BlockNumber",
          "type": "uint256"
        },
        {
          "internalType": "bytes",
          "name": "_data",
          "type": "bytes"
        }
      ],
      "name": "requestValidation",
      "outputs": [],
      "stateMutability": "nonpayable",
      "type": "function"
    },
    {
      "inputs": [
        {
          "internalType": "uint256",
          "name": "_transactionId",
          "type": "uint256"
        }
      ],
      "name": "revokeConfirmation",
      "outputs": [],
      "stateMutability": "nonpayable",
      "type": "function"
    },
    {
      "inputs": [
        {
          "internalType": "address",
          "name": "_target",
          "type": "address"
        },
        {
          "internalType": "uint256",
          "name": "_value",
          "type": "uint256"
        },
        {
          "internalType": "bytes",
          "name": "_data",
          "type": "bytes"
        }
      ],
      "name": "submitTransaction",
      "outputs": [
        {
          "internalType": "uint256",
          "name": "",
          "type": "uint256"
        }
      ],
      "stateMutability": "nonpayable",
      "type": "function"
    },
    {
      "inputs": [],
      "name": "transactionCount",
      "outputs": [
        {
          "internalType": "uint256",
          "name": "",
          "type": "uint256"
        }
      ],
      "stateMutability": "view",
      "type": "function"
    },
    {
      "inputs": [
        {
          "internalType": "uint256",
          "name": "",
          "type": "uint256"
        }
      ],
      "name": "transactions",
      "outputs": [
        {
          "internalType": "address",
          "name": "target",
          "type": "address"
        },
        {
          "internalType": "bool",
          "name": "executed",
          "type": "bool"
        },
        {
          "internalType": "uint256",
          "name": "value",
          "type": "uint256"
        },
        {
          "internalType": "bytes",
          "name": "data",
          "type": "bytes"
        }
      ],
      "stateMutability": "view",
      "type": "function"
    },
    {
      "inputs": [],
      "name": "version",
      "outputs": [
        {
          "internalType": "string",
          "name": "",
          "type": "string"
        }
      ],
      "stateMutability": "view",
      "type": "function"
    }
  ],
  "transactionHash": "0x8e26fce026152723c7d8499df027e96e01d5504fd13c3ca4f6d33f0c2f609fff",
  "args": [
    "0xbe15843D4335614a8fCfA7AFc83b7283cAB6E82C",
    "0x66cccfC9f967218FE2ac2b6eBC3d992B7cc1C5B3"
  ],
  "numDeployments": 1,
  "solcInputHash": "941e3f3da3dcaeff7ae5c56594848e85",
  "bytecode": "0x6101206040523480156200001257600080fd5b506040516200247538038062002475833981016040819052620000359162000076565b6001600160a01b03908116608052600160a081905260c052600060e0521661010052620000b5565b6001600160a01b03811681146200007357600080fd5b50565b600080604083850312156200008a57600080fd5b825162000097816200005d565b6020840151909250620000aa816200005d565b809150509250929050565b60805160a05160c05160e0516101005161234a6200012b600039600081816103450152818161056e015261061f01526000610daa01526000610d8101526000610d5801526000818161022701528181610726015281816107e20152818161086401528181610e1c0152610f48015261234a6000f3fe608060405234801561001057600080fd5b506004361061016c5760003560e01c80638b51d13f116100cd578063b77bf60011610081578063c01a8c8411610066578063c01a8c8414610390578063c6427474146103a3578063ee22610b146103b657600080fd5b8063b77bf60014610367578063b9774f7b1461037057600080fd5b80639ab24eb0116100b25780639ab24eb01461030a5780639ace38c21461031d5780639e45e8f41461034057600080fd5b80638b51d13f146102cb57806391ddadf4146102eb57600080fd5b806349ae963d116101245780636dc0ae22116101095780636dc0ae2214610222578063784547a71461026e5780638a8e784c1461028157600080fd5b806349ae963d146101fa57806354fd4d501461020d57600080fd5b80631703a018116101555780631703a0181461019957806320ea8d86146101b45780632a758595146101c757600080fd5b80630192337114610171578063080b91ee14610186575b600080fd5b61018461017f366004611c6c565b6103c9565b005b610184610194366004611d7b565b610607565b6101a1610703565b6040519081526020015b60405180910390f35b6101846101c2366004611dcb565b610986565b6101ea6101d5366004611dcb565b60396020526000908152604090205460ff1681565b60405190151581526020016101ab565b6101a1610208366004611e06565b610c68565b610215610d51565b6040516101ab9190611ebf565b6102497f000000000000000000000000000000000000000000000000000000000000000081565b60405173ffffffffffffffffffffffffffffffffffffffff90911681526020016101ab565b6101ea61027c366004611dcb565b610df4565b6101ea61028f366004611ed9565b600082815260346020908152604080832073ffffffffffffffffffffffffffffffffffffffff8516845260010190915290205460ff1692915050565b6101a16102d9366004611dcb565b60009081526034602052604090205490565b6102f3610e18565b60405165ffffffffffff90911681526020016101ab565b6101a1610318366004611efe565b610f44565b61033061032b366004611dcb565b61106d565b6040516101ab9493929190611f1b565b6102497f000000000000000000000000000000000000000000000000000000000000000081565b6101a160385481565b6101a161037e366004611dcb565b60346020526000908152604090205481565b61018461039e366004611dcb565b61114b565b6101a16103b1366004611e06565b6113ad565b6101846103c4366004611dcb565b611442565b3360006103d582610f44565b1161044d5760405162461bcd60e51b815260206004820152603b60248201527f546f6b656e4d756c746953696757616c6c65743a206f6e6c7920616c6c6f776560448201527f6420746f20676f7665726e616e636520746f6b656e206f776e6572000000000060648201526084015b60405180910390fd5b60008381526039602052604090205460ff1615806104685750815b6105015760405162461bcd60e51b8152602060048201526044602482018190527f5365637572697479436f756e63696c3a20746865206f75747075742068617320908201527f616c7265616479206265656e2072657175657374656420746f2062652064656c60648201527f6574656400000000000000000000000000000000000000000000000000000000608482015260a401610444565b6040805160248082018690528251808303909101815260449091019091526020810180517bffffffffffffffffffffffffffffffffffffffffffffffffffffffff167fe39a219c0000000000000000000000000000000000000000000000000000000017905260006105947f000000000000000000000000000000000000000000000000000000000000000082846113ad565b905061059f8161114b565b60008581526039602052604080822080547fffffffffffffffffffffffffffffffffffffffffffffffffffffffffffffff0016600117905551869183917fc63c84660a471a970585c7cab9d0601af8e717ff0822a2ea049a3542fc5aa55a9190a35050505050565b3373ffffffffffffffffffffffffffffffffffffffff7f000000000000000000000000000000000000000000000000000000000000000016146106b25760405162461bcd60e51b815260206004820152603c60248201527f5365637572697479436f756e63696c3a206f6e6c792074686520636f6c6f737360448201527f65756d20636f6e74726163742063616e20626520612073656e646572000000006064820152608401610444565b60006106c0336000846117b0565b604080518681526020810186905291925082917eef5106e82a682c776fd7748be042f406a9ee0feaaea86ae9029477c2b91f2a910160405180910390a250505050565b6000806001610710610e18565b61071a9190611f91565b65ffffffffffff1690507f000000000000000000000000000000000000000000000000000000000000000073ffffffffffffffffffffffffffffffffffffffff166397c3d3346040518163ffffffff1660e01b8152600401602060405180830381865afa15801561078f573d6000803e3d6000fd5b505050506040513d601f19601f820116820180604052508101906107b39190611fb8565b6040517f60c4247f000000000000000000000000000000000000000000000000000000008152600481018390527f000000000000000000000000000000000000000000000000000000000000000073ffffffffffffffffffffffffffffffffffffffff16906360c4247f90602401602060405180830381865afa15801561083e573d6000803e3d6000fd5b505050506040513d601f19601f820116820180604052508101906108629190611fb8565b7f000000000000000000000000000000000000000000000000000000000000000073ffffffffffffffffffffffffffffffffffffffff1663fc0c546a6040518163ffffffff1660e01b8152600401602060405180830381865afa1580156108cd573d6000803e3d6000fd5b505050506040513d601f19601f820116820180604052508101906108f19190611fd1565b73ffffffffffffffffffffffffffffffffffffffff16638e539e8c846040518263ffffffff1660e01b815260040161092b91815260200190565b602060405180830381865afa158015610948573d6000803e3d6000fd5b505050506040513d601f19601f8201168201806040525081019061096c9190611fb8565b6109769190611fee565b610980919061202b565b91505090565b33600061099282610f44565b11610a055760405162461bcd60e51b815260206004820152603b60248201527f546f6b656e4d756c746953696757616c6c65743a206f6e6c7920616c6c6f776560448201527f6420746f20676f7665726e616e636520746f6b656e206f776e657200000000006064820152608401610444565b600082815260336020526040902054829073ffffffffffffffffffffffffffffffffffffffff16610a9e5760405162461bcd60e51b815260206004820152602f60248201527f546f6b656e4d756c746953696757616c6c65743a207472616e73616374696f6e60448201527f20646f6573206e6f7420657869737400000000000000000000000000000000006064820152608401610444565b600083815260336020526040902054839074010000000000000000000000000000000000000000900460ff1615610b3d5760405162461bcd60e51b815260206004820152602560248201527f546f6b656e4d756c746953696757616c6c65743a20616c72656164792065786560448201527f63757465640000000000000000000000000000000000000000000000000000006064820152608401610444565b600084815260346020908152604080832033845260010190915290205460ff16610bcf5760405162461bcd60e51b815260206004820152602660248201527f546f6b656e4d756c746953696757616c6c65743a206e6f7420636f6e6669726d60448201527f65642079657400000000000000000000000000000000000000000000000000006064820152608401610444565b60008481526034602090815260408083203380855260018201909352922080547fffffffffffffffffffffffffffffffffffffffffffffffffffffffffffffff00169055610c1c90610f44565b816000016000828254610c2f9190612066565b9091555050604051859033907f795394da21278ca39d59bb3ca00efeebdc0679acc420916c7385c2c5d942656f90600090a35050505050565b60008373ffffffffffffffffffffffffffffffffffffffff8116610cf45760405162461bcd60e51b815260206004820152602960248201527f546f6b656e4d756c746953696757616c6c65743a20616464726573732069732060448201527f6e6f742076616c696400000000000000000000000000000000000000000000006064820152608401610444565b848484610cff610e18565b604051602001610d12949392919061207d565b604080517fffffffffffffffffffffffffffffffffffffffffffffffffffffffffffffffe0818403018152919052805160209091012095945050505050565b6060610d7c7f00000000000000000000000000000000000000000000000000000000000000006119d7565b610da57f00000000000000000000000000000000000000000000000000000000000000006119d7565b610dce7f00000000000000000000000000000000000000000000000000000000000000006119d7565b604051602001610de0939291906120cb565b604051602081830303815290604052905090565b6000610dfe610703565b600092835260346020526040909220549190911015919050565b60007f000000000000000000000000000000000000000000000000000000000000000073ffffffffffffffffffffffffffffffffffffffff1663fc0c546a6040518163ffffffff1660e01b8152600401602060405180830381865afa158015610e85573d6000803e3d6000fd5b505050506040513d601f19601f82011682018060405250810190610ea99190611fd1565b73ffffffffffffffffffffffffffffffffffffffff166391ddadf46040518163ffffffff1660e01b8152600401602060405180830381865afa925050508015610f2d575060408051601f3d9081017fffffffffffffffffffffffffffffffffffffffffffffffffffffffffffffffe0168201909252610f2a91810190612141565b60015b610f3f57610f3a43611a95565b905090565b919050565b60007f000000000000000000000000000000000000000000000000000000000000000073ffffffffffffffffffffffffffffffffffffffff1663fc0c546a6040518163ffffffff1660e01b8152600401602060405180830381865afa158015610fb1573d6000803e3d6000fd5b505050506040513d601f19601f82011682018060405250810190610fd59190611fd1565b6040517f9ab24eb000000000000000000000000000000000000000000000000000000000815273ffffffffffffffffffffffffffffffffffffffff84811660048301529190911690639ab24eb090602401602060405180830381865afa158015611043573d6000803e3d6000fd5b505050506040513d601f19601f820116820180604052508101906110679190611fb8565b92915050565b60336020526000908152604090208054600182015460028301805473ffffffffffffffffffffffffffffffffffffffff8416947401000000000000000000000000000000000000000090940460ff169391906110c890612169565b80601f01602080910402602001604051908101604052809291908181526020018280546110f490612169565b80156111415780601f1061111657610100808354040283529160200191611141565b820191906000526020600020905b81548152906001019060200180831161112457829003601f168201915b5050505050905084565b33600061115782610f44565b116111ca5760405162461bcd60e51b815260206004820152603b60248201527f546f6b656e4d756c746953696757616c6c65743a206f6e6c7920616c6c6f776560448201527f6420746f20676f7665726e616e636520746f6b656e206f776e657200000000006064820152608401610444565b600082815260336020526040902054829073ffffffffffffffffffffffffffffffffffffffff166112635760405162461bcd60e51b815260206004820152602f60248201527f546f6b656e4d756c746953696757616c6c65743a207472616e73616374696f6e60448201527f20646f6573206e6f7420657869737400000000000000000000000000000000006064820152608401610444565b6000838152603460209081526040808320338452600181019092529091205460ff16156112f85760405162461bcd60e51b815260206004820152602660248201527f546f6b656e4d756c746953696757616c6c65743a20616c726561647920636f6e60448201527f6669726d656400000000000000000000000000000000000000000000000000006064820152608401610444565b3360008181526001838101602052604090912080547fffffffffffffffffffffffffffffffffffffffffffffffffffffffffffffff0016909117905561133d90610f44565b81600001600082825461135091906121bc565b9091555050604051849033907ff8a17c9136a3ae33364fac05eb088a3cbafee10c1889c88593e20ee2d8e4eb8890600090a361138a610703565b600085815260346020526040902054106113a7576113a784611442565b50505050565b60003360006113bb82610f44565b1161142e5760405162461bcd60e51b815260206004820152603b60248201527f546f6b656e4d756c746953696757616c6c65743a206f6e6c7920616c6c6f776560448201527f6420746f20676f7665726e616e636520746f6b656e206f776e657200000000006064820152608401610444565b6114398585856117b0565b95945050505050565b61144a611b17565b600081815260336020526040902054819073ffffffffffffffffffffffffffffffffffffffff166114e35760405162461bcd60e51b815260206004820152602f60248201527f546f6b656e4d756c746953696757616c6c65743a207472616e73616374696f6e60448201527f20646f6573206e6f7420657869737400000000000000000000000000000000006064820152608401610444565b600082815260336020526040902054829074010000000000000000000000000000000000000000900460ff16156115825760405162461bcd60e51b815260206004820152602560248201527f546f6b656e4d756c746953696757616c6c65743a20616c72656164792065786560448201527f63757465640000000000000000000000000000000000000000000000000000006064820152608401610444565b61158b83610df4565b6115fd5760405162461bcd60e51b815260206004820152602760248201527f546f6b656e4d756c746953696757616c6c65743a2071756f72756d206e6f742060448201527f72656163686564000000000000000000000000000000000000000000000000006064820152608401610444565b600083815260336020526040812080547fffffffffffffffffffffff00ffffffffffffffffffffffffffffffffffffffff8116740100000000000000000000000000000000000000001782559091906116fe9073ffffffffffffffffffffffffffffffffffffffff165a846001015485600201805461167b90612169565b80601f01602080910402602001604051908101604052809291908181526020018280546116a790612169565b80156116f45780601f106116c9576101008083540402835291602001916116f4565b820191906000526020600020905b8154815290600101906020018083116116d757829003601f168201915b5050505050611b70565b9050806117735760405162461bcd60e51b815260206004820152602c60248201527f546f6b656e4d756c746953696757616c6c65743a2063616c6c207472616e736160448201527f6374696f6e206661696c656400000000000000000000000000000000000000006064820152608401610444565b604051859033907f4e86ad0da28cbaaaa7e93e36c43b32696e970535225b316f1b84fbf30bdc04e890600090a3505050506117ad60018055565b50565b60008373ffffffffffffffffffffffffffffffffffffffff811661183c5760405162461bcd60e51b815260206004820152602960248201527f546f6b656e4d756c746953696757616c6c65743a20616464726573732069732060448201527f6e6f742076616c696400000000000000000000000000000000000000000000006064820152608401610444565b6000611849868686610c68565b60008181526033602052604090205490915073ffffffffffffffffffffffffffffffffffffffff16156118e45760405162461bcd60e51b815260206004820152602f60248201527f546f6b656e4d756c746953696757616c6c65743a207472616e73616374696f6e60448201527f20616c72656164792065786973747300000000000000000000000000000000006064820152608401610444565b6040805160808101825273ffffffffffffffffffffffffffffffffffffffff8089168252600060208084018281528486018b8152606086018b8152888552603390935295909220845181549351151574010000000000000000000000000000000000000000027fffffffffffffffffffffff00000000000000000000000000000000000000000090941694169390931791909117825592516001820155915190919060028201906119959082612223565b505060388054600101905550604051819033907f1f50cd00b6a6fe3928bf4a5f2f23829e9a1c9396573b828b5fa14d95aae7e77590600090a395945050505050565b606060006119e483611b8a565b600101905060008167ffffffffffffffff811115611a0457611a04611ca1565b6040519080825280601f01601f191660200182016040528015611a2e576020820181803683370190505b5090508181016020015b7fffffffffffffffffffffffffffffffffffffffffffffffffffffffffffffffff017f3031323334353637383961626364656600000000000000000000000000000000600a86061a8153600a8504945084611a3857509392505050565b600065ffffffffffff821115611b135760405162461bcd60e51b815260206004820152602660248201527f53616665436173743a2076616c756520646f65736e27742066697420696e203460448201527f38206269747300000000000000000000000000000000000000000000000000006064820152608401610444565b5090565b600260015403611b695760405162461bcd60e51b815260206004820152601f60248201527f5265656e7472616e637947756172643a207265656e7472616e742063616c6c006044820152606401610444565b6002600155565b600080600080845160208601878a8af19695505050505050565b6000807a184f03e93ff9f4daa797ed6e38ed64bf6a1f0100000000000000008310611bd3577a184f03e93ff9f4daa797ed6e38ed64bf6a1f010000000000000000830492506040015b6d04ee2d6d415b85acef81000000008310611bff576d04ee2d6d415b85acef8100000000830492506020015b662386f26fc100008310611c1d57662386f26fc10000830492506010015b6305f5e1008310611c35576305f5e100830492506008015b6127108310611c4957612710830492506004015b60648310611c5b576064830492506002015b600a83106110675760010192915050565b60008060408385031215611c7f57600080fd5b8235915060208301358015158114611c9657600080fd5b809150509250929050565b7f4e487b7100000000000000000000000000000000000000000000000000000000600052604160045260246000fd5b600082601f830112611ce157600080fd5b813567ffffffffffffffff80821115611cfc57611cfc611ca1565b604051601f83017fffffffffffffffffffffffffffffffffffffffffffffffffffffffffffffffe0908116603f01168101908282118183101715611d4257611d42611ca1565b81604052838152866020858801011115611d5b57600080fd5b836020870160208301376000602085830101528094505050505092915050565b600080600060608486031215611d9057600080fd5b8335925060208401359150604084013567ffffffffffffffff811115611db557600080fd5b611dc186828701611cd0565b9150509250925092565b600060208284031215611ddd57600080fd5b5035919050565b73ffffffffffffffffffffffffffffffffffffffff811681146117ad57600080fd5b600080600060608486031215611e1b57600080fd5b8335611e2681611de4565b925060208401359150604084013567ffffffffffffffff811115611db557600080fd5b60005b83811015611e64578181015183820152602001611e4c565b838111156113a75750506000910152565b60008151808452611e8d816020860160208601611e49565b601f017fffffffffffffffffffffffffffffffffffffffffffffffffffffffffffffffe0169290920160200192915050565b602081526000611ed26020830184611e75565b9392505050565b60008060408385031215611eec57600080fd5b823591506020830135611c9681611de4565b600060208284031215611f1057600080fd5b8135611ed281611de4565b73ffffffffffffffffffffffffffffffffffffffff851681528315156020820152826040820152608060608201526000611f586080830184611e75565b9695505050505050565b7f4e487b7100000000000000000000000000000000000000000000000000000000600052601160045260246000fd5b600065ffffffffffff83811690831681811015611fb057611fb0611f62565b039392505050565b600060208284031215611fca57600080fd5b5051919050565b600060208284031215611fe357600080fd5b8151611ed281611de4565b6000817fffffffffffffffffffffffffffffffffffffffffffffffffffffffffffffffff048311821515161561202657612026611f62565b500290565b600082612061577f4e487b7100000000000000000000000000000000000000000000000000000000600052601260045260246000fd5b500490565b60008282101561207857612078611f62565b500390565b73ffffffffffffffffffffffffffffffffffffffff851681528360208201526080604082015260006120b26080830185611e75565b905065ffffffffffff8316606083015295945050505050565b600084516120dd818460208901611e49565b80830190507f2e000000000000000000000000000000000000000000000000000000000000008082528551612119816001850160208a01611e49565b60019201918201528351612134816002840160208801611e49565b0160020195945050505050565b60006020828403121561215357600080fd5b815165ffffffffffff81168114611ed257600080fd5b600181811c9082168061217d57607f821691505b6020821081036121b6577f4e487b7100000000000000000000000000000000000000000000000000000000600052602260045260246000fd5b50919050565b600082198211156121cf576121cf611f62565b500190565b601f82111561221e57600081815260208120601f850160051c810160208610156121fb5750805b601f850160051c820191505b8181101561221a57828155600101612207565b5050505b505050565b815167ffffffffffffffff81111561223d5761223d611ca1565b6122518161224b8454612169565b846121d4565b602080601f8311600181146122a4576000841561226e5750858301515b7fffffffffffffffffffffffffffffffffffffffffffffffffffffffffffffffff600386901b1c1916600185901b17855561221a565b6000858152602081207fffffffffffffffffffffffffffffffffffffffffffffffffffffffffffffffe08616915b828110156122f1578886015182559484019460019091019084016122d2565b508582101561232d57878501517fffffffffffffffffffffffffffffffffffffffffffffffffffffffffffffffff600388901b60f8161c191681555b5050505050600190811b0190555056fea164736f6c634300080f000a",
  "devdoc": {
    "version": 1,
    "kind": "dev",
    "methods": {
      "clock()": {
        "details": "Clock (as specified in EIP-6372) is set to match the token's clock.      Fallback to block numbers if the token does not implement EIP-6372."
      },
      "confirmTransaction(uint256)": {
        "params": {
          "_transactionId": "Transaction ID."
        }
      },
      "constructor": {
        "params": {
          "_colosseum": "Address of the Colosseum contract.",
          "_governor": "Address of Governor contract."
        }
      },
      "executeTransaction(uint256)": {
        "params": {
          "_transactionId": "Transaction ID."
        }
      },
      "generateTransactionId(address,uint256,bytes)": {
        "params": {
          "_data": "Transaction data payload.",
          "_target": "Transaction target address.",
          "_value": "Transaction ether value."
        },
        "returns": {
          "_0": "Generated transaction id."
        }
      },
      "getConfirmationCount(uint256)": {
        "params": {
          "_transactionId": "Transaction id to check."
        },
        "returns": {
          "_0": "The number of confirmations."
        }
      },
      "getVotes(address)": {
        "params": {
          "_account": "Account to check votes."
        },
        "returns": {
          "_0": "Number of votes."
        }
      },
      "isConfirmed(uint256)": {
        "params": {
          "_transactionId": "Transaction ID."
        },
        "returns": {
          "_0": "Confirmation status."
        }
      },
      "isConfirmedBy(uint256,address)": {
        "params": {
          "_account": "Address to check.",
          "_transactionId": "Transaction id to check."
        },
        "returns": {
          "_0": "Confirmed status."
        }
      },
      "quorum()": {
        "returns": {
          "_0": "Current quorum, in terms of number of votes: `supply * quorumNumerator / quorumDenominator`."
        }
      },
      "requestDeletion(uint256,bool)": {
        "params": {
          "_force": "Option to forcibly make a request to delete the output.",
          "_outputIndex": "Index of output to be deleted."
        }
      },
      "requestValidation(bytes32,uint256,bytes)": {
        "params": {
          "_data": "Calldata for callback purpose.",
          "_l2BlockNumber": "The L2 block number to be validated.",
          "_outputRoot": "The L2 output of the checkpoint block to be validated."
        }
      },
      "revokeConfirmation(uint256)": {
        "params": {
          "_transactionId": "Transaction ID."
        }
      },
      "submitTransaction(address,uint256,bytes)": {
        "params": {
          "_data": "Transaction data payload.",
          "_target": "Transaction target address.",
          "_value": "Transaction ether value."
        },
        "returns": {
          "_0": "Returns transaction ID."
        }
      },
      "version()": {
        "returns": {
          "_0": "Semver contract version as a string."
        }
      }
    },
    "events": {
      "DeletionRequested(uint256,uint256)": {
        "params": {
          "outputIndex": "Index of output to be deleted.",
          "transactionId": "Index of the requested transaction."
        }
      },
      "ValidationRequested(uint256,bytes32,uint256)": {
        "params": {
          "l2BlockNumber": "The L2 block number to be validated.",
          "outputRoot": "The L2 output of the checkpoint block to be validated.",
          "transactionId": "Index of the submitted transaction."
        }
      }
    }
  },
  "userdoc": {
    "version": 1,
    "kind": "user",
    "methods": {
      "COLOSSEUM()": {
        "notice": "The address of the colosseum contract. Can be updated via upgrade."
      },
      "GOVERNOR()": {
        "notice": "The address of the governor contract. Can be updated via upgrade."
      },
      "confirmTransaction(uint256)": {
        "notice": "Allows an owner to confirm a transaction."
      },
      "confirmations(uint256)": {
        "notice": "A mapping of confirmations."
      },
      "executeTransaction(uint256)": {
        "notice": "Allows anyone to execute a confirmed transaction."
      },
      "generateTransactionId(address,uint256,bytes)": {
        "notice": "Generate id of the transaction."
      },
      "getConfirmationCount(uint256)": {
        "notice": "Returns the number of confirmations that account has confirmed."
      },
      "getVotes(address)": {
        "notice": "Returns the number of votes."
      },
      "isConfirmed(uint256)": {
        "notice": "Returns the confirmation status of a transaction."
      },
      "isConfirmedBy(uint256,address)": {
        "notice": "Returns whether the account has confirmed the transaction."
      },
      "outputsDeleteRequested(uint256)": {
        "notice": "A mapping of outputs requested to be deleted."
      },
      "quorum()": {
        "notice": "Returns the current quorum, in terms of number of votes."
      },
      "requestDeletion(uint256,bool)": {
        "notice": "Requests to delete an output to Colosseum forcefully.         This should only be called by one of the Security Council when undeniable bugs occur."
      },
      "requestValidation(bytes32,uint256,bytes)": {
        "notice": "Allows the Colosseum to request for validate output data."
      },
      "revokeConfirmation(uint256)": {
        "notice": "Allows an owner to revoke a transaction."
      },
      "submitTransaction(address,uint256,bytes)": {
        "notice": "Allows an owner to submit and confirm a transaction."
      },
      "transactionCount()": {
        "notice": "The number of transactions submitted."
      },
      "transactions(uint256)": {
        "notice": "A mapping of transactions submitted."
      },
      "version()": {
        "notice": "Returns the full semver contract version."
      }
    },
    "events": {
      "ConfirmationRevoked(address,uint256)": {
        "notice": "Emitted when anyone revoke a confirmation."
      },
      "DeletionRequested(uint256,uint256)": {
        "notice": "Emitted when an output is requested to be deleted."
      },
      "TransactionConfirmed(address,uint256)": {
        "notice": "Emitted when anyone confirm a transaction."
      },
      "TransactionExecuted(address,uint256)": {
        "notice": "Emitted when transaction is executed."
      },
      "TransactionSubmitted(address,uint256)": {
        "notice": "Emitted when anyone submit a transaction."
      },
      "ValidationRequested(uint256,bytes32,uint256)": {
        "notice": "Emitted when a validation request is submitted."
      }
    },
    "notice": "SecurityCouncil receives validation requests for specific output data,         and allows security council parties to validate & agree on transactions before execution."
  },
  "storageLayout": {
    "storage": [
      {
        "astId": 65559,
        "contract": "contracts/L1/SecurityCouncil.sol:SecurityCouncil",
        "label": "_initialized",
        "offset": 0,
        "slot": "0",
        "type": "t_uint8"
      },
      {
        "astId": 65562,
        "contract": "contracts/L1/SecurityCouncil.sol:SecurityCouncil",
        "label": "_initializing",
        "offset": 1,
        "slot": "0",
        "type": "t_bool"
      },
      {
        "astId": 65862,
        "contract": "contracts/L1/SecurityCouncil.sol:SecurityCouncil",
        "label": "_status",
        "offset": 0,
        "slot": "1",
        "type": "t_uint256"
      },
      {
        "astId": 65931,
        "contract": "contracts/L1/SecurityCouncil.sol:SecurityCouncil",
        "label": "__gap",
        "offset": 0,
        "slot": "2",
        "type": "t_array(t_uint256)49_storage"
      },
      {
        "astId": 59479,
        "contract": "contracts/L1/SecurityCouncil.sol:SecurityCouncil",
        "label": "transactions",
        "offset": 0,
        "slot": "51",
        "type": "t_mapping(t_uint256,t_struct(MultiSigTransaction)17502_storage)"
      },
      {
        "astId": 59485,
        "contract": "contracts/L1/SecurityCouncil.sol:SecurityCouncil",
        "label": "confirmations",
        "offset": 0,
        "slot": "52",
        "type": "t_mapping(t_uint256,t_struct(MultiSigConfirmation)17509_storage)"
      },
      {
        "astId": 59490,
        "contract": "contracts/L1/SecurityCouncil.sol:SecurityCouncil",
        "label": "spacer_53_0_96",
        "offset": 0,
        "slot": "53",
        "type": "t_array(t_uint256)3_storage"
      },
      {
        "astId": 59493,
        "contract": "contracts/L1/SecurityCouncil.sol:SecurityCouncil",
        "label": "transactionCount",
        "offset": 0,
        "slot": "56",
        "type": "t_uint256"
      },
      {
        "astId": 3893,
        "contract": "contracts/L1/SecurityCouncil.sol:SecurityCouncil",
        "label": "outputsDeleteRequested",
        "offset": 0,
        "slot": "57",
        "type": "t_mapping(t_uint256,t_bool)"
      }
    ],
    "types": {
      "t_address": {
        "encoding": "inplace",
        "label": "address",
        "numberOfBytes": "20"
      },
      "t_array(t_uint256)3_storage": {
        "encoding": "inplace",
        "label": "uint256[3]",
        "numberOfBytes": "96",
        "base": "t_uint256"
      },
      "t_array(t_uint256)49_storage": {
        "encoding": "inplace",
        "label": "uint256[49]",
        "numberOfBytes": "1568",
        "base": "t_uint256"
      },
      "t_bool": {
        "encoding": "inplace",
        "label": "bool",
        "numberOfBytes": "1"
      },
      "t_bytes_storage": {
        "encoding": "bytes",
        "label": "bytes",
        "numberOfBytes": "32"
      },
      "t_mapping(t_address,t_bool)": {
        "encoding": "mapping",
        "key": "t_address",
        "label": "mapping(address => bool)",
        "numberOfBytes": "32",
        "value": "t_bool"
      },
      "t_mapping(t_uint256,t_bool)": {
        "encoding": "mapping",
        "key": "t_uint256",
        "label": "mapping(uint256 => bool)",
        "numberOfBytes": "32",
        "value": "t_bool"
      },
      "t_mapping(t_uint256,t_struct(MultiSigConfirmation)17509_storage)": {
        "encoding": "mapping",
        "key": "t_uint256",
        "label": "mapping(uint256 => struct Types.MultiSigConfirmation)",
        "numberOfBytes": "32",
        "value": "t_struct(MultiSigConfirmation)17509_storage"
      },
      "t_mapping(t_uint256,t_struct(MultiSigTransaction)17502_storage)": {
        "encoding": "mapping",
        "key": "t_uint256",
        "label": "mapping(uint256 => struct Types.MultiSigTransaction)",
        "numberOfBytes": "32",
        "value": "t_struct(MultiSigTransaction)17502_storage"
      },
      "t_struct(MultiSigConfirmation)17509_storage": {
        "encoding": "inplace",
        "label": "struct Types.MultiSigConfirmation",
        "numberOfBytes": "64",
        "members": [
          {
            "astId": 17504,
            "contract": "contracts/L1/SecurityCouncil.sol:SecurityCouncil",
            "label": "confirmationCount",
            "offset": 0,
            "slot": "0",
            "type": "t_uint256"
          },
          {
            "astId": 17508,
            "contract": "contracts/L1/SecurityCouncil.sol:SecurityCouncil",
            "label": "confirmedBy",
            "offset": 0,
            "slot": "1",
            "type": "t_mapping(t_address,t_bool)"
          }
        ]
      },
      "t_struct(MultiSigTransaction)17502_storage": {
        "encoding": "inplace",
        "label": "struct Types.MultiSigTransaction",
        "numberOfBytes": "96",
        "members": [
          {
            "astId": 17495,
            "contract": "contracts/L1/SecurityCouncil.sol:SecurityCouncil",
            "label": "target",
            "offset": 0,
            "slot": "0",
            "type": "t_address"
          },
          {
            "astId": 17497,
            "contract": "contracts/L1/SecurityCouncil.sol:SecurityCouncil",
            "label": "executed",
            "offset": 20,
            "slot": "0",
            "type": "t_bool"
          },
          {
            "astId": 17499,
            "contract": "contracts/L1/SecurityCouncil.sol:SecurityCouncil",
            "label": "value",
            "offset": 0,
            "slot": "1",
            "type": "t_uint256"
          },
          {
            "astId": 17501,
            "contract": "contracts/L1/SecurityCouncil.sol:SecurityCouncil",
            "label": "data",
            "offset": 0,
            "slot": "2",
            "type": "t_bytes_storage"
          }
        ]
      },
      "t_uint256": {
        "encoding": "inplace",
        "label": "uint256",
        "numberOfBytes": "32"
      },
      "t_uint8": {
        "encoding": "inplace",
        "label": "uint8",
        "numberOfBytes": "1"
      }
    }
  }
}