{
  "address": "0x77F06faB96c2D433A9C543158923b74D3b6190Aa",
  "abi": [
    {
      "inputs": [
        {
          "internalType": "address",
          "name": "_colosseum",
          "type": "address"
        }
      ],
      "stateMutability": "nonpayable",
      "type": "constructor"
    },
    {
      "anonymous": false,
      "inputs": [
        {
          "indexed": true,
          "internalType": "address",
          "name": "sender",
          "type": "address"
        },
        {
          "indexed": true,
          "internalType": "uint256",
          "name": "transactionId",
          "type": "uint256"
        }
      ],
      "name": "Confirmation",
      "type": "event"
    },
    {
      "anonymous": false,
      "inputs": [
        {
          "indexed": true,
          "internalType": "uint256",
          "name": "transactionId",
          "type": "uint256"
        }
      ],
      "name": "Execution",
      "type": "event"
    },
    {
      "anonymous": false,
      "inputs": [
        {
          "indexed": true,
          "internalType": "uint256",
          "name": "transactionId",
          "type": "uint256"
        }
      ],
      "name": "ExecutionFailure",
      "type": "event"
    },
    {
      "anonymous": false,
      "inputs": [
        {
          "indexed": false,
          "internalType": "uint8",
          "name": "version",
          "type": "uint8"
        }
      ],
      "name": "Initialized",
      "type": "event"
    },
    {
      "anonymous": false,
      "inputs": [
        {
          "indexed": true,
          "internalType": "address",
          "name": "owner",
          "type": "address"
        }
      ],
      "name": "OwnerAddition",
      "type": "event"
    },
    {
      "anonymous": false,
      "inputs": [
        {
          "indexed": true,
          "internalType": "address",
          "name": "owner",
          "type": "address"
        }
      ],
      "name": "OwnerRemoval",
      "type": "event"
    },
    {
      "anonymous": false,
      "inputs": [
        {
          "indexed": false,
          "internalType": "uint256",
          "name": "required",
          "type": "uint256"
        }
      ],
      "name": "RequirementChange",
      "type": "event"
    },
    {
      "anonymous": false,
      "inputs": [
        {
          "indexed": true,
          "internalType": "address",
          "name": "sender",
          "type": "address"
        },
        {
          "indexed": true,
          "internalType": "uint256",
          "name": "transactionId",
          "type": "uint256"
        }
      ],
      "name": "Revocation",
      "type": "event"
    },
    {
      "anonymous": false,
      "inputs": [
        {
          "indexed": true,
          "internalType": "uint256",
          "name": "transactionId",
          "type": "uint256"
        }
      ],
      "name": "Submission",
      "type": "event"
    },
    {
      "anonymous": false,
      "inputs": [
        {
          "indexed": true,
          "internalType": "uint256",
          "name": "transactionId",
          "type": "uint256"
        },
        {
          "indexed": false,
          "internalType": "bytes32",
          "name": "outputRoot",
          "type": "bytes32"
        },
        {
          "indexed": false,
          "internalType": "uint128",
          "name": "l2BlockNumber",
          "type": "uint128"
        }
      ],
      "name": "ValidationRequested",
      "type": "event"
    },
    {
      "inputs": [],
      "name": "COLOSSEUM",
      "outputs": [
        {
          "internalType": "address",
          "name": "",
          "type": "address"
        }
      ],
      "stateMutability": "view",
      "type": "function"
    },
    {
      "inputs": [
        {
          "internalType": "address",
          "name": "_owner",
          "type": "address"
        }
      ],
      "name": "addOwner",
      "outputs": [],
      "stateMutability": "nonpayable",
      "type": "function"
    },
    {
      "inputs": [
        {
          "internalType": "uint256",
          "name": "_numConfirmationsRequired",
          "type": "uint256"
        }
      ],
      "name": "changeRequirement",
      "outputs": [],
      "stateMutability": "nonpayable",
      "type": "function"
    },
    {
      "inputs": [
        {
          "internalType": "uint256",
          "name": "_transactionId",
          "type": "uint256"
        }
      ],
      "name": "confirmTransaction",
      "outputs": [],
      "stateMutability": "nonpayable",
      "type": "function"
    },
    {
      "inputs": [
        {
          "internalType": "uint256",
          "name": "",
          "type": "uint256"
        },
        {
          "internalType": "address",
          "name": "",
          "type": "address"
        }
      ],
      "name": "confirmations",
      "outputs": [
        {
          "internalType": "bool",
          "name": "",
          "type": "bool"
        }
      ],
      "stateMutability": "view",
      "type": "function"
    },
    {
      "inputs": [
        {
          "internalType": "uint256",
          "name": "_transactionId",
          "type": "uint256"
        }
      ],
      "name": "executeTransaction",
      "outputs": [],
      "stateMutability": "nonpayable",
      "type": "function"
    },
    {
      "inputs": [
        {
          "internalType": "uint256",
          "name": "_transactionId",
          "type": "uint256"
        }
      ],
      "name": "getConfirmationCount",
      "outputs": [
        {
          "internalType": "uint256",
          "name": "",
          "type": "uint256"
        }
      ],
      "stateMutability": "view",
      "type": "function"
    },
    {
      "inputs": [
        {
          "internalType": "uint256",
          "name": "_transactionId",
          "type": "uint256"
        }
      ],
      "name": "getConfirmations",
      "outputs": [
        {
          "internalType": "address[]",
          "name": "",
          "type": "address[]"
        }
      ],
      "stateMutability": "view",
      "type": "function"
    },
    {
      "inputs": [],
      "name": "getOwners",
      "outputs": [
        {
          "internalType": "address[]",
          "name": "",
          "type": "address[]"
        }
      ],
      "stateMutability": "view",
      "type": "function"
    },
    {
      "inputs": [
        {
          "internalType": "bool",
          "name": "_pending",
          "type": "bool"
        },
        {
          "internalType": "bool",
          "name": "_executed",
          "type": "bool"
        }
      ],
      "name": "getTransactionCount",
      "outputs": [
        {
          "internalType": "uint256",
          "name": "",
          "type": "uint256"
        }
      ],
      "stateMutability": "view",
      "type": "function"
    },
    {
      "inputs": [
        {
          "internalType": "uint256",
          "name": "_from",
          "type": "uint256"
        },
        {
          "internalType": "uint256",
          "name": "_to",
          "type": "uint256"
        },
        {
          "internalType": "bool",
          "name": "_pending",
          "type": "bool"
        },
        {
          "internalType": "bool",
          "name": "_executed",
          "type": "bool"
        }
      ],
      "name": "getTransactionIds",
      "outputs": [
        {
          "internalType": "uint256[]",
          "name": "",
          "type": "uint256[]"
        }
      ],
      "stateMutability": "view",
      "type": "function"
    },
    {
      "inputs": [
        {
          "internalType": "address[]",
          "name": "_owners",
          "type": "address[]"
        },
        {
          "internalType": "uint256",
          "name": "_numConfirmationsRequired",
          "type": "uint256"
        }
      ],
      "name": "initialize",
      "outputs": [],
      "stateMutability": "nonpayable",
      "type": "function"
    },
    {
      "inputs": [
        {
          "internalType": "bool",
          "name": "",
          "type": "bool"
        },
        {
          "internalType": "address[]",
          "name": "_owners",
          "type": "address[]"
        },
        {
          "internalType": "uint256",
          "name": "_numConfirmationsRequired",
          "type": "uint256"
        }
      ],
      "name": "initialize",
      "outputs": [],
      "stateMutability": "nonpayable",
      "type": "function"
    },
    {
      "inputs": [
        {
          "internalType": "uint256",
          "name": "_transactionId",
          "type": "uint256"
        }
      ],
      "name": "isConfirmed",
      "outputs": [
        {
          "internalType": "bool",
          "name": "",
          "type": "bool"
        }
      ],
      "stateMutability": "view",
      "type": "function"
    },
    {
      "inputs": [
        {
          "internalType": "address",
          "name": "",
          "type": "address"
        }
      ],
      "name": "isOwner",
      "outputs": [
        {
          "internalType": "bool",
          "name": "",
          "type": "bool"
        }
      ],
      "stateMutability": "view",
      "type": "function"
    },
    {
      "inputs": [],
      "name": "numConfirmationsRequired",
      "outputs": [
        {
          "internalType": "uint256",
          "name": "",
          "type": "uint256"
        }
      ],
      "stateMutability": "view",
      "type": "function"
    },
    {
      "inputs": [
        {
          "internalType": "uint256",
          "name": "",
          "type": "uint256"
        }
      ],
      "name": "owners",
      "outputs": [
        {
          "internalType": "address",
          "name": "",
          "type": "address"
        }
      ],
      "stateMutability": "view",
      "type": "function"
    },
    {
      "inputs": [
        {
          "internalType": "address",
          "name": "_owner",
          "type": "address"
        }
      ],
      "name": "removeOwner",
      "outputs": [],
      "stateMutability": "nonpayable",
      "type": "function"
    },
    {
      "inputs": [
        {
          "internalType": "address",
          "name": "_owner",
          "type": "address"
        },
        {
          "internalType": "address",
          "name": "_newOwner",
          "type": "address"
        }
      ],
      "name": "replaceOwner",
      "outputs": [],
      "stateMutability": "nonpayable",
      "type": "function"
    },
    {
      "inputs": [
        {
          "internalType": "bytes32",
          "name": "_outputRoot",
          "type": "bytes32"
        },
        {
          "internalType": "uint128",
          "name": "_l2BlockNumber",
          "type": "uint128"
        },
        {
          "internalType": "bytes",
          "name": "_data",
          "type": "bytes"
        }
      ],
      "name": "requestValidation",
      "outputs": [],
      "stateMutability": "nonpayable",
      "type": "function"
    },
    {
      "inputs": [
        {
          "internalType": "uint256",
          "name": "_transactionId",
          "type": "uint256"
        }
      ],
      "name": "revokeConfirmation",
      "outputs": [],
      "stateMutability": "nonpayable",
      "type": "function"
    },
    {
      "inputs": [
        {
          "internalType": "address",
          "name": "_destination",
          "type": "address"
        },
        {
          "internalType": "uint256",
          "name": "_value",
          "type": "uint256"
        },
        {
          "internalType": "bytes",
          "name": "_data",
          "type": "bytes"
        }
      ],
      "name": "submitTransaction",
      "outputs": [
        {
          "internalType": "uint256",
          "name": "",
          "type": "uint256"
        }
      ],
      "stateMutability": "nonpayable",
      "type": "function"
    },
    {
      "inputs": [],
      "name": "transactionCount",
      "outputs": [
        {
          "internalType": "uint256",
          "name": "",
          "type": "uint256"
        }
      ],
      "stateMutability": "view",
      "type": "function"
    },
    {
      "inputs": [
        {
          "internalType": "uint256",
          "name": "",
          "type": "uint256"
        }
      ],
      "name": "transactions",
      "outputs": [
        {
          "internalType": "address",
          "name": "destination",
          "type": "address"
        },
        {
          "internalType": "bool",
          "name": "executed",
          "type": "bool"
        },
        {
          "internalType": "uint256",
          "name": "value",
          "type": "uint256"
        },
        {
          "internalType": "bytes",
          "name": "data",
          "type": "bytes"
        }
      ],
      "stateMutability": "view",
      "type": "function"
    },
    {
      "inputs": [],
      "name": "version",
      "outputs": [
        {
          "internalType": "string",
          "name": "",
          "type": "string"
        }
      ],
      "stateMutability": "view",
      "type": "function"
    }
  ],
  "transactionHash": "0xbfb392aeea356bdcd756695f899207b32e3c2380e7281119b1ab187591e1b6d8",
  "args": [
    "0xAAdB2B0DbB66791A34A73c29f6acC3b25549F3b2"
  ],
  "numDeployments": 1,
  "solcInputHash": "6f3a21e0590123f0196e4074350c1ab9",
  "bytecode": "0x6101006040523480156200001257600080fd5b506040516200311738038062003117833981016040819052620000359162000056565b60006080819052600160a05260c0526001600160a01b031660e05262000088565b6000602082840312156200006957600080fd5b81516001600160a01b03811681146200008157600080fd5b9392505050565b60805160a05160c05160e05161304e620000c96000396000818161032b015261154701526000610a4301526000610a1a015260006109f1015261304e6000f3fe608060405234801561001057600080fd5b50600436106101a35760003560e01c80639ace38c2116100ee578063b77bf60011610097578063c642747411610071578063c6427474146103d7578063d0549b85146103ea578063e20056e6146103f3578063ee22610b1461040657600080fd5b8063b77bf600146103a8578063ba51a6df146103b1578063c01a8c84146103c457600080fd5b8063a8abe69a116100c8578063a8abe69a14610362578063b46bd88514610382578063b5dc40c31461039557600080fd5b80639ace38c2146103035780639e45e8f414610326578063a0e67e2b1461034d57600080fd5b806354fd4d5011610150578063784547a71161012a578063784547a7146102ca5780638b51d13f146102dd57806398293ebc146102f057600080fd5b806354fd4d501461028f57806360b5bb3f146102a45780637065cb48146102b757600080fd5b80632f54bf6e116101815780632f54bf6e1461020d5780633411c81c14610240578063547415251461026e57600080fd5b8063025e7c27146101a8578063173825d9146101e557806320ea8d86146101fa575b600080fd5b6101bb6101b6366004612754565b610419565b60405173ffffffffffffffffffffffffffffffffffffffff90911681526020015b60405180910390f35b6101f86101f3366004612796565b610450565b005b6101f8610208366004612754565b610770565b61023061021b366004612796565b60356020526000908152604090205460ff1681565b60405190151581526020016101dc565b61023061024e3660046127b8565b603460209081526000928352604080842090915290825290205460ff1681565b61028161027c3660046127f4565b610975565b6040519081526020016101dc565b6102976109ea565b6040516101dc9190612894565b6101f86102b23660046129ac565b610a8d565b6101f86102c5366004612796565b610d42565b6102306102d8366004612754565b610f6b565b6102816102eb366004612754565b610f7c565b6101f86102fe3660046129f1565b611000565b610316610311366004612754565b61115f565b6040516101dc9493929190612a48565b6101bb7f000000000000000000000000000000000000000000000000000000000000000081565b61035561123d565b6040516101dc9190612a85565b610375610370366004612adf565b6112ac565b6040516101dc9190612b25565b6101f8610390366004612beb565b61152f565b6103556103a3366004612754565b61163d565b61028160385481565b6101f86103bf366004612754565b611862565b6101f86103d2366004612754565b611916565b6102816103e5366004612c59565b6119a7565b61028160375481565b6101f8610401366004612c9a565b611a4f565b6101f8610414366004612754565b611ddd565b6036818154811061042957600080fd5b60009182526020909120015473ffffffffffffffffffffffffffffffffffffffff16905081565b3330146104ca5760405162461bcd60e51b815260206004820152603e60248201527f4d756c746953696757616c6c65743a206f6e6c7920616c6c6f7720746869732060448201527f636f6e747261637420746f2063616c6c207468652066756e6374696f6e73000060648201526084015b60405180910390fd5b73ffffffffffffffffffffffffffffffffffffffff8116600090815260356020526040902054819060ff166105665760405162461bcd60e51b8152602060048201526024808201527f4d756c746953696757616c6c65743a206f776e657220646f6573206e6f74206560448201527f786973740000000000000000000000000000000000000000000000000000000060648201526084016104c1565b73ffffffffffffffffffffffffffffffffffffffff82166000908152603560205260408120805460ff191690555b6036546105a390600190612cf3565b811015610712578273ffffffffffffffffffffffffffffffffffffffff16603682815481106105d4576105d4612d0a565b60009182526020909120015473ffffffffffffffffffffffffffffffffffffffff160361070a576036805461060b90600190612cf3565b8154811061061b5761061b612d0a565b6000918252602090912001546036805473ffffffffffffffffffffffffffffffffffffffff909216918390811061065457610654612d0a565b9060005260206000200160006101000a81548173ffffffffffffffffffffffffffffffffffffffff021916908373ffffffffffffffffffffffffffffffffffffffff16021790555060368054806106ad576106ad612d39565b60008281526020902081017fffffffffffffffffffffffffffffffffffffffffffffffffffffffffffffffff90810180547fffffffffffffffffffffffff0000000000000000000000000000000000000000169055019055610712565b600101610594565b50603654603754111561072b5760365461072b90611e6a565b60405173ffffffffffffffffffffffffffffffffffffffff8316907f8001553a916ef2f495d26a907cc54d96ed840d7bda71e73194bf5a9df7a76b9090600090a25050565b3360008181526035602052604090205460ff166107f45760405162461bcd60e51b8152602060048201526024808201527f4d756c746953696757616c6c65743a206f776e657220646f6573206e6f74206560448201527f786973740000000000000000000000000000000000000000000000000000000060648201526084016104c1565b60008281526034602090815260408083203380855292529091205483919060ff166108875760405162461bcd60e51b815260206004820152603e60248201527f4d756c746953696757616c6c65743a207472616e73616374696f6e207769746860448201527f20696420616e64206f776e6572206973206e6f7420636f6e6669726d6564000060648201526084016104c1565b600084815260336020526040902054849074010000000000000000000000000000000000000000900460ff16156109265760405162461bcd60e51b815260206004820152603760248201527f4d756c746953696757616c6c65743a207472616e73616374696f6e207769746860448201527f20696420697320616c726561647920657865637574656400000000000000000060648201526084016104c1565b6000858152603460209081526040808320338085529252808320805460ff191690555187927ff6a317157440607f36269043eb55f1287a5a19ba2216afeab88cd46cbcfb88e991a35050505050565b6000806000805b6038548110156109e15760008181526033602052604090205474010000000000000000000000000000000000000000900460ff1692508580156109bd575082155b806109cd57508480156109cd5750825b156109d9578160010191505b60010161097c565b50949350505050565b6060610a157f0000000000000000000000000000000000000000000000000000000000000000611f01565b610a3e7f0000000000000000000000000000000000000000000000000000000000000000611f01565b610a677f0000000000000000000000000000000000000000000000000000000000000000611f01565b604051602001610a7993929190612d68565b604051602081830303815290604052905090565b600054610100900460ff16610b0a5760405162461bcd60e51b815260206004820152602b60248201527f496e697469616c697a61626c653a20636f6e7472616374206973206e6f74206960448201527f6e697469616c697a696e6700000000000000000000000000000000000000000060648201526084016104c1565b815181818111158015610b1c57508015155b8015610b2757508115155b610b995760405162461bcd60e51b815260206004820152603c60248201527f4d756c746953696757616c6c65743a206e756d626572206f662072657175697260448201527f656420636f6e6669726d6174696f6e206973206e6f742076616c69640000000060648201526084016104c1565b60005b8451811015610d25576000858281518110610bb957610bb9612d0a565b60209081029190910181015173ffffffffffffffffffffffffffffffffffffffff81166000908152603590925260409091205490915060ff1615610c645760405162461bcd60e51b8152602060048201526024808201527f4d756c746953696757616c6c65743a206f776e657220616c726561647920657860448201527f697374730000000000000000000000000000000000000000000000000000000060648201526084016104c1565b73ffffffffffffffffffffffffffffffffffffffff8116610ced5760405162461bcd60e51b815260206004820152602560248201527f4d756c746953696757616c6c65743a20696e76616c6964206f776e657220616460448201527f647265737300000000000000000000000000000000000000000000000000000060648201526084016104c1565b73ffffffffffffffffffffffffffffffffffffffff166000908152603560205260409020805460ff1916600190811790915501610b9c565b508351610d399060369060208701906126b5565b50505060375550565b8073ffffffffffffffffffffffffffffffffffffffff8116610dcb5760405162461bcd60e51b8152602060048201526024808201527f4d756c746953696757616c6c65743a2061646472657373206973206e6f74207660448201527f616c69640000000000000000000000000000000000000000000000000000000060648201526084016104c1565b333014610e405760405162461bcd60e51b815260206004820152603e60248201527f4d756c746953696757616c6c65743a206f6e6c7920616c6c6f7720746869732060448201527f636f6e747261637420746f2063616c6c207468652066756e6374696f6e73000060648201526084016104c1565b73ffffffffffffffffffffffffffffffffffffffff8216600090815260356020526040902054829060ff1615610eb85760405162461bcd60e51b815260206004820152601c60248201527f4d756c746953696757616c6c65743a206f776e6572206578697374730000000060448201526064016104c1565b73ffffffffffffffffffffffffffffffffffffffff8316600081815260356020526040808220805460ff1916600190811790915560368054918201815583527f4a11f94e20a93c79f6ec743a1954ec4fc2c08429ae2122118bf234b2185c81b80180547fffffffffffffffffffffffff00000000000000000000000000000000000000001684179055517ff39e6e1eb0edcf53c221607b54b00cd28f3196fed0a24994dc308b8f611b682d9190a2505050565b6000610f768261203e565b92915050565b60008181526034602052604081208190815b603654811015610ff75781600060368381548110610fae57610fae612d0a565b600091825260208083209091015473ffffffffffffffffffffffffffffffffffffffff16835282019290925260400190205460ff1615610fef578260010192505b600101610f8e565b50909392505050565b600054610100900460ff16158080156110205750600054600160ff909116105b8061103a5750303b15801561103a575060005460ff166001145b6110ac5760405162461bcd60e51b815260206004820152602e60248201527f496e697469616c697a61626c653a20636f6e747261637420697320616c72656160448201527f647920696e697469616c697a656400000000000000000000000000000000000060648201526084016104c1565b6000805460ff1916600117905580156110ec57600080547fffffffffffffffffffffffffffffffffffffffffffffffffffffffffffff00ff166101001790555b6110f68383610a8d565b801561115957600080547fffffffffffffffffffffffffffffffffffffffffffffffffffffffffffff00ff169055604051600181527f7f26b83ff96e1f2b6a682f133852f6798a09c465da95921460cefb38474024989060200160405180910390a15b50505050565b60336020526000908152604090208054600182015460028301805473ffffffffffffffffffffffffffffffffffffffff8416947401000000000000000000000000000000000000000090940460ff169391906111ba90612dde565b80601f01602080910402602001604051908101604052809291908181526020018280546111e690612dde565b80156112335780601f1061120857610100808354040283529160200191611233565b820191906000526020600020905b81548152906001019060200180831161121657829003601f168201915b5050505050905084565b606060368054806020026020016040519081016040528092919081815260200182805480156112a257602002820191906000526020600020905b815473ffffffffffffffffffffffffffffffffffffffff168152600190910190602001808311611277575b5050505050905090565b606060008080806112bd8989612cf3565b67ffffffffffffffff8111156112d5576112d56128a7565b6040519080825280602002602001820160405280156112fe578160200160208202803683370190505b5060408051608081018252600080825260208201819052918101919091526060808201529091508992505b8883101561148a576000838152603360209081526040918290208251608081018452815473ffffffffffffffffffffffffffffffffffffffff8116825274010000000000000000000000000000000000000000900460ff161515928101929092526001810154928201929092526002820180549192916060840191906113ae90612dde565b80601f01602080910402602001604051908101604052809291908181526020018280546113da90612dde565b80156114275780601f106113fc57610100808354040283529160200191611427565b820191906000526020600020905b81548152906001019060200180831161140a57829003601f168201915b505050505081525050905080602001519450878015611444575084155b8061145457508680156114545750845b1561147f578282858151811061146c5761146c612d0a565b6020026020010181815250508360010193505b826001019250611329565b60008467ffffffffffffffff8111156114a5576114a56128a7565b6040519080825280602002602001820160405280156114ce578160200160208202803683370190505b509050600093505b84841015611521578284815181106114f0576114f0612d0a565b602002602001015181858151811061150a5761150a612d0a565b6020026020010181815250508360010193506114d6565b9a9950505050505050505050565b3373ffffffffffffffffffffffffffffffffffffffff7f000000000000000000000000000000000000000000000000000000000000000016146115da5760405162461bcd60e51b815260206004820152603c60248201527f5365637572697479436f756e63696c3a206f6e6c792074686520636f6c6f737360448201527f65756d20636f6e74726163742063616e20626520612073656e6465720000000060648201526084016104c1565b60006115e8336000846120df565b604080518681526fffffffffffffffffffffffffffffffff8616602082015291925082917ff973426617caf7de616b7acd718dc2a21cc22f9657006240f06999faf231fb60910160405180910390a250505050565b60365460609060009067ffffffffffffffff81111561165e5761165e6128a7565b604051908082528060200260200182016040528015611687578160200160208202803683370190505b5060008481526034602052604081209192509081905b60365482101561179357806000603684815481106116bd576116bd612d0a565b600091825260208083209091015473ffffffffffffffffffffffffffffffffffffffff16835282019290925260400190205460ff1615611788576036828154811061170a5761170a612d0a565b9060005260206000200160009054906101000a900473ffffffffffffffffffffffffffffffffffffffff1684848151811061174757611747612d0a565b602002602001019073ffffffffffffffffffffffffffffffffffffffff16908173ffffffffffffffffffffffffffffffffffffffff16815250508260010192505b81600101915061169d565b60008367ffffffffffffffff8111156117ae576117ae6128a7565b6040519080825280602002602001820160405280156117d7578160200160208202803683370190505b509050600092505b83831015611858578483815181106117f9576117f9612d0a565b602002602001015181848151811061181357611813612d0a565b602002602001019073ffffffffffffffffffffffffffffffffffffffff16908173ffffffffffffffffffffffffffffffffffffffff16815250508260010192506117df565b9695505050505050565b3330146118d75760405162461bcd60e51b815260206004820152603e60248201527f4d756c746953696757616c6c65743a206f6e6c7920616c6c6f7720746869732060448201527f636f6e747261637420746f2063616c6c207468652066756e6374696f6e73000060648201526084016104c1565b6118e081611e6a565b6040518181527fa3f1ee9126a074d9326c682f561767f710e927faa811f7a99829d49dc421797a9060200160405180910390a150565b3360008181526035602052604090205460ff1661199a5760405162461bcd60e51b8152602060048201526024808201527f4d756c746953696757616c6c65743a206f776e657220646f6573206e6f74206560448201527f786973740000000000000000000000000000000000000000000000000000000060648201526084016104c1565b6119a38261226e565b5050565b3360008181526035602052604081205490919060ff16611a2e5760405162461bcd60e51b8152602060048201526024808201527f4d756c746953696757616c6c65743a206f776e657220646f6573206e6f74206560448201527f786973740000000000000000000000000000000000000000000000000000000060648201526084016104c1565b6000611a3b8686866120df565b9050611a468161226e565b95945050505050565b333014611ac45760405162461bcd60e51b815260206004820152603e60248201527f4d756c746953696757616c6c65743a206f6e6c7920616c6c6f7720746869732060448201527f636f6e747261637420746f2063616c6c207468652066756e6374696f6e73000060648201526084016104c1565b8073ffffffffffffffffffffffffffffffffffffffff8116611b4d5760405162461bcd60e51b8152602060048201526024808201527f4d756c746953696757616c6c65743a2061646472657373206973206e6f74207660448201527f616c69640000000000000000000000000000000000000000000000000000000060648201526084016104c1565b73ffffffffffffffffffffffffffffffffffffffff8316600090815260356020526040902054839060ff16611be95760405162461bcd60e51b8152602060048201526024808201527f4d756c746953696757616c6c65743a206f776e657220646f6573206e6f74206560448201527f786973740000000000000000000000000000000000000000000000000000000060648201526084016104c1565b73ffffffffffffffffffffffffffffffffffffffff8316600090815260356020526040902054839060ff1615611c615760405162461bcd60e51b815260206004820152601c60248201527f4d756c746953696757616c6c65743a206f776e6572206578697374730000000060448201526064016104c1565b60005b603654811015611d28578573ffffffffffffffffffffffffffffffffffffffff1660368281548110611c9857611c98612d0a565b60009182526020909120015473ffffffffffffffffffffffffffffffffffffffff1603611d20578460368281548110611cd357611cd3612d0a565b9060005260206000200160006101000a81548173ffffffffffffffffffffffffffffffffffffffff021916908373ffffffffffffffffffffffffffffffffffffffff160217905550611d28565b600101611c64565b5073ffffffffffffffffffffffffffffffffffffffff808616600081815260356020526040808220805460ff1990811690915593881682528082208054909416600117909355915190917f8001553a916ef2f495d26a907cc54d96ed840d7bda71e73194bf5a9df7a76b9091a260405173ffffffffffffffffffffffffffffffffffffffff8516907ff39e6e1eb0edcf53c221607b54b00cd28f3196fed0a24994dc308b8f611b682d90600090a25050505050565b3360008181526035602052604090205460ff16611e615760405162461bcd60e51b8152602060048201526024808201527f4d756c746953696757616c6c65743a206f776e657220646f6573206e6f74206560448201527f786973740000000000000000000000000000000000000000000000000000000060648201526084016104c1565b6119a3826123eb565b60365481818111801590611e7d57508015155b8015611e8857508115155b611efa5760405162461bcd60e51b815260206004820152603c60248201527f4d756c746953696757616c6c65743a206e756d626572206f662072657175697260448201527f656420636f6e6669726d6174696f6e206973206e6f742076616c69640000000060648201526084016104c1565b5050603755565b606081600003611f4457505060408051808201909152600181527f3000000000000000000000000000000000000000000000000000000000000000602082015290565b8160005b8115611f6e5780611f5881612e31565b9150611f679050600a83612e98565b9150611f48565b60008167ffffffffffffffff811115611f8957611f896128a7565b6040519080825280601f01601f191660200182016040528015611fb3576020820181803683370190505b5090505b841561203657611fc8600183612cf3565b9150611fd5600a86612eac565b611fe0906030612ec0565b60f81b818381518110611ff557611ff5612d0a565b60200101907effffffffffffffffffffffffffffffffffffffffffffffffffffffffffffff1916908160001a90535061202f600a86612e98565b9450611fb7565b949350505050565b60008181526034602052604081208190815b6036548110156120d4578160006036838154811061207057612070612d0a565b600091825260208083209091015473ffffffffffffffffffffffffffffffffffffffff16835282019290925260400190205460ff16156120b8576120b5600184612ec0565b92505b60375483036120cc57506001949350505050565b600101612050565b506000949350505050565b60008373ffffffffffffffffffffffffffffffffffffffff811661216a5760405162461bcd60e51b8152602060048201526024808201527f4d756c746953696757616c6c65743a2061646472657373206973206e6f74207660448201527f616c69640000000000000000000000000000000000000000000000000000000060648201526084016104c1565b6038546040805160808101825273ffffffffffffffffffffffffffffffffffffffff8089168252600060208084018281528486018b8152606086018b8152888552603390935295909220845181549351151574010000000000000000000000000000000000000000027fffffffffffffffffffffff00000000000000000000000000000000000000000090941694169390931791909117825592516001820155915192945091600282019061221f9082612f27565b509050506001603860008282546122369190612ec0565b909155505060405182907fc0ba8fe4b176c1714197d43b9cc6bcf797a4a7461c5fe8d0ef6e184ae7601e5190600090a2509392505050565b600081815260336020526040902054819073ffffffffffffffffffffffffffffffffffffffff166123075760405162461bcd60e51b815260206004820152602a60248201527f4d756c746953696757616c6c65743a207472616e73616374696f6e20646f657360448201527f206e6f742065786973740000000000000000000000000000000000000000000060648201526084016104c1565b60008281526034602090815260408083203380855292529091205483919060ff161561239b5760405162461bcd60e51b815260206004820152603a60248201527f4d756c746953696757616c6c65743a207472616e73616374696f6e207769746860448201527f20696420616e64206f776e657220697320636f6e6669726d656400000000000060648201526084016104c1565b6000848152603460209081526040808320338085529252808320805460ff191660011790555186927f4a504a94899432a9846e1aa406dceb1bcfd538bb839071d49d1e5e23f5be30ef91a3611159845b600081815260336020526040902054819074010000000000000000000000000000000000000000900460ff161561248a5760405162461bcd60e51b815260206004820152603760248201527f4d756c746953696757616c6c65743a207472616e73616374696f6e207769746860448201527f20696420697320616c726561647920657865637574656400000000000000000060648201526084016104c1565b6002600154036124dc5760405162461bcd60e51b815260206004820152601f60248201527f5265656e7472616e637947756172643a207265656e7472616e742063616c6c0060448201526064016104c1565b60026001556124ea8261203e565b1561269357600082815260336020526040812080547fffffffffffffffffffffff00ffffffffffffffffffffffffffffffffffffffff8116740100000000000000000000000000000000000000001782559091906125f09073ffffffffffffffffffffffffffffffffffffffff165a846001015485600201805461256d90612dde565b80601f016020809104026020016040519081016040528092919081815260200182805461259990612dde565b80156125e65780601f106125bb576101008083540402835291602001916125e6565b820191906000526020600020905b8154815290600101906020018083116125c957829003601f168201915b505050505061269b565b9050806126655760405162461bcd60e51b815260206004820152602760248201527f4d756c746953696757616c6c65743a2063616c6c207472616e73616374696f6e60448201527f206661696c65640000000000000000000000000000000000000000000000000060648201526084016104c1565b60405184907f33e13ecb54c3076d8e8bb8c2881800a4d972b792045ffae98fdf46df365fed7590600090a250505b505060018055565b600080600080845160208601878a8af19695505050505050565b82805482825590600052602060002090810192821561272f579160200282015b8281111561272f57825182547fffffffffffffffffffffffff00000000000000000000000000000000000000001673ffffffffffffffffffffffffffffffffffffffff9091161782556020909201916001909101906126d5565b5061273b92915061273f565b5090565b5b8082111561273b5760008155600101612740565b60006020828403121561276657600080fd5b5035919050565b803573ffffffffffffffffffffffffffffffffffffffff8116811461279157600080fd5b919050565b6000602082840312156127a857600080fd5b6127b18261276d565b9392505050565b600080604083850312156127cb57600080fd5b823591506127db6020840161276d565b90509250929050565b8035801515811461279157600080fd5b6000806040838503121561280757600080fd5b612810836127e4565b91506127db602084016127e4565b60005b83811015612839578181015183820152602001612821565b838111156111595750506000910152565b6000815180845261286281602086016020860161281e565b601f017fffffffffffffffffffffffffffffffffffffffffffffffffffffffffffffffe0169290920160200192915050565b6020815260006127b1602083018461284a565b7f4e487b7100000000000000000000000000000000000000000000000000000000600052604160045260246000fd5b604051601f82017fffffffffffffffffffffffffffffffffffffffffffffffffffffffffffffffe016810167ffffffffffffffff8111828210171561291d5761291d6128a7565b604052919050565b600082601f83011261293657600080fd5b8135602067ffffffffffffffff821115612952576129526128a7565b8160051b6129618282016128d6565b928352848101820192828101908785111561297b57600080fd5b83870192505b848310156129a1576129928361276d565b82529183019190830190612981565b979650505050505050565b600080604083850312156129bf57600080fd5b823567ffffffffffffffff8111156129d657600080fd5b6129e285828601612925565b95602094909401359450505050565b600080600060608486031215612a0657600080fd5b612a0f846127e4565b9250602084013567ffffffffffffffff811115612a2b57600080fd5b612a3786828701612925565b925050604084013590509250925092565b73ffffffffffffffffffffffffffffffffffffffff851681528315156020820152826040820152608060608201526000611858608083018461284a565b6020808252825182820181905260009190848201906040850190845b81811015612ad357835173ffffffffffffffffffffffffffffffffffffffff1683529284019291840191600101612aa1565b50909695505050505050565b60008060008060808587031215612af557600080fd5b8435935060208501359250612b0c604086016127e4565b9150612b1a606086016127e4565b905092959194509250565b6020808252825182820181905260009190848201906040850190845b81811015612ad357835183529284019291840191600101612b41565b600082601f830112612b6e57600080fd5b813567ffffffffffffffff811115612b8857612b886128a7565b612bb960207fffffffffffffffffffffffffffffffffffffffffffffffffffffffffffffffe0601f840116016128d6565b818152846020838601011115612bce57600080fd5b816020850160208301376000918101602001919091529392505050565b600080600060608486031215612c0057600080fd5b8335925060208401356fffffffffffffffffffffffffffffffff81168114612c2757600080fd5b9150604084013567ffffffffffffffff811115612c4357600080fd5b612c4f86828701612b5d565b9150509250925092565b600080600060608486031215612c6e57600080fd5b612c778461276d565b925060208401359150604084013567ffffffffffffffff811115612c4357600080fd5b60008060408385031215612cad57600080fd5b612cb68361276d565b91506127db6020840161276d565b7f4e487b7100000000000000000000000000000000000000000000000000000000600052601160045260246000fd5b600082821015612d0557612d05612cc4565b500390565b7f4e487b7100000000000000000000000000000000000000000000000000000000600052603260045260246000fd5b7f4e487b7100000000000000000000000000000000000000000000000000000000600052603160045260246000fd5b60008451612d7a81846020890161281e565b80830190507f2e000000000000000000000000000000000000000000000000000000000000008082528551612db6816001850160208a0161281e565b60019201918201528351612dd181600284016020880161281e565b0160020195945050505050565b600181811c90821680612df257607f821691505b602082108103612e2b577f4e487b7100000000000000000000000000000000000000000000000000000000600052602260045260246000fd5b50919050565b60007fffffffffffffffffffffffffffffffffffffffffffffffffffffffffffffffff8203612e6257612e62612cc4565b5060010190565b7f4e487b7100000000000000000000000000000000000000000000000000000000600052601260045260246000fd5b600082612ea757612ea7612e69565b500490565b600082612ebb57612ebb612e69565b500690565b60008219821115612ed357612ed3612cc4565b500190565b601f821115612f2257600081815260208120601f850160051c81016020861015612eff5750805b601f850160051c820191505b81811015612f1e57828155600101612f0b565b5050505b505050565b815167ffffffffffffffff811115612f4157612f416128a7565b612f5581612f4f8454612dde565b84612ed8565b602080601f831160018114612fa85760008415612f725750858301515b7fffffffffffffffffffffffffffffffffffffffffffffffffffffffffffffffff600386901b1c1916600185901b178555612f1e565b6000858152602081207fffffffffffffffffffffffffffffffffffffffffffffffffffffffffffffffe08616915b82811015612ff557888601518255948401946001909101908401612fd6565b508582101561303157878501517fffffffffffffffffffffffffffffffffffffffffffffffffffffffffffffffff600388901b60f8161c191681555b5050505050600190811b0190555056fea164736f6c634300080f000a",
  "devdoc": {},
  "userdoc": {}
}