{
  "address": "0xbFc1fF90c65c92660ef158bEE61b1c9c205fA4E0",
  "abi": [
    {
      "inputs": [
        {
          "internalType": "address",
          "name": "_owner",
          "type": "address"
        },
        {
          "internalType": "uint256",
          "name": "_overhead",
          "type": "uint256"
        },
        {
          "internalType": "uint256",
          "name": "_scalar",
          "type": "uint256"
        },
        {
          "internalType": "bytes32",
          "name": "_batcherHash",
          "type": "bytes32"
        },
        {
          "internalType": "uint64",
          "name": "_gasLimit",
          "type": "uint64"
        },
        {
          "internalType": "address",
          "name": "_unsafeBlockSigner",
          "type": "address"
        },
        {
          "components": [
            {
              "internalType": "uint32",
              "name": "maxResourceLimit",
              "type": "uint32"
            },
            {
              "internalType": "uint8",
              "name": "elasticityMultiplier",
              "type": "uint8"
            },
            {
              "internalType": "uint8",
              "name": "baseFeeMaxChangeDenominator",
              "type": "uint8"
            },
            {
              "internalType": "uint32",
              "name": "minimumBaseFee",
              "type": "uint32"
            },
            {
              "internalType": "uint32",
              "name": "systemTxMaxGas",
              "type": "uint32"
            },
            {
              "internalType": "uint128",
              "name": "maximumBaseFee",
              "type": "uint128"
            }
          ],
          "internalType": "struct ResourceMetering.ResourceConfig",
          "name": "_config",
          "type": "tuple"
        },
        {
          "internalType": "uint256",
          "name": "_validatorRewardScalar",
          "type": "uint256"
        }
      ],
      "stateMutability": "nonpayable",
      "type": "constructor"
    },
    {
      "anonymous": false,
      "inputs": [
        {
          "indexed": true,
          "internalType": "uint256",
          "name": "version",
          "type": "uint256"
        },
        {
          "indexed": true,
          "internalType": "enum SystemConfig.UpdateType",
          "name": "updateType",
          "type": "uint8"
        },
        {
          "indexed": false,
          "internalType": "bytes",
          "name": "data",
          "type": "bytes"
        }
      ],
      "name": "ConfigUpdate",
      "type": "event"
    },
    {
      "anonymous": false,
      "inputs": [
        {
          "indexed": false,
          "internalType": "uint8",
          "name": "version",
          "type": "uint8"
        }
      ],
      "name": "Initialized",
      "type": "event"
    },
    {
      "anonymous": false,
      "inputs": [
        {
          "indexed": true,
          "internalType": "address",
          "name": "previousOwner",
          "type": "address"
        },
        {
          "indexed": true,
          "internalType": "address",
          "name": "newOwner",
          "type": "address"
        }
      ],
      "name": "OwnershipTransferred",
      "type": "event"
    },
    {
      "inputs": [],
      "name": "UNSAFE_BLOCK_SIGNER_SLOT",
      "outputs": [
        {
          "internalType": "bytes32",
          "name": "",
          "type": "bytes32"
        }
      ],
      "stateMutability": "view",
      "type": "function"
    },
    {
      "inputs": [],
      "name": "VERSION",
      "outputs": [
        {
          "internalType": "uint256",
          "name": "",
          "type": "uint256"
        }
      ],
      "stateMutability": "view",
      "type": "function"
    },
    {
      "inputs": [],
      "name": "batcherHash",
      "outputs": [
        {
          "internalType": "bytes32",
          "name": "",
          "type": "bytes32"
        }
      ],
      "stateMutability": "view",
      "type": "function"
    },
    {
      "inputs": [],
      "name": "gasLimit",
      "outputs": [
        {
          "internalType": "uint64",
          "name": "",
          "type": "uint64"
        }
      ],
      "stateMutability": "view",
      "type": "function"
    },
    {
      "inputs": [
        {
          "internalType": "address",
          "name": "_owner",
          "type": "address"
        },
        {
          "internalType": "uint256",
          "name": "_overhead",
          "type": "uint256"
        },
        {
          "internalType": "uint256",
          "name": "_scalar",
          "type": "uint256"
        },
        {
          "internalType": "bytes32",
          "name": "_batcherHash",
          "type": "bytes32"
        },
        {
          "internalType": "uint64",
          "name": "_gasLimit",
          "type": "uint64"
        },
        {
          "internalType": "address",
          "name": "_unsafeBlockSigner",
          "type": "address"
        },
        {
          "components": [
            {
              "internalType": "uint32",
              "name": "maxResourceLimit",
              "type": "uint32"
            },
            {
              "internalType": "uint8",
              "name": "elasticityMultiplier",
              "type": "uint8"
            },
            {
              "internalType": "uint8",
              "name": "baseFeeMaxChangeDenominator",
              "type": "uint8"
            },
            {
              "internalType": "uint32",
              "name": "minimumBaseFee",
              "type": "uint32"
            },
            {
              "internalType": "uint32",
              "name": "systemTxMaxGas",
              "type": "uint32"
            },
            {
              "internalType": "uint128",
              "name": "maximumBaseFee",
              "type": "uint128"
            }
          ],
          "internalType": "struct ResourceMetering.ResourceConfig",
          "name": "_config",
          "type": "tuple"
        },
        {
          "internalType": "uint256",
          "name": "_validatorRewardScalar",
          "type": "uint256"
        }
      ],
      "name": "initialize",
      "outputs": [],
      "stateMutability": "nonpayable",
      "type": "function"
    },
    {
      "inputs": [],
      "name": "minimumGasLimit",
      "outputs": [
        {
          "internalType": "uint64",
          "name": "",
          "type": "uint64"
        }
      ],
      "stateMutability": "view",
      "type": "function"
    },
    {
      "inputs": [],
      "name": "overhead",
      "outputs": [
        {
          "internalType": "uint256",
          "name": "",
          "type": "uint256"
        }
      ],
      "stateMutability": "view",
      "type": "function"
    },
    {
      "inputs": [],
      "name": "owner",
      "outputs": [
        {
          "internalType": "address",
          "name": "",
          "type": "address"
        }
      ],
      "stateMutability": "view",
      "type": "function"
    },
    {
      "inputs": [],
      "name": "renounceOwnership",
      "outputs": [],
      "stateMutability": "nonpayable",
      "type": "function"
    },
    {
      "inputs": [],
      "name": "resourceConfig",
      "outputs": [
        {
          "components": [
            {
              "internalType": "uint32",
              "name": "maxResourceLimit",
              "type": "uint32"
            },
            {
              "internalType": "uint8",
              "name": "elasticityMultiplier",
              "type": "uint8"
            },
            {
              "internalType": "uint8",
              "name": "baseFeeMaxChangeDenominator",
              "type": "uint8"
            },
            {
              "internalType": "uint32",
              "name": "minimumBaseFee",
              "type": "uint32"
            },
            {
              "internalType": "uint32",
              "name": "systemTxMaxGas",
              "type": "uint32"
            },
            {
              "internalType": "uint128",
              "name": "maximumBaseFee",
              "type": "uint128"
            }
          ],
          "internalType": "struct ResourceMetering.ResourceConfig",
          "name": "",
          "type": "tuple"
        }
      ],
      "stateMutability": "view",
      "type": "function"
    },
    {
      "inputs": [],
      "name": "scalar",
      "outputs": [
        {
          "internalType": "uint256",
          "name": "",
          "type": "uint256"
        }
      ],
      "stateMutability": "view",
      "type": "function"
    },
    {
      "inputs": [
        {
          "internalType": "bytes32",
          "name": "_batcherHash",
          "type": "bytes32"
        }
      ],
      "name": "setBatcherHash",
      "outputs": [],
      "stateMutability": "nonpayable",
      "type": "function"
    },
    {
      "inputs": [
        {
          "internalType": "uint256",
          "name": "_overhead",
          "type": "uint256"
        },
        {
          "internalType": "uint256",
          "name": "_scalar",
          "type": "uint256"
        }
      ],
      "name": "setGasConfig",
      "outputs": [],
      "stateMutability": "nonpayable",
      "type": "function"
    },
    {
      "inputs": [
        {
          "internalType": "uint64",
          "name": "_gasLimit",
          "type": "uint64"
        }
      ],
      "name": "setGasLimit",
      "outputs": [],
      "stateMutability": "nonpayable",
      "type": "function"
    },
    {
      "inputs": [
        {
          "components": [
            {
              "internalType": "uint32",
              "name": "maxResourceLimit",
              "type": "uint32"
            },
            {
              "internalType": "uint8",
              "name": "elasticityMultiplier",
              "type": "uint8"
            },
            {
              "internalType": "uint8",
              "name": "baseFeeMaxChangeDenominator",
              "type": "uint8"
            },
            {
              "internalType": "uint32",
              "name": "minimumBaseFee",
              "type": "uint32"
            },
            {
              "internalType": "uint32",
              "name": "systemTxMaxGas",
              "type": "uint32"
            },
            {
              "internalType": "uint128",
              "name": "maximumBaseFee",
              "type": "uint128"
            }
          ],
          "internalType": "struct ResourceMetering.ResourceConfig",
          "name": "_config",
          "type": "tuple"
        }
      ],
      "name": "setResourceConfig",
      "outputs": [],
      "stateMutability": "nonpayable",
      "type": "function"
    },
    {
      "inputs": [
        {
          "internalType": "address",
          "name": "_unsafeBlockSigner",
          "type": "address"
        }
      ],
      "name": "setUnsafeBlockSigner",
      "outputs": [],
      "stateMutability": "nonpayable",
      "type": "function"
    },
    {
      "inputs": [
        {
          "internalType": "uint256",
          "name": "_validatorRewardScalar",
          "type": "uint256"
        }
      ],
      "name": "setValidatorRewardScalar",
      "outputs": [],
      "stateMutability": "nonpayable",
      "type": "function"
    },
    {
      "inputs": [
        {
          "internalType": "address",
          "name": "newOwner",
          "type": "address"
        }
      ],
      "name": "transferOwnership",
      "outputs": [],
      "stateMutability": "nonpayable",
      "type": "function"
    },
    {
      "inputs": [],
      "name": "unsafeBlockSigner",
      "outputs": [
        {
          "internalType": "address",
          "name": "",
          "type": "address"
        }
      ],
      "stateMutability": "view",
      "type": "function"
    },
    {
      "inputs": [],
      "name": "validatorRewardScalar",
      "outputs": [
        {
          "internalType": "uint256",
          "name": "",
          "type": "uint256"
        }
      ],
      "stateMutability": "view",
      "type": "function"
    },
    {
      "inputs": [],
      "name": "version",
      "outputs": [
        {
          "internalType": "string",
          "name": "",
          "type": "string"
        }
      ],
      "stateMutability": "view",
      "type": "function"
    }
  ],
  "transactionHash": "0x64d228de5fe629d30e1d43111ff9328725501dd74ea9038c53b8a06bde626160",
  "args": [
    "0x92c14A443D6C369F62e2bcB7870adffeDb0C4D1d",
    2100,
    1500000,
    "0x000000000000000000000000f15dc770221b99c98d4aaed568f2ab04b9d16e42",
    "0x1c9c380",
    "0x9847c8baa7369b4b1ea0ade43163ab1c58b09e43",
    {
      "maxResourceLimit": 20000000,
      "elasticityMultiplier": 10,
      "baseFeeMaxChangeDenominator": 8,
      "minimumBaseFee": "1000000000",
      "systemTxMaxGas": 1000000,
      "maximumBaseFee": "340282366920938463463374607431768211455"
    },
    2000
  ],
  "numDeployments": 4,
  "solcInputHash": "ad1646ba565a873e1708361d05b7eb04",
  "bytecode": "0x60e06040523480156200001157600080fd5b506040516200226f3803806200226f833981016040819052620000349162000861565b6001608052600060a081905260c05262000055888888888888888862000063565b505050505050505062000a6b565b600054610100900460ff1615808015620000845750600054600160ff909116105b80620000b45750620000a1306200027860201b62000b8d1760201c565b158015620000b4575060005460ff166001145b6200011d5760405162461bcd60e51b815260206004820152602e60248201527f496e697469616c697a61626c653a20636f6e747261637420697320616c72656160448201526d191e481a5b9a5d1a585b1a5e995960921b60648201526084015b60405180910390fd5b6000805460ff19166001179055801562000141576000805461ff0019166101001790555b6200014b62000287565b6200015689620002ef565b606588905560668790556067869055606880546001600160401b0319166001600160401b038716179055620001a9847f65a7ed542fb37fe237fdfbdd70b31598523fe5b32879e307bae27a0bd9581c0855565b620001b4836200036e565b620001be620006c3565b6001600160401b0316856001600160401b03161015620002215760405162461bcd60e51b815260206004820152601f60248201527f53797374656d436f6e6669673a20676173206c696d697420746f6f206c6f7700604482015260640162000114565b606a82905580156200026d576000805461ff0019169055604051600181527f7f26b83ff96e1f2b6a682f133852f6798a09c465da95921460cefb38474024989060200160405180910390a15b505050505050505050565b6001600160a01b03163b151590565b600054610100900460ff16620002e35760405162461bcd60e51b815260206004820152602b60248201526000805160206200224f83398151915260448201526a6e697469616c697a696e6760a81b606482015260840162000114565b620002ed620006f0565b565b620002f962000757565b6001600160a01b038116620003605760405162461bcd60e51b815260206004820152602660248201527f4f776e61626c653a206e6577206f776e657220697320746865207a65726f206160448201526564647265737360d01b606482015260840162000114565b6200036b81620007b3565b50565b8060a001516001600160801b0316816060015163ffffffff161115620003fd5760405162461bcd60e51b815260206004820152603560248201527f53797374656d436f6e6669673a206d696e206261736520666565206d7573742060448201527f6265206c657373207468616e206d617820626173650000000000000000000000606482015260840162000114565b6001816040015160ff16116200046e5760405162461bcd60e51b815260206004820152602f60248201527f53797374656d436f6e6669673a2064656e6f6d696e61746f72206d757374206260448201526e65206c6172676572207468616e203160881b606482015260840162000114565b606854608082015182516001600160401b0390921691620004909190620009ba565b63ffffffff161115620004e65760405162461bcd60e51b815260206004820152601f60248201527f53797374656d436f6e6669673a20676173206c696d697420746f6f206c6f7700604482015260640162000114565b6000816020015160ff1611620005575760405162461bcd60e51b815260206004820152602f60248201527f53797374656d436f6e6669673a20656c6173746963697479206d756c7469706c60448201526e06965722063616e6e6f74206265203608c1b606482015260840162000114565b8051602082015163ffffffff82169160ff9091169062000579908290620009e5565b62000585919062000a17565b63ffffffff1614620006005760405162461bcd60e51b815260206004820152603760248201527f53797374656d436f6e6669673a20707265636973696f6e206c6f73732077697460448201527f6820746172676574207265736f75726365206c696d6974000000000000000000606482015260840162000114565b805160698054602084015160408501516060860151608087015160a09097015163ffffffff96871664ffffffffff199095169490941764010000000060ff948516021764ffffffffff60281b191665010000000000939092169290920263ffffffff60301b19161766010000000000009185169190910217600160501b600160f01b0319166a01000000000000000000009390941692909202600160701b600160f01b03191692909217600160701b6001600160801b0390921691909102179055565b606954600090620006eb9063ffffffff6a010000000000000000000082048116911662000a46565b905090565b600054610100900460ff166200074c5760405162461bcd60e51b815260206004820152602b60248201526000805160206200224f83398151915260448201526a6e697469616c697a696e6760a81b606482015260840162000114565b620002ed33620007b3565b6033546001600160a01b03163314620002ed5760405162461bcd60e51b815260206004820181905260248201527f4f776e61626c653a2063616c6c6572206973206e6f7420746865206f776e6572604482015260640162000114565b603380546001600160a01b038381166001600160a01b0319831681179093556040519116919082907f8be0079c531659141344cd1fd0a4f28419497f9722a3daafe3b4186f6b6457e090600090a35050565b80516001600160a01b03811681146200081d57600080fd5b919050565b805163ffffffff811681146200081d57600080fd5b805160ff811681146200081d57600080fd5b80516001600160801b03811681146200081d57600080fd5b600080600080600080600080888a036101a08112156200088057600080fd5b6200088b8a62000805565b60208b015160408c015160608d015160808e0151939c50919a50985096506001600160401b038082168214620008c057600080fd5b819650620008d160a08d0162000805565b955060c060bf1984011215620008e657600080fd5b604051925060c08301915082821081831117156200091457634e487b7160e01b600052604160045260246000fd5b506040526200092660c08b0162000822565b81526200093660e08b0162000837565b60208201526200094a6101008b0162000837565b60408201526200095e6101208b0162000822565b6060820152620009726101408b0162000822565b6080820152620009866101608b0162000849565b60a08201528092505061018089015190509295985092959890939650565b634e487b7160e01b600052601160045260246000fd5b600063ffffffff808316818516808303821115620009dc57620009dc620009a4565b01949350505050565b600063ffffffff8084168062000a0b57634e487b7160e01b600052601260045260246000fd5b92169190910492915050565b600063ffffffff8083168185168183048111821515161562000a3d5762000a3d620009a4565b02949350505050565b60006001600160401b03828116848216808303821115620009dc57620009dc620009a4565b60805160a05160c0516117b462000a9b60003960006105b0015260006105870152600061055e01526117b46000f3fe608060405234801561001057600080fd5b50600436106101775760003560e01c8063c71973f6116100d8578063ed579ad31161008c578063f68016b711610066578063f68016b714610439578063fc7ffea71461044d578063ffa1ad741461046057600080fd5b8063ed579ad314610414578063f2fde38b1461041d578063f45e65d81461043057600080fd5b8063cc731b02116100bd578063cc731b02146102c4578063e81b2c6d146103f8578063ecdd939d1461040157600080fd5b8063c71973f61461029e578063c9b26f61146102b157600080fd5b806354fd4d501161012f5780638da5cb5b116101145780638da5cb5b1461025a578063935f029e14610278578063b40a817c1461028b57600080fd5b806354fd4d501461023d578063715018a61461025257600080fd5b80631fd19ee1116101605780631fd19ee1146101ad5780634add321d146101f55780634f16540b1461021657600080fd5b80630c18c1621461017c57806318d1391814610198575b600080fd5b61018560655481565b6040519081526020015b60405180910390f35b6101ab6101a636600461134e565b610468565b005b7f65a7ed542fb37fe237fdfbdd70b31598523fe5b32879e307bae27a0bd9581c08545b60405173ffffffffffffffffffffffffffffffffffffffff909116815260200161018f565b6101fd61052c565b60405167ffffffffffffffff909116815260200161018f565b6101857f65a7ed542fb37fe237fdfbdd70b31598523fe5b32879e307bae27a0bd9581c0881565b610245610557565b60405161018f91906113ea565b6101ab6105fa565b60335473ffffffffffffffffffffffffffffffffffffffff166101d0565b6101ab6102863660046113fd565b61060e565b6101ab610299366004611437565b6106a7565b6101ab6102ac36600461158f565b610778565b6101ab6102bf3660046115ab565b61078c565b6103886040805160c081018252600080825260208201819052918101829052606081018290526080810182905260a0810191909152506040805160c08101825260695463ffffffff8082168352640100000000820460ff9081166020850152650100000000008304169383019390935266010000000000008104831660608301526a0100000000000000000000810490921660808201526e0100000000000000000000000000009091046fffffffffffffffffffffffffffffffff1660a082015290565b60405161018f9190600060c08201905063ffffffff80845116835260ff602085015116602084015260ff6040850151166040840152806060850151166060840152806080850151166080840152506fffffffffffffffffffffffffffffffff60a08401511660a083015292915050565b61018560675481565b6101ab61040f3660046115ab565b6107bc565b610185606a5481565b6101ab61042b36600461134e565b61088a565b61018560665481565b6068546101fd9067ffffffffffffffff1681565b6101ab61045b3660046115c4565b610924565b610185600081565b610470610ba9565b610498817f65a7ed542fb37fe237fdfbdd70b31598523fe5b32879e307bae27a0bd9581c0855565b6040805173ffffffffffffffffffffffffffffffffffffffff8316602082015260009101604080517fffffffffffffffffffffffffffffffffffffffffffffffffffffffffffffffe0818403018152919052905060035b60007f1d2b0bda21d56b8bd12d4f94ebacffdfb35f5e226f84b461103bb8beab6353be8360405161052091906113ea565b60405180910390a35050565b6069546000906105529063ffffffff6a0100000000000000000000820481169116611670565b905090565b60606105827f0000000000000000000000000000000000000000000000000000000000000000610c10565b6105ab7f0000000000000000000000000000000000000000000000000000000000000000610c10565b6105d47f0000000000000000000000000000000000000000000000000000000000000000610c10565b6040516020016105e69392919061169c565b604051602081830303815290604052905090565b610602610ba9565b61060c6000610cce565b565b610616610ba9565b606582905560668190556040805160208101849052908101829052600090606001604080517fffffffffffffffffffffffffffffffffffffffffffffffffffffffffffffffe08184030181529190529050600160007f1d2b0bda21d56b8bd12d4f94ebacffdfb35f5e226f84b461103bb8beab6353be8360405161069a91906113ea565b60405180910390a3505050565b6106af610ba9565b6106b761052c565b67ffffffffffffffff168167ffffffffffffffff16101561071f5760405162461bcd60e51b815260206004820152601f60248201527f53797374656d436f6e6669673a20676173206c696d697420746f6f206c6f770060448201526064015b60405180910390fd5b606880547fffffffffffffffffffffffffffffffffffffffffffffffff00000000000000001667ffffffffffffffff831690811790915560408051602080820193909352815180820390930183528101905260026104ef565b610780610ba9565b61078981610d45565b50565b610794610ba9565b60678190556040805160208082018490528251808303909101815290820190915260006104ef565b6107c4610ba9565b6127108111156108625760405162461bcd60e51b815260206004820152604860248201527f53797374656d436f6e6669673a20746865206d61782076616c7565206f66207660448201527f616c696461746f7220726577617264207363616c617220686173206265656e2060648201527f6578636565646564000000000000000000000000000000000000000000000000608482015260a401610716565b606a8190556040805160208082018490528251808303909101815290820190915260046104ef565b610892610ba9565b73ffffffffffffffffffffffffffffffffffffffff811661091b5760405162461bcd60e51b815260206004820152602660248201527f4f776e61626c653a206e6577206f776e657220697320746865207a65726f206160448201527f64647265737300000000000000000000000000000000000000000000000000006064820152608401610716565b61078981610cce565b600054610100900460ff16158080156109445750600054600160ff909116105b8061095e5750303b15801561095e575060005460ff166001145b6109d05760405162461bcd60e51b815260206004820152602e60248201527f496e697469616c697a61626c653a20636f6e747261637420697320616c72656160448201527f647920696e697469616c697a65640000000000000000000000000000000000006064820152608401610716565b600080547fffffffffffffffffffffffffffffffffffffffffffffffffffffffffffffff001660011790558015610a2e57600080547fffffffffffffffffffffffffffffffffffffffffffffffffffffffffffff00ff166101001790555b610a36611137565b610a3f8961088a565b606588905560668790556067869055606880547fffffffffffffffffffffffffffffffffffffffffffffffff00000000000000001667ffffffffffffffff87161790557f65a7ed542fb37fe237fdfbdd70b31598523fe5b32879e307bae27a0bd9581c08849055610aaf83610d45565b610ab761052c565b67ffffffffffffffff168567ffffffffffffffff161015610b1a5760405162461bcd60e51b815260206004820152601f60248201527f53797374656d436f6e6669673a20676173206c696d697420746f6f206c6f77006044820152606401610716565b606a8290558015610b8257600080547fffffffffffffffffffffffffffffffffffffffffffffffffffffffffffff00ff169055604051600181527f7f26b83ff96e1f2b6a682f133852f6798a09c465da95921460cefb38474024989060200160405180910390a15b505050505050505050565b73ffffffffffffffffffffffffffffffffffffffff163b151590565b60335473ffffffffffffffffffffffffffffffffffffffff16331461060c5760405162461bcd60e51b815260206004820181905260248201527f4f776e61626c653a2063616c6c6572206973206e6f7420746865206f776e65726044820152606401610716565b60606000610c1d836111bc565b600101905060008167ffffffffffffffff811115610c3d57610c3d611452565b6040519080825280601f01601f191660200182016040528015610c67576020820181803683370190505b5090508181016020015b7fffffffffffffffffffffffffffffffffffffffffffffffffffffffffffffffff017f3031323334353637383961626364656600000000000000000000000000000000600a86061a8153600a8504945084610c7157509392505050565b6033805473ffffffffffffffffffffffffffffffffffffffff8381167fffffffffffffffffffffffff0000000000000000000000000000000000000000831681179093556040519116919082907f8be0079c531659141344cd1fd0a4f28419497f9722a3daafe3b4186f6b6457e090600090a35050565b8060a001516fffffffffffffffffffffffffffffffff16816060015163ffffffff161115610ddb5760405162461bcd60e51b815260206004820152603560248201527f53797374656d436f6e6669673a206d696e206261736520666565206d7573742060448201527f6265206c657373207468616e206d6178206261736500000000000000000000006064820152608401610716565b6001816040015160ff1611610e585760405162461bcd60e51b815260206004820152602f60248201527f53797374656d436f6e6669673a2064656e6f6d696e61746f72206d757374206260448201527f65206c6172676572207468616e203100000000000000000000000000000000006064820152608401610716565b6068546080820151825167ffffffffffffffff90921691610e799190611712565b63ffffffff161115610ecd5760405162461bcd60e51b815260206004820152601f60248201527f53797374656d436f6e6669673a20676173206c696d697420746f6f206c6f77006044820152606401610716565b6000816020015160ff1611610f4a5760405162461bcd60e51b815260206004820152602f60248201527f53797374656d436f6e6669673a20656c6173746963697479206d756c7469706c60448201527f6965722063616e6e6f74206265203000000000000000000000000000000000006064820152608401610716565b8051602082015163ffffffff82169160ff90911690610f6a908290611731565b610f74919061177b565b63ffffffff1614610fed5760405162461bcd60e51b815260206004820152603760248201527f53797374656d436f6e6669673a20707265636973696f6e206c6f73732077697460448201527f6820746172676574207265736f75726365206c696d69740000000000000000006064820152608401610716565b805160698054602084015160408501516060860151608087015160a09097015163ffffffff9687167fffffffffffffffffffffffffffffffffffffffffffffffffffffff00000000009095169490941764010000000060ff94851602177fffffffffffffffffffffffffffffffffffffffffffff0000000000ffffffffff166501000000000093909216929092027fffffffffffffffffffffffffffffffffffffffffffff00000000ffffffffffff1617660100000000000091851691909102177fffff0000000000000000000000000000000000000000ffffffffffffffffffff166a010000000000000000000093909416929092027fffff00000000000000000000000000000000ffffffffffffffffffffffffffff16929092176e0100000000000000000000000000006fffffffffffffffffffffffffffffffff90921691909102179055565b600054610100900460ff166111b45760405162461bcd60e51b815260206004820152602b60248201527f496e697469616c697a61626c653a20636f6e7472616374206973206e6f74206960448201527f6e697469616c697a696e670000000000000000000000000000000000000000006064820152608401610716565b61060c61129f565b6000807a184f03e93ff9f4daa797ed6e38ed64bf6a1f0100000000000000008310611205577a184f03e93ff9f4daa797ed6e38ed64bf6a1f010000000000000000830492506040015b6d04ee2d6d415b85acef81000000008310611231576d04ee2d6d415b85acef8100000000830492506020015b662386f26fc10000831061124f57662386f26fc10000830492506010015b6305f5e1008310611267576305f5e100830492506008015b612710831061127b57612710830492506004015b6064831061128d576064830492506002015b600a8310611299576001015b92915050565b600054610100900460ff1661131c5760405162461bcd60e51b815260206004820152602b60248201527f496e697469616c697a61626c653a20636f6e7472616374206973206e6f74206960448201527f6e697469616c697a696e670000000000000000000000000000000000000000006064820152608401610716565b61060c33610cce565b803573ffffffffffffffffffffffffffffffffffffffff8116811461134957600080fd5b919050565b60006020828403121561136057600080fd5b61136982611325565b9392505050565b60005b8381101561138b578181015183820152602001611373565b8381111561139a576000848401525b50505050565b600081518084526113b8816020860160208601611370565b601f017fffffffffffffffffffffffffffffffffffffffffffffffffffffffffffffffe0169290920160200192915050565b60208152600061136960208301846113a0565b6000806040838503121561141057600080fd5b50508035926020909101359150565b803567ffffffffffffffff8116811461134957600080fd5b60006020828403121561144957600080fd5b6113698261141f565b7f4e487b7100000000000000000000000000000000000000000000000000000000600052604160045260246000fd5b803563ffffffff8116811461134957600080fd5b803560ff8116811461134957600080fd5b80356fffffffffffffffffffffffffffffffff8116811461134957600080fd5b600060c082840312156114d857600080fd5b60405160c0810181811067ffffffffffffffff82111715611522577f4e487b7100000000000000000000000000000000000000000000000000000000600052604160045260246000fd5b60405290508061153183611481565b815261153f60208401611495565b602082015261155060408401611495565b604082015261156160608401611481565b606082015261157260808401611481565b608082015261158360a084016114a6565b60a08201525092915050565b600060c082840312156115a157600080fd5b61136983836114c6565b6000602082840312156115bd57600080fd5b5035919050565b6000806000806000806000806101a0898b0312156115e157600080fd5b6115ea89611325565b975060208901359650604089013595506060890135945061160d60808a0161141f565b935061161b60a08a01611325565b925061162a8a60c08b016114c6565b915061018089013590509295985092959890939650565b7f4e487b7100000000000000000000000000000000000000000000000000000000600052601160045260246000fd5b600067ffffffffffffffff80831681851680830382111561169357611693611641565b01949350505050565b600084516116ae818460208901611370565b80830190507f2e0000000000000000000000000000000000000000000000000000000000000080825285516116ea816001850160208a01611370565b60019201918201528351611705816002840160208801611370565b0160020195945050505050565b600063ffffffff80831681851680830382111561169357611693611641565b600063ffffffff8084168061176f577f4e487b7100000000000000000000000000000000000000000000000000000000600052601260045260246000fd5b92169190910492915050565b600063ffffffff8083168185168183048111821515161561179e5761179e611641565b0294935050505056fea164736f6c634300080f000a496e697469616c697a61626c653a20636f6e7472616374206973206e6f742069",
  "devdoc": {
    "version": 1,
    "kind": "dev",
    "methods": {
      "constructor": {
        "params": {
          "_batcherHash": "Initial batcher hash.",
          "_config": "Initial resource config.",
          "_gasLimit": "Initial gas limit.",
          "_overhead": "Initial overhead value.",
          "_owner": "Initial owner of the contract.",
          "_scalar": "Initial scalar value.",
          "_unsafeBlockSigner": "Initial unsafe block signer address.",
          "_validatorRewardScalar": "Initial validator reward scalar."
        }
      },
      "initialize(address,uint256,uint256,bytes32,uint64,address,(uint32,uint8,uint8,uint32,uint32,uint128),uint256)": {
        "params": {
          "_batcherHash": "Initial batcher hash.",
          "_config": "Initial ResourceConfig.",
          "_gasLimit": "Initial gas limit.",
          "_overhead": "Initial overhead value.",
          "_owner": "Initial owner of the contract.",
          "_scalar": "Initial scalar value.",
          "_unsafeBlockSigner": "Initial unsafe block signer address.",
          "_validatorRewardScalar": "Initial validator reward scalar."
        }
      },
      "minimumGasLimit()": {
        "returns": {
          "_0": "uint64"
        }
      },
      "owner()": {
        "details": "Returns the address of the current owner."
      },
      "renounceOwnership()": {
        "details": "Leaves the contract without owner. It will not be possible to call `onlyOwner` functions. Can only be called by the current owner. NOTE: Renouncing ownership will leave the contract without an owner, thereby disabling any functionality that is only available to the owner."
      },
      "resourceConfig()": {
        "returns": {
          "_0": "ResourceConfig"
        }
      },
      "setBatcherHash(bytes32)": {
        "params": {
          "_batcherHash": "New batcher hash."
        }
      },
      "setGasConfig(uint256,uint256)": {
        "params": {
          "_overhead": "New overhead value.",
          "_scalar": "New scalar value."
        }
      },
      "setGasLimit(uint64)": {
        "params": {
          "_gasLimit": "New gas limit."
        }
      },
      "setResourceConfig((uint32,uint8,uint8,uint32,uint32,uint128))": {
        "params": {
          "_config": "The new resource config values."
        }
      },
      "setUnsafeBlockSigner(address)": {
        "params": {
          "_unsafeBlockSigner": "New unsafe block signer address."
        }
      },
      "setValidatorRewardScalar(uint256)": {
        "params": {
          "_validatorRewardScalar": "New validator reward scalar."
        }
      },
      "transferOwnership(address)": {
        "details": "Transfers ownership of the contract to a new account (`newOwner`). Can only be called by the current owner."
      },
      "unsafeBlockSigner()": {
        "returns": {
          "_0": "Address of the unsafe block signer."
        }
      },
      "version()": {
        "returns": {
          "_0": "Semver contract version as a string."
        }
      }
    },
    "events": {
      "ConfigUpdate(uint256,uint8,bytes)": {
        "params": {
          "data": "Encoded update data.",
          "updateType": "Type of update.",
          "version": "SystemConfig version."
        }
      }
    },
    "title": "SystemConfig"
  },
  "userdoc": {
    "version": 1,
    "kind": "user",
    "methods": {
      "UNSAFE_BLOCK_SIGNER_SLOT()": {
        "notice": "Storage slot that the unsafe block signer is stored at. Storing it at this         deterministic storage slot allows for decoupling the storage layout from the way         that `solc` lays out storage. The `kroma-node` uses a storage proof to fetch this value."
      },
      "VERSION()": {
        "notice": "Version identifier, used for upgrades."
      },
      "batcherHash()": {
        "notice": "Identifier for the batcher. For version 1 of this configuration, this is represented         as an address left-padded with zeros to 32 bytes."
      },
      "gasLimit()": {
        "notice": "L2 block gas limit."
      },
      "initialize(address,uint256,uint256,bytes32,uint64,address,(uint32,uint8,uint8,uint32,uint32,uint128),uint256)": {
        "notice": "Initializer. The resource config must be set before the         require check."
      },
      "minimumGasLimit()": {
        "notice": "Returns the minimum L2 gas limit that can be safely set for the system to         operate. The L2 gas limit must be larger than or equal to the amount of         gas that is allocated for deposits per block plus the amount of gas that         is allocated for the system transaction.         This function is used to determine if changes to parameters are safe."
      },
      "overhead()": {
        "notice": "Fixed L2 gas overhead. Used as part of the L2 fee calculation."
      },
      "resourceConfig()": {
        "notice": "A getter for the resource config. Ensures that the struct is         returned instead of a tuple."
      },
      "scalar()": {
        "notice": "Dynamic L2 gas overhead. Used as part of the L2 fee calculation."
      },
      "setBatcherHash(bytes32)": {
        "notice": "Updates the batcher hash."
      },
      "setGasConfig(uint256,uint256)": {
        "notice": "Updates gas config."
      },
      "setGasLimit(uint64)": {
        "notice": "Updates the L2 gas limit."
      },
      "setResourceConfig((uint32,uint8,uint8,uint32,uint32,uint128))": {
        "notice": "An external setter for the resource config. In the future, this         method may emit an event that the `kroma-node` picks up for when the         resource config is changed."
      },
      "setUnsafeBlockSigner(address)": {
        "notice": "Updates the unsafe block signer address."
      },
      "setValidatorRewardScalar(uint256)": {
        "notice": "Updates the validator reward scalar."
      },
      "unsafeBlockSigner()": {
        "notice": "High level getter for the unsafe block signer address. Unsafe blocks can be         propagated across the p2p network if they are signed by the key corresponding to         this address."
      },
      "validatorRewardScalar()": {
        "notice": "The scalar value to distribute transaction fees as validator reward.         The denominator is 10000, so the ratio is expressed in 4 decimal places."
      },
      "version()": {
        "notice": "Returns the full semver contract version."
      }
    },
    "events": {
      "ConfigUpdate(uint256,uint8,bytes)": {
        "notice": "Emitted when configuration is updated"
      }
    },
    "notice": "The SystemConfig contract is used to manage configuration of a Kroma network. All         configuration is stored on L1 and picked up by L2 as part of the derivation of the L2         chain."
  },
  "storageLayout": {
    "storage": [
      {
        "astId": 8286,
        "contract": "contracts/L1/SystemConfig.sol:SystemConfig",
        "label": "_initialized",
        "offset": 0,
        "slot": "0",
        "type": "t_uint8"
      },
      {
        "astId": 8289,
        "contract": "contracts/L1/SystemConfig.sol:SystemConfig",
        "label": "_initializing",
        "offset": 1,
        "slot": "0",
        "type": "t_bool"
      },
      {
        "astId": 9030,
        "contract": "contracts/L1/SystemConfig.sol:SystemConfig",
        "label": "__gap",
        "offset": 0,
        "slot": "1",
        "type": "t_array(t_uint256)50_storage"
      },
      {
        "astId": 8158,
        "contract": "contracts/L1/SystemConfig.sol:SystemConfig",
        "label": "_owner",
        "offset": 0,
        "slot": "51",
        "type": "t_address"
      },
      {
        "astId": 8278,
        "contract": "contracts/L1/SystemConfig.sol:SystemConfig",
        "label": "__gap",
        "offset": 0,
        "slot": "52",
        "type": "t_array(t_uint256)49_storage"
      },
      {
        "astId": 1830,
        "contract": "contracts/L1/SystemConfig.sol:SystemConfig",
        "label": "overhead",
        "offset": 0,
        "slot": "101",
        "type": "t_uint256"
      },
      {
        "astId": 1833,
        "contract": "contracts/L1/SystemConfig.sol:SystemConfig",
        "label": "scalar",
        "offset": 0,
        "slot": "102",
        "type": "t_uint256"
      },
      {
        "astId": 1836,
        "contract": "contracts/L1/SystemConfig.sol:SystemConfig",
        "label": "batcherHash",
        "offset": 0,
        "slot": "103",
        "type": "t_bytes32"
      },
      {
        "astId": 1839,
        "contract": "contracts/L1/SystemConfig.sol:SystemConfig",
        "label": "gasLimit",
        "offset": 0,
        "slot": "104",
        "type": "t_uint64"
      },
      {
        "astId": 1843,
        "contract": "contracts/L1/SystemConfig.sol:SystemConfig",
        "label": "_resourceConfig",
        "offset": 0,
        "slot": "105",
        "type": "t_struct(ResourceConfig)1480_storage"
      },
      {
        "astId": 1846,
        "contract": "contracts/L1/SystemConfig.sol:SystemConfig",
        "label": "validatorRewardScalar",
        "offset": 0,
        "slot": "106",
        "type": "t_uint256"
      }
    ],
    "types": {
      "t_address": {
        "encoding": "inplace",
        "label": "address",
        "numberOfBytes": "20"
      },
      "t_array(t_uint256)49_storage": {
        "encoding": "inplace",
        "label": "uint256[49]",
        "numberOfBytes": "1568",
        "base": "t_uint256"
      },
      "t_array(t_uint256)50_storage": {
        "encoding": "inplace",
        "label": "uint256[50]",
        "numberOfBytes": "1600",
        "base": "t_uint256"
      },
      "t_bool": {
        "encoding": "inplace",
        "label": "bool",
        "numberOfBytes": "1"
      },
      "t_bytes32": {
        "encoding": "inplace",
        "label": "bytes32",
        "numberOfBytes": "32"
      },
      "t_struct(ResourceConfig)1480_storage": {
        "encoding": "inplace",
        "label": "struct ResourceMetering.ResourceConfig",
        "numberOfBytes": "32",
        "members": [
          {
            "astId": 1469,
            "contract": "contracts/L1/SystemConfig.sol:SystemConfig",
            "label": "maxResourceLimit",
            "offset": 0,
            "slot": "0",
            "type": "t_uint32"
          },
          {
            "astId": 1471,
            "contract": "contracts/L1/SystemConfig.sol:SystemConfig",
            "label": "elasticityMultiplier",
            "offset": 4,
            "slot": "0",
            "type": "t_uint8"
          },
          {
            "astId": 1473,
            "contract": "contracts/L1/SystemConfig.sol:SystemConfig",
            "label": "baseFeeMaxChangeDenominator",
            "offset": 5,
            "slot": "0",
            "type": "t_uint8"
          },
          {
            "astId": 1475,
            "contract": "contracts/L1/SystemConfig.sol:SystemConfig",
            "label": "minimumBaseFee",
            "offset": 6,
            "slot": "0",
            "type": "t_uint32"
          },
          {
            "astId": 1477,
            "contract": "contracts/L1/SystemConfig.sol:SystemConfig",
            "label": "systemTxMaxGas",
            "offset": 10,
            "slot": "0",
            "type": "t_uint32"
          },
          {
            "astId": 1479,
            "contract": "contracts/L1/SystemConfig.sol:SystemConfig",
            "label": "maximumBaseFee",
            "offset": 14,
            "slot": "0",
            "type": "t_uint128"
          }
        ]
      },
      "t_uint128": {
        "encoding": "inplace",
        "label": "uint128",
        "numberOfBytes": "16"
      },
      "t_uint256": {
        "encoding": "inplace",
        "label": "uint256",
        "numberOfBytes": "32"
      },
      "t_uint32": {
        "encoding": "inplace",
        "label": "uint32",
        "numberOfBytes": "4"
      },
      "t_uint64": {
        "encoding": "inplace",
        "label": "uint64",
        "numberOfBytes": "8"
      },
      "t_uint8": {
        "encoding": "inplace",
        "label": "uint8",
        "numberOfBytes": "1"
      }
    }
  }
}