{
  "address": "0xb5752f015d9692c42EEBF7F8dD83D7079EB1b638",
  "abi": [
    {
      "inputs": [
        {
          "internalType": "address",
          "name": "_owner",
          "type": "address"
        },
        {
          "internalType": "uint256",
          "name": "_overhead",
          "type": "uint256"
        },
        {
          "internalType": "uint256",
          "name": "_scalar",
          "type": "uint256"
        },
        {
          "internalType": "bytes32",
          "name": "_batcherHash",
          "type": "bytes32"
        },
        {
          "internalType": "uint64",
          "name": "_gasLimit",
          "type": "uint64"
        },
        {
          "internalType": "address",
          "name": "_unsafeBlockSigner",
          "type": "address"
        },
        {
          "components": [
            {
              "internalType": "uint32",
              "name": "maxResourceLimit",
              "type": "uint32"
            },
            {
              "internalType": "uint8",
              "name": "elasticityMultiplier",
              "type": "uint8"
            },
            {
              "internalType": "uint8",
              "name": "baseFeeMaxChangeDenominator",
              "type": "uint8"
            },
            {
              "internalType": "uint32",
              "name": "minimumBaseFee",
              "type": "uint32"
            },
            {
              "internalType": "uint32",
              "name": "systemTxMaxGas",
              "type": "uint32"
            },
            {
              "internalType": "uint128",
              "name": "maximumBaseFee",
              "type": "uint128"
            }
          ],
          "internalType": "struct ResourceMetering.ResourceConfig",
          "name": "_config",
          "type": "tuple"
        }
      ],
      "stateMutability": "nonpayable",
      "type": "constructor"
    },
    {
      "anonymous": false,
      "inputs": [
        {
          "indexed": true,
          "internalType": "uint256",
          "name": "version",
          "type": "uint256"
        },
        {
          "indexed": true,
          "internalType": "enum SystemConfig.UpdateType",
          "name": "updateType",
          "type": "uint8"
        },
        {
          "indexed": false,
          "internalType": "bytes",
          "name": "data",
          "type": "bytes"
        }
      ],
      "name": "ConfigUpdate",
      "type": "event"
    },
    {
      "anonymous": false,
      "inputs": [
        {
          "indexed": false,
          "internalType": "uint8",
          "name": "version",
          "type": "uint8"
        }
      ],
      "name": "Initialized",
      "type": "event"
    },
    {
      "anonymous": false,
      "inputs": [
        {
          "indexed": true,
          "internalType": "address",
          "name": "previousOwner",
          "type": "address"
        },
        {
          "indexed": true,
          "internalType": "address",
          "name": "newOwner",
          "type": "address"
        }
      ],
      "name": "OwnershipTransferred",
      "type": "event"
    },
    {
      "inputs": [],
      "name": "UNSAFE_BLOCK_SIGNER_SLOT",
      "outputs": [
        {
          "internalType": "bytes32",
          "name": "",
          "type": "bytes32"
        }
      ],
      "stateMutability": "view",
      "type": "function"
    },
    {
      "inputs": [],
      "name": "VERSION",
      "outputs": [
        {
          "internalType": "uint256",
          "name": "",
          "type": "uint256"
        }
      ],
      "stateMutability": "view",
      "type": "function"
    },
    {
      "inputs": [],
      "name": "batcherHash",
      "outputs": [
        {
          "internalType": "bytes32",
          "name": "",
          "type": "bytes32"
        }
      ],
      "stateMutability": "view",
      "type": "function"
    },
    {
      "inputs": [],
      "name": "gasLimit",
      "outputs": [
        {
          "internalType": "uint64",
          "name": "",
          "type": "uint64"
        }
      ],
      "stateMutability": "view",
      "type": "function"
    },
    {
      "inputs": [
        {
          "internalType": "address",
          "name": "_owner",
          "type": "address"
        },
        {
          "internalType": "uint256",
          "name": "_overhead",
          "type": "uint256"
        },
        {
          "internalType": "uint256",
          "name": "_scalar",
          "type": "uint256"
        },
        {
          "internalType": "bytes32",
          "name": "_batcherHash",
          "type": "bytes32"
        },
        {
          "internalType": "uint64",
          "name": "_gasLimit",
          "type": "uint64"
        },
        {
          "internalType": "address",
          "name": "_unsafeBlockSigner",
          "type": "address"
        },
        {
          "components": [
            {
              "internalType": "uint32",
              "name": "maxResourceLimit",
              "type": "uint32"
            },
            {
              "internalType": "uint8",
              "name": "elasticityMultiplier",
              "type": "uint8"
            },
            {
              "internalType": "uint8",
              "name": "baseFeeMaxChangeDenominator",
              "type": "uint8"
            },
            {
              "internalType": "uint32",
              "name": "minimumBaseFee",
              "type": "uint32"
            },
            {
              "internalType": "uint32",
              "name": "systemTxMaxGas",
              "type": "uint32"
            },
            {
              "internalType": "uint128",
              "name": "maximumBaseFee",
              "type": "uint128"
            }
          ],
          "internalType": "struct ResourceMetering.ResourceConfig",
          "name": "_config",
          "type": "tuple"
        }
      ],
      "name": "initialize",
      "outputs": [],
      "stateMutability": "nonpayable",
      "type": "function"
    },
    {
      "inputs": [],
      "name": "minimumGasLimit",
      "outputs": [
        {
          "internalType": "uint64",
          "name": "",
          "type": "uint64"
        }
      ],
      "stateMutability": "view",
      "type": "function"
    },
    {
      "inputs": [],
      "name": "overhead",
      "outputs": [
        {
          "internalType": "uint256",
          "name": "",
          "type": "uint256"
        }
      ],
      "stateMutability": "view",
      "type": "function"
    },
    {
      "inputs": [],
      "name": "owner",
      "outputs": [
        {
          "internalType": "address",
          "name": "",
          "type": "address"
        }
      ],
      "stateMutability": "view",
      "type": "function"
    },
    {
      "inputs": [],
      "name": "renounceOwnership",
      "outputs": [],
      "stateMutability": "nonpayable",
      "type": "function"
    },
    {
      "inputs": [],
      "name": "resourceConfig",
      "outputs": [
        {
          "components": [
            {
              "internalType": "uint32",
              "name": "maxResourceLimit",
              "type": "uint32"
            },
            {
              "internalType": "uint8",
              "name": "elasticityMultiplier",
              "type": "uint8"
            },
            {
              "internalType": "uint8",
              "name": "baseFeeMaxChangeDenominator",
              "type": "uint8"
            },
            {
              "internalType": "uint32",
              "name": "minimumBaseFee",
              "type": "uint32"
            },
            {
              "internalType": "uint32",
              "name": "systemTxMaxGas",
              "type": "uint32"
            },
            {
              "internalType": "uint128",
              "name": "maximumBaseFee",
              "type": "uint128"
            }
          ],
          "internalType": "struct ResourceMetering.ResourceConfig",
          "name": "",
          "type": "tuple"
        }
      ],
      "stateMutability": "view",
      "type": "function"
    },
    {
      "inputs": [],
      "name": "scalar",
      "outputs": [
        {
          "internalType": "uint256",
          "name": "",
          "type": "uint256"
        }
      ],
      "stateMutability": "view",
      "type": "function"
    },
    {
      "inputs": [
        {
          "internalType": "bytes32",
          "name": "_batcherHash",
          "type": "bytes32"
        }
      ],
      "name": "setBatcherHash",
      "outputs": [],
      "stateMutability": "nonpayable",
      "type": "function"
    },
    {
      "inputs": [
        {
          "internalType": "uint256",
          "name": "_overhead",
          "type": "uint256"
        },
        {
          "internalType": "uint256",
          "name": "_scalar",
          "type": "uint256"
        }
      ],
      "name": "setGasConfig",
      "outputs": [],
      "stateMutability": "nonpayable",
      "type": "function"
    },
    {
      "inputs": [
        {
          "internalType": "uint64",
          "name": "_gasLimit",
          "type": "uint64"
        }
      ],
      "name": "setGasLimit",
      "outputs": [],
      "stateMutability": "nonpayable",
      "type": "function"
    },
    {
      "inputs": [
        {
          "components": [
            {
              "internalType": "uint32",
              "name": "maxResourceLimit",
              "type": "uint32"
            },
            {
              "internalType": "uint8",
              "name": "elasticityMultiplier",
              "type": "uint8"
            },
            {
              "internalType": "uint8",
              "name": "baseFeeMaxChangeDenominator",
              "type": "uint8"
            },
            {
              "internalType": "uint32",
              "name": "minimumBaseFee",
              "type": "uint32"
            },
            {
              "internalType": "uint32",
              "name": "systemTxMaxGas",
              "type": "uint32"
            },
            {
              "internalType": "uint128",
              "name": "maximumBaseFee",
              "type": "uint128"
            }
          ],
          "internalType": "struct ResourceMetering.ResourceConfig",
          "name": "_config",
          "type": "tuple"
        }
      ],
      "name": "setResourceConfig",
      "outputs": [],
      "stateMutability": "nonpayable",
      "type": "function"
    },
    {
      "inputs": [
        {
          "internalType": "address",
          "name": "_unsafeBlockSigner",
          "type": "address"
        }
      ],
      "name": "setUnsafeBlockSigner",
      "outputs": [],
      "stateMutability": "nonpayable",
      "type": "function"
    },
    {
      "inputs": [
        {
          "internalType": "address",
          "name": "newOwner",
          "type": "address"
        }
      ],
      "name": "transferOwnership",
      "outputs": [],
      "stateMutability": "nonpayable",
      "type": "function"
    },
    {
      "inputs": [],
      "name": "unsafeBlockSigner",
      "outputs": [
        {
          "internalType": "address",
          "name": "",
          "type": "address"
        }
      ],
      "stateMutability": "view",
      "type": "function"
    },
    {
      "inputs": [],
      "name": "version",
      "outputs": [
        {
          "internalType": "string",
          "name": "",
          "type": "string"
        }
      ],
      "stateMutability": "view",
      "type": "function"
    }
  ],
  "transactionHash": "0xf554970e281328e5ab15c0c865e65d9de9a227a4c738cbab13c5dfd09ab5e5b8",
  "args": [
    "0x80e695eceb5bea3b1788c4dfb40b72afc59f60d8",
    2100,
    1500000,
    "0x000000000000000000000000f15dc770221b99c98d4aaed568f2ab04b9d16e42",
    "0x1c9c380",
    "0x9847c8baa7369b4b1ea0ade43163ab1c58b09e43",
    {
      "maxResourceLimit": 20000000,
      "elasticityMultiplier": 10,
      "baseFeeMaxChangeDenominator": 8,
      "minimumBaseFee": "1000000000",
      "systemTxMaxGas": 1000000,
      "maximumBaseFee": "340282366920938463463374607431768211455"
    }
  ],
  "numDeployments": 1,
  "solcInputHash": "5994a2571e3c90a6c7816d0a453ce4bc",
  "bytecode": "0x60e06040523480156200001157600080fd5b50604051620021903803806200219083398101604081905262000034916200084f565b60006080819052600160a05260c052620000548787878787878762000061565b5050505050505062000a4f565b600054610100900460ff1615808015620000825750600054600160ff909116105b80620000b257506200009f306200027060201b62000a771760201c565b158015620000b2575060005460ff166001145b6200011b5760405162461bcd60e51b815260206004820152602e60248201527f496e697469616c697a61626c653a20636f6e747261637420697320616c72656160448201526d191e481a5b9a5d1a585b1a5e995960921b60648201526084015b60405180910390fd5b6000805460ff1916600117905580156200013f576000805461ff0019166101001790555b620001496200027f565b6200015488620002e7565b606587905560668690556067859055606880546001600160401b0319166001600160401b038616179055620001a7837f65a7ed542fb37fe237fdfbdd70b31598523fe5b32879e307bae27a0bd9581c0855565b620001b28262000366565b620001bc620006b1565b6001600160401b0316846001600160401b031610156200021f5760405162461bcd60e51b815260206004820152601f60248201527f53797374656d436f6e6669673a20676173206c696d697420746f6f206c6f7700604482015260640162000112565b801562000266576000805461ff0019169055604051600181527f7f26b83ff96e1f2b6a682f133852f6798a09c465da95921460cefb38474024989060200160405180910390a15b5050505050505050565b6001600160a01b03163b151590565b600054610100900460ff16620002db5760405162461bcd60e51b815260206004820152602b60248201526000805160206200217083398151915260448201526a6e697469616c697a696e6760a81b606482015260840162000112565b620002e5620006de565b565b620002f162000745565b6001600160a01b038116620003585760405162461bcd60e51b815260206004820152602660248201527f4f776e61626c653a206e6577206f776e657220697320746865207a65726f206160448201526564647265737360d01b606482015260840162000112565b6200036381620007a1565b50565b8060a001516001600160801b0316816060015163ffffffff161115620003f55760405162461bcd60e51b815260206004820152603560248201527f53797374656d436f6e6669673a206d696e206261736520666565206d7573742060448201527f6265206c657373207468616e206d617820626173650000000000000000000000606482015260840162000112565b6000816040015160ff16116200045c5760405162461bcd60e51b815260206004820152602560248201527f53797374656d436f6e6669673a2064656e6f6d696e61746f722063616e6e6f74604482015264020626520360dc1b606482015260840162000112565b606854608082015182516001600160401b03909216916200047e91906200099e565b63ffffffff161115620004d45760405162461bcd60e51b815260206004820152601f60248201527f53797374656d436f6e6669673a20676173206c696d697420746f6f206c6f7700604482015260640162000112565b6000816020015160ff1611620005455760405162461bcd60e51b815260206004820152602f60248201527f53797374656d436f6e6669673a20656c6173746963697479206d756c7469706c60448201526e06965722063616e6e6f74206265203608c1b606482015260840162000112565b8051602082015163ffffffff82169160ff9091169062000567908290620009c9565b620005739190620009fb565b63ffffffff1614620005ee5760405162461bcd60e51b815260206004820152603760248201527f53797374656d436f6e6669673a20707265636973696f6e206c6f73732077697460448201527f6820746172676574207265736f75726365206c696d6974000000000000000000606482015260840162000112565b805160698054602084015160408501516060860151608087015160a09097015163ffffffff96871664ffffffffff199095169490941764010000000060ff948516021764ffffffffff60281b191665010000000000939092169290920263ffffffff60301b19161766010000000000009185169190910217600160501b600160f01b0319166a01000000000000000000009390941692909202600160701b600160f01b03191692909217600160701b6001600160801b0390921691909102179055565b606954600090620006d99063ffffffff6a010000000000000000000082048116911662000a2a565b905090565b600054610100900460ff166200073a5760405162461bcd60e51b815260206004820152602b60248201526000805160206200217083398151915260448201526a6e697469616c697a696e6760a81b606482015260840162000112565b620002e533620007a1565b6033546001600160a01b03163314620002e55760405162461bcd60e51b815260206004820181905260248201527f4f776e61626c653a2063616c6c6572206973206e6f7420746865206f776e6572604482015260640162000112565b603380546001600160a01b038381166001600160a01b0319831681179093556040519116919082907f8be0079c531659141344cd1fd0a4f28419497f9722a3daafe3b4186f6b6457e090600090a35050565b80516001600160a01b03811681146200080b57600080fd5b919050565b805163ffffffff811681146200080b57600080fd5b805160ff811681146200080b57600080fd5b80516001600160801b03811681146200080b57600080fd5b60008060008060008060008789036101808112156200086d57600080fd5b6200087889620007f3565b60208a015160408b015160608c015160808d0151939b50919950975095506001600160401b038082168214620008ad57600080fd5b819550620008be60a08c01620007f3565b945060c060bf1984011215620008d357600080fd5b604051925060c08301915082821081831117156200090157634e487b7160e01b600052604160045260246000fd5b506040526200091360c08a0162000810565b81526200092360e08a0162000825565b6020820152620009376101008a0162000825565b60408201526200094b6101208a0162000810565b60608201526200095f6101408a0162000810565b6080820152620009736101608a0162000837565b60a08201528091505092959891949750929550565b634e487b7160e01b600052601160045260246000fd5b600063ffffffff808316818516808303821115620009c057620009c062000988565b01949350505050565b600063ffffffff80841680620009ef57634e487b7160e01b600052601260045260246000fd5b92169190910492915050565b600063ffffffff8083168185168183048111821515161562000a215762000a2162000988565b02949350505050565b60006001600160401b03828116848216808303821115620009c057620009c062000988565b60805160a05160c0516116f162000a7f600039600061056e015260006105450152600061051c01526116f16000f3fe608060405234801561001057600080fd5b50600436106101515760003560e01c8063b40a817c116100cd578063f2fde38b11610081578063f68016b711610066578063f68016b7146103f7578063f975e9251461040b578063ffa1ad741461041e57600080fd5b8063f2fde38b146103db578063f45e65d8146103ee57600080fd5b8063c9b26f61116100b2578063c9b26f611461028b578063cc731b021461029e578063e81b2c6d146103d257600080fd5b8063b40a817c14610265578063c71973f61461027857600080fd5b80634f16540b11610124578063715018a611610109578063715018a61461022c5780638da5cb5b14610234578063935f029e1461025257600080fd5b80634f16540b146101f057806354fd4d501461021757600080fd5b80630c18c1621461015657806318d13918146101725780631fd19ee1146101875780634add321d146101cf575b600080fd5b61015f60655481565b6040519081526020015b60405180910390f35b6101856101803660046111cf565b610426565b005b7f65a7ed542fb37fe237fdfbdd70b31598523fe5b32879e307bae27a0bd9581c08545b60405173ffffffffffffffffffffffffffffffffffffffff9091168152602001610169565b6101d76104ea565b60405167ffffffffffffffff9091168152602001610169565b61015f7f65a7ed542fb37fe237fdfbdd70b31598523fe5b32879e307bae27a0bd9581c0881565b61021f610515565b604051610169919061126b565b6101856105b8565b60335473ffffffffffffffffffffffffffffffffffffffff166101aa565b61018561026036600461127e565b6105cc565b6101856102733660046112b8565b610665565b610185610286366004611410565b610736565b61018561029936600461142c565b61074a565b6103626040805160c081018252600080825260208201819052918101829052606081018290526080810182905260a0810191909152506040805160c08101825260695463ffffffff8082168352640100000000820460ff9081166020850152650100000000008304169383019390935266010000000000008104831660608301526a0100000000000000000000810490921660808201526e0100000000000000000000000000009091046fffffffffffffffffffffffffffffffff1660a082015290565b6040516101699190600060c08201905063ffffffff80845116835260ff602085015116602084015260ff6040850151166040840152806060850151166060840152806080850151166080840152506fffffffffffffffffffffffffffffffff60a08401511660a083015292915050565b61015f60675481565b6101856103e93660046111cf565b61077a565b61015f60665481565b6068546101d79067ffffffffffffffff1681565b610185610419366004611445565b610814565b61015f600081565b61042e610a93565b610456817f65a7ed542fb37fe237fdfbdd70b31598523fe5b32879e307bae27a0bd9581c0855565b6040805173ffffffffffffffffffffffffffffffffffffffff8316602082015260009101604080517fffffffffffffffffffffffffffffffffffffffffffffffffffffffffffffffe0818403018152919052905060035b60007f1d2b0bda21d56b8bd12d4f94ebacffdfb35f5e226f84b461103bb8beab6353be836040516104de919061126b565b60405180910390a35050565b6069546000906105109063ffffffff6a01000000000000000000008204811691166114e7565b905090565b60606105407f0000000000000000000000000000000000000000000000000000000000000000610afa565b6105697f0000000000000000000000000000000000000000000000000000000000000000610afa565b6105927f0000000000000000000000000000000000000000000000000000000000000000610afa565b6040516020016105a493929190611513565b604051602081830303815290604052905090565b6105c0610a93565b6105ca6000610c37565b565b6105d4610a93565b606582905560668190556040805160208101849052908101829052600090606001604080517fffffffffffffffffffffffffffffffffffffffffffffffffffffffffffffffe08184030181529190529050600160007f1d2b0bda21d56b8bd12d4f94ebacffdfb35f5e226f84b461103bb8beab6353be83604051610658919061126b565b60405180910390a3505050565b61066d610a93565b6106756104ea565b67ffffffffffffffff168167ffffffffffffffff1610156106dd5760405162461bcd60e51b815260206004820152601f60248201527f53797374656d436f6e6669673a20676173206c696d697420746f6f206c6f770060448201526064015b60405180910390fd5b606880547fffffffffffffffffffffffffffffffffffffffffffffffff00000000000000001667ffffffffffffffff831690811790915560408051602080820193909352815180820390930183528101905260026104ad565b61073e610a93565b61074781610cae565b50565b610752610a93565b60678190556040805160208082018490528251808303909101815290820190915260006104ad565b610782610a93565b73ffffffffffffffffffffffffffffffffffffffff811661080b5760405162461bcd60e51b815260206004820152602660248201527f4f776e61626c653a206e6577206f776e657220697320746865207a65726f206160448201527f646472657373000000000000000000000000000000000000000000000000000060648201526084016106d4565b61074781610c37565b600054610100900460ff16158080156108345750600054600160ff909116105b8061084e5750303b15801561084e575060005460ff166001145b6108c05760405162461bcd60e51b815260206004820152602e60248201527f496e697469616c697a61626c653a20636f6e747261637420697320616c72656160448201527f647920696e697469616c697a656400000000000000000000000000000000000060648201526084016106d4565b600080547fffffffffffffffffffffffffffffffffffffffffffffffffffffffffffffff00166001179055801561091e57600080547fffffffffffffffffffffffffffffffffffffffffffffffffffffffffffff00ff166101001790555b6109266110a0565b61092f8861077a565b606587905560668690556067859055606880547fffffffffffffffffffffffffffffffffffffffffffffffff00000000000000001667ffffffffffffffff86161790557f65a7ed542fb37fe237fdfbdd70b31598523fe5b32879e307bae27a0bd9581c0883905561099f82610cae565b6109a76104ea565b67ffffffffffffffff168467ffffffffffffffff161015610a0a5760405162461bcd60e51b815260206004820152601f60248201527f53797374656d436f6e6669673a20676173206c696d697420746f6f206c6f770060448201526064016106d4565b8015610a6d57600080547fffffffffffffffffffffffffffffffffffffffffffffffffffffffffffff00ff169055604051600181527f7f26b83ff96e1f2b6a682f133852f6798a09c465da95921460cefb38474024989060200160405180910390a15b5050505050505050565b73ffffffffffffffffffffffffffffffffffffffff163b151590565b60335473ffffffffffffffffffffffffffffffffffffffff1633146105ca5760405162461bcd60e51b815260206004820181905260248201527f4f776e61626c653a2063616c6c6572206973206e6f7420746865206f776e657260448201526064016106d4565b606081600003610b3d57505060408051808201909152600181527f3000000000000000000000000000000000000000000000000000000000000000602082015290565b8160005b8115610b675780610b5181611589565b9150610b609050600a836115f0565b9150610b41565b60008167ffffffffffffffff811115610b8257610b826112d3565b6040519080825280601f01601f191660200182016040528015610bac576020820181803683370190505b5090505b8415610c2f57610bc1600183611604565b9150610bce600a8661161b565b610bd990603061162f565b60f81b818381518110610bee57610bee611647565b60200101907effffffffffffffffffffffffffffffffffffffffffffffffffffffffffffff1916908160001a905350610c28600a866115f0565b9450610bb0565b949350505050565b6033805473ffffffffffffffffffffffffffffffffffffffff8381167fffffffffffffffffffffffff0000000000000000000000000000000000000000831681179093556040519116919082907f8be0079c531659141344cd1fd0a4f28419497f9722a3daafe3b4186f6b6457e090600090a35050565b8060a001516fffffffffffffffffffffffffffffffff16816060015163ffffffff161115610d445760405162461bcd60e51b815260206004820152603560248201527f53797374656d436f6e6669673a206d696e206261736520666565206d7573742060448201527f6265206c657373207468616e206d61782062617365000000000000000000000060648201526084016106d4565b6000816040015160ff1611610dc15760405162461bcd60e51b815260206004820152602560248201527f53797374656d436f6e6669673a2064656e6f6d696e61746f722063616e6e6f7460448201527f206265203000000000000000000000000000000000000000000000000000000060648201526084016106d4565b6068546080820151825167ffffffffffffffff90921691610de29190611676565b63ffffffff161115610e365760405162461bcd60e51b815260206004820152601f60248201527f53797374656d436f6e6669673a20676173206c696d697420746f6f206c6f770060448201526064016106d4565b6000816020015160ff1611610eb35760405162461bcd60e51b815260206004820152602f60248201527f53797374656d436f6e6669673a20656c6173746963697479206d756c7469706c60448201527f6965722063616e6e6f742062652030000000000000000000000000000000000060648201526084016106d4565b8051602082015163ffffffff82169160ff90911690610ed3908290611695565b610edd91906116b8565b63ffffffff1614610f565760405162461bcd60e51b815260206004820152603760248201527f53797374656d436f6e6669673a20707265636973696f6e206c6f73732077697460448201527f6820746172676574207265736f75726365206c696d697400000000000000000060648201526084016106d4565b805160698054602084015160408501516060860151608087015160a09097015163ffffffff9687167fffffffffffffffffffffffffffffffffffffffffffffffffffffff00000000009095169490941764010000000060ff94851602177fffffffffffffffffffffffffffffffffffffffffffff0000000000ffffffffff166501000000000093909216929092027fffffffffffffffffffffffffffffffffffffffffffff00000000ffffffffffff1617660100000000000091851691909102177fffff0000000000000000000000000000000000000000ffffffffffffffffffff166a010000000000000000000093909416929092027fffff00000000000000000000000000000000ffffffffffffffffffffffffffff16929092176e0100000000000000000000000000006fffffffffffffffffffffffffffffffff90921691909102179055565b600054610100900460ff1661111d5760405162461bcd60e51b815260206004820152602b60248201527f496e697469616c697a61626c653a20636f6e7472616374206973206e6f74206960448201527f6e697469616c697a696e6700000000000000000000000000000000000000000060648201526084016106d4565b6105ca600054610100900460ff1661119d5760405162461bcd60e51b815260206004820152602b60248201527f496e697469616c697a61626c653a20636f6e7472616374206973206e6f74206960448201527f6e697469616c697a696e6700000000000000000000000000000000000000000060648201526084016106d4565b6105ca33610c37565b803573ffffffffffffffffffffffffffffffffffffffff811681146111ca57600080fd5b919050565b6000602082840312156111e157600080fd5b6111ea826111a6565b9392505050565b60005b8381101561120c5781810151838201526020016111f4565b8381111561121b576000848401525b50505050565b600081518084526112398160208601602086016111f1565b601f017fffffffffffffffffffffffffffffffffffffffffffffffffffffffffffffffe0169290920160200192915050565b6020815260006111ea6020830184611221565b6000806040838503121561129157600080fd5b50508035926020909101359150565b803567ffffffffffffffff811681146111ca57600080fd5b6000602082840312156112ca57600080fd5b6111ea826112a0565b7f4e487b7100000000000000000000000000000000000000000000000000000000600052604160045260246000fd5b803563ffffffff811681146111ca57600080fd5b803560ff811681146111ca57600080fd5b80356fffffffffffffffffffffffffffffffff811681146111ca57600080fd5b600060c0828403121561135957600080fd5b60405160c0810181811067ffffffffffffffff821117156113a3577f4e487b7100000000000000000000000000000000000000000000000000000000600052604160045260246000fd5b6040529050806113b283611302565b81526113c060208401611316565b60208201526113d160408401611316565b60408201526113e260608401611302565b60608201526113f360808401611302565b608082015261140460a08401611327565b60a08201525092915050565b600060c0828403121561142257600080fd5b6111ea8383611347565b60006020828403121561143e57600080fd5b5035919050565b6000806000806000806000610180888a03121561146157600080fd5b61146a886111a6565b965060208801359550604088013594506060880135935061148d608089016112a0565b925061149b60a089016111a6565b91506114aa8960c08a01611347565b905092959891949750929550565b7f4e487b7100000000000000000000000000000000000000000000000000000000600052601160045260246000fd5b600067ffffffffffffffff80831681851680830382111561150a5761150a6114b8565b01949350505050565b600084516115258184602089016111f1565b80830190507f2e000000000000000000000000000000000000000000000000000000000000008082528551611561816001850160208a016111f1565b6001920191820152835161157c8160028401602088016111f1565b0160020195945050505050565b60007fffffffffffffffffffffffffffffffffffffffffffffffffffffffffffffffff82036115ba576115ba6114b8565b5060010190565b7f4e487b7100000000000000000000000000000000000000000000000000000000600052601260045260246000fd5b6000826115ff576115ff6115c1565b500490565b600082821015611616576116166114b8565b500390565b60008261162a5761162a6115c1565b500690565b60008219821115611642576116426114b8565b500190565b7f4e487b7100000000000000000000000000000000000000000000000000000000600052603260045260246000fd5b600063ffffffff80831681851680830382111561150a5761150a6114b8565b600063ffffffff808416806116ac576116ac6115c1565b92169190910492915050565b600063ffffffff808316818516818304811182151516156116db576116db6114b8565b0294935050505056fea164736f6c634300080f000a496e697469616c697a61626c653a20636f6e7472616374206973206e6f742069",
  "devdoc": {},
  "userdoc": {}
}