{
  "address": "0x448Ee3dEE75719Ee8652A8ec7428d66c0C7C3e8C",
  "abi": [
    {
      "inputs": [],
      "stateMutability": "nonpayable",
      "type": "constructor"
    },
    {
      "anonymous": false,
      "inputs": [
        {
          "indexed": true,
          "internalType": "bytes32",
          "name": "id",
          "type": "bytes32"
        },
        {
          "indexed": true,
          "internalType": "uint256",
          "name": "index",
          "type": "uint256"
        },
        {
          "indexed": false,
          "internalType": "address",
          "name": "target",
          "type": "address"
        },
        {
          "indexed": false,
          "internalType": "uint256",
          "name": "value",
          "type": "uint256"
        },
        {
          "indexed": false,
          "internalType": "bytes",
          "name": "data",
          "type": "bytes"
        }
      ],
      "name": "CallExecuted",
      "type": "event"
    },
    {
      "anonymous": false,
      "inputs": [
        {
          "indexed": true,
          "internalType": "bytes32",
          "name": "id",
          "type": "bytes32"
        },
        {
          "indexed": false,
          "internalType": "bytes32",
          "name": "salt",
          "type": "bytes32"
        }
      ],
      "name": "CallSalt",
      "type": "event"
    },
    {
      "anonymous": false,
      "inputs": [
        {
          "indexed": true,
          "internalType": "bytes32",
          "name": "id",
          "type": "bytes32"
        },
        {
          "indexed": true,
          "internalType": "uint256",
          "name": "index",
          "type": "uint256"
        },
        {
          "indexed": false,
          "internalType": "address",
          "name": "target",
          "type": "address"
        },
        {
          "indexed": false,
          "internalType": "uint256",
          "name": "value",
          "type": "uint256"
        },
        {
          "indexed": false,
          "internalType": "bytes",
          "name": "data",
          "type": "bytes"
        },
        {
          "indexed": false,
          "internalType": "bytes32",
          "name": "predecessor",
          "type": "bytes32"
        },
        {
          "indexed": false,
          "internalType": "uint256",
          "name": "delay",
          "type": "uint256"
        }
      ],
      "name": "CallScheduled",
      "type": "event"
    },
    {
      "anonymous": false,
      "inputs": [
        {
          "indexed": true,
          "internalType": "bytes32",
          "name": "id",
          "type": "bytes32"
        }
      ],
      "name": "Cancelled",
      "type": "event"
    },
    {
      "anonymous": false,
      "inputs": [
        {
          "indexed": false,
          "internalType": "uint8",
          "name": "version",
          "type": "uint8"
        }
      ],
      "name": "Initialized",
      "type": "event"
    },
    {
      "anonymous": false,
      "inputs": [
        {
          "indexed": false,
          "internalType": "uint256",
          "name": "oldDuration",
          "type": "uint256"
        },
        {
          "indexed": false,
          "internalType": "uint256",
          "name": "newDuration",
          "type": "uint256"
        }
      ],
      "name": "MinDelayChange",
      "type": "event"
    },
    {
      "anonymous": false,
      "inputs": [
        {
          "indexed": true,
          "internalType": "bytes32",
          "name": "role",
          "type": "bytes32"
        },
        {
          "indexed": true,
          "internalType": "bytes32",
          "name": "previousAdminRole",
          "type": "bytes32"
        },
        {
          "indexed": true,
          "internalType": "bytes32",
          "name": "newAdminRole",
          "type": "bytes32"
        }
      ],
      "name": "RoleAdminChanged",
      "type": "event"
    },
    {
      "anonymous": false,
      "inputs": [
        {
          "indexed": true,
          "internalType": "bytes32",
          "name": "role",
          "type": "bytes32"
        },
        {
          "indexed": true,
          "internalType": "address",
          "name": "account",
          "type": "address"
        },
        {
          "indexed": true,
          "internalType": "address",
          "name": "sender",
          "type": "address"
        }
      ],
      "name": "RoleGranted",
      "type": "event"
    },
    {
      "anonymous": false,
      "inputs": [
        {
          "indexed": true,
          "internalType": "bytes32",
          "name": "role",
          "type": "bytes32"
        },
        {
          "indexed": true,
          "internalType": "address",
          "name": "account",
          "type": "address"
        },
        {
          "indexed": true,
          "internalType": "address",
          "name": "sender",
          "type": "address"
        }
      ],
      "name": "RoleRevoked",
      "type": "event"
    },
    {
      "inputs": [],
      "name": "CANCELLER_ROLE",
      "outputs": [
        {
          "internalType": "bytes32",
          "name": "",
          "type": "bytes32"
        }
      ],
      "stateMutability": "view",
      "type": "function"
    },
    {
      "inputs": [],
      "name": "DEFAULT_ADMIN_ROLE",
      "outputs": [
        {
          "internalType": "bytes32",
          "name": "",
          "type": "bytes32"
        }
      ],
      "stateMutability": "view",
      "type": "function"
    },
    {
      "inputs": [],
      "name": "EXECUTOR_ROLE",
      "outputs": [
        {
          "internalType": "bytes32",
          "name": "",
          "type": "bytes32"
        }
      ],
      "stateMutability": "view",
      "type": "function"
    },
    {
      "inputs": [],
      "name": "PROPOSER_ROLE",
      "outputs": [
        {
          "internalType": "bytes32",
          "name": "",
          "type": "bytes32"
        }
      ],
      "stateMutability": "view",
      "type": "function"
    },
    {
      "inputs": [],
      "name": "TIMELOCK_ADMIN_ROLE",
      "outputs": [
        {
          "internalType": "bytes32",
          "name": "",
          "type": "bytes32"
        }
      ],
      "stateMutability": "view",
      "type": "function"
    },
    {
      "inputs": [
        {
          "internalType": "bytes32",
          "name": "id",
          "type": "bytes32"
        }
      ],
      "name": "cancel",
      "outputs": [],
      "stateMutability": "nonpayable",
      "type": "function"
    },
    {
      "inputs": [
        {
          "internalType": "address",
          "name": "target",
          "type": "address"
        },
        {
          "internalType": "uint256",
          "name": "value",
          "type": "uint256"
        },
        {
          "internalType": "bytes",
          "name": "payload",
          "type": "bytes"
        },
        {
          "internalType": "bytes32",
          "name": "predecessor",
          "type": "bytes32"
        },
        {
          "internalType": "bytes32",
          "name": "salt",
          "type": "bytes32"
        }
      ],
      "name": "execute",
      "outputs": [],
      "stateMutability": "payable",
      "type": "function"
    },
    {
      "inputs": [
        {
          "internalType": "address[]",
          "name": "targets",
          "type": "address[]"
        },
        {
          "internalType": "uint256[]",
          "name": "values",
          "type": "uint256[]"
        },
        {
          "internalType": "bytes[]",
          "name": "payloads",
          "type": "bytes[]"
        },
        {
          "internalType": "bytes32",
          "name": "predecessor",
          "type": "bytes32"
        },
        {
          "internalType": "bytes32",
          "name": "salt",
          "type": "bytes32"
        }
      ],
      "name": "executeBatch",
      "outputs": [],
      "stateMutability": "payable",
      "type": "function"
    },
    {
      "inputs": [],
      "name": "getMinDelay",
      "outputs": [
        {
          "internalType": "uint256",
          "name": "",
          "type": "uint256"
        }
      ],
      "stateMutability": "view",
      "type": "function"
    },
    {
      "inputs": [
        {
          "internalType": "bytes32",
          "name": "role",
          "type": "bytes32"
        }
      ],
      "name": "getRoleAdmin",
      "outputs": [
        {
          "internalType": "bytes32",
          "name": "",
          "type": "bytes32"
        }
      ],
      "stateMutability": "view",
      "type": "function"
    },
    {
      "inputs": [
        {
          "internalType": "bytes32",
          "name": "id",
          "type": "bytes32"
        }
      ],
      "name": "getTimestamp",
      "outputs": [
        {
          "internalType": "uint256",
          "name": "",
          "type": "uint256"
        }
      ],
      "stateMutability": "view",
      "type": "function"
    },
    {
      "inputs": [
        {
          "internalType": "bytes32",
          "name": "role",
          "type": "bytes32"
        },
        {
          "internalType": "address",
          "name": "account",
          "type": "address"
        }
      ],
      "name": "grantRole",
      "outputs": [],
      "stateMutability": "nonpayable",
      "type": "function"
    },
    {
      "inputs": [
        {
          "internalType": "bytes32",
          "name": "role",
          "type": "bytes32"
        },
        {
          "internalType": "address",
          "name": "account",
          "type": "address"
        }
      ],
      "name": "hasRole",
      "outputs": [
        {
          "internalType": "bool",
          "name": "",
          "type": "bool"
        }
      ],
      "stateMutability": "view",
      "type": "function"
    },
    {
      "inputs": [
        {
          "internalType": "address",
          "name": "target",
          "type": "address"
        },
        {
          "internalType": "uint256",
          "name": "value",
          "type": "uint256"
        },
        {
          "internalType": "bytes",
          "name": "data",
          "type": "bytes"
        },
        {
          "internalType": "bytes32",
          "name": "predecessor",
          "type": "bytes32"
        },
        {
          "internalType": "bytes32",
          "name": "salt",
          "type": "bytes32"
        }
      ],
      "name": "hashOperation",
      "outputs": [
        {
          "internalType": "bytes32",
          "name": "",
          "type": "bytes32"
        }
      ],
      "stateMutability": "pure",
      "type": "function"
    },
    {
      "inputs": [
        {
          "internalType": "address[]",
          "name": "targets",
          "type": "address[]"
        },
        {
          "internalType": "uint256[]",
          "name": "values",
          "type": "uint256[]"
        },
        {
          "internalType": "bytes[]",
          "name": "payloads",
          "type": "bytes[]"
        },
        {
          "internalType": "bytes32",
          "name": "predecessor",
          "type": "bytes32"
        },
        {
          "internalType": "bytes32",
          "name": "salt",
          "type": "bytes32"
        }
      ],
      "name": "hashOperationBatch",
      "outputs": [
        {
          "internalType": "bytes32",
          "name": "",
          "type": "bytes32"
        }
      ],
      "stateMutability": "pure",
      "type": "function"
    },
    {
      "inputs": [
        {
          "internalType": "uint256",
          "name": "_minDelay",
          "type": "uint256"
        },
        {
          "internalType": "address[]",
          "name": "_proposers",
          "type": "address[]"
        },
        {
          "internalType": "address[]",
          "name": "_executors",
          "type": "address[]"
        },
        {
          "internalType": "address",
          "name": "_admin",
          "type": "address"
        }
      ],
      "name": "initialize",
      "outputs": [],
      "stateMutability": "nonpayable",
      "type": "function"
    },
    {
      "inputs": [
        {
          "internalType": "bytes32",
          "name": "id",
          "type": "bytes32"
        }
      ],
      "name": "isOperation",
      "outputs": [
        {
          "internalType": "bool",
          "name": "",
          "type": "bool"
        }
      ],
      "stateMutability": "view",
      "type": "function"
    },
    {
      "inputs": [
        {
          "internalType": "bytes32",
          "name": "id",
          "type": "bytes32"
        }
      ],
      "name": "isOperationDone",
      "outputs": [
        {
          "internalType": "bool",
          "name": "",
          "type": "bool"
        }
      ],
      "stateMutability": "view",
      "type": "function"
    },
    {
      "inputs": [
        {
          "internalType": "bytes32",
          "name": "id",
          "type": "bytes32"
        }
      ],
      "name": "isOperationPending",
      "outputs": [
        {
          "internalType": "bool",
          "name": "",
          "type": "bool"
        }
      ],
      "stateMutability": "view",
      "type": "function"
    },
    {
      "inputs": [
        {
          "internalType": "bytes32",
          "name": "id",
          "type": "bytes32"
        }
      ],
      "name": "isOperationReady",
      "outputs": [
        {
          "internalType": "bool",
          "name": "",
          "type": "bool"
        }
      ],
      "stateMutability": "view",
      "type": "function"
    },
    {
      "inputs": [
        {
          "internalType": "address",
          "name": "",
          "type": "address"
        },
        {
          "internalType": "address",
          "name": "",
          "type": "address"
        },
        {
          "internalType": "uint256[]",
          "name": "",
          "type": "uint256[]"
        },
        {
          "internalType": "uint256[]",
          "name": "",
          "type": "uint256[]"
        },
        {
          "internalType": "bytes",
          "name": "",
          "type": "bytes"
        }
      ],
      "name": "onERC1155BatchReceived",
      "outputs": [
        {
          "internalType": "bytes4",
          "name": "",
          "type": "bytes4"
        }
      ],
      "stateMutability": "nonpayable",
      "type": "function"
    },
    {
      "inputs": [
        {
          "internalType": "address",
          "name": "",
          "type": "address"
        },
        {
          "internalType": "address",
          "name": "",
          "type": "address"
        },
        {
          "internalType": "uint256",
          "name": "",
          "type": "uint256"
        },
        {
          "internalType": "uint256",
          "name": "",
          "type": "uint256"
        },
        {
          "internalType": "bytes",
          "name": "",
          "type": "bytes"
        }
      ],
      "name": "onERC1155Received",
      "outputs": [
        {
          "internalType": "bytes4",
          "name": "",
          "type": "bytes4"
        }
      ],
      "stateMutability": "nonpayable",
      "type": "function"
    },
    {
      "inputs": [
        {
          "internalType": "address",
          "name": "",
          "type": "address"
        },
        {
          "internalType": "address",
          "name": "",
          "type": "address"
        },
        {
          "internalType": "uint256",
          "name": "",
          "type": "uint256"
        },
        {
          "internalType": "bytes",
          "name": "",
          "type": "bytes"
        }
      ],
      "name": "onERC721Received",
      "outputs": [
        {
          "internalType": "bytes4",
          "name": "",
          "type": "bytes4"
        }
      ],
      "stateMutability": "nonpayable",
      "type": "function"
    },
    {
      "inputs": [
        {
          "internalType": "bytes32",
          "name": "role",
          "type": "bytes32"
        },
        {
          "internalType": "address",
          "name": "account",
          "type": "address"
        }
      ],
      "name": "renounceRole",
      "outputs": [],
      "stateMutability": "nonpayable",
      "type": "function"
    },
    {
      "inputs": [
        {
          "internalType": "bytes32",
          "name": "role",
          "type": "bytes32"
        },
        {
          "internalType": "address",
          "name": "account",
          "type": "address"
        }
      ],
      "name": "revokeRole",
      "outputs": [],
      "stateMutability": "nonpayable",
      "type": "function"
    },
    {
      "inputs": [
        {
          "internalType": "address",
          "name": "target",
          "type": "address"
        },
        {
          "internalType": "uint256",
          "name": "value",
          "type": "uint256"
        },
        {
          "internalType": "bytes",
          "name": "data",
          "type": "bytes"
        },
        {
          "internalType": "bytes32",
          "name": "predecessor",
          "type": "bytes32"
        },
        {
          "internalType": "bytes32",
          "name": "salt",
          "type": "bytes32"
        },
        {
          "internalType": "uint256",
          "name": "delay",
          "type": "uint256"
        }
      ],
      "name": "schedule",
      "outputs": [],
      "stateMutability": "nonpayable",
      "type": "function"
    },
    {
      "inputs": [
        {
          "internalType": "address[]",
          "name": "targets",
          "type": "address[]"
        },
        {
          "internalType": "uint256[]",
          "name": "values",
          "type": "uint256[]"
        },
        {
          "internalType": "bytes[]",
          "name": "payloads",
          "type": "bytes[]"
        },
        {
          "internalType": "bytes32",
          "name": "predecessor",
          "type": "bytes32"
        },
        {
          "internalType": "bytes32",
          "name": "salt",
          "type": "bytes32"
        },
        {
          "internalType": "uint256",
          "name": "delay",
          "type": "uint256"
        }
      ],
      "name": "scheduleBatch",
      "outputs": [],
      "stateMutability": "nonpayable",
      "type": "function"
    },
    {
      "inputs": [
        {
          "internalType": "bytes4",
          "name": "interfaceId",
          "type": "bytes4"
        }
      ],
      "name": "supportsInterface",
      "outputs": [
        {
          "internalType": "bool",
          "name": "",
          "type": "bool"
        }
      ],
      "stateMutability": "view",
      "type": "function"
    },
    {
      "inputs": [
        {
          "internalType": "uint256",
          "name": "newDelay",
          "type": "uint256"
        }
      ],
      "name": "updateDelay",
      "outputs": [],
      "stateMutability": "nonpayable",
      "type": "function"
    },
    {
      "inputs": [],
      "name": "version",
      "outputs": [
        {
          "internalType": "string",
          "name": "",
          "type": "string"
        }
      ],
      "stateMutability": "view",
      "type": "function"
    },
    {
      "stateMutability": "payable",
      "type": "receive"
    }
  ],
  "transactionHash": "0x58ffd657740b8f5b459e731ae1b20cafa17f5f17a311f01efbb89233fe666c49",
  "args": [],
  "numDeployments": 1,
  "solcInputHash": "573e8e271f935374a272abf2404bcb2f",
  "bytecode": "0x60e060405234801561001057600080fd5b5060006080819052600160a081905260c082905281612e2d61004a82396000610a6d01526000610a4401526000610a1b0152612e2d6000f3fe6080604052600436106101d15760003560e01c80638065657f116100f7578063bc197c8111610095578063d547741f11610064578063d547741f14610656578063e38335e514610676578063f23a6e6114610689578063f27a0c92146106ce57600080fd5b8063bc197c81146105a4578063c4c4c7b3146105e9578063c4d252f514610609578063d45c44351461062957600080fd5b806391d14854116100d157806391d14854146104e8578063a217fddf1461053b578063b08e51c014610550578063b1c5f4271461058457600080fd5b80638065657f146104745780638f2a0bb0146104945780638f61f4f5146104b457600080fd5b8063248a9ca31161016f57806336568abe1161013e57806336568abe146103f257806354fd4d5014610412578063584b153e1461043457806364d623531461045457600080fd5b8063248a9ca3146103525780632ab0f529146103825780632f2ff15d146103b257806331d50750146103d257600080fd5b80630d3cf6fc116101ab5780630d3cf6fc14610276578063134008d3146102aa57806313bc9f20146102bd578063150b7a02146102dd57600080fd5b806301d5062a146101dd57806301ffc9a7146101ff57806307bd02651461023457600080fd5b366101d857005b600080fd5b3480156101e957600080fd5b506101fd6101f83660046121b0565b6106e3565b005b34801561020b57600080fd5b5061021f61021a366004612225565b6107b9565b60405190151581526020015b60405180910390f35b34801561024057600080fd5b506102687fd8aa0f3194971a2a116679f7c2090f6939c8d4e01a2a8d7e41d55e5351469e6381565b60405190815260200161022b565b34801561028257600080fd5b506102687f5f58e3a2316349923ce3780f8d587db2d72378aed66a8261c916544fa6846ca581565b6101fd6102b8366004612267565b610815565b3480156102c957600080fd5b5061021f6102d83660046122d3565b61090d565b3480156102e957600080fd5b506103216102f83660046123f8565b7f150b7a0200000000000000000000000000000000000000000000000000000000949350505050565b6040517fffffffff00000000000000000000000000000000000000000000000000000000909116815260200161022b565b34801561035e57600080fd5b5061026861036d3660046122d3565b60009081526065602052604090206001015490565b34801561038e57600080fd5b5061021f61039d3660046122d3565b60009081526097602052604090205460011490565b3480156103be57600080fd5b506101fd6103cd366004612460565b610933565b3480156103de57600080fd5b5061021f6103ed3660046122d3565b61095d565b3480156103fe57600080fd5b506101fd61040d366004612460565b610976565b34801561041e57600080fd5b50610427610a14565b60405161022b91906124b8565b34801561044057600080fd5b5061021f61044f3660046122d3565b610ab7565b34801561046057600080fd5b506101fd61046f3660046122d3565b610ace565b34801561048057600080fd5b5061026861048f366004612267565b610b84565b3480156104a057600080fd5b506101fd6104af36600461254e565b610bc3565b3480156104c057600080fd5b506102687fb09aa5aeb3702cfd50b6b62bc4532604938f21248a27a1d5ca736082b6819cc181565b3480156104f457600080fd5b5061021f610503366004612460565b600091825260656020908152604080842073ffffffffffffffffffffffffffffffffffffffff93909316845291905290205460ff1690565b34801561054757600080fd5b50610268600081565b34801561055c57600080fd5b506102687ffd643c72710c63c0180259aba6b2d05451e3591a24e58b62239378085726f78381565b34801561059057600080fd5b5061026861059f366004612600565b610e02565b3480156105b057600080fd5b506103216105bf366004612738565b7fbc197c810000000000000000000000000000000000000000000000000000000095945050505050565b3480156105f557600080fd5b506101fd610604366004612844565b610e47565b34801561061557600080fd5b506101fd6106243660046122d3565b610fc7565b34801561063557600080fd5b506102686106443660046122d3565b60009081526097602052604090205490565b34801561066257600080fd5b506101fd610671366004612460565b6110a8565b6101fd610684366004612600565b6110cd565b34801561069557600080fd5b506103216106a43660046128c2565b7ff23a6e610000000000000000000000000000000000000000000000000000000095945050505050565b3480156106da57600080fd5b50609854610268565b7fb09aa5aeb3702cfd50b6b62bc4532604938f21248a27a1d5ca736082b6819cc161070d81611346565b600061071d898989898989610b84565b90506107298184611353565b6000817f4cf4410cc57040e44862ef0f45f3dd5a5e02db8eb8add648d4b0e236f1d07dca8b8b8b8b8b8a60405161076596959493929190612970565b60405180910390a383156107ae57807f20fda5fd27a1ea7bf5b9567f143ac5470bb059374a27e8f67cb44f946f6d0387856040516107a591815260200190565b60405180910390a25b505050505050505050565b60007fffffffff0000000000000000000000000000000000000000000000000000000082167f4e2312e000000000000000000000000000000000000000000000000000000000148061080f575061080f826113ef565b92915050565b600080527f7dc9f88e569f94faad6fa0d44dd44858caf3f34f1bd1c985800aedf5793aad8b6020527fa01e231ca478cf51f663e103939e98de36fa76d3e4e0b1de673dc711acc3a01b547fd8aa0f3194971a2a116679f7c2090f6939c8d4e01a2a8d7e41d55e5351469e639060ff16610892576108928133611486565b60006108a2888888888888610b84565b90506108ae8185611526565b6108ba8888888861162e565b6000817fc2617efa69bab66782fa219543714338489c4e9e178271560a91b82c3f612b588a8a8a8a6040516108f294939291906129bb565b60405180910390a361090381611711565b5050505050505050565b60008181526097602052604081205460018111801561092c5750428111155b9392505050565b60008281526065602052604090206001015461094e81611346565b61095883836117a0565b505050565b60008181526097602052604081205481905b1192915050565b73ffffffffffffffffffffffffffffffffffffffff81163314610a065760405162461bcd60e51b815260206004820152602f60248201527f416363657373436f6e74726f6c3a2063616e206f6e6c792072656e6f756e636560448201527f20726f6c657320666f722073656c66000000000000000000000000000000000060648201526084015b60405180910390fd5b610a108282611894565b5050565b6060610a3f7f000000000000000000000000000000000000000000000000000000000000000061194f565b610a687f000000000000000000000000000000000000000000000000000000000000000061194f565b610a917f000000000000000000000000000000000000000000000000000000000000000061194f565b604051602001610aa3939291906129fb565b604051602081830303815290604052905090565b60008181526097602052604081205460019061096f565b333014610b435760405162461bcd60e51b815260206004820152602b60248201527f54696d656c6f636b436f6e74726f6c6c65723a2063616c6c6572206d7573742060448201527f62652074696d656c6f636b00000000000000000000000000000000000000000060648201526084016109fd565b60985460408051918252602082018390527f11c24f4ead16507c69ac467fbd5e4eed5fb5c699626d2cc6d66421df253886d5910160405180910390a1609855565b6000868686868686604051602001610ba196959493929190612970565b6040516020818303038152906040528051906020012090509695505050505050565b7fb09aa5aeb3702cfd50b6b62bc4532604938f21248a27a1d5ca736082b6819cc1610bed81611346565b888714610c625760405162461bcd60e51b815260206004820152602360248201527f54696d656c6f636b436f6e74726f6c6c65723a206c656e677468206d69736d6160448201527f746368000000000000000000000000000000000000000000000000000000000060648201526084016109fd565b888514610cd75760405162461bcd60e51b815260206004820152602360248201527f54696d656c6f636b436f6e74726f6c6c65723a206c656e677468206d69736d6160448201527f746368000000000000000000000000000000000000000000000000000000000060648201526084016109fd565b6000610ce98b8b8b8b8b8b8b8b610e02565b9050610cf58184611353565b60005b8a811015610db35780827f4cf4410cc57040e44862ef0f45f3dd5a5e02db8eb8add648d4b0e236f1d07dca8e8e85818110610d3557610d35612a71565b9050602002016020810190610d4a9190612aa0565b8d8d86818110610d5c57610d5c612a71565b905060200201358c8c87818110610d7557610d75612a71565b9050602002810190610d879190612abb565b8c8b604051610d9b96959493929190612970565b60405180910390a3610dac81612b4f565b9050610cf8565b508315610df557807f20fda5fd27a1ea7bf5b9567f143ac5470bb059374a27e8f67cb44f946f6d038785604051610dec91815260200190565b60405180910390a25b5050505050505050505050565b60008888888888888888604051602001610e23989796959493929190612c34565b60405160208183030381529060405280519060200120905098975050505050505050565b600054610100900460ff1615808015610e675750600054600160ff909116105b80610e815750303b158015610e81575060005460ff166001145b610ef35760405162461bcd60e51b815260206004820152602e60248201527f496e697469616c697a61626c653a20636f6e747261637420697320616c72656160448201527f647920696e697469616c697a656400000000000000000000000000000000000060648201526084016109fd565b600080547fffffffffffffffffffffffffffffffffffffffffffffffffffffffffffffff001660011790558015610f5157600080547fffffffffffffffffffffffffffffffffffffffffffffffffffffffffffff00ff166101001790555b610f5d85858585611a0d565b8015610fc057600080547fffffffffffffffffffffffffffffffffffffffffffffffffffffffffffff00ff169055604051600181527f7f26b83ff96e1f2b6a682f133852f6798a09c465da95921460cefb38474024989060200160405180910390a15b5050505050565b7ffd643c72710c63c0180259aba6b2d05451e3591a24e58b62239378085726f783610ff181611346565b610ffa82610ab7565b61106c5760405162461bcd60e51b815260206004820152603160248201527f54696d656c6f636b436f6e74726f6c6c65723a206f7065726174696f6e20636160448201527f6e6e6f742062652063616e63656c6c656400000000000000000000000000000060648201526084016109fd565b6000828152609760205260408082208290555183917fbaa1eb22f2a492ba1a5fea61b8df4d27c6c8b5f3971e63bb58fa14ff72eedb7091a25050565b6000828152606560205260409020600101546110c381611346565b6109588383611894565b600080527f7dc9f88e569f94faad6fa0d44dd44858caf3f34f1bd1c985800aedf5793aad8b6020527fa01e231ca478cf51f663e103939e98de36fa76d3e4e0b1de673dc711acc3a01b547fd8aa0f3194971a2a116679f7c2090f6939c8d4e01a2a8d7e41d55e5351469e639060ff1661114a5761114a8133611486565b8786146111bf5760405162461bcd60e51b815260206004820152602360248201527f54696d656c6f636b436f6e74726f6c6c65723a206c656e677468206d69736d6160448201527f746368000000000000000000000000000000000000000000000000000000000060648201526084016109fd565b8784146112345760405162461bcd60e51b815260206004820152602360248201527f54696d656c6f636b436f6e74726f6c6c65723a206c656e677468206d69736d6160448201527f746368000000000000000000000000000000000000000000000000000000000060648201526084016109fd565b60006112468a8a8a8a8a8a8a8a610e02565b90506112528185611526565b60005b898110156113305760008b8b8381811061127157611271612a71565b90506020020160208101906112869190612aa0565b905060008a8a8481811061129c5761129c612a71565b9050602002013590503660008a8a868181106112ba576112ba612a71565b90506020028101906112cc9190612abb565b915091506112dc8484848461162e565b84867fc2617efa69bab66782fa219543714338489c4e9e178271560a91b82c3f612b588686868660405161131394939291906129bb565b60405180910390a3505050508061132990612b4f565b9050611255565b5061133a81611711565b50505050505050505050565b6113508133611486565b50565b61135c8261095d565b156113cf5760405162461bcd60e51b815260206004820152602f60248201527f54696d656c6f636b436f6e74726f6c6c65723a206f7065726174696f6e20616c60448201527f7265616479207363686564756c6564000000000000000000000000000000000060648201526084016109fd565b6113d98142612d05565b6000928352609760205260409092209190915550565b60007fffffffff0000000000000000000000000000000000000000000000000000000082167f7965db0b00000000000000000000000000000000000000000000000000000000148061080f57507f01ffc9a7000000000000000000000000000000000000000000000000000000007fffffffff0000000000000000000000000000000000000000000000000000000083161461080f565b600082815260656020908152604080832073ffffffffffffffffffffffffffffffffffffffff8516845290915290205460ff16610a10576114c681611a9c565b6114d1836020611abb565b6040516020016114e2929190612d1d565b604080517fffffffffffffffffffffffffffffffffffffffffffffffffffffffffffffffe08184030181529082905262461bcd60e51b82526109fd916004016124b8565b61152f8261090d565b6115a15760405162461bcd60e51b815260206004820152602a60248201527f54696d656c6f636b436f6e74726f6c6c65723a206f7065726174696f6e20697360448201527f206e6f742072656164790000000000000000000000000000000000000000000060648201526084016109fd565b8015806115bc57506000818152609760205260409020546001145b610a105760405162461bcd60e51b815260206004820152602660248201527f54696d656c6f636b436f6e74726f6c6c65723a206d697373696e67206465706560448201527f6e64656e6379000000000000000000000000000000000000000000000000000060648201526084016109fd565b60008473ffffffffffffffffffffffffffffffffffffffff16848484604051611658929190612d9e565b60006040518083038185875af1925050503d8060008114611695576040519150601f19603f3d011682016040523d82523d6000602084013e61169a565b606091505b5050905080610fc05760405162461bcd60e51b815260206004820152603360248201527f54696d656c6f636b436f6e74726f6c6c65723a20756e6465726c79696e67207460448201527f72616e73616374696f6e2072657665727465640000000000000000000000000060648201526084016109fd565b61171a8161090d565b61178c5760405162461bcd60e51b815260206004820152602a60248201527f54696d656c6f636b436f6e74726f6c6c65723a206f7065726174696f6e20697360448201527f206e6f742072656164790000000000000000000000000000000000000000000060648201526084016109fd565b600090815260976020526040902060019055565b600082815260656020908152604080832073ffffffffffffffffffffffffffffffffffffffff8516845290915290205460ff16610a1057600082815260656020908152604080832073ffffffffffffffffffffffffffffffffffffffff85168452909152902080547fffffffffffffffffffffffffffffffffffffffffffffffffffffffffffffff001660011790556118363390565b73ffffffffffffffffffffffffffffffffffffffff168173ffffffffffffffffffffffffffffffffffffffff16837f2f8788117e7eff1d82e926ec794901d17c78024a50270940304540a733656f0d60405160405180910390a45050565b600082815260656020908152604080832073ffffffffffffffffffffffffffffffffffffffff8516845290915290205460ff1615610a1057600082815260656020908152604080832073ffffffffffffffffffffffffffffffffffffffff8516808552925280832080547fffffffffffffffffffffffffffffffffffffffffffffffffffffffffffffff0016905551339285917ff6391f5c32d9c69d2a47ea670b442974b53935d1edc7fd64eb21e047a839171b9190a45050565b6060600061195c83611ce4565b600101905060008167ffffffffffffffff81111561197c5761197c6122ec565b6040519080825280601f01601f1916602001820160405280156119a6576020820181803683370190505b5090508181016020015b7fffffffffffffffffffffffffffffffffffffffffffffffffffffffffffffffff017f3031323334353637383961626364656600000000000000000000000000000000600a86061a8153600a85049450846119b057509392505050565b600054610100900460ff16611a8a5760405162461bcd60e51b815260206004820152602b60248201527f496e697469616c697a61626c653a20636f6e7472616374206973206e6f74206960448201527f6e697469616c697a696e6700000000000000000000000000000000000000000060648201526084016109fd565b611a9684848484611dc6565b50505050565b606061080f73ffffffffffffffffffffffffffffffffffffffff831660145b60606000611aca836002612dae565b611ad5906002612d05565b67ffffffffffffffff811115611aed57611aed6122ec565b6040519080825280601f01601f191660200182016040528015611b17576020820181803683370190505b5090507f300000000000000000000000000000000000000000000000000000000000000081600081518110611b4e57611b4e612a71565b60200101907effffffffffffffffffffffffffffffffffffffffffffffffffffffffffffff1916908160001a9053507f780000000000000000000000000000000000000000000000000000000000000081600181518110611bb157611bb1612a71565b60200101907effffffffffffffffffffffffffffffffffffffffffffffffffffffffffffff1916908160001a9053506000611bed846002612dae565b611bf8906001612d05565b90505b6001811115611c95577f303132333435363738396162636465660000000000000000000000000000000085600f1660108110611c3957611c39612a71565b1a60f81b828281518110611c4f57611c4f612a71565b60200101907effffffffffffffffffffffffffffffffffffffffffffffffffffffffffffff1916908160001a90535060049490941c93611c8e81612deb565b9050611bfb565b50831561092c5760405162461bcd60e51b815260206004820181905260248201527f537472696e67733a20686578206c656e67746820696e73756666696369656e7460448201526064016109fd565b6000807a184f03e93ff9f4daa797ed6e38ed64bf6a1f0100000000000000008310611d2d577a184f03e93ff9f4daa797ed6e38ed64bf6a1f010000000000000000830492506040015b6d04ee2d6d415b85acef81000000008310611d59576d04ee2d6d415b85acef8100000000830492506020015b662386f26fc100008310611d7757662386f26fc10000830492506010015b6305f5e1008310611d8f576305f5e100830492506008015b6127108310611da357612710830492506004015b60648310611db5576064830492506002015b600a831061080f5760010192915050565b600054610100900460ff16611e435760405162461bcd60e51b815260206004820152602b60248201527f496e697469616c697a61626c653a20636f6e7472616374206973206e6f74206960448201527f6e697469616c697a696e6700000000000000000000000000000000000000000060648201526084016109fd565b611e6d7f5f58e3a2316349923ce3780f8d587db2d72378aed66a8261c916544fa6846ca5806120e9565b611eb77fb09aa5aeb3702cfd50b6b62bc4532604938f21248a27a1d5ca736082b6819cc17f5f58e3a2316349923ce3780f8d587db2d72378aed66a8261c916544fa6846ca56120e9565b611f017fd8aa0f3194971a2a116679f7c2090f6939c8d4e01a2a8d7e41d55e5351469e637f5f58e3a2316349923ce3780f8d587db2d72378aed66a8261c916544fa6846ca56120e9565b611f4b7ffd643c72710c63c0180259aba6b2d05451e3591a24e58b62239378085726f7837f5f58e3a2316349923ce3780f8d587db2d72378aed66a8261c916544fa6846ca56120e9565b611f757f5f58e3a2316349923ce3780f8d587db2d72378aed66a8261c916544fa6846ca530612134565b73ffffffffffffffffffffffffffffffffffffffff811615611fbb57611fbb7f5f58e3a2316349923ce3780f8d587db2d72378aed66a8261c916544fa6846ca582612134565b60005b83518110156120505761200a7fb09aa5aeb3702cfd50b6b62bc4532604938f21248a27a1d5ca736082b6819cc1858381518110611ffd57611ffd612a71565b6020026020010151612134565b6120407ffd643c72710c63c0180259aba6b2d05451e3591a24e58b62239378085726f783858381518110611ffd57611ffd612a71565b61204981612b4f565b9050611fbe565b5060005b82518110156120a3576120937fd8aa0f3194971a2a116679f7c2090f6939c8d4e01a2a8d7e41d55e5351469e63848381518110611ffd57611ffd612a71565b61209c81612b4f565b9050612054565b5060988490556040805160008152602081018690527f11c24f4ead16507c69ac467fbd5e4eed5fb5c699626d2cc6d66421df253886d5910160405180910390a150505050565b600082815260656020526040808220600101805490849055905190918391839186917fbd79b86ffe0ab8e8776151514217cd7cacd52c909f66475c3af44e129f0b00ff9190a4505050565b610a1082826117a0565b803573ffffffffffffffffffffffffffffffffffffffff8116811461216257600080fd5b919050565b60008083601f84011261217957600080fd5b50813567ffffffffffffffff81111561219157600080fd5b6020830191508360208285010111156121a957600080fd5b9250929050565b600080600080600080600060c0888a0312156121cb57600080fd5b6121d48861213e565b965060208801359550604088013567ffffffffffffffff8111156121f757600080fd5b6122038a828b01612167565b989b979a50986060810135976080820135975060a09091013595509350505050565b60006020828403121561223757600080fd5b81357fffffffff000000000000000000000000000000000000000000000000000000008116811461092c57600080fd5b60008060008060008060a0878903121561228057600080fd5b6122898761213e565b955060208701359450604087013567ffffffffffffffff8111156122ac57600080fd5b6122b889828a01612167565b979a9699509760608101359660809091013595509350505050565b6000602082840312156122e557600080fd5b5035919050565b7f4e487b7100000000000000000000000000000000000000000000000000000000600052604160045260246000fd5b604051601f82017fffffffffffffffffffffffffffffffffffffffffffffffffffffffffffffffe016810167ffffffffffffffff81118282101715612362576123626122ec565b604052919050565b600082601f83011261237b57600080fd5b813567ffffffffffffffff811115612395576123956122ec565b6123c660207fffffffffffffffffffffffffffffffffffffffffffffffffffffffffffffffe0601f8401160161231b565b8181528460208386010111156123db57600080fd5b816020850160208301376000918101602001919091529392505050565b6000806000806080858703121561240e57600080fd5b6124178561213e565b93506124256020860161213e565b925060408501359150606085013567ffffffffffffffff81111561244857600080fd5b6124548782880161236a565b91505092959194509250565b6000806040838503121561247357600080fd5b823591506124836020840161213e565b90509250929050565b60005b838110156124a757818101518382015260200161248f565b83811115611a965750506000910152565b60208152600082518060208401526124d781604085016020870161248c565b601f017fffffffffffffffffffffffffffffffffffffffffffffffffffffffffffffffe0169190910160400192915050565b60008083601f84011261251b57600080fd5b50813567ffffffffffffffff81111561253357600080fd5b6020830191508360208260051b85010111156121a957600080fd5b600080600080600080600080600060c08a8c03121561256c57600080fd5b893567ffffffffffffffff8082111561258457600080fd5b6125908d838e01612509565b909b50995060208c01359150808211156125a957600080fd5b6125b58d838e01612509565b909950975060408c01359150808211156125ce57600080fd5b506125db8c828d01612509565b9a9d999c50979a969997986060880135976080810135975060a0013595509350505050565b60008060008060008060008060a0898b03121561261c57600080fd5b883567ffffffffffffffff8082111561263457600080fd5b6126408c838d01612509565b909a50985060208b013591508082111561265957600080fd5b6126658c838d01612509565b909850965060408b013591508082111561267e57600080fd5b5061268b8b828c01612509565b999c989b509699959896976060870135966080013595509350505050565b600067ffffffffffffffff8211156126c3576126c36122ec565b5060051b60200190565b600082601f8301126126de57600080fd5b813560206126f36126ee836126a9565b61231b565b82815260059290921b8401810191818101908684111561271257600080fd5b8286015b8481101561272d5780358352918301918301612716565b509695505050505050565b600080600080600060a0868803121561275057600080fd5b6127598661213e565b94506127676020870161213e565b9350604086013567ffffffffffffffff8082111561278457600080fd5b61279089838a016126cd565b945060608801359150808211156127a657600080fd5b6127b289838a016126cd565b935060808801359150808211156127c857600080fd5b506127d58882890161236a565b9150509295509295909350565b600082601f8301126127f357600080fd5b813560206128036126ee836126a9565b82815260059290921b8401810191818101908684111561282257600080fd5b8286015b8481101561272d576128378161213e565b8352918301918301612826565b6000806000806080858703121561285a57600080fd5b84359350602085013567ffffffffffffffff8082111561287957600080fd5b612885888389016127e2565b9450604087013591508082111561289b57600080fd5b506128a8878288016127e2565b9250506128b76060860161213e565b905092959194509250565b600080600080600060a086880312156128da57600080fd5b6128e38661213e565b94506128f16020870161213e565b93506040860135925060608601359150608086013567ffffffffffffffff81111561291b57600080fd5b6127d58882890161236a565b8183528181602085013750600060208284010152600060207fffffffffffffffffffffffffffffffffffffffffffffffffffffffffffffffe0601f840116840101905092915050565b73ffffffffffffffffffffffffffffffffffffffff8716815285602082015260a0604082015260006129a660a083018688612927565b60608301949094525060800152949350505050565b73ffffffffffffffffffffffffffffffffffffffff851681528360208201526060604082015260006129f1606083018486612927565b9695505050505050565b60008451612a0d81846020890161248c565b80830190507f2e000000000000000000000000000000000000000000000000000000000000008082528551612a49816001850160208a0161248c565b60019201918201528351612a6481600284016020880161248c565b0160020195945050505050565b7f4e487b7100000000000000000000000000000000000000000000000000000000600052603260045260246000fd5b600060208284031215612ab257600080fd5b61092c8261213e565b60008083357fffffffffffffffffffffffffffffffffffffffffffffffffffffffffffffffe1843603018112612af057600080fd5b83018035915067ffffffffffffffff821115612b0b57600080fd5b6020019150368190038213156121a957600080fd5b7f4e487b7100000000000000000000000000000000000000000000000000000000600052601160045260246000fd5b60007fffffffffffffffffffffffffffffffffffffffffffffffffffffffffffffffff8203612b8057612b80612b20565b5060010190565b818352600060208085019450848460051b86018460005b87811015612c2757838303895281357fffffffffffffffffffffffffffffffffffffffffffffffffffffffffffffffe1883603018112612bdd57600080fd5b8701858101903567ffffffffffffffff811115612bf957600080fd5b803603821315612c0857600080fd5b612c13858284612927565b9a87019a9450505090840190600101612b9e565b5090979650505050505050565b60a0808252810188905260008960c08301825b8b811015612c825773ffffffffffffffffffffffffffffffffffffffff612c6d8461213e565b16825260209283019290910190600101612c47565b5083810360208501528881527f07ffffffffffffffffffffffffffffffffffffffffffffffffffffffffffffff891115612cbb57600080fd5b8860051b9150818a602083013781810191505060208101600081526020848303016040850152612cec81888a612b87565b6060850196909652505050608001529695505050505050565b60008219821115612d1857612d18612b20565b500190565b7f416363657373436f6e74726f6c3a206163636f756e7420000000000000000000815260008351612d5581601785016020880161248c565b7f206973206d697373696e6720726f6c65200000000000000000000000000000006017918401918201528351612d9281602884016020880161248c565b01602801949350505050565b8183823760009101908152919050565b6000817fffffffffffffffffffffffffffffffffffffffffffffffffffffffffffffffff0483118215151615612de657612de6612b20565b500290565b600081612dfa57612dfa612b20565b507fffffffffffffffffffffffffffffffffffffffffffffffffffffffffffffffff019056fea164736f6c634300080f000a",
  "devdoc": {
    "version": 1,
    "kind": "dev",
    "methods": {
      "cancel(bytes32)": {
        "details": "Cancel an operation. Requirements: - the caller must have the 'canceller' role."
      },
      "constructor": {},
      "execute(address,uint256,bytes,bytes32,bytes32)": {
        "details": "Execute an (ready) operation containing a single transaction. Emits a {CallExecuted} event. Requirements: - the caller must have the 'executor' role."
      },
      "executeBatch(address[],uint256[],bytes[],bytes32,bytes32)": {
        "details": "Execute an (ready) operation containing a batch of transactions. Emits one {CallExecuted} event per transaction in the batch. Requirements: - the caller must have the 'executor' role."
      },
      "getMinDelay()": {
        "details": "Returns the minimum delay for an operation to become valid. This value can be changed by executing an operation that calls `updateDelay`."
      },
      "getRoleAdmin(bytes32)": {
        "details": "Returns the admin role that controls `role`. See {grantRole} and {revokeRole}. To change a role's admin, use {_setRoleAdmin}."
      },
      "getTimestamp(bytes32)": {
        "details": "Returns the timestamp at which an operation becomes ready (0 for unset operations, 1 for done operations)."
      },
      "grantRole(bytes32,address)": {
        "details": "Grants `role` to `account`. If `account` had not been already granted `role`, emits a {RoleGranted} event. Requirements: - the caller must have ``role``'s admin role. May emit a {RoleGranted} event."
      },
      "hasRole(bytes32,address)": {
        "details": "Returns `true` if `account` has been granted `role`."
      },
      "hashOperation(address,uint256,bytes,bytes32,bytes32)": {
        "details": "Returns the identifier of an operation containing a single transaction."
      },
      "hashOperationBatch(address[],uint256[],bytes[],bytes32,bytes32)": {
        "details": "Returns the identifier of an operation containing a batch of transactions."
      },
      "initialize(uint256,address[],address[],address)": {
        "params": {
          "_admin": "Optional account to be granted admin role; disable with zero address.",
          "_executors": "Accounts to be granted executor role.",
          "_minDelay": "Initial minimum delay for operations.",
          "_proposers": "Accounts to be granted proposer and canceller roles."
        }
      },
      "isOperation(bytes32)": {
        "details": "Returns whether an id correspond to a registered operation. This includes both Pending, Ready and Done operations."
      },
      "isOperationDone(bytes32)": {
        "details": "Returns whether an operation is done or not."
      },
      "isOperationPending(bytes32)": {
        "details": "Returns whether an operation is pending or not. Note that a \"pending\" operation may also be \"ready\"."
      },
      "isOperationReady(bytes32)": {
        "details": "Returns whether an operation is ready for execution. Note that a \"ready\" operation is also \"pending\"."
      },
      "onERC1155BatchReceived(address,address,uint256[],uint256[],bytes)": {
        "details": "See {IERC1155Receiver-onERC1155BatchReceived}."
      },
      "onERC1155Received(address,address,uint256,uint256,bytes)": {
        "details": "See {IERC1155Receiver-onERC1155Received}."
      },
      "onERC721Received(address,address,uint256,bytes)": {
        "details": "See {IERC721Receiver-onERC721Received}."
      },
      "renounceRole(bytes32,address)": {
        "details": "Revokes `role` from the calling account. Roles are often managed via {grantRole} and {revokeRole}: this function's purpose is to provide a mechanism for accounts to lose their privileges if they are compromised (such as when a trusted device is misplaced). If the calling account had been revoked `role`, emits a {RoleRevoked} event. Requirements: - the caller must be `account`. May emit a {RoleRevoked} event."
      },
      "revokeRole(bytes32,address)": {
        "details": "Revokes `role` from `account`. If `account` had been granted `role`, emits a {RoleRevoked} event. Requirements: - the caller must have ``role``'s admin role. May emit a {RoleRevoked} event."
      },
      "schedule(address,uint256,bytes,bytes32,bytes32,uint256)": {
        "details": "Schedule an operation containing a single transaction. Emits {CallSalt} if salt is nonzero, and {CallScheduled}. Requirements: - the caller must have the 'proposer' role."
      },
      "scheduleBatch(address[],uint256[],bytes[],bytes32,bytes32,uint256)": {
        "details": "Schedule an operation containing a batch of transactions. Emits {CallSalt} if salt is nonzero, and one {CallScheduled} event per transaction in the batch. Requirements: - the caller must have the 'proposer' role."
      },
      "supportsInterface(bytes4)": {
        "details": "See {IERC165-supportsInterface}."
      },
      "updateDelay(uint256)": {
        "details": "Changes the minimum timelock duration for future operations. Emits a {MinDelayChange} event. Requirements: - the caller must be the timelock itself. This can only be achieved by scheduling and later executing an operation where the timelock is the target and the data is the ABI-encoded call to this function."
      },
      "version()": {
        "returns": {
          "_0": "Semver contract version as a string."
        }
      }
    }
  },
  "userdoc": {
    "version": 1,
    "kind": "user",
    "methods": {
      "initialize(uint256,address[],address[],address)": {
        "notice": "Initializer."
      },
      "version()": {
        "notice": "Returns the full semver contract version."
      }
    },
    "notice": "The TimeLock is a timelock controller based on OpenZeppelin TimelockController."
  },
  "storageLayout": {
    "storage": [
      {
        "astId": 66103,
        "contract": "contracts/governance/TimeLock.sol:TimeLock",
        "label": "_initialized",
        "offset": 0,
        "slot": "0",
        "type": "t_uint8"
      },
      {
        "astId": 66106,
        "contract": "contracts/governance/TimeLock.sol:TimeLock",
        "label": "_initializing",
        "offset": 1,
        "slot": "0",
        "type": "t_bool"
      },
      {
        "astId": 70246,
        "contract": "contracts/governance/TimeLock.sol:TimeLock",
        "label": "__gap",
        "offset": 0,
        "slot": "1",
        "type": "t_array(t_uint256)50_storage"
      },
      {
        "astId": 71243,
        "contract": "contracts/governance/TimeLock.sol:TimeLock",
        "label": "__gap",
        "offset": 0,
        "slot": "51",
        "type": "t_array(t_uint256)50_storage"
      },
      {
        "astId": 60656,
        "contract": "contracts/governance/TimeLock.sol:TimeLock",
        "label": "_roles",
        "offset": 0,
        "slot": "101",
        "type": "t_mapping(t_bytes32,t_struct(RoleData)60651_storage)"
      },
      {
        "astId": 60951,
        "contract": "contracts/governance/TimeLock.sol:TimeLock",
        "label": "__gap",
        "offset": 0,
        "slot": "102",
        "type": "t_array(t_uint256)49_storage"
      },
      {
        "astId": 63166,
        "contract": "contracts/governance/TimeLock.sol:TimeLock",
        "label": "_timestamps",
        "offset": 0,
        "slot": "151",
        "type": "t_mapping(t_bytes32,t_uint256)"
      },
      {
        "astId": 63168,
        "contract": "contracts/governance/TimeLock.sol:TimeLock",
        "label": "_minDelay",
        "offset": 0,
        "slot": "152",
        "type": "t_uint256"
      },
      {
        "astId": 64099,
        "contract": "contracts/governance/TimeLock.sol:TimeLock",
        "label": "__gap",
        "offset": 0,
        "slot": "153",
        "type": "t_array(t_uint256)48_storage"
      }
    ],
    "types": {
      "t_address": {
        "encoding": "inplace",
        "label": "address",
        "numberOfBytes": "20"
      },
      "t_array(t_uint256)48_storage": {
        "encoding": "inplace",
        "label": "uint256[48]",
        "numberOfBytes": "1536",
        "base": "t_uint256"
      },
      "t_array(t_uint256)49_storage": {
        "encoding": "inplace",
        "label": "uint256[49]",
        "numberOfBytes": "1568",
        "base": "t_uint256"
      },
      "t_array(t_uint256)50_storage": {
        "encoding": "inplace",
        "label": "uint256[50]",
        "numberOfBytes": "1600",
        "base": "t_uint256"
      },
      "t_bool": {
        "encoding": "inplace",
        "label": "bool",
        "numberOfBytes": "1"
      },
      "t_bytes32": {
        "encoding": "inplace",
        "label": "bytes32",
        "numberOfBytes": "32"
      },
      "t_mapping(t_address,t_bool)": {
        "encoding": "mapping",
        "key": "t_address",
        "label": "mapping(address => bool)",
        "numberOfBytes": "32",
        "value": "t_bool"
      },
      "t_mapping(t_bytes32,t_struct(RoleData)60651_storage)": {
        "encoding": "mapping",
        "key": "t_bytes32",
        "label": "mapping(bytes32 => struct AccessControlUpgradeable.RoleData)",
        "numberOfBytes": "32",
        "value": "t_struct(RoleData)60651_storage"
      },
      "t_mapping(t_bytes32,t_uint256)": {
        "encoding": "mapping",
        "key": "t_bytes32",
        "label": "mapping(bytes32 => uint256)",
        "numberOfBytes": "32",
        "value": "t_uint256"
      },
      "t_struct(RoleData)60651_storage": {
        "encoding": "inplace",
        "label": "struct AccessControlUpgradeable.RoleData",
        "numberOfBytes": "64",
        "members": [
          {
            "astId": 60648,
            "contract": "contracts/governance/TimeLock.sol:TimeLock",
            "label": "members",
            "offset": 0,
            "slot": "0",
            "type": "t_mapping(t_address,t_bool)"
          },
          {
            "astId": 60650,
            "contract": "contracts/governance/TimeLock.sol:TimeLock",
            "label": "adminRole",
            "offset": 0,
            "slot": "1",
            "type": "t_bytes32"
          }
        ]
      },
      "t_uint256": {
        "encoding": "inplace",
        "label": "uint256",
        "numberOfBytes": "32"
      },
      "t_uint8": {
        "encoding": "inplace",
        "label": "uint8",
        "numberOfBytes": "1"
      }
    }
  }
}