{
  "address": "0xD12C3097FF06c8659362A25ad7f8f1e4488AD825",
  "abi": [
    {
      "inputs": [
        {
          "internalType": "contract L2OutputOracle",
          "name": "_l2OutputOracle",
          "type": "address"
        },
        {
          "internalType": "contract KromaPortal",
          "name": "_portal",
          "type": "address"
        },
        {
          "internalType": "address",
          "name": "_securityCouncil",
          "type": "address"
        },
        {
          "internalType": "address",
          "name": "_trustedValidator",
          "type": "address"
        },
        {
          "internalType": "uint256",
          "name": "_requiredBondAmount",
          "type": "uint256"
        },
        {
          "internalType": "uint256",
          "name": "_maxUnbond",
          "type": "uint256"
        },
        {
          "internalType": "uint256",
          "name": "_roundDuration",
          "type": "uint256"
        }
      ],
      "stateMutability": "nonpayable",
      "type": "constructor"
    },
    {
      "anonymous": false,
      "inputs": [
        {
          "indexed": true,
          "internalType": "uint256",
          "name": "outputIndex",
          "type": "uint256"
        },
        {
          "indexed": true,
          "internalType": "address",
          "name": "challenger",
          "type": "address"
        },
        {
          "indexed": false,
          "internalType": "uint128",
          "name": "amount",
          "type": "uint128"
        }
      ],
      "name": "BondIncreased",
      "type": "event"
    },
    {
      "anonymous": false,
      "inputs": [
        {
          "indexed": true,
          "internalType": "address",
          "name": "submitter",
          "type": "address"
        },
        {
          "indexed": true,
          "internalType": "uint256",
          "name": "outputIndex",
          "type": "uint256"
        },
        {
          "indexed": false,
          "internalType": "uint128",
          "name": "amount",
          "type": "uint128"
        },
        {
          "indexed": false,
          "internalType": "uint128",
          "name": "expiresAt",
          "type": "uint128"
        }
      ],
      "name": "Bonded",
      "type": "event"
    },
    {
      "anonymous": false,
      "inputs": [
        {
          "indexed": false,
          "internalType": "uint8",
          "name": "version",
          "type": "uint8"
        }
      ],
      "name": "Initialized",
      "type": "event"
    },
    {
      "anonymous": false,
      "inputs": [
        {
          "indexed": true,
          "internalType": "uint256",
          "name": "outputIndex",
          "type": "uint256"
        },
        {
          "indexed": true,
          "internalType": "address",
          "name": "challenger",
          "type": "address"
        },
        {
          "indexed": false,
          "internalType": "uint128",
          "name": "amount",
          "type": "uint128"
        }
      ],
      "name": "PendingBondAdded",
      "type": "event"
    },
    {
      "anonymous": false,
      "inputs": [
        {
          "indexed": true,
          "internalType": "uint256",
          "name": "outputIndex",
          "type": "uint256"
        },
        {
          "indexed": true,
          "internalType": "address",
          "name": "challenger",
          "type": "address"
        },
        {
          "indexed": true,
          "internalType": "address",
          "name": "recipient",
          "type": "address"
        },
        {
          "indexed": false,
          "internalType": "uint128",
          "name": "amount",
          "type": "uint128"
        }
      ],
      "name": "PendingBondReleased",
      "type": "event"
    },
    {
      "anonymous": false,
      "inputs": [
        {
          "indexed": true,
          "internalType": "uint256",
          "name": "outputIndex",
          "type": "uint256"
        },
        {
          "indexed": true,
          "internalType": "address",
          "name": "recipient",
          "type": "address"
        },
        {
          "indexed": false,
          "internalType": "uint128",
          "name": "amount",
          "type": "uint128"
        }
      ],
      "name": "Unbonded",
      "type": "event"
    },
    {
      "inputs": [],
      "name": "L2_ORACLE",
      "outputs": [
        {
          "internalType": "contract L2OutputOracle",
          "name": "",
          "type": "address"
        }
      ],
      "stateMutability": "view",
      "type": "function"
    },
    {
      "inputs": [],
      "name": "MAX_UNBOND",
      "outputs": [
        {
          "internalType": "uint256",
          "name": "",
          "type": "uint256"
        }
      ],
      "stateMutability": "view",
      "type": "function"
    },
    {
      "inputs": [],
      "name": "PORTAL",
      "outputs": [
        {
          "internalType": "contract KromaPortal",
          "name": "",
          "type": "address"
        }
      ],
      "stateMutability": "view",
      "type": "function"
    },
    {
      "inputs": [],
      "name": "REQUIRED_BOND_AMOUNT",
      "outputs": [
        {
          "internalType": "uint128",
          "name": "",
          "type": "uint128"
        }
      ],
      "stateMutability": "view",
      "type": "function"
    },
    {
      "inputs": [],
      "name": "ROUND_DURATION",
      "outputs": [
        {
          "internalType": "uint256",
          "name": "",
          "type": "uint256"
        }
      ],
      "stateMutability": "view",
      "type": "function"
    },
    {
      "inputs": [],
      "name": "SECURITY_COUNCIL",
      "outputs": [
        {
          "internalType": "address",
          "name": "",
          "type": "address"
        }
      ],
      "stateMutability": "view",
      "type": "function"
    },
    {
      "inputs": [],
      "name": "TAX_DENOMINATOR",
      "outputs": [
        {
          "internalType": "uint128",
          "name": "",
          "type": "uint128"
        }
      ],
      "stateMutability": "view",
      "type": "function"
    },
    {
      "inputs": [],
      "name": "TAX_NUMERATOR",
      "outputs": [
        {
          "internalType": "uint128",
          "name": "",
          "type": "uint128"
        }
      ],
      "stateMutability": "view",
      "type": "function"
    },
    {
      "inputs": [],
      "name": "TRUSTED_VALIDATOR",
      "outputs": [
        {
          "internalType": "address",
          "name": "",
          "type": "address"
        }
      ],
      "stateMutability": "view",
      "type": "function"
    },
    {
      "inputs": [],
      "name": "VAULT_REWARD_GAS_LIMIT",
      "outputs": [
        {
          "internalType": "uint64",
          "name": "",
          "type": "uint64"
        }
      ],
      "stateMutability": "view",
      "type": "function"
    },
    {
      "inputs": [
        {
          "internalType": "uint256",
          "name": "_outputIndex",
          "type": "uint256"
        },
        {
          "internalType": "address",
          "name": "_challenger",
          "type": "address"
        }
      ],
      "name": "addPendingBond",
      "outputs": [],
      "stateMutability": "nonpayable",
      "type": "function"
    },
    {
      "inputs": [
        {
          "internalType": "address",
          "name": "_addr",
          "type": "address"
        }
      ],
      "name": "balanceOf",
      "outputs": [
        {
          "internalType": "uint256",
          "name": "",
          "type": "uint256"
        }
      ],
      "stateMutability": "view",
      "type": "function"
    },
    {
      "inputs": [
        {
          "internalType": "uint256",
          "name": "_outputIndex",
          "type": "uint256"
        },
        {
          "internalType": "uint128",
          "name": "_expiresAt",
          "type": "uint128"
        }
      ],
      "name": "createBond",
      "outputs": [],
      "stateMutability": "nonpayable",
      "type": "function"
    },
    {
      "inputs": [],
      "name": "deposit",
      "outputs": [],
      "stateMutability": "payable",
      "type": "function"
    },
    {
      "inputs": [
        {
          "internalType": "uint256",
          "name": "_outputIndex",
          "type": "uint256"
        }
      ],
      "name": "getBond",
      "outputs": [
        {
          "components": [
            {
              "internalType": "uint128",
              "name": "amount",
              "type": "uint128"
            },
            {
              "internalType": "uint128",
              "name": "expiresAt",
              "type": "uint128"
            }
          ],
          "internalType": "struct Types.Bond",
          "name": "",
          "type": "tuple"
        }
      ],
      "stateMutability": "view",
      "type": "function"
    },
    {
      "inputs": [
        {
          "internalType": "uint256",
          "name": "_outputIndex",
          "type": "uint256"
        },
        {
          "internalType": "address",
          "name": "_challenger",
          "type": "address"
        }
      ],
      "name": "getPendingBond",
      "outputs": [
        {
          "internalType": "uint128",
          "name": "",
          "type": "uint128"
        }
      ],
      "stateMutability": "view",
      "type": "function"
    },
    {
      "inputs": [
        {
          "internalType": "uint256",
          "name": "_outputIndex",
          "type": "uint256"
        },
        {
          "internalType": "address",
          "name": "_challenger",
          "type": "address"
        }
      ],
      "name": "increaseBond",
      "outputs": [],
      "stateMutability": "nonpayable",
      "type": "function"
    },
    {
      "inputs": [],
      "name": "initialize",
      "outputs": [],
      "stateMutability": "nonpayable",
      "type": "function"
    },
    {
      "inputs": [
        {
          "internalType": "address",
          "name": "_addr",
          "type": "address"
        }
      ],
      "name": "isValidator",
      "outputs": [
        {
          "internalType": "bool",
          "name": "",
          "type": "bool"
        }
      ],
      "stateMutability": "view",
      "type": "function"
    },
    {
      "inputs": [],
      "name": "nextValidator",
      "outputs": [
        {
          "internalType": "address",
          "name": "",
          "type": "address"
        }
      ],
      "stateMutability": "view",
      "type": "function"
    },
    {
      "inputs": [
        {
          "internalType": "uint256",
          "name": "_outputIndex",
          "type": "uint256"
        },
        {
          "internalType": "address",
          "name": "_challenger",
          "type": "address"
        },
        {
          "internalType": "address",
          "name": "_recipient",
          "type": "address"
        }
      ],
      "name": "releasePendingBond",
      "outputs": [],
      "stateMutability": "nonpayable",
      "type": "function"
    },
    {
      "inputs": [],
      "name": "unbond",
      "outputs": [],
      "stateMutability": "nonpayable",
      "type": "function"
    },
    {
      "inputs": [],
      "name": "validatorCount",
      "outputs": [
        {
          "internalType": "uint256",
          "name": "",
          "type": "uint256"
        }
      ],
      "stateMutability": "view",
      "type": "function"
    },
    {
      "inputs": [],
      "name": "version",
      "outputs": [
        {
          "internalType": "string",
          "name": "",
          "type": "string"
        }
      ],
      "stateMutability": "view",
      "type": "function"
    },
    {
      "inputs": [
        {
          "internalType": "uint256",
          "name": "_amount",
          "type": "uint256"
        }
      ],
      "name": "withdraw",
      "outputs": [],
      "stateMutability": "nonpayable",
      "type": "function"
    }
  ],
  "transactionHash": "0xa07e3769f4f6a4b19416dfd66fd54f0f23d81ef870b92382478c160269dcfdf7",
  "args": [
    "0x7291913342063fd10d31651735BAF3877D2F9645",
    "0x31ab8eD993A3BE9Aa2757C7D368Dc87101A868a4",
    "0x7F0DECbef4FdD0193b7d5c8Cc918C1A69d3eF78C",
    "0xc2da150ecfaa2e275577203bb177dd4de4a2536e",
    "0x16345785d8a0000",
    10,
    60
  ],
  "numDeployments": 1,
  "solcInputHash": "ad1646ba565a873e1708361d05b7eb04",
  "bytecode": "0x6101c06040523480156200001257600080fd5b5060405162002cbb38038062002cbb833981016040819052620000359162000261565b60016080819052600060a05260c0526001600160a01b0380881660e05286811661010052858116610120528416610140526001600160801b038316610160526101808290526101a08190526200008a62000097565b50505050505050620002e8565b600054610100900460ff1615808015620000b85750600054600160ff909116105b80620000e85750620000d530620001c960201b620018551760201c565b158015620000e8575060005460ff166001145b620001515760405162461bcd60e51b815260206004820152602e60248201527f496e697469616c697a61626c653a20636f6e747261637420697320616c72656160448201526d191e481a5b9a5d1a585b1a5e995960921b60648201526084015b60405180910390fd5b6000805460ff19166001179055801562000175576000805461ff0019166101001790555b6200017f620001d8565b8015620001c6576000805461ff0019169055604051600181527f7f26b83ff96e1f2b6a682f133852f6798a09c465da95921460cefb38474024989060200160405180910390a15b50565b6001600160a01b03163b151590565b600054610100900460ff16620002455760405162461bcd60e51b815260206004820152602b60248201527f496e697469616c697a61626c653a20636f6e7472616374206973206e6f74206960448201526a6e697469616c697a696e6760a81b606482015260840162000148565b60018055565b6001600160a01b0381168114620001c657600080fd5b600080600080600080600060e0888a0312156200027d57600080fd5b87516200028a816200024b565b60208901519097506200029d816200024b565b6040890151909650620002b0816200024b565b6060890151909550620002c3816200024b565b809450506080880151925060a0880151915060c0880151905092959891949750929550565b60805160a05160c05160e05161010051610120516101405161016051610180516101a0516128c4620003f7600039600081816103660152610a1301526000818161043b0152611d530152600081816104b401528181610ce001528181610d610152818161127d015281816112b5015281816119590152611b570152600081816102db0152610a610152600081816102720152818161176b0152611ba401526000818161021c01526122810152600081816101ac01528181610656015281816108dd0152818161096b01528181610b280152818161108b015281816112020152818161147a01528181611e1d0152611fd901526000610adc01526000610ab301526000610a8a01526128c46000f3fe6080604052600436106101955760003560e01c806370a08231116100e1578063ab91f1901161008a578063d38dc7ee11610064578063d38dc7ee146104de578063d8fe7642146104fe578063dd215c5d1461054e578063facd743b1461056e57600080fd5b8063ab91f19014610472578063b7d636a5146104a2578063d0e30db0146104d657600080fd5b80638f09ade4116100bb5780638f09ade414610409578063946765fd14610429578063a51c9ace1461045d57600080fd5b806370a08231146103885780638129fc1c146103be57806382dae3aa146103d357600080fd5b80633a549046116101435780635a5447421161011d5780635a5447421461031f5780635df6a6bc1461033f5780636641ea081461035457600080fd5b80633a549046146102b45780633ee4d4a3146102c957806354fd4d50146102fd57600080fd5b80632e1a7d4d116101745780632e1a7d4d1461023e578063360864171461026057806336b834691461029457600080fd5b80621c2ff61461019a5780630f43a677146101eb5780630ff754ea1461020a575b600080fd5b3480156101a657600080fd5b506101ce7f000000000000000000000000000000000000000000000000000000000000000081565b6040516001600160a01b0390911681526020015b60405180910390f35b3480156101f757600080fd5b506036545b6040519081526020016101e2565b34801561021657600080fd5b506101ce7f000000000000000000000000000000000000000000000000000000000000000081565b34801561024a57600080fd5b5061025e6102593660046123de565b61059e565b005b34801561026c57600080fd5b506101ce7f000000000000000000000000000000000000000000000000000000000000000081565b3480156102a057600080fd5b5061025e6102af36600461240c565b610654565b3480156102c057600080fd5b506101ce6108c5565b3480156102d557600080fd5b506101ce7f000000000000000000000000000000000000000000000000000000000000000081565b34801561030957600080fd5b50610312610a83565b6040516101e291906124c4565b34801561032b57600080fd5b5061025e61033a3660046124d7565b610b26565b34801561034b57600080fd5b5061025e610dcf565b34801561036057600080fd5b506101fc7f000000000000000000000000000000000000000000000000000000000000000081565b34801561039457600080fd5b506101fc6103a3366004612507565b6001600160a01b031660009081526033602052604090205490565b3480156103ca57600080fd5b5061025e610e4e565b3480156103df57600080fd5b506103e8601481565b6040516fffffffffffffffffffffffffffffffff90911681526020016101e2565b34801561041557600080fd5b506103e86104243660046124d7565b610fc5565b34801561043557600080fd5b506101fc7f000000000000000000000000000000000000000000000000000000000000000081565b34801561046957600080fd5b506103e8606481565b34801561047e57600080fd5b50610489620186a081565b60405167ffffffffffffffff90911681526020016101e2565b3480156104ae57600080fd5b506103e87f000000000000000000000000000000000000000000000000000000000000000081565b61025e611074565b3480156104ea57600080fd5b5061025e6104f9366004612542565b611080565b34801561050a57600080fd5b5061051e6105193660046123de565b611359565b6040805182516fffffffffffffffffffffffffffffffff90811682526020938401511692810192909252016101e2565b34801561055a57600080fd5b5061025e6105693660046124d7565b611478565b34801561057a57600080fd5b5061058e610589366004612507565b6117de565b60405190151581526020016101e2565b6105a6611864565b6105b033826118bd565b60006105cd335a8460405180602001604052806000815250611b0f565b9050806106475760405162461bcd60e51b815260206004820152602260248201527f56616c696461746f72506f6f6c3a20455448207472616e73666572206661696c60448201527f656400000000000000000000000000000000000000000000000000000000000060648201526084015b60405180910390fd5b5061065160018055565b50565b7f00000000000000000000000000000000000000000000000000000000000000006001600160a01b0316639e45e8f46040518163ffffffff1660e01b8152600401602060405180830381865afa1580156106b2573d6000803e3d6000fd5b505050506040513d601f19601f820116820180604052508101906106d69190612567565b6001600160a01b0316336001600160a01b03161461075c5760405162461bcd60e51b815260206004820152602660248201527f56616c696461746f72506f6f6c3a2073656e646572206973206e6f7420436f6c60448201527f6f737365756d0000000000000000000000000000000000000000000000000000606482015260840161063e565b60008381526039602090815260408083206001600160a01b03861684529091529020546fffffffffffffffffffffffffffffffff16806108045760405162461bcd60e51b815260206004820152602e60248201527f56616c696461746f72506f6f6c3a207468652070656e64696e6720626f6e642060448201527f646f6573206e6f74206578697374000000000000000000000000000000000000606482015260840161063e565b60008481526039602090815260408083206001600160a01b0387168452909152902080547fffffffffffffffffffffffffffffffff00000000000000000000000000000000169055610868826fffffffffffffffffffffffffffffffff8316611b2f565b6040516fffffffffffffffffffffffffffffffff821681526001600160a01b03808416919085169086907f8c95336a279406edcc768d685e8eb6667368a77d840a188144b8e3719423198f9060200160405180910390a450505050565b6038546000906001600160a01b031615610a5e5760007f00000000000000000000000000000000000000000000000000000000000000006001600160a01b031663dcec33486040518163ffffffff1660e01b8152600401602060405180830381865afa158015610939573d6000803e3d6000fd5b505050506040513d601f19601f8201168201806040525081019061095d9190612584565b905060006001600160a01b037f00000000000000000000000000000000000000000000000000000000000000001663d1de856c61099b8460016125cc565b6040518263ffffffff1660e01b81526004016109b991815260200190565b602060405180830381865afa1580156109d6573d6000803e3d6000fd5b505050506040513d601f19601f820116820180604052508101906109fa9190612584565b9050804210610a4b576000610a0f82426125e4565b90507f0000000000000000000000000000000000000000000000000000000000000000811115610a49576001600160a01b03935050505090565b505b50506038546001600160a01b0316919050565b507f000000000000000000000000000000000000000000000000000000000000000090565b6060610aae7f0000000000000000000000000000000000000000000000000000000000000000611c63565b610ad77f0000000000000000000000000000000000000000000000000000000000000000611c63565b610b007f0000000000000000000000000000000000000000000000000000000000000000611c63565b604051602001610b12939291906125fb565b604051602081830303815290604052905090565b7f00000000000000000000000000000000000000000000000000000000000000006001600160a01b0316639e45e8f46040518163ffffffff1660e01b8152600401602060405180830381865afa158015610b84573d6000803e3d6000fd5b505050506040513d601f19601f82011682018060405250810190610ba89190612567565b6001600160a01b0316336001600160a01b031614610c2e5760405162461bcd60e51b815260206004820152602660248201527f56616c696461746f72506f6f6c3a2073656e646572206973206e6f7420436f6c60448201527f6f737365756d0000000000000000000000000000000000000000000000000000606482015260840161063e565b60008281526034602052604090208054427001000000000000000000000000000000009091046fffffffffffffffffffffffffffffffff161015610cda5760405162461bcd60e51b815260206004820152602e60248201527f56616c696461746f72506f6f6c3a20746865206f757470757420697320616c7260448201527f656164792066696e616c697a6564000000000000000000000000000000000000606482015260840161063e565b610d16827f00000000000000000000000000000000000000000000000000000000000000006fffffffffffffffffffffffffffffffff166118bd565b60008381526039602090815260408083206001600160a01b0386168085529083529281902080547fffffffffffffffffffffffffffffffff00000000000000000000000000000000167f00000000000000000000000000000000000000000000000000000000000000006fffffffffffffffffffffffffffffffff16908117909155905190815285917f2904258f32adf74dd8f23ad6f17ff50209896039c8ee3d4728ff55bd05c4cf2a910160405180910390a3505050565b6000610dd9611d21565b9050806106515760405162461bcd60e51b815260206004820152602960248201527f56616c696461746f72506f6f6c3a206e6f20626f6e6420746861742063616e2060448201527f626520756e626f6e640000000000000000000000000000000000000000000000606482015260840161063e565b600054610100900460ff1615808015610e6e5750600054600160ff909116105b80610e885750303b158015610e88575060005460ff166001145b610efa5760405162461bcd60e51b815260206004820152602e60248201527f496e697469616c697a61626c653a20636f6e747261637420697320616c72656160448201527f647920696e697469616c697a6564000000000000000000000000000000000000606482015260840161063e565b600080547fffffffffffffffffffffffffffffffffffffffffffffffffffffffffffffff001660011790558015610f5857600080547fffffffffffffffffffffffffffffffffffffffffffffffffffffffffffff00ff166101001790555b610f60611f3f565b801561065157600080547fffffffffffffffffffffffffffffffffffffffffffffffffffffffffffff00ff169055604051600181527f7f26b83ff96e1f2b6a682f133852f6798a09c465da95921460cefb38474024989060200160405180910390a150565b60008281526039602090815260408083206001600160a01b03851684529091528120546fffffffffffffffffffffffffffffffff168061106d5760405162461bcd60e51b815260206004820152602e60248201527f56616c696461746f72506f6f6c3a207468652070656e64696e6720626f6e642060448201527f646f6573206e6f74206578697374000000000000000000000000000000000000606482015260840161063e565b9392505050565b61107e3334611b2f565b565b336001600160a01b037f0000000000000000000000000000000000000000000000000000000000000000161461111e5760405162461bcd60e51b815260206004820152602b60248201527f56616c696461746f72506f6f6c3a2073656e646572206973206e6f74204c324f60448201527f75747075744f7261636c65000000000000000000000000000000000000000000606482015260840161063e565b6000828152603460205260409020805470010000000000000000000000000000000090046fffffffffffffffffffffffffffffffff16156111c75760405162461bcd60e51b815260206004820152603c60248201527f56616c696461746f72506f6f6c3a20626f6e64206f662074686520676976656e60448201527f206f757470757420696e64657820616c72656164792065786973747300000000606482015260840161063e565b6111cf611d21565b506040517fb0ea09a8000000000000000000000000000000000000000000000000000000008152600481018490526000907f00000000000000000000000000000000000000000000000000000000000000006001600160a01b03169063b0ea09a890602401602060405180830381865afa158015611251573d6000803e3d6000fd5b505050506040513d601f19601f820116820180604052508101906112759190612567565b90506112b3817f00000000000000000000000000000000000000000000000000000000000000006fffffffffffffffffffffffffffffffff166118bd565b7f00000000000000000000000000000000000000000000000000000000000000006fffffffffffffffffffffffffffffffff9081167001000000000000000000000000000000009185169182028117845560408051918252602082019290925285916001600160a01b038416917f5ca130257b8f76f72ad2965efcbe166f3918d820e4a49956e70081ea311f97c4910160405180910390a3611353611fbc565b50505050565b6040805180820190915260008082526020820152600082815260346020526040902080546fffffffffffffffffffffffffffffffff16158015906113c35750805470010000000000000000000000000000000090046fffffffffffffffffffffffffffffffff1615155b6114355760405162461bcd60e51b815260206004820152602660248201527f56616c696461746f72506f6f6c3a2074686520626f6e6420646f6573206e6f7460448201527f2065786973740000000000000000000000000000000000000000000000000000606482015260840161063e565b6040805180820190915290546fffffffffffffffffffffffffffffffff808216835270010000000000000000000000000000000090910416602082015292915050565b7f00000000000000000000000000000000000000000000000000000000000000006001600160a01b0316639e45e8f46040518163ffffffff1660e01b8152600401602060405180830381865afa1580156114d6573d6000803e3d6000fd5b505050506040513d601f19601f820116820180604052508101906114fa9190612567565b6001600160a01b0316336001600160a01b0316146115805760405162461bcd60e51b815260206004820152602660248201527f56616c696461746f72506f6f6c3a2073656e646572206973206e6f7420436f6c60448201527f6f737365756d0000000000000000000000000000000000000000000000000000606482015260840161063e565b60008281526034602052604090208054427001000000000000000000000000000000009091046fffffffffffffffffffffffffffffffff16101561162c5760405162461bcd60e51b815260206004820152602e60248201527f56616c696461746f72506f6f6c3a20746865206f757470757420697320616c7260448201527f656164792066696e616c697a6564000000000000000000000000000000000000606482015260840161063e565b60008381526039602090815260408083206001600160a01b03861684529091529020546fffffffffffffffffffffffffffffffff16806116d45760405162461bcd60e51b815260206004820152602e60248201527f56616c696461746f72506f6f6c3a207468652070656e64696e6720626f6e642060448201527f646f6573206e6f74206578697374000000000000000000000000000000000000606482015260840161063e565b600060646116e3601484612671565b6116ed91906126d8565b905060006116fb8284612707565b60008781526039602090815260408083206001600160a01b038a811680865291845282852080547fffffffffffffffffffffffffffffffff000000000000000000000000000000009081169091558a549081166fffffffffffffffffffffffffffffffff91821688018216178b557f00000000000000000000000000000000000000000000000000000000000000009091168552603384529382902080548886160190559051928416835292935088917f383f9b8b5a1fc2ec555726eb895621a312042e18b764135fa12ef1a520ad30db910160405180910390a3505050505050565b60365460009081036117f257506000919050565b6001600160a01b03821661180857506000919050565b6001600160a01b038216600081815260376020526040902054603680549192918390811061183857611838612738565b6000918252602090912001546001600160a01b0316149392505050565b6001600160a01b03163b151590565b6002600154036118b65760405162461bcd60e51b815260206004820152601f60248201527f5265656e7472616e637947756172643a207265656e7472616e742063616c6c00604482015260640161063e565b6002600155565b6001600160a01b0382166000908152603360205260409020548181101561194b5760405162461bcd60e51b8152602060048201526024808201527f56616c696461746f72506f6f6c3a20696e73756666696369656e742062616c6160448201527f6e63657300000000000000000000000000000000000000000000000000000000606482015260840161063e565b61195582826125e4565b90507f00000000000000000000000000000000000000000000000000000000000000006fffffffffffffffffffffffffffffffff168110801561199c575061199c836117de565b15611aef576036546000906119b3906001906125e4565b90508015611a6b576001600160a01b03841660009081526037602052604081205460368054919291849081106119eb576119eb612738565b600091825260209091200154603680546001600160a01b039092169250829184908110611a1a57611a1a612738565b600091825260208083209190910180547fffffffffffffffffffffffff0000000000000000000000000000000000000000166001600160a01b03948516179055929091168152603790915260409020555b6001600160a01b0384166000908152603760205260408120556036805480611a9557611a95612767565b60008281526020902081017fffffffffffffffffffffffffffffffffffffffffffffffffffffffffffffffff90810180547fffffffffffffffffffffffff0000000000000000000000000000000000000000169055019055505b6001600160a01b0390921660009081526033602052604090209190915550565b600080600080845160208601878a8af19695505050505050565b60018055565b6001600160a01b038216600090815260336020526040812054611b539083906125cc565b90507f00000000000000000000000000000000000000000000000000000000000000006fffffffffffffffffffffffffffffffff168110158015611b9d5750611b9b836117de565b155b15611aef577f00000000000000000000000000000000000000000000000000000000000000006001600160a01b0316836001600160a01b031614611aef57603680546001600160a01b03949094166000818152603760209081526040808320889055600188019094557f4a11f94e20a93c79f6ec743a1954ec4fc2c08429ae2122118bf234b2185c81b890960180547fffffffffffffffffffffffff00000000000000000000000000000000000000001690921790915560339094529092209190915550565b60606000611c708361218a565b600101905060008167ffffffffffffffff811115611c9057611c90612796565b6040519080825280601f01601f191660200182016040528015611cba576020820181803683370190505b5090508181016020015b7fffffffffffffffffffffffffffffffffffffffffffffffffffffffffffffffff017f3031323334353637383961626364656600000000000000000000000000000000600a86061a8153600a8504945084611cc457509392505050565b60355460408051608081018252600080825260208201819052918101829052606081018290529091908290819060005b7f0000000000000000000000000000000000000000000000000000000000000000811015611f1c57600085815260346020526040902080546fffffffffffffffffffffffffffffffff80821696509194507001000000000000000000000000000000009004164210801590611dd857506000846fffffffffffffffffffffffffffffffff16115b15611f1c5760008581526034602052604080822091909155517fa25ae557000000000000000000000000000000000000000000000000000000008152600481018690527f00000000000000000000000000000000000000000000000000000000000000006001600160a01b03169063a25ae55790602401608060405180830381865afa158015611e6c573d6000803e3d6000fd5b505050506040513d601f19601f82011682018060405250810190611e9091906127c5565b9150611eb28260000151856fffffffffffffffffffffffffffffffff16611b2f565b81516040516fffffffffffffffffffffffffffffffff861681526001600160a01b039091169086907f7047a0fb8bfae78c0ebbd4117437945bb85240453235ac4fd2e55712eb5bf0c39060200160405180910390a3611f108261226d565b60019485019401611d51565b8015611f3357505050603591909155506001919050565b60009550505050505090565b600054610100900460ff16611b295760405162461bcd60e51b815260206004820152602b60248201527f496e697469616c697a61626c653a20636f6e7472616374206973206e6f74206960448201527f6e697469616c697a696e67000000000000000000000000000000000000000000606482015260840161063e565b6036548015801590611fd057506000603554115b1561215f5760007f00000000000000000000000000000000000000000000000000000000000000006001600160a01b031663a25ae557600160355461201591906125e4565b6040518263ffffffff1660e01b815260040161203391815260200190565b608060405180830381865afa158015612050573d6000803e3d6000fd5b505050506040513d601f19601f8201168201806040525081019061207491906127c5565b9050600082826020015143414460014361208e91906125e4565b6040805160208101969096528501939093527fffffffffffffffffffffffffffffffffffffffff000000000000000000000000606092831b1691840191909152607483015240609482015260b4016040516020818303038152906040528051906020012060001c6120ff9190612868565b90506036818154811061211457612114612738565b600091825260209091200154603880547fffffffffffffffffffffffff0000000000000000000000000000000000000000166001600160a01b03909216919091179055506106519050565b603880547fffffffffffffffffffffffff000000000000000000000000000000000000000016905550565b6000807a184f03e93ff9f4daa797ed6e38ed64bf6a1f01000000000000000083106121d3577a184f03e93ff9f4daa797ed6e38ed64bf6a1f010000000000000000830492506040015b6d04ee2d6d415b85acef810000000083106121ff576d04ee2d6d415b85acef8100000000830492506020015b662386f26fc10000831061221d57662386f26fc10000830492506010015b6305f5e1008310612235576305f5e100830492506008015b612710831061224957612710830492506004015b6064831061225b576064830492506002015b600a8310612267576001015b92915050565b805160608201516040516001600160a01b037f0000000000000000000000000000000000000000000000000000000000000000169263c30af3889273420000000000000000000000000000000000000892620186a0927f21670f220000000000000000000000000000000000000000000000000000000092612317926024016001600160a01b039290921682526fffffffffffffffffffffffffffffffff16602082015260400190565b604080517fffffffffffffffffffffffffffffffffffffffffffffffffffffffffffffffe08184030181529181526020820180517bffffffffffffffffffffffffffffffffffffffffffffffffffffffff167fffffffff000000000000000000000000000000000000000000000000000000009485161790525160e086901b90921682526123a993929160040161287c565b600060405180830381600087803b1580156123c357600080fd5b505af11580156123d7573d6000803e3d6000fd5b5050505050565b6000602082840312156123f057600080fd5b5035919050565b6001600160a01b038116811461065157600080fd5b60008060006060848603121561242157600080fd5b833592506020840135612433816123f7565b91506040840135612443816123f7565b809150509250925092565b60005b83811015612469578181015183820152602001612451565b838111156113535750506000910152565b6000815180845261249281602086016020860161244e565b601f017fffffffffffffffffffffffffffffffffffffffffffffffffffffffffffffffe0169290920160200192915050565b60208152600061106d602083018461247a565b600080604083850312156124ea57600080fd5b8235915060208301356124fc816123f7565b809150509250929050565b60006020828403121561251957600080fd5b813561106d816123f7565b6fffffffffffffffffffffffffffffffff8116811461065157600080fd5b6000806040838503121561255557600080fd5b8235915060208301356124fc81612524565b60006020828403121561257957600080fd5b815161106d816123f7565b60006020828403121561259657600080fd5b5051919050565b7f4e487b7100000000000000000000000000000000000000000000000000000000600052601160045260246000fd5b600082198211156125df576125df61259d565b500190565b6000828210156125f6576125f661259d565b500390565b6000845161260d81846020890161244e565b80830190507f2e000000000000000000000000000000000000000000000000000000000000008082528551612649816001850160208a0161244e565b6001920191820152835161266481600284016020880161244e565b0160020195945050505050565b60006fffffffffffffffffffffffffffffffff808316818516818304811182151516156126a0576126a061259d565b02949350505050565b7f4e487b7100000000000000000000000000000000000000000000000000000000600052601260045260246000fd5b60006fffffffffffffffffffffffffffffffff808416806126fb576126fb6126a9565b92169190910492915050565b60006fffffffffffffffffffffffffffffffff838116908316818110156127305761273061259d565b039392505050565b7f4e487b7100000000000000000000000000000000000000000000000000000000600052603260045260246000fd5b7f4e487b7100000000000000000000000000000000000000000000000000000000600052603160045260246000fd5b7f4e487b7100000000000000000000000000000000000000000000000000000000600052604160045260246000fd5b6000608082840312156127d757600080fd5b6040516080810181811067ffffffffffffffff82111715612821577f4e487b7100000000000000000000000000000000000000000000000000000000600052604160045260246000fd5b604052825161282f816123f7565b815260208381015190820152604083015161284981612524565b6040820152606083015161285c81612524565b60608201529392505050565b600082612877576128776126a9565b500690565b6001600160a01b038416815267ffffffffffffffff831660208201526060604082015260006128ae606083018461247a565b9594505050505056fea164736f6c634300080f000a",
  "devdoc": {
    "version": 1,
    "kind": "dev",
    "methods": {
      "addPendingBond(uint256,address)": {
        "params": {
          "_challenger": "Address of the challenger.",
          "_outputIndex": "Index of the L2 checkpoint output."
        }
      },
      "balanceOf(address)": {
        "params": {
          "_addr": "Address of validator."
        },
        "returns": {
          "_0": "Balance of given address."
        }
      },
      "constructor": {
        "params": {
          "_l2OutputOracle": "Address of the L2OutputOracle.",
          "_maxUnbond": "The max number of unbonds when trying unbond.",
          "_portal": "Address of the KromaPortal.",
          "_requiredBondAmount": "The required bond amount.",
          "_roundDuration": "The duration of one submission round in seconds.",
          "_securityCouncil": "Address of the security council.",
          "_trustedValidator": "Address of the trusted validator."
        }
      },
      "createBond(uint256,uint128)": {
        "params": {
          "_expiresAt": "The expiration timestamp of bond.",
          "_outputIndex": "Index of the L2 checkpoint output."
        }
      },
      "getBond(uint256)": {
        "params": {
          "_outputIndex": "Index of the L2 checkpoint output."
        },
        "returns": {
          "_0": "The bond data."
        }
      },
      "getPendingBond(uint256,address)": {
        "params": {
          "_challenger": "Address of the challenger.",
          "_outputIndex": "Index of the L2 checkpoint output."
        },
        "returns": {
          "_0": "Amount of the pending bond."
        }
      },
      "increaseBond(uint256,address)": {
        "params": {
          "_challenger": "Address of the challenger.",
          "_outputIndex": "Index of the L2 checkpoint output."
        }
      },
      "isValidator(address)": {
        "params": {
          "_addr": "Address of validator."
        },
        "returns": {
          "_0": "Whether the given address is an active validator."
        }
      },
      "nextValidator()": {
        "returns": {
          "_0": "The address of the validator."
        }
      },
      "releasePendingBond(uint256,address,address)": {
        "params": {
          "_challenger": "Address of the challenger.",
          "_outputIndex": "Index of the L2 checkpoint output.",
          "_recipient": "Address to receive amount from a pending bond."
        }
      },
      "validatorCount()": {
        "returns": {
          "_0": "The number of validators."
        }
      },
      "version()": {
        "returns": {
          "_0": "Semver contract version as a string."
        }
      },
      "withdraw(uint256)": {
        "params": {
          "_amount": "Amount to withdraw."
        }
      }
    },
    "events": {
      "BondIncreased(uint256,address,uint128)": {
        "params": {
          "amount": "Amount of bond increased.",
          "challenger": "Address of the challenger.",
          "outputIndex": "Index of the L2 checkpoint output."
        }
      },
      "Bonded(address,uint256,uint128,uint128)": {
        "params": {
          "amount": "Amount of bonded.",
          "expiresAt": "The expiration timestamp of bond.",
          "outputIndex": "Index of the L2 checkpoint output index.",
          "submitter": "Address of submitter."
        }
      },
      "PendingBondAdded(uint256,address,uint128)": {
        "params": {
          "amount": "Amount of bond added.",
          "challenger": "Address of the challenger.",
          "outputIndex": "Index of the L2 checkpoint output."
        }
      },
      "PendingBondReleased(uint256,address,address,uint128)": {
        "params": {
          "amount": "Amount of bond released.",
          "challenger": "Address of the challenger.",
          "outputIndex": "Index of the L2 checkpoint output.",
          "recipient": "Address to receive amount from a pending bond."
        }
      },
      "Unbonded(uint256,address,uint128)": {
        "params": {
          "amount": "Amount of unbonded.",
          "outputIndex": "Index of the L2 checkpoint output.",
          "recipient": "Address of the recipient."
        }
      }
    }
  },
  "userdoc": {
    "version": 1,
    "kind": "user",
    "methods": {
      "L2_ORACLE()": {
        "notice": "The address of the L2OutputOracle contract. Can be updated via upgrade."
      },
      "MAX_UNBOND()": {
        "notice": "The max number of unbonds when trying unbond."
      },
      "PORTAL()": {
        "notice": "The address of the KromaPortal contract. Can be updated via upgrade."
      },
      "REQUIRED_BOND_AMOUNT()": {
        "notice": "The required bond amount. Can be updated via upgrade."
      },
      "ROUND_DURATION()": {
        "notice": "The duration of a submission round for one output (in seconds).         Note that there are two submission rounds for an output: PRIORITY ROUND and PUBLIC ROUND."
      },
      "SECURITY_COUNCIL()": {
        "notice": "The address of the SecurityCouncil contract. Can be updated via upgrade."
      },
      "TAX_DENOMINATOR()": {
        "notice": "The denominator of the tax."
      },
      "TAX_NUMERATOR()": {
        "notice": "The numerator of the tax."
      },
      "TRUSTED_VALIDATOR()": {
        "notice": "The address of the trusted validator. Can be updated via upgrade."
      },
      "VAULT_REWARD_GAS_LIMIT()": {
        "notice": "The gas limit to use when rewarding validator in the ValidatorRewardVault on L2.         This value is measured through simulation."
      },
      "addPendingBond(uint256,address)": {
        "notice": "Adds a pending bond to the challenge corresponding to the given output index and challenger address.         The pending bond is added to the bond when the challenge is proven or challenger is timed out,         or refunded when the challenge is canceled."
      },
      "balanceOf(address)": {
        "notice": "Returns the balance of given address."
      },
      "createBond(uint256,uint128)": {
        "notice": "Bond asset corresponding to the given output index.         This function is called when submitting output."
      },
      "deposit()": {
        "notice": "Deposit ETH to be used as bond."
      },
      "getBond(uint256)": {
        "notice": "Returns the bond corresponding to the output index. Reverts if the bond does not exist."
      },
      "getPendingBond(uint256,address)": {
        "notice": "Returns the pending bond corresponding to the output index and challenger address.         Reverts if the pending bond does not exist."
      },
      "increaseBond(uint256,address)": {
        "notice": "Increases the bond amount corresponding to the given output index by the pending bond amount.         This is when taxes are charged, and note that taxes are a means of preventing collusive attacks by         the asserter and challenger."
      },
      "initialize()": {
        "notice": "Initializer."
      },
      "isValidator(address)": {
        "notice": "Determines whether the given address is an active validator."
      },
      "nextValidator()": {
        "notice": "Determines who can submit the L2 output next."
      },
      "releasePendingBond(uint256,address,address)": {
        "notice": "Releases the corresponding pending bond to the given output index and challenger address         if a challenge is canceled."
      },
      "unbond()": {
        "notice": "Attempt to unbond. Reverts if unbond is not possible."
      },
      "validatorCount()": {
        "notice": "Returns the number of validators."
      },
      "version()": {
        "notice": "Returns the full semver contract version."
      },
      "withdraw(uint256)": {
        "notice": "Withdraw a given amount."
      }
    },
    "events": {
      "BondIncreased(uint256,address,uint128)": {
        "notice": "Emitted when the bond is increased."
      },
      "Bonded(address,uint256,uint128,uint128)": {
        "notice": "Emitted when a validator bonds."
      },
      "PendingBondAdded(uint256,address,uint128)": {
        "notice": "Emitted when the pending bond is added."
      },
      "PendingBondReleased(uint256,address,address,uint128)": {
        "notice": "Emitted when the pending bond is released(refunded)."
      },
      "Unbonded(uint256,address,uint128)": {
        "notice": "Emitted when a validator unbonds."
      }
    },
    "notice": "The ValidatorPool determines whether the validator is present and manages the validator's deposit."
  },
  "storageLayout": {
    "storage": [
      {
        "astId": 8286,
        "contract": "contracts/L1/ValidatorPool.sol:ValidatorPool",
        "label": "_initialized",
        "offset": 0,
        "slot": "0",
        "type": "t_uint8"
      },
      {
        "astId": 8289,
        "contract": "contracts/L1/ValidatorPool.sol:ValidatorPool",
        "label": "_initializing",
        "offset": 1,
        "slot": "0",
        "type": "t_bool"
      },
      {
        "astId": 8589,
        "contract": "contracts/L1/ValidatorPool.sol:ValidatorPool",
        "label": "_status",
        "offset": 0,
        "slot": "1",
        "type": "t_uint256"
      },
      {
        "astId": 8658,
        "contract": "contracts/L1/ValidatorPool.sol:ValidatorPool",
        "label": "__gap",
        "offset": 0,
        "slot": "2",
        "type": "t_array(t_uint256)49_storage"
      },
      {
        "astId": 2324,
        "contract": "contracts/L1/ValidatorPool.sol:ValidatorPool",
        "label": "balances",
        "offset": 0,
        "slot": "51",
        "type": "t_mapping(t_address,t_uint256)"
      },
      {
        "astId": 2330,
        "contract": "contracts/L1/ValidatorPool.sol:ValidatorPool",
        "label": "bonds",
        "offset": 0,
        "slot": "52",
        "type": "t_mapping(t_uint256,t_struct(Bond)6148_storage)"
      },
      {
        "astId": 2333,
        "contract": "contracts/L1/ValidatorPool.sol:ValidatorPool",
        "label": "nextUnbondOutputIndex",
        "offset": 0,
        "slot": "53",
        "type": "t_uint256"
      },
      {
        "astId": 2337,
        "contract": "contracts/L1/ValidatorPool.sol:ValidatorPool",
        "label": "validators",
        "offset": 0,
        "slot": "54",
        "type": "t_array(t_address)dyn_storage"
      },
      {
        "astId": 2342,
        "contract": "contracts/L1/ValidatorPool.sol:ValidatorPool",
        "label": "validatorIndexes",
        "offset": 0,
        "slot": "55",
        "type": "t_mapping(t_address,t_uint256)"
      },
      {
        "astId": 2345,
        "contract": "contracts/L1/ValidatorPool.sol:ValidatorPool",
        "label": "nextPriorityValidator",
        "offset": 0,
        "slot": "56",
        "type": "t_address"
      },
      {
        "astId": 2352,
        "contract": "contracts/L1/ValidatorPool.sol:ValidatorPool",
        "label": "pendingBonds",
        "offset": 0,
        "slot": "57",
        "type": "t_mapping(t_uint256,t_mapping(t_address,t_uint128))"
      }
    ],
    "types": {
      "t_address": {
        "encoding": "inplace",
        "label": "address",
        "numberOfBytes": "20"
      },
      "t_array(t_address)dyn_storage": {
        "encoding": "dynamic_array",
        "label": "address[]",
        "numberOfBytes": "32",
        "base": "t_address"
      },
      "t_array(t_uint256)49_storage": {
        "encoding": "inplace",
        "label": "uint256[49]",
        "numberOfBytes": "1568",
        "base": "t_uint256"
      },
      "t_bool": {
        "encoding": "inplace",
        "label": "bool",
        "numberOfBytes": "1"
      },
      "t_mapping(t_address,t_uint128)": {
        "encoding": "mapping",
        "key": "t_address",
        "label": "mapping(address => uint128)",
        "numberOfBytes": "32",
        "value": "t_uint128"
      },
      "t_mapping(t_address,t_uint256)": {
        "encoding": "mapping",
        "key": "t_address",
        "label": "mapping(address => uint256)",
        "numberOfBytes": "32",
        "value": "t_uint256"
      },
      "t_mapping(t_uint256,t_mapping(t_address,t_uint128))": {
        "encoding": "mapping",
        "key": "t_uint256",
        "label": "mapping(uint256 => mapping(address => uint128))",
        "numberOfBytes": "32",
        "value": "t_mapping(t_address,t_uint128)"
      },
      "t_mapping(t_uint256,t_struct(Bond)6148_storage)": {
        "encoding": "mapping",
        "key": "t_uint256",
        "label": "mapping(uint256 => struct Types.Bond)",
        "numberOfBytes": "32",
        "value": "t_struct(Bond)6148_storage"
      },
      "t_struct(Bond)6148_storage": {
        "encoding": "inplace",
        "label": "struct Types.Bond",
        "numberOfBytes": "32",
        "members": [
          {
            "astId": 6145,
            "contract": "contracts/L1/ValidatorPool.sol:ValidatorPool",
            "label": "amount",
            "offset": 0,
            "slot": "0",
            "type": "t_uint128"
          },
          {
            "astId": 6147,
            "contract": "contracts/L1/ValidatorPool.sol:ValidatorPool",
            "label": "expiresAt",
            "offset": 16,
            "slot": "0",
            "type": "t_uint128"
          }
        ]
      },
      "t_uint128": {
        "encoding": "inplace",
        "label": "uint128",
        "numberOfBytes": "16"
      },
      "t_uint256": {
        "encoding": "inplace",
        "label": "uint256",
        "numberOfBytes": "32"
      },
      "t_uint8": {
        "encoding": "inplace",
        "label": "uint8",
        "numberOfBytes": "1"
      }
    }
  }
}