{
  "address": "0x58db176bc976f8A27e154d18b049731134efEF02",
  "abi": [
    {
      "type": "constructor",
      "inputs": [
        {
          "name": "_l2OutputOracle",
          "type": "address",
          "internalType": "contract L2OutputOracle"
        },
        {
          "name": "_portal",
          "type": "address",
          "internalType": "contract KromaPortal"
        },
        {
          "name": "_securityCouncil",
          "type": "address",
          "internalType": "address"
        },
        {
          "name": "_trustedValidator",
          "type": "address",
          "internalType": "address"
        },
        {
          "name": "_requiredBondAmount",
          "type": "uint256",
          "internalType": "uint256"
        },
        {
          "name": "_maxUnbond",
          "type": "uint256",
          "internalType": "uint256"
        },
        {
          "name": "_roundDuration",
          "type": "uint256",
          "internalType": "uint256"
        },
        {
          "name": "_terminateOutputIndex",
          "type": "uint256",
          "internalType": "uint256"
        }
      ],
      "stateMutability": "nonpayable"
    },
    {
      "type": "function",
      "name": "L2_ORACLE",
      "inputs": [],
      "outputs": [
        {
          "name": "",
          "type": "address",
          "internalType": "contract L2OutputOracle"
        }
      ],
      "stateMutability": "view"
    },
    {
      "type": "function",
      "name": "MAX_UNBOND",
      "inputs": [],
      "outputs": [
        {
          "name": "",
          "type": "uint256",
          "internalType": "uint256"
        }
      ],
      "stateMutability": "view"
    },
    {
      "type": "function",
      "name": "PORTAL",
      "inputs": [],
      "outputs": [
        {
          "name": "",
          "type": "address",
          "internalType": "contract KromaPortal"
        }
      ],
      "stateMutability": "view"
    },
    {
      "type": "function",
      "name": "REQUIRED_BOND_AMOUNT",
      "inputs": [],
      "outputs": [
        {
          "name": "",
          "type": "uint128",
          "internalType": "uint128"
        }
      ],
      "stateMutability": "view"
    },
    {
      "type": "function",
      "name": "ROUND_DURATION",
      "inputs": [],
      "outputs": [
        {
          "name": "",
          "type": "uint256",
          "internalType": "uint256"
        }
      ],
      "stateMutability": "view"
    },
    {
      "type": "function",
      "name": "SECURITY_COUNCIL",
      "inputs": [],
      "outputs": [
        {
          "name": "",
          "type": "address",
          "internalType": "address"
        }
      ],
      "stateMutability": "view"
    },
    {
      "type": "function",
      "name": "TAX_DENOMINATOR",
      "inputs": [],
      "outputs": [
        {
          "name": "",
          "type": "uint128",
          "internalType": "uint128"
        }
      ],
      "stateMutability": "view"
    },
    {
      "type": "function",
      "name": "TAX_NUMERATOR",
      "inputs": [],
      "outputs": [
        {
          "name": "",
          "type": "uint128",
          "internalType": "uint128"
        }
      ],
      "stateMutability": "view"
    },
    {
      "type": "function",
      "name": "TERMINATE_OUTPUT_INDEX",
      "inputs": [],
      "outputs": [
        {
          "name": "",
          "type": "uint256",
          "internalType": "uint256"
        }
      ],
      "stateMutability": "view"
    },
    {
      "type": "function",
      "name": "TRUSTED_VALIDATOR",
      "inputs": [],
      "outputs": [
        {
          "name": "",
          "type": "address",
          "internalType": "address"
        }
      ],
      "stateMutability": "view"
    },
    {
      "type": "function",
      "name": "VAULT_REWARD_GAS_LIMIT",
      "inputs": [],
      "outputs": [
        {
          "name": "",
          "type": "uint64",
          "internalType": "uint64"
        }
      ],
      "stateMutability": "view"
    },
    {
      "type": "function",
      "name": "addPendingBond",
      "inputs": [
        {
          "name": "_outputIndex",
          "type": "uint256",
          "internalType": "uint256"
        },
        {
          "name": "_challenger",
          "type": "address",
          "internalType": "address"
        }
      ],
      "outputs": [],
      "stateMutability": "nonpayable"
    },
    {
      "type": "function",
      "name": "balanceOf",
      "inputs": [
        {
          "name": "_addr",
          "type": "address",
          "internalType": "address"
        }
      ],
      "outputs": [
        {
          "name": "",
          "type": "uint256",
          "internalType": "uint256"
        }
      ],
      "stateMutability": "view"
    },
    {
      "type": "function",
      "name": "createBond",
      "inputs": [
        {
          "name": "_outputIndex",
          "type": "uint256",
          "internalType": "uint256"
        },
        {
          "name": "_expiresAt",
          "type": "uint128",
          "internalType": "uint128"
        }
      ],
      "outputs": [],
      "stateMutability": "nonpayable"
    },
    {
      "type": "function",
      "name": "deposit",
      "inputs": [],
      "outputs": [],
      "stateMutability": "payable"
    },
    {
      "type": "function",
      "name": "getBond",
      "inputs": [
        {
          "name": "_outputIndex",
          "type": "uint256",
          "internalType": "uint256"
        }
      ],
      "outputs": [
        {
          "name": "",
          "type": "tuple",
          "internalType": "struct Types.Bond",
          "components": [
            {
              "name": "amount",
              "type": "uint128",
              "internalType": "uint128"
            },
            {
              "name": "expiresAt",
              "type": "uint128",
              "internalType": "uint128"
            }
          ]
        }
      ],
      "stateMutability": "view"
    },
    {
      "type": "function",
      "name": "getPendingBond",
      "inputs": [
        {
          "name": "_outputIndex",
          "type": "uint256",
          "internalType": "uint256"
        },
        {
          "name": "_challenger",
          "type": "address",
          "internalType": "address"
        }
      ],
      "outputs": [
        {
          "name": "",
          "type": "uint128",
          "internalType": "uint128"
        }
      ],
      "stateMutability": "view"
    },
    {
      "type": "function",
      "name": "increaseBond",
      "inputs": [
        {
          "name": "_outputIndex",
          "type": "uint256",
          "internalType": "uint256"
        },
        {
          "name": "_challenger",
          "type": "address",
          "internalType": "address"
        }
      ],
      "outputs": [],
      "stateMutability": "nonpayable"
    },
    {
      "type": "function",
      "name": "initialize",
      "inputs": [],
      "outputs": [],
      "stateMutability": "nonpayable"
    },
    {
      "type": "function",
      "name": "isTerminated",
      "inputs": [
        {
          "name": "_outputIndex",
          "type": "uint256",
          "internalType": "uint256"
        }
      ],
      "outputs": [
        {
          "name": "",
          "type": "bool",
          "internalType": "bool"
        }
      ],
      "stateMutability": "view"
    },
    {
      "type": "function",
      "name": "isValidator",
      "inputs": [
        {
          "name": "_addr",
          "type": "address",
          "internalType": "address"
        }
      ],
      "outputs": [
        {
          "name": "",
          "type": "bool",
          "internalType": "bool"
        }
      ],
      "stateMutability": "view"
    },
    {
      "type": "function",
      "name": "nextValidator",
      "inputs": [],
      "outputs": [
        {
          "name": "",
          "type": "address",
          "internalType": "address"
        }
      ],
      "stateMutability": "view"
    },
    {
      "type": "function",
      "name": "releasePendingBond",
      "inputs": [
        {
          "name": "_outputIndex",
          "type": "uint256",
          "internalType": "uint256"
        },
        {
          "name": "_challenger",
          "type": "address",
          "internalType": "address"
        },
        {
          "name": "_recipient",
          "type": "address",
          "internalType": "address"
        }
      ],
      "outputs": [],
      "stateMutability": "nonpayable"
    },
    {
      "type": "function",
      "name": "unbond",
      "inputs": [],
      "outputs": [],
      "stateMutability": "nonpayable"
    },
    {
      "type": "function",
      "name": "validatorCount",
      "inputs": [],
      "outputs": [
        {
          "name": "",
          "type": "uint256",
          "internalType": "uint256"
        }
      ],
      "stateMutability": "view"
    },
    {
      "type": "function",
      "name": "version",
      "inputs": [],
      "outputs": [
        {
          "name": "",
          "type": "string",
          "internalType": "string"
        }
      ],
      "stateMutability": "view"
    },
    {
      "type": "function",
      "name": "withdraw",
      "inputs": [
        {
          "name": "_amount",
          "type": "uint256",
          "internalType": "uint256"
        }
      ],
      "outputs": [],
      "stateMutability": "nonpayable"
    },
    {
      "type": "function",
      "name": "withdrawTo",
      "inputs": [
        {
          "name": "_to",
          "type": "address",
          "internalType": "address"
        },
        {
          "name": "_amount",
          "type": "uint256",
          "internalType": "uint256"
        }
      ],
      "outputs": [],
      "stateMutability": "nonpayable"
    },
    {
      "type": "event",
      "name": "BondIncreased",
      "inputs": [
        {
          "name": "outputIndex",
          "type": "uint256",
          "indexed": true,
          "internalType": "uint256"
        },
        {
          "name": "challenger",
          "type": "address",
          "indexed": true,
          "internalType": "address"
        },
        {
          "name": "amount",
          "type": "uint128",
          "indexed": false,
          "internalType": "uint128"
        }
      ],
      "anonymous": false
    },
    {
      "type": "event",
      "name": "Bonded",
      "inputs": [
        {
          "name": "submitter",
          "type": "address",
          "indexed": true,
          "internalType": "address"
        },
        {
          "name": "outputIndex",
          "type": "uint256",
          "indexed": true,
          "internalType": "uint256"
        },
        {
          "name": "amount",
          "type": "uint128",
          "indexed": false,
          "internalType": "uint128"
        },
        {
          "name": "expiresAt",
          "type": "uint128",
          "indexed": false,
          "internalType": "uint128"
        }
      ],
      "anonymous": false
    },
    {
      "type": "event",
      "name": "Initialized",
      "inputs": [
        {
          "name": "version",
          "type": "uint8",
          "indexed": false,
          "internalType": "uint8"
        }
      ],
      "anonymous": false
    },
    {
      "type": "event",
      "name": "PendingBondAdded",
      "inputs": [
        {
          "name": "outputIndex",
          "type": "uint256",
          "indexed": true,
          "internalType": "uint256"
        },
        {
          "name": "challenger",
          "type": "address",
          "indexed": true,
          "internalType": "address"
        },
        {
          "name": "amount",
          "type": "uint128",
          "indexed": false,
          "internalType": "uint128"
        }
      ],
      "anonymous": false
    },
    {
      "type": "event",
      "name": "PendingBondReleased",
      "inputs": [
        {
          "name": "outputIndex",
          "type": "uint256",
          "indexed": true,
          "internalType": "uint256"
        },
        {
          "name": "challenger",
          "type": "address",
          "indexed": true,
          "internalType": "address"
        },
        {
          "name": "recipient",
          "type": "address",
          "indexed": true,
          "internalType": "address"
        },
        {
          "name": "amount",
          "type": "uint128",
          "indexed": false,
          "internalType": "uint128"
        }
      ],
      "anonymous": false
    },
    {
      "type": "event",
      "name": "Unbonded",
      "inputs": [
        {
          "name": "outputIndex",
          "type": "uint256",
          "indexed": true,
          "internalType": "uint256"
        },
        {
          "name": "recipient",
          "type": "address",
          "indexed": true,
          "internalType": "address"
        },
        {
          "name": "amount",
          "type": "uint128",
          "indexed": false,
          "internalType": "uint128"
        }
      ],
      "anonymous": false
    }
  ],
  "transactionHash": "0x6a5d76bc7d8b49396d482c788a7ddc7a54ed7f4b88a8b3186afbdabe351045fb",
  "args": [
    "0x7291913342063fd10d31651735BAF3877D2F9645",
    "0x31ab8eD993A3BE9Aa2757C7D368Dc87101A868a4",
    "0x7F0DECbef4FdD0193b7d5c8Cc918C1A69d3eF78C",
    "0xc2da150ecfaa2e275577203bb177dd4de4a2536e",
    "0x16345785d8a0000",
    10,
    300,
    "0x1F9A5"
  ],
  "numDeployments": 3,
  "solcInputHash": "6271f6f40156b835b824d3aeb153efe1",
  "bytecode": "0x6101806040523480156200001257600080fd5b5060405162002d3f38038062002d3f833981016040819052620000359162000256565b6001600160a01b0380891660805287811660a05286811660c052851660e0526001600160801b038416610100526101208390526101608190526101408290526200007e6200008c565b5050505050505050620002e5565b600054610100900460ff1615808015620000ad5750600054600160ff909116105b80620000dd5750620000ca30620001be60201b62001a6f1760201c565b158015620000dd575060005460ff166001145b620001465760405162461bcd60e51b815260206004820152602e60248201527f496e697469616c697a61626c653a20636f6e747261637420697320616c72656160448201526d191e481a5b9a5d1a585b1a5e995960921b60648201526084015b60405180910390fd5b6000805460ff1916600117905580156200016a576000805461ff0019166101001790555b62000174620001cd565b8015620001bb576000805461ff0019169055604051600181527f7f26b83ff96e1f2b6a682f133852f6798a09c465da95921460cefb38474024989060200160405180910390a15b50565b6001600160a01b03163b151590565b600054610100900460ff166200023a5760405162461bcd60e51b815260206004820152602b60248201527f496e697469616c697a61626c653a20636f6e7472616374206973206e6f74206960448201526a6e697469616c697a696e6760a81b60648201526084016200013d565b60018055565b6001600160a01b0381168114620001bb57600080fd5b600080600080600080600080610100898b0312156200027457600080fd5b8851620002818162000240565b60208a0151909850620002948162000240565b60408a0151909750620002a78162000240565b60608a0151909650620002ba8162000240565b60808a015160a08b015160c08c015160e0909c01519a9d999c50979a91999098919650945092505050565b60805160a05160c05160e0516101005161012051610140516101605161294c620003f36000396000818161030701528181610568015261114d01526000818161040f0152610b8d0152600081816104e40152611eaf0152600081816105ad01528181610db401528181610e3501528181611497015281816114cf01528181611b730152611d710152600081816103500152610bd80152600081816102b3015281816119850152611dbe01526000818161023d015261238d0152600081816101cd0152818161086d01528181610af401528181610bfc01528181611175015281816112a50152818161141c0152818161169401528181611f79015281816120b201526121c8015261294c6000f3fe6080604052600436106101b65760003560e01c806370a08231116100ec578063ad36d6cc1161008a578063d38dc7ee11610064578063d38dc7ee146105d7578063d8fe7642146105f7578063dd215c5d14610647578063facd743b1461066757600080fd5b8063ad36d6cc1461054b578063b7d636a51461059b578063d0e30db0146105cf57600080fd5b80638f09ade4116100c65780638f09ade4146104b2578063946765fd146104d2578063a51c9ace14610506578063ab91f1901461051b57600080fd5b806370a08231146104315780638129fc1c1461046757806382dae3aa1461047c57600080fd5b806339111af81161015957806354fd4d501161013357806354fd4d50146103725780635a544742146103c85780635df6a6bc146103e85780636641ea08146103fd57600080fd5b806339111af8146102f55780633a549046146103295780633ee4d4a31461033e57600080fd5b8063205c287811610195578063205c28781461025f5780632e1a7d4d1461028157806336086417146102a157806336b83469146102d557600080fd5b80621c2ff6146101bb5780630f43a6771461020c5780630ff754ea1461022b575b600080fd5b3480156101c757600080fd5b506101ef7f000000000000000000000000000000000000000000000000000000000000000081565b6040516001600160a01b0390911681526020015b60405180910390f35b34801561021857600080fd5b506036545b604051908152602001610203565b34801561023757600080fd5b506101ef7f000000000000000000000000000000000000000000000000000000000000000081565b34801561026b57600080fd5b5061027f61027a3660046124ff565b610687565b005b34801561028d57600080fd5b5061027f61029c36600461252b565b6107ba565b3480156102ad57600080fd5b506101ef7f000000000000000000000000000000000000000000000000000000000000000081565b3480156102e157600080fd5b5061027f6102f0366004612544565b61086b565b34801561030157600080fd5b5061021d7f000000000000000000000000000000000000000000000000000000000000000081565b34801561033557600080fd5b506101ef610adc565b34801561034a57600080fd5b506101ef7f000000000000000000000000000000000000000000000000000000000000000081565b34801561037e57600080fd5b506103bb6040518060400160405280600581526020017f312e312e3000000000000000000000000000000000000000000000000000000081525081565b60405161020391906125f1565b3480156103d457600080fd5b5061027f6103e3366004612604565b610bfa565b3480156103f457600080fd5b5061027f610ea3565b34801561040957600080fd5b5061021d7f000000000000000000000000000000000000000000000000000000000000000081565b34801561043d57600080fd5b5061021d61044c366004612634565b6001600160a01b031660009081526033602052604090205490565b34801561047357600080fd5b5061027f610f22565b34801561048857600080fd5b50610491601481565b6040516fffffffffffffffffffffffffffffffff9091168152602001610203565b3480156104be57600080fd5b506104916104cd366004612604565b611099565b3480156104de57600080fd5b5061021d7f000000000000000000000000000000000000000000000000000000000000000081565b34801561051257600080fd5b50610491606481565b34801561052757600080fd5b50610532620186a081565b60405167ffffffffffffffff9091168152602001610203565b34801561055757600080fd5b5061058b61056636600461252b565b7f00000000000000000000000000000000000000000000000000000000000000001090565b6040519015158152602001610203565b3480156105a757600080fd5b506104917f000000000000000000000000000000000000000000000000000000000000000081565b61027f611148565b3480156105e357600080fd5b5061027f6105f236600461266f565b61129a565b34801561060357600080fd5b5061061761061236600461252b565b611573565b6040805182516fffffffffffffffffffffffffffffffff9081168252602093840151169281019290925201610203565b34801561065357600080fd5b5061027f610662366004612604565b611692565b34801561067357600080fd5b5061058b610682366004612634565b6119f8565b61068f611a7e565b6001600160a01b0382166107105760405162461bcd60e51b815260206004820152603260248201527f56616c696461746f72506f6f6c3a2063616e6e6f74207769746864726177207460448201527f6f20746865207a65726f2061646472657373000000000000000000000000000060648201526084015b60405180910390fd5b61071a3382611ad7565b6000610737835a8460405180602001604052806000815250611d29565b9050806107ac5760405162461bcd60e51b815260206004820152602260248201527f56616c696461746f72506f6f6c3a20455448207472616e73666572206661696c60448201527f65640000000000000000000000000000000000000000000000000000000000006064820152608401610707565b506107b660018055565b5050565b6107c2611a7e565b6107cc3382611ad7565b60006107e9335a8460405180602001604052806000815250611d29565b90508061085e5760405162461bcd60e51b815260206004820152602260248201527f56616c696461746f72506f6f6c3a20455448207472616e73666572206661696c60448201527f65640000000000000000000000000000000000000000000000000000000000006064820152608401610707565b5061086860018055565b50565b7f00000000000000000000000000000000000000000000000000000000000000006001600160a01b0316639e45e8f46040518163ffffffff1660e01b8152600401602060405180830381865afa1580156108c9573d6000803e3d6000fd5b505050506040513d601f19601f820116820180604052508101906108ed9190612694565b6001600160a01b0316336001600160a01b0316146109735760405162461bcd60e51b815260206004820152602660248201527f56616c696461746f72506f6f6c3a2073656e646572206973206e6f7420436f6c60448201527f6f737365756d00000000000000000000000000000000000000000000000000006064820152608401610707565b60008381526039602090815260408083206001600160a01b03861684529091529020546fffffffffffffffffffffffffffffffff1680610a1b5760405162461bcd60e51b815260206004820152602e60248201527f56616c696461746f72506f6f6c3a207468652070656e64696e6720626f6e642060448201527f646f6573206e6f742065786973740000000000000000000000000000000000006064820152608401610707565b60008481526039602090815260408083206001600160a01b0387168452909152902080547fffffffffffffffffffffffffffffffff00000000000000000000000000000000169055610a7f826fffffffffffffffffffffffffffffffff8316611d49565b6040516fffffffffffffffffffffffffffffffff821681526001600160a01b03808416919085169086907f8c95336a279406edcc768d685e8eb6667368a77d840a188144b8e3719423198f9060200160405180910390a450505050565b6038546000906001600160a01b031615610bd55760007f00000000000000000000000000000000000000000000000000000000000000006001600160a01b03166380446bd26040518163ffffffff1660e01b8152600401602060405180830381865afa158015610b50573d6000803e3d6000fd5b505050506040513d601f19601f82011682018060405250810190610b7491906126b1565b9050804210610bc4576000610b8982426126f9565b90507f0000000000000000000000000000000000000000000000000000000000000000811115610bc2576001600160a01b039250505090565b505b50506038546001600160a01b031690565b507f000000000000000000000000000000000000000000000000000000000000000090565b7f00000000000000000000000000000000000000000000000000000000000000006001600160a01b0316639e45e8f46040518163ffffffff1660e01b8152600401602060405180830381865afa158015610c58573d6000803e3d6000fd5b505050506040513d601f19601f82011682018060405250810190610c7c9190612694565b6001600160a01b0316336001600160a01b031614610d025760405162461bcd60e51b815260206004820152602660248201527f56616c696461746f72506f6f6c3a2073656e646572206973206e6f7420436f6c60448201527f6f737365756d00000000000000000000000000000000000000000000000000006064820152608401610707565b60008281526034602052604090208054427001000000000000000000000000000000009091046fffffffffffffffffffffffffffffffff161015610dae5760405162461bcd60e51b815260206004820152602e60248201527f56616c696461746f72506f6f6c3a20746865206f757470757420697320616c7260448201527f656164792066696e616c697a65640000000000000000000000000000000000006064820152608401610707565b610dea827f00000000000000000000000000000000000000000000000000000000000000006fffffffffffffffffffffffffffffffff16611ad7565b60008381526039602090815260408083206001600160a01b0386168085529083529281902080547fffffffffffffffffffffffffffffffff00000000000000000000000000000000167f00000000000000000000000000000000000000000000000000000000000000006fffffffffffffffffffffffffffffffff16908117909155905190815285917f2904258f32adf74dd8f23ad6f17ff50209896039c8ee3d4728ff55bd05c4cf2a910160405180910390a3505050565b6000610ead611e7d565b9050806108685760405162461bcd60e51b815260206004820152602960248201527f56616c696461746f72506f6f6c3a206e6f20626f6e6420746861742063616e2060448201527f626520756e626f6e6400000000000000000000000000000000000000000000006064820152608401610707565b600054610100900460ff1615808015610f425750600054600160ff909116105b80610f5c5750303b158015610f5c575060005460ff166001145b610fce5760405162461bcd60e51b815260206004820152602e60248201527f496e697469616c697a61626c653a20636f6e747261637420697320616c72656160448201527f647920696e697469616c697a65640000000000000000000000000000000000006064820152608401610707565b600080547fffffffffffffffffffffffffffffffffffffffffffffffffffffffffffffff00166001179055801561102c57600080547fffffffffffffffffffffffffffffffffffffffffffffffffffffffffffff00ff166101001790555b61103461212e565b801561086857600080547fffffffffffffffffffffffffffffffffffffffffffffffffffffffffffff00ff169055604051600181527f7f26b83ff96e1f2b6a682f133852f6798a09c465da95921460cefb38474024989060200160405180910390a150565b60008281526039602090815260408083206001600160a01b03851684529091528120546fffffffffffffffffffffffffffffffff16806111415760405162461bcd60e51b815260206004820152602e60248201527f56616c696461746f72506f6f6c3a207468652070656e64696e6720626f6e642060448201527f646f6573206e6f742065786973740000000000000000000000000000000000006064820152608401610707565b9392505050565b6111737f00000000000000000000000000000000000000000000000000000000000000006001612710565b7f00000000000000000000000000000000000000000000000000000000000000006001600160a01b0316636abcf5636040518163ffffffff1660e01b8152600401602060405180830381865afa1580156111d1573d6000803e3d6000fd5b505050506040513d601f19601f820116820180604052508101906111f591906126b1565b1061128e5760405162461bcd60e51b815260206004820152604260248201527f56616c696461746f72506f6f6c3a206f6e6c792063616e206465706f7369742060448201527f746f2056616c696461746f72506f6f6c206265666f7265207465726d696e617460648201527f6564000000000000000000000000000000000000000000000000000000000000608482015260a401610707565b6112983334611d49565b565b336001600160a01b037f000000000000000000000000000000000000000000000000000000000000000016146113385760405162461bcd60e51b815260206004820152602b60248201527f56616c696461746f72506f6f6c3a2073656e646572206973206e6f74204c324f60448201527f75747075744f7261636c650000000000000000000000000000000000000000006064820152608401610707565b6000828152603460205260409020805470010000000000000000000000000000000090046fffffffffffffffffffffffffffffffff16156113e15760405162461bcd60e51b815260206004820152603c60248201527f56616c696461746f72506f6f6c3a20626f6e64206f662074686520676976656e60448201527f206f757470757420696e64657820616c726561647920657869737473000000006064820152608401610707565b6113e9611e7d565b506040517fb0ea09a8000000000000000000000000000000000000000000000000000000008152600481018490526000907f00000000000000000000000000000000000000000000000000000000000000006001600160a01b03169063b0ea09a890602401602060405180830381865afa15801561146b573d6000803e3d6000fd5b505050506040513d601f19601f8201168201806040525081019061148f9190612694565b90506114cd817f00000000000000000000000000000000000000000000000000000000000000006fffffffffffffffffffffffffffffffff16611ad7565b7f00000000000000000000000000000000000000000000000000000000000000006fffffffffffffffffffffffffffffffff9081167001000000000000000000000000000000009185169182028117845560408051918252602082019290925285916001600160a01b038416917f5ca130257b8f76f72ad2965efcbe166f3918d820e4a49956e70081ea311f97c4910160405180910390a361156d6121ab565b50505050565b6040805180820190915260008082526020820152600082815260346020526040902080546fffffffffffffffffffffffffffffffff16158015906115dd5750805470010000000000000000000000000000000090046fffffffffffffffffffffffffffffffff1615155b61164f5760405162461bcd60e51b815260206004820152602660248201527f56616c696461746f72506f6f6c3a2074686520626f6e6420646f6573206e6f7460448201527f20657869737400000000000000000000000000000000000000000000000000006064820152608401610707565b6040805180820190915290546fffffffffffffffffffffffffffffffff808216835270010000000000000000000000000000000090910416602082015292915050565b7f00000000000000000000000000000000000000000000000000000000000000006001600160a01b0316639e45e8f46040518163ffffffff1660e01b8152600401602060405180830381865afa1580156116f0573d6000803e3d6000fd5b505050506040513d601f19601f820116820180604052508101906117149190612694565b6001600160a01b0316336001600160a01b03161461179a5760405162461bcd60e51b815260206004820152602660248201527f56616c696461746f72506f6f6c3a2073656e646572206973206e6f7420436f6c60448201527f6f737365756d00000000000000000000000000000000000000000000000000006064820152608401610707565b60008281526034602052604090208054427001000000000000000000000000000000009091046fffffffffffffffffffffffffffffffff1610156118465760405162461bcd60e51b815260206004820152602e60248201527f56616c696461746f72506f6f6c3a20746865206f757470757420697320616c7260448201527f656164792066696e616c697a65640000000000000000000000000000000000006064820152608401610707565b60008381526039602090815260408083206001600160a01b03861684529091529020546fffffffffffffffffffffffffffffffff16806118ee5760405162461bcd60e51b815260206004820152602e60248201527f56616c696461746f72506f6f6c3a207468652070656e64696e6720626f6e642060448201527f646f6573206e6f742065786973740000000000000000000000000000000000006064820152608401610707565b600060646118fd601484612728565b611907919061278f565b9050600061191582846127be565b60008781526039602090815260408083206001600160a01b038a811680865291845282852080547fffffffffffffffffffffffffffffffff000000000000000000000000000000009081169091558a549081166fffffffffffffffffffffffffffffffff91821688018216178b557f00000000000000000000000000000000000000000000000000000000000000009091168552603384529382902080548886160190559051928416835292935088917f383f9b8b5a1fc2ec555726eb895621a312042e18b764135fa12ef1a520ad30db910160405180910390a3505050505050565b6036546000908103611a0c57506000919050565b6001600160a01b038216611a2257506000919050565b6001600160a01b0382166000818152603760205260409020546036805491929183908110611a5257611a526127ef565b6000918252602090912001546001600160a01b0316149392505050565b6001600160a01b03163b151590565b600260015403611ad05760405162461bcd60e51b815260206004820152601f60248201527f5265656e7472616e637947756172643a207265656e7472616e742063616c6c006044820152606401610707565b6002600155565b6001600160a01b03821660009081526033602052604090205481811015611b655760405162461bcd60e51b8152602060048201526024808201527f56616c696461746f72506f6f6c3a20696e73756666696369656e742062616c6160448201527f6e636573000000000000000000000000000000000000000000000000000000006064820152608401610707565b611b6f82826126f9565b90507f00000000000000000000000000000000000000000000000000000000000000006fffffffffffffffffffffffffffffffff1681108015611bb65750611bb6836119f8565b15611d0957603654600090611bcd906001906126f9565b90508015611c85576001600160a01b0384166000908152603760205260408120546036805491929184908110611c0557611c056127ef565b600091825260209091200154603680546001600160a01b039092169250829184908110611c3457611c346127ef565b600091825260208083209190910180547fffffffffffffffffffffffff0000000000000000000000000000000000000000166001600160a01b03948516179055929091168152603790915260409020555b6001600160a01b0384166000908152603760205260408120556036805480611caf57611caf61281e565b60008281526020902081017fffffffffffffffffffffffffffffffffffffffffffffffffffffffffffffffff90810180547fffffffffffffffffffffffff0000000000000000000000000000000000000000169055019055505b6001600160a01b0390921660009081526033602052604090209190915550565b600080600080845160208601878a8af19695505050505050565b60018055565b6001600160a01b038216600090815260336020526040812054611d6d908390612710565b90507f00000000000000000000000000000000000000000000000000000000000000006fffffffffffffffffffffffffffffffff168110158015611db75750611db5836119f8565b155b15611d09577f00000000000000000000000000000000000000000000000000000000000000006001600160a01b0316836001600160a01b031614611d0957603680546001600160a01b03949094166000818152603760209081526040808320889055600188019094557f4a11f94e20a93c79f6ec743a1954ec4fc2c08429ae2122118bf234b2185c81b890960180547fffffffffffffffffffffffff00000000000000000000000000000000000000001690921790915560339094529092209190915550565b60355460408051608081018252600080825260208201819052918101829052606081018290529091908290819060005b7f000000000000000000000000000000000000000000000000000000000000000081101561207857600085815260346020526040902080546fffffffffffffffffffffffffffffffff80821696509194507001000000000000000000000000000000009004164210801590611f3457506000846fffffffffffffffffffffffffffffffff16115b156120785760008581526034602052604080822091909155517fa25ae557000000000000000000000000000000000000000000000000000000008152600481018690527f00000000000000000000000000000000000000000000000000000000000000006001600160a01b03169063a25ae55790602401608060405180830381865afa158015611fc8573d6000803e3d6000fd5b505050506040513d601f19601f82011682018060405250810190611fec919061284d565b915061200e8260000151856fffffffffffffffffffffffffffffffff16611d49565b81516040516fffffffffffffffffffffffffffffffff861681526001600160a01b039091169086907f7047a0fb8bfae78c0ebbd4117437945bb85240453235ac4fd2e55712eb5bf0c39060200160405180910390a361206c82612379565b60019485019401611ead565b80156121225760358590556040517f9902cdc0000000000000000000000000000000000000000000000000000000008152600481018690527f00000000000000000000000000000000000000000000000000000000000000006001600160a01b031690639902cdc090602401600060405180830381600087803b1580156120fe57600080fd5b505af1158015612112573d6000803e3d6000fd5b5050505060019550505050505090565b60009550505050505090565b600054610100900460ff16611d435760405162461bcd60e51b815260206004820152602b60248201527f496e697469616c697a61626c653a20636f6e7472616374206973206e6f74206960448201527f6e697469616c697a696e670000000000000000000000000000000000000000006064820152608401610707565b60365480158015906121bf57506000603554115b1561234e5760007f00000000000000000000000000000000000000000000000000000000000000006001600160a01b031663a25ae557600160355461220491906126f9565b6040518263ffffffff1660e01b815260040161222291815260200190565b608060405180830381865afa15801561223f573d6000803e3d6000fd5b505050506040513d601f19601f82011682018060405250810190612263919061284d565b9050600082826020015143414460014361227d91906126f9565b6040805160208101969096528501939093527fffffffffffffffffffffffffffffffffffffffff000000000000000000000000606092831b1691840191909152607483015240609482015260b4016040516020818303038152906040528051906020012060001c6122ee91906128f0565b905060368181548110612303576123036127ef565b600091825260209091200154603880547fffffffffffffffffffffffff0000000000000000000000000000000000000000166001600160a01b03909216919091179055506108689050565b603880547fffffffffffffffffffffffff000000000000000000000000000000000000000016905550565b805160608201516040516001600160a01b037f0000000000000000000000000000000000000000000000000000000000000000169263c30af3889273420000000000000000000000000000000000000892620186a0927f21670f220000000000000000000000000000000000000000000000000000000092612423926024016001600160a01b039290921682526fffffffffffffffffffffffffffffffff16602082015260400190565b604080517fffffffffffffffffffffffffffffffffffffffffffffffffffffffffffffffe08184030181529181526020820180517bffffffffffffffffffffffffffffffffffffffffffffffffffffffff167fffffffff000000000000000000000000000000000000000000000000000000009485161790525160e086901b90921682526124b5939291600401612904565b600060405180830381600087803b1580156124cf57600080fd5b505af11580156124e3573d6000803e3d6000fd5b5050505050565b6001600160a01b038116811461086857600080fd5b6000806040838503121561251257600080fd5b823561251d816124ea565b946020939093013593505050565b60006020828403121561253d57600080fd5b5035919050565b60008060006060848603121561255957600080fd5b83359250602084013561256b816124ea565b9150604084013561257b816124ea565b809150509250925092565b6000815180845260005b818110156125ac57602081850181015186830182015201612590565b818111156125be576000602083870101525b50601f017fffffffffffffffffffffffffffffffffffffffffffffffffffffffffffffffe0169290920160200192915050565b6020815260006111416020830184612586565b6000806040838503121561261757600080fd5b823591506020830135612629816124ea565b809150509250929050565b60006020828403121561264657600080fd5b8135611141816124ea565b6fffffffffffffffffffffffffffffffff8116811461086857600080fd5b6000806040838503121561268257600080fd5b82359150602083013561262981612651565b6000602082840312156126a657600080fd5b8151611141816124ea565b6000602082840312156126c357600080fd5b5051919050565b7f4e487b7100000000000000000000000000000000000000000000000000000000600052601160045260246000fd5b60008282101561270b5761270b6126ca565b500390565b60008219821115612723576127236126ca565b500190565b60006fffffffffffffffffffffffffffffffff80831681851681830481118215151615612757576127576126ca565b02949350505050565b7f4e487b7100000000000000000000000000000000000000000000000000000000600052601260045260246000fd5b60006fffffffffffffffffffffffffffffffff808416806127b2576127b2612760565b92169190910492915050565b60006fffffffffffffffffffffffffffffffff838116908316818110156127e7576127e76126ca565b039392505050565b7f4e487b7100000000000000000000000000000000000000000000000000000000600052603260045260246000fd5b7f4e487b7100000000000000000000000000000000000000000000000000000000600052603160045260246000fd5b60006080828403121561285f57600080fd5b6040516080810181811067ffffffffffffffff821117156128a9577f4e487b7100000000000000000000000000000000000000000000000000000000600052604160045260246000fd5b60405282516128b7816124ea565b81526020838101519082015260408301516128d181612651565b604082015260608301516128e481612651565b60608201529392505050565b6000826128ff576128ff612760565b500690565b6001600160a01b038416815267ffffffffffffffff831660208201526060604082015260006129366060830184612586565b9594505050505056fea164736f6c634300080f000a",
  "devdoc": {
    "version": 1,
    "kind": "dev",
    "methods": {
      "addPendingBond(uint256,address)": {
        "params": {
          "_challenger": "Address of the challenger.",
          "_outputIndex": "Index of the L2 checkpoint output."
        }
      },
      "balanceOf(address)": {
        "params": {
          "_addr": "Address of validator."
        },
        "returns": {
          "_0": "Balance of given address."
        }
      },
      "constructor": {
        "params": {
          "_l2OutputOracle": "Address of the L2OutputOracle.",
          "_maxUnbond": "The max number of unbonds when trying unbond.",
          "_portal": "Address of the KromaPortal.",
          "_requiredBondAmount": "The required bond amount.",
          "_roundDuration": "The duration of one submission round in seconds.",
          "_securityCouncil": "Address of the security council.",
          "_terminateOutputIndex": "The output index where ValidatorPool is terminated after.",
          "_trustedValidator": "Address of the trusted validator."
        }
      },
      "createBond(uint256,uint128)": {
        "params": {
          "_expiresAt": "The expiration timestamp of bond.",
          "_outputIndex": "Index of the L2 checkpoint output."
        }
      },
      "getBond(uint256)": {
        "params": {
          "_outputIndex": "Index of the L2 checkpoint output."
        },
        "returns": {
          "_0": "The bond data."
        }
      },
      "getPendingBond(uint256,address)": {
        "params": {
          "_challenger": "Address of the challenger.",
          "_outputIndex": "Index of the L2 checkpoint output."
        },
        "returns": {
          "_0": "Amount of the pending bond."
        }
      },
      "increaseBond(uint256,address)": {
        "params": {
          "_challenger": "Address of the challenger.",
          "_outputIndex": "Index of the L2 checkpoint output."
        }
      },
      "isTerminated(uint256)": {
        "params": {
          "_outputIndex": "Index of the L2 checkpoint output."
        },
        "returns": {
          "_0": "Whether the given output index must not interact with ValidatorPool."
        }
      },
      "isValidator(address)": {
        "params": {
          "_addr": "Address of validator."
        },
        "returns": {
          "_0": "Whether the given address is an active validator."
        }
      },
      "nextValidator()": {
        "returns": {
          "_0": "The address of the validator."
        }
      },
      "releasePendingBond(uint256,address,address)": {
        "params": {
          "_challenger": "Address of the challenger.",
          "_outputIndex": "Index of the L2 checkpoint output.",
          "_recipient": "Address to receive amount from a pending bond."
        }
      },
      "validatorCount()": {
        "returns": {
          "_0": "The number of validators."
        }
      },
      "withdraw(uint256)": {
        "params": {
          "_amount": "Amount to withdraw."
        }
      },
      "withdrawTo(address,uint256)": {
        "params": {
          "_amount": "Amount to withdraw.",
          "_to": "Address to withdraw asset to."
        }
      }
    },
    "events": {
      "BondIncreased(uint256,address,uint128)": {
        "params": {
          "amount": "Amount of bond increased.",
          "challenger": "Address of the challenger.",
          "outputIndex": "Index of the L2 checkpoint output."
        }
      },
      "Bonded(address,uint256,uint128,uint128)": {
        "params": {
          "amount": "Amount of bonded.",
          "expiresAt": "The expiration timestamp of bond.",
          "outputIndex": "Index of the L2 checkpoint output index.",
          "submitter": "Address of submitter."
        }
      },
      "PendingBondAdded(uint256,address,uint128)": {
        "params": {
          "amount": "Amount of bond added.",
          "challenger": "Address of the challenger.",
          "outputIndex": "Index of the L2 checkpoint output."
        }
      },
      "PendingBondReleased(uint256,address,address,uint128)": {
        "params": {
          "amount": "Amount of bond released.",
          "challenger": "Address of the challenger.",
          "outputIndex": "Index of the L2 checkpoint output.",
          "recipient": "Address to receive amount from a pending bond."
        }
      },
      "Unbonded(uint256,address,uint128)": {
        "params": {
          "amount": "Amount of unbonded.",
          "outputIndex": "Index of the L2 checkpoint output.",
          "recipient": "Address of the recipient."
        }
      }
    }
  },
  "userdoc": {
    "version": 1,
    "kind": "user",
    "methods": {
      "L2_ORACLE()": {
        "notice": "The address of the L2OutputOracle contract. Can be updated via upgrade."
      },
      "MAX_UNBOND()": {
        "notice": "The max number of unbonds when trying unbond."
      },
      "PORTAL()": {
        "notice": "The address of the KromaPortal contract. Can be updated via upgrade."
      },
      "REQUIRED_BOND_AMOUNT()": {
        "notice": "The required bond amount. Can be updated via upgrade."
      },
      "ROUND_DURATION()": {
        "notice": "The duration of a submission round for one output (in seconds).         Note that there are two submission rounds for an output: PRIORITY ROUND and PUBLIC ROUND."
      },
      "SECURITY_COUNCIL()": {
        "notice": "The address of the SecurityCouncil contract. Can be updated via upgrade."
      },
      "TAX_DENOMINATOR()": {
        "notice": "The denominator of the tax."
      },
      "TAX_NUMERATOR()": {
        "notice": "The numerator of the tax."
      },
      "TERMINATE_OUTPUT_INDEX()": {
        "notice": "The output index where ValidatorPool is terminated after. Validator system is         upgraded to ValidatorManager."
      },
      "TRUSTED_VALIDATOR()": {
        "notice": "The address of the trusted validator. Can be updated via upgrade."
      },
      "VAULT_REWARD_GAS_LIMIT()": {
        "notice": "The gas limit to use when rewarding validator in the ValidatorRewardVault on L2.         This value is measured through simulation."
      },
      "addPendingBond(uint256,address)": {
        "notice": "Adds a pending bond to the challenge corresponding to the given output index and challenger address.         The pending bond is added to the bond when the challenge is proven or challenger is timed out,         or refunded when the challenge is canceled."
      },
      "balanceOf(address)": {
        "notice": "Returns the balance of given address."
      },
      "constructor": {
        "notice": "Constructs the ValidatorPool contract."
      },
      "createBond(uint256,uint128)": {
        "notice": "Bond asset corresponding to the given output index.         This function is called when submitting output."
      },
      "deposit()": {
        "notice": "Deposit ETH to be used as bond. Note that deposit after termination is not allowed."
      },
      "getBond(uint256)": {
        "notice": "Returns the bond corresponding to the output index. Reverts if the bond does not exist."
      },
      "getPendingBond(uint256,address)": {
        "notice": "Returns the pending bond corresponding to the output index and challenger address.         Reverts if the pending bond does not exist."
      },
      "increaseBond(uint256,address)": {
        "notice": "Increases the bond amount corresponding to the given output index by the pending bond amount.         This is when taxes are charged, and note that taxes are a means of preventing collusive attacks by         the asserter and challenger."
      },
      "initialize()": {
        "notice": "Initializer."
      },
      "isTerminated(uint256)": {
        "notice": "Determines whether the given output index must not interact with ValidatorPool."
      },
      "isValidator(address)": {
        "notice": "Determines whether the given address is an active validator."
      },
      "nextValidator()": {
        "notice": "Determines who can submit the L2 output next."
      },
      "releasePendingBond(uint256,address,address)": {
        "notice": "Releases the corresponding pending bond to the given output index and challenger address         if a challenge is canceled."
      },
      "unbond()": {
        "notice": "Attempt to unbond. Reverts if unbond is not possible."
      },
      "validatorCount()": {
        "notice": "Returns the number of validators."
      },
      "version()": {
        "notice": "Semantic version."
      },
      "withdraw(uint256)": {
        "notice": "Withdraw a given amount."
      },
      "withdrawTo(address,uint256)": {
        "notice": "Withdraw a given amount."
      }
    },
    "events": {
      "BondIncreased(uint256,address,uint128)": {
        "notice": "Emitted when the bond is increased."
      },
      "Bonded(address,uint256,uint128,uint128)": {
        "notice": "Emitted when a validator bonds."
      },
      "PendingBondAdded(uint256,address,uint128)": {
        "notice": "Emitted when the pending bond is added."
      },
      "PendingBondReleased(uint256,address,address,uint128)": {
        "notice": "Emitted when the pending bond is released(refunded)."
      },
      "Unbonded(uint256,address,uint128)": {
        "notice": "Emitted when a validator unbonds."
      }
    },
    "notice": "The ValidatorPool determines whether the validator is present and manages the validator's deposit."
  },
  "storageLayout": {
    "storage": [
      {
        "astId": 88860,
        "contract": "contracts/L1/ValidatorPool.sol:ValidatorPool",
        "label": "_initialized",
        "offset": 0,
        "slot": "0",
        "type": "t_uint8"
      },
      {
        "astId": 88863,
        "contract": "contracts/L1/ValidatorPool.sol:ValidatorPool",
        "label": "_initializing",
        "offset": 1,
        "slot": "0",
        "type": "t_bool"
      },
      {
        "astId": 89163,
        "contract": "contracts/L1/ValidatorPool.sol:ValidatorPool",
        "label": "_status",
        "offset": 0,
        "slot": "1",
        "type": "t_uint256"
      },
      {
        "astId": 89232,
        "contract": "contracts/L1/ValidatorPool.sol:ValidatorPool",
        "label": "__gap",
        "offset": 0,
        "slot": "2",
        "type": "t_array(t_uint256)49_storage"
      },
      {
        "astId": 8570,
        "contract": "contracts/L1/ValidatorPool.sol:ValidatorPool",
        "label": "balances",
        "offset": 0,
        "slot": "51",
        "type": "t_mapping(t_address,t_uint256)"
      },
      {
        "astId": 8576,
        "contract": "contracts/L1/ValidatorPool.sol:ValidatorPool",
        "label": "bonds",
        "offset": 0,
        "slot": "52",
        "type": "t_mapping(t_uint256,t_struct(Bond)24544_storage)"
      },
      {
        "astId": 8579,
        "contract": "contracts/L1/ValidatorPool.sol:ValidatorPool",
        "label": "nextUnbondOutputIndex",
        "offset": 0,
        "slot": "53",
        "type": "t_uint256"
      },
      {
        "astId": 8583,
        "contract": "contracts/L1/ValidatorPool.sol:ValidatorPool",
        "label": "validators",
        "offset": 0,
        "slot": "54",
        "type": "t_array(t_address)dyn_storage"
      },
      {
        "astId": 8588,
        "contract": "contracts/L1/ValidatorPool.sol:ValidatorPool",
        "label": "validatorIndexes",
        "offset": 0,
        "slot": "55",
        "type": "t_mapping(t_address,t_uint256)"
      },
      {
        "astId": 8591,
        "contract": "contracts/L1/ValidatorPool.sol:ValidatorPool",
        "label": "nextPriorityValidator",
        "offset": 0,
        "slot": "56",
        "type": "t_address"
      },
      {
        "astId": 8598,
        "contract": "contracts/L1/ValidatorPool.sol:ValidatorPool",
        "label": "pendingBonds",
        "offset": 0,
        "slot": "57",
        "type": "t_mapping(t_uint256,t_mapping(t_address,t_uint128))"
      }
    ],
    "types": {
      "t_address": {
        "encoding": "inplace",
        "label": "address",
        "numberOfBytes": "20"
      },
      "t_array(t_address)dyn_storage": {
        "encoding": "dynamic_array",
        "label": "address[]",
        "numberOfBytes": "32",
        "base": "t_address"
      },
      "t_array(t_uint256)49_storage": {
        "encoding": "inplace",
        "label": "uint256[49]",
        "numberOfBytes": "1568",
        "base": "t_uint256"
      },
      "t_bool": {
        "encoding": "inplace",
        "label": "bool",
        "numberOfBytes": "1"
      },
      "t_mapping(t_address,t_uint128)": {
        "encoding": "mapping",
        "key": "t_address",
        "label": "mapping(address => uint128)",
        "numberOfBytes": "32",
        "value": "t_uint128"
      },
      "t_mapping(t_address,t_uint256)": {
        "encoding": "mapping",
        "key": "t_address",
        "label": "mapping(address => uint256)",
        "numberOfBytes": "32",
        "value": "t_uint256"
      },
      "t_mapping(t_uint256,t_mapping(t_address,t_uint128))": {
        "encoding": "mapping",
        "key": "t_uint256",
        "label": "mapping(uint256 => mapping(address => uint128))",
        "numberOfBytes": "32",
        "value": "t_mapping(t_address,t_uint128)"
      },
      "t_mapping(t_uint256,t_struct(Bond)24544_storage)": {
        "encoding": "mapping",
        "key": "t_uint256",
        "label": "mapping(uint256 => struct Types.Bond)",
        "numberOfBytes": "32",
        "value": "t_struct(Bond)24544_storage"
      },
      "t_struct(Bond)24544_storage": {
        "encoding": "inplace",
        "label": "struct Types.Bond",
        "numberOfBytes": "32",
        "members": [
          {
            "astId": 24541,
            "contract": "contracts/L1/ValidatorPool.sol:ValidatorPool",
            "label": "amount",
            "offset": 0,
            "slot": "0",
            "type": "t_uint128"
          },
          {
            "astId": 24543,
            "contract": "contracts/L1/ValidatorPool.sol:ValidatorPool",
            "label": "expiresAt",
            "offset": 16,
            "slot": "0",
            "type": "t_uint128"
          }
        ]
      },
      "t_uint128": {
        "encoding": "inplace",
        "label": "uint128",
        "numberOfBytes": "16"
      },
      "t_uint256": {
        "encoding": "inplace",
        "label": "uint256",
        "numberOfBytes": "32"
      },
      "t_uint8": {
        "encoding": "inplace",
        "label": "uint8",
        "numberOfBytes": "1"
      }
    }
  }
}