{
  "address": "0x7B7093674b0c018935859078b717B113598DFd3A",
  "abi": [
    {
      "type": "constructor",
      "inputs": [
        {
          "name": "_constructorParams",
          "type": "tuple",
          "internalType": "struct IValidatorManager.ConstructorParams",
          "components": [
            {
              "name": "_l2Oracle",
              "type": "address",
              "internalType": "contract L2OutputOracle"
            },
            {
              "name": "_assetManager",
              "type": "address",
              "internalType": "contract AssetManager"
            },
            {
              "name": "_trustedValidator",
              "type": "address",
              "internalType": "address"
            },
            {
              "name": "_commissionChangeDelaySeconds",
              "type": "uint128",
              "internalType": "uint128"
            },
            {
              "name": "_roundDurationSeconds",
              "type": "uint128",
              "internalType": "uint128"
            },
            {
              "name": "_softJailPeriodSeconds",
              "type": "uint128",
              "internalType": "uint128"
            },
            {
              "name": "_hardJailPeriodSeconds",
              "type": "uint128",
              "internalType": "uint128"
            },
            {
              "name": "_jailThreshold",
              "type": "uint128",
              "internalType": "uint128"
            },
            {
              "name": "_maxOutputFinalizations",
              "type": "uint128",
              "internalType": "uint128"
            },
            {
              "name": "_baseReward",
              "type": "uint128",
              "internalType": "uint128"
            },
            {
              "name": "_minRegisterAmount",
              "type": "uint128",
              "internalType": "uint128"
            },
            {
              "name": "_minActivateAmount",
              "type": "uint128",
              "internalType": "uint128"
            },
            {
              "name": "_mptFirstOutputIndex",
              "type": "uint256",
              "internalType": "uint256"
            }
          ]
        }
      ],
      "stateMutability": "nonpayable"
    },
    {
      "type": "function",
      "name": "ASSET_MANAGER",
      "inputs": [],
      "outputs": [
        {
          "name": "",
          "type": "address",
          "internalType": "contract AssetManager"
        }
      ],
      "stateMutability": "view"
    },
    {
      "type": "function",
      "name": "BASE_REWARD",
      "inputs": [],
      "outputs": [
        {
          "name": "",
          "type": "uint128",
          "internalType": "uint128"
        }
      ],
      "stateMutability": "view"
    },
    {
      "type": "function",
      "name": "BOOSTED_REWARD_DENOM",
      "inputs": [],
      "outputs": [
        {
          "name": "",
          "type": "uint128",
          "internalType": "uint128"
        }
      ],
      "stateMutability": "view"
    },
    {
      "type": "function",
      "name": "BOOSTED_REWARD_NUMERATOR",
      "inputs": [],
      "outputs": [
        {
          "name": "",
          "type": "uint128",
          "internalType": "uint128"
        }
      ],
      "stateMutability": "view"
    },
    {
      "type": "function",
      "name": "COMMISSION_CHANGE_DELAY_SECONDS",
      "inputs": [],
      "outputs": [
        {
          "name": "",
          "type": "uint128",
          "internalType": "uint128"
        }
      ],
      "stateMutability": "view"
    },
    {
      "type": "function",
      "name": "COMMISSION_RATE_DENOM",
      "inputs": [],
      "outputs": [
        {
          "name": "",
          "type": "uint128",
          "internalType": "uint128"
        }
      ],
      "stateMutability": "view"
    },
    {
      "type": "function",
      "name": "HARD_JAIL_PERIOD_SECONDS",
      "inputs": [],
      "outputs": [
        {
          "name": "",
          "type": "uint128",
          "internalType": "uint128"
        }
      ],
      "stateMutability": "view"
    },
    {
      "type": "function",
      "name": "JAIL_THRESHOLD",
      "inputs": [],
      "outputs": [
        {
          "name": "",
          "type": "uint128",
          "internalType": "uint128"
        }
      ],
      "stateMutability": "view"
    },
    {
      "type": "function",
      "name": "L2_ORACLE",
      "inputs": [],
      "outputs": [
        {
          "name": "",
          "type": "address",
          "internalType": "contract L2OutputOracle"
        }
      ],
      "stateMutability": "view"
    },
    {
      "type": "function",
      "name": "MAX_OUTPUT_FINALIZATIONS",
      "inputs": [],
      "outputs": [
        {
          "name": "",
          "type": "uint128",
          "internalType": "uint128"
        }
      ],
      "stateMutability": "view"
    },
    {
      "type": "function",
      "name": "MIN_ACTIVATE_AMOUNT",
      "inputs": [],
      "outputs": [
        {
          "name": "",
          "type": "uint128",
          "internalType": "uint128"
        }
      ],
      "stateMutability": "view"
    },
    {
      "type": "function",
      "name": "MIN_REGISTER_AMOUNT",
      "inputs": [],
      "outputs": [
        {
          "name": "",
          "type": "uint128",
          "internalType": "uint128"
        }
      ],
      "stateMutability": "view"
    },
    {
      "type": "function",
      "name": "MPT_FIRST_OUTPUT_INDEX",
      "inputs": [],
      "outputs": [
        {
          "name": "",
          "type": "uint256",
          "internalType": "uint256"
        }
      ],
      "stateMutability": "view"
    },
    {
      "type": "function",
      "name": "ROUND_DURATION_SECONDS",
      "inputs": [],
      "outputs": [
        {
          "name": "",
          "type": "uint128",
          "internalType": "uint128"
        }
      ],
      "stateMutability": "view"
    },
    {
      "type": "function",
      "name": "SOFT_JAIL_PERIOD_SECONDS",
      "inputs": [],
      "outputs": [
        {
          "name": "",
          "type": "uint128",
          "internalType": "uint128"
        }
      ],
      "stateMutability": "view"
    },
    {
      "type": "function",
      "name": "TRUSTED_VALIDATOR",
      "inputs": [],
      "outputs": [
        {
          "name": "",
          "type": "address",
          "internalType": "address"
        }
      ],
      "stateMutability": "view"
    },
    {
      "type": "function",
      "name": "activateValidator",
      "inputs": [],
      "outputs": [],
      "stateMutability": "nonpayable"
    },
    {
      "type": "function",
      "name": "activatedValidatorCount",
      "inputs": [],
      "outputs": [
        {
          "name": "",
          "type": "uint32",
          "internalType": "uint32"
        }
      ],
      "stateMutability": "view"
    },
    {
      "type": "function",
      "name": "activatedValidatorTotalWeight",
      "inputs": [],
      "outputs": [
        {
          "name": "",
          "type": "uint120",
          "internalType": "uint120"
        }
      ],
      "stateMutability": "view"
    },
    {
      "type": "function",
      "name": "afterSubmitL2Output",
      "inputs": [
        {
          "name": "outputIndex",
          "type": "uint256",
          "internalType": "uint256"
        }
      ],
      "outputs": [],
      "stateMutability": "nonpayable"
    },
    {
      "type": "function",
      "name": "bondValidatorKro",
      "inputs": [
        {
          "name": "validator",
          "type": "address",
          "internalType": "address"
        }
      ],
      "outputs": [],
      "stateMutability": "nonpayable"
    },
    {
      "type": "function",
      "name": "canFinalizeCommissionChangeAt",
      "inputs": [
        {
          "name": "validator",
          "type": "address",
          "internalType": "address"
        }
      ],
      "outputs": [
        {
          "name": "",
          "type": "uint128",
          "internalType": "uint128"
        }
      ],
      "stateMutability": "view"
    },
    {
      "type": "function",
      "name": "checkChallengeEligibility",
      "inputs": [
        {
          "name": "outputIndex",
          "type": "uint256",
          "internalType": "uint256"
        }
      ],
      "outputs": [],
      "stateMutability": "view"
    },
    {
      "type": "function",
      "name": "checkSubmissionEligibility",
      "inputs": [
        {
          "name": "validator",
          "type": "address",
          "internalType": "address"
        }
      ],
      "outputs": [],
      "stateMutability": "view"
    },
    {
      "type": "function",
      "name": "finalizeCommissionChange",
      "inputs": [],
      "outputs": [],
      "stateMutability": "nonpayable"
    },
    {
      "type": "function",
      "name": "getCommissionRate",
      "inputs": [
        {
          "name": "validator",
          "type": "address",
          "internalType": "address"
        }
      ],
      "outputs": [
        {
          "name": "",
          "type": "uint8",
          "internalType": "uint8"
        }
      ],
      "stateMutability": "view"
    },
    {
      "type": "function",
      "name": "getPendingCommissionRate",
      "inputs": [
        {
          "name": "validator",
          "type": "address",
          "internalType": "address"
        }
      ],
      "outputs": [
        {
          "name": "",
          "type": "uint8",
          "internalType": "uint8"
        }
      ],
      "stateMutability": "view"
    },
    {
      "type": "function",
      "name": "getStatus",
      "inputs": [
        {
          "name": "validator",
          "type": "address",
          "internalType": "address"
        }
      ],
      "outputs": [
        {
          "name": "",
          "type": "uint8",
          "internalType": "enum IValidatorManager.ValidatorStatus"
        }
      ],
      "stateMutability": "view"
    },
    {
      "type": "function",
      "name": "getWeight",
      "inputs": [
        {
          "name": "validator",
          "type": "address",
          "internalType": "address"
        }
      ],
      "outputs": [
        {
          "name": "",
          "type": "uint120",
          "internalType": "uint120"
        }
      ],
      "stateMutability": "view"
    },
    {
      "type": "function",
      "name": "inJail",
      "inputs": [
        {
          "name": "validator",
          "type": "address",
          "internalType": "address"
        }
      ],
      "outputs": [
        {
          "name": "",
          "type": "bool",
          "internalType": "bool"
        }
      ],
      "stateMutability": "view"
    },
    {
      "type": "function",
      "name": "initCommissionChange",
      "inputs": [
        {
          "name": "newCommissionRate",
          "type": "uint8",
          "internalType": "uint8"
        }
      ],
      "outputs": [],
      "stateMutability": "nonpayable"
    },
    {
      "type": "function",
      "name": "isActive",
      "inputs": [
        {
          "name": "validator",
          "type": "address",
          "internalType": "address"
        }
      ],
      "outputs": [
        {
          "name": "",
          "type": "bool",
          "internalType": "bool"
        }
      ],
      "stateMutability": "view"
    },
    {
      "type": "function",
      "name": "jailExpiresAt",
      "inputs": [
        {
          "name": "validator",
          "type": "address",
          "internalType": "address"
        }
      ],
      "outputs": [
        {
          "name": "",
          "type": "uint128",
          "internalType": "uint128"
        }
      ],
      "stateMutability": "view"
    },
    {
      "type": "function",
      "name": "nextValidator",
      "inputs": [],
      "outputs": [
        {
          "name": "",
          "type": "address",
          "internalType": "address"
        }
      ],
      "stateMutability": "view"
    },
    {
      "type": "function",
      "name": "noSubmissionCount",
      "inputs": [
        {
          "name": "validator",
          "type": "address",
          "internalType": "address"
        }
      ],
      "outputs": [
        {
          "name": "",
          "type": "uint8",
          "internalType": "uint8"
        }
      ],
      "stateMutability": "view"
    },
    {
      "type": "function",
      "name": "registerValidator",
      "inputs": [
        {
          "name": "assets",
          "type": "uint128",
          "internalType": "uint128"
        },
        {
          "name": "commissionRate",
          "type": "uint8",
          "internalType": "uint8"
        },
        {
          "name": "withdrawAccount",
          "type": "address",
          "internalType": "address"
        }
      ],
      "outputs": [],
      "stateMutability": "nonpayable"
    },
    {
      "type": "function",
      "name": "revertSlash",
      "inputs": [
        {
          "name": "outputIndex",
          "type": "uint256",
          "internalType": "uint256"
        },
        {
          "name": "loser",
          "type": "address",
          "internalType": "address"
        }
      ],
      "outputs": [],
      "stateMutability": "nonpayable"
    },
    {
      "type": "function",
      "name": "slash",
      "inputs": [
        {
          "name": "outputIndex",
          "type": "uint256",
          "internalType": "uint256"
        },
        {
          "name": "winner",
          "type": "address",
          "internalType": "address"
        },
        {
          "name": "loser",
          "type": "address",
          "internalType": "address"
        }
      ],
      "outputs": [],
      "stateMutability": "nonpayable"
    },
    {
      "type": "function",
      "name": "tryActivateValidator",
      "inputs": [
        {
          "name": "validator",
          "type": "address",
          "internalType": "address"
        }
      ],
      "outputs": [],
      "stateMutability": "nonpayable"
    },
    {
      "type": "function",
      "name": "tryUnjail",
      "inputs": [],
      "outputs": [],
      "stateMutability": "nonpayable"
    },
    {
      "type": "function",
      "name": "unbondValidatorKro",
      "inputs": [
        {
          "name": "validator",
          "type": "address",
          "internalType": "address"
        }
      ],
      "outputs": [],
      "stateMutability": "nonpayable"
    },
    {
      "type": "function",
      "name": "updateValidatorTree",
      "inputs": [
        {
          "name": "validator",
          "type": "address",
          "internalType": "address"
        },
        {
          "name": "tryRemove",
          "type": "bool",
          "internalType": "bool"
        }
      ],
      "outputs": [],
      "stateMutability": "nonpayable"
    },
    {
      "type": "function",
      "name": "version",
      "inputs": [],
      "outputs": [
        {
          "name": "",
          "type": "string",
          "internalType": "string"
        }
      ],
      "stateMutability": "view"
    },
    {
      "type": "event",
      "name": "ChallengeRewardDistributed",
      "inputs": [
        {
          "name": "outputIndex",
          "type": "uint256",
          "indexed": true,
          "internalType": "uint256"
        },
        {
          "name": "recipient",
          "type": "address",
          "indexed": true,
          "internalType": "address"
        },
        {
          "name": "amount",
          "type": "uint128",
          "indexed": false,
          "internalType": "uint128"
        }
      ],
      "anonymous": false
    },
    {
      "type": "event",
      "name": "RewardDistributed",
      "inputs": [
        {
          "name": "outputIndex",
          "type": "uint256",
          "indexed": true,
          "internalType": "uint256"
        },
        {
          "name": "validator",
          "type": "address",
          "indexed": true,
          "internalType": "address"
        },
        {
          "name": "validatorReward",
          "type": "uint128",
          "indexed": false,
          "internalType": "uint128"
        },
        {
          "name": "baseReward",
          "type": "uint128",
          "indexed": false,
          "internalType": "uint128"
        },
        {
          "name": "boostedReward",
          "type": "uint128",
          "indexed": false,
          "internalType": "uint128"
        }
      ],
      "anonymous": false
    },
    {
      "type": "event",
      "name": "SlashReverted",
      "inputs": [
        {
          "name": "outputIndex",
          "type": "uint256",
          "indexed": true,
          "internalType": "uint256"
        },
        {
          "name": "loser",
          "type": "address",
          "indexed": true,
          "internalType": "address"
        },
        {
          "name": "amount",
          "type": "uint128",
          "indexed": false,
          "internalType": "uint128"
        }
      ],
      "anonymous": false
    },
    {
      "type": "event",
      "name": "Slashed",
      "inputs": [
        {
          "name": "outputIndex",
          "type": "uint256",
          "indexed": true,
          "internalType": "uint256"
        },
        {
          "name": "loser",
          "type": "address",
          "indexed": true,
          "internalType": "address"
        },
        {
          "name": "amount",
          "type": "uint128",
          "indexed": false,
          "internalType": "uint128"
        }
      ],
      "anonymous": false
    },
    {
      "type": "event",
      "name": "ValidatorActivated",
      "inputs": [
        {
          "name": "validator",
          "type": "address",
          "indexed": true,
          "internalType": "address"
        },
        {
          "name": "activatedAt",
          "type": "uint256",
          "indexed": false,
          "internalType": "uint256"
        }
      ],
      "anonymous": false
    },
    {
      "type": "event",
      "name": "ValidatorCommissionChangeFinalized",
      "inputs": [
        {
          "name": "validator",
          "type": "address",
          "indexed": true,
          "internalType": "address"
        },
        {
          "name": "oldCommissionRate",
          "type": "uint8",
          "indexed": false,
          "internalType": "uint8"
        },
        {
          "name": "newCommissionRate",
          "type": "uint8",
          "indexed": false,
          "internalType": "uint8"
        }
      ],
      "anonymous": false
    },
    {
      "type": "event",
      "name": "ValidatorCommissionChangeInitiated",
      "inputs": [
        {
          "name": "validator",
          "type": "address",
          "indexed": true,
          "internalType": "address"
        },
        {
          "name": "oldCommissionRate",
          "type": "uint8",
          "indexed": false,
          "internalType": "uint8"
        },
        {
          "name": "newCommissionRate",
          "type": "uint8",
          "indexed": false,
          "internalType": "uint8"
        }
      ],
      "anonymous": false
    },
    {
      "type": "event",
      "name": "ValidatorJailed",
      "inputs": [
        {
          "name": "validator",
          "type": "address",
          "indexed": true,
          "internalType": "address"
        },
        {
          "name": "expiresAt",
          "type": "uint128",
          "indexed": false,
          "internalType": "uint128"
        }
      ],
      "anonymous": false
    },
    {
      "type": "event",
      "name": "ValidatorRegistered",
      "inputs": [
        {
          "name": "validator",
          "type": "address",
          "indexed": true,
          "internalType": "address"
        },
        {
          "name": "activated",
          "type": "bool",
          "indexed": false,
          "internalType": "bool"
        },
        {
          "name": "commissionRate",
          "type": "uint8",
          "indexed": false,
          "internalType": "uint8"
        },
        {
          "name": "assets",
          "type": "uint128",
          "indexed": false,
          "internalType": "uint128"
        }
      ],
      "anonymous": false
    },
    {
      "type": "event",
      "name": "ValidatorStopped",
      "inputs": [
        {
          "name": "validator",
          "type": "address",
          "indexed": true,
          "internalType": "address"
        },
        {
          "name": "stopsAt",
          "type": "uint256",
          "indexed": false,
          "internalType": "uint256"
        }
      ],
      "anonymous": false
    },
    {
      "type": "event",
      "name": "ValidatorUnjailed",
      "inputs": [
        {
          "name": "validator",
          "type": "address",
          "indexed": true,
          "internalType": "address"
        }
      ],
      "anonymous": false
    },
    {
      "type": "error",
      "name": "ImproperValidatorStatus",
      "inputs": []
    },
    {
      "type": "error",
      "name": "InsufficientAsset",
      "inputs": []
    },
    {
      "type": "error",
      "name": "InvalidConstructorParams",
      "inputs": []
    },
    {
      "type": "error",
      "name": "MaxCommissionRateExceeded",
      "inputs": []
    },
    {
      "type": "error",
      "name": "MptFirstOutputRestricted",
      "inputs": []
    },
    {
      "type": "error",
      "name": "NotAllowedCaller",
      "inputs": []
    },
    {
      "type": "error",
      "name": "NotElapsedCommissionChangeDelay",
      "inputs": []
    },
    {
      "type": "error",
      "name": "NotElapsedJailPeriod",
      "inputs": []
    },
    {
      "type": "error",
      "name": "NotInitiatedCommissionChange",
      "inputs": []
    },
    {
      "type": "error",
      "name": "NotSelectedPriorityValidator",
      "inputs": []
    },
    {
      "type": "error",
      "name": "SameCommissionRate",
      "inputs": []
    }
  ],
  "transactionHash": "0x0e4a9269a3fb05fd6fc48a11ad995bd250fe4384e0050d4ddadc34e8831d24bd",
  "args": [
    {
      "_l2Oracle": "0x7291913342063fd10d31651735BAF3877D2F9645",
      "_assetManager": "0x5E9c8dB8f0aE21eA23eF53893dE2474E07D1CD91",
      "_trustedValidator": "0xc2da150ecfaa2e275577203bb177dd4de4a2536e",
      "_commissionChangeDelaySeconds": 43200,
      "_roundDurationSeconds": 300,
      "_softJailPeriodSeconds": 7200,
      "_hardJailPeriodSeconds": 21600,
      "_jailThreshold": 2,
      "_maxOutputFinalizations": 10,
      "_baseReward": "0x3782DACE9D900000",
      "_minRegisterAmount": "0x56BC75E2D63100000",
      "_minActivateAmount": "0x56BC75E2D63100000",
      "_mptFirstOutputIndex": "0x24230"
    }
  ],
  "numDeployments": 2,
  "solcInputHash": "9e0b1e1e73ac46b8a3d915d840fa123d",
  "bytecode": "0x6102206040523480156200001257600080fd5b50604051620060fc380380620060fc833981016040819052620000359162000184565b8061016001516001600160801b03168161014001516001600160801b031611156200007357604051631510b77f60e01b815260040160405180910390fd5b80516001600160a01b0390811660809081526020830151821660a0908152604084015190921660c0908152610140808501516001600160801b0390811660e0908152610160808801518316610100908152606089015184166101209081529689015184169094529587015182169095529185015182166101809081529385015182166101a05284015181166101c05290830151166101e05201516102005262000298565b6040516101a081016001600160401b03811182821017156200014957634e487b7160e01b600052604160045260246000fd5b60405290565b80516001600160a01b03811681146200016757600080fd5b919050565b80516001600160801b03811681146200016757600080fd5b60006101a082840312156200019857600080fd5b620001a262000117565b620001ad836200014f565b8152620001bd602084016200014f565b6020820152620001d0604084016200014f565b6040820152620001e3606084016200016c565b6060820152620001f6608084016200016c565b60808201526200020960a084016200016c565b60a08201526200021c60c084016200016c565b60c08201526200022f60e084016200016c565b60e0820152610100620002448185016200016c565b90820152610120620002588482016200016c565b908201526101406200026c8482016200016c565b90820152610160620002808482016200016c565b90820152610180928301519281019290925250919050565b60805160a05160c05160e05161010051610120516101405161016051610180516101a0516101c0516101e05161020051615c38620004c46000396000818161057901528181610d2c01526110670152600081816103a301528181614f0c01528181614f7701528181614fb9015261545f0152600081816108b60152612f3501526000818161045b015261348801526000818161040d01528181611eaa01526137d501526000818161081901526137fb015260008181610482015261115e01526000818161061f0152818161179a015261203801526000818161075701528181610b3e0152610efa01526000818161037c015281816109730152610de50152600081816104340152818161108e01526111bb01526000818161055201528181610acd01528181610e1901528181610f2e015281816112d8015281816116ac01528181611c2001528181611d56015281816121c8015281816123630152818161255d0152818161265f0152818161274f0152818161314c0152818161328201528181614e6a01528181615045015281816150ee01526153da0152600081816102f201528181610c5f01528181610fe5015281816110c5015281816114a0015281816115aa01528181611b1e01528181611c51015281816120880152818161211a0152818161225e0152818161243501528181612d2a01528181612db001528181612e3401528181612fba01528181613061015281816133e10152818161358501526136390152615c386000f3fe608060405234801561001057600080fd5b50600436106102e85760003560e01c80638c1516c711610191578063b91b2723116100e3578063cdff5e1911610097578063e0cc26a211610071578063e0cc26a21461086c578063e428c2f41461089e578063e7816b7f146108b157600080fd5b8063cdff5e19146107f7578063daec677014610814578063dff221b51461083b57600080fd5b8063be119347116100c8578063be1193471461078c578063be995dc21461079f578063c26148fe146107b257600080fd5b8063b91b27231461036f578063bde022bb1461077957600080fd5b8063a3433d0711610145578063ac6c52511161011f578063ac6c52511461068d578063af6ca76214610702578063b2653fe31461075257600080fd5b8063a3433d0714610654578063a838717214610667578063ab04b8aa1461067a57600080fd5b8063970531c111610176578063970531c1146105df5780639e449b021461061a5780639f8a13d71461064157600080fd5b80638c1516c7146105c4578063943e4005146105d757600080fd5b80633ca830451161024a57806356b65e97116101fe5780636fd48520116101d85780636fd48520146105745780637d2243b4146105a9578063891aab74146105b157600080fd5b806356b65e97146104ed5780635bab847f1461053a5780636874e0421461054d57600080fd5b806342223ae91161022f57806342223ae9146104565780634cca5e6c1461047d57806354fd4d50146104a457600080fd5b80633ca83045146104085780633ee4d4a31461042f57600080fd5b806322009af6116102a15780632afe548d116102865780632afe548d146103cd57806330ccebb5146103e05780633a5490461461040057600080fd5b806322009af61461039e578063263a3402146103c557600080fd5b80630763fa7e116102d25780630763fa7e14610346578063110d60691461036f5780631796e52e1461037757600080fd5b80621c2ff6146102ed578063065643ea14610331575b600080fd5b6103147f000000000000000000000000000000000000000000000000000000000000000081565b6040516001600160a01b0390911681526020015b60405180910390f35b61034461033f3660046157bc565b6108d8565b005b61034e602881565b6040516fffffffffffffffffffffffffffffffff9091168152602001610328565b61034e606481565b61034e7f000000000000000000000000000000000000000000000000000000000000000081565b61034e7f000000000000000000000000000000000000000000000000000000000000000081565b610344610bd2565b6103446103db366004615805565b610c5d565b6103f36103ee36600461581e565b610d85565b604051610328919061586a565b610314610fe1565b61034e7f000000000000000000000000000000000000000000000000000000000000000081565b6103147f000000000000000000000000000000000000000000000000000000000000000081565b61034e7f000000000000000000000000000000000000000000000000000000000000000081565b61034e7f000000000000000000000000000000000000000000000000000000000000000081565b6104e06040518060400160405280600581526020017f312e302e3000000000000000000000000000000000000000000000000000000081525081565b60405161032891906158ab565b61052a6104fb36600461581e565b6001600160a01b03166000908152600560205260409020546fffffffffffffffffffffffffffffffff16151590565b6040519015158152602001610328565b61034461054836600461592c565b6111dd565b6103147f000000000000000000000000000000000000000000000000000000000000000081565b61059b7f000000000000000000000000000000000000000000000000000000000000000081565b604051908152602001610328565b610344611352565b6103446105bf36600461581e565b611495565b6103446105d236600461581e565b6115a8565b61034461170c565b61034e6105ed36600461581e565b6001600160a01b03166000908152600560205260409020546fffffffffffffffffffffffffffffffff1690565b61034e7f000000000000000000000000000000000000000000000000000000000000000081565b61052a61064f36600461581e565b61191d565b610344610662366004615965565b611950565b61034461067536600461581e565b611b1c565b610344610688366004615980565b611c4f565b6106e261069b36600461581e565b6001600160a01b031660009081526003602090815260408083205463ffffffff168352600290915290206001015461010090046effffffffffffffffffffffffffffff1690565b6040516effffffffffffffffffffffffffffff9091168152602001610328565b6001805468010000000000000000900463ffffffff166000908152600260205260409020015470010000000000000000000000000000000090046effffffffffffffffffffffffffffff166106e2565b61034e7f000000000000000000000000000000000000000000000000000000000000000081565b61034e61078736600461581e565b612019565b61034461079a366004615805565b61207d565b6103446107ad3660046159a5565b61225c565b6107e56107c036600461581e565b6001600160a01b03166000908152600460205260409020546301000000900460ff1690565b60405160ff9091168152602001610328565b6107ff61262f565b60405163ffffffff9091168152602001610328565b61034e7f000000000000000000000000000000000000000000000000000000000000000081565b6107e561084936600461581e565b6001600160a01b0316600090815260046020526040902054610100900460ff1690565b6107e561087a36600461581e565b6001600160a01b031660009081526004602052604090205462010000900460ff1690565b6103446108ac36600461581e565b612654565b61034e7f000000000000000000000000000000000000000000000000000000000000000081565b333b1515806108e75750333214155b1561091e576040517f9d02a7c200000000000000000000000000000000000000000000000000000000815260040160405180910390fd5b600061092933610d85565b600581111561093a5761093a61583b565b14610971576040517f197299a000000000000000000000000000000000000000000000000000000000815260040160405180910390fd5b7f00000000000000000000000000000000000000000000000000000000000000006fffffffffffffffffffffffffffffffff16836fffffffffffffffffffffffffffffffff1610156109ef576040517f24f21b1500000000000000000000000000000000000000000000000000000000815260040160405180910390fd5b606460ff83161115610a2d576040517f406b265300000000000000000000000000000000000000000000000000000000815260040160405180910390fd5b33600081815260046020819052604091829020805460ff871662010000027fffffffffffffffffffffffffffffffffffffffffffffffffffffffffff00ff0090911617600117815591517f19412a20000000000000000000000000000000000000000000000000000000008152908101929092526fffffffffffffffffffffffffffffffff851660248301526001600160a01b03838116604484015290917f0000000000000000000000000000000000000000000000000000000000000000909116906319412a2090606401600060405180830381600087803b158015610b1357600080fd5b505af1158015610b27573d6000803e3d6000fd5b505050506fffffffffffffffffffffffffffffffff7f0000000000000000000000000000000000000000000000000000000000000000811690851610801590610b7357610b7333612711565b60408051821515815260ff861660208201526fffffffffffffffffffffffffffffffff871681830152905133917f36f43e5c63d19ec0a34168ec0838b5bfae77656b9f5b94b896e9d2172a41f4fe919081900360600190a25050505050565b6003610bdd33610d85565b6005811115610bee57610bee61583b565b141580610c1b5750336000908152600560205260409020546fffffffffffffffffffffffffffffffff1615155b15610c52576040517f197299a000000000000000000000000000000000000000000000000000000000815260040160405180910390fd5b610c5b33612711565b565b7f00000000000000000000000000000000000000000000000000000000000000006001600160a01b0316639e45e8f46040518163ffffffff1660e01b8152600401602060405180830381865afa158015610cbb573d6000803e3d6000fd5b505050506040513d601f19601f82011682018060405250810190610cdf91906159cc565b6001600160a01b0316336001600160a01b031614610d29576040517f9d02a7c200000000000000000000000000000000000000000000000000000000815260040160405180910390fd5b807f000000000000000000000000000000000000000000000000000000000000000003610d82576040517f31210d6600000000000000000000000000000000000000000000000000000000815260040160405180910390fd5b50565b6001600160a01b03811660009081526004602052604081205460ff16610dad57506000919050565b6040517f981cee530000000000000000000000000000000000000000000000000000000081526001600160a01b0383811660048301527f00000000000000000000000000000000000000000000000000000000000000006fffffffffffffffffffffffffffffffff16917f00000000000000000000000000000000000000000000000000000000000000009091169063981cee5390602401602060405180830381865afa158015610e62573d6000803e3d6000fd5b505050506040513d601f19601f82011682018060405250810190610e8691906159e9565b6fffffffffffffffffffffffffffffffff161015610ea657506001919050565b6001600160a01b03828116600081815260036020526040908190205490517f8abf0af0000000000000000000000000000000000000000000000000000000008152600481019290925263ffffffff161515917f00000000000000000000000000000000000000000000000000000000000000006fffffffffffffffffffffffffffffffff16917f000000000000000000000000000000000000000000000000000000000000000090911690638abf0af090602401602060405180830381865afa158015610f77573d6000803e3d6000fd5b505050506040513d601f19601f82011682018060405250810190610f9b91906159e9565b6fffffffffffffffffffffffffffffffff161015610fca5780610fc15750600292915050565b50600492915050565b80610fd85750600392915050565b50600592915050565b60007f00000000000000000000000000000000000000000000000000000000000000006001600160a01b0316636abcf5636040518163ffffffff1660e01b8152600401602060405180830381865afa158015611041573d6000803e3d6000fd5b505050506040513d601f19601f820116820180604052508101906110659190615a06565b7f0000000000000000000000000000000000000000000000000000000000000000036110b057507f000000000000000000000000000000000000000000000000000000000000000090565b6000546001600160a01b0316156111b85760007f00000000000000000000000000000000000000000000000000000000000000006001600160a01b03166380446bd26040518163ffffffff1660e01b8152600401602060405180830381865afa158015611121573d6000803e3d6000fd5b505050506040513d601f19601f820116820180604052508101906111459190615a06565b90508042106111a757600061115a8242615a4e565b90507f00000000000000000000000000000000000000000000000000000000000000006fffffffffffffffffffffffffffffffff168111156111a5576001600160a01b039250505090565b505b50506000546001600160a01b031690565b507f000000000000000000000000000000000000000000000000000000000000000090565b60006111e883610d85565b9050818015611223575060018160058111156112065761120661583b565b1480611223575060048160058111156112215761122161583b565b145b1561128157611233600184612809565b1561127c57826001600160a01b03167fdee7e7274fb1911def379ceda542a2723358c99d6d1f89fcbdbe9e9d638d99614260405161127391815260200190565b60405180910390a25b505050565b60048160058111156112955761129561583b565b1061127c576040517f8abf0af00000000000000000000000000000000000000000000000000000000081526001600160a01b03808516600483015261134c9185917f00000000000000000000000000000000000000000000000000000000000000001690638abf0af090602401602060405180830381865afa15801561131f573d6000803e3d6000fd5b505050506040513d601f19601f8201168201806040525081019061134391906159e9565b600191906129ab565b50505050565b336000908152600560205260409020546fffffffffffffffffffffffffffffffff166113aa576040517f197299a000000000000000000000000000000000000000000000000000000000815260040160405180910390fd5b33600090815260056020526040902054426fffffffffffffffffffffffffffffffff9091161115611407576040517f1dfc20f100000000000000000000000000000000000000000000000000000000815260040160405180910390fd5b61141033612cc0565b3360008181526005602052604080822080547fffffffffffffffffffffffffffffffff00000000000000000000000000000000169055517f9390b453426557da5ebdc31f19a37753ca04addf656d32f35232211bb2af3f199190a2600361147633610d85565b60058111156114875761148761583b565b03610c5b57610c5b33612711565b336001600160a01b037f000000000000000000000000000000000000000000000000000000000000000016146114f7576040517f9d02a7c200000000000000000000000000000000000000000000000000000000815260040160405180910390fd5b6000611501610fe1565b90506001600160a01b038082161480159061152e5750806001600160a01b0316826001600160a01b031614155b15611565576040517fc625317600000000000000000000000000000000000000000000000000000000815260040160405180910390fd5b61156e8261191d565b6115a4576040517f197299a000000000000000000000000000000000000000000000000000000000815260040160405180910390fd5b5050565b7f00000000000000000000000000000000000000000000000000000000000000006001600160a01b0316639e45e8f46040518163ffffffff1660e01b8152600401602060405180830381865afa158015611606573d6000803e3d6000fd5b505050506040513d601f19601f8201168201806040525081019061162a91906159cc565b6001600160a01b0316336001600160a01b031614611674576040517f9d02a7c200000000000000000000000000000000000000000000000000000000815260040160405180910390fd5b6040517f8c1516c70000000000000000000000000000000000000000000000000000000081526001600160a01b0382811660048301527f00000000000000000000000000000000000000000000000000000000000000001690638c1516c7906024015b600060405180830381600087803b1580156116f157600080fd5b505af1158015611705573d6000803e3d6000fd5b5050505050565b600261171733610d85565b60058111156117285761172861583b565b10806117545750336000908152600560205260409020546fffffffffffffffffffffffffffffffff1615155b1561178b576040517f197299a000000000000000000000000000000000000000000000000000000000815260040160405180910390fd5b600061179633612019565b90507f00000000000000000000000000000000000000000000000000000000000000006fffffffffffffffffffffffffffffffff16816fffffffffffffffffffffffffffffffff1603611815576040517fdf80df2100000000000000000000000000000000000000000000000000000000815260040160405180910390fd5b806fffffffffffffffffffffffffffffffff16421015611861576040517f82225faf00000000000000000000000000000000000000000000000000000000815260040160405180910390fd5b3360008181526004602090815260409182902080547fffffffffffffffffffffffff0000000000000000000000000000000000ffffff6301000000820460ff90811662010000818102939093167fffffffffffffffffffffffff000000000000000000000000000000000000ffff851617855586519290930416808252938101829052919492939092917fa40865ec905b139b9cdbd0566756b576b074c47d9dde9f62388b1d66d3e72a6491015b60405180910390a250505050565b6000600561192a83610d85565b600581111561193b5761193b61583b565b0361194857506001919050565b506000919050565b600261195b33610d85565b600581111561196c5761196c61583b565b10806119985750336000908152600560205260409020546fffffffffffffffffffffffffffffffff1615155b156119cf576040517f197299a000000000000000000000000000000000000000000000000000000000815260040160405180910390fd5b606460ff82161115611a0d576040517f406b265300000000000000000000000000000000000000000000000000000000815260040160405180910390fd5b336000908152600460205260409020805460ff620100009091048116908316819003611a65576040517f150393f200000000000000000000000000000000000000000000000000000000815260040160405180910390fd5b81547fffffffffffffffffffffffff0000000000000000000000000000000000ffffff16630100000060ff8581169182027fffffffffffffffffffffffff00000000000000000000000000000000ffffffff1692909217640100000000426fffffffffffffffffffffffffffffffff1602178455604080519284168352602083019190915233917f9d9fe61047777339f4f4cb36a1f75ee90e3c6aa90c13abd3ffa07f6f86e0a307910160405180910390a2505050565b7f00000000000000000000000000000000000000000000000000000000000000006001600160a01b0316639e45e8f46040518163ffffffff1660e01b8152600401602060405180830381865afa158015611b7a573d6000803e3d6000fd5b505050506040513d601f19601f82011682018060405250810190611b9e91906159cc565b6001600160a01b0316336001600160a01b031614611be8576040517f9d02a7c200000000000000000000000000000000000000000000000000000000815260040160405180910390fd5b6040517fa83871720000000000000000000000000000000000000000000000000000000081526001600160a01b0382811660048301527f0000000000000000000000000000000000000000000000000000000000000000169063a8387172906024016116d7565b7f00000000000000000000000000000000000000000000000000000000000000006001600160a01b0316639e45e8f46040518163ffffffff1660e01b8152600401602060405180830381865afa158015611cad573d6000803e3d6000fd5b505050506040513d601f19601f82011682018060405250810190611cd191906159cc565b6001600160a01b0316336001600160a01b031614611d1b576040517f9d02a7c200000000000000000000000000000000000000000000000000000000815260040160405180910390fd5b6040517f536afae40000000000000000000000000000000000000000000000000000000081526001600160a01b0382811660048301526000917f00000000000000000000000000000000000000000000000000000000000000009091169063536afae4906024016020604051808303816000875af1158015611da1573d6000803e3d6000fd5b505050506040513d601f19601f82011682018060405250810190611dc591906159e9565b60008481526006602090815260409182902080547fffffffffffffffffffffffffffffffff0000000000000000000000000000000081166fffffffffffffffffffffffffffffffff918216869003821617909155915191831682529192506001600160a01b0384169185917fe2d313b9d9b90c2930241ea64ee5d6f4ff30dfd44a15cd3f1df2c6cb8021ec07910160405180910390a36001600160a01b0382166000908152600560205260409020546fffffffffffffffffffffffffffffffff161561127c576001600160a01b038216600090815260056020526040812054611ee1907f0000000000000000000000000000000000000000000000000000000000000000906fffffffffffffffffffffffffffffffff16615a65565b9050806fffffffffffffffffffffffffffffffff16421015611f8b576001600160a01b03831660008181526005602090815260409182902080547fffffffffffffffffffffffffffffffff00000000000000000000000000000000166fffffffffffffffffffffffffffffffff861690811790915591519182527f95a398f2b6b2ad94f281708c97fe502386fc16adca43daed577a1e992a4cc814910160405180910390a261134c565b6001600160a01b03831660008181526005602052604080822080547fffffffffffffffffffffffffffffffff00000000000000000000000000000000169055517f9390b453426557da5ebdc31f19a37753ca04addf656d32f35232211bb2af3f199190a26003611ffa84610d85565b600581111561200b5761200b61583b565b0361134c5761134c83612711565b6001600160a01b038116600090815260046020526040812054612077907f00000000000000000000000000000000000000000000000000000000000000009064010000000090046fffffffffffffffffffffffffffffffff16615a96565b92915050565b336001600160a01b037f000000000000000000000000000000000000000000000000000000000000000016146120df576040517f9d02a7c200000000000000000000000000000000000000000000000000000000815260040160405180910390fd5b6120e7612d25565b506040517fb0ea09a8000000000000000000000000000000000000000000000000000000008152600481018290526000907f00000000000000000000000000000000000000000000000000000000000000006001600160a01b03169063b0ea09a890602401602060405180830381865afa158015612169573d6000803e3d6000fd5b505050506040513d601f19601f8201168201806040525081019061218d91906159cc565b6040517f8c1516c70000000000000000000000000000000000000000000000000000000081526001600160a01b0380831660048301529192507f000000000000000000000000000000000000000000000000000000000000000090911690638c1516c790602401600060405180830381600087803b15801561220e57600080fd5b505af1158015612222573d6000803e3d6000fd5b50506000546001600160a01b0390811690841603915061224c90505761224781612cc0565b612254565b61225461345b565b6115a4613532565b7f00000000000000000000000000000000000000000000000000000000000000006001600160a01b0316639e45e8f46040518163ffffffff1660e01b8152600401602060405180830381865afa1580156122ba573d6000803e3d6000fd5b505050506040513d601f19601f820116820180604052508101906122de91906159cc565b6001600160a01b0316336001600160a01b031614612328576040517f9d02a7c200000000000000000000000000000000000000000000000000000000815260040160405180910390fd5b6040517f5636aabd0000000000000000000000000000000000000000000000000000000081526001600160a01b0382811660048301526000917f000000000000000000000000000000000000000000000000000000000000000090911690635636aabd906024016020604051808303816000875af11580156123ae573d6000803e3d6000fd5b505050506040513d601f19601f820116820180604052508101906123d291906159e9565b6040516fffffffffffffffffffffffffffffffff821681529091506001600160a01b0383169085907f1237821480ce4d75f917bc39d1641eb17a5e09a2d5bf982cdd8cb2561aa28e689060200160405180910390a36124328260006137cc565b837f00000000000000000000000000000000000000000000000000000000000000006001600160a01b031663f403838d6040518163ffffffff1660e01b8152600401602060405180830381865afa158015612491573d6000803e3d6000fd5b505050506040513d601f19601f820116820180604052508101906124b59190615a06565b1161250d57600084815260066020526040902080546fffffffffffffffffffffffffffffffff8082168401167fffffffffffffffffffffffffffffffff0000000000000000000000000000000090911617905561134c565b6040517fc42996d60000000000000000000000000000000000000000000000000000000081526001600160a01b0384811660048301526fffffffffffffffffffffffffffffffff831660248301527f0000000000000000000000000000000000000000000000000000000000000000169063c42996d6906044016020604051808303816000875af11580156125a6573d6000803e3d6000fd5b505050506040513d601f19601f820116820180604052508101906125ca91906159e9565b90506125d78360006111dd565b6040516fffffffffffffffffffffffffffffffff821681526001600160a01b0384169085907fd537f9e63e8da05cdb52f795e1c79d7b163e2517d5229375474dbe60b48cfa149060200160405180910390a350505050565b60015460009061264f9063ffffffff640100000000820481169116615aca565b905090565b336001600160a01b037f000000000000000000000000000000000000000000000000000000000000000016146126b6576040517f9d02a7c200000000000000000000000000000000000000000000000000000000815260040160405180910390fd5b60036126c182610d85565b60058111156126d2576126d261583b565b14801561270757506001600160a01b0381166000908152600560205260409020546fffffffffffffffffffffffffffffffff16155b15610d8257610d82815b6040517f8abf0af00000000000000000000000000000000000000000000000000000000081526001600160a01b0380831660048301526127c39183917f00000000000000000000000000000000000000000000000000000000000000001690638abf0af090602401602060405180830381865afa158015612796573d6000803e3d6000fd5b505050506040513d601f19601f820116820180604052508101906127ba91906159e9565b60019190613939565b806001600160a01b03167ff33a24861b76047debce215c7ae4915a9befc5d870e97efbd4152df23c72112a426040516127fe91815260200190565b60405180910390a250565b6001600160a01b038116600090815260028301602052604081205463ffffffff1680820361283b576000915050612077565b6001600160a01b03831660009081526002850160209081526040808320805463ffffffff1916905563ffffffff8481168452600180890190935292208054910154740100000000000000000000000000000000000000009091049091169061010090046effffffffffffffffffffffffffffff165b63ffffffff8216156129525763ffffffff91821660009081526001808801602052604090912090810180546effffffffffffffffffffffffffffff7001000000000000000000000000000000008083048216869003909116027fff000000000000000000000000000000ffffffffffffffffffffffffffffffff90911617905554740100000000000000000000000000000000000000009004909116906128b0565b61295c8684614007565b50508354600163ffffffff64010000000080840482168301909116027fffffffffffffffffffffffffffffffffffffffffffffffff00000000ffffffff90921691909117855591505092915050565b6001600160a01b038216600090815260028401602052604081205463ffffffff168082036129dd576000915050612cb9565b63ffffffff80821660009081526001808801602052604090912090810180546effffffffffffffffffffffffffffff8781166101008181027fffffffffffffffffffffffffffffffff000000000000000000000000000000ff8516179094559354929091041692740100000000000000000000000000000000000000009091041690821015612b8d5763ffffffff83166000908152600188810160205260409091200180547fff000000000000000000000000000000ffffffffffffffffffffffffffffffff8116848803700100000000000000000000000000000000928390046effffffffffffffffffffffffffffff908116820116909202179091555b63ffffffff821615612b7d5763ffffffff91821660009081526001808a01602052604090912090810180546effffffffffffffffffffffffffffff70010000000000000000000000000000000080830482168601909116027fff000000000000000000000000000000ffffffffffffffffffffffffffffffff9091161790555474010000000000000000000000000000000000000000900490911690612adc565b50612b88878461482c565b612cb1565b63ffffffff83166000908152600188810160205260409091200180547fff000000000000000000000000000000ffffffffffffffffffffffffffffffff8116878503700100000000000000000000000000000000928390046effffffffffffffffffffffffffffff90811682900316909202179091555b63ffffffff821615612ca65763ffffffff91821660009081526001808a01602052604090912090810180546effffffffffffffffffffffffffffff7001000000000000000000000000000000008083048216869003909116027fff000000000000000000000000000000ffffffffffffffffffffffffffffffff9091161790555474010000000000000000000000000000000000000000900490911690612c04565b50612cb18784614a38565b600193505050505b9392505050565b6001600160a01b038116600090815260046020526040902054610100900460ff1615610d82576001600160a01b0316600090815260046020526040902080547fffffffffffffffffffffffffffffffffffffffffffffffffffffffffffff00ff169055565b6000807f00000000000000000000000000000000000000000000000000000000000000006001600160a01b031663f403838d6040518163ffffffff1660e01b8152600401602060405180830381865afa158015612d86573d6000803e3d6000fd5b505050506040513d601f19601f82011682018060405250810190612daa9190615a06565b905060007f00000000000000000000000000000000000000000000000000000000000000006001600160a01b03166369f16eec6040518163ffffffff1660e01b8152600401602060405180830381865afa158015612e0c573d6000803e3d6000fd5b505050506040513d601f19601f82011682018060405250810190612e309190615a06565b90507f00000000000000000000000000000000000000000000000000000000000000006001600160a01b031663b98debbf6040518163ffffffff1660e01b8152600401602060405180830381865afa158015612e90573d6000803e3d6000fd5b505050506040513d601f19601f82011682018060405250810190612eb491906159cc565b6001600160a01b031663ad36d6cc836040518263ffffffff1660e01b8152600401612ee191815260200190565b602060405180830381865afa158015612efe573d6000803e3d6000fd5b505050506040513d601f19601f82011682018060405250810190612f229190615ae7565b612f2f5760009250505090565b6000805b7f00000000000000000000000000000000000000000000000000000000000000006fffffffffffffffffffffffffffffffff16826fffffffffffffffffffffffffffffffff16108015612f865750828411155b1561339a576040517f33727c4d000000000000000000000000000000000000000000000000000000008152600481018590527f00000000000000000000000000000000000000000000000000000000000000006001600160a01b0316906333727c4d90602401602060405180830381865afa158015613009573d6000803e3d6000fd5b505050506040513d601f19601f8201168201806040525081019061302d9190615ae7565b1561339a576040517fb0ea09a8000000000000000000000000000000000000000000000000000000008152600481018590527f00000000000000000000000000000000000000000000000000000000000000006001600160a01b03169063b0ea09a890602401602060405180830381865afa1580156130b0573d6000803e3d6000fd5b505050506040513d601f19601f820116820180604052508101906130d491906159cc565b905060008060006130e484614e63565b6040517fad4294510000000000000000000000000000000000000000000000000000000081526001600160a01b0388811660048301526fffffffffffffffffffffffffffffffff858116602484015284811660448401528316606483015293965091945092507f00000000000000000000000000000000000000000000000000000000000000009091169063ad42945190608401600060405180830381600087803b15801561319257600080fd5b505af11580156131a6573d6000803e3d6000fd5b5050604080516fffffffffffffffffffffffffffffffff8581168252878116602083015286168183015290516001600160a01b03881693508a92507fd74a44a8cd6c73740a70271e07ee96d8a495ff30037ae6381cbcdb8fe7f2a1ea9181900360600190a36000878152600660205260409020546fffffffffffffffffffffffffffffffff16801561337a576040517fc42996d60000000000000000000000000000000000000000000000000000000081526001600160a01b0386811660048301526fffffffffffffffffffffffffffffffff831660248301527f0000000000000000000000000000000000000000000000000000000000000000169063c42996d6906044016020604051808303816000875af11580156132cb573d6000803e3d6000fd5b505050506040513d601f19601f820116820180604052508101906132ef91906159e9565b60008981526006602090815260409182902080547fffffffffffffffffffffffffffffffff0000000000000000000000000000000016905590516fffffffffffffffffffffffffffffffff831681529192506001600160a01b038716918a917fd537f9e63e8da05cdb52f795e1c79d7b163e2517d5229375474dbe60b48cfa14910160405180910390a35b6133858560006111dd565b87600101975085600101955050505050612f33565b6fffffffffffffffffffffffffffffffff821615613450576040517f9902cdc0000000000000000000000000000000000000000000000000000000008152600481018590527f00000000000000000000000000000000000000000000000000000000000000006001600160a01b031690639902cdc090602401600060405180830381600087803b15801561342d57600080fd5b505af1158015613441573d6000803e3d6000fd5b50505050600194505050505090565b600094505050505090565b6000546001600160a01b031661346d57565b600080546001600160a01b03168152600460205260409020547f00000000000000000000000000000000000000000000000000000000000000006fffffffffffffffffffffffffffffffff1661010090910460ff16106134de57600054610c5b906001600160a01b031660016137cc565b600080546001600160a01b03168152600460205260409020805460ff6101008083048216600101909116027fffffffffffffffffffffffffffffffffffffffffffffffffffffffffffff00ff909116179055565b6001805468010000000000000000900463ffffffff1660009081526002602052604081209091015470010000000000000000000000000000000090046effffffffffffffffffffffffffffff16905060007f00000000000000000000000000000000000000000000000000000000000000006001600160a01b031663f403838d6040518163ffffffff1660e01b8152600401602060405180830381865afa1580156135e1573d6000803e3d6000fd5b505050506040513d601f19601f820116820180604052508101906136059190615a06565b90506000826effffffffffffffffffffffffffffff161180156136285750600081115b156137a05760006001600160a01b037f00000000000000000000000000000000000000000000000000000000000000001663a25ae557613669600185615a4e565b6040518263ffffffff1660e01b815260040161368791815260200190565b608060405180830381865afa1580156136a4573d6000803e3d6000fd5b505050506040513d601f19601f820116820180604052508101906136c89190615b04565b905060008382602001514341446001436136e29190615a4e565b6040805160208101969096528501939093527fffffffffffffffffffffffffffffffffffffffff000000000000000000000000606092831b1691840191909152607483015240609482015260b4016040516020818303038152906040528051906020012060001c6137539190615bd6565b9050613760600182615194565b600080547fffffffffffffffffffffffff0000000000000000000000000000000000000000166001600160a01b0392909216919091179055506115a49050565b600080547fffffffffffffffffffffffff00000000000000000000000000000000000000001690555050565b6000816137f9577f000000000000000000000000000000000000000000000000000000000000000061381b565b7f00000000000000000000000000000000000000000000000000000000000000005b6001600160a01b038416600090815260056020526040812054919250908290613856906fffffffffffffffffffffffffffffffff1642615363565b6138609190615a96565b6001600160a01b03851660008181526005602090815260409182902080547fffffffffffffffffffffffffffffffff00000000000000000000000000000000166fffffffffffffffffffffffffffffffff8616908117909155915191825292935090917f95a398f2b6b2ad94f281708c97fe502386fc16adca43daed577a1e992a4cc814910160405180910390a26138f9600185612809565b1561134c57836001600160a01b03167fdee7e7274fb1911def379ceda542a2723358c99d6d1f89fcbdbe9e9d638d99614260405161190f91815260200190565b6001600160a01b0382166139d4576040517f08c379a000000000000000000000000000000000000000000000000000000000815260206004820152602c60248201527f42616c616e636564576569676874547265653a207a65726f206164647265737360448201527f206e6f7420616c6c6f776564000000000000000000000000000000000000000060648201526084015b60405180910390fd5b6001600160a01b038216600090815260028401602052604090205463ffffffff1615613a82576040517f08c379a000000000000000000000000000000000000000000000000000000000815260206004820152602960248201527f42616c616e636564576569676874547265653a206e6f646520616c726561647960448201527f206578697374696e67000000000000000000000000000000000000000000000060648201526084016139cb565b60006040518060e00160405280846001600160a01b03168152602001600063ffffffff168152602001600063ffffffff168152602001600063ffffffff168152602001600115158152602001836effffffffffffffffffffffffffffff168152602001836effffffffffffffffffffffffffffff16815250905083600001600081819054906101000a900463ffffffff168092919060010191906101000a81548163ffffffff021916908363ffffffff1602179055505060008460000160009054906101000a900463ffffffff169050818560010160008363ffffffff1663ffffffff16815260200190815260200160002060008201518160000160006101000a8154816001600160a01b0302191690836001600160a01b0316021790555060208201518160000160146101000a81548163ffffffff021916908363ffffffff16021790555060408201518160000160186101000a81548163ffffffff021916908363ffffffff160217905550606082015181600001601c6101000a81548163ffffffff021916908363ffffffff16021790555060808201518160010160006101000a81548160ff02191690831515021790555060a08201518160010160016101000a8154816effffffffffffffffffffffffffffff02191690836effffffffffffffffffffffffffffff16021790555060c08201518160010160106101000a8154816effffffffffffffffffffffffffffff02191690836effffffffffffffffffffffffffffff16021790555090505080856002016000866001600160a01b03166001600160a01b0316815260200190815260200160002060006101000a81548163ffffffff021916908363ffffffff1602179055508460000160089054906101000a900463ffffffff1663ffffffff16600003613d5d57845463ffffffff90911668010000000000000000027fffffffffffffffffffffffffffffffffffffffff00000000ffffffffffffffff90911617909355505050565b845468010000000000000000900463ffffffff165b63ffffffff808216600090815260018089016020526040822090810180546effffffffffffffffffffffffffffff70010000000000000000000000000000000080830482168b01909116027fff000000000000000000000000000000ffffffffffffffffffffffffffffffff90911617905580549092600160c01b909104169003613e995763ffffffff838116600081815260018a016020526040902080547fffffffffffffffff00000000ffffffffffffffffffffffffffffffffffffffff1674010000000000000000000000000000000000000000938616939093029290921790915581547fffffffff00000000ffffffffffffffffffffffffffffffffffffffffffffffff16600160c01b909102178155613e90878461482c565b50505050505050565b8054600160e01b900463ffffffff16600003613f6f5763ffffffff838116600081815260018a8101602052604090912080547fffffffffffffffff00000000ffffffffffffffffffffffffffffffffffffffff1674010000000000000000000000000000000000000000948716949094029390931783559190910180547fffffffffffffffffffffffffffffffffffffffffffffffffffffffffffffff0016905581547bffffffffffffffffffffffffffffffffffffffffffffffffffffffff16600160e01b909102178155613e90878461482c565b805463ffffffff600160e01b8204811660009081526001808b016020526040808320820154600160c01b909504909316825291902001546effffffffffffffffffffffffffffff70010000000000000000000000000000000092839004811692909104161115613fef578054600160e01b900463ffffffff169150614001565b8054600160c01b900463ffffffff1691505b50613d72565b63ffffffff81166000908152600183016020526040902080546001600160a01b03166140b5576040517f08c379a000000000000000000000000000000000000000000000000000000000815260206004820152602360248201527f42616c616e636564576569676874547265653a206e6f6465206e6f742065786960448201527f737473000000000000000000000000000000000000000000000000000000000060648201526084016139cb565b8054600160c01b900463ffffffff16600003614383578054600160e01b900463ffffffff1660000361423257805474010000000000000000000000000000000000000000900463ffffffff166000036141335782547fffffffffffffffffffffffffffffffffffffffff00000000ffffffffffffffff1683556141ee565b600181015460ff161561419b57805474010000000000000000000000000000000000000000900463ffffffff166000908152600184016020526040902080547fffffffff00000000ffffffffffffffffffffffffffffffffffffffffffffffff1690556141ee565b805474010000000000000000000000000000000000000000900463ffffffff166000908152600184016020526040902080547bffffffffffffffffffffffffffffffffffffffffffffffffffffffff1690555b5063ffffffff1660009081526001918201602052604081209081550180547fff00000000000000000000000000000000000000000000000000000000000000169055565b805463ffffffff600160e01b80830482166000908152600180880160209081526040808420547fffffffffffffffffffffffff00000000000000000000000000000000000000009097166001600160a01b0397881617808955859004861684528084208084018054948a0180546effffffffffffffffffffffffffffff6101009788900481169097027fffffffffffffffffffffffffffffffff000000000000000000000000000000ff8216811783559254700100000000000000000000000000000000908190049097169096027fff000000000000000000000000000000ffffffffffffffffffffffffffffffff9092167fff000000000000000000000000000000000000000000000000000000000000ff9096169590951717909355915490951682526002880190945292909220805494821663ffffffff199095169490941790935581540490911690614826565b8054600160e01b900463ffffffff166000036144ea57805463ffffffff600160c01b80830482166000908152600180880160209081526040808420547fffffffffffffffffffffffff00000000000000000000000000000000000000009097166001600160a01b0397881617808955859004861684528084208084018054948a0180546effffffffffffffffffffffffffffff6101009788900481169097027fffffffffffffffffffffffffffffffff000000000000000000000000000000ff8216811783559254700100000000000000000000000000000000908190049097169096027fff000000000000000000000000000000ffffffffffffffffffffffffffffffff9092167fff000000000000000000000000000000000000000000000000000000000000ff9096169590951717909355915490951682526002880190945292909220805494821663ffffffff199095169490941790935581540490911690614826565b805463ffffffff600160e01b82048116600090815260018087016020526040808320820154600160c01b909504909316825291902001546effffffffffffffffffffffffffffff610100928390048116929091041611156146b857805463ffffffff600160c01b80830482166000908152600180880160209081526040808420547fffffffffffffffffffffffff00000000000000000000000000000000000000009097166001600160a01b03978816178089558581048716855281852080850180548b870180546effffffffffffffffffffffffffffff6101009384900481169093027fffffffffffffffffffffffffffffffff000000000000000000000000000000ff821681178355600160e01b9096048c168a52868a20909801549254700100000000000000000000000000000000908190048316938190048316939093019091169091027fff000000000000000000000000000000ffffffffffffffffffffffffffffffff9093167fff000000000000000000000000000000000000000000000000000000000000ff9096169590951791909117909355915490951682526002880190945292909220805494821663ffffffff199095169490941790935581540490911690614826565b805463ffffffff600160e01b80830482166000908152600180880160209081526040808420547fffffffffffffffffffffffff00000000000000000000000000000000000000009097166001600160a01b03978816178089558581048716855281852080850180548b870180546effffffffffffffffffffffffffffff6101009384900481169093027fffffffffffffffffffffffffffffffff000000000000000000000000000000ff8216811783559354600160c01b9096048c168a52868a2090980154700100000000000000000000000000000000908190048316958190048316959095019091169093027fff000000000000000000000000000000ffffffffffffffffffffffffffffffff9091167fff000000000000000000000000000000000000000000000000000000000000ff90961695909517949094179055915490951682526002880190945292909220805494821663ffffffff1990951694909417909355815404909116905b50614007565b63ffffffff80821660009081526001840160205260408082208054740100000000000000000000000000000000000000009004909316825290205b815474010000000000000000000000000000000000000000900463ffffffff16158015906148ba5750600180820154908301546effffffffffffffffffffffffffffff6101009283900481169290910416115b1561134c57815481547fffffffffffffffffffffffff00000000000000000000000000000000000000008083166001600160a01b03928316178555835416918116919091178255600180840180548483018054610100908190046effffffffffffffffffffffffffffff9081168083027fffffffffffffffffffffffffffffffff000000000000000000000000000000ff80871691909117875584549584900483169384029516949094179092558354929003700100000000000000000000000000000000808404831691909103909116027fff000000000000000000000000000000ffffffffffffffffffffffffffffffff9091161790558354821660009081526002870160209081526040808320805463ffffffff998a1663ffffffff199182161790915587549654909516835280832080549095167401000000000000000000000000000000000000000096879004891617909455945484900486168082529187019094528184208054939093049094168352909120614867565b5b63ffffffff8082166000908152600180850160205260408083208054600160e01b810486168552828520840154600160c01b90910490951684529220015490916effffffffffffffffffffffffffffff610100918290048116919092049091161115614c8157600180820154825463ffffffff600160c01b90910416600090815285830160205260409020909101546effffffffffffffffffffffffffffff6101009283900481169290910416111561127c57805463ffffffff600160c01b80830482166000908152600187810160208181526040808520547fffffffffffffffffffffffff0000000000000000000000000000000000000000808a166001600160a01b0392831617808c558890048916875282872080549091169982169990991790985583890180548a548890048916875282872086018054610100908190046effffffffffffffffffffffffffffff9081168083027fffffffffffffffffffffffffffffffff000000000000000000000000000000ff80871691909117909655835494839004821692830294909516939093179091558b548990048a168852838820909601805496909203700100000000000000000000000000000000808804831691909103909116027fff000000000000000000000000000000ffffffffffffffffffffffffffffffff9095169490941790935587548716845260028a0180825283852080549a881663ffffffff199b8c1617905588548690048716808652928252838520549097168452959095529020805490951690921790935590540416614a39565b600180820154825463ffffffff600160e01b90910416600090815285830160205260409020909101546effffffffffffffffffffffffffffff6101009283900481169290910416111561127c57805463ffffffff600160e01b80830482166000908152600187810160208181526040808520547fffffffffffffffffffffffff0000000000000000000000000000000000000000808a166001600160a01b0392831617808c558890048916875282872080549091169982169990991790985583890180548a548890048916875282872086018054610100908190046effffffffffffffffffffffffffffff9081168083027fffffffffffffffffffffffffffffffff000000000000000000000000000000ff80871691909117909655835494839004821692830294909516939093179091558b548990048a168852838820909601805496909203700100000000000000000000000000000000808804831691909103909116027fff000000000000000000000000000000ffffffffffffffffffffffffffffffff9095169490941790935587548716845260028a0180825283852080549a881663ffffffff199b8c1617905588548690048716808652928252838520549097168452959095529020805490951690921790935590540416614a39565b60008060007f00000000000000000000000000000000000000000000000000000000000000006001600160a01b031663360864176040518163ffffffff1660e01b8152600401602060405180830381865afa158015614ec6573d6000803e3d6000fd5b505050506040513d601f19601f82011682018060405250810190614eea91906159cc565b6001600160a01b0316846001600160a01b031603614f305750600091508190507f000000000000000000000000000000000000000000000000000000000000000061518d565b6001600160a01b03841660009081526004602052604081205462010000900460ff1690614f5c8661539d565b9050600080614fa16fffffffffffffffffffffffffffffffff7f00000000000000000000000000000000000000000000000000000000000000008501168560646154d3565b9050614fe46fffffffffffffffffffffffffffffffff7f0000000000000000000000000000000000000000000000000000000000000000166064868103906154d3565b91506150076fffffffffffffffffffffffffffffffff84166064868103906154d3565b6040517f981cee530000000000000000000000000000000000000000000000000000000081526001600160a01b038a811660048301529194506000917f0000000000000000000000000000000000000000000000000000000000000000169063981cee5390602401602060405180830381865afa15801561508c573d6000803e3d6000fd5b505050506040513d601f19601f820116820180604052508101906150b091906159e9565b6040517f6b9ffeac0000000000000000000000000000000000000000000000000000000081526001600160a01b038b811660048301529192506000917f00000000000000000000000000000000000000000000000000000000000000001690636b9ffeac90602401602060405180830381865afa158015615135573d6000803e3d6000fd5b505050506040513d601f19601f8201168201806040525081019061515991906159e9565b9050600061517c6fffffffffffffffffffffffffffffffff8616848085016154d3565b948590039950949750505001925050505b9193909250565b815460009068010000000000000000900463ffffffff165b63ffffffff80821660009081526001808701602052604080832054600160c01b9004909316825291902001546effffffffffffffffffffffffffffff80851670010000000000000000000000000000000090920416111561522d5763ffffffff9081166000908152600185016020526040902054600160c01b9004166151ac565b63ffffffff8181166000818152600187810160205260408083208054600160c01b9004909516835282208101549290915291909101547001000000000000000000000000000000009091046effffffffffffffffffffffffffffff908116909403938481166101009092041611156152c65763ffffffff1660009081526001840160205260409020546001600160a01b03169050612077565b63ffffffff818116600090815260018681016020526040808320808301549054600160e01b9004909416835290912001546101009091046effffffffffffffffffffffffffffff908116909403938481167001000000000000000000000000000000009092041611156153595763ffffffff9081166000908152600185016020526040902054600160e01b9004166151ac565b6000915050612077565b6000816fffffffffffffffffffffffffffffffff16836fffffffffffffffffffffffffffffffff16116153965781612cb9565b5090919050565b6040517f913f1a9f0000000000000000000000000000000000000000000000000000000081526001600160a01b03828116600483015260009182917f0000000000000000000000000000000000000000000000000000000000000000169063913f1a9f90602401602060405180830381865afa158015615421573d6000803e3d6000fd5b505050506040513d601f19601f8201168201806040525081019061544591906159e9565b905060006154886fffffffffffffffffffffffffffffffff7f000000000000000000000000000000000000000000000000000000000000000016602860646154d3565b90506154cb816fffffffffffffffffffffffffffffffff16650100000000006154c4856fffffffffffffffffffffffffffffffff166064615582565b9190615649565b949350505050565b6000838302608081901c6fffffffffffffffffffffffffffffffff841611615557576040517f08c379a000000000000000000000000000000000000000000000000000000000815260206004820152601c60248201527f55696e743132384d6174683a206d756c446976206f766572666c6f770000000060448201526064016139cb565b826fffffffffffffffffffffffffffffffff16818161557857615578615ba7565b0495945050505050565b600080838310801561559b57600181146155ae576155bd565b65010000000000850284900491506155bd565b65010000000000840285900491505b506402ef6c3406818002602890811c808402821c808202831c808302841c808402851c938402851c95909502841c641da06a6e33909502841c6455232d2bb2909202841c640d4ca0c283909302841c643177d95571909102841c64fffe4bcada90960290931c9490940191909101039190910303905081831115612077576501921fb544430392915050565b600080807fffffffffffffffffffffffffffffffffffffffffffffffffffffffffffffffff858709858702925082811083820303915050806000036156a15783828161569757615697615ba7565b0492505050612cb9565b80841161570a576040517f08c379a000000000000000000000000000000000000000000000000000000000815260206004820152601560248201527f4d6174683a206d756c446976206f766572666c6f77000000000000000000000060448201526064016139cb565b60008486880960026001871981018816978890046003810283188082028403028082028403028082028403028082028403028082028403029081029092039091026000889003889004909101858311909403939093029303949094049190911702949350505050565b6fffffffffffffffffffffffffffffffff81168114610d8257600080fd5b803560ff811681146157a257600080fd5b919050565b6001600160a01b0381168114610d8257600080fd5b6000806000606084860312156157d157600080fd5b83356157dc81615773565b92506157ea60208501615791565b915060408401356157fa816157a7565b809150509250925092565b60006020828403121561581757600080fd5b5035919050565b60006020828403121561583057600080fd5b8135612cb9816157a7565b7f4e487b7100000000000000000000000000000000000000000000000000000000600052602160045260246000fd5b60208101600683106158a5577f4e487b7100000000000000000000000000000000000000000000000000000000600052602160045260246000fd5b91905290565b600060208083528351808285015260005b818110156158d8578581018301518582016040015282016158bc565b818111156158ea576000604083870101525b50601f017fffffffffffffffffffffffffffffffffffffffffffffffffffffffffffffffe016929092016040019392505050565b8015158114610d8257600080fd5b6000806040838503121561593f57600080fd5b823561594a816157a7565b9150602083013561595a8161591e565b809150509250929050565b60006020828403121561597757600080fd5b612cb982615791565b6000806040838503121561599357600080fd5b82359150602083013561595a816157a7565b6000806000606084860312156159ba57600080fd5b8335925060208401356157ea816157a7565b6000602082840312156159de57600080fd5b8151612cb9816157a7565b6000602082840312156159fb57600080fd5b8151612cb981615773565b600060208284031215615a1857600080fd5b5051919050565b7f4e487b7100000000000000000000000000000000000000000000000000000000600052601160045260246000fd5b600082821015615a6057615a60615a1f565b500390565b60006fffffffffffffffffffffffffffffffff83811690831681811015615a8e57615a8e615a1f565b039392505050565b60006fffffffffffffffffffffffffffffffff808316818516808303821115615ac157615ac1615a1f565b01949350505050565b600063ffffffff83811690831681811015615a8e57615a8e615a1f565b600060208284031215615af957600080fd5b8151612cb98161591e565b600060808284031215615b1657600080fd5b6040516080810181811067ffffffffffffffff82111715615b60577f4e487b7100000000000000000000000000000000000000000000000000000000600052604160045260246000fd5b6040528251615b6e816157a7565b8152602083810151908201526040830151615b8881615773565b60408201526060830151615b9b81615773565b60608201529392505050565b7f4e487b7100000000000000000000000000000000000000000000000000000000600052601260045260246000fd5b60006effffffffffffffffffffffffffffff80841680615c1f577f4e487b7100000000000000000000000000000000000000000000000000000000600052601260045260246000fd5b9216919091069291505056fea164736f6c634300080f000a",
  "devdoc": {},
  "userdoc": {}
}