{
  "address": "0x59c63c69a1d1bf7D7CDAd21249C26f565691Ecbd",
  "abi": [
    {
      "inputs": [
        {
          "internalType": "uint256",
          "name": "_submissionInterval",
          "type": "uint256"
        },
        {
          "internalType": "uint256",
          "name": "_l2BlockTime",
          "type": "uint256"
        },
        {
          "internalType": "uint256",
          "name": "_startingBlockNumber",
          "type": "uint256"
        },
        {
          "internalType": "uint256",
          "name": "_startingTimestamp",
          "type": "uint256"
        },
        {
          "internalType": "address",
          "name": "_validator",
          "type": "address"
        },
        {
          "internalType": "address",
          "name": "_challenger",
          "type": "address"
        },
        {
          "internalType": "uint256",
          "name": "_finalizationPeriodSeconds",
          "type": "uint256"
        }
      ],
      "stateMutability": "nonpayable",
      "type": "constructor"
    },
    {
      "anonymous": false,
      "inputs": [
        {
          "indexed": false,
          "internalType": "uint8",
          "name": "version",
          "type": "uint8"
        }
      ],
      "name": "Initialized",
      "type": "event"
    },
    {
      "anonymous": false,
      "inputs": [
        {
          "indexed": true,
          "internalType": "bytes32",
          "name": "outputRoot",
          "type": "bytes32"
        },
        {
          "indexed": true,
          "internalType": "uint256",
          "name": "l2OutputIndex",
          "type": "uint256"
        },
        {
          "indexed": true,
          "internalType": "uint256",
          "name": "l2BlockNumber",
          "type": "uint256"
        },
        {
          "indexed": false,
          "internalType": "uint256",
          "name": "l1Timestamp",
          "type": "uint256"
        }
      ],
      "name": "OutputSubmitted",
      "type": "event"
    },
    {
      "anonymous": false,
      "inputs": [
        {
          "indexed": true,
          "internalType": "uint256",
          "name": "prevNextOutputIndex",
          "type": "uint256"
        },
        {
          "indexed": true,
          "internalType": "uint256",
          "name": "newNextOutputIndex",
          "type": "uint256"
        }
      ],
      "name": "OutputsDeleted",
      "type": "event"
    },
    {
      "inputs": [],
      "name": "CHALLENGER",
      "outputs": [
        {
          "internalType": "address",
          "name": "",
          "type": "address"
        }
      ],
      "stateMutability": "view",
      "type": "function"
    },
    {
      "inputs": [],
      "name": "FINALIZATION_PERIOD_SECONDS",
      "outputs": [
        {
          "internalType": "uint256",
          "name": "",
          "type": "uint256"
        }
      ],
      "stateMutability": "view",
      "type": "function"
    },
    {
      "inputs": [],
      "name": "L2_BLOCK_TIME",
      "outputs": [
        {
          "internalType": "uint256",
          "name": "",
          "type": "uint256"
        }
      ],
      "stateMutability": "view",
      "type": "function"
    },
    {
      "inputs": [],
      "name": "SUBMISSION_INTERVAL",
      "outputs": [
        {
          "internalType": "uint256",
          "name": "",
          "type": "uint256"
        }
      ],
      "stateMutability": "view",
      "type": "function"
    },
    {
      "inputs": [],
      "name": "VALIDATOR",
      "outputs": [
        {
          "internalType": "address",
          "name": "",
          "type": "address"
        }
      ],
      "stateMutability": "view",
      "type": "function"
    },
    {
      "inputs": [
        {
          "internalType": "uint256",
          "name": "_l2BlockNumber",
          "type": "uint256"
        }
      ],
      "name": "computeL2Timestamp",
      "outputs": [
        {
          "internalType": "uint256",
          "name": "",
          "type": "uint256"
        }
      ],
      "stateMutability": "view",
      "type": "function"
    },
    {
      "inputs": [
        {
          "internalType": "uint256",
          "name": "_l2OutputIndex",
          "type": "uint256"
        }
      ],
      "name": "deleteL2Outputs",
      "outputs": [],
      "stateMutability": "nonpayable",
      "type": "function"
    },
    {
      "inputs": [
        {
          "internalType": "uint256",
          "name": "_l2OutputIndex",
          "type": "uint256"
        }
      ],
      "name": "getL2Output",
      "outputs": [
        {
          "components": [
            {
              "internalType": "bytes32",
              "name": "outputRoot",
              "type": "bytes32"
            },
            {
              "internalType": "uint128",
              "name": "timestamp",
              "type": "uint128"
            },
            {
              "internalType": "uint128",
              "name": "l2BlockNumber",
              "type": "uint128"
            }
          ],
          "internalType": "struct Types.CheckpointOutput",
          "name": "",
          "type": "tuple"
        }
      ],
      "stateMutability": "view",
      "type": "function"
    },
    {
      "inputs": [
        {
          "internalType": "uint256",
          "name": "_l2BlockNumber",
          "type": "uint256"
        }
      ],
      "name": "getL2OutputAfter",
      "outputs": [
        {
          "components": [
            {
              "internalType": "bytes32",
              "name": "outputRoot",
              "type": "bytes32"
            },
            {
              "internalType": "uint128",
              "name": "timestamp",
              "type": "uint128"
            },
            {
              "internalType": "uint128",
              "name": "l2BlockNumber",
              "type": "uint128"
            }
          ],
          "internalType": "struct Types.CheckpointOutput",
          "name": "",
          "type": "tuple"
        }
      ],
      "stateMutability": "view",
      "type": "function"
    },
    {
      "inputs": [
        {
          "internalType": "uint256",
          "name": "_l2BlockNumber",
          "type": "uint256"
        }
      ],
      "name": "getL2OutputIndexAfter",
      "outputs": [
        {
          "internalType": "uint256",
          "name": "",
          "type": "uint256"
        }
      ],
      "stateMutability": "view",
      "type": "function"
    },
    {
      "inputs": [
        {
          "internalType": "uint256",
          "name": "_startingBlockNumber",
          "type": "uint256"
        },
        {
          "internalType": "uint256",
          "name": "_startingTimestamp",
          "type": "uint256"
        }
      ],
      "name": "initialize",
      "outputs": [],
      "stateMutability": "nonpayable",
      "type": "function"
    },
    {
      "inputs": [],
      "name": "latestBlockNumber",
      "outputs": [
        {
          "internalType": "uint256",
          "name": "",
          "type": "uint256"
        }
      ],
      "stateMutability": "view",
      "type": "function"
    },
    {
      "inputs": [],
      "name": "latestOutputIndex",
      "outputs": [
        {
          "internalType": "uint256",
          "name": "",
          "type": "uint256"
        }
      ],
      "stateMutability": "view",
      "type": "function"
    },
    {
      "inputs": [],
      "name": "nextBlockNumber",
      "outputs": [
        {
          "internalType": "uint256",
          "name": "",
          "type": "uint256"
        }
      ],
      "stateMutability": "view",
      "type": "function"
    },
    {
      "inputs": [],
      "name": "nextOutputIndex",
      "outputs": [
        {
          "internalType": "uint256",
          "name": "",
          "type": "uint256"
        }
      ],
      "stateMutability": "view",
      "type": "function"
    },
    {
      "inputs": [],
      "name": "startingBlockNumber",
      "outputs": [
        {
          "internalType": "uint256",
          "name": "",
          "type": "uint256"
        }
      ],
      "stateMutability": "view",
      "type": "function"
    },
    {
      "inputs": [],
      "name": "startingTimestamp",
      "outputs": [
        {
          "internalType": "uint256",
          "name": "",
          "type": "uint256"
        }
      ],
      "stateMutability": "view",
      "type": "function"
    },
    {
      "inputs": [
        {
          "internalType": "bytes32",
          "name": "_outputRoot",
          "type": "bytes32"
        },
        {
          "internalType": "uint256",
          "name": "_l2BlockNumber",
          "type": "uint256"
        },
        {
          "internalType": "bytes32",
          "name": "_l1BlockHash",
          "type": "bytes32"
        },
        {
          "internalType": "uint256",
          "name": "_l1BlockNumber",
          "type": "uint256"
        }
      ],
      "name": "submitL2Output",
      "outputs": [],
      "stateMutability": "payable",
      "type": "function"
    },
    {
      "inputs": [],
      "name": "version",
      "outputs": [
        {
          "internalType": "string",
          "name": "",
          "type": "string"
        }
      ],
      "stateMutability": "view",
      "type": "function"
    }
  ],
  "transactionHash": "0x7b8f19011a26f901fd43f87b272df1998f22a0feca5abb6080c5d98be1192b3d",
  "args": [
    20,
    2,
    0,
    0,
    "0x496c79132B773940ca5B38EBcc0C56887a0ea164",
    "0xcfbD78F3D57B620ddEff73F193dD5Bf595a730db",
    60
  ],
  "numDeployments": 2,
  "solcInputHash": "be33db46f19a08918a4e49475dec5a2f",
  "bytecode": "0x6101806040523480156200001257600080fd5b50604051620019d8380380620019d8833981016040819052620000359162000364565b60006080819052600160a05260c05285620000bd5760405162461bcd60e51b815260206004820152603460248201527f4c324f75747075744f7261636c653a204c3220626c6f636b2074696d65206d7560448201527f73742062652067726561746572207468616e203000000000000000000000000060648201526084015b60405180910390fd5b858711620001435760405162461bcd60e51b815260206004820152604660248201527f4c324f75747075744f7261636c653a207375626d697373696f6e20696e74657260448201527f76616c206d7573742062652067726561746572207468616e204c3220626c6f636064820152656b2074696d6560d01b608482015260a401620000b4565b60e08790526101008690526001600160a01b038084166101405282166101205261016081905262000175858562000182565b50505050505050620003cc565b600054610100900460ff1615808015620001a35750600054600160ff909116105b80620001d35750620001c0306200033860201b620011311760201c565b158015620001d3575060005460ff166001145b620002385760405162461bcd60e51b815260206004820152602e60248201527f496e697469616c697a61626c653a20636f6e747261637420697320616c72656160448201526d191e481a5b9a5d1a585b1a5e995960921b6064820152608401620000b4565b6000805460ff1916600117905580156200025c576000805461ff0019166101001790555b42821115620002e25760405162461bcd60e51b8152602060048201526044602482018190527f4c324f75747075744f7261636c653a207374617274696e67204c322074696d65908201527f7374616d70206d757374206265206c657373207468616e2063757272656e742060648201526374696d6560e01b608482015260a401620000b4565b60028290556001839055801562000333576000805461ff0019169055604051600181527f7f26b83ff96e1f2b6a682f133852f6798a09c465da95921460cefb38474024989060200160405180910390a15b505050565b6001600160a01b03163b151590565b80516001600160a01b03811681146200035f57600080fd5b919050565b600080600080600080600060e0888a0312156200038057600080fd5b87519650602088015195506040880151945060608801519350620003a76080890162000347565b9250620003b760a0890162000347565b915060c0880151905092959891949750929550565b60805160a05160c05160e0516101005161012051610140516101605161158362000455600039600081816104150152610c8b0152600081816101a101526105650152600081816102a40152610b5901526000818161015a0152610e9901526000818161020f0152610ee701526000610503015260006104da015260006104b101526115836000f3fe6080604052600436106101435760003560e01c806370872aa5116100c0578063cf8e5cf011610074578063dcec334811610059578063dcec3348146103ce578063e4a30116146103e3578063f4daa2911461040357600080fd5b8063cf8e5cf01461038e578063d1de856c146103ae57600080fd5b806388786272116100a557806388786272146102fc57806389c44cbb14610312578063a25ae5571461033257600080fd5b806370872aa5146102c65780637f006420146102dc57600080fd5b806354fd4d501161011757806369f16eec116100fc57806369f16eec146102685780636abcf5631461027d5780636b4d98dd1461029257600080fd5b806354fd4d50146102315780635a045f781461025357600080fd5b80622134cc14610148578063393df8cb1461018f5780634599c788146101e8578063529933df146101fd575b600080fd5b34801561015457600080fd5b5061017c7f000000000000000000000000000000000000000000000000000000000000000081565b6040519081526020015b60405180910390f35b34801561019b57600080fd5b506101c37f000000000000000000000000000000000000000000000000000000000000000081565b60405173ffffffffffffffffffffffffffffffffffffffff9091168152602001610186565b3480156101f457600080fd5b5061017c610437565b34801561020957600080fd5b5061017c7f000000000000000000000000000000000000000000000000000000000000000081565b34801561023d57600080fd5b506102466104aa565b60405161018691906112ba565b61026661026136600461130b565b61054d565b005b34801561027457600080fd5b5061017c61094f565b34801561028957600080fd5b5060035461017c565b34801561029e57600080fd5b506101c37f000000000000000000000000000000000000000000000000000000000000000081565b3480156102d257600080fd5b5061017c60015481565b3480156102e857600080fd5b5061017c6102f736600461133d565b610961565b34801561030857600080fd5b5061017c60025481565b34801561031e57600080fd5b5061026661032d36600461133d565b610b41565b34801561033e57600080fd5b5061035261034d36600461133d565b610dc9565b60408051825181526020808401516fffffffffffffffffffffffffffffffff908116918301919091529282015190921690820152606001610186565b34801561039a57600080fd5b506103526103a936600461133d565b610e5d565b3480156103ba57600080fd5b5061017c6103c936600461133d565b610e95565b3480156103da57600080fd5b5061017c610ee3565b3480156103ef57600080fd5b506102666103fe366004611356565b610f18565b34801561040f57600080fd5b5061017c7f000000000000000000000000000000000000000000000000000000000000000081565b600354600090156104a15760038054610452906001906113a7565b81548110610462576104626113be565b600091825260209091206002909102016001015470010000000000000000000000000000000090046fffffffffffffffffffffffffffffffff16919050565b6001545b905090565b60606104d57f000000000000000000000000000000000000000000000000000000000000000061114d565b6104fe7f000000000000000000000000000000000000000000000000000000000000000061114d565b6105277f000000000000000000000000000000000000000000000000000000000000000061114d565b604051602001610539939291906113ed565b604051602081830303815290604052905090565b3373ffffffffffffffffffffffffffffffffffffffff7f000000000000000000000000000000000000000000000000000000000000000016146106235760405162461bcd60e51b815260206004820152604160248201527f4c324f75747075744f7261636c653a206f6e6c79207468652076616c6964617460448201527f6f7220616464726573732063616e207375626d6974206e6577206f757470757460648201527f7300000000000000000000000000000000000000000000000000000000000000608482015260a4015b60405180910390fd5b61062b610ee3565b83146106c55760405162461bcd60e51b815260206004820152604860248201527f4c324f75747075744f7261636c653a20626c6f636b206e756d626572206d757360448201527f7420626520657175616c20746f206e65787420657870656374656420626c6f6360648201527f6b206e756d626572000000000000000000000000000000000000000000000000608482015260a40161061a565b426106cf84610e95565b106107425760405162461bcd60e51b815260206004820152603560248201527f4c324f75747075744f7261636c653a2063616e6e6f74207375626d6974204c3260448201527f206f757470757420696e20746865206675747572650000000000000000000000606482015260840161061a565b836107b55760405162461bcd60e51b815260206004820152603c60248201527f4c324f75747075744f7261636c653a204c3220636865636b706f696e74206f7560448201527f747075742063616e6e6f7420626520746865207a65726f206861736800000000606482015260840161061a565b811561085757818140146108575760405162461bcd60e51b815260206004820152604960248201527f4c324f75747075744f7261636c653a20626c6f636b206861736820646f65732060448201527f6e6f74206d61746368207468652068617368206174207468652065787065637460648201527f6564206865696768740000000000000000000000000000000000000000000000608482015260a40161061a565b8261086160035490565b857f457b4388026260019ae0b0b4f16c98235d74fe7359be469bdcba16e6d0d496894260405161089391815260200190565b60405180910390a45050604080516060810182529283526fffffffffffffffffffffffffffffffff4281166020850190815292811691840191825260038054600181018255600091909152935160029094027fc2575a0e9e593c00f959f8c92f12db2869c3395a3b0502d05e2516446f71f85b810194909455915190518216700100000000000000000000000000000000029116177fc2575a0e9e593c00f959f8c92f12db2869c3395a3b0502d05e2516446f71f85c90910155565b6003546000906104a5906001906113a7565b600061096b610437565b821115610a065760405162461bcd60e51b815260206004820152604960248201527f4c324f75747075744f7261636c653a2063616e6e6f7420676574206f7574707560448201527f7420666f72206120626c6f636b207468617420686173206e6f74206265656e2060648201527f7375626d69747465640000000000000000000000000000000000000000000000608482015260a40161061a565b600354610aa15760405162461bcd60e51b815260206004820152604760248201527f4c324f75747075744f7261636c653a2063616e6e6f7420676574206f7574707560448201527f74206173206e6f206f7574707574732068617665206265656e207375626d697460648201527f7465642079657400000000000000000000000000000000000000000000000000608482015260a40161061a565b6003546000905b80821015610b3a5760006002610abe8385611463565b610ac891906114aa565b90508460038281548110610ade57610ade6113be565b600091825260209091206002909102016001015470010000000000000000000000000000000090046fffffffffffffffffffffffffffffffff161015610b3057610b29816001611463565b9250610b34565b8091505b50610aa8565b5092915050565b3373ffffffffffffffffffffffffffffffffffffffff7f00000000000000000000000000000000000000000000000000000000000000001614610bec5760405162461bcd60e51b815260206004820152603e60248201527f4c324f75747075744f7261636c653a206f6e6c7920746865206368616c6c656e60448201527f67657220616464726573732063616e2064656c657465206f7574707574730000606482015260840161061a565b6003548110610c895760405162461bcd60e51b815260206004820152604360248201527f4c324f75747075744f7261636c653a2063616e6e6f742064656c657465206f7560448201527f747075747320616674657220746865206c6174657374206f757470757420696e60648201527f6465780000000000000000000000000000000000000000000000000000000000608482015260a40161061a565b7f000000000000000000000000000000000000000000000000000000000000000060038281548110610cbd57610cbd6113be565b6000918252602090912060016002909202010154610ced906fffffffffffffffffffffffffffffffff16426113a7565b10610d865760405162461bcd60e51b815260206004820152604660248201527f4c324f75747075744f7261636c653a2063616e6e6f742064656c657465206f7560448201527f74707574732074686174206861766520616c7265616479206265656e2066696e60648201527f616c697a65640000000000000000000000000000000000000000000000000000608482015260a40161061a565b6000610d9160035490565b90508160035581817f4ee37ac2c786ec85e87592d3c5c8a1dd66f8496dda3f125d9ea8ca5f657629b660405160405180910390a35050565b604080516060810182526000808252602082018190529181019190915260038281548110610df957610df96113be565b600091825260209182902060408051606081018252600290930290910180548352600101546fffffffffffffffffffffffffffffffff8082169484019490945270010000000000000000000000000000000090049092169181019190915292915050565b60408051606081018252600080825260208201819052918101919091526003610e8583610961565b81548110610df957610df96113be565b60007f000000000000000000000000000000000000000000000000000000000000000060015483610ec691906113a7565b610ed091906114be565b600254610edd9190611463565b92915050565b60007f0000000000000000000000000000000000000000000000000000000000000000610f0e610437565b6104a59190611463565b600054610100900460ff1615808015610f385750600054600160ff909116105b80610f525750303b158015610f52575060005460ff166001145b610fc45760405162461bcd60e51b815260206004820152602e60248201527f496e697469616c697a61626c653a20636f6e747261637420697320616c72656160448201527f647920696e697469616c697a6564000000000000000000000000000000000000606482015260840161061a565b600080547fffffffffffffffffffffffffffffffffffffffffffffffffffffffffffffff00166001179055801561102257600080547fffffffffffffffffffffffffffffffffffffffffffffffffffffffffffff00ff166101001790555b428211156110bf5760405162461bcd60e51b8152602060048201526044602482018190527f4c324f75747075744f7261636c653a207374617274696e67204c322074696d65908201527f7374616d70206d757374206265206c657373207468616e2063757272656e742060648201527f74696d6500000000000000000000000000000000000000000000000000000000608482015260a40161061a565b60028290556001839055801561112c57600080547fffffffffffffffffffffffffffffffffffffffffffffffffffffffffffff00ff169055604051600181527f7f26b83ff96e1f2b6a682f133852f6798a09c465da95921460cefb38474024989060200160405180910390a15b505050565b73ffffffffffffffffffffffffffffffffffffffff163b151590565b60608160000361119057505060408051808201909152600181527f3000000000000000000000000000000000000000000000000000000000000000602082015290565b8160005b81156111ba57806111a4816114fb565b91506111b39050600a836114aa565b9150611194565b60008167ffffffffffffffff8111156111d5576111d5611533565b6040519080825280601f01601f1916602001820160405280156111ff576020820181803683370190505b5090505b8415611282576112146001836113a7565b9150611221600a86611562565b61122c906030611463565b60f81b818381518110611241576112416113be565b60200101907effffffffffffffffffffffffffffffffffffffffffffffffffffffffffffff1916908160001a90535061127b600a866114aa565b9450611203565b949350505050565b60005b838110156112a557818101518382015260200161128d565b838111156112b4576000848401525b50505050565b60208152600082518060208401526112d981604085016020870161128a565b601f017fffffffffffffffffffffffffffffffffffffffffffffffffffffffffffffffe0169190910160400192915050565b6000806000806080858703121561132157600080fd5b5050823594602084013594506040840135936060013592509050565b60006020828403121561134f57600080fd5b5035919050565b6000806040838503121561136957600080fd5b50508035926020909101359150565b7f4e487b7100000000000000000000000000000000000000000000000000000000600052601160045260246000fd5b6000828210156113b9576113b9611378565b500390565b7f4e487b7100000000000000000000000000000000000000000000000000000000600052603260045260246000fd5b600084516113ff81846020890161128a565b80830190507f2e00000000000000000000000000000000000000000000000000000000000000808252855161143b816001850160208a0161128a565b6001920191820152835161145681600284016020880161128a565b0160020195945050505050565b6000821982111561147657611476611378565b500190565b7f4e487b7100000000000000000000000000000000000000000000000000000000600052601260045260246000fd5b6000826114b9576114b961147b565b500490565b6000817fffffffffffffffffffffffffffffffffffffffffffffffffffffffffffffffff04831182151516156114f6576114f6611378565b500290565b60007fffffffffffffffffffffffffffffffffffffffffffffffffffffffffffffffff820361152c5761152c611378565b5060010190565b7f4e487b7100000000000000000000000000000000000000000000000000000000600052604160045260246000fd5b6000826115715761157161147b565b50069056fea164736f6c634300080f000a",
  "devdoc": {
    "version": 1,
    "kind": "dev",
    "methods": {
      "computeL2Timestamp(uint256)": {
        "params": {
          "_l2BlockNumber": "The L2 block number of the target block."
        },
        "returns": {
          "_0": "L2 timestamp of the given block."
        }
      },
      "constructor": {
        "params": {
          "_challenger": "The address of the challenger.",
          "_finalizationPeriodSeconds": "Output finalization time in seconds.",
          "_l2BlockTime": "The time per L2 block, in seconds.",
          "_startingBlockNumber": "The number of the first L2 block.",
          "_startingTimestamp": "The timestamp of the first L2 block.",
          "_submissionInterval": "Interval in blocks at which checkpoints must be submitted.",
          "_validator": "The address of the validator."
        }
      },
      "deleteL2Outputs(uint256)": {
        "params": {
          "_l2OutputIndex": "Index of the first L2 output to be deleted. All outputs after this                       output will also be deleted."
        }
      },
      "getL2Output(uint256)": {
        "params": {
          "_l2OutputIndex": "Index of the output to return."
        },
        "returns": {
          "_0": "The output at the given index."
        }
      },
      "getL2OutputAfter(uint256)": {
        "params": {
          "_l2BlockNumber": "L2 block number to find a checkpoint for."
        },
        "returns": {
          "_0": "First checkpoint that commits to the given L2 block number."
        }
      },
      "getL2OutputIndexAfter(uint256)": {
        "params": {
          "_l2BlockNumber": "L2 block number to find a checkpoint for."
        },
        "returns": {
          "_0": "Index of the first checkpoint that commits to the given L2 block number."
        }
      },
      "initialize(uint256,uint256)": {
        "params": {
          "_startingBlockNumber": "Block number for the first recorded L2 block.",
          "_startingTimestamp": "Timestamp for the first recorded L2 block."
        }
      },
      "latestBlockNumber()": {
        "returns": {
          "_0": "Latest submitted L2 block number."
        }
      },
      "latestOutputIndex()": {
        "returns": {
          "_0": "The number of outputs that have been submitted."
        }
      },
      "nextBlockNumber()": {
        "returns": {
          "_0": "Next L2 block number."
        }
      },
      "nextOutputIndex()": {
        "returns": {
          "_0": "The index of the next output to be submitted."
        }
      },
      "submitL2Output(bytes32,uint256,bytes32,uint256)": {
        "params": {
          "_l1BlockHash": "A block hash which must be included in the current chain.",
          "_l1BlockNumber": "The block number with the specified block hash.",
          "_l2BlockNumber": "The L2 block number that resulted in _outputRoot.",
          "_outputRoot": "The L2 output of the checkpoint block."
        }
      },
      "version()": {
        "returns": {
          "_0": "Semver contract version as a string."
        }
      }
    },
    "events": {
      "OutputSubmitted(bytes32,uint256,uint256,uint256)": {
        "params": {
          "l1Timestamp": "The L1 timestamp when submitted.",
          "l2BlockNumber": "The L2 block number of the output root.",
          "l2OutputIndex": "The index of the output in the l2Outputs array.",
          "outputRoot": "The output root."
        }
      },
      "OutputsDeleted(uint256,uint256)": {
        "params": {
          "newNextOutputIndex": "Next L2 output index after the deletion.",
          "prevNextOutputIndex": "Next L2 output index before the deletion."
        }
      }
    }
  },
  "userdoc": {
    "version": 1,
    "kind": "user",
    "methods": {
      "CHALLENGER()": {
        "notice": "The address of the challenger. Can be updated via upgrade."
      },
      "FINALIZATION_PERIOD_SECONDS()": {
        "notice": "Minimum time (in seconds) that must elapse before a withdrawal can be finalized."
      },
      "L2_BLOCK_TIME()": {
        "notice": "The time between L2 blocks in seconds. Once set, this value MUST NOT be modified."
      },
      "SUBMISSION_INTERVAL()": {
        "notice": "The interval in L2 blocks at which checkpoints must be submitted. Although this is         immutable, it can safely be modified by upgrading the implementation contract."
      },
      "VALIDATOR()": {
        "notice": "The address of the validator. Can be updated via upgrade."
      },
      "computeL2Timestamp(uint256)": {
        "notice": "Returns the L2 timestamp corresponding to a given L2 block number."
      },
      "deleteL2Outputs(uint256)": {
        "notice": "Deletes all checkpoint outputs after and including the output that corresponds to         the given output index. Only the challenger address can delete outputs."
      },
      "getL2Output(uint256)": {
        "notice": "Returns an output by index. Exists because Solidity's array access will return a         tuple instead of a struct."
      },
      "getL2OutputAfter(uint256)": {
        "notice": "Returns the L2 checkpoint output that checkpoints a given L2 block number. Uses a         binary search to find the first output greater than or equal to the given block."
      },
      "getL2OutputIndexAfter(uint256)": {
        "notice": "Returns the index of the L2 output that checkpoints a given L2 block number. Uses a         binary search to find the first output greater than or equal to the given block."
      },
      "initialize(uint256,uint256)": {
        "notice": "Initializer."
      },
      "latestBlockNumber()": {
        "notice": "Returns the block number of the latest submitted L2 checkpoint output. If no outputs         have been submitted yet then this function will return the starting block number."
      },
      "latestOutputIndex()": {
        "notice": "Returns the number of outputs that have been submitted. Will revert if no outputs         have been submitted yet."
      },
      "nextBlockNumber()": {
        "notice": "Computes the block number of the next L2 block that needs to be checkpointed."
      },
      "nextOutputIndex()": {
        "notice": "Returns the index of the next output to be submitted."
      },
      "startingBlockNumber()": {
        "notice": "The number of the first L2 block recorded in this contract."
      },
      "startingTimestamp()": {
        "notice": "The timestamp of the first L2 block recorded in this contract."
      },
      "submitL2Output(bytes32,uint256,bytes32,uint256)": {
        "notice": "Accepts an outputRoot and the timestamp of the corresponding L2 block. The timestamp         must be equal to the current value returned by `nextTimestamp()` in order to be         accepted. This function may only be called by the Validator."
      },
      "version()": {
        "notice": "Returns the full semver contract version."
      }
    },
    "events": {
      "OutputSubmitted(bytes32,uint256,uint256,uint256)": {
        "notice": "Emitted when an output is submitted."
      },
      "OutputsDeleted(uint256,uint256)": {
        "notice": "Emitted when outputs are deleted."
      }
    },
    "notice": "The L2OutputOracle contains an array of L2 state outputs, where each output is a         commitment to the state of the L2 chain. Other contracts like the KromaPortal use         these outputs to verify information about the state of L2."
  },
  "storageLayout": {
    "storage": [
      {
        "astId": 18060,
        "contract": "contracts/L1/L2OutputOracle.sol:L2OutputOracle",
        "label": "_initialized",
        "offset": 0,
        "slot": "0",
        "type": "t_uint8"
      },
      {
        "astId": 18063,
        "contract": "contracts/L1/L2OutputOracle.sol:L2OutputOracle",
        "label": "_initializing",
        "offset": 1,
        "slot": "0",
        "type": "t_bool"
      },
      {
        "astId": 2062,
        "contract": "contracts/L1/L2OutputOracle.sol:L2OutputOracle",
        "label": "startingBlockNumber",
        "offset": 0,
        "slot": "1",
        "type": "t_uint256"
      },
      {
        "astId": 2065,
        "contract": "contracts/L1/L2OutputOracle.sol:L2OutputOracle",
        "label": "startingTimestamp",
        "offset": 0,
        "slot": "2",
        "type": "t_uint256"
      },
      {
        "astId": 2070,
        "contract": "contracts/L1/L2OutputOracle.sol:L2OutputOracle",
        "label": "l2Outputs",
        "offset": 0,
        "slot": "3",
        "type": "t_array(t_struct(CheckpointOutput)11840_storage)dyn_storage"
      }
    ],
    "types": {
      "t_array(t_struct(CheckpointOutput)11840_storage)dyn_storage": {
        "encoding": "dynamic_array",
        "label": "struct Types.CheckpointOutput[]",
        "numberOfBytes": "32",
        "base": "t_struct(CheckpointOutput)11840_storage"
      },
      "t_bool": {
        "encoding": "inplace",
        "label": "bool",
        "numberOfBytes": "1"
      },
      "t_bytes32": {
        "encoding": "inplace",
        "label": "bytes32",
        "numberOfBytes": "32"
      },
      "t_struct(CheckpointOutput)11840_storage": {
        "encoding": "inplace",
        "label": "struct Types.CheckpointOutput",
        "numberOfBytes": "64",
        "members": [
          {
            "astId": 11835,
            "contract": "contracts/L1/L2OutputOracle.sol:L2OutputOracle",
            "label": "outputRoot",
            "offset": 0,
            "slot": "0",
            "type": "t_bytes32"
          },
          {
            "astId": 11837,
            "contract": "contracts/L1/L2OutputOracle.sol:L2OutputOracle",
            "label": "timestamp",
            "offset": 0,
            "slot": "1",
            "type": "t_uint128"
          },
          {
            "astId": 11839,
            "contract": "contracts/L1/L2OutputOracle.sol:L2OutputOracle",
            "label": "l2BlockNumber",
            "offset": 16,
            "slot": "1",
            "type": "t_uint128"
          }
        ]
      },
      "t_uint128": {
        "encoding": "inplace",
        "label": "uint128",
        "numberOfBytes": "16"
      },
      "t_uint256": {
        "encoding": "inplace",
        "label": "uint256",
        "numberOfBytes": "32"
      },
      "t_uint8": {
        "encoding": "inplace",
        "label": "uint8",
        "numberOfBytes": "1"
      }
    }
  }
}