{
  "address": "0xDAb28073Fa01A171D2AF5707F3b7D2F065bE95dD",
  "abi": [
    {
      "inputs": [
        {
          "internalType": "address",
          "name": "_poseidon2",
          "type": "address"
        }
      ],
      "stateMutability": "nonpayable",
      "type": "constructor"
    },
    {
      "inputs": [],
      "name": "POSEIDON2",
      "outputs": [
        {
          "internalType": "contract IPoseidon2",
          "name": "",
          "type": "address"
        }
      ],
      "stateMutability": "view",
      "type": "function"
    },
    {
      "inputs": [
        {
          "internalType": "bytes32",
          "name": "_key",
          "type": "bytes32"
        },
        {
          "internalType": "bytes[]",
          "name": "_proofs",
          "type": "bytes[]"
        },
        {
          "internalType": "bytes32",
          "name": "_root",
          "type": "bytes32"
        }
      ],
      "name": "get",
      "outputs": [
        {
          "internalType": "bool",
          "name": "",
          "type": "bool"
        },
        {
          "internalType": "bytes",
          "name": "",
          "type": "bytes"
        }
      ],
      "stateMutability": "view",
      "type": "function"
    },
    {
      "inputs": [
        {
          "internalType": "bytes32",
          "name": "_key",
          "type": "bytes32"
        },
        {
          "internalType": "bytes",
          "name": "_value",
          "type": "bytes"
        },
        {
          "internalType": "bytes[]",
          "name": "_proofs",
          "type": "bytes[]"
        },
        {
          "internalType": "bytes32",
          "name": "_root",
          "type": "bytes32"
        }
      ],
      "name": "verifyInclusionProof",
      "outputs": [
        {
          "internalType": "bool",
          "name": "",
          "type": "bool"
        }
      ],
      "stateMutability": "view",
      "type": "function"
    }
  ],
  "transactionHash": "0xa406484aa2b2006b8ade4b69ad5b0b0e3f7821e2851b6b6938bbefaab565d628",
  "args": [
    "0x56cB5406C23d0fb16EaC535D6108CA72980c8072"
  ],
  "numDeployments": 1,
  "solcInputHash": "be33db46f19a08918a4e49475dec5a2f",
  "bytecode": "0x60a060405234801561001057600080fd5b50604051611d53380380611d5383398101604081905261002f91610040565b6001600160a01b0316608052610070565b60006020828403121561005257600080fd5b81516001600160a01b038116811461006957600080fd5b9392505050565b608051611cad6100a66000396000818160940152818161091a01528181610b6401528181610c600152610e2a0152611cad6000f3fe608060405234801561001057600080fd5b50600436106100415760003560e01c806312e64a7214610046578063c423b1e81461006e578063dc8b50381461008f575b600080fd5b6100596100543660046118a6565b6100db565b60405190151581526020015b60405180910390f35b61008161007c36600461191b565b6101a6565b6040516100659291906119e5565b6100b67f000000000000000000000000000000000000000000000000000000000000000081565b60405173ffffffffffffffffffffffffffffffffffffffff9091168152602001610065565b6040517fc423b1e800000000000000000000000000000000000000000000000000000000815260009081908190309063c423b1e890610122908a9089908990600401611a00565b600060405180830381865afa15801561013f573d6000803e3d6000fd5b505050506040513d6000823e601f3d9081017fffffffffffffffffffffffffffffffffffffffffffffffffffffffffffffffe01682016040526101859190810190611a90565b9150915081801561019b575061019b868261089b565b979650505050505050565b600060606002845110156102275760405162461bcd60e51b815260206004820152602960248201527f5a4b4d65726b6c65547269653a2070726f76696465642070726f6f662069732060448201527f746f6f2073686f7274000000000000000000000000000000000000000000000060648201526084015b60405180910390fd5b61027e84600186516102399190611b51565b8151811061024957610249611b68565b602002602001015180516020909101207f950654da67865a81bc70e45f3230f5179f08e29c66184bf746f71050f117b3b81490565b6102f05760405162461bcd60e51b815260206004820152602d60248201527f5a4b4d65726b6c65547269653a20746865206c617374206974656d206973206e60448201527f6f74206d61676963206861736800000000000000000000000000000000000000606482015260840161021e565b60006102fb866108b7565b9050600061030886610996565b90506103526040805161010081019091528060008152600060208201819052604082018190526060808301829052608083015260a0820181905260c0820181905260e09091015290565b60408051602081019091526000808252835190918291829190829061037990600290611b51565b90505b86818151811061038e5761038e611b68565b6020026020010151602001519550600060038111156103af576103af611b97565b865160038111156103c2576103c2611b97565b036105015760006103d38983610a89565b90508015610433578660200151861461042e5760405162461bcd60e51b815260206004820152601b60248201527f5a4b4d65726b6c65547269653a20696e76616c6964206b6579204c0000000000604482015260640161021e565b610486565b866040015186146104865760405162461bcd60e51b815260206004820152601b60248201527f5a4b4d65726b6c65547269653a20696e76616c6964206b657920520000000000604482015260640161021e565b6040805160028082526060820183526000926020830190803683370190505090508760200151816000815181106104bf576104bf611b68565b6020026020010181815250508760400151816001815181106104e3576104e3611b68565b6020026020010181815250506104f881610ae6565b96505050610805565b60018651600381111561051657610516611b97565b0361077257831561058f5760405162461bcd60e51b815260206004820152602260248201527f5a4b4d65726b6c65547269653a206475706c696361746564206c656166206e6f60448201527f6465000000000000000000000000000000000000000000000000000000000000606482015260840161021e565b604080516003808252608082019092526001955060009160208201606080368337019050509050600160001b816000815181106105ce576105ce611b68565b6020026020010181815250508660600151816001815181106105f2576105f2611b68565b6020026020010181815250506106108760a001518860800151610f5c565b8160028151811061062357610623611b68565b60200260200101818152505061063881610ae6565b9550866080015151602061064c9190611bc6565b67ffffffffffffffff811115610664576106646116ed565b6040519080825280601f01601f19166020018201604052801561068e576020820181803683370190505b509250602060005b8860800151518110156106d9576000896080015182815181106106bb576106bb611b68565b60209081029190910181015187850152929092019150600101610696565b5060e08801511561076b578e8860e0015114806106f95750898860e00151145b61076b5760405162461bcd60e51b815260206004820152602260248201527f5a4b4d65726b6c65547269653a20696e76616c6964206b657920707265696d6160448201527f6765000000000000000000000000000000000000000000000000000000000000606482015260840161021e565b5050610805565b60028651600381111561078757610787611b97565b036108055782156108005760405162461bcd60e51b815260206004820152602360248201527f5a4b4d65726b6c65547269653a206475706c69636174656420656d707479206e60448201527f6f64650000000000000000000000000000000000000000000000000000000000606482015260840161021e565b600192505b80600003610861578a851461085c5760405162461bcd60e51b815260206004820152601960248201527f5a4b4d65726b65547269653a20696e76616c696420726f6f7400000000000000604482015260640161021e565b610888565b7fffffffffffffffffffffffffffffffffffffffffffffffffffffffffffffffff0161037c565b50919b919a509098505050505050505050565b6000818051906020012083805190602001201490505b92915050565b60008060006108c5846110f8565b6040805180820182528381526020810183905290517f299e566000000000000000000000000000000000000000000000000000000000815292945090925073ffffffffffffffffffffffffffffffffffffffff7f0000000000000000000000000000000000000000000000000000000000000000169163299e56609161094d91600401611c03565b602060405180830381865afa15801561096a573d6000803e3d6000fd5b505050506040513d601f19601f8201168201806040525081019061098e9190611c34565b949350505050565b805160609060008167ffffffffffffffff8111156109b6576109b66116ed565b6040519080825280602002602001820160405280156109ef57816020015b6109dc61168e565b8152602001906001900390816109d45790505b50905060005b610a00600184611b51565b811015610a81576000610a2b868381518110610a1e57610a1e611b68565b6020026020010151611120565b90506040518060400160405280878481518110610a4a57610a4a611b68565b6020026020010151815260200182815250838381518110610a6d57610a6d611b68565b6020908102919091010152506001016109f5565b509392505050565b60006101008210610adc5760405162461bcd60e51b815260206004820152601c60248201527f5a4b4d65726b6c65547269653a20746f6f206c6f6e6720646570746800000000604482015260640161021e565b506001901b161590565b6000600282511015610b605760405162461bcd60e51b815260206004820152602b60248201527f5a4b547269654861736865723a20746f6f206665772076616c75657320666f7260448201527f205f68617368456c656d73000000000000000000000000000000000000000000606482015260840161021e565b60007f000000000000000000000000000000000000000000000000000000000000000073ffffffffffffffffffffffffffffffffffffffff1663299e5660604051806040016040528086600081518110610bbc57610bbc611b68565b6020026020010151815260200186600181518110610bdc57610bdc611b68565b60200260200101518152506040518263ffffffff1660e01b8152600401610c039190611c03565b602060405180830381865afa158015610c20573d6000803e3d6000fd5b505050506040513d601f19601f82011682018060405250810190610c449190611c34565b90508251600203610c555792915050565b8251600303610d2d577f000000000000000000000000000000000000000000000000000000000000000073ffffffffffffffffffffffffffffffffffffffff1663299e5660604051806040016040528084815260200186600281518110610cbe57610cbe611b68565b60200260200101518152506040518263ffffffff1660e01b8152600401610ce59190611c03565b602060405180830381865afa158015610d02573d6000803e3d6000fd5b505050506040513d601f19601f82011682018060405250810190610d269190611c34565b9392505050565b600060028451610d3d9190611c4d565b610d48906001611c88565b67ffffffffffffffff811115610d6057610d606116ed565b604051908082528060200260200182016040528015610d89578160200160208202803683370190505b5090508181600081518110610da057610da0611b68565b60200260200101818152505060005b8151811015610f52578451610dc5826001611c88565b610dd0906002611bc6565b1115610e285784610de2826002611bc6565b610ded906001611c88565b81518110610dfd57610dfd611b68565b6020026020010151828281518110610e1757610e17611b68565b602002602001018181525050610f4a565b7f000000000000000000000000000000000000000000000000000000000000000073ffffffffffffffffffffffffffffffffffffffff1663299e5660604051806040016040528088856002610e7d9190611bc6565b81518110610e8d57610e8d611b68565b6020026020010151815260200188856002610ea89190611bc6565b610eb3906001611c88565b81518110610ec357610ec3611b68565b60200260200101518152506040518263ffffffff1660e01b8152600401610eea9190611c03565b602060405180830381865afa158015610f07573d6000803e3d6000fd5b505050506040513d601f19601f82011682018060405250810190610f2b9190611c34565b828281518110610f3d57610f3d611b68565b6020026020010181815250505b600101610daf565b5061098e81610ae6565b6000600182511015610fd65760405162461bcd60e51b815260206004820152602b60248201527f5a4b547269654861736865723a20746f6f206665772076616c75657320666f7260448201527f205f76616c756548617368000000000000000000000000000000000000000000606482015260840161021e565b6000825167ffffffffffffffff811115610ff257610ff26116ed565b60405190808252806020026020018201604052801561101b578160200160208202803683370190505b50905060005b83518110156110c1576001811b851663ffffffff16156110805761105d84828151811061105057611050611b68565b60200260200101516108b7565b82828151811061106f5761106f611b68565b6020026020010181815250506110b9565b83818151811061109257611092611b68565b60200260200101518282815181106110ac576110ac611b68565b6020026020010181815250505b600101611021565b506002835110156110ef57806000815181106110df576110df611b68565b60200260200101519150506108b1565b61098e81610ae6565b60008082608081901b61110b8260801c90565b6111158260801c90565b935093505050915091565b60408051610100810182526000808252602082018190529181018290526060808201839052608082015260a0810182905260c0810182905260e081019190915260408051610100810182526000808252602082018190529181018290526060808201839052608082015260a0810182905260c0810182905260e081019190915260006111d4846040805180820182526060815260006020918201528151808301909252828101825291519181019190915290565b905060006111e182611400565b60ff1690508061120c576111f482611487565b602084015261120282611487565b60408401526113bc565b600181036112f65761121d82611487565b606084015260008061122e84611525565b63ffffffff821660a088015290925060ff1690508067ffffffffffffffff81111561125b5761125b6116ed565b604051908082528060200260200182016040528015611284578160200160208202803683370190505b50608086015260005b818110156112c75761129e85611487565b866080015182815181106112b4576112b4611b68565b602090810291909101015260010161128d565b5060006112d385611400565b60ff16905080156112ee576112e885826115bf565b60e08701525b5050506113bc565b600281146113bc57600381036113745760405162461bcd60e51b815260206004820152602560248201527f4e6f64655265616465723a20756e657870656374656420726f6f74206e6f646560448201527f2074797065000000000000000000000000000000000000000000000000000000606482015260840161021e565b60405162461bcd60e51b815260206004820152601d60248201527f4e6f64655265616465723a20696e76616c6964206e6f64652074797065000000604482015260640161021e565b8060038111156113ce576113ce611b97565b839060038111156113e1576113e1611b97565b908160038111156113f4576113f4611b97565b90525091949350505050565b60006001826020015110156114575760405162461bcd60e51b815260206004820152601f60248201527f4e6f64655265616465723a20746f6f2073686f727420666f722075696e743800604482015260640161021e565b81518051600180830180865260208601805191949360f81c929161147c908390611b51565b905250949350505050565b60006020826020015110156115045760405162461bcd60e51b815260206004820152602160248201527f4e6f64655265616465723a20746f6f2073686f727420666f722062797465733360448201527f3200000000000000000000000000000000000000000000000000000000000000606482015260840161021e565b8151805160208083018086528186018051919493929161147c908390611b51565b60008060048360200151101561157d5760405162461bcd60e51b815260206004820181905260248201527f4e6f64655265616465723a20746f6f2073686f727420666f722075696e743332604482015260640161021e565b8251805160048083018087526020870180519194939260f084901c9260f885901c92906115ab908390611b51565b90525060ff90911697909650945050505050565b6000818360200151101561163b5760405162461bcd60e51b815260206004820152602160248201527f4e6f64655265616465723a20746f6f2073686f727420666f72206e206279746560448201527f7300000000000000000000000000000000000000000000000000000000000000606482015260840161021e565b825160609060008061164e866008611bc6565b61165a90610100611b51565b8351848801808a5260208a01805191975091831c94509192508791611680908390611b51565b905250909695505050505050565b6040518060400160405280606081526020016116e86040805161010081019091528060008152600060208201819052604082018190526060808301829052608083015260a0820181905260c0820181905260e09091015290565b905290565b7f4e487b7100000000000000000000000000000000000000000000000000000000600052604160045260246000fd5b604051601f82017fffffffffffffffffffffffffffffffffffffffffffffffffffffffffffffffe016810167ffffffffffffffff81118282101715611763576117636116ed565b604052919050565b600067ffffffffffffffff821115611785576117856116ed565b50601f017fffffffffffffffffffffffffffffffffffffffffffffffffffffffffffffffe01660200190565b600082601f8301126117c257600080fd5b81356117d56117d08261176b565b61171c565b8181528460208386010111156117ea57600080fd5b816020850160208301376000918101602001919091529392505050565b600082601f83011261181857600080fd5b8135602067ffffffffffffffff80831115611835576118356116ed565b8260051b61184483820161171c565b938452858101830193838101908886111561185e57600080fd5b84880192505b8583101561189a5782358481111561187c5760008081fd5b61188a8a87838c01016117b1565b8352509184019190840190611864565b98975050505050505050565b600080600080608085870312156118bc57600080fd5b84359350602085013567ffffffffffffffff808211156118db57600080fd5b6118e7888389016117b1565b945060408701359150808211156118fd57600080fd5b5061190a87828801611807565b949793965093946060013593505050565b60008060006060848603121561193057600080fd5b83359250602084013567ffffffffffffffff81111561194e57600080fd5b61195a86828701611807565b925050604084013590509250925092565b60005b8381101561198657818101518382015260200161196e565b83811115611995576000848401525b50505050565b600081518084526119b381602086016020860161196b565b601f017fffffffffffffffffffffffffffffffffffffffffffffffffffffffffffffffe0169290920160200192915050565b821515815260406020820152600061098e604083018461199b565b600060608201858352602060608185015281865180845260808601915060808160051b870101935082880160005b82811015611a7a577fffffffffffffffffffffffffffffffffffffffffffffffffffffffffffffff80888703018452611a6886835161199b565b95509284019290840190600101611a2e565b5050505050604092909201929092529392505050565b60008060408385031215611aa357600080fd5b82518015158114611ab357600080fd5b602084015190925067ffffffffffffffff811115611ad057600080fd5b8301601f81018513611ae157600080fd5b8051611aef6117d08261176b565b818152866020838501011115611b0457600080fd5b611b1582602083016020860161196b565b8093505050509250929050565b7f4e487b7100000000000000000000000000000000000000000000000000000000600052601160045260246000fd5b600082821015611b6357611b63611b22565b500390565b7f4e487b7100000000000000000000000000000000000000000000000000000000600052603260045260246000fd5b7f4e487b7100000000000000000000000000000000000000000000000000000000600052602160045260246000fd5b6000817fffffffffffffffffffffffffffffffffffffffffffffffffffffffffffffffff0483118215151615611bfe57611bfe611b22565b500290565b60408101818360005b6002811015611c2b578151835260209283019290910190600101611c0c565b50505092915050565b600060208284031215611c4657600080fd5b5051919050565b600082611c83577f4e487b7100000000000000000000000000000000000000000000000000000000600052601260045260246000fd5b500490565b60008219821115611c9b57611c9b611b22565b50019056fea164736f6c634300080f000a",
  "devdoc": {
    "version": 1,
    "kind": "dev",
    "methods": {
      "constructor": {
        "params": {
          "_poseidon2": "The address of poseidon2 contract."
        }
      },
      "get(bytes32,bytes[],bytes32)": {
        "params": {
          "_key": "Key to search for, as hex bytes.",
          "_proofs": "Merkle trie inclusion proof for the key.",
          "_root": "Known root of the Merkle trie."
        },
        "returns": {
          "_0": "Whether or not the key exists.",
          "_1": "Value of the key if it exists."
        }
      },
      "verifyInclusionProof(bytes32,bytes,bytes[],bytes32)": {
        "params": {
          "_key": "Key of the node to search for, as a hex string.",
          "_proofs": "Merkle trie inclusion proof for the desired node.",
          "_root": "Known root of the Merkle trie. Used to verify that the included proof is                correctly constructed.",
          "_value": "Value of the node to search for, as a hex string."
        },
        "returns": {
          "_0": "Whether or not the proof is valid."
        }
      }
    }
  },
  "userdoc": {
    "version": 1,
    "kind": "user",
    "methods": {
      "POSEIDON2()": {
        "notice": "Poseidon2 contract generated by circomlibjs."
      },
      "get(bytes32,bytes[],bytes32)": {
        "notice": "Retrieves the value associated with a given key."
      },
      "verifyInclusionProof(bytes32,bytes,bytes[],bytes32)": {
        "notice": "Verifies a proof that a given key/value pair is present in the trie."
      }
    },
    "notice": "The ZKMerkleTrie is contract which can produce a hash according to ZKTrie.         This owns an interface of Poseidon2 that is required to compute hash used by ZKTrie."
  }
}