{
  "address": "0x1D3b68fBD686e06Fbda1cb6cAF0C8DA558FCC3A0",
  "abi": [
    {
      "inputs": [
        {
          "internalType": "uint256[]",
          "name": "proof",
          "type": "uint256[]"
        },
        {
          "internalType": "uint256[]",
          "name": "target_circuit_final_pair",
          "type": "uint256[]"
        }
      ],
      "name": "verify",
      "outputs": [
        {
          "internalType": "bool",
          "name": "",
          "type": "bool"
        }
      ],
      "stateMutability": "view",
      "type": "function"
    }
  ],
  "transactionHash": "0x06e7d747b616beb0002ab436dd458aaed964bd1f487386389743194e898828db",
  "args": [],
  "numDeployments": 1,
  "solcInputHash": "be33db46f19a08918a4e49475dec5a2f",
  "bytecode": "0x608060405234801561001057600080fd5b5061598b80620000216000396000f3fe608060405234801561001057600080fd5b506004361061002b5760003560e01c8063b864f5a914610030575b600080fd5b61004361003e366004615703565b610057565b604051901515815260200160405180910390f35b60006100616155a0565b838360008181106100745761007461576f565b9050602002013570ffffffffffffffffffffffffffffffffff16816000600481106100a1576100a161576f565b60200201526088848460018181106100bb576100bb61576f565b90506020020135600116901b6088858560008181106100dc576100dc61576f565b90506020020135901c6100ef91906157cd565b6020820152838360028181106101075761010761576f565b9050602002013570ffffffffffffffffffffffffffffffffff16816002600481106101345761013461576f565b602002015260888484600381811061014e5761014e61576f565b90506020020135600116901b60888585600281811061016f5761016f61576f565b90506020020135901c61018291906157cd565b816003602002015260008080808060026040519080825280602002602001820160405280156101d757816020015b60408051808201909152600080825260208201528152602001906001900390816101b05790505b506040805160028082526060820190925291925060009190816020015b6101fc6155be565b8152602001906001900390816101f457905050905061021c8c8c8961048c565b855193995090975090955093508690839060009061023c5761023c61576f565b6020026020010151600001818152505083826000815181106102605761026061576f565b6020026020010151602001818152505084826001815181106102845761028461576f565b6020026020010151600001818152505082826001815181106102a8576102a861576f565b602002602001015160200181815250506102c0614950565b816000815181106102d3576102d361576f565b60200260200101819052506102e66149fb565b816001815181106102f9576102f961576f565b602002602001018190525061030e8282614aa2565b610322576000975050505050505050610484565b898960008181106103355761033561576f565b905060200201358260008151811061034f5761034f61576f565b6020908102919091010151528989600181811061036e5761036e61576f565b90506020020135826000815181106103885761038861576f565b60200260200101516020018181525050898960028181106103ab576103ab61576f565b90506020020135826001815181106103c5576103c561576f565b602090810291909101015152898960038181106103e4576103e461576f565b90506020020135826001815181106103fe576103fe61576f565b60200260200101516020018181525050610416614d76565b816000815181106104295761042961576f565b602002602001018190525061043c6149fb565b8160018151811061044f5761044f61576f565b60200260200101819052506104648282614aa2565b610478576000975050505050505050610484565b60019750505050505050505b949350505050565b60008060008061049a6155e3565b6104a2615602565b6000806104f77f1ec15b84e7798fda176b6d72dd0052e43576a9b91f1961c802475903569234aa7f0df04f334cca4c290ea55ce80cf8f1856253ddf7ea26d952ba29f3d40c5e95cc8b845b6020020151614e1d565b90925090506105517f1782edc0c77b919c3a9de6d4e1a1fd134d3706f49deb24e815927708a82b8e2e7f1860646f2afd0b13981fcc974f30065b4e51017a9b85058a2916b6b60481aaa38b60015b60200201518585614e83565b90925090506105a37f1dd0c5007e552317b46939efc00dfc76c2625f9553e158c3d4c5ff19e0281e377f23e41fa523fcd4aa99c59b3ecaf29d969c924c580e9f1323072587107df8b18e8b6002610545565b90925090506105f57f2fa533059afb88846c26d5ffea35d40abc49b0acc1ce3b6233031b0b579a0f7d7f09d51ac6ddd876137620e4f8d119c840cdf471dd3168580fb176bd71033500cb8b6003610545565b602086015284526106287f189a60d3e6647a8f2d4865ac48b0ead02f5eccc551f5645dded7863b8f65d26a846000614ecf565b8351602085015161063c9190856002614f1b565b600091505b600482116106da576106c88b8b610659856002615814565b6106649060006157cd565b8181106106735761067361576f565b905060200201358c8c8560026106899190615814565b6106949060016157cd565b8181106106a3576106a361576f565b90506020020135858560036106b89190615814565b6106c39060056157cd565b614f1b565b816106d281615851565b925050610641565b6106e5836014614f8b565b6040850152600091505b600d8211610783576107718b8b610707856002615814565b61071290600a6157cd565b8181106107215761072161576f565b905060200201358c8c8560026107379190615814565b61074290600b6157cd565b8181106107515761075161576f565b90506020020135858560036107669190615814565b6106c39060016157cd565b8161077b81615851565b9250506106ef565b61078e83602b614f8b565b606085015261079e836001614f8b565b6080850152600091505b6009821161080d576107fb8b8b6107c0856002615814565b6107cb9060266157cd565b8181106107da576107da61576f565b905060200201358c8c8560026107f09190615814565b6107429060276157cd565b8161080581615851565b9250506107a8565b61081883601f614f8b565b60a0850152600091505b60038211610887576108758b8b61083a856002615814565b61084590603a6157cd565b8181106108545761085461576f565b905060200201358c8c85600261086a9190615814565b61074290603b6157cd565b8161087f81615851565b925050610822565b61089283600d614f8b565b60c0850152600091505b60468211610905576108f38b8b6108b4856001615814565b6108bf9060426157cd565b8181106108ce576108ce61576f565b90506020020135848460026108e39190615814565b6108ee9060016157cd565b614ecf565b816108fd81615851565b92505061089c565b61091083608f614f8b565b60e0850152600091505b6003821161097f5761096d8b8b610932856002615814565b61093d9060896157cd565b81811061094c5761094c61576f565b905060200201358c8c8560026109629190615814565b61074290608a6157cd565b8161097781615851565b92505061091a565b61098a83600d614f8b565b61010085015260c084015160008051602061595f833981519152907f0d94d63997367c97a8ed16c17adaae39262b9af83acb9e003f94c217303dd160900961012085015260c084015160008051602061595f833981519152907f10450706ff540b5847e6f65ed91542ea8f8cd084a5671feef0bfcfc2f6a588af900961014085015260c084015160008051602061595f833981519152907f19277f31ecb5bfe8604677099c09556812b0b5c50cceb2b584098183a5a6c5c8900961016085015260c0840151610a5d906302000000614fed565b61018085015260008051602061595f833981519152610a7d600182615889565b610180860151086101a0850181905260008051602061595f833981519152907f30644e5aaf0a66b91f8030da595e7d1c6787b9b45fc54c546729acf1ff053609096101c085015260008051602061595f833981519152610ade600182615889565b60c0860151089150610af884600e5b602002015183615054565b6101c08501526101a084015160008051602061595f833981519152907f086ef057677ccc8e2da8598f0a0b227b5e5f7830ef2155e9b06ab5f7c4972013096101e085015260008051602061595f833981519152610b757f19277f31ecb5bfe8604677099c09556812b0b5c50cceb2b584098183a5a6c5c882615889565b60c0860151089150610b8884600f610aed565b6101e08501526101a084015160008051602061595f833981519152907f1f5298f06f30aef27025116990ba0eb8d3a07ce10fba9b12494d5191e61398f10961020085015260008051602061595f833981519152610c057f26501ebfe559ea5826f023d3e76e4b66f170cd940408eb5590a4075c80b498d682615889565b60c0860151089150610c18846010610aed565b6102008501526101a084015160008051602061595f833981519152907f1be075e1e050123b414dc71d9cbe43ca60d81b2a73a689ad3fa358c14eefb4c70961022085015260008051602061595f833981519152610c957f24a1fcd63e9f03b27281db85fe631ec8e5c466f8178a4ee94d4942b7ccd90e1c82615889565b60c0860151089150610ca8846011610aed565b6102208501526101a084015160008051602061595f833981519152907f1c4f82a16c6c2cf487558c02a85781169545700c52d69d0f46cd6fd90fd1f7230961024085015260008051602061595f833981519152610d257f1589862c1cf3f8b59954774980cc9361c568bcabd9cb7d0858de685794d4772b82615889565b60c0860151089150610d38846012610aed565b6102408501526101a084015160008051602061595f833981519152907f0e8057140dce54e39d7f36d0ba3d9bfdda54deea8e5c8e998a7d0d2865391bb70961026085015260008051602061595f833981519152610db57f0ca766ef9fc276f1f3c3892716809a02e5050cc32ebdec8db9ff05a22d66925482615889565b60c0860151089150610dc8846013610aed565b6102608501526101a084015160008051602061595f833981519152907f20bf1003dece9064ef1cdb912ff211307eee1e2d73c255405e81ecaf2c5410f40961028085015260008051602061595f833981519152610e457f10450706ff540b5847e6f65ed91542ea8f8cd084a5671feef0bfcfc2f6a588af82615889565b60c0860151089150610e58846014610aed565b6102808501526102008401516101e085015160008051602061595f833981519152919008915060008051602061595f83398151915284601160200201518308915060008051602061595f83398151915284601260200201518308915060008051602061595f833981519152846013602002015183086101e0850152610f298b8b604a818110610ee957610ee961576f565b905060200201358c8c6048818110610f0357610f0361576f565b905060200201358d8d6049818110610f1d57610f1d61576f565b90506020020135615084565b9150610f688b8b604b818110610f4157610f4161576f565b905060200201358c8c6043818110610f5b57610f5b61576f565b9050602002013584615084565b9150610f9a8b8b604c818110610f8057610f8061576f565b905060200201358c8c6044818110610f5b57610f5b61576f565b9150610fcc8b8b604d818110610fb257610fb261576f565b905060200201358c8c6045818110610f5b57610f5b61576f565b9150610ffe8b8b604e818110610fe457610fe461576f565b905060200201358c8c6046818110610f5b57610f5b61576f565b91506110308b8b604f8181106110165761101661576f565b905060200201358c8c6047818110610f5b57610f5b61576f565b61020085015260008051602061595f8339815191528b8b60448181106110585761105861576f565b905060200201358c8c60438181106110725761107261576f565b905060200201350991506110b78b8b60508181106110925761109261576f565b9050602002013583866010605481106110ad576110ad61576f565b6020020151615084565b61020085015260008051602061595f8339815191528b8b60468181106110df576110df61576f565b905060200201358c8c60458181106110f9576110f961576f565b905060200201350991506111198b8b60518181106110925761109261576f565b61020085015260008051602061595f8339815191528b8b60618181106111415761114161576f565b9050602002013560008051602061595f8339815191526111619190615889565b600108915060008051602061595f8339815191528285600e60200201510961022085015260008051602061595f8339815191528b8b60648181106111a7576111a761576f565b905060200201358c8c60648181106111c1576111c161576f565b9050602002013509915060008051602061595f8339815191528b8b60648181106111ed576111ed61576f565b9050602002013560008051602061595f83398151915261120d9190615889565b8308915060008051602061595f8339815191528285601460200201510961024085015260008051602061595f8339815191528b8b60638181106112525761125261576f565b9050602002013560008051602061595f8339815191526112729190615889565b8c8c60648181106112855761128561576f565b9050602002013508915060008051602061595f83398151915284600e6020020151830961026085015260c0840151606085015160008051602061595f8339815191529190096102a08501526101e084015161028085015160008051602061595f833981519152919008915060008051602061595f8339815191526113178360008051602061595f833981519152615889565b6001086101e0850152608084015160008051602061595f833981519152908c8c60438181106113485761134861576f565b90506020020135086102c08501526113938b8b605b81811061136c5761136c61576f565b90506020020135856003605481106113865761138661576f565b60200201518660166110ad565b915060008051602061595f8339815191528b8b60628181106113b7576113b761576f565b9050602002013583096102e08501526102a08401516102c085015160008051602061595f833981519152919008915060008051602061595f8339815191528b8b60618181106114085761140861576f565b9050602002013583096102c08501526102a084015160008051602061595f833981519152907f09226b6e22c6f0ca64ec26aad4c86e715b5f898e5e963f25870e56bbe533e9a209610300850152608084015160008051602061595f833981519152908c8c604481811061147d5761147d61576f565b90506020020135086103208501526114c88b8b605c8181106114a1576114a161576f565b90506020020135856003605481106114bb576114bb61576f565b60200201518660196110ad565b915060008051602061595f833981519152846017602002015183096102e085015261030084015161032085015160008051602061595f833981519152919008915060008051602061595f833981519152846016602002015183096102c085015261030084015160008051602061595f833981519152907f09226b6e22c6f0ca64ec26aad4c86e715b5f898e5e963f25870e56bbe533e9a209610300850152608084015160008051602061595f833981519152908c8c604581811061158e5761158e61576f565b90506020020135086103208501526115b28b8b605d8181106114a1576114a161576f565b915060008051602061595f833981519152846017602002015183096102e085015261030084015161032085015160008051602061595f833981519152919008915060008051602061595f833981519152846016602002015183096102c085015261030084015160008051602061595f833981519152907f09226b6e22c6f0ca64ec26aad4c86e715b5f898e5e963f25870e56bbe533e9a2096103008501526102c084015160008051602061595f833981519152906116709082615889565b6102e086015108915060008051602061595f83398151915284600f602002015183096102c08501526102a084015160008051602061595f833981519152907f18afdf23e9bd9302673fc1e076a492d4d65bd18ebc4d854ed189139bab313e5290096102a0850152608084015160008051602061595f833981519152908c8c60468181106116ff576116ff61576f565b90506020020135086102e085015261174a8b8b605e8181106117235761172361576f565b905060200201358560036054811061173d5761173d61576f565b60200201518660176110ad565b915060008051602061595f8339815191528b8b606581811061176e5761176e61576f565b9050602002013583096103008501526102a08401516102e085015160008051602061595f833981519152919008915060008051602061595f8339815191528b8b60648181106117bf576117bf61576f565b9050602002013583096102e08501526102a084015160008051602061595f833981519152907f09226b6e22c6f0ca64ec26aad4c86e715b5f898e5e963f25870e56bbe533e9a2096102a0850152608084015160008051602061595f833981519152908c8c60478181106118345761183461576f565b90506020020135086103208501526118588b8b605f8181106114a1576114a161576f565b915060008051602061595f833981519152846018602002015183096103008501526102a084015161032085015160008051602061595f833981519152919008915060008051602061595f833981519152846017602002015183096102e08501526102a084015160008051602061595f833981519152907f09226b6e22c6f0ca64ec26aad4c86e715b5f898e5e963f25870e56bbe533e9a2096102a0850152608084015160008051602061595f833981519152908c8c604281811061191e5761191e61576f565b90506020020135086103208501526119428b8b60608181106114a1576114a161576f565b915060008051602061595f833981519152846018602002015183096103008501526102a084015161032085015160008051602061595f833981519152919008915060008051602061595f833981519152846017602002015183096102e08501526102a084015160008051602061595f833981519152907f09226b6e22c6f0ca64ec26aad4c86e715b5f898e5e963f25870e56bbe533e9a2096102a08501526102e084015160008051602061595f83398151915290611a009082615889565b61030086015108915060008051602061595f83398151915284600f602002015183096102a0850152606084015160008051602061595f833981519152908c8c6068818110611a5057611a5061576f565b9050602002013508915060008051602061595f833981519152828c8c6067818110611a7d57611a7d61576f565b90506020020135096102e0850152608084015160008051602061595f833981519152908c8c606a818110611ab357611ab361576f565b9050602002013508915060008051602061595f833981519152828560176020020151096102e085015260008051602061595f8339815191528b8b6052818110611afe57611afe61576f565b905060200201358c8c6043818110611b1857611b1861576f565b9050602002013509610300850152604084015160008051602061595f833981519152906000096040850181905261030085015160008051602061595f833981519152910861030085015260008051602061595f8339815191528b8b6053818110611b8457611b8461576f565b9050602002013585600260548110611b9e57611b9e61576f565b60200201510861032085015260008051602061595f8339815191528b8b606a818110611bcc57611bcc61576f565b9050602002013560008051602061595f833981519152611bec9190615889565b8c8c6068818110611bff57611bff61576f565b905060200201350861034085015260008051602061595f8339815191528b8b6066818110611c2f57611c2f61576f565b9050602002013560008051602061595f833981519152611c4f9190615889565b600108915060008051602061595f8339815191528285600e60200201510961036085015260008051602061595f8339815191528b8b6066818110611c9557611c9561576f565b905060200201358c8c6066818110611caf57611caf61576f565b9050602002013509915060008051602061595f8339815191528b8b6066818110611cdb57611cdb61576f565b9050602002013560008051602061595f833981519152611cfb9190615889565b8308915060008051602061595f83398151915282856014602002015109610380850152606084015161030085015160008051602061595f833981519152919008915060008051602061595f833981519152828c8c6066818110611d6057611d6061576f565b9050602002013509610300850152608084015161032085015160008051602061595f833981519152919008610320850181905261030085015160008051602061595f833981519152919009915060008051602061595f833981519152611dd48360008051602061595f833981519152615889565b6102e086015108915060008051602061595f83398151915284600f602002015183096102e08501526103408401516101c085015160008051602061595f83398151915291900961030085015260008051602061595f8339815191528b8b6069818110611e4257611e4261576f565b9050602002013560008051602061595f833981519152611e629190615889565b8c8c6068818110611e7557611e7561576f565b9050602002013508915060008051602061595f8339815191528285601a602002015109915060008051602061595f83398151915284600f60200201518309610340850152606084015160008051602061595f833981519152908c8c606d818110611ee157611ee161576f565b9050602002013508915060008051602061595f833981519152828c8c606c818110611f0e57611f0e61576f565b90506020020135096103a0850152608084015160008051602061595f833981519152908c8c606f818110611f4457611f4461576f565b9050602002013508915060008051602061595f8339815191528285601d6020020151096103a0850152611fb78b8b6052818110611f8357611f8361576f565b905060200201358c8c6044818110611f9d57611f9d61576f565b90506020020135866002605481106110ad576110ad61576f565b6103c085015260008051602061595f8339815191528b8b606f818110611fdf57611fdf61576f565b9050602002013560008051602061595f833981519152611fff9190615889565b8c8c606d8181106120125761201261576f565b90506020020135086103e085015260008051602061595f8339815191528b8b606b8181106120425761204261576f565b9050602002013560008051602061595f8339815191526120629190615889565b600108915060008051602061595f8339815191528285600e60200201510961040085015260008051602061595f8339815191528b8b606b8181106120a8576120a861576f565b905060200201358c8c606b8181106120c2576120c261576f565b9050602002013509915060008051602061595f8339815191528b8b606b8181106120ee576120ee61576f565b9050602002013560008051602061595f83398151915261210e9190615889565b8308915060008051602061595f8339815191528285601460200201510961042085015260608401516103c085015160008051602061595f833981519152919008915060008051602061595f833981519152828c8c606b8181106121735761217361576f565b9050602002013509915060008051602061595f83398151915284601960200201518309915060008051602061595f8339815191526121bf8360008051602061595f833981519152615889565b6103a086015108915060008051602061595f83398151915284600f602002015183096103a08501526103e08401516101c085015160008051602061595f8339815191529190096103c085015260008051602061595f8339815191528b8b606e81811061222d5761222d61576f565b9050602002013560008051602061595f83398151915261224d9190615889565b8c8c606d8181106122605761226061576f565b9050602002013508915060008051602061595f8339815191528285601f602002015109915060008051602061595f83398151915284600f602002015183096103e0850152606084015160008051602061595f833981519152908c8c60728181106122cc576122cc61576f565b9050602002013508915060008051602061595f833981519152828c8c60718181106122f9576122f961576f565b9050602002013509610440850152608084015160008051602061595f833981519152908c8c607481811061232f5761232f61576f565b9050602002013508915060008051602061595f833981519152828560226020020151096104408501526123888b8b605281811061236e5761236e61576f565b905060200201358c8c6045818110611f9d57611f9d61576f565b61046085015260008051602061595f8339815191528b8b60748181106123b0576123b061576f565b9050602002013560008051602061595f8339815191526123d09190615889565b8c8c60728181106123e3576123e361576f565b905060200201350861048085015260008051602061595f8339815191528b8b60708181106124135761241361576f565b9050602002013560008051602061595f8339815191526124339190615889565b600108915060008051602061595f8339815191528285600e6020020151096104a085015260008051602061595f8339815191528b8b60708181106124795761247961576f565b905060200201358c8c60708181106124935761249361576f565b9050602002013509915060008051602061595f8339815191528b8b60708181106124bf576124bf61576f565b9050602002013560008051602061595f8339815191526124df9190615889565b8308915060008051602061595f833981519152828560146020020151096104c0850152606084015161046085015160008051602061595f833981519152919008915060008051602061595f833981519152828c8c60708181106125445761254461576f565b9050602002013509915060008051602061595f83398151915284601960200201518309915060008051602061595f8339815191526125908360008051602061595f833981519152615889565b61044086015108915060008051602061595f83398151915284600f602002015183096104408501526104808401516101c085015160008051602061595f83398151915291900961046085015260008051602061595f8339815191528b8b60738181106125fe576125fe61576f565b9050602002013560008051602061595f83398151915261261e9190615889565b8c8c60728181106126315761263161576f565b9050602002013508915060008051602061595f83398151915282856024602002015109915060008051602061595f83398151915284600f60200201518309610480850152606084015160008051602061595f833981519152908c8c607781811061269d5761269d61576f565b9050602002013508915060008051602061595f833981519152828c8c60768181106126ca576126ca61576f565b90506020020135096104e0850152608084015160008051602061595f833981519152908c8c60798181106127005761270061576f565b9050602002013508915060008051602061595f833981519152828560276020020151096104e08501526127598b8b605281811061273f5761273f61576f565b905060200201358c8c6046818110611f9d57611f9d61576f565b61050085015260008051602061595f8339815191528b8b60798181106127815761278161576f565b9050602002013560008051602061595f8339815191526127a19190615889565b8c8c60778181106127b4576127b461576f565b905060200201350861052085015260008051602061595f8339815191528b8b60758181106127e4576127e461576f565b9050602002013560008051602061595f8339815191526128049190615889565b600108915060008051602061595f8339815191528285600e60200201510961054085015260008051602061595f8339815191528b8b607581811061284a5761284a61576f565b905060200201358c8c60758181106128645761286461576f565b9050602002013509915060008051602061595f8339815191528b8b60758181106128905761289061576f565b9050602002013560008051602061595f8339815191526128b09190615889565b8308915060008051602061595f83398151915282856014602002015109610560850152606084015161050085015160008051602061595f833981519152919008915060008051602061595f833981519152828c8c60758181106129155761291561576f565b9050602002013509915060008051602061595f83398151915284601960200201518309915060008051602061595f8339815191526129618360008051602061595f833981519152615889565b6104e086015108915060008051602061595f83398151915284600f602002015183096103208501526105208401516101c085015160008051602061595f8339815191529190096104e085015260008051602061595f8339815191528b8b60788181106129cf576129cf61576f565b9050602002013560008051602061595f8339815191526129ef9190615889565b8c8c6077818110612a0257612a0261576f565b9050602002013508915060008051602061595f83398151915282856029602002015109915060008051602061595f83398151915284600f60200201518309610500850152606084015160008051602061595f833981519152908c8c607c818110612a6e57612a6e61576f565b9050602002013508915060008051602061595f833981519152828c8c607b818110612a9b57612a9b61576f565b9050602002013509610520850152608084015160008051602061595f833981519152908c8c607e818110612ad157612ad161576f565b9050602002013508915060008051602061595f83398151915282856029602002015109610520850152612b2a8b8b6054818110612b1057612b1061576f565b905060200201358c8c6043818110611f9d57611f9d61576f565b61058085015260008051602061595f8339815191528b8b6055818110612b5257612b5261576f565b9050602002013585600260548110612b6c57612b6c61576f565b6020020151086105a085015260008051602061595f8339815191528b8b607e818110612b9a57612b9a61576f565b9050602002013560008051602061595f833981519152612bba9190615889565b8c8c607c818110612bcd57612bcd61576f565b90506020020135086105c085015260008051602061595f8339815191528b8b607a818110612bfd57612bfd61576f565b9050602002013560008051602061595f833981519152612c1d9190615889565b600108915060008051602061595f8339815191528285600e6020020151096105e085015260008051602061595f8339815191528b8b607a818110612c6357612c6361576f565b905060200201358c8c607a818110612c7d57612c7d61576f565b9050602002013509915060008051602061595f8339815191528b8b607a818110612ca957612ca961576f565b9050602002013560008051602061595f833981519152612cc99190615889565b8308915060008051602061595f83398151915282856014602002015109610600850152606084015161058085015160008051602061595f833981519152919008915060008051602061595f833981519152828c8c607a818110612d2e57612d2e61576f565b905060200201350961058085015260808401516105a085015160008051602061595f833981519152919008915060008051602061595f8339815191528285602c602002015109915060008051602061595f833981519152612d9d8360008051602061595f833981519152615889565b61052086015108915060008051602061595f83398151915284600f602002015183096105208501526105c08401516101c085015160008051602061595f83398151915291900961058085015260008051602061595f8339815191528b8b607d818110612e0b57612e0b61576f565b9050602002013560008051602061595f833981519152612e2b9190615889565b8c8c607c818110612e3e57612e3e61576f565b9050602002013508915060008051602061595f8339815191528285602e602002015109915060008051602061595f83398151915284600f602002015183096105a0850152606084015160008051602061595f833981519152908c8c6081818110612eaa57612eaa61576f565b9050602002013508915060008051602061595f833981519152828c8c6080818110612ed757612ed761576f565b90506020020135096105c0850152608084015160008051602061595f833981519152908c8c6083818110612f0d57612f0d61576f565b9050602002013508915060008051602061595f8339815191528285602e6020020151096105c0850152612f4c8b8b6056818110612b1057612b1061576f565b61062085015260008051602061595f8339815191528b8b6057818110612f7457612f7461576f565b9050602002013585600260548110612f8e57612f8e61576f565b60200201510861064085015260008051602061595f8339815191528b8b6083818110612fbc57612fbc61576f565b9050602002013560008051602061595f833981519152612fdc9190615889565b8c8c6081818110612fef57612fef61576f565b905060200201350861066085015260008051602061595f8339815191528b8b607f81811061301f5761301f61576f565b9050602002013560008051602061595f83398151915261303f9190615889565b600108915060008051602061595f8339815191528285600e60200201510961068085015260008051602061595f8339815191528b8b607f8181106130855761308561576f565b905060200201358c8c607f81811061309f5761309f61576f565b9050602002013509915060008051602061595f8339815191528b8b607f8181106130cb576130cb61576f565b9050602002013560008051602061595f8339815191526130eb9190615889565b8308915060008051602061595f833981519152828560146020020151096106a0850152606084015161062085015160008051602061595f833981519152919008915060008051602061595f833981519152828c8c607f8181106131505761315061576f565b9050602002013509610620850152608084015161064085015160008051602061595f833981519152919008915060008051602061595f83398151915282856031602002015109915060008051602061595f8339815191526131bf8360008051602061595f833981519152615889565b6105c086015108915060008051602061595f83398151915284600f602002015183096105c08501526106608401516101c085015160008051602061595f83398151915291900961062085015260008051602061595f8339815191528b8b608281811061322d5761322d61576f565b9050602002013560008051602061595f83398151915261324d9190615889565b8c8c60818181106132605761326061576f565b9050602002013508915060008051602061595f83398151915282856033602002015109915060008051602061595f83398151915284600f60200201518309610640850152606084015160008051602061595f833981519152908c8c60868181106132cc576132cc61576f565b9050602002013508915060008051602061595f833981519152828c8c60858181106132f9576132f961576f565b9050602002013509610660850152608084015160008051602061595f833981519152908c8c608881811061332f5761332f61576f565b9050602002013508915060008051602061595f8339815191528285603360200201510961066085015261336e8b8b6058818110612b1057612b1061576f565b6106c085015260008051602061595f8339815191528b8b60598181106133965761339661576f565b90506020020135856002605481106133b0576133b061576f565b602002015108604085015260008051602061595f8339815191528b8b60888181106133dd576133dd61576f565b9050602002013560008051602061595f8339815191526133fd9190615889565b8c8c60868181106134105761341061576f565b90506020020135086106e085015260008051602061595f8339815191528b8b60848181106134405761344061576f565b9050602002013560008051602061595f8339815191526134609190615889565b600108915060008051602061595f8339815191528285600e60200201510961070085015260008051602061595f8339815191528b8b60848181106134a6576134a661576f565b905060200201358c8c60848181106134c0576134c061576f565b9050602002013509915060008051602061595f8339815191528b8b60848181106134ec576134ec61576f565b9050602002013560008051602061595f83398151915261350c9190615889565b8308915060008051602061595f8339815191528285601460200201510961028085015260608401516106c085015160008051602061595f833981519152919008915060008051602061595f833981519152828c8c60848181106135715761357161576f565b905060200201350960608501526080840151604085015160008051602061595f833981519152919008915060008051602061595f83398151915282856003602002015109915060008051602061595f8339815191526135de8360008051602061595f833981519152615889565b61066086015108915060008051602061595f83398151915284600f6020020151830960408501526106e08401516101c085015160008051602061595f833981519152919009606085015260008051602061595f8339815191528b8b608781811061364a5761364a61576f565b9050602002013560008051602061595f83398151915261366a9190615889565b8c8c608681811061367d5761367d61576f565b9050602002013508915060008051602061595f83398151915282856037602002015109915060008051602061595f83398151915284600f60200201518309608085015260a08401516136d39060008660106110ad565b91506137088480600560200201517f35342d2c29302f2827192b2a24232226251f1e1d21201a18171c1b1516131211856150b1565b915061372684806005602002015168ff040302143832312e856150b1565b91506137398285600d6020020151615054565b604085015261010084015160008051602061595f8339815191529080096060850181905261010085015160008051602061595f833981519152910960808501526137c38b8b608f81811061378f5761378f61576f565b905060200201358c8c60908181106137a9576137a961576f565b90506020020135866004605481106104ed576104ed61576f565b90925090506137dc848c8c65ffff088b038d8686615134565b909250905061381f82828d8d60898181106137f9576137f961576f565b905060200201358e8e608a8181106138135761381361576f565b9050602002013561523c565b6101e08601526101c0850152610160840151608085015160008051602061595f83398151915291900960a085015260e0840151608085015160008051602061595f833981519152919009610160850181905260e085015160008051602061595f83398151915291096101a0850181905260e085015160008051602061595f8339815191529109610200850181905260e085015160008051602061595f8339815191529109610220850181905260e085015160008051602061595f8339815191529109610240850181905260e085015160008051602061595f833981519152910961026085015260008051602061595f8339815191528b8b60878181106139275761392761576f565b90506020020135856013605481106139415761394161576f565b6020020151099150613962848c8c6bffff0b6e0d731078117d1282866152aa565b915061399f8b8b606981811061397a5761397a61576f565b90506020020135856004605481106139945761399461576f565b602002015184615084565b610280850152610140840151606085015160008051602061595f833981519152919009610140850152613a058b8b60638181106139de576139de61576f565b90506020020135856003605481106139f8576139f861576f565b60200201518660146110ad565b61028085015261012084015161010085015160008051602061595f83398151915291900961012085015260e084015161010085015160008051602061595f8339815191529190096102a0850152600091505b6008821015613b065760008051602061595f83398151915284613a7b846000615814565b613a869060076157cd565b60548110613a9657613a9661576f565b602002015185613aa7856001615814565b613ab29060156157cd565b60548110613ac257613ac261576f565b60200201510984613ad4846001615814565b613adf9060166157cd565b60548110613aef57613aef61576f565b602002015281613afe81615851565b925050613a57565b60008051602061595f8339815191528b8b6085818110613b2857613b2861576f565b9050602002013585601d60548110613b4257613b4261576f565b6020020151099150613b6b848c8c73ffff0848156216651767186c19711a761b7b1c80866152aa565b915060008051602061595f833981519152828560146020020151086102808501526102a0840151606085015160008051602061595f833981519152919008606085015260e084015160008051602061595f8339815191529080096102a0850181905260e085015160008051602061595f83398151915291096103c0850152600091505b6032821015613c9d5760008051602061595f83398151915284613c12846000615814565b613c1d9060076157cd565b60548110613c2d57613c2d61576f565b602002015185613c3e856001615814565b613c4990601e6157cd565b60548110613c5957613c5961576f565b60200201510984613c6b846001615814565b613c7690601f6157cd565b60548110613c8657613c8661576f565b602002015281613c9581615851565b925050613bee565b60008051602061595f8339815191528b8b605a818110613cbf57613cbf61576f565b9050602002013585605060548110613cd957613cd961576f565b602002015109610a208501526101808401516109e085015160008051602061595f833981519152919009610a40850181905261018085015160008051602061595f8339815191529109610a60850181905261018085015160008051602061595f83398151915291096101808501526109e08401516040850151613d5f91908660516110ad565b9150613d8e848c8c7f3f50405141524253435444554556465747584859495b4a5c4b5d4c5e4d5f4e60866152aa565b9150613dbd848c8c7f2f7a307c317e327f338134833584368637883849394a3a4b3b4c3c4d3d4e3e4f866152aa565b9150613dec848c8c7f1f4620472161226423662468256a266b276d286f29702a722b742c752d772e79866152aa565b9150613e03848c8c67ffff074315441e45866152aa565b915060008051602061595f8339815191528b8b6042818110613e2757613e2761576f565b905060200201358308915060008051602061595f8339815191528285601460200201510860408501526106c084015161026085015160008051602061595f8339815191529190086102608501526106a08401516103a085015160008051602061595f83398151915291900861028085015261066084015161024085015160008051602061595f83398151915291900861024085015261064084015161038085015160008051602061595f83398151915291900861038085015261060084015161022085015160008051602061595f8339815191529190086102208501526105e084015161036085015160008051602061595f8339815191529190086103608501526105a084015161020085015160008051602061595f83398151915291900861020085015261058084015161034085015160008051602061595f8339815191529190086103408501526105408401516101a085015160008051602061595f8339815191529190086101a085015261052084015161032085015160008051602061595f8339815191529190086103208501526104e084015161016085015160008051602061595f8339815191529190086101608501526104c084015161030085015160008051602061595f833981519152919008610300850152610480840151608085015160008051602061595f83398151915291900860808501526104608401516102e085015160008051602061595f8339815191529190086102e08501526104408401516102c085015160008051602061595f8339815191529190086102c0850152610420840151606085015160008051602061595f833981519152919008606085015261040084015161010085015160008051602061595f8339815191529190086101008501526140fa8b8b608f8181106140c6576140c661576f565b905060200201358c8c60908181106140e0576140e061576f565b90506020020135866005605481106104ed576104ed61576f565b909250905061412d848c8c7f182c192e1a301b321c341436098b03260a8d040a0b0e0d121016111a121e13228686615134565b9092509050614154848c8c73ffff4f3a523c533e0c405038068908081628172a8686615134565b90925090506141a67f152b9c7d1ceadeccfde822a7b6b4beb71c8d0d685b871ab0ce92901e5d2f24b47f26331f9b04515434fd2293425ee75905db815daef38bf8061b6c510cc6ee452e86604e610545565b90925090506141f87f177cd7e74a1d013c027aa53ba44edf7fc571814bf7700cd03eb53cdeca485c4d7f2d3cc42bc66807a19d6acd1e6a46bc360631f6ba36f7692f218511336abad63b86604d610545565b909250905061424a7f23120f4e58e097df2005811aac0e63bc9a8509c5191ac712815272bb357a54b07f052d4d109d6156b0a1d6d723b35d1686917776a56bc659eb8dab5cb3a9ae9f4586604c610545565b909250905061429c7f2894f636ef5577a3d4a3f451978582620a4c6a6bc0757c83d146e4ab81e646167f26bbbe7e508b7f3dcffa1ccdfaf564700736f7a488b2aaca5a20746c9b11df3486604b610545565b90925090506142ee7f0199975f594c795559072951d568eb9f29a57f0caddcb57cbce73527b7d3073d7f21901c7fbce5e0c338d6049c77bc73d2a54140b08348a08cffe4f4c989981ea286604a610545565b90925090506143407f1dcaa45fb77670f7090c76014f446f56356e2bb9a517dcee3f8e75aa7d9915467f0aa190443a9d69df65d3dfe59c4f6c6ebe1c8d61933745b4affafc43001e00fa866049610545565b90925090506143927f137981e7f3e35f81c751c513239947f18fc20fd3dd357231ff70d95a65bdfc597f1d6457f8a28c0c517ba7bc5feff33ad55fc9691ecf25f04bf6c913c92eb33b8b866048610545565b90925090506143e47f11031b3e5ae51d639bd181e855391ea62e15261e80e55b78de4e9fa07bab23977f1531b32b4deef3cf26159ea765fd2f48958884bee275f7a41e723af50f62ae7a866047610545565b90925090506144367f2c8893a69d1c3e86054ac5295202a347a9c933fdcb1de71d31e7420592a1a9fb7f156363b7e7020bba909596b96db1d5856f7cd8994695cc20940bb0b76896339f866046610545565b90925090506144887f09329172fd61b53049db99980700b528655e6a047864a78d03a66e14cb79b7f07f0eece3ba3a4132b747c354863dddc1d063e6a4fe8c24be5d8d28500bcb014de1866045610545565b90925090506144da7f137981e7f3e35f81c751c513239947f18fc20fd3dd357231ff70d95a65bdfc597f1d6457f8a28c0c517ba7bc5feff33ad55fc9691ecf25f04bf6c913c92eb33b8b866044610545565b909250905061452c7f166457bf54f504d047fe477997e2c56961fec751ca8df7825ca0bfd7f14f385f7f20b8d43793f5754b904e2f75680cbe726933ae8f2fc29293cc970177299dfd29866043610545565b909250905061457e7f19cb5f81fe60b19c09faefe7dbdcb967dfa1899526359ee648dd2d6d269ea6a87f225bc55f2709e701a80c7b8f5f2df06ea2d4eb0e09b01ba4f16964f2ef67697b866042610545565b90925090506145d07f2b924d1f38b4d08c66431fecec0a4d29c5e812fc47b8c31bbbec7730021ab6397f2ef27aa0e3b3d38a38a4870eb20b63c03a2f0590013ac3d44febe32b81247a20866041610545565b90925090506146227f2c36e4d3649db4fee47a08bf06e11ff062749365f545b1292e4227dc4510ed4d7f02040a3389e8a3a57ca99830654ed87e935349d4f1a30f59973933bb139849ee866040610545565b90925090506146747f02de9a9ac84cd6f15c7d4af42a45b34413951ebea7c79a964319c625479786387f26cf01ccf3275c6f59119e04d2e01c6f8340850f3db02a8ebd36a8517f7b0d6b86603f610545565b90925090506146c67f2aa79e8329ee081ed3b14b8debbaad8cb3d5ae2a324be87cb709dd32491040d57f030c9ed157ba76cd2f1e215cec54d8622e623a6eff7b6c4a0063699936b1a07f86603e610545565b90925090506147187f0d50f519c3fafbe63bf963b526896f5309400cf79b4f1c94927c674e8e5de9857f2ff5403e7058ce86b6291a4c8e74a27b0798297609c73ef1801512b2aa3f77d886603d610545565b909250905061476a7f2b77678589ec1e44709875f319ba488200e510ba0c9ff239b6e5f7cb4bcbd0dd7f0a13cff95fae5655733080700b83619c8434156c6acbb277f66df4becb28da8f86603c610545565b90925090506147bc7f1f0998601c43b5736ed7990df5c03cea91e17a8c729aa57588762d4d3ccbcbe27f05915a698667b8df125276a638205315373f55a4e6c82b91b385013f0e4e125c86603b610545565b909250905061480e7f29fd1c360c4b6f7e39456ab35f98ebb5ea0d7c8c758b519b4eae66df35f70b267f25ef3c8e62b7c1addb43d953e4f1026f5cf9b2768a5709686780b22d3202594c86603a610545565b90925090506148607f2583097e6ce31b8016a9bde4a04702a058dab72d6bf63825f2386731297196ee7f12cd2ad6f71ab09065dcd190f2816194a80dd80f95ca80a96cc34056481ed871866039610545565b90925090506148b27f078ab76b5aa37bcae9c9566bc14de79b6a54d85da022946e1d26d9fda35042cd7f13b1070eb290b40c7c3833a73ea44945791ea692fa31e0012397ac216e039131866038610545565b90925090506148dd848c8c77ffff070015021e041f06250c28102b142e18311c342037248686615134565b855160208701519294509092506148f7918491849161523c565b6020860152845261490c6001600286816104ed565b8551602087015192945090925061492491848461534c565b602086018190528186526101c08601516101e090960151959d959c50909a509850929650505050505050565b6149586155be565b80517f2c358c680be102b15427cd4f58158ea3267a938ac04e1de564fd577bb7258960905280517f097aa085249a574ff7d1aaa2b498623f2923d159833cfde765a657aff8e0b527602091820152810180517f0f77730977b52fe9c4d6cee4c281a3ace737795a9788d0ac3d9f3a9692708c759052517f1899775af20ee6b6b62d0b1c9dd6ad2e954af70764a84584c7cec5e522339fd99060015b602002015290565b614a036155be565b80517f198e9393920d483a7260bfb731fb5d25f1aa493335a9e71297e485b7aef312c2905280517f1800deef121f1e76426a00665e5c4479674322d4f75edadd46debd5cd992f6ed602091820152810180517f275dc4a288d1afb3cbb1ac09187524c7db36395df7be3b99e673b13a075a65ec9052517f1d9befcd05a5323e6da4d435f3b617cdb3af83285c2df711ef39c01571827f9d9060016149f3565b60008083516006614ab39190615814565b905060008167ffffffffffffffff811115614ad057614ad06157e5565b604051908082528060200260200182016040528015614af9578160200160208202803683370190505b509050614b04615621565b60008551875114614b1457600080fd5b60005b8751811015614d4d57878181518110614b3257614b3261576f565b60200260200101516000015184826006614b4c9190615814565b614b579060006157cd565b81518110614b6757614b6761576f565b602002602001018181525050878181518110614b8557614b8561576f565b60200260200101516020015184826006614b9f9190615814565b614baa9060016157cd565b81518110614bba57614bba61576f565b602002602001018181525050868181518110614bd857614bd861576f565b6020908102919091010151515184614bf1836006615814565b614bfc9060026157cd565b81518110614c0c57614c0c61576f565b602002602001018181525050868181518110614c2a57614c2a61576f565b60209081029190910181015151015184614c45836006615814565b614c509060036157cd565b81518110614c6057614c6061576f565b602002602001018181525050868181518110614c7e57614c7e61576f565b602002602001015160200151600060028110614c9c57614c9c61576f565b602002015184614cad836006615814565b614cb89060046157cd565b81518110614cc857614cc861576f565b602002602001018181525050868181518110614ce657614ce661576f565b602002602001015160200151600160028110614d0457614d0461576f565b602002015184614d15836006615814565b614d209060056157cd565b81518110614d3057614d3061576f565b602090810291909101015280614d4581615851565b915050614b17565b50602082602086026020860160085afa905080614d6957600080fd5b5051151595945050505050565b614d7e6155be565b80517f1d4a6e84758a1d01b9d0e8ef8d8e3e0231708e71383621d55dbedf4a7d5edf2a905280517f272ffa49eda017f33c3de460e1a948d70ea647c54bd1696a324e0b06e796d807602091820152810180517f146e254fd05caa01345ede0bb1ab70b00b821e7240516a89289f637f5773133b9052517f051077e8c99309cdd590efe029562eb7b096572cbc53163edc4de400883790e59060016149f3565b600080614e2861563f565b6000614e47604051806040016040528060008152602001600081525090565b8783526020830187905260408084018790528160608560075afa915081614e6d57600080fd5b8051602090910151909890975095505050505050565b600080614e8e61565d565b87815260208101879052604081018690526060810185905260808101849052614eb681615391565b6060810151608090910151909890975095505050505050565b60028282614edc81615851565b935060908110614eee57614eee61576f565b6020020152828282614eff81615851565b935060908110614f1157614f1161576f565b6020020152505050565b60018282614f2881615851565b935060908110614f3a57614f3a61576f565b6020020152838282614f4b81615851565b935060908110614f5d57614f5d61576f565b6020020152828282614f6e81615851565b935060908110614f8057614f8061576f565b602002015250505050565b600080838363ffffffff1660908110614fa657614fa661576f565b6020020181815250506000614fd884846020614fc291906158a0565b614fcd9060016158cc565b63ffffffff166153cc565b519050614fe481615402565b93525090919050565b6000614ff761567b565b614fff615621565b602080835282810181905260408301819052606083018690526080830185905260008051602061595f83398151915260a08401526000908260c08560055afa90508061504a57600080fd5b5051949350505050565b60008160000361506357600080fd5b60008051602061595f83398151915261507b83615576565b84099392505050565b600060008051602061595f8339815191528260008051602061595f83398151915285870908949350505050565b6000805b602081101561512a5760ff8085169081146151115760089490941c9360008051602061595f8339815191528782605481106150f2576150f261576f565b602002015160008051602061595f833981519152868909089350615117565b5061512a565b506151236001826157cd565b90506150b5565b5090949350505050565b60008061513f61565d565b606081018590526080810184905260005b60208110156152215760ff80881690811461520857601088901c9760081c60ff168a8a838181106151835761518361576f565b905060200201358460006005811061519d5761519d61576f565b60200201528a8a6151af8460016157cd565b8181106151be576151be61576f565b90506020020135846001600581106151d8576151d861576f565b60200201528b81605481106151ef576151ef61576f565b6020020151604085015261520284615391565b5061520e565b50615221565b5061521a6002826157cd565b9050615150565b50606081015160809091015190999098509650505050505050565b600080600061525e604051806040016040528060008152602001600081525090565b6152666155a0565b888152602081018890526040808201889052606082018790528260808360065afa92508261529357600080fd5b508051602090910151909890975095505050505050565b6000805b60208110156153415760ff80851690811461532857601085901c9460081c60ff1660008051602061595f8339815191528560008051602061595f8339815191528b84605481106153005761530061576f565b60200201518b8b878181106153175761531761576f565b90506020020135090894505061532e565b50615341565b5061533a6002826157cd565b90506152ae565b509095945050505050565b60008061538486868661537f877f30644e72e131a029b85045b68181585d97816a916871ca8d3c208c16d87cfd47615889565b61523c565b9150915094509492505050565b600060406020830160608460075afa9050806153ac57600080fd5b60406060830160806020850160065afa9050806153c857600080fd5b5050565b6153d4615621565b6000602082848660026107d05a03fa905080806153ed57fe5b50806153fb576153fb6158f4565b5092915050565b6000816155558160008190506008817eff00ff00ff00ff00ff00ff00ff00ff00ff00ff00ff00ff00ff00ff00ff00ff16901b6008827fff00ff00ff00ff00ff00ff00ff00ff00ff00ff00ff00ff00ff00ff00ff00ff0016901c1790506010817dffff0000ffff0000ffff0000ffff0000ffff0000ffff0000ffff0000ffff16901b6010827fffff0000ffff0000ffff0000ffff0000ffff0000ffff0000ffff0000ffff000016901c1790506020817bffffffff00000000ffffffff00000000ffffffff00000000ffffffff16901b6020827fffffffff00000000ffffffff00000000ffffffff00000000ffffffff0000000016901c17905060408177ffffffffffffffff0000000000000000ffffffffffffffff16901b6040827fffffffffffffffff0000000000000000ffffffffffffffff000000000000000016901c179050608081901b608082901c179050919050565b905061556f60008051602061595f83398151915282615923565b9392505050565b600061559a82615595600260008051602061595f833981519152615889565b614fed565b92915050565b60405180608001604052806004906020820280368337509192915050565b60405180604001604052806155d1615699565b81526020016155de615699565b905290565b60405180610a8001604052806054906020820280368337509192915050565b6040518061120001604052806090906020820280368337509192915050565b60405180602001604052806001906020820280368337509192915050565b60405180606001604052806003906020820280368337509192915050565b6040518060a001604052806005906020820280368337509192915050565b6040518060c001604052806006906020820280368337509192915050565b60405180604001604052806002906020820280368337509192915050565b60008083601f8401126156c957600080fd5b50813567ffffffffffffffff8111156156e157600080fd5b6020830191508360208260051b85010111156156fc57600080fd5b9250929050565b6000806000806040858703121561571957600080fd5b843567ffffffffffffffff8082111561573157600080fd5b61573d888389016156b7565b9096509450602087013591508082111561575657600080fd5b50615763878288016156b7565b95989497509550505050565b7f4e487b7100000000000000000000000000000000000000000000000000000000600052603260045260246000fd5b7f4e487b7100000000000000000000000000000000000000000000000000000000600052601160045260246000fd5b600082198211156157e0576157e061579e565b500190565b7f4e487b7100000000000000000000000000000000000000000000000000000000600052604160045260246000fd5b6000817fffffffffffffffffffffffffffffffffffffffffffffffffffffffffffffffff048311821515161561584c5761584c61579e565b500290565b60007fffffffffffffffffffffffffffffffffffffffffffffffffffffffffffffffff82036158825761588261579e565b5060010190565b60008282101561589b5761589b61579e565b500390565b600063ffffffff808316818516818304811182151516156158c3576158c361579e565b02949350505050565b600063ffffffff8083168185168083038211156158eb576158eb61579e565b01949350505050565b7f4e487b7100000000000000000000000000000000000000000000000000000000600052600160045260246000fd5b600082615959577f4e487b7100000000000000000000000000000000000000000000000000000000600052601260045260246000fd5b50069056fe30644e72e131a029b85045b68181585d2833e84879b9709143e1f593f0000001a164736f6c634300080f000a",
  "devdoc": {
    "version": 1,
    "kind": "dev"
  },
  "userdoc": {
    "version": 1,
    "kind": "user"
  }
}